{
	"test.sol": {
		"TransactionTest": {
			"abi": [
				{
					"inputs": [
						{
							"internalType": "address payable",
							"name": "receiver",
							"type": "address"
						},
						{
							"internalType": "uint256",
							"name": "",
							"type": "uint256"
						}
					],
					"name": "sendETH",
					"outputs": [],
					"stateMutability": "payable",
					"type": "function"
				}
			],
			"devdoc": {
				"kind": "dev",
				"methods": {},
				"version": 1
			},
			"evm": {
				"assembly": "    /* \"test.sol\":63:346  contract TransactionTest {... */\n  mstore(0x40, 0x80)\n  callvalue\n  dup1\n  iszero\n  tag_1\n  jumpi\n  revert(0x00, 0x00)\ntag_1:\n  pop\n  dataSize(sub_0)\n  dup1\n  dataOffset(sub_0)\n  0x00\n  codecopy\n  0x00\n  return\nstop\n\nsub_0: assembly {\n        /* \"test.sol\":63:346  contract TransactionTest {... */\n      mstore(0x40, 0x80)\n      jumpi(tag_1, lt(calldatasize, 0x04))\n      shr(0xe0, calldataload(0x00))\n      dup1\n      0x64a197f3\n      eq\n      tag_2\n      jumpi\n    tag_1:\n      revert(0x00, 0x00)\n        /* \"test.sol\":99:341  function sendETH(address payable receiver, uint256) external payable {... */\n    tag_2:\n      tag_3\n      0x04\n      dup1\n      calldatasize\n      sub\n      dup2\n      add\n      swap1\n      tag_4\n      swap2\n      swap1\n      tag_5\n      jump\t// in\n    tag_4:\n      tag_6\n      jump\t// in\n    tag_3:\n      stop\n    tag_6:\n        /* \"test.sol\":199:200  0 */\n      0x00\n        /* \"test.sol\":187:196  msg.value */\n      callvalue\n        /* \"test.sol\":187:200  msg.value > 0 */\n      gt\n        /* \"test.sol\":179:216  require(msg.value > 0, \"No ETH sent\") */\n      tag_8\n      jumpi\n      mload(0x40)\n      0x08c379a000000000000000000000000000000000000000000000000000000000\n      dup2\n      mstore\n      0x04\n      add\n      tag_9\n      swap1\n      tag_10\n      jump\t// in\n    tag_9:\n      mload(0x40)\n      dup1\n      swap2\n      sub\n      swap1\n      revert\n    tag_8:\n        /* \"test.sol\":230:242  bool success */\n      0x00\n        /* \"test.sol\":248:256  receiver */\n      dup3\n        /* \"test.sol\":248:261  receiver.call */\n      0xffffffffffffffffffffffffffffffffffffffff\n      and\n        /* \"test.sol\":269:278  msg.value */\n      callvalue\n        /* \"test.sol\":248:283  receiver.call{value: msg.value}(\"\") */\n      mload(0x40)\n      tag_11\n      swap1\n      tag_12\n      jump\t// in\n    tag_11:\n      0x00\n      mload(0x40)\n      dup1\n      dup4\n      sub\n      dup2\n      dup6\n      dup8\n      gas\n      call\n      swap3\n      pop\n      pop\n      pop\n      returndatasize\n      dup1\n      0x00\n      dup2\n      eq\n      tag_15\n      jumpi\n      mload(0x40)\n      swap2\n      pop\n      and(add(returndatasize, 0x3f), not(0x1f))\n      dup3\n      add\n      0x40\n      mstore\n      returndatasize\n      dup3\n      mstore\n      returndatasize\n      0x00\n      0x20\n      dup5\n      add\n      returndatacopy\n      jump(tag_14)\n    tag_15:\n      0x60\n      swap2\n      pop\n    tag_14:\n      pop\n        /* \"test.sol\":229:283  (bool success, ) = receiver.call{value: msg.value}(\"\") */\n      pop\n      swap1\n      pop\n        /* \"test.sol\":302:309  success */\n      dup1\n        /* \"test.sol\":294:333  require(success, \"ETH transfer failed\") */\n      tag_16\n      jumpi\n      mload(0x40)\n      0x08c379a000000000000000000000000000000000000000000000000000000000\n      dup2\n      mstore\n      0x04\n      add\n      tag_17\n      swap1\n      tag_18\n      jump\t// in\n    tag_17:\n      mload(0x40)\n      dup1\n      swap2\n      sub\n      swap1\n      revert\n    tag_16:\n        /* \"test.sol\":168:341  {... */\n      pop\n        /* \"test.sol\":99:341  function sendETH(address payable receiver, uint256) external payable {... */\n      pop\n      pop\n      jump\t// out\n        /* \"#utility.yul\":88:205   */\n    tag_20:\n        /* \"#utility.yul\":197:198   */\n      0x00\n        /* \"#utility.yul\":194:195   */\n      0x00\n        /* \"#utility.yul\":187:199   */\n      revert\n        /* \"#utility.yul\":334:460   */\n    tag_22:\n        /* \"#utility.yul\":371:378   */\n      0x00\n        /* \"#utility.yul\":411:453   */\n      0xffffffffffffffffffffffffffffffffffffffff\n        /* \"#utility.yul\":404:409   */\n      dup3\n        /* \"#utility.yul\":400:454   */\n      and\n        /* \"#utility.yul\":389:454   */\n      swap1\n      pop\n        /* \"#utility.yul\":334:460   */\n      swap2\n      swap1\n      pop\n      jump\t// out\n        /* \"#utility.yul\":466:570   */\n    tag_23:\n        /* \"#utility.yul\":511:518   */\n      0x00\n        /* \"#utility.yul\":540:564   */\n      tag_43\n        /* \"#utility.yul\":558:563   */\n      dup3\n        /* \"#utility.yul\":540:564   */\n      tag_22\n      jump\t// in\n    tag_43:\n        /* \"#utility.yul\":529:564   */\n      swap1\n      pop\n        /* \"#utility.yul\":466:570   */\n      swap2\n      swap1\n      pop\n      jump\t// out\n        /* \"#utility.yul\":576:714   */\n    tag_24:\n        /* \"#utility.yul\":657:689   */\n      tag_45\n        /* \"#utility.yul\":683:688   */\n      dup2\n        /* \"#utility.yul\":657:689   */\n      tag_23\n      jump\t// in\n    tag_45:\n        /* \"#utility.yul\":650:655   */\n      dup2\n        /* \"#utility.yul\":647:690   */\n      eq\n        /* \"#utility.yul\":637:708   */\n      tag_46\n      jumpi\n        /* \"#utility.yul\":704:705   */\n      0x00\n        /* \"#utility.yul\":701:702   */\n      0x00\n        /* \"#utility.yul\":694:706   */\n      revert\n        /* \"#utility.yul\":637:708   */\n    tag_46:\n        /* \"#utility.yul\":576:714   */\n      pop\n      jump\t// out\n        /* \"#utility.yul\":720:875   */\n    tag_25:\n        /* \"#utility.yul\":774:779   */\n      0x00\n        /* \"#utility.yul\":812:818   */\n      dup2\n        /* \"#utility.yul\":799:819   */\n      calldataload\n        /* \"#utility.yul\":790:819   */\n      swap1\n      pop\n        /* \"#utility.yul\":828:869   */\n      tag_48\n        /* \"#utility.yul\":863:868   */\n      dup2\n        /* \"#utility.yul\":828:869   */\n      tag_24\n      jump\t// in\n    tag_48:\n        /* \"#utility.yul\":720:875   */\n      swap3\n      swap2\n      pop\n      pop\n      jump\t// out\n        /* \"#utility.yul\":881:958   */\n    tag_26:\n        /* \"#utility.yul\":918:925   */\n      0x00\n        /* \"#utility.yul\":947:952   */\n      dup2\n        /* \"#utility.yul\":936:952   */\n      swap1\n      pop\n        /* \"#utility.yul\":881:958   */\n      swap2\n      swap1\n      pop\n      jump\t// out\n        /* \"#utility.yul\":964:1086   */\n    tag_27:\n        /* \"#utility.yul\":1037:1061   */\n      tag_51\n        /* \"#utility.yul\":1055:1060   */\n      dup2\n        /* \"#utility.yul\":1037:1061   */\n      tag_26\n      jump\t// in\n    tag_51:\n        /* \"#utility.yul\":1030:1035   */\n      dup2\n        /* \"#utility.yul\":1027:1062   */\n      eq\n        /* \"#utility.yul\":1017:1080   */\n      tag_52\n      jumpi\n        /* \"#utility.yul\":1076:1077   */\n      0x00\n        /* \"#utility.yul\":1073:1074   */\n      0x00\n        /* \"#utility.yul\":1066:1078   */\n      revert\n        /* \"#utility.yul\":1017:1080   */\n    tag_52:\n        /* \"#utility.yul\":964:1086   */\n      pop\n      jump\t// out\n        /* \"#utility.yul\":1092:1231   */\n    tag_28:\n        /* \"#utility.yul\":1138:1143   */\n      0x00\n        /* \"#utility.yul\":1176:1182   */\n      dup2\n        /* \"#utility.yul\":1163:1183   */\n      calldataload\n        /* \"#utility.yul\":1154:1183   */\n      swap1\n      pop\n        /* \"#utility.yul\":1192:1225   */\n      tag_54\n        /* \"#utility.yul\":1219:1224   */\n      dup2\n        /* \"#utility.yul\":1192:1225   */\n      tag_27\n      jump\t// in\n    tag_54:\n        /* \"#utility.yul\":1092:1231   */\n      swap3\n      swap2\n      pop\n      pop\n      jump\t// out\n        /* \"#utility.yul\":1237:1727   */\n    tag_5:\n        /* \"#utility.yul\":1313:1319   */\n      0x00\n        /* \"#utility.yul\":1321:1327   */\n      0x00\n        /* \"#utility.yul\":1370:1372   */\n      0x40\n        /* \"#utility.yul\":1358:1367   */\n      dup4\n        /* \"#utility.yul\":1349:1356   */\n      dup6\n        /* \"#utility.yul\":1345:1368   */\n      sub\n        /* \"#utility.yul\":1341:1373   */\n      slt\n        /* \"#utility.yul\":1338:1457   */\n      iszero\n      tag_56\n      jumpi\n        /* \"#utility.yul\":1376:1455   */\n      tag_57\n      tag_20\n      jump\t// in\n    tag_57:\n        /* \"#utility.yul\":1338:1457   */\n    tag_56:\n        /* \"#utility.yul\":1496:1497   */\n      0x00\n        /* \"#utility.yul\":1521:1582   */\n      tag_58\n        /* \"#utility.yul\":1574:1581   */\n      dup6\n        /* \"#utility.yul\":1565:1571   */\n      dup3\n        /* \"#utility.yul\":1554:1563   */\n      dup7\n        /* \"#utility.yul\":1550:1572   */\n      add\n        /* \"#utility.yul\":1521:1582   */\n      tag_25\n      jump\t// in\n    tag_58:\n        /* \"#utility.yul\":1511:1582   */\n      swap3\n      pop\n        /* \"#utility.yul\":1467:1592   */\n      pop\n        /* \"#utility.yul\":1631:1633   */\n      0x20\n        /* \"#utility.yul\":1657:1710   */\n      tag_59\n        /* \"#utility.yul\":1702:1709   */\n      dup6\n        /* \"#utility.yul\":1693:1699   */\n      dup3\n        /* \"#utility.yul\":1682:1691   */\n      dup7\n        /* \"#utility.yul\":1678:1700   */\n      add\n        /* \"#utility.yul\":1657:1710   */\n      tag_28\n      jump\t// in\n    tag_59:\n        /* \"#utility.yul\":1647:1710   */\n      swap2\n      pop\n        /* \"#utility.yul\":1602:1720   */\n      pop\n        /* \"#utility.yul\":1237:1727   */\n      swap3\n      pop\n      swap3\n      swap1\n      pop\n      jump\t// out\n        /* \"#utility.yul\":1733:1902   */\n    tag_29:\n        /* \"#utility.yul\":1817:1828   */\n      0x00\n        /* \"#utility.yul\":1851:1857   */\n      dup3\n        /* \"#utility.yul\":1846:1849   */\n      dup3\n        /* \"#utility.yul\":1839:1858   */\n      mstore\n        /* \"#utility.yul\":1891:1895   */\n      0x20\n        /* \"#utility.yul\":1886:1889   */\n      dup3\n        /* \"#utility.yul\":1882:1896   */\n      add\n        /* \"#utility.yul\":1867:1896   */\n      swap1\n      pop\n        /* \"#utility.yul\":1733:1902   */\n      swap3\n      swap2\n      pop\n      pop\n      jump\t// out\n        /* \"#utility.yul\":1908:2069   */\n    tag_30:\n        /* \"#utility.yul\":2048:2061   */\n      0x4e6f204554482073656e74000000000000000000000000000000000000000000\n        /* \"#utility.yul\":2044:2045   */\n      0x00\n        /* \"#utility.yul\":2036:2042   */\n      dup3\n        /* \"#utility.yul\":2032:2046   */\n      add\n        /* \"#utility.yul\":2025:2062   */\n      mstore\n        /* \"#utility.yul\":1908:2069   */\n      pop\n      jump\t// out\n        /* \"#utility.yul\":2075:2441   */\n    tag_31:\n        /* \"#utility.yul\":2217:2220   */\n      0x00\n        /* \"#utility.yul\":2238:2305   */\n      tag_63\n        /* \"#utility.yul\":2302:2304   */\n      0x0b\n        /* \"#utility.yul\":2297:2300   */\n      dup4\n        /* \"#utility.yul\":2238:2305   */\n      tag_29\n      jump\t// in\n    tag_63:\n        /* \"#utility.yul\":2231:2305   */\n      swap2\n      pop\n        /* \"#utility.yul\":2314:2407   */\n      tag_64\n        /* \"#utility.yul\":2403:2406   */\n      dup3\n        /* \"#utility.yul\":2314:2407   */\n      tag_30\n      jump\t// in\n    tag_64:\n        /* \"#utility.yul\":2432:2434   */\n      0x20\n        /* \"#utility.yul\":2427:2430   */\n      dup3\n        /* \"#utility.yul\":2423:2435   */\n      add\n        /* \"#utility.yul\":2416:2435   */\n      swap1\n      pop\n        /* \"#utility.yul\":2075:2441   */\n      swap2\n      swap1\n      pop\n      jump\t// out\n        /* \"#utility.yul\":2447:2866   */\n    tag_10:\n        /* \"#utility.yul\":2613:2617   */\n      0x00\n        /* \"#utility.yul\":2651:2653   */\n      0x20\n        /* \"#utility.yul\":2640:2649   */\n      dup3\n        /* \"#utility.yul\":2636:2654   */\n      add\n        /* \"#utility.yul\":2628:2654   */\n      swap1\n      pop\n        /* \"#utility.yul\":2700:2709   */\n      dup2\n        /* \"#utility.yul\":2694:2698   */\n      dup2\n        /* \"#utility.yul\":2690:2710   */\n      sub\n        /* \"#utility.yul\":2686:2687   */\n      0x00\n        /* \"#utility.yul\":2675:2684   */\n      dup4\n        /* \"#utility.yul\":2671:2688   */\n      add\n        /* \"#utility.yul\":2664:2711   */\n      mstore\n        /* \"#utility.yul\":2728:2859   */\n      tag_66\n        /* \"#utility.yul\":2854:2858   */\n      dup2\n        /* \"#utility.yul\":2728:2859   */\n      tag_31\n      jump\t// in\n    tag_66:\n        /* \"#utility.yul\":2720:2859   */\n      swap1\n      pop\n        /* \"#utility.yul\":2447:2866   */\n      swap2\n      swap1\n      pop\n      jump\t// out\n        /* \"#utility.yul\":2872:3019   */\n    tag_32:\n        /* \"#utility.yul\":2973:2984   */\n      0x00\n        /* \"#utility.yul\":3010:3013   */\n      dup2\n        /* \"#utility.yul\":2995:3013   */\n      swap1\n      pop\n        /* \"#utility.yul\":2872:3019   */\n      swap3\n      swap2\n      pop\n      pop\n      jump\t// out\n        /* \"#utility.yul\":3025:3139   */\n    tag_33:\n      pop\n      jump\t// out\n        /* \"#utility.yul\":3145:3543   */\n    tag_34:\n        /* \"#utility.yul\":3304:3307   */\n      0x00\n        /* \"#utility.yul\":3325:3408   */\n      tag_70\n        /* \"#utility.yul\":3406:3407   */\n      0x00\n        /* \"#utility.yul\":3401:3404   */\n      dup4\n        /* \"#utility.yul\":3325:3408   */\n      tag_32\n      jump\t// in\n    tag_70:\n        /* \"#utility.yul\":3318:3408   */\n      swap2\n      pop\n        /* \"#utility.yul\":3417:3510   */\n      tag_71\n        /* \"#utility.yul\":3506:3509   */\n      dup3\n        /* \"#utility.yul\":3417:3510   */\n      tag_33\n      jump\t// in\n    tag_71:\n        /* \"#utility.yul\":3535:3536   */\n      0x00\n        /* \"#utility.yul\":3530:3533   */\n      dup3\n        /* \"#utility.yul\":3526:3537   */\n      add\n        /* \"#utility.yul\":3519:3537   */\n      swap1\n      pop\n        /* \"#utility.yul\":3145:3543   */\n      swap2\n      swap1\n      pop\n      jump\t// out\n        /* \"#utility.yul\":3549:3928   */\n    tag_12:\n        /* \"#utility.yul\":3733:3736   */\n      0x00\n        /* \"#utility.yul\":3755:3902   */\n      tag_73\n        /* \"#utility.yul\":3898:3901   */\n      dup3\n        /* \"#utility.yul\":3755:3902   */\n      tag_34\n      jump\t// in\n    tag_73:\n        /* \"#utility.yul\":3748:3902   */\n      swap2\n      pop\n        /* \"#utility.yul\":3919:3922   */\n      dup2\n        /* \"#utility.yul\":3912:3922   */\n      swap1\n      pop\n        /* \"#utility.yul\":3549:3928   */\n      swap2\n      swap1\n      pop\n      jump\t// out\n        /* \"#utility.yul\":3934:4103   */\n    tag_35:\n        /* \"#utility.yul\":4074:4095   */\n      0x455448207472616e73666572206661696c656400000000000000000000000000\n        /* \"#utility.yul\":4070:4071   */\n      0x00\n        /* \"#utility.yul\":4062:4068   */\n      dup3\n        /* \"#utility.yul\":4058:4072   */\n      add\n        /* \"#utility.yul\":4051:4096   */\n      mstore\n        /* \"#utility.yul\":3934:4103   */\n      pop\n      jump\t// out\n        /* \"#utility.yul\":4109:4475   */\n    tag_36:\n        /* \"#utility.yul\":4251:4254   */\n      0x00\n        /* \"#utility.yul\":4272:4339   */\n      tag_76\n        /* \"#utility.yul\":4336:4338   */\n      0x13\n        /* \"#utility.yul\":4331:4334   */\n      dup4\n        /* \"#utility.yul\":4272:4339   */\n      tag_29\n      jump\t// in\n    tag_76:\n        /* \"#utility.yul\":4265:4339   */\n      swap2\n      pop\n        /* \"#utility.yul\":4348:4441   */\n      tag_77\n        /* \"#utility.yul\":4437:4440   */\n      dup3\n        /* \"#utility.yul\":4348:4441   */\n      tag_35\n      jump\t// in\n    tag_77:\n        /* \"#utility.yul\":4466:4468   */\n      0x20\n        /* \"#utility.yul\":4461:4464   */\n      dup3\n        /* \"#utility.yul\":4457:4469   */\n      add\n        /* \"#utility.yul\":4450:4469   */\n      swap1\n      pop\n        /* \"#utility.yul\":4109:4475   */\n      swap2\n      swap1\n      pop\n      jump\t// out\n        /* \"#utility.yul\":4481:4900   */\n    tag_18:\n        /* \"#utility.yul\":4647:4651   */\n      0x00\n        /* \"#utility.yul\":4685:4687   */\n      0x20\n        /* \"#utility.yul\":4674:4683   */\n      dup3\n        /* \"#utility.yul\":4670:4688   */\n      add\n        /* \"#utility.yul\":4662:4688   */\n      swap1\n      pop\n        /* \"#utility.yul\":4734:4743   */\n      dup2\n        /* \"#utility.yul\":4728:4732   */\n      dup2\n        /* \"#utility.yul\":4724:4744   */\n      sub\n        /* \"#utility.yul\":4720:4721   */\n      0x00\n        /* \"#utility.yul\":4709:4718   */\n      dup4\n        /* \"#utility.yul\":4705:4722   */\n      add\n        /* \"#utility.yul\":4698:4745   */\n      mstore\n        /* \"#utility.yul\":4762:4893   */\n      tag_79\n        /* \"#utility.yul\":4888:4892   */\n      dup2\n        /* \"#utility.yul\":4762:4893   */\n      tag_36\n      jump\t// in\n    tag_79:\n        /* \"#utility.yul\":4754:4893   */\n      swap1\n      pop\n        /* \"#utility.yul\":4481:4900   */\n      swap2\n      swap1\n      pop\n      jump\t// out\n\n    auxdata: 0xa2646970667358221220efc100e302d0ebd0dc13e0c2496c9987164821077911b518beff7f254affd09e64736f6c63430008220033\n}\n",
				"bytecode": {
					"linkReferences": {},
					"object": "6080604052348015600e575f5ffd5b506103528061001c5f395ff3fe60806040526004361061001d575f3560e01c806364a197f314610021575b5f5ffd5b61003b600480360381019061003691906101bd565b61003d565b005b5f341161007f576040517f08c379a000000000000000000000000000000000000000000000000000000000815260040161007690610255565b60405180910390fd5b5f8273ffffffffffffffffffffffffffffffffffffffff16346040516100a4906102a0565b5f6040518083038185875af1925050503d805f81146100de576040519150601f19603f3d011682016040523d82523d5f602084013e6100e3565b606091505b5050905080610127576040517f08c379a000000000000000000000000000000000000000000000000000000000815260040161011e906102fe565b60405180910390fd5b505050565b5f5ffd5b5f73ffffffffffffffffffffffffffffffffffffffff82169050919050565b5f61015982610130565b9050919050565b6101698161014f565b8114610173575f5ffd5b50565b5f8135905061018481610160565b92915050565b5f819050919050565b61019c8161018a565b81146101a6575f5ffd5b50565b5f813590506101b781610193565b92915050565b5f5f604083850312156101d3576101d261012c565b5b5f6101e085828601610176565b92505060206101f1858286016101a9565b9150509250929050565b5f82825260208201905092915050565b7f4e6f204554482073656e740000000000000000000000000000000000000000005f82015250565b5f61023f600b836101fb565b915061024a8261020b565b602082019050919050565b5f6020820190508181035f83015261026c81610233565b9050919050565b5f81905092915050565b50565b5f61028b5f83610273565b91506102968261027d565b5f82019050919050565b5f6102aa82610280565b9150819050919050565b7f455448207472616e73666572206661696c6564000000000000000000000000005f82015250565b5f6102e86013836101fb565b91506102f3826102b4565b602082019050919050565b5f6020820190508181035f830152610315816102dc565b905091905056fea2646970667358221220efc100e302d0ebd0dc13e0c2496c9987164821077911b518beff7f254affd09e64736f6c63430008220033",
					"opcodes": "PUSH1 0x80 PUSH1 0x40 MSTORE CALLVALUE DUP1 ISZERO PUSH1 0xE JUMPI PUSH0 PUSH0 REVERT JUMPDEST POP PUSH2 0x352 DUP1 PUSH2 0x1C PUSH0 CODECOPY PUSH0 RETURN INVALID PUSH1 0x80 PUSH1 0x40 MSTORE PUSH1 0x4 CALLDATASIZE LT PUSH2 0x1D JUMPI PUSH0 CALLDATALOAD PUSH1 0xE0 SHR DUP1 PUSH4 0x64A197F3 EQ PUSH2 0x21 JUMPI JUMPDEST PUSH0 PUSH0 REVERT JUMPDEST PUSH2 0x3B PUSH1 0x4 DUP1 CALLDATASIZE SUB DUP2 ADD SWAP1 PUSH2 0x36 SWAP2 SWAP1 PUSH2 0x1BD JUMP JUMPDEST PUSH2 0x3D JUMP JUMPDEST STOP JUMPDEST PUSH0 CALLVALUE GT PUSH2 0x7F JUMPI PUSH1 0x40 MLOAD PUSH32 0x8C379A000000000000000000000000000000000000000000000000000000000 DUP2 MSTORE PUSH1 0x4 ADD PUSH2 0x76 SWAP1 PUSH2 0x255 JUMP JUMPDEST PUSH1 0x40 MLOAD DUP1 SWAP2 SUB SWAP1 REVERT JUMPDEST PUSH0 DUP3 PUSH20 0xFFFFFFFFFFFFFFFFFFFFFFFFFFFFFFFFFFFFFFFF AND CALLVALUE PUSH1 0x40 MLOAD PUSH2 0xA4 SWAP1 PUSH2 0x2A0 JUMP JUMPDEST PUSH0 PUSH1 0x40 MLOAD DUP1 DUP4 SUB DUP2 DUP6 DUP8 GAS CALL SWAP3 POP POP POP RETURNDATASIZE DUP1 PUSH0 DUP2 EQ PUSH2 0xDE JUMPI PUSH1 0x40 MLOAD SWAP2 POP PUSH1 0x1F NOT PUSH1 0x3F RETURNDATASIZE ADD AND DUP3 ADD PUSH1 0x40 MSTORE RETURNDATASIZE DUP3 MSTORE RETURNDATASIZE PUSH0 PUSH1 0x20 DUP5 ADD RETURNDATACOPY PUSH2 0xE3 JUMP JUMPDEST PUSH1 0x60 SWAP2 POP JUMPDEST POP POP SWAP1 POP DUP1 PUSH2 0x127 JUMPI PUSH1 0x40 MLOAD PUSH32 0x8C379A000000000000000000000000000000000000000000000000000000000 DUP2 MSTORE PUSH1 0x4 ADD PUSH2 0x11E SWAP1 PUSH2 0x2FE JUMP JUMPDEST PUSH1 0x40 MLOAD DUP1 SWAP2 SUB SWAP1 REVERT JUMPDEST POP POP POP JUMP JUMPDEST PUSH0 PUSH0 REVERT JUMPDEST PUSH0 PUSH20 0xFFFFFFFFFFFFFFFFFFFFFFFFFFFFFFFFFFFFFFFF DUP3 AND SWAP1 POP SWAP2 SWAP1 POP JUMP JUMPDEST PUSH0 PUSH2 0x159 DUP3 PUSH2 0x130 JUMP JUMPDEST SWAP1 POP SWAP2 SWAP1 POP JUMP JUMPDEST PUSH2 0x169 DUP2 PUSH2 0x14F JUMP JUMPDEST DUP2 EQ PUSH2 0x173 JUMPI PUSH0 PUSH0 REVERT JUMPDEST POP JUMP JUMPDEST PUSH0 DUP2 CALLDATALOAD SWAP1 POP PUSH2 0x184 DUP2 PUSH2 0x160 JUMP JUMPDEST SWAP3 SWAP2 POP POP JUMP JUMPDEST PUSH0 DUP2 SWAP1 POP SWAP2 SWAP1 POP JUMP JUMPDEST PUSH2 0x19C DUP2 PUSH2 0x18A JUMP JUMPDEST DUP2 EQ PUSH2 0x1A6 JUMPI PUSH0 PUSH0 REVERT JUMPDEST POP JUMP JUMPDEST PUSH0 DUP2 CALLDATALOAD SWAP1 POP PUSH2 0x1B7 DUP2 PUSH2 0x193 JUMP JUMPDEST SWAP3 SWAP2 POP POP JUMP JUMPDEST PUSH0 PUSH0 PUSH1 0x40 DUP4 DUP6 SUB SLT ISZERO PUSH2 0x1D3 JUMPI PUSH2 0x1D2 PUSH2 0x12C JUMP JUMPDEST JUMPDEST PUSH0 PUSH2 0x1E0 DUP6 DUP3 DUP7 ADD PUSH2 0x176 JUMP JUMPDEST SWAP3 POP POP PUSH1 0x20 PUSH2 0x1F1 DUP6 DUP3 DUP7 ADD PUSH2 0x1A9 JUMP JUMPDEST SWAP2 POP POP SWAP3 POP SWAP3 SWAP1 POP JUMP JUMPDEST PUSH0 DUP3 DUP3 MSTORE PUSH1 0x20 DUP3 ADD SWAP1 POP SWAP3 SWAP2 POP POP JUMP JUMPDEST PUSH32 0x4E6F204554482073656E74000000000000000000000000000000000000000000 PUSH0 DUP3 ADD MSTORE POP JUMP JUMPDEST PUSH0 PUSH2 0x23F PUSH1 0xB DUP4 PUSH2 0x1FB JUMP JUMPDEST SWAP2 POP PUSH2 0x24A DUP3 PUSH2 0x20B JUMP JUMPDEST PUSH1 0x20 DUP3 ADD SWAP1 POP SWAP2 SWAP1 POP JUMP JUMPDEST PUSH0 PUSH1 0x20 DUP3 ADD SWAP1 POP DUP2 DUP2 SUB PUSH0 DUP4 ADD MSTORE PUSH2 0x26C DUP2 PUSH2 0x233 JUMP JUMPDEST SWAP1 POP SWAP2 SWAP1 POP JUMP JUMPDEST PUSH0 DUP2 SWAP1 POP SWAP3 SWAP2 POP POP JUMP JUMPDEST POP JUMP JUMPDEST PUSH0 PUSH2 0x28B PUSH0 DUP4 PUSH2 0x273 JUMP JUMPDEST SWAP2 POP PUSH2 0x296 DUP3 PUSH2 0x27D JUMP JUMPDEST PUSH0 DUP3 ADD SWAP1 POP SWAP2 SWAP1 POP JUMP JUMPDEST PUSH0 PUSH2 0x2AA DUP3 PUSH2 0x280 JUMP JUMPDEST SWAP2 POP DUP2 SWAP1 POP SWAP2 SWAP1 POP JUMP JUMPDEST PUSH32 0x455448207472616E73666572206661696C656400000000000000000000000000 PUSH0 DUP3 ADD MSTORE POP JUMP JUMPDEST PUSH0 PUSH2 0x2E8 PUSH1 0x13 DUP4 PUSH2 0x1FB JUMP JUMPDEST SWAP2 POP PUSH2 0x2F3 DUP3 PUSH2 0x2B4 JUMP JUMPDEST PUSH1 0x20 DUP3 ADD SWAP1 POP SWAP2 SWAP1 POP JUMP JUMPDEST PUSH0 PUSH1 0x20 DUP3 ADD SWAP1 POP DUP2 DUP2 SUB PUSH0 DUP4 ADD MSTORE PUSH2 0x315 DUP2 PUSH2 0x2DC JUMP JUMPDEST SWAP1 POP SWAP2 SWAP1 POP JUMP INVALID LOG2 PUSH5 0x6970667358 0x22 SLT KECCAK256 0xEF 0xC1 STOP CALLF 0x2D0 0xEB 0xD0 0xDC SGT RJUMP 0xC249 PUSH13 0x9987164821077911B518BEFF7F 0x25 BLOBBASEFEE SELFDESTRUCT 0xD0 SWAP15 PUSH5 0x736F6C6343 STOP ADDMOD 0x22 STOP CALLER "
				},
				"gasEstimates": {
					"creation": {
						"codeDepositCost": "170000",
						"executionCost": "212",
						"totalCost": "170212"
					},
					"external": {
						"sendETH(address,uint256)": "infinite"
					}
				},
				"methodIdentifiers": {
					"sendETH(address,uint256)": "64a197f3"
				}
			},
			"storageLayout": {
				"storage": [],
				"types": null
			},
			"userdoc": {
				"kind": "user",
				"methods": {},
				"version": 1
			}
		}
	}
}