{
	"stage2.sol": {
		"Game": {
			"abi": [
				{
					"inputs": [],
					"stateMutability": "nonpayable",
					"type": "constructor"
				},
				{
					"inputs": [],
					"name": "confirmWinner",
					"outputs": [],
					"stateMutability": "nonpayable",
					"type": "function"
				},
				{
					"inputs": [],
					"name": "gameResult",
					"outputs": [
						{
							"internalType": "uint256",
							"name": "",
							"type": "uint256"
						},
						{
							"internalType": "string",
							"name": "",
							"type": "string"
						}
					],
					"stateMutability": "view",
					"type": "function"
				},
				{
					"inputs": [],
					"name": "owner",
					"outputs": [
						{
							"internalType": "address",
							"name": "",
							"type": "address"
						}
					],
					"stateMutability": "view",
					"type": "function"
				},
				{
					"inputs": [
						{
							"internalType": "uint256",
							"name": "_ownerAns",
							"type": "uint256"
						}
					],
					"name": "ownerSubmit",
					"outputs": [
						{
							"internalType": "uint256",
							"name": "",
							"type": "uint256"
						}
					],
					"stateMutability": "nonpayable",
					"type": "function"
				},
				{
					"inputs": [],
					"name": "ownerViewAns",
					"outputs": [
						{
							"internalType": "uint256",
							"name": "",
							"type": "uint256"
						}
					],
					"stateMutability": "view",
					"type": "function"
				},
				{
					"inputs": [],
					"name": "player",
					"outputs": [
						{
							"internalType": "address",
							"name": "",
							"type": "address"
						}
					],
					"stateMutability": "view",
					"type": "function"
				},
				{
					"inputs": [
						{
							"internalType": "uint256",
							"name": "_playerAns",
							"type": "uint256"
						}
					],
					"name": "playerSubmit",
					"outputs": [
						{
							"internalType": "uint256",
							"name": "",
							"type": "uint256"
						}
					],
					"stateMutability": "nonpayable",
					"type": "function"
				},
				{
					"inputs": [],
					"name": "playerViewAns",
					"outputs": [
						{
							"internalType": "uint256",
							"name": "",
							"type": "uint256"
						}
					],
					"stateMutability": "view",
					"type": "function"
				}
			],
			"devdoc": {
				"kind": "dev",
				"methods": {},
				"version": 1
			},
			"evm": {
				"assembly": "    /* \"stage2.sol\":61:3118  contract Game{... */\n  mstore(0x40, 0x80)\n    /* \"stage2.sol\":325:376  constructor() {... */\n  callvalue\n  dup1\n  iszero\n  tag_1\n  jumpi\n  revert(0x00, 0x00)\ntag_1:\n  pop\n    /* \"stage2.sol\":358:368  msg.sender */\n  caller\n    /* \"stage2.sol\":350:355  owner */\n  0x00\n  0x00\n    /* \"stage2.sol\":350:368  owner = msg.sender */\n  0x0100\n  exp\n  dup2\n  sload\n  dup2\n  0xffffffffffffffffffffffffffffffffffffffff\n  mul\n  not\n  and\n  swap1\n  dup4\n  0xffffffffffffffffffffffffffffffffffffffff\n  and\n  mul\n  or\n  swap1\n  sstore\n  pop\n    /* \"stage2.sol\":61:3118  contract Game{... */\n  dataSize(sub_0)\n  dup1\n  dataOffset(sub_0)\n  0x00\n  codecopy\n  0x00\n  return\nstop\n\nsub_0: assembly {\n        /* \"stage2.sol\":61:3118  contract Game{... */\n      mstore(0x40, 0x80)\n      callvalue\n      dup1\n      iszero\n      tag_1\n      jumpi\n      revert(0x00, 0x00)\n    tag_1:\n      pop\n      jumpi(tag_2, lt(calldatasize, 0x04))\n      shr(0xe0, calldataload(0x00))\n      dup1\n      0x7ad596f3\n      gt\n      tag_11\n      jumpi\n      dup1\n      0x7ad596f3\n      eq\n      tag_7\n      jumpi\n      dup1\n      0x8da5cb5b\n      eq\n      tag_8\n      jumpi\n      dup1\n      0xd55c9c84\n      eq\n      tag_9\n      jumpi\n      dup1\n      0xd79830cf\n      eq\n      tag_10\n      jumpi\n      jump(tag_2)\n    tag_11:\n      dup1\n      0x24ccd2d1\n      eq\n      tag_3\n      jumpi\n      dup1\n      0x48db5f89\n      eq\n      tag_4\n      jumpi\n      dup1\n      0x5f582011\n      eq\n      tag_5\n      jumpi\n      dup1\n      0x7152f800\n      eq\n      tag_6\n      jumpi\n    tag_2:\n      revert(0x00, 0x00)\n        /* \"stage2.sol\":898:1366  function playerSubmit(uint256 _playerAns) public returns (uint256) {... */\n    tag_3:\n      tag_12\n      0x04\n      dup1\n      calldatasize\n      sub\n      dup2\n      add\n      swap1\n      tag_13\n      swap2\n      swap1\n      tag_14\n      jump\t// in\n    tag_13:\n      tag_15\n      jump\t// in\n    tag_12:\n      mload(0x40)\n      tag_16\n      swap2\n      swap1\n      tag_17\n      jump\t// in\n    tag_16:\n      mload(0x40)\n      dup1\n      swap2\n      sub\n      swap1\n      return\n        /* \"stage2.sol\":110:131  address public player */\n    tag_4:\n      tag_18\n      tag_19\n      jump\t// in\n    tag_18:\n      mload(0x40)\n      tag_20\n      swap2\n      swap1\n      tag_21\n      jump\t// in\n    tag_20:\n      mload(0x40)\n      dup1\n      swap2\n      sub\n      swap1\n      return\n        /* \"stage2.sol\":1402:1545  function playerViewAns() public view returns(uint256){... */\n    tag_5:\n      tag_22\n      tag_23\n      jump\t// in\n    tag_22:\n      mload(0x40)\n      tag_24\n      swap2\n      swap1\n      tag_17\n      jump\t// in\n    tag_24:\n      mload(0x40)\n      dup1\n      swap2\n      sub\n      swap1\n      return\n        /* \"stage2.sol\":1908:2423  function gameResult() public view returns(uint256, string memory){... */\n    tag_6:\n      tag_25\n      tag_26\n      jump\t// in\n    tag_25:\n      mload(0x40)\n      tag_27\n      swap3\n      swap2\n      swap1\n      tag_28\n      jump\t// in\n    tag_27:\n      mload(0x40)\n      dup1\n      swap2\n      sub\n      swap1\n      return\n        /* \"stage2.sol\":484:890  function ownerSubmit(uint256 _ownerAns) public returns (uint256) {... */\n    tag_7:\n      tag_29\n      0x04\n      dup1\n      calldatasize\n      sub\n      dup2\n      add\n      swap1\n      tag_30\n      swap2\n      swap1\n      tag_14\n      jump\t// in\n    tag_30:\n      tag_31\n      jump\t// in\n    tag_29:\n      mload(0x40)\n      tag_32\n      swap2\n      swap1\n      tag_17\n      jump\t// in\n    tag_32:\n      mload(0x40)\n      dup1\n      swap2\n      sub\n      swap1\n      return\n        /* \"stage2.sol\":83:103  address public owner */\n    tag_8:\n      tag_33\n      tag_34\n      jump\t// in\n    tag_33:\n      mload(0x40)\n      tag_35\n      swap2\n      swap1\n      tag_21\n      jump\t// in\n    tag_35:\n      mload(0x40)\n      dup1\n      swap2\n      sub\n      swap1\n      return\n        /* \"stage2.sol\":2527:3113  function confirmWinner() public {... */\n    tag_9:\n      tag_36\n      tag_37\n      jump\t// in\n    tag_36:\n      stop\n        /* \"stage2.sol\":1553:1694  function ownerViewAns() public view returns (uint256) {... */\n    tag_10:\n      tag_38\n      tag_39\n      jump\t// in\n    tag_38:\n      mload(0x40)\n      tag_40\n      swap2\n      swap1\n      tag_17\n      jump\t// in\n    tag_40:\n      mload(0x40)\n      dup1\n      swap2\n      sub\n      swap1\n      return\n        /* \"stage2.sol\":898:1366  function playerSubmit(uint256 _playerAns) public returns (uint256) {... */\n    tag_15:\n        /* \"stage2.sol\":956:963  uint256 */\n      0x00\n        /* \"stage2.sol\":998:1003  owner */\n      0x00\n      0x00\n      swap1\n      sload\n      swap1\n      0x0100\n      exp\n      swap1\n      div\n      0xffffffffffffffffffffffffffffffffffffffff\n      and\n        /* \"stage2.sol\":984:1003  msg.sender != owner */\n      0xffffffffffffffffffffffffffffffffffffffff\n      and\n        /* \"stage2.sol\":984:994  msg.sender */\n      caller\n        /* \"stage2.sol\":984:1003  msg.sender != owner */\n      0xffffffffffffffffffffffffffffffffffffffff\n      and\n      sub\n        /* \"stage2.sol\":976:1042  require(msg.sender != owner, \"owner can not Submit player Answer\") */\n      tag_42\n      jumpi\n      mload(0x40)\n      0x08c379a000000000000000000000000000000000000000000000000000000000\n      dup2\n      mstore\n      0x04\n      add\n      tag_43\n      swap1\n      tag_44\n      jump\t// in\n    tag_43:\n      mload(0x40)\n      dup1\n      swap2\n      sub\n      swap1\n      revert\n    tag_42:\n        /* \"stage2.sol\":1076:1092  Status.Submitted */\n      0x01\n        /* \"stage2.sol\":1061:1092  playerStatus!= Status.Submitted */\n      0x02\n      dup2\n      gt\n      iszero\n      tag_45\n      jumpi\n      tag_46\n      tag_47\n      jump\t// in\n    tag_46:\n    tag_45:\n        /* \"stage2.sol\":1061:1073  playerStatus */\n      0x04\n      0x00\n      swap1\n      sload\n      swap1\n      0x0100\n      exp\n      swap1\n      div\n      0xff\n      and\n        /* \"stage2.sol\":1061:1092  playerStatus!= Status.Submitted */\n      0x02\n      dup2\n      gt\n      iszero\n      tag_48\n      jumpi\n      tag_49\n      tag_47\n      jump\t// in\n    tag_49:\n    tag_48:\n      sub\n        /* \"stage2.sol\":1053:1123  require(playerStatus!= Status.Submitted, \"You have already submitted\") */\n      tag_50\n      jumpi\n      mload(0x40)\n      0x08c379a000000000000000000000000000000000000000000000000000000000\n      dup2\n      mstore\n      0x04\n      add\n      tag_51\n      swap1\n      tag_52\n      jump\t// in\n    tag_51:\n      mload(0x40)\n      dup1\n      swap2\n      sub\n      swap1\n      revert\n    tag_50:\n        /* \"stage2.sol\":1157:1170  Status.Winner */\n      0x02\n        /* \"stage2.sol\":1142:1170  playerStatus!= Status.Winner */\n      dup1\n      dup2\n      gt\n      iszero\n      tag_53\n      jumpi\n      tag_54\n      tag_47\n      jump\t// in\n    tag_54:\n    tag_53:\n        /* \"stage2.sol\":1142:1154  playerStatus */\n      0x04\n      0x00\n      swap1\n      sload\n      swap1\n      0x0100\n      exp\n      swap1\n      div\n      0xff\n      and\n        /* \"stage2.sol\":1142:1170  playerStatus!= Status.Winner */\n      0x02\n      dup2\n      gt\n      iszero\n      tag_55\n      jumpi\n      tag_56\n      tag_47\n      jump\t// in\n    tag_56:\n    tag_55:\n      sub\n        /* \"stage2.sol\":1134:1224  require(playerStatus!= Status.Winner, \"The game is finish, new submission is not allowed\") */\n      tag_57\n      jumpi\n      mload(0x40)\n      0x08c379a000000000000000000000000000000000000000000000000000000000\n      dup2\n      mstore\n      0x04\n      add\n      tag_58\n      swap1\n      tag_59\n      jump\t// in\n    tag_58:\n      mload(0x40)\n      dup1\n      swap2\n      sub\n      swap1\n      revert\n    tag_57:\n        /* \"stage2.sol\":1246:1256  msg.sender */\n      caller\n        /* \"stage2.sol\":1237:1243  player */\n      0x01\n      0x00\n        /* \"stage2.sol\":1237:1256  player = msg.sender */\n      0x0100\n      exp\n      dup2\n      sload\n      dup2\n      0xffffffffffffffffffffffffffffffffffffffff\n      mul\n      not\n      and\n      swap1\n      dup4\n      0xffffffffffffffffffffffffffffffffffffffff\n      and\n      mul\n      or\n      swap1\n      sstore\n      pop\n        /* \"stage2.sol\":1279:1289  _playerAns */\n      dup2\n        /* \"stage2.sol\":1267:1276  playerAns */\n      0x03\n        /* \"stage2.sol\":1267:1289  playerAns = _playerAns */\n      dup2\n      swap1\n      sstore\n      pop\n        /* \"stage2.sol\":1315:1331  Status.Submitted */\n      0x01\n        /* \"stage2.sol\":1300:1312  playerStatus */\n      0x04\n      0x00\n        /* \"stage2.sol\":1300:1331  playerStatus = Status.Submitted */\n      0x0100\n      exp\n      dup2\n      sload\n      dup2\n      0xff\n      mul\n      not\n      and\n      swap1\n      dup4\n      0x02\n      dup2\n      gt\n      iszero\n      tag_60\n      jumpi\n      tag_61\n      tag_47\n      jump\t// in\n    tag_61:\n    tag_60:\n      mul\n      or\n      swap1\n      sstore\n      pop\n        /* \"stage2.sol\":1349:1358  playerAns */\n      sload(0x03)\n        /* \"stage2.sol\":1342:1358  return playerAns */\n      swap1\n      pop\n        /* \"stage2.sol\":898:1366  function playerSubmit(uint256 _playerAns) public returns (uint256) {... */\n      swap2\n      swap1\n      pop\n      jump\t// out\n        /* \"stage2.sol\":110:131  address public player */\n    tag_19:\n      0x01\n      0x00\n      swap1\n      sload\n      swap1\n      0x0100\n      exp\n      swap1\n      div\n      0xffffffffffffffffffffffffffffffffffffffff\n      and\n      dup2\n      jump\t// out\n        /* \"stage2.sol\":1402:1545  function playerViewAns() public view returns(uint256){... */\n    tag_23:\n        /* \"stage2.sol\":1447:1454  uint256 */\n      0x00\n        /* \"stage2.sol\":1488:1494  player */\n      0x01\n      0x00\n      swap1\n      sload\n      swap1\n      0x0100\n      exp\n      swap1\n      div\n      0xffffffffffffffffffffffffffffffffffffffff\n      and\n        /* \"stage2.sol\":1474:1494  msg.sender == player */\n      0xffffffffffffffffffffffffffffffffffffffff\n      and\n        /* \"stage2.sol\":1474:1484  msg.sender */\n      caller\n        /* \"stage2.sol\":1474:1494  msg.sender == player */\n      0xffffffffffffffffffffffffffffffffffffffff\n      and\n      eq\n        /* \"stage2.sol\":1466:1510  require(msg.sender == player, \"only player\") */\n      tag_63\n      jumpi\n      mload(0x40)\n      0x08c379a000000000000000000000000000000000000000000000000000000000\n      dup2\n      mstore\n      0x04\n      add\n      tag_64\n      swap1\n      tag_65\n      jump\t// in\n    tag_64:\n      mload(0x40)\n      dup1\n      swap2\n      sub\n      swap1\n      revert\n    tag_63:\n        /* \"stage2.sol\":1528:1537  playerAns */\n      sload(0x03)\n        /* \"stage2.sol\":1521:1537  return playerAns */\n      swap1\n      pop\n        /* \"stage2.sol\":1402:1545  function playerViewAns() public view returns(uint256){... */\n      swap1\n      jump\t// out\n        /* \"stage2.sol\":1908:2423  function gameResult() public view returns(uint256, string memory){... */\n    tag_26:\n        /* \"stage2.sol\":1950:1957  uint256 */\n      0x00\n        /* \"stage2.sol\":1959:1972  string memory */\n      0x60\n        /* \"stage2.sol\":2008:2024  Status.Submitted */\n      0x01\n        /* \"stage2.sol\":1992:2024  playerStatus == Status.Submitted */\n      0x02\n      dup2\n      gt\n      iszero\n      tag_67\n      jumpi\n      tag_68\n      tag_47\n      jump\t// in\n    tag_68:\n    tag_67:\n        /* \"stage2.sol\":1992:2004  playerStatus */\n      0x04\n      0x00\n      swap1\n      sload\n      swap1\n      0x0100\n      exp\n      swap1\n      div\n      0xff\n      and\n        /* \"stage2.sol\":1992:2024  playerStatus == Status.Submitted */\n      0x02\n      dup2\n      gt\n      iszero\n      tag_69\n      jumpi\n      tag_70\n      tag_47\n      jump\t// in\n    tag_70:\n    tag_69:\n      eq\n        /* \"stage2.sol\":1984:2049  require(playerStatus == Status.Submitted, \"Player do not submit\") */\n      tag_71\n      jumpi\n      mload(0x40)\n      0x08c379a000000000000000000000000000000000000000000000000000000000\n      dup2\n      mstore\n      0x04\n      add\n      tag_72\n      swap1\n      tag_73\n      jump\t// in\n    tag_72:\n      mload(0x40)\n      dup1\n      swap2\n      sub\n      swap1\n      revert\n    tag_71:\n        /* \"stage2.sol\":2083:2099  Status.Submitted */\n      0x01\n        /* \"stage2.sol\":2068:2099  ownerStatus == Status.Submitted */\n      0x02\n      dup2\n      gt\n      iszero\n      tag_74\n      jumpi\n      tag_75\n      tag_47\n      jump\t// in\n    tag_75:\n    tag_74:\n        /* \"stage2.sol\":2068:2079  ownerStatus */\n      0x04\n      0x01\n      swap1\n      sload\n      swap1\n      0x0100\n      exp\n      swap1\n      div\n      0xff\n      and\n        /* \"stage2.sol\":2068:2099  ownerStatus == Status.Submitted */\n      0x02\n      dup2\n      gt\n      iszero\n      tag_76\n      jumpi\n      tag_77\n      tag_47\n      jump\t// in\n    tag_77:\n    tag_76:\n      eq\n        /* \"stage2.sol\":2060:2123  require(ownerStatus == Status.Submitted, \"Owner do not submit\") */\n      tag_78\n      jumpi\n      mload(0x40)\n      0x08c379a000000000000000000000000000000000000000000000000000000000\n      dup2\n      mstore\n      0x04\n      add\n      tag_79\n      swap1\n      tag_80\n      jump\t// in\n    tag_79:\n      mload(0x40)\n      dup1\n      swap2\n      sub\n      swap1\n      revert\n    tag_78:\n        /* \"stage2.sol\":2134:2148  uint256 result */\n      0x00\n        /* \"stage2.sol\":2151:2172  calculateGameResult() */\n      tag_81\n        /* \"stage2.sol\":2151:2170  calculateGameResult */\n      tag_82\n        /* \"stage2.sol\":2151:2172  calculateGameResult() */\n      jump\t// in\n    tag_81:\n        /* \"stage2.sol\":2134:2172  uint256 result = calculateGameResult() */\n      swap1\n      pop\n        /* \"stage2.sol\":2195:2196  3 */\n      0x03\n        /* \"stage2.sol\":2187:2193  result */\n      dup2\n        /* \"stage2.sol\":2187:2196  result<=3 */\n      gt\n        /* \"stage2.sol\":2183:2416  if (result<=3){... */\n      tag_83\n      jumpi\n        /* \"stage2.sol\":2220:2226  result */\n      dup1\n        /* \"stage2.sol\":2212:2291  return (result, \"Owner win, please confirm you are the Winner and get reward!\") */\n      mload(0x40)\n      dup1\n      0x60\n      add\n      0x40\n      mstore\n      dup1\n      0x3c\n      dup2\n      mstore\n      0x20\n      add\n      data_5df918448539201a5bf172a217e04027eea7222bcd2565f78e2d9aefbb4afa7c\n      0x3c\n      swap2\n      codecopy\n      swap3\n      pop\n      swap3\n      pop\n      pop\n      jump(tag_66)\n        /* \"stage2.sol\":2183:2416  if (result<=3){... */\n    tag_83:\n        /* \"stage2.sol\":2332:2338  result */\n      dup1\n        /* \"stage2.sol\":2324:2404  return (result, \"Player win, please confirm you are the Winner and get reward!\") */\n      mload(0x40)\n      dup1\n      0x60\n      add\n      0x40\n      mstore\n      dup1\n      0x3d\n      dup2\n      mstore\n      0x20\n      add\n      data_5bf2a40c643c32a91271cfb84ebaedf3782dbc5f3dc9227048c7865bf3996704\n      0x3d\n      swap2\n      codecopy\n      swap3\n      pop\n      swap3\n      pop\n      pop\n        /* \"stage2.sol\":1908:2423  function gameResult() public view returns(uint256, string memory){... */\n    tag_66:\n      swap1\n      swap2\n      jump\t// out\n        /* \"stage2.sol\":484:890  function ownerSubmit(uint256 _ownerAns) public returns (uint256) {... */\n    tag_31:\n        /* \"stage2.sol\":540:547  uint256 */\n      0x00\n        /* \"stage2.sol\":582:587  owner */\n      0x00\n      0x00\n      swap1\n      sload\n      swap1\n      0x0100\n      exp\n      swap1\n      div\n      0xffffffffffffffffffffffffffffffffffffffff\n      and\n        /* \"stage2.sol\":568:587  msg.sender == owner */\n      0xffffffffffffffffffffffffffffffffffffffff\n      and\n        /* \"stage2.sol\":568:578  msg.sender */\n      caller\n        /* \"stage2.sol\":568:587  msg.sender == owner */\n      0xffffffffffffffffffffffffffffffffffffffff\n      and\n      eq\n        /* \"stage2.sol\":560:602  require(msg.sender == owner, \"only owner\") */\n      tag_86\n      jumpi\n      mload(0x40)\n      0x08c379a000000000000000000000000000000000000000000000000000000000\n      dup2\n      mstore\n      0x04\n      add\n      tag_87\n      swap1\n      tag_88\n      jump\t// in\n    tag_87:\n      mload(0x40)\n      dup1\n      swap2\n      sub\n      swap1\n      revert\n    tag_86:\n        /* \"stage2.sol\":635:651  Status.Submitted */\n      0x01\n        /* \"stage2.sol\":621:651  ownerStatus!= Status.Submitted */\n      0x02\n      dup2\n      gt\n      iszero\n      tag_89\n      jumpi\n      tag_90\n      tag_47\n      jump\t// in\n    tag_90:\n    tag_89:\n        /* \"stage2.sol\":621:632  ownerStatus */\n      0x04\n      0x01\n      swap1\n      sload\n      swap1\n      0x0100\n      exp\n      swap1\n      div\n      0xff\n      and\n        /* \"stage2.sol\":621:651  ownerStatus!= Status.Submitted */\n      0x02\n      dup2\n      gt\n      iszero\n      tag_91\n      jumpi\n      tag_92\n      tag_47\n      jump\t// in\n    tag_92:\n    tag_91:\n      sub\n        /* \"stage2.sol\":613:682  require(ownerStatus!= Status.Submitted, \"You have already submitted\") */\n      tag_93\n      jumpi\n      mload(0x40)\n      0x08c379a000000000000000000000000000000000000000000000000000000000\n      dup2\n      mstore\n      0x04\n      add\n      tag_94\n      swap1\n      tag_52\n      jump\t// in\n    tag_94:\n      mload(0x40)\n      dup1\n      swap2\n      sub\n      swap1\n      revert\n    tag_93:\n        /* \"stage2.sol\":715:728  Status.Winner */\n      0x02\n        /* \"stage2.sol\":701:728  ownerStatus!= Status.Winner */\n      dup1\n      dup2\n      gt\n      iszero\n      tag_95\n      jumpi\n      tag_96\n      tag_47\n      jump\t// in\n    tag_96:\n    tag_95:\n        /* \"stage2.sol\":701:712  ownerStatus */\n      0x04\n      0x01\n      swap1\n      sload\n      swap1\n      0x0100\n      exp\n      swap1\n      div\n      0xff\n      and\n        /* \"stage2.sol\":701:728  ownerStatus!= Status.Winner */\n      0x02\n      dup2\n      gt\n      iszero\n      tag_97\n      jumpi\n      tag_98\n      tag_47\n      jump\t// in\n    tag_98:\n    tag_97:\n      sub\n        /* \"stage2.sol\":693:782  require(ownerStatus!= Status.Winner, \"The game is finish, new submission is not allowed\") */\n      tag_99\n      jumpi\n      mload(0x40)\n      0x08c379a000000000000000000000000000000000000000000000000000000000\n      dup2\n      mstore\n      0x04\n      add\n      tag_100\n      swap1\n      tag_59\n      jump\t// in\n    tag_100:\n      mload(0x40)\n      dup1\n      swap2\n      sub\n      swap1\n      revert\n    tag_99:\n        /* \"stage2.sol\":806:815  _ownerAns */\n      dup2\n        /* \"stage2.sol\":795:803  ownerAns */\n      0x02\n        /* \"stage2.sol\":795:815  ownerAns = _ownerAns */\n      dup2\n      swap1\n      sstore\n      pop\n        /* \"stage2.sol\":840:856  Status.Submitted */\n      0x01\n        /* \"stage2.sol\":826:837  ownerStatus */\n      0x04\n      0x01\n        /* \"stage2.sol\":826:856  ownerStatus = Status.Submitted */\n      0x0100\n      exp\n      dup2\n      sload\n      dup2\n      0xff\n      mul\n      not\n      and\n      swap1\n      dup4\n      0x02\n      dup2\n      gt\n      iszero\n      tag_101\n      jumpi\n      tag_102\n      tag_47\n      jump\t// in\n    tag_102:\n    tag_101:\n      mul\n      or\n      swap1\n      sstore\n      pop\n        /* \"stage2.sol\":874:882  ownerAns */\n      sload(0x02)\n        /* \"stage2.sol\":867:882  return ownerAns */\n      swap1\n      pop\n        /* \"stage2.sol\":484:890  function ownerSubmit(uint256 _ownerAns) public returns (uint256) {... */\n      swap2\n      swap1\n      pop\n      jump\t// out\n        /* \"stage2.sol\":83:103  address public owner */\n    tag_34:\n      0x00\n      0x00\n      swap1\n      sload\n      swap1\n      0x0100\n      exp\n      swap1\n      div\n      0xffffffffffffffffffffffffffffffffffffffff\n      and\n      dup2\n      jump\t// out\n        /* \"stage2.sol\":2527:3113  function confirmWinner() public {... */\n    tag_37:\n        /* \"stage2.sol\":2566:2580  uint256 result */\n      0x00\n        /* \"stage2.sol\":2583:2604  calculateGameResult() */\n      tag_104\n        /* \"stage2.sol\":2583:2602  calculateGameResult */\n      tag_82\n        /* \"stage2.sol\":2583:2604  calculateGameResult() */\n      jump\t// in\n    tag_104:\n        /* \"stage2.sol\":2566:2604  uint256 result = calculateGameResult() */\n      swap1\n      pop\n        /* \"stage2.sol\":2627:2628  3 */\n      0x03\n        /* \"stage2.sol\":2617:2623  result */\n      dup2\n        /* \"stage2.sol\":2617:2628  result <= 3 */\n      gt\n        /* \"stage2.sol\":2613:3106  if (result <= 3) {... */\n      tag_105\n      jumpi\n        /* \"stage2.sol\":2667:2672  owner */\n      0x00\n      0x00\n      swap1\n      sload\n      swap1\n      0x0100\n      exp\n      swap1\n      div\n      0xffffffffffffffffffffffffffffffffffffffff\n      and\n        /* \"stage2.sol\":2653:2672  msg.sender == owner */\n      0xffffffffffffffffffffffffffffffffffffffff\n      and\n        /* \"stage2.sol\":2653:2663  msg.sender */\n      caller\n        /* \"stage2.sol\":2653:2672  msg.sender == owner */\n      0xffffffffffffffffffffffffffffffffffffffff\n      and\n      eq\n        /* \"stage2.sol\":2645:2699  require(msg.sender == owner, \"Only owner can confirm\") */\n      tag_106\n      jumpi\n      mload(0x40)\n      0x08c379a000000000000000000000000000000000000000000000000000000000\n      dup2\n      mstore\n      0x04\n      add\n      tag_107\n      swap1\n      tag_108\n      jump\t// in\n    tag_107:\n      mload(0x40)\n      dup1\n      swap2\n      sub\n      swap1\n      revert\n    tag_106:\n        /* \"stage2.sol\":2737:2753  Status.Submitted */\n      0x01\n        /* \"stage2.sol\":2722:2753  ownerStatus == Status.Submitted */\n      0x02\n      dup2\n      gt\n      iszero\n      tag_109\n      jumpi\n      tag_110\n      tag_47\n      jump\t// in\n    tag_110:\n    tag_109:\n        /* \"stage2.sol\":2722:2733  ownerStatus */\n      0x04\n      0x01\n      swap1\n      sload\n      swap1\n      0x0100\n      exp\n      swap1\n      div\n      0xff\n      and\n        /* \"stage2.sol\":2722:2753  ownerStatus == Status.Submitted */\n      0x02\n      dup2\n      gt\n      iszero\n      tag_111\n      jumpi\n      tag_112\n      tag_47\n      jump\t// in\n    tag_112:\n    tag_111:\n      eq\n        /* \"stage2.sol\":2714:2807  require(ownerStatus == Status.Submitted, \"You are not allow to confirm winner at this stage\") */\n      tag_113\n      jumpi\n      mload(0x40)\n      0x08c379a000000000000000000000000000000000000000000000000000000000\n      dup2\n      mstore\n      0x04\n      add\n      tag_114\n      swap1\n      tag_115\n      jump\t// in\n    tag_114:\n      mload(0x40)\n      dup1\n      swap2\n      sub\n      swap1\n      revert\n    tag_113:\n        /* \"stage2.sol\":2838:2851  Status.Winner */\n      0x02\n        /* \"stage2.sol\":2824:2835  ownerStatus */\n      0x04\n      0x01\n        /* \"stage2.sol\":2824:2851  ownerStatus = Status.Winner */\n      0x0100\n      exp\n      dup2\n      sload\n      dup2\n      0xff\n      mul\n      not\n      and\n      swap1\n      dup4\n      0x02\n      dup2\n      gt\n      iszero\n      tag_116\n      jumpi\n      tag_117\n      tag_47\n      jump\t// in\n    tag_117:\n    tag_116:\n      mul\n      or\n      swap1\n      sstore\n      pop\n        /* \"stage2.sol\":2613:3106  if (result <= 3) {... */\n      jump(tag_118)\n    tag_105:\n        /* \"stage2.sol\":2906:2912  player */\n      0x01\n      0x00\n      swap1\n      sload\n      swap1\n      0x0100\n      exp\n      swap1\n      div\n      0xffffffffffffffffffffffffffffffffffffffff\n      and\n        /* \"stage2.sol\":2892:2912  msg.sender == player */\n      0xffffffffffffffffffffffffffffffffffffffff\n      and\n        /* \"stage2.sol\":2892:2902  msg.sender */\n      caller\n        /* \"stage2.sol\":2892:2912  msg.sender == player */\n      0xffffffffffffffffffffffffffffffffffffffff\n      and\n      eq\n        /* \"stage2.sol\":2884:2940  require(msg.sender == player, \"Only player can confirm\") */\n      tag_119\n      jumpi\n      mload(0x40)\n      0x08c379a000000000000000000000000000000000000000000000000000000000\n      dup2\n      mstore\n      0x04\n      add\n      tag_120\n      swap1\n      tag_121\n      jump\t// in\n    tag_120:\n      mload(0x40)\n      dup1\n      swap2\n      sub\n      swap1\n      revert\n    tag_119:\n        /* \"stage2.sol\":2979:2995  Status.Submitted */\n      0x01\n        /* \"stage2.sol\":2963:2995  playerStatus == Status.Submitted */\n      0x02\n      dup2\n      gt\n      iszero\n      tag_122\n      jumpi\n      tag_123\n      tag_47\n      jump\t// in\n    tag_123:\n    tag_122:\n        /* \"stage2.sol\":2963:2975  playerStatus */\n      0x04\n      0x00\n      swap1\n      sload\n      swap1\n      0x0100\n      exp\n      swap1\n      div\n      0xff\n      and\n        /* \"stage2.sol\":2963:2995  playerStatus == Status.Submitted */\n      0x02\n      dup2\n      gt\n      iszero\n      tag_124\n      jumpi\n      tag_125\n      tag_47\n      jump\t// in\n    tag_125:\n    tag_124:\n      eq\n        /* \"stage2.sol\":2955:3049  require(playerStatus == Status.Submitted, \"You are not allow to confirm winner at this stage\") */\n      tag_126\n      jumpi\n      mload(0x40)\n      0x08c379a000000000000000000000000000000000000000000000000000000000\n      dup2\n      mstore\n      0x04\n      add\n      tag_127\n      swap1\n      tag_115\n      jump\t// in\n    tag_127:\n      mload(0x40)\n      dup1\n      swap2\n      sub\n      swap1\n      revert\n    tag_126:\n        /* \"stage2.sol\":3081:3094  Status.Winner */\n      0x02\n        /* \"stage2.sol\":3066:3078  playerStatus */\n      0x04\n      0x00\n        /* \"stage2.sol\":3066:3094  playerStatus = Status.Winner */\n      0x0100\n      exp\n      dup2\n      sload\n      dup2\n      0xff\n      mul\n      not\n      and\n      swap1\n      dup4\n      0x02\n      dup2\n      gt\n      iszero\n      tag_128\n      jumpi\n      tag_129\n      tag_47\n      jump\t// in\n    tag_129:\n    tag_128:\n      mul\n      or\n      swap1\n      sstore\n      pop\n        /* \"stage2.sol\":2613:3106  if (result <= 3) {... */\n    tag_118:\n        /* \"stage2.sol\":2559:3113  {... */\n      pop\n        /* \"stage2.sol\":2527:3113  function confirmWinner() public {... */\n      jump\t// out\n        /* \"stage2.sol\":1553:1694  function ownerViewAns() public view returns (uint256) {... */\n    tag_39:\n        /* \"stage2.sol\":1598:1605  uint256 */\n      0x00\n        /* \"stage2.sol\":1640:1645  owner */\n      0x00\n      0x00\n      swap1\n      sload\n      swap1\n      0x0100\n      exp\n      swap1\n      div\n      0xffffffffffffffffffffffffffffffffffffffff\n      and\n        /* \"stage2.sol\":1626:1645  msg.sender == owner */\n      0xffffffffffffffffffffffffffffffffffffffff\n      and\n        /* \"stage2.sol\":1626:1636  msg.sender */\n      caller\n        /* \"stage2.sol\":1626:1645  msg.sender == owner */\n      0xffffffffffffffffffffffffffffffffffffffff\n      and\n      eq\n        /* \"stage2.sol\":1618:1660  require(msg.sender == owner, \"only owner\") */\n      tag_131\n      jumpi\n      mload(0x40)\n      0x08c379a000000000000000000000000000000000000000000000000000000000\n      dup2\n      mstore\n      0x04\n      add\n      tag_132\n      swap1\n      tag_88\n      jump\t// in\n    tag_132:\n      mload(0x40)\n      dup1\n      swap2\n      sub\n      swap1\n      revert\n    tag_131:\n        /* \"stage2.sol\":1678:1686  ownerAns */\n      sload(0x02)\n        /* \"stage2.sol\":1671:1686  return ownerAns */\n      swap1\n      pop\n        /* \"stage2.sol\":1553:1694  function ownerViewAns() public view returns (uint256) {... */\n      swap1\n      jump\t// out\n        /* \"stage2.sol\":1756:1900  function calculateGameResult() private view returns(uint256){... */\n    tag_82:\n        /* \"stage2.sol\":1808:1815  uint256 */\n      0x00\n        /* \"stage2.sol\":1827:1841  uint256 result */\n      0x00\n        /* \"stage2.sol\":1867:1868  1 */\n      0x01\n        /* \"stage2.sol\":1865:1866  6 */\n      0x06\n        /* \"stage2.sol\":1855:1863  ownerAns */\n      sload(0x02)\n        /* \"stage2.sol\":1845:1854  playerAns */\n      sload(0x03)\n        /* \"stage2.sol\":1845:1863  playerAns+ownerAns */\n      tag_134\n      swap2\n      swap1\n      tag_135\n      jump\t// in\n    tag_134:\n        /* \"stage2.sol\":1844:1866  (playerAns+ownerAns)%6 */\n      tag_136\n      swap2\n      swap1\n      tag_137\n      jump\t// in\n    tag_136:\n        /* \"stage2.sol\":1844:1868  (playerAns+ownerAns)%6+1 */\n      tag_138\n      swap2\n      swap1\n      tag_135\n      jump\t// in\n    tag_138:\n        /* \"stage2.sol\":1827:1868  uint256 result = (playerAns+ownerAns)%6+1 */\n      swap1\n      pop\n        /* \"stage2.sol\":1886:1892  result */\n      dup1\n        /* \"stage2.sol\":1879:1892  return result */\n      swap2\n      pop\n      pop\n        /* \"stage2.sol\":1756:1900  function calculateGameResult() private view returns(uint256){... */\n      swap1\n      jump\t// out\n        /* \"#utility.yul\":88:205   */\n    tag_140:\n        /* \"#utility.yul\":197:198   */\n      0x00\n        /* \"#utility.yul\":194:195   */\n      0x00\n        /* \"#utility.yul\":187:199   */\n      revert\n        /* \"#utility.yul\":334:411   */\n    tag_142:\n        /* \"#utility.yul\":371:378   */\n      0x00\n        /* \"#utility.yul\":400:405   */\n      dup2\n        /* \"#utility.yul\":389:405   */\n      swap1\n      pop\n        /* \"#utility.yul\":334:411   */\n      swap2\n      swap1\n      pop\n      jump\t// out\n        /* \"#utility.yul\":417:539   */\n    tag_143:\n        /* \"#utility.yul\":490:514   */\n      tag_182\n        /* \"#utility.yul\":508:513   */\n      dup2\n        /* \"#utility.yul\":490:514   */\n      tag_142\n      jump\t// in\n    tag_182:\n        /* \"#utility.yul\":483:488   */\n      dup2\n        /* \"#utility.yul\":480:515   */\n      eq\n        /* \"#utility.yul\":470:533   */\n      tag_183\n      jumpi\n        /* \"#utility.yul\":529:530   */\n      0x00\n        /* \"#utility.yul\":526:527   */\n      0x00\n        /* \"#utility.yul\":519:531   */\n      revert\n        /* \"#utility.yul\":470:533   */\n    tag_183:\n        /* \"#utility.yul\":417:539   */\n      pop\n      jump\t// out\n        /* \"#utility.yul\":545:684   */\n    tag_144:\n        /* \"#utility.yul\":591:596   */\n      0x00\n        /* \"#utility.yul\":629:635   */\n      dup2\n        /* \"#utility.yul\":616:636   */\n      calldataload\n        /* \"#utility.yul\":607:636   */\n      swap1\n      pop\n        /* \"#utility.yul\":645:678   */\n      tag_185\n        /* \"#utility.yul\":672:677   */\n      dup2\n        /* \"#utility.yul\":645:678   */\n      tag_143\n      jump\t// in\n    tag_185:\n        /* \"#utility.yul\":545:684   */\n      swap3\n      swap2\n      pop\n      pop\n      jump\t// out\n        /* \"#utility.yul\":690:1019   */\n    tag_14:\n        /* \"#utility.yul\":749:755   */\n      0x00\n        /* \"#utility.yul\":798:800   */\n      0x20\n        /* \"#utility.yul\":786:795   */\n      dup3\n        /* \"#utility.yul\":777:784   */\n      dup5\n        /* \"#utility.yul\":773:796   */\n      sub\n        /* \"#utility.yul\":769:801   */\n      slt\n        /* \"#utility.yul\":766:885   */\n      iszero\n      tag_187\n      jumpi\n        /* \"#utility.yul\":804:883   */\n      tag_188\n      tag_140\n      jump\t// in\n    tag_188:\n        /* \"#utility.yul\":766:885   */\n    tag_187:\n        /* \"#utility.yul\":924:925   */\n      0x00\n        /* \"#utility.yul\":949:1002   */\n      tag_189\n        /* \"#utility.yul\":994:1001   */\n      dup5\n        /* \"#utility.yul\":985:991   */\n      dup3\n        /* \"#utility.yul\":974:983   */\n      dup6\n        /* \"#utility.yul\":970:992   */\n      add\n        /* \"#utility.yul\":949:1002   */\n      tag_144\n      jump\t// in\n    tag_189:\n        /* \"#utility.yul\":939:1002   */\n      swap2\n      pop\n        /* \"#utility.yul\":895:1012   */\n      pop\n        /* \"#utility.yul\":690:1019   */\n      swap3\n      swap2\n      pop\n      pop\n      jump\t// out\n        /* \"#utility.yul\":1025:1143   */\n    tag_145:\n        /* \"#utility.yul\":1112:1136   */\n      tag_191\n        /* \"#utility.yul\":1130:1135   */\n      dup2\n        /* \"#utility.yul\":1112:1136   */\n      tag_142\n      jump\t// in\n    tag_191:\n        /* \"#utility.yul\":1107:1110   */\n      dup3\n        /* \"#utility.yul\":1100:1137   */\n      mstore\n        /* \"#utility.yul\":1025:1143   */\n      pop\n      pop\n      jump\t// out\n        /* \"#utility.yul\":1149:1371   */\n    tag_17:\n        /* \"#utility.yul\":1242:1246   */\n      0x00\n        /* \"#utility.yul\":1280:1282   */\n      0x20\n        /* \"#utility.yul\":1269:1278   */\n      dup3\n        /* \"#utility.yul\":1265:1283   */\n      add\n        /* \"#utility.yul\":1257:1283   */\n      swap1\n      pop\n        /* \"#utility.yul\":1293:1364   */\n      tag_193\n        /* \"#utility.yul\":1361:1362   */\n      0x00\n        /* \"#utility.yul\":1350:1359   */\n      dup4\n        /* \"#utility.yul\":1346:1363   */\n      add\n        /* \"#utility.yul\":1337:1343   */\n      dup5\n        /* \"#utility.yul\":1293:1364   */\n      tag_145\n      jump\t// in\n    tag_193:\n        /* \"#utility.yul\":1149:1371   */\n      swap3\n      swap2\n      pop\n      pop\n      jump\t// out\n        /* \"#utility.yul\":1377:1503   */\n    tag_146:\n        /* \"#utility.yul\":1414:1421   */\n      0x00\n        /* \"#utility.yul\":1454:1496   */\n      0xffffffffffffffffffffffffffffffffffffffff\n        /* \"#utility.yul\":1447:1452   */\n      dup3\n        /* \"#utility.yul\":1443:1497   */\n      and\n        /* \"#utility.yul\":1432:1497   */\n      swap1\n      pop\n        /* \"#utility.yul\":1377:1503   */\n      swap2\n      swap1\n      pop\n      jump\t// out\n        /* \"#utility.yul\":1509:1605   */\n    tag_147:\n        /* \"#utility.yul\":1546:1553   */\n      0x00\n        /* \"#utility.yul\":1575:1599   */\n      tag_196\n        /* \"#utility.yul\":1593:1598   */\n      dup3\n        /* \"#utility.yul\":1575:1599   */\n      tag_146\n      jump\t// in\n    tag_196:\n        /* \"#utility.yul\":1564:1599   */\n      swap1\n      pop\n        /* \"#utility.yul\":1509:1605   */\n      swap2\n      swap1\n      pop\n      jump\t// out\n        /* \"#utility.yul\":1611:1729   */\n    tag_148:\n        /* \"#utility.yul\":1698:1722   */\n      tag_198\n        /* \"#utility.yul\":1716:1721   */\n      dup2\n        /* \"#utility.yul\":1698:1722   */\n      tag_147\n      jump\t// in\n    tag_198:\n        /* \"#utility.yul\":1693:1696   */\n      dup3\n        /* \"#utility.yul\":1686:1723   */\n      mstore\n        /* \"#utility.yul\":1611:1729   */\n      pop\n      pop\n      jump\t// out\n        /* \"#utility.yul\":1735:1957   */\n    tag_21:\n        /* \"#utility.yul\":1828:1832   */\n      0x00\n        /* \"#utility.yul\":1866:1868   */\n      0x20\n        /* \"#utility.yul\":1855:1864   */\n      dup3\n        /* \"#utility.yul\":1851:1869   */\n      add\n        /* \"#utility.yul\":1843:1869   */\n      swap1\n      pop\n        /* \"#utility.yul\":1879:1950   */\n      tag_200\n        /* \"#utility.yul\":1947:1948   */\n      0x00\n        /* \"#utility.yul\":1936:1945   */\n      dup4\n        /* \"#utility.yul\":1932:1949   */\n      add\n        /* \"#utility.yul\":1923:1929   */\n      dup5\n        /* \"#utility.yul\":1879:1950   */\n      tag_148\n      jump\t// in\n    tag_200:\n        /* \"#utility.yul\":1735:1957   */\n      swap3\n      swap2\n      pop\n      pop\n      jump\t// out\n        /* \"#utility.yul\":1963:2062   */\n    tag_149:\n        /* \"#utility.yul\":2015:2021   */\n      0x00\n        /* \"#utility.yul\":2049:2054   */\n      dup2\n        /* \"#utility.yul\":2043:2055   */\n      mload\n        /* \"#utility.yul\":2033:2055   */\n      swap1\n      pop\n        /* \"#utility.yul\":1963:2062   */\n      swap2\n      swap1\n      pop\n      jump\t// out\n        /* \"#utility.yul\":2068:2237   */\n    tag_150:\n        /* \"#utility.yul\":2152:2163   */\n      0x00\n        /* \"#utility.yul\":2186:2192   */\n      dup3\n        /* \"#utility.yul\":2181:2184   */\n      dup3\n        /* \"#utility.yul\":2174:2193   */\n      mstore\n        /* \"#utility.yul\":2226:2230   */\n      0x20\n        /* \"#utility.yul\":2221:2224   */\n      dup3\n        /* \"#utility.yul\":2217:2231   */\n      add\n        /* \"#utility.yul\":2202:2231   */\n      swap1\n      pop\n        /* \"#utility.yul\":2068:2237   */\n      swap3\n      swap2\n      pop\n      pop\n      jump\t// out\n        /* \"#utility.yul\":2243:2382   */\n    tag_151:\n        /* \"#utility.yul\":2332:2338   */\n      dup3\n        /* \"#utility.yul\":2327:2330   */\n      dup2\n        /* \"#utility.yul\":2322:2325   */\n      dup4\n        /* \"#utility.yul\":2316:2339   */\n      mcopy\n        /* \"#utility.yul\":2373:2374   */\n      0x00\n        /* \"#utility.yul\":2364:2370   */\n      dup4\n        /* \"#utility.yul\":2359:2362   */\n      dup4\n        /* \"#utility.yul\":2355:2371   */\n      add\n        /* \"#utility.yul\":2348:2375   */\n      mstore\n        /* \"#utility.yul\":2243:2382   */\n      pop\n      pop\n      pop\n      jump\t// out\n        /* \"#utility.yul\":2388:2490   */\n    tag_152:\n        /* \"#utility.yul\":2429:2435   */\n      0x00\n        /* \"#utility.yul\":2480:2482   */\n      0x1f\n        /* \"#utility.yul\":2476:2483   */\n      not\n        /* \"#utility.yul\":2471:2473   */\n      0x1f\n        /* \"#utility.yul\":2464:2469   */\n      dup4\n        /* \"#utility.yul\":2460:2474   */\n      add\n        /* \"#utility.yul\":2456:2484   */\n      and\n        /* \"#utility.yul\":2446:2484   */\n      swap1\n      pop\n        /* \"#utility.yul\":2388:2490   */\n      swap2\n      swap1\n      pop\n      jump\t// out\n        /* \"#utility.yul\":2496:2873   */\n    tag_153:\n        /* \"#utility.yul\":2584:2587   */\n      0x00\n        /* \"#utility.yul\":2612:2651   */\n      tag_206\n        /* \"#utility.yul\":2645:2650   */\n      dup3\n        /* \"#utility.yul\":2612:2651   */\n      tag_149\n      jump\t// in\n    tag_206:\n        /* \"#utility.yul\":2667:2738   */\n      tag_207\n        /* \"#utility.yul\":2731:2737   */\n      dup2\n        /* \"#utility.yul\":2726:2729   */\n      dup6\n        /* \"#utility.yul\":2667:2738   */\n      tag_150\n      jump\t// in\n    tag_207:\n        /* \"#utility.yul\":2660:2738   */\n      swap4\n      pop\n        /* \"#utility.yul\":2747:2812   */\n      tag_208\n        /* \"#utility.yul\":2805:2811   */\n      dup2\n        /* \"#utility.yul\":2800:2803   */\n      dup6\n        /* \"#utility.yul\":2793:2797   */\n      0x20\n        /* \"#utility.yul\":2786:2791   */\n      dup7\n        /* \"#utility.yul\":2782:2798   */\n      add\n        /* \"#utility.yul\":2747:2812   */\n      tag_151\n      jump\t// in\n    tag_208:\n        /* \"#utility.yul\":2837:2866   */\n      tag_209\n        /* \"#utility.yul\":2859:2865   */\n      dup2\n        /* \"#utility.yul\":2837:2866   */\n      tag_152\n      jump\t// in\n    tag_209:\n        /* \"#utility.yul\":2832:2835   */\n      dup5\n        /* \"#utility.yul\":2828:2867   */\n      add\n        /* \"#utility.yul\":2821:2867   */\n      swap2\n      pop\n        /* \"#utility.yul\":2588:2873   */\n      pop\n        /* \"#utility.yul\":2496:2873   */\n      swap3\n      swap2\n      pop\n      pop\n      jump\t// out\n        /* \"#utility.yul\":2879:3302   */\n    tag_28:\n        /* \"#utility.yul\":3020:3024   */\n      0x00\n        /* \"#utility.yul\":3058:3060   */\n      0x40\n        /* \"#utility.yul\":3047:3056   */\n      dup3\n        /* \"#utility.yul\":3043:3061   */\n      add\n        /* \"#utility.yul\":3035:3061   */\n      swap1\n      pop\n        /* \"#utility.yul\":3071:3142   */\n      tag_211\n        /* \"#utility.yul\":3139:3140   */\n      0x00\n        /* \"#utility.yul\":3128:3137   */\n      dup4\n        /* \"#utility.yul\":3124:3141   */\n      add\n        /* \"#utility.yul\":3115:3121   */\n      dup6\n        /* \"#utility.yul\":3071:3142   */\n      tag_145\n      jump\t// in\n    tag_211:\n        /* \"#utility.yul\":3189:3198   */\n      dup2\n        /* \"#utility.yul\":3183:3187   */\n      dup2\n        /* \"#utility.yul\":3179:3199   */\n      sub\n        /* \"#utility.yul\":3174:3176   */\n      0x20\n        /* \"#utility.yul\":3163:3172   */\n      dup4\n        /* \"#utility.yul\":3159:3177   */\n      add\n        /* \"#utility.yul\":3152:3200   */\n      mstore\n        /* \"#utility.yul\":3217:3295   */\n      tag_212\n        /* \"#utility.yul\":3290:3294   */\n      dup2\n        /* \"#utility.yul\":3281:3287   */\n      dup5\n        /* \"#utility.yul\":3217:3295   */\n      tag_153\n      jump\t// in\n    tag_212:\n        /* \"#utility.yul\":3209:3295   */\n      swap1\n      pop\n        /* \"#utility.yul\":2879:3302   */\n      swap4\n      swap3\n      pop\n      pop\n      pop\n      jump\t// out\n        /* \"#utility.yul\":3308:3529   */\n    tag_154:\n        /* \"#utility.yul\":3448:3482   */\n      0x6f776e65722063616e206e6f74205375626d697420706c6179657220416e7377\n        /* \"#utility.yul\":3444:3445   */\n      0x00\n        /* \"#utility.yul\":3436:3442   */\n      dup3\n        /* \"#utility.yul\":3432:3446   */\n      add\n        /* \"#utility.yul\":3425:3483   */\n      mstore\n        /* \"#utility.yul\":3517:3521   */\n      0x6572000000000000000000000000000000000000000000000000000000000000\n        /* \"#utility.yul\":3512:3514   */\n      0x20\n        /* \"#utility.yul\":3504:3510   */\n      dup3\n        /* \"#utility.yul\":3500:3515   */\n      add\n        /* \"#utility.yul\":3493:3522   */\n      mstore\n        /* \"#utility.yul\":3308:3529   */\n      pop\n      jump\t// out\n        /* \"#utility.yul\":3535:3901   */\n    tag_155:\n        /* \"#utility.yul\":3677:3680   */\n      0x00\n        /* \"#utility.yul\":3698:3765   */\n      tag_215\n        /* \"#utility.yul\":3762:3764   */\n      0x22\n        /* \"#utility.yul\":3757:3760   */\n      dup4\n        /* \"#utility.yul\":3698:3765   */\n      tag_150\n      jump\t// in\n    tag_215:\n        /* \"#utility.yul\":3691:3765   */\n      swap2\n      pop\n        /* \"#utility.yul\":3774:3867   */\n      tag_216\n        /* \"#utility.yul\":3863:3866   */\n      dup3\n        /* \"#utility.yul\":3774:3867   */\n      tag_154\n      jump\t// in\n    tag_216:\n        /* \"#utility.yul\":3892:3894   */\n      0x40\n        /* \"#utility.yul\":3887:3890   */\n      dup3\n        /* \"#utility.yul\":3883:3895   */\n      add\n        /* \"#utility.yul\":3876:3895   */\n      swap1\n      pop\n        /* \"#utility.yul\":3535:3901   */\n      swap2\n      swap1\n      pop\n      jump\t// out\n        /* \"#utility.yul\":3907:4326   */\n    tag_44:\n        /* \"#utility.yul\":4073:4077   */\n      0x00\n        /* \"#utility.yul\":4111:4113   */\n      0x20\n        /* \"#utility.yul\":4100:4109   */\n      dup3\n        /* \"#utility.yul\":4096:4114   */\n      add\n        /* \"#utility.yul\":4088:4114   */\n      swap1\n      pop\n        /* \"#utility.yul\":4160:4169   */\n      dup2\n        /* \"#utility.yul\":4154:4158   */\n      dup2\n        /* \"#utility.yul\":4150:4170   */\n      sub\n        /* \"#utility.yul\":4146:4147   */\n      0x00\n        /* \"#utility.yul\":4135:4144   */\n      dup4\n        /* \"#utility.yul\":4131:4148   */\n      add\n        /* \"#utility.yul\":4124:4171   */\n      mstore\n        /* \"#utility.yul\":4188:4319   */\n      tag_218\n        /* \"#utility.yul\":4314:4318   */\n      dup2\n        /* \"#utility.yul\":4188:4319   */\n      tag_155\n      jump\t// in\n    tag_218:\n        /* \"#utility.yul\":4180:4319   */\n      swap1\n      pop\n        /* \"#utility.yul\":3907:4326   */\n      swap2\n      swap1\n      pop\n      jump\t// out\n        /* \"#utility.yul\":4332:4512   */\n    tag_47:\n        /* \"#utility.yul\":4380:4457   */\n      0x4e487b7100000000000000000000000000000000000000000000000000000000\n        /* \"#utility.yul\":4377:4378   */\n      0x00\n        /* \"#utility.yul\":4370:4458   */\n      mstore\n        /* \"#utility.yul\":4477:4481   */\n      0x21\n        /* \"#utility.yul\":4474:4475   */\n      0x04\n        /* \"#utility.yul\":4467:4482   */\n      mstore\n        /* \"#utility.yul\":4501:4505   */\n      0x24\n        /* \"#utility.yul\":4498:4499   */\n      0x00\n        /* \"#utility.yul\":4491:4506   */\n      revert\n        /* \"#utility.yul\":4518:4694   */\n    tag_156:\n        /* \"#utility.yul\":4658:4686   */\n      0x596f75206861766520616c7265616479207375626d6974746564000000000000\n        /* \"#utility.yul\":4654:4655   */\n      0x00\n        /* \"#utility.yul\":4646:4652   */\n      dup3\n        /* \"#utility.yul\":4642:4656   */\n      add\n        /* \"#utility.yul\":4635:4687   */\n      mstore\n        /* \"#utility.yul\":4518:4694   */\n      pop\n      jump\t// out\n        /* \"#utility.yul\":4700:5066   */\n    tag_157:\n        /* \"#utility.yul\":4842:4845   */\n      0x00\n        /* \"#utility.yul\":4863:4930   */\n      tag_222\n        /* \"#utility.yul\":4927:4929   */\n      0x1a\n        /* \"#utility.yul\":4922:4925   */\n      dup4\n        /* \"#utility.yul\":4863:4930   */\n      tag_150\n      jump\t// in\n    tag_222:\n        /* \"#utility.yul\":4856:4930   */\n      swap2\n      pop\n        /* \"#utility.yul\":4939:5032   */\n      tag_223\n        /* \"#utility.yul\":5028:5031   */\n      dup3\n        /* \"#utility.yul\":4939:5032   */\n      tag_156\n      jump\t// in\n    tag_223:\n        /* \"#utility.yul\":5057:5059   */\n      0x20\n        /* \"#utility.yul\":5052:5055   */\n      dup3\n        /* \"#utility.yul\":5048:5060   */\n      add\n        /* \"#utility.yul\":5041:5060   */\n      swap1\n      pop\n        /* \"#utility.yul\":4700:5066   */\n      swap2\n      swap1\n      pop\n      jump\t// out\n        /* \"#utility.yul\":5072:5491   */\n    tag_52:\n        /* \"#utility.yul\":5238:5242   */\n      0x00\n        /* \"#utility.yul\":5276:5278   */\n      0x20\n        /* \"#utility.yul\":5265:5274   */\n      dup3\n        /* \"#utility.yul\":5261:5279   */\n      add\n        /* \"#utility.yul\":5253:5279   */\n      swap1\n      pop\n        /* \"#utility.yul\":5325:5334   */\n      dup2\n        /* \"#utility.yul\":5319:5323   */\n      dup2\n        /* \"#utility.yul\":5315:5335   */\n      sub\n        /* \"#utility.yul\":5311:5312   */\n      0x00\n        /* \"#utility.yul\":5300:5309   */\n      dup4\n        /* \"#utility.yul\":5296:5313   */\n      add\n        /* \"#utility.yul\":5289:5336   */\n      mstore\n        /* \"#utility.yul\":5353:5484   */\n      tag_225\n        /* \"#utility.yul\":5479:5483   */\n      dup2\n        /* \"#utility.yul\":5353:5484   */\n      tag_157\n      jump\t// in\n    tag_225:\n        /* \"#utility.yul\":5345:5484   */\n      swap1\n      pop\n        /* \"#utility.yul\":5072:5491   */\n      swap2\n      swap1\n      pop\n      jump\t// out\n        /* \"#utility.yul\":5497:5733   */\n    tag_158:\n        /* \"#utility.yul\":5637:5671   */\n      0x5468652067616d652069732066696e6973682c206e6577207375626d69737369\n        /* \"#utility.yul\":5633:5634   */\n      0x00\n        /* \"#utility.yul\":5625:5631   */\n      dup3\n        /* \"#utility.yul\":5621:5635   */\n      add\n        /* \"#utility.yul\":5614:5672   */\n      mstore\n        /* \"#utility.yul\":5706:5725   */\n      0x6f6e206973206e6f7420616c6c6f776564000000000000000000000000000000\n        /* \"#utility.yul\":5701:5703   */\n      0x20\n        /* \"#utility.yul\":5693:5699   */\n      dup3\n        /* \"#utility.yul\":5689:5704   */\n      add\n        /* \"#utility.yul\":5682:5726   */\n      mstore\n        /* \"#utility.yul\":5497:5733   */\n      pop\n      jump\t// out\n        /* \"#utility.yul\":5739:6105   */\n    tag_159:\n        /* \"#utility.yul\":5881:5884   */\n      0x00\n        /* \"#utility.yul\":5902:5969   */\n      tag_228\n        /* \"#utility.yul\":5966:5968   */\n      0x31\n        /* \"#utility.yul\":5961:5964   */\n      dup4\n        /* \"#utility.yul\":5902:5969   */\n      tag_150\n      jump\t// in\n    tag_228:\n        /* \"#utility.yul\":5895:5969   */\n      swap2\n      pop\n        /* \"#utility.yul\":5978:6071   */\n      tag_229\n        /* \"#utility.yul\":6067:6070   */\n      dup3\n        /* \"#utility.yul\":5978:6071   */\n      tag_158\n      jump\t// in\n    tag_229:\n        /* \"#utility.yul\":6096:6098   */\n      0x40\n        /* \"#utility.yul\":6091:6094   */\n      dup3\n        /* \"#utility.yul\":6087:6099   */\n      add\n        /* \"#utility.yul\":6080:6099   */\n      swap1\n      pop\n        /* \"#utility.yul\":5739:6105   */\n      swap2\n      swap1\n      pop\n      jump\t// out\n        /* \"#utility.yul\":6111:6530   */\n    tag_59:\n        /* \"#utility.yul\":6277:6281   */\n      0x00\n        /* \"#utility.yul\":6315:6317   */\n      0x20\n        /* \"#utility.yul\":6304:6313   */\n      dup3\n        /* \"#utility.yul\":6300:6318   */\n      add\n        /* \"#utility.yul\":6292:6318   */\n      swap1\n      pop\n        /* \"#utility.yul\":6364:6373   */\n      dup2\n        /* \"#utility.yul\":6358:6362   */\n      dup2\n        /* \"#utility.yul\":6354:6374   */\n      sub\n        /* \"#utility.yul\":6350:6351   */\n      0x00\n        /* \"#utility.yul\":6339:6348   */\n      dup4\n        /* \"#utility.yul\":6335:6352   */\n      add\n        /* \"#utility.yul\":6328:6375   */\n      mstore\n        /* \"#utility.yul\":6392:6523   */\n      tag_231\n        /* \"#utility.yul\":6518:6522   */\n      dup2\n        /* \"#utility.yul\":6392:6523   */\n      tag_159\n      jump\t// in\n    tag_231:\n        /* \"#utility.yul\":6384:6523   */\n      swap1\n      pop\n        /* \"#utility.yul\":6111:6530   */\n      swap2\n      swap1\n      pop\n      jump\t// out\n        /* \"#utility.yul\":6536:6697   */\n    tag_160:\n        /* \"#utility.yul\":6676:6689   */\n      0x6f6e6c7920706c61796572000000000000000000000000000000000000000000\n        /* \"#utility.yul\":6672:6673   */\n      0x00\n        /* \"#utility.yul\":6664:6670   */\n      dup3\n        /* \"#utility.yul\":6660:6674   */\n      add\n        /* \"#utility.yul\":6653:6690   */\n      mstore\n        /* \"#utility.yul\":6536:6697   */\n      pop\n      jump\t// out\n        /* \"#utility.yul\":6703:7069   */\n    tag_161:\n        /* \"#utility.yul\":6845:6848   */\n      0x00\n        /* \"#utility.yul\":6866:6933   */\n      tag_234\n        /* \"#utility.yul\":6930:6932   */\n      0x0b\n        /* \"#utility.yul\":6925:6928   */\n      dup4\n        /* \"#utility.yul\":6866:6933   */\n      tag_150\n      jump\t// in\n    tag_234:\n        /* \"#utility.yul\":6859:6933   */\n      swap2\n      pop\n        /* \"#utility.yul\":6942:7035   */\n      tag_235\n        /* \"#utility.yul\":7031:7034   */\n      dup3\n        /* \"#utility.yul\":6942:7035   */\n      tag_160\n      jump\t// in\n    tag_235:\n        /* \"#utility.yul\":7060:7062   */\n      0x20\n        /* \"#utility.yul\":7055:7058   */\n      dup3\n        /* \"#utility.yul\":7051:7063   */\n      add\n        /* \"#utility.yul\":7044:7063   */\n      swap1\n      pop\n        /* \"#utility.yul\":6703:7069   */\n      swap2\n      swap1\n      pop\n      jump\t// out\n        /* \"#utility.yul\":7075:7494   */\n    tag_65:\n        /* \"#utility.yul\":7241:7245   */\n      0x00\n        /* \"#utility.yul\":7279:7281   */\n      0x20\n        /* \"#utility.yul\":7268:7277   */\n      dup3\n        /* \"#utility.yul\":7264:7282   */\n      add\n        /* \"#utility.yul\":7256:7282   */\n      swap1\n      pop\n        /* \"#utility.yul\":7328:7337   */\n      dup2\n        /* \"#utility.yul\":7322:7326   */\n      dup2\n        /* \"#utility.yul\":7318:7338   */\n      sub\n        /* \"#utility.yul\":7314:7315   */\n      0x00\n        /* \"#utility.yul\":7303:7312   */\n      dup4\n        /* \"#utility.yul\":7299:7316   */\n      add\n        /* \"#utility.yul\":7292:7339   */\n      mstore\n        /* \"#utility.yul\":7356:7487   */\n      tag_237\n        /* \"#utility.yul\":7482:7486   */\n      dup2\n        /* \"#utility.yul\":7356:7487   */\n      tag_161\n      jump\t// in\n    tag_237:\n        /* \"#utility.yul\":7348:7487   */\n      swap1\n      pop\n        /* \"#utility.yul\":7075:7494   */\n      swap2\n      swap1\n      pop\n      jump\t// out\n        /* \"#utility.yul\":7500:7670   */\n    tag_162:\n        /* \"#utility.yul\":7640:7662   */\n      0x506c6179657220646f206e6f74207375626d6974000000000000000000000000\n        /* \"#utility.yul\":7636:7637   */\n      0x00\n        /* \"#utility.yul\":7628:7634   */\n      dup3\n        /* \"#utility.yul\":7624:7638   */\n      add\n        /* \"#utility.yul\":7617:7663   */\n      mstore\n        /* \"#utility.yul\":7500:7670   */\n      pop\n      jump\t// out\n        /* \"#utility.yul\":7676:8042   */\n    tag_163:\n        /* \"#utility.yul\":7818:7821   */\n      0x00\n        /* \"#utility.yul\":7839:7906   */\n      tag_240\n        /* \"#utility.yul\":7903:7905   */\n      0x14\n        /* \"#utility.yul\":7898:7901   */\n      dup4\n        /* \"#utility.yul\":7839:7906   */\n      tag_150\n      jump\t// in\n    tag_240:\n        /* \"#utility.yul\":7832:7906   */\n      swap2\n      pop\n        /* \"#utility.yul\":7915:8008   */\n      tag_241\n        /* \"#utility.yul\":8004:8007   */\n      dup3\n        /* \"#utility.yul\":7915:8008   */\n      tag_162\n      jump\t// in\n    tag_241:\n        /* \"#utility.yul\":8033:8035   */\n      0x20\n        /* \"#utility.yul\":8028:8031   */\n      dup3\n        /* \"#utility.yul\":8024:8036   */\n      add\n        /* \"#utility.yul\":8017:8036   */\n      swap1\n      pop\n        /* \"#utility.yul\":7676:8042   */\n      swap2\n      swap1\n      pop\n      jump\t// out\n        /* \"#utility.yul\":8048:8467   */\n    tag_73:\n        /* \"#utility.yul\":8214:8218   */\n      0x00\n        /* \"#utility.yul\":8252:8254   */\n      0x20\n        /* \"#utility.yul\":8241:8250   */\n      dup3\n        /* \"#utility.yul\":8237:8255   */\n      add\n        /* \"#utility.yul\":8229:8255   */\n      swap1\n      pop\n        /* \"#utility.yul\":8301:8310   */\n      dup2\n        /* \"#utility.yul\":8295:8299   */\n      dup2\n        /* \"#utility.yul\":8291:8311   */\n      sub\n        /* \"#utility.yul\":8287:8288   */\n      0x00\n        /* \"#utility.yul\":8276:8285   */\n      dup4\n        /* \"#utility.yul\":8272:8289   */\n      add\n        /* \"#utility.yul\":8265:8312   */\n      mstore\n        /* \"#utility.yul\":8329:8460   */\n      tag_243\n        /* \"#utility.yul\":8455:8459   */\n      dup2\n        /* \"#utility.yul\":8329:8460   */\n      tag_163\n      jump\t// in\n    tag_243:\n        /* \"#utility.yul\":8321:8460   */\n      swap1\n      pop\n        /* \"#utility.yul\":8048:8467   */\n      swap2\n      swap1\n      pop\n      jump\t// out\n        /* \"#utility.yul\":8473:8642   */\n    tag_164:\n        /* \"#utility.yul\":8613:8634   */\n      0x4f776e657220646f206e6f74207375626d697400000000000000000000000000\n        /* \"#utility.yul\":8609:8610   */\n      0x00\n        /* \"#utility.yul\":8601:8607   */\n      dup3\n        /* \"#utility.yul\":8597:8611   */\n      add\n        /* \"#utility.yul\":8590:8635   */\n      mstore\n        /* \"#utility.yul\":8473:8642   */\n      pop\n      jump\t// out\n        /* \"#utility.yul\":8648:9014   */\n    tag_165:\n        /* \"#utility.yul\":8790:8793   */\n      0x00\n        /* \"#utility.yul\":8811:8878   */\n      tag_246\n        /* \"#utility.yul\":8875:8877   */\n      0x13\n        /* \"#utility.yul\":8870:8873   */\n      dup4\n        /* \"#utility.yul\":8811:8878   */\n      tag_150\n      jump\t// in\n    tag_246:\n        /* \"#utility.yul\":8804:8878   */\n      swap2\n      pop\n        /* \"#utility.yul\":8887:8980   */\n      tag_247\n        /* \"#utility.yul\":8976:8979   */\n      dup3\n        /* \"#utility.yul\":8887:8980   */\n      tag_164\n      jump\t// in\n    tag_247:\n        /* \"#utility.yul\":9005:9007   */\n      0x20\n        /* \"#utility.yul\":9000:9003   */\n      dup3\n        /* \"#utility.yul\":8996:9008   */\n      add\n        /* \"#utility.yul\":8989:9008   */\n      swap1\n      pop\n        /* \"#utility.yul\":8648:9014   */\n      swap2\n      swap1\n      pop\n      jump\t// out\n        /* \"#utility.yul\":9020:9439   */\n    tag_80:\n        /* \"#utility.yul\":9186:9190   */\n      0x00\n        /* \"#utility.yul\":9224:9226   */\n      0x20\n        /* \"#utility.yul\":9213:9222   */\n      dup3\n        /* \"#utility.yul\":9209:9227   */\n      add\n        /* \"#utility.yul\":9201:9227   */\n      swap1\n      pop\n        /* \"#utility.yul\":9273:9282   */\n      dup2\n        /* \"#utility.yul\":9267:9271   */\n      dup2\n        /* \"#utility.yul\":9263:9283   */\n      sub\n        /* \"#utility.yul\":9259:9260   */\n      0x00\n        /* \"#utility.yul\":9248:9257   */\n      dup4\n        /* \"#utility.yul\":9244:9261   */\n      add\n        /* \"#utility.yul\":9237:9284   */\n      mstore\n        /* \"#utility.yul\":9301:9432   */\n      tag_249\n        /* \"#utility.yul\":9427:9431   */\n      dup2\n        /* \"#utility.yul\":9301:9432   */\n      tag_165\n      jump\t// in\n    tag_249:\n        /* \"#utility.yul\":9293:9432   */\n      swap1\n      pop\n        /* \"#utility.yul\":9020:9439   */\n      swap2\n      swap1\n      pop\n      jump\t// out\n        /* \"#utility.yul\":9445:9605   */\n    tag_166:\n        /* \"#utility.yul\":9585:9597   */\n      0x6f6e6c79206f776e657200000000000000000000000000000000000000000000\n        /* \"#utility.yul\":9581:9582   */\n      0x00\n        /* \"#utility.yul\":9573:9579   */\n      dup3\n        /* \"#utility.yul\":9569:9583   */\n      add\n        /* \"#utility.yul\":9562:9598   */\n      mstore\n        /* \"#utility.yul\":9445:9605   */\n      pop\n      jump\t// out\n        /* \"#utility.yul\":9611:9977   */\n    tag_167:\n        /* \"#utility.yul\":9753:9756   */\n      0x00\n        /* \"#utility.yul\":9774:9841   */\n      tag_252\n        /* \"#utility.yul\":9838:9840   */\n      0x0a\n        /* \"#utility.yul\":9833:9836   */\n      dup4\n        /* \"#utility.yul\":9774:9841   */\n      tag_150\n      jump\t// in\n    tag_252:\n        /* \"#utility.yul\":9767:9841   */\n      swap2\n      pop\n        /* \"#utility.yul\":9850:9943   */\n      tag_253\n        /* \"#utility.yul\":9939:9942   */\n      dup3\n        /* \"#utility.yul\":9850:9943   */\n      tag_166\n      jump\t// in\n    tag_253:\n        /* \"#utility.yul\":9968:9970   */\n      0x20\n        /* \"#utility.yul\":9963:9966   */\n      dup3\n        /* \"#utility.yul\":9959:9971   */\n      add\n        /* \"#utility.yul\":9952:9971   */\n      swap1\n      pop\n        /* \"#utility.yul\":9611:9977   */\n      swap2\n      swap1\n      pop\n      jump\t// out\n        /* \"#utility.yul\":9983:10402   */\n    tag_88:\n        /* \"#utility.yul\":10149:10153   */\n      0x00\n        /* \"#utility.yul\":10187:10189   */\n      0x20\n        /* \"#utility.yul\":10176:10185   */\n      dup3\n        /* \"#utility.yul\":10172:10190   */\n      add\n        /* \"#utility.yul\":10164:10190   */\n      swap1\n      pop\n        /* \"#utility.yul\":10236:10245   */\n      dup2\n        /* \"#utility.yul\":10230:10234   */\n      dup2\n        /* \"#utility.yul\":10226:10246   */\n      sub\n        /* \"#utility.yul\":10222:10223   */\n      0x00\n        /* \"#utility.yul\":10211:10220   */\n      dup4\n        /* \"#utility.yul\":10207:10224   */\n      add\n        /* \"#utility.yul\":10200:10247   */\n      mstore\n        /* \"#utility.yul\":10264:10395   */\n      tag_255\n        /* \"#utility.yul\":10390:10394   */\n      dup2\n        /* \"#utility.yul\":10264:10395   */\n      tag_167\n      jump\t// in\n    tag_255:\n        /* \"#utility.yul\":10256:10395   */\n      swap1\n      pop\n        /* \"#utility.yul\":9983:10402   */\n      swap2\n      swap1\n      pop\n      jump\t// out\n        /* \"#utility.yul\":10408:10580   */\n    tag_168:\n        /* \"#utility.yul\":10548:10572   */\n      0x4f6e6c79206f776e65722063616e20636f6e6669726d00000000000000000000\n        /* \"#utility.yul\":10544:10545   */\n      0x00\n        /* \"#utility.yul\":10536:10542   */\n      dup3\n        /* \"#utility.yul\":10532:10546   */\n      add\n        /* \"#utility.yul\":10525:10573   */\n      mstore\n        /* \"#utility.yul\":10408:10580   */\n      pop\n      jump\t// out\n        /* \"#utility.yul\":10586:10952   */\n    tag_169:\n        /* \"#utility.yul\":10728:10731   */\n      0x00\n        /* \"#utility.yul\":10749:10816   */\n      tag_258\n        /* \"#utility.yul\":10813:10815   */\n      0x16\n        /* \"#utility.yul\":10808:10811   */\n      dup4\n        /* \"#utility.yul\":10749:10816   */\n      tag_150\n      jump\t// in\n    tag_258:\n        /* \"#utility.yul\":10742:10816   */\n      swap2\n      pop\n        /* \"#utility.yul\":10825:10918   */\n      tag_259\n        /* \"#utility.yul\":10914:10917   */\n      dup3\n        /* \"#utility.yul\":10825:10918   */\n      tag_168\n      jump\t// in\n    tag_259:\n        /* \"#utility.yul\":10943:10945   */\n      0x20\n        /* \"#utility.yul\":10938:10941   */\n      dup3\n        /* \"#utility.yul\":10934:10946   */\n      add\n        /* \"#utility.yul\":10927:10946   */\n      swap1\n      pop\n        /* \"#utility.yul\":10586:10952   */\n      swap2\n      swap1\n      pop\n      jump\t// out\n        /* \"#utility.yul\":10958:11377   */\n    tag_108:\n        /* \"#utility.yul\":11124:11128   */\n      0x00\n        /* \"#utility.yul\":11162:11164   */\n      0x20\n        /* \"#utility.yul\":11151:11160   */\n      dup3\n        /* \"#utility.yul\":11147:11165   */\n      add\n        /* \"#utility.yul\":11139:11165   */\n      swap1\n      pop\n        /* \"#utility.yul\":11211:11220   */\n      dup2\n        /* \"#utility.yul\":11205:11209   */\n      dup2\n        /* \"#utility.yul\":11201:11221   */\n      sub\n        /* \"#utility.yul\":11197:11198   */\n      0x00\n        /* \"#utility.yul\":11186:11195   */\n      dup4\n        /* \"#utility.yul\":11182:11199   */\n      add\n        /* \"#utility.yul\":11175:11222   */\n      mstore\n        /* \"#utility.yul\":11239:11370   */\n      tag_261\n        /* \"#utility.yul\":11365:11369   */\n      dup2\n        /* \"#utility.yul\":11239:11370   */\n      tag_169\n      jump\t// in\n    tag_261:\n        /* \"#utility.yul\":11231:11370   */\n      swap1\n      pop\n        /* \"#utility.yul\":10958:11377   */\n      swap2\n      swap1\n      pop\n      jump\t// out\n        /* \"#utility.yul\":11383:11619   */\n    tag_170:\n        /* \"#utility.yul\":11523:11557   */\n      0x596f7520617265206e6f7420616c6c6f7720746f20636f6e6669726d2077696e\n        /* \"#utility.yul\":11519:11520   */\n      0x00\n        /* \"#utility.yul\":11511:11517   */\n      dup3\n        /* \"#utility.yul\":11507:11521   */\n      add\n        /* \"#utility.yul\":11500:11558   */\n      mstore\n        /* \"#utility.yul\":11592:11611   */\n      0x6e65722061742074686973207374616765000000000000000000000000000000\n        /* \"#utility.yul\":11587:11589   */\n      0x20\n        /* \"#utility.yul\":11579:11585   */\n      dup3\n        /* \"#utility.yul\":11575:11590   */\n      add\n        /* \"#utility.yul\":11568:11612   */\n      mstore\n        /* \"#utility.yul\":11383:11619   */\n      pop\n      jump\t// out\n        /* \"#utility.yul\":11625:11991   */\n    tag_171:\n        /* \"#utility.yul\":11767:11770   */\n      0x00\n        /* \"#utility.yul\":11788:11855   */\n      tag_264\n        /* \"#utility.yul\":11852:11854   */\n      0x31\n        /* \"#utility.yul\":11847:11850   */\n      dup4\n        /* \"#utility.yul\":11788:11855   */\n      tag_150\n      jump\t// in\n    tag_264:\n        /* \"#utility.yul\":11781:11855   */\n      swap2\n      pop\n        /* \"#utility.yul\":11864:11957   */\n      tag_265\n        /* \"#utility.yul\":11953:11956   */\n      dup3\n        /* \"#utility.yul\":11864:11957   */\n      tag_170\n      jump\t// in\n    tag_265:\n        /* \"#utility.yul\":11982:11984   */\n      0x40\n        /* \"#utility.yul\":11977:11980   */\n      dup3\n        /* \"#utility.yul\":11973:11985   */\n      add\n        /* \"#utility.yul\":11966:11985   */\n      swap1\n      pop\n        /* \"#utility.yul\":11625:11991   */\n      swap2\n      swap1\n      pop\n      jump\t// out\n        /* \"#utility.yul\":11997:12416   */\n    tag_115:\n        /* \"#utility.yul\":12163:12167   */\n      0x00\n        /* \"#utility.yul\":12201:12203   */\n      0x20\n        /* \"#utility.yul\":12190:12199   */\n      dup3\n        /* \"#utility.yul\":12186:12204   */\n      add\n        /* \"#utility.yul\":12178:12204   */\n      swap1\n      pop\n        /* \"#utility.yul\":12250:12259   */\n      dup2\n        /* \"#utility.yul\":12244:12248   */\n      dup2\n        /* \"#utility.yul\":12240:12260   */\n      sub\n        /* \"#utility.yul\":12236:12237   */\n      0x00\n        /* \"#utility.yul\":12225:12234   */\n      dup4\n        /* \"#utility.yul\":12221:12238   */\n      add\n        /* \"#utility.yul\":12214:12261   */\n      mstore\n        /* \"#utility.yul\":12278:12409   */\n      tag_267\n        /* \"#utility.yul\":12404:12408   */\n      dup2\n        /* \"#utility.yul\":12278:12409   */\n      tag_171\n      jump\t// in\n    tag_267:\n        /* \"#utility.yul\":12270:12409   */\n      swap1\n      pop\n        /* \"#utility.yul\":11997:12416   */\n      swap2\n      swap1\n      pop\n      jump\t// out\n        /* \"#utility.yul\":12422:12595   */\n    tag_172:\n        /* \"#utility.yul\":12562:12587   */\n      0x4f6e6c7920706c617965722063616e20636f6e6669726d000000000000000000\n        /* \"#utility.yul\":12558:12559   */\n      0x00\n        /* \"#utility.yul\":12550:12556   */\n      dup3\n        /* \"#utility.yul\":12546:12560   */\n      add\n        /* \"#utility.yul\":12539:12588   */\n      mstore\n        /* \"#utility.yul\":12422:12595   */\n      pop\n      jump\t// out\n        /* \"#utility.yul\":12601:12967   */\n    tag_173:\n        /* \"#utility.yul\":12743:12746   */\n      0x00\n        /* \"#utility.yul\":12764:12831   */\n      tag_270\n        /* \"#utility.yul\":12828:12830   */\n      0x17\n        /* \"#utility.yul\":12823:12826   */\n      dup4\n        /* \"#utility.yul\":12764:12831   */\n      tag_150\n      jump\t// in\n    tag_270:\n        /* \"#utility.yul\":12757:12831   */\n      swap2\n      pop\n        /* \"#utility.yul\":12840:12933   */\n      tag_271\n        /* \"#utility.yul\":12929:12932   */\n      dup3\n        /* \"#utility.yul\":12840:12933   */\n      tag_172\n      jump\t// in\n    tag_271:\n        /* \"#utility.yul\":12958:12960   */\n      0x20\n        /* \"#utility.yul\":12953:12956   */\n      dup3\n        /* \"#utility.yul\":12949:12961   */\n      add\n        /* \"#utility.yul\":12942:12961   */\n      swap1\n      pop\n        /* \"#utility.yul\":12601:12967   */\n      swap2\n      swap1\n      pop\n      jump\t// out\n        /* \"#utility.yul\":12973:13392   */\n    tag_121:\n        /* \"#utility.yul\":13139:13143   */\n      0x00\n        /* \"#utility.yul\":13177:13179   */\n      0x20\n        /* \"#utility.yul\":13166:13175   */\n      dup3\n        /* \"#utility.yul\":13162:13180   */\n      add\n        /* \"#utility.yul\":13154:13180   */\n      swap1\n      pop\n        /* \"#utility.yul\":13226:13235   */\n      dup2\n        /* \"#utility.yul\":13220:13224   */\n      dup2\n        /* \"#utility.yul\":13216:13236   */\n      sub\n        /* \"#utility.yul\":13212:13213   */\n      0x00\n        /* \"#utility.yul\":13201:13210   */\n      dup4\n        /* \"#utility.yul\":13197:13214   */\n      add\n        /* \"#utility.yul\":13190:13237   */\n      mstore\n        /* \"#utility.yul\":13254:13385   */\n      tag_273\n        /* \"#utility.yul\":13380:13384   */\n      dup2\n        /* \"#utility.yul\":13254:13385   */\n      tag_173\n      jump\t// in\n    tag_273:\n        /* \"#utility.yul\":13246:13385   */\n      swap1\n      pop\n        /* \"#utility.yul\":12973:13392   */\n      swap2\n      swap1\n      pop\n      jump\t// out\n        /* \"#utility.yul\":13398:13578   */\n    tag_174:\n        /* \"#utility.yul\":13446:13523   */\n      0x4e487b7100000000000000000000000000000000000000000000000000000000\n        /* \"#utility.yul\":13443:13444   */\n      0x00\n        /* \"#utility.yul\":13436:13524   */\n      mstore\n        /* \"#utility.yul\":13543:13547   */\n      0x11\n        /* \"#utility.yul\":13540:13541   */\n      0x04\n        /* \"#utility.yul\":13533:13548   */\n      mstore\n        /* \"#utility.yul\":13567:13571   */\n      0x24\n        /* \"#utility.yul\":13564:13565   */\n      0x00\n        /* \"#utility.yul\":13557:13572   */\n      revert\n        /* \"#utility.yul\":13584:13775   */\n    tag_135:\n        /* \"#utility.yul\":13624:13627   */\n      0x00\n        /* \"#utility.yul\":13643:13663   */\n      tag_276\n        /* \"#utility.yul\":13661:13662   */\n      dup3\n        /* \"#utility.yul\":13643:13663   */\n      tag_142\n      jump\t// in\n    tag_276:\n        /* \"#utility.yul\":13638:13663   */\n      swap2\n      pop\n        /* \"#utility.yul\":13677:13697   */\n      tag_277\n        /* \"#utility.yul\":13695:13696   */\n      dup4\n        /* \"#utility.yul\":13677:13697   */\n      tag_142\n      jump\t// in\n    tag_277:\n        /* \"#utility.yul\":13672:13697   */\n      swap3\n      pop\n        /* \"#utility.yul\":13720:13721   */\n      dup3\n        /* \"#utility.yul\":13717:13718   */\n      dup3\n        /* \"#utility.yul\":13713:13722   */\n      add\n        /* \"#utility.yul\":13706:13722   */\n      swap1\n      pop\n        /* \"#utility.yul\":13741:13744   */\n      dup1\n        /* \"#utility.yul\":13738:13739   */\n      dup3\n        /* \"#utility.yul\":13735:13745   */\n      gt\n        /* \"#utility.yul\":13732:13768   */\n      iszero\n      tag_278\n      jumpi\n        /* \"#utility.yul\":13748:13766   */\n      tag_279\n      tag_174\n      jump\t// in\n    tag_279:\n        /* \"#utility.yul\":13732:13768   */\n    tag_278:\n        /* \"#utility.yul\":13584:13775   */\n      swap3\n      swap2\n      pop\n      pop\n      jump\t// out\n        /* \"#utility.yul\":13781:13961   */\n    tag_175:\n        /* \"#utility.yul\":13829:13906   */\n      0x4e487b7100000000000000000000000000000000000000000000000000000000\n        /* \"#utility.yul\":13826:13827   */\n      0x00\n        /* \"#utility.yul\":13819:13907   */\n      mstore\n        /* \"#utility.yul\":13926:13930   */\n      0x12\n        /* \"#utility.yul\":13923:13924   */\n      0x04\n        /* \"#utility.yul\":13916:13931   */\n      mstore\n        /* \"#utility.yul\":13950:13954   */\n      0x24\n        /* \"#utility.yul\":13947:13948   */\n      0x00\n        /* \"#utility.yul\":13940:13955   */\n      revert\n        /* \"#utility.yul\":13967:14143   */\n    tag_137:\n        /* \"#utility.yul\":13999:14000   */\n      0x00\n        /* \"#utility.yul\":14016:14036   */\n      tag_282\n        /* \"#utility.yul\":14034:14035   */\n      dup3\n        /* \"#utility.yul\":14016:14036   */\n      tag_142\n      jump\t// in\n    tag_282:\n        /* \"#utility.yul\":14011:14036   */\n      swap2\n      pop\n        /* \"#utility.yul\":14050:14070   */\n      tag_283\n        /* \"#utility.yul\":14068:14069   */\n      dup4\n        /* \"#utility.yul\":14050:14070   */\n      tag_142\n      jump\t// in\n    tag_283:\n        /* \"#utility.yul\":14045:14070   */\n      swap3\n      pop\n        /* \"#utility.yul\":14089:14090   */\n      dup3\n        /* \"#utility.yul\":14079:14114   */\n      tag_284\n      jumpi\n        /* \"#utility.yul\":14094:14112   */\n      tag_285\n      tag_175\n      jump\t// in\n    tag_285:\n        /* \"#utility.yul\":14079:14114   */\n    tag_284:\n        /* \"#utility.yul\":14135:14136   */\n      dup3\n        /* \"#utility.yul\":14132:14133   */\n      dup3\n        /* \"#utility.yul\":14128:14137   */\n      mod\n        /* \"#utility.yul\":14123:14137   */\n      swap1\n      pop\n        /* \"#utility.yul\":13967:14143   */\n      swap3\n      swap2\n      pop\n      pop\n      jump\t// out\n    stop\n    data_5bf2a40c643c32a91271cfb84ebaedf3782dbc5f3dc9227048c7865bf3996704 506c617965722077696e2c20706c6561736520636f6e6669726d20796f7520617265207468652057696e6e657220616e64206765742072657761726421\n    data_5df918448539201a5bf172a217e04027eea7222bcd2565f78e2d9aefbb4afa7c 4f776e65722077696e2c20706c6561736520636f6e6669726d20796f7520617265207468652057696e6e657220616e64206765742072657761726421\n\n    auxdata: 0xa2646970667358221220d090fb6d8ed40398accdb8b31e43047ef769123010c4a3c76fe9790abdaa60e664736f6c63430008220033\n}\n",
				"bytecode": {
					"linkReferences": {},
					"object": "6080604052348015600e575f5ffd5b50335f5f6101000a81548173ffffffffffffffffffffffffffffffffffffffff021916908373ffffffffffffffffffffffffffffffffffffffff16021790555061123c8061005b5f395ff3fe608060405234801561000f575f5ffd5b5060043610610086575f3560e01c80637ad596f3116100595780637ad596f3146101155780638da5cb5b14610145578063d55c9c8414610163578063d79830cf1461016d57610086565b806324ccd2d11461008a57806348db5f89146100ba5780635f582011146100d85780637152f800146100f6575b5f5ffd5b6100a4600480360381019061009f9190610ad8565b61018b565b6040516100b19190610b12565b60405180910390f35b6100c261037e565b6040516100cf9190610b6a565b60405180910390f35b6100e06103a3565b6040516100ed9190610b12565b60405180910390f35b6100fe61043b565b60405161010c929190610bf3565b60405180910390f35b61012f600480360381019061012a9190610ad8565b610584565b60405161013c9190610b12565b60405180910390f35b61014d61073a565b60405161015a9190610b6a565b60405180910390f35b61016b61075e565b005b6101756109d7565b6040516101829190610b12565b60405180910390f35b5f5f5f9054906101000a900473ffffffffffffffffffffffffffffffffffffffff1673ffffffffffffffffffffffffffffffffffffffff163373ffffffffffffffffffffffffffffffffffffffff160361021a576040517f08c379a000000000000000000000000000000000000000000000000000000000815260040161021190610c91565b60405180910390fd5b6001600281111561022e5761022d610caf565b5b60045f9054906101000a900460ff16600281111561024f5761024e610caf565b5b0361028f576040517f08c379a000000000000000000000000000000000000000000000000000000000815260040161028690610d26565b60405180910390fd5b6002808111156102a2576102a1610caf565b5b60045f9054906101000a900460ff1660028111156102c3576102c2610caf565b5b03610303576040517f08c379a00000000000000000000000000000000000000000000000000000000081526004016102fa90610db4565b60405180910390fd5b3360015f6101000a81548173ffffffffffffffffffffffffffffffffffffffff021916908373ffffffffffffffffffffffffffffffffffffffff16021790555081600381905550600160045f6101000a81548160ff0219169083600281111561036f5761036e610caf565b5b02179055506003549050919050565b60015f9054906101000a900473ffffffffffffffffffffffffffffffffffffffff1681565b5f60015f9054906101000a900473ffffffffffffffffffffffffffffffffffffffff1673ffffffffffffffffffffffffffffffffffffffff163373ffffffffffffffffffffffffffffffffffffffff1614610433576040517f08c379a000000000000000000000000000000000000000000000000000000000815260040161042a90610e1c565b60405180910390fd5b600354905090565b5f60606001600281111561045257610451610caf565b5b60045f9054906101000a900460ff16600281111561047357610472610caf565b5b146104b3576040517f08c379a00000000000000000000000000000000000000000000000000000000081526004016104aa90610e84565b60405180910390fd5b600160028111156104c7576104c6610caf565b5b600460019054906101000a900460ff1660028111156104e9576104e8610caf565b5b14610529576040517f08c379a000000000000000000000000000000000000000000000000000000000815260040161052090610eec565b60405180910390fd5b5f610532610a6e565b90506003811161056057806040518060600160405280603c81526020016111cb603c91399250925050610580565b806040518060600160405280603d815260200161118e603d913992509250505b9091565b5f5f5f9054906101000a900473ffffffffffffffffffffffffffffffffffffffff1673ffffffffffffffffffffffffffffffffffffffff163373ffffffffffffffffffffffffffffffffffffffff1614610613576040517f08c379a000000000000000000000000000000000000000000000000000000000815260040161060a90610f54565b60405180910390fd5b6001600281111561062757610626610caf565b5b600460019054906101000a900460ff16600281111561064957610648610caf565b5b03610689576040517f08c379a000000000000000000000000000000000000000000000000000000000815260040161068090610d26565b60405180910390fd5b60028081111561069c5761069b610caf565b5b600460019054906101000a900460ff1660028111156106be576106bd610caf565b5b036106fe576040517f08c379a00000000000000000000000000000000000000000000000000000000081526004016106f590610db4565b60405180910390fd5b816002819055506001600460016101000a81548160ff0219169083600281111561072b5761072a610caf565b5b02179055506002549050919050565b5f5f9054906101000a900473ffffffffffffffffffffffffffffffffffffffff1681565b5f610767610a6e565b9050600381116108a5575f5f9054906101000a900473ffffffffffffffffffffffffffffffffffffffff1673ffffffffffffffffffffffffffffffffffffffff163373ffffffffffffffffffffffffffffffffffffffff16146107ff576040517f08c379a00000000000000000000000000000000000000000000000000000000081526004016107f690610fbc565b60405180910390fd5b6001600281111561081357610812610caf565b5b600460019054906101000a900460ff16600281111561083557610834610caf565b5b14610875576040517f08c379a000000000000000000000000000000000000000000000000000000000815260040161086c9061104a565b60405180910390fd5b6002600460016101000a81548160ff0219169083600281111561089b5761089a610caf565b5b02179055506109d4565b60015f9054906101000a900473ffffffffffffffffffffffffffffffffffffffff1673ffffffffffffffffffffffffffffffffffffffff163373ffffffffffffffffffffffffffffffffffffffff1614610934576040517f08c379a000000000000000000000000000000000000000000000000000000000815260040161092b906110b2565b60405180910390fd5b6001600281111561094857610947610caf565b5b60045f9054906101000a900460ff16600281111561096957610968610caf565b5b146109a9576040517f08c379a00000000000000000000000000000000000000000000000000000000081526004016109a09061104a565b60405180910390fd5b600260045f6101000a81548160ff021916908360028111156109ce576109cd610caf565b5b02179055505b50565b5f5f5f9054906101000a900473ffffffffffffffffffffffffffffffffffffffff1673ffffffffffffffffffffffffffffffffffffffff163373ffffffffffffffffffffffffffffffffffffffff1614610a66576040517f08c379a0000000000000000000000000000000000000000000000000000000008152600401610a5d90610f54565b60405180910390fd5b600254905090565b5f5f60016006600254600354610a8491906110fd565b610a8e919061115d565b610a9891906110fd565b90508091505090565b5f5ffd5b5f819050919050565b610ab781610aa5565b8114610ac1575f5ffd5b50565b5f81359050610ad281610aae565b92915050565b5f60208284031215610aed57610aec610aa1565b5b5f610afa84828501610ac4565b91505092915050565b610b0c81610aa5565b82525050565b5f602082019050610b255f830184610b03565b92915050565b5f73ffffffffffffffffffffffffffffffffffffffff82169050919050565b5f610b5482610b2b565b9050919050565b610b6481610b4a565b82525050565b5f602082019050610b7d5f830184610b5b565b92915050565b5f81519050919050565b5f82825260208201905092915050565b8281835e5f83830152505050565b5f601f19601f8301169050919050565b5f610bc582610b83565b610bcf8185610b8d565b9350610bdf818560208601610b9d565b610be881610bab565b840191505092915050565b5f604082019050610c065f830185610b03565b8181036020830152610c188184610bbb565b90509392505050565b7f6f776e65722063616e206e6f74205375626d697420706c6179657220416e73775f8201527f6572000000000000000000000000000000000000000000000000000000000000602082015250565b5f610c7b602283610b8d565b9150610c8682610c21565b604082019050919050565b5f6020820190508181035f830152610ca881610c6f565b9050919050565b7f4e487b71000000000000000000000000000000000000000000000000000000005f52602160045260245ffd5b7f596f75206861766520616c7265616479207375626d69747465640000000000005f82015250565b5f610d10601a83610b8d565b9150610d1b82610cdc565b602082019050919050565b5f6020820190508181035f830152610d3d81610d04565b9050919050565b7f5468652067616d652069732066696e6973682c206e6577207375626d697373695f8201527f6f6e206973206e6f7420616c6c6f776564000000000000000000000000000000602082015250565b5f610d9e603183610b8d565b9150610da982610d44565b604082019050919050565b5f6020820190508181035f830152610dcb81610d92565b9050919050565b7f6f6e6c7920706c617965720000000000000000000000000000000000000000005f82015250565b5f610e06600b83610b8d565b9150610e1182610dd2565b602082019050919050565b5f6020820190508181035f830152610e3381610dfa565b9050919050565b7f506c6179657220646f206e6f74207375626d69740000000000000000000000005f82015250565b5f610e6e601483610b8d565b9150610e7982610e3a565b602082019050919050565b5f6020820190508181035f830152610e9b81610e62565b9050919050565b7f4f776e657220646f206e6f74207375626d6974000000000000000000000000005f82015250565b5f610ed6601383610b8d565b9150610ee182610ea2565b602082019050919050565b5f6020820190508181035f830152610f0381610eca565b9050919050565b7f6f6e6c79206f776e6572000000000000000000000000000000000000000000005f82015250565b5f610f3e600a83610b8d565b9150610f4982610f0a565b602082019050919050565b5f6020820190508181035f830152610f6b81610f32565b9050919050565b7f4f6e6c79206f776e65722063616e20636f6e6669726d000000000000000000005f82015250565b5f610fa6601683610b8d565b9150610fb182610f72565b602082019050919050565b5f6020820190508181035f830152610fd381610f9a565b9050919050565b7f596f7520617265206e6f7420616c6c6f7720746f20636f6e6669726d2077696e5f8201527f6e65722061742074686973207374616765000000000000000000000000000000602082015250565b5f611034603183610b8d565b915061103f82610fda565b604082019050919050565b5f6020820190508181035f83015261106181611028565b9050919050565b7f4f6e6c7920706c617965722063616e20636f6e6669726d0000000000000000005f82015250565b5f61109c601783610b8d565b91506110a782611068565b602082019050919050565b5f6020820190508181035f8301526110c981611090565b9050919050565b7f4e487b71000000000000000000000000000000000000000000000000000000005f52601160045260245ffd5b5f61110782610aa5565b915061111283610aa5565b925082820190508082111561112a576111296110d0565b5b92915050565b7f4e487b71000000000000000000000000000000000000000000000000000000005f52601260045260245ffd5b5f61116782610aa5565b915061117283610aa5565b92508261118257611181611130565b5b82820690509291505056fe506c617965722077696e2c20706c6561736520636f6e6669726d20796f7520617265207468652057696e6e657220616e642067657420726577617264214f776e65722077696e2c20706c6561736520636f6e6669726d20796f7520617265207468652057696e6e657220616e64206765742072657761726421a2646970667358221220d090fb6d8ed40398accdb8b31e43047ef769123010c4a3c76fe9790abdaa60e664736f6c63430008220033",
					"opcodes": "PUSH1 0x80 PUSH1 0x40 MSTORE CALLVALUE DUP1 ISZERO PUSH1 0xE JUMPI PUSH0 PUSH0 REVERT JUMPDEST POP CALLER PUSH0 PUSH0 PUSH2 0x100 EXP DUP2 SLOAD DUP2 PUSH20 0xFFFFFFFFFFFFFFFFFFFFFFFFFFFFFFFFFFFFFFFF MUL NOT AND SWAP1 DUP4 PUSH20 0xFFFFFFFFFFFFFFFFFFFFFFFFFFFFFFFFFFFFFFFF AND MUL OR SWAP1 SSTORE POP PUSH2 0x123C DUP1 PUSH2 0x5B PUSH0 CODECOPY PUSH0 RETURN INVALID PUSH1 0x80 PUSH1 0x40 MSTORE CALLVALUE DUP1 ISZERO PUSH2 0xF JUMPI PUSH0 PUSH0 REVERT JUMPDEST POP PUSH1 0x4 CALLDATASIZE LT PUSH2 0x86 JUMPI PUSH0 CALLDATALOAD PUSH1 0xE0 SHR DUP1 PUSH4 0x7AD596F3 GT PUSH2 0x59 JUMPI DUP1 PUSH4 0x7AD596F3 EQ PUSH2 0x115 JUMPI DUP1 PUSH4 0x8DA5CB5B EQ PUSH2 0x145 JUMPI DUP1 PUSH4 0xD55C9C84 EQ PUSH2 0x163 JUMPI DUP1 PUSH4 0xD79830CF EQ PUSH2 0x16D JUMPI PUSH2 0x86 JUMP JUMPDEST DUP1 PUSH4 0x24CCD2D1 EQ PUSH2 0x8A JUMPI DUP1 PUSH4 0x48DB5F89 EQ PUSH2 0xBA JUMPI DUP1 PUSH4 0x5F582011 EQ PUSH2 0xD8 JUMPI DUP1 PUSH4 0x7152F800 EQ PUSH2 0xF6 JUMPI JUMPDEST PUSH0 PUSH0 REVERT JUMPDEST PUSH2 0xA4 PUSH1 0x4 DUP1 CALLDATASIZE SUB DUP2 ADD SWAP1 PUSH2 0x9F SWAP2 SWAP1 PUSH2 0xAD8 JUMP JUMPDEST PUSH2 0x18B JUMP JUMPDEST PUSH1 0x40 MLOAD PUSH2 0xB1 SWAP2 SWAP1 PUSH2 0xB12 JUMP JUMPDEST PUSH1 0x40 MLOAD DUP1 SWAP2 SUB SWAP1 RETURN JUMPDEST PUSH2 0xC2 PUSH2 0x37E JUMP JUMPDEST PUSH1 0x40 MLOAD PUSH2 0xCF SWAP2 SWAP1 PUSH2 0xB6A JUMP JUMPDEST PUSH1 0x40 MLOAD DUP1 SWAP2 SUB SWAP1 RETURN JUMPDEST PUSH2 0xE0 PUSH2 0x3A3 JUMP JUMPDEST PUSH1 0x40 MLOAD PUSH2 0xED SWAP2 SWAP1 PUSH2 0xB12 JUMP JUMPDEST PUSH1 0x40 MLOAD DUP1 SWAP2 SUB SWAP1 RETURN JUMPDEST PUSH2 0xFE PUSH2 0x43B JUMP JUMPDEST PUSH1 0x40 MLOAD PUSH2 0x10C SWAP3 SWAP2 SWAP1 PUSH2 0xBF3 JUMP JUMPDEST PUSH1 0x40 MLOAD DUP1 SWAP2 SUB SWAP1 RETURN JUMPDEST PUSH2 0x12F PUSH1 0x4 DUP1 CALLDATASIZE SUB DUP2 ADD SWAP1 PUSH2 0x12A SWAP2 SWAP1 PUSH2 0xAD8 JUMP JUMPDEST PUSH2 0x584 JUMP JUMPDEST PUSH1 0x40 MLOAD PUSH2 0x13C SWAP2 SWAP1 PUSH2 0xB12 JUMP JUMPDEST PUSH1 0x40 MLOAD DUP1 SWAP2 SUB SWAP1 RETURN JUMPDEST PUSH2 0x14D PUSH2 0x73A JUMP JUMPDEST PUSH1 0x40 MLOAD PUSH2 0x15A SWAP2 SWAP1 PUSH2 0xB6A JUMP JUMPDEST PUSH1 0x40 MLOAD DUP1 SWAP2 SUB SWAP1 RETURN JUMPDEST PUSH2 0x16B PUSH2 0x75E JUMP JUMPDEST STOP JUMPDEST PUSH2 0x175 PUSH2 0x9D7 JUMP JUMPDEST PUSH1 0x40 MLOAD PUSH2 0x182 SWAP2 SWAP1 PUSH2 0xB12 JUMP JUMPDEST PUSH1 0x40 MLOAD DUP1 SWAP2 SUB SWAP1 RETURN JUMPDEST PUSH0 PUSH0 PUSH0 SWAP1 SLOAD SWAP1 PUSH2 0x100 EXP SWAP1 DIV PUSH20 0xFFFFFFFFFFFFFFFFFFFFFFFFFFFFFFFFFFFFFFFF AND PUSH20 0xFFFFFFFFFFFFFFFFFFFFFFFFFFFFFFFFFFFFFFFF AND CALLER PUSH20 0xFFFFFFFFFFFFFFFFFFFFFFFFFFFFFFFFFFFFFFFF AND SUB PUSH2 0x21A JUMPI PUSH1 0x40 MLOAD PUSH32 0x8C379A000000000000000000000000000000000000000000000000000000000 DUP2 MSTORE PUSH1 0x4 ADD PUSH2 0x211 SWAP1 PUSH2 0xC91 JUMP JUMPDEST PUSH1 0x40 MLOAD DUP1 SWAP2 SUB SWAP1 REVERT JUMPDEST PUSH1 0x1 PUSH1 0x2 DUP2 GT ISZERO PUSH2 0x22E JUMPI PUSH2 0x22D PUSH2 0xCAF JUMP JUMPDEST JUMPDEST PUSH1 0x4 PUSH0 SWAP1 SLOAD SWAP1 PUSH2 0x100 EXP SWAP1 DIV PUSH1 0xFF AND PUSH1 0x2 DUP2 GT ISZERO PUSH2 0x24F JUMPI PUSH2 0x24E PUSH2 0xCAF JUMP JUMPDEST JUMPDEST SUB PUSH2 0x28F JUMPI PUSH1 0x40 MLOAD PUSH32 0x8C379A000000000000000000000000000000000000000000000000000000000 DUP2 MSTORE PUSH1 0x4 ADD PUSH2 0x286 SWAP1 PUSH2 0xD26 JUMP JUMPDEST PUSH1 0x40 MLOAD DUP1 SWAP2 SUB SWAP1 REVERT JUMPDEST PUSH1 0x2 DUP1 DUP2 GT ISZERO PUSH2 0x2A2 JUMPI PUSH2 0x2A1 PUSH2 0xCAF JUMP JUMPDEST JUMPDEST PUSH1 0x4 PUSH0 SWAP1 SLOAD SWAP1 PUSH2 0x100 EXP SWAP1 DIV PUSH1 0xFF AND PUSH1 0x2 DUP2 GT ISZERO PUSH2 0x2C3 JUMPI PUSH2 0x2C2 PUSH2 0xCAF JUMP JUMPDEST JUMPDEST SUB PUSH2 0x303 JUMPI PUSH1 0x40 MLOAD PUSH32 0x8C379A000000000000000000000000000000000000000000000000000000000 DUP2 MSTORE PUSH1 0x4 ADD PUSH2 0x2FA SWAP1 PUSH2 0xDB4 JUMP JUMPDEST PUSH1 0x40 MLOAD DUP1 SWAP2 SUB SWAP1 REVERT JUMPDEST CALLER PUSH1 0x1 PUSH0 PUSH2 0x100 EXP DUP2 SLOAD DUP2 PUSH20 0xFFFFFFFFFFFFFFFFFFFFFFFFFFFFFFFFFFFFFFFF MUL NOT AND SWAP1 DUP4 PUSH20 0xFFFFFFFFFFFFFFFFFFFFFFFFFFFFFFFFFFFFFFFF AND MUL OR SWAP1 SSTORE POP DUP2 PUSH1 0x3 DUP2 SWAP1 SSTORE POP PUSH1 0x1 PUSH1 0x4 PUSH0 PUSH2 0x100 EXP DUP2 SLOAD DUP2 PUSH1 0xFF MUL NOT AND SWAP1 DUP4 PUSH1 0x2 DUP2 GT ISZERO PUSH2 0x36F JUMPI PUSH2 0x36E PUSH2 0xCAF JUMP JUMPDEST JUMPDEST MUL OR SWAP1 SSTORE POP PUSH1 0x3 SLOAD SWAP1 POP SWAP2 SWAP1 POP JUMP JUMPDEST PUSH1 0x1 PUSH0 SWAP1 SLOAD SWAP1 PUSH2 0x100 EXP SWAP1 DIV PUSH20 0xFFFFFFFFFFFFFFFFFFFFFFFFFFFFFFFFFFFFFFFF AND DUP2 JUMP JUMPDEST PUSH0 PUSH1 0x1 PUSH0 SWAP1 SLOAD SWAP1 PUSH2 0x100 EXP SWAP1 DIV PUSH20 0xFFFFFFFFFFFFFFFFFFFFFFFFFFFFFFFFFFFFFFFF AND PUSH20 0xFFFFFFFFFFFFFFFFFFFFFFFFFFFFFFFFFFFFFFFF AND CALLER PUSH20 0xFFFFFFFFFFFFFFFFFFFFFFFFFFFFFFFFFFFFFFFF AND EQ PUSH2 0x433 JUMPI PUSH1 0x40 MLOAD PUSH32 0x8C379A000000000000000000000000000000000000000000000000000000000 DUP2 MSTORE PUSH1 0x4 ADD PUSH2 0x42A SWAP1 PUSH2 0xE1C JUMP JUMPDEST PUSH1 0x40 MLOAD DUP1 SWAP2 SUB SWAP1 REVERT JUMPDEST PUSH1 0x3 SLOAD SWAP1 POP SWAP1 JUMP JUMPDEST PUSH0 PUSH1 0x60 PUSH1 0x1 PUSH1 0x2 DUP2 GT ISZERO PUSH2 0x452 JUMPI PUSH2 0x451 PUSH2 0xCAF JUMP JUMPDEST JUMPDEST PUSH1 0x4 PUSH0 SWAP1 SLOAD SWAP1 PUSH2 0x100 EXP SWAP1 DIV PUSH1 0xFF AND PUSH1 0x2 DUP2 GT ISZERO PUSH2 0x473 JUMPI PUSH2 0x472 PUSH2 0xCAF JUMP JUMPDEST JUMPDEST EQ PUSH2 0x4B3 JUMPI PUSH1 0x40 MLOAD PUSH32 0x8C379A000000000000000000000000000000000000000000000000000000000 DUP2 MSTORE PUSH1 0x4 ADD PUSH2 0x4AA SWAP1 PUSH2 0xE84 JUMP JUMPDEST PUSH1 0x40 MLOAD DUP1 SWAP2 SUB SWAP1 REVERT JUMPDEST PUSH1 0x1 PUSH1 0x2 DUP2 GT ISZERO PUSH2 0x4C7 JUMPI PUSH2 0x4C6 PUSH2 0xCAF JUMP JUMPDEST JUMPDEST PUSH1 0x4 PUSH1 0x1 SWAP1 SLOAD SWAP1 PUSH2 0x100 EXP SWAP1 DIV PUSH1 0xFF AND PUSH1 0x2 DUP2 GT ISZERO PUSH2 0x4E9 JUMPI PUSH2 0x4E8 PUSH2 0xCAF JUMP JUMPDEST JUMPDEST EQ PUSH2 0x529 JUMPI PUSH1 0x40 MLOAD PUSH32 0x8C379A000000000000000000000000000000000000000000000000000000000 DUP2 MSTORE PUSH1 0x4 ADD PUSH2 0x520 SWAP1 PUSH2 0xEEC JUMP JUMPDEST PUSH1 0x40 MLOAD DUP1 SWAP2 SUB SWAP1 REVERT JUMPDEST PUSH0 PUSH2 0x532 PUSH2 0xA6E JUMP JUMPDEST SWAP1 POP PUSH1 0x3 DUP2 GT PUSH2 0x560 JUMPI DUP1 PUSH1 0x40 MLOAD DUP1 PUSH1 0x60 ADD PUSH1 0x40 MSTORE DUP1 PUSH1 0x3C DUP2 MSTORE PUSH1 0x20 ADD PUSH2 0x11CB PUSH1 0x3C SWAP2 CODECOPY SWAP3 POP SWAP3 POP POP PUSH2 0x580 JUMP JUMPDEST DUP1 PUSH1 0x40 MLOAD DUP1 PUSH1 0x60 ADD PUSH1 0x40 MSTORE DUP1 PUSH1 0x3D DUP2 MSTORE PUSH1 0x20 ADD PUSH2 0x118E PUSH1 0x3D SWAP2 CODECOPY SWAP3 POP SWAP3 POP POP JUMPDEST SWAP1 SWAP2 JUMP JUMPDEST PUSH0 PUSH0 PUSH0 SWAP1 SLOAD SWAP1 PUSH2 0x100 EXP SWAP1 DIV PUSH20 0xFFFFFFFFFFFFFFFFFFFFFFFFFFFFFFFFFFFFFFFF AND PUSH20 0xFFFFFFFFFFFFFFFFFFFFFFFFFFFFFFFFFFFFFFFF AND CALLER PUSH20 0xFFFFFFFFFFFFFFFFFFFFFFFFFFFFFFFFFFFFFFFF AND EQ PUSH2 0x613 JUMPI PUSH1 0x40 MLOAD PUSH32 0x8C379A000000000000000000000000000000000000000000000000000000000 DUP2 MSTORE PUSH1 0x4 ADD PUSH2 0x60A SWAP1 PUSH2 0xF54 JUMP JUMPDEST PUSH1 0x40 MLOAD DUP1 SWAP2 SUB SWAP1 REVERT JUMPDEST PUSH1 0x1 PUSH1 0x2 DUP2 GT ISZERO PUSH2 0x627 JUMPI PUSH2 0x626 PUSH2 0xCAF JUMP JUMPDEST JUMPDEST PUSH1 0x4 PUSH1 0x1 SWAP1 SLOAD SWAP1 PUSH2 0x100 EXP SWAP1 DIV PUSH1 0xFF AND PUSH1 0x2 DUP2 GT ISZERO PUSH2 0x649 JUMPI PUSH2 0x648 PUSH2 0xCAF JUMP JUMPDEST JUMPDEST SUB PUSH2 0x689 JUMPI PUSH1 0x40 MLOAD PUSH32 0x8C379A000000000000000000000000000000000000000000000000000000000 DUP2 MSTORE PUSH1 0x4 ADD PUSH2 0x680 SWAP1 PUSH2 0xD26 JUMP JUMPDEST PUSH1 0x40 MLOAD DUP1 SWAP2 SUB SWAP1 REVERT JUMPDEST PUSH1 0x2 DUP1 DUP2 GT ISZERO PUSH2 0x69C JUMPI PUSH2 0x69B PUSH2 0xCAF JUMP JUMPDEST JUMPDEST PUSH1 0x4 PUSH1 0x1 SWAP1 SLOAD SWAP1 PUSH2 0x100 EXP SWAP1 DIV PUSH1 0xFF AND PUSH1 0x2 DUP2 GT ISZERO PUSH2 0x6BE JUMPI PUSH2 0x6BD PUSH2 0xCAF JUMP JUMPDEST JUMPDEST SUB PUSH2 0x6FE JUMPI PUSH1 0x40 MLOAD PUSH32 0x8C379A000000000000000000000000000000000000000000000000000000000 DUP2 MSTORE PUSH1 0x4 ADD PUSH2 0x6F5 SWAP1 PUSH2 0xDB4 JUMP JUMPDEST PUSH1 0x40 MLOAD DUP1 SWAP2 SUB SWAP1 REVERT JUMPDEST DUP2 PUSH1 0x2 DUP2 SWAP1 SSTORE POP PUSH1 0x1 PUSH1 0x4 PUSH1 0x1 PUSH2 0x100 EXP DUP2 SLOAD DUP2 PUSH1 0xFF MUL NOT AND SWAP1 DUP4 PUSH1 0x2 DUP2 GT ISZERO PUSH2 0x72B JUMPI PUSH2 0x72A PUSH2 0xCAF JUMP JUMPDEST JUMPDEST MUL OR SWAP1 SSTORE POP PUSH1 0x2 SLOAD SWAP1 POP SWAP2 SWAP1 POP JUMP JUMPDEST PUSH0 PUSH0 SWAP1 SLOAD SWAP1 PUSH2 0x100 EXP SWAP1 DIV PUSH20 0xFFFFFFFFFFFFFFFFFFFFFFFFFFFFFFFFFFFFFFFF AND DUP2 JUMP JUMPDEST PUSH0 PUSH2 0x767 PUSH2 0xA6E JUMP JUMPDEST SWAP1 POP PUSH1 0x3 DUP2 GT PUSH2 0x8A5 JUMPI PUSH0 PUSH0 SWAP1 SLOAD SWAP1 PUSH2 0x100 EXP SWAP1 DIV PUSH20 0xFFFFFFFFFFFFFFFFFFFFFFFFFFFFFFFFFFFFFFFF AND PUSH20 0xFFFFFFFFFFFFFFFFFFFFFFFFFFFFFFFFFFFFFFFF AND CALLER PUSH20 0xFFFFFFFFFFFFFFFFFFFFFFFFFFFFFFFFFFFFFFFF AND EQ PUSH2 0x7FF JUMPI PUSH1 0x40 MLOAD PUSH32 0x8C379A000000000000000000000000000000000000000000000000000000000 DUP2 MSTORE PUSH1 0x4 ADD PUSH2 0x7F6 SWAP1 PUSH2 0xFBC JUMP JUMPDEST PUSH1 0x40 MLOAD DUP1 SWAP2 SUB SWAP1 REVERT JUMPDEST PUSH1 0x1 PUSH1 0x2 DUP2 GT ISZERO PUSH2 0x813 JUMPI PUSH2 0x812 PUSH2 0xCAF JUMP JUMPDEST JUMPDEST PUSH1 0x4 PUSH1 0x1 SWAP1 SLOAD SWAP1 PUSH2 0x100 EXP SWAP1 DIV PUSH1 0xFF AND PUSH1 0x2 DUP2 GT ISZERO PUSH2 0x835 JUMPI PUSH2 0x834 PUSH2 0xCAF JUMP JUMPDEST JUMPDEST EQ PUSH2 0x875 JUMPI PUSH1 0x40 MLOAD PUSH32 0x8C379A000000000000000000000000000000000000000000000000000000000 DUP2 MSTORE PUSH1 0x4 ADD PUSH2 0x86C SWAP1 PUSH2 0x104A JUMP JUMPDEST PUSH1 0x40 MLOAD DUP1 SWAP2 SUB SWAP1 REVERT JUMPDEST PUSH1 0x2 PUSH1 0x4 PUSH1 0x1 PUSH2 0x100 EXP DUP2 SLOAD DUP2 PUSH1 0xFF MUL NOT AND SWAP1 DUP4 PUSH1 0x2 DUP2 GT ISZERO PUSH2 0x89B JUMPI PUSH2 0x89A PUSH2 0xCAF JUMP JUMPDEST JUMPDEST MUL OR SWAP1 SSTORE POP PUSH2 0x9D4 JUMP JUMPDEST PUSH1 0x1 PUSH0 SWAP1 SLOAD SWAP1 PUSH2 0x100 EXP SWAP1 DIV PUSH20 0xFFFFFFFFFFFFFFFFFFFFFFFFFFFFFFFFFFFFFFFF AND PUSH20 0xFFFFFFFFFFFFFFFFFFFFFFFFFFFFFFFFFFFFFFFF AND CALLER PUSH20 0xFFFFFFFFFFFFFFFFFFFFFFFFFFFFFFFFFFFFFFFF AND EQ PUSH2 0x934 JUMPI PUSH1 0x40 MLOAD PUSH32 0x8C379A000000000000000000000000000000000000000000000000000000000 DUP2 MSTORE PUSH1 0x4 ADD PUSH2 0x92B SWAP1 PUSH2 0x10B2 JUMP JUMPDEST PUSH1 0x40 MLOAD DUP1 SWAP2 SUB SWAP1 REVERT JUMPDEST PUSH1 0x1 PUSH1 0x2 DUP2 GT ISZERO PUSH2 0x948 JUMPI PUSH2 0x947 PUSH2 0xCAF JUMP JUMPDEST JUMPDEST PUSH1 0x4 PUSH0 SWAP1 SLOAD SWAP1 PUSH2 0x100 EXP SWAP1 DIV PUSH1 0xFF AND PUSH1 0x2 DUP2 GT ISZERO PUSH2 0x969 JUMPI PUSH2 0x968 PUSH2 0xCAF JUMP JUMPDEST JUMPDEST EQ PUSH2 0x9A9 JUMPI PUSH1 0x40 MLOAD PUSH32 0x8C379A000000000000000000000000000000000000000000000000000000000 DUP2 MSTORE PUSH1 0x4 ADD PUSH2 0x9A0 SWAP1 PUSH2 0x104A JUMP JUMPDEST PUSH1 0x40 MLOAD DUP1 SWAP2 SUB SWAP1 REVERT JUMPDEST PUSH1 0x2 PUSH1 0x4 PUSH0 PUSH2 0x100 EXP DUP2 SLOAD DUP2 PUSH1 0xFF MUL NOT AND SWAP1 DUP4 PUSH1 0x2 DUP2 GT ISZERO PUSH2 0x9CE JUMPI PUSH2 0x9CD PUSH2 0xCAF JUMP JUMPDEST JUMPDEST MUL OR SWAP1 SSTORE POP JUMPDEST POP JUMP JUMPDEST PUSH0 PUSH0 PUSH0 SWAP1 SLOAD SWAP1 PUSH2 0x100 EXP SWAP1 DIV PUSH20 0xFFFFFFFFFFFFFFFFFFFFFFFFFFFFFFFFFFFFFFFF AND PUSH20 0xFFFFFFFFFFFFFFFFFFFFFFFFFFFFFFFFFFFFFFFF AND CALLER PUSH20 0xFFFFFFFFFFFFFFFFFFFFFFFFFFFFFFFFFFFFFFFF AND EQ PUSH2 0xA66 JUMPI PUSH1 0x40 MLOAD PUSH32 0x8C379A000000000000000000000000000000000000000000000000000000000 DUP2 MSTORE PUSH1 0x4 ADD PUSH2 0xA5D SWAP1 PUSH2 0xF54 JUMP JUMPDEST PUSH1 0x40 MLOAD DUP1 SWAP2 SUB SWAP1 REVERT JUMPDEST PUSH1 0x2 SLOAD SWAP1 POP SWAP1 JUMP JUMPDEST PUSH0 PUSH0 PUSH1 0x1 PUSH1 0x6 PUSH1 0x2 SLOAD PUSH1 0x3 SLOAD PUSH2 0xA84 SWAP2 SWAP1 PUSH2 0x10FD JUMP JUMPDEST PUSH2 0xA8E SWAP2 SWAP1 PUSH2 0x115D JUMP JUMPDEST PUSH2 0xA98 SWAP2 SWAP1 PUSH2 0x10FD JUMP JUMPDEST SWAP1 POP DUP1 SWAP2 POP POP SWAP1 JUMP JUMPDEST PUSH0 PUSH0 REVERT JUMPDEST PUSH0 DUP2 SWAP1 POP SWAP2 SWAP1 POP JUMP JUMPDEST PUSH2 0xAB7 DUP2 PUSH2 0xAA5 JUMP JUMPDEST DUP2 EQ PUSH2 0xAC1 JUMPI PUSH0 PUSH0 REVERT JUMPDEST POP JUMP JUMPDEST PUSH0 DUP2 CALLDATALOAD SWAP1 POP PUSH2 0xAD2 DUP2 PUSH2 0xAAE JUMP JUMPDEST SWAP3 SWAP2 POP POP JUMP JUMPDEST PUSH0 PUSH1 0x20 DUP3 DUP5 SUB SLT ISZERO PUSH2 0xAED JUMPI PUSH2 0xAEC PUSH2 0xAA1 JUMP JUMPDEST JUMPDEST PUSH0 PUSH2 0xAFA DUP5 DUP3 DUP6 ADD PUSH2 0xAC4 JUMP JUMPDEST SWAP2 POP POP SWAP3 SWAP2 POP POP JUMP JUMPDEST PUSH2 0xB0C DUP2 PUSH2 0xAA5 JUMP JUMPDEST DUP3 MSTORE POP POP JUMP JUMPDEST PUSH0 PUSH1 0x20 DUP3 ADD SWAP1 POP PUSH2 0xB25 PUSH0 DUP4 ADD DUP5 PUSH2 0xB03 JUMP JUMPDEST SWAP3 SWAP2 POP POP JUMP JUMPDEST PUSH0 PUSH20 0xFFFFFFFFFFFFFFFFFFFFFFFFFFFFFFFFFFFFFFFF DUP3 AND SWAP1 POP SWAP2 SWAP1 POP JUMP JUMPDEST PUSH0 PUSH2 0xB54 DUP3 PUSH2 0xB2B JUMP JUMPDEST SWAP1 POP SWAP2 SWAP1 POP JUMP JUMPDEST PUSH2 0xB64 DUP2 PUSH2 0xB4A JUMP JUMPDEST DUP3 MSTORE POP POP JUMP JUMPDEST PUSH0 PUSH1 0x20 DUP3 ADD SWAP1 POP PUSH2 0xB7D PUSH0 DUP4 ADD DUP5 PUSH2 0xB5B JUMP JUMPDEST SWAP3 SWAP2 POP POP JUMP JUMPDEST PUSH0 DUP2 MLOAD SWAP1 POP SWAP2 SWAP1 POP JUMP JUMPDEST PUSH0 DUP3 DUP3 MSTORE PUSH1 0x20 DUP3 ADD SWAP1 POP SWAP3 SWAP2 POP POP JUMP JUMPDEST DUP3 DUP2 DUP4 MCOPY PUSH0 DUP4 DUP4 ADD MSTORE POP POP POP JUMP JUMPDEST PUSH0 PUSH1 0x1F NOT PUSH1 0x1F DUP4 ADD AND SWAP1 POP SWAP2 SWAP1 POP JUMP JUMPDEST PUSH0 PUSH2 0xBC5 DUP3 PUSH2 0xB83 JUMP JUMPDEST PUSH2 0xBCF DUP2 DUP6 PUSH2 0xB8D JUMP JUMPDEST SWAP4 POP PUSH2 0xBDF DUP2 DUP6 PUSH1 0x20 DUP7 ADD PUSH2 0xB9D JUMP JUMPDEST PUSH2 0xBE8 DUP2 PUSH2 0xBAB JUMP JUMPDEST DUP5 ADD SWAP2 POP POP SWAP3 SWAP2 POP POP JUMP JUMPDEST PUSH0 PUSH1 0x40 DUP3 ADD SWAP1 POP PUSH2 0xC06 PUSH0 DUP4 ADD DUP6 PUSH2 0xB03 JUMP JUMPDEST DUP2 DUP2 SUB PUSH1 0x20 DUP4 ADD MSTORE PUSH2 0xC18 DUP2 DUP5 PUSH2 0xBBB JUMP JUMPDEST SWAP1 POP SWAP4 SWAP3 POP POP POP JUMP JUMPDEST PUSH32 0x6F776E65722063616E206E6F74205375626D697420706C6179657220416E7377 PUSH0 DUP3 ADD MSTORE PUSH32 0x6572000000000000000000000000000000000000000000000000000000000000 PUSH1 0x20 DUP3 ADD MSTORE POP JUMP JUMPDEST PUSH0 PUSH2 0xC7B PUSH1 0x22 DUP4 PUSH2 0xB8D JUMP JUMPDEST SWAP2 POP PUSH2 0xC86 DUP3 PUSH2 0xC21 JUMP JUMPDEST PUSH1 0x40 DUP3 ADD SWAP1 POP SWAP2 SWAP1 POP JUMP JUMPDEST PUSH0 PUSH1 0x20 DUP3 ADD SWAP1 POP DUP2 DUP2 SUB PUSH0 DUP4 ADD MSTORE PUSH2 0xCA8 DUP2 PUSH2 0xC6F JUMP JUMPDEST SWAP1 POP SWAP2 SWAP1 POP JUMP JUMPDEST PUSH32 0x4E487B7100000000000000000000000000000000000000000000000000000000 PUSH0 MSTORE PUSH1 0x21 PUSH1 0x4 MSTORE PUSH1 0x24 PUSH0 REVERT JUMPDEST PUSH32 0x596F75206861766520616C7265616479207375626D6974746564000000000000 PUSH0 DUP3 ADD MSTORE POP JUMP JUMPDEST PUSH0 PUSH2 0xD10 PUSH1 0x1A DUP4 PUSH2 0xB8D JUMP JUMPDEST SWAP2 POP PUSH2 0xD1B DUP3 PUSH2 0xCDC JUMP JUMPDEST PUSH1 0x20 DUP3 ADD SWAP1 POP SWAP2 SWAP1 POP JUMP JUMPDEST PUSH0 PUSH1 0x20 DUP3 ADD SWAP1 POP DUP2 DUP2 SUB PUSH0 DUP4 ADD MSTORE PUSH2 0xD3D DUP2 PUSH2 0xD04 JUMP JUMPDEST SWAP1 POP SWAP2 SWAP1 POP JUMP JUMPDEST PUSH32 0x5468652067616D652069732066696E6973682C206E6577207375626D69737369 PUSH0 DUP3 ADD MSTORE PUSH32 0x6F6E206973206E6F7420616C6C6F776564000000000000000000000000000000 PUSH1 0x20 DUP3 ADD MSTORE POP JUMP JUMPDEST PUSH0 PUSH2 0xD9E PUSH1 0x31 DUP4 PUSH2 0xB8D JUMP JUMPDEST SWAP2 POP PUSH2 0xDA9 DUP3 PUSH2 0xD44 JUMP JUMPDEST PUSH1 0x40 DUP3 ADD SWAP1 POP SWAP2 SWAP1 POP JUMP JUMPDEST PUSH0 PUSH1 0x20 DUP3 ADD SWAP1 POP DUP2 DUP2 SUB PUSH0 DUP4 ADD MSTORE PUSH2 0xDCB DUP2 PUSH2 0xD92 JUMP JUMPDEST SWAP1 POP SWAP2 SWAP1 POP JUMP JUMPDEST PUSH32 0x6F6E6C7920706C61796572000000000000000000000000000000000000000000 PUSH0 DUP3 ADD MSTORE POP JUMP JUMPDEST PUSH0 PUSH2 0xE06 PUSH1 0xB DUP4 PUSH2 0xB8D JUMP JUMPDEST SWAP2 POP PUSH2 0xE11 DUP3 PUSH2 0xDD2 JUMP JUMPDEST PUSH1 0x20 DUP3 ADD SWAP1 POP SWAP2 SWAP1 POP JUMP JUMPDEST PUSH0 PUSH1 0x20 DUP3 ADD SWAP1 POP DUP2 DUP2 SUB PUSH0 DUP4 ADD MSTORE PUSH2 0xE33 DUP2 PUSH2 0xDFA JUMP JUMPDEST SWAP1 POP SWAP2 SWAP1 POP JUMP JUMPDEST PUSH32 0x506C6179657220646F206E6F74207375626D6974000000000000000000000000 PUSH0 DUP3 ADD MSTORE POP JUMP JUMPDEST PUSH0 PUSH2 0xE6E PUSH1 0x14 DUP4 PUSH2 0xB8D JUMP JUMPDEST SWAP2 POP PUSH2 0xE79 DUP3 PUSH2 0xE3A JUMP JUMPDEST PUSH1 0x20 DUP3 ADD SWAP1 POP SWAP2 SWAP1 POP JUMP JUMPDEST PUSH0 PUSH1 0x20 DUP3 ADD SWAP1 POP DUP2 DUP2 SUB PUSH0 DUP4 ADD MSTORE PUSH2 0xE9B DUP2 PUSH2 0xE62 JUMP JUMPDEST SWAP1 POP SWAP2 SWAP1 POP JUMP JUMPDEST PUSH32 0x4F776E657220646F206E6F74207375626D697400000000000000000000000000 PUSH0 DUP3 ADD MSTORE POP JUMP JUMPDEST PUSH0 PUSH2 0xED6 PUSH1 0x13 DUP4 PUSH2 0xB8D JUMP JUMPDEST SWAP2 POP PUSH2 0xEE1 DUP3 PUSH2 0xEA2 JUMP JUMPDEST PUSH1 0x20 DUP3 ADD SWAP1 POP SWAP2 SWAP1 POP JUMP JUMPDEST PUSH0 PUSH1 0x20 DUP3 ADD SWAP1 POP DUP2 DUP2 SUB PUSH0 DUP4 ADD MSTORE PUSH2 0xF03 DUP2 PUSH2 0xECA JUMP JUMPDEST SWAP1 POP SWAP2 SWAP1 POP JUMP JUMPDEST PUSH32 0x6F6E6C79206F776E657200000000000000000000000000000000000000000000 PUSH0 DUP3 ADD MSTORE POP JUMP JUMPDEST PUSH0 PUSH2 0xF3E PUSH1 0xA DUP4 PUSH2 0xB8D JUMP JUMPDEST SWAP2 POP PUSH2 0xF49 DUP3 PUSH2 0xF0A JUMP JUMPDEST PUSH1 0x20 DUP3 ADD SWAP1 POP SWAP2 SWAP1 POP JUMP JUMPDEST PUSH0 PUSH1 0x20 DUP3 ADD SWAP1 POP DUP2 DUP2 SUB PUSH0 DUP4 ADD MSTORE PUSH2 0xF6B DUP2 PUSH2 0xF32 JUMP JUMPDEST SWAP1 POP SWAP2 SWAP1 POP JUMP JUMPDEST PUSH32 0x4F6E6C79206F776E65722063616E20636F6E6669726D00000000000000000000 PUSH0 DUP3 ADD MSTORE POP JUMP JUMPDEST PUSH0 PUSH2 0xFA6 PUSH1 0x16 DUP4 PUSH2 0xB8D JUMP JUMPDEST SWAP2 POP PUSH2 0xFB1 DUP3 PUSH2 0xF72 JUMP JUMPDEST PUSH1 0x20 DUP3 ADD SWAP1 POP SWAP2 SWAP1 POP JUMP JUMPDEST PUSH0 PUSH1 0x20 DUP3 ADD SWAP1 POP DUP2 DUP2 SUB PUSH0 DUP4 ADD MSTORE PUSH2 0xFD3 DUP2 PUSH2 0xF9A JUMP JUMPDEST SWAP1 POP SWAP2 SWAP1 POP JUMP JUMPDEST PUSH32 0x596F7520617265206E6F7420616C6C6F7720746F20636F6E6669726D2077696E PUSH0 DUP3 ADD MSTORE PUSH32 0x6E65722061742074686973207374616765000000000000000000000000000000 PUSH1 0x20 DUP3 ADD MSTORE POP JUMP JUMPDEST PUSH0 PUSH2 0x1034 PUSH1 0x31 DUP4 PUSH2 0xB8D JUMP JUMPDEST SWAP2 POP PUSH2 0x103F DUP3 PUSH2 0xFDA JUMP JUMPDEST PUSH1 0x40 DUP3 ADD SWAP1 POP SWAP2 SWAP1 POP JUMP JUMPDEST PUSH0 PUSH1 0x20 DUP3 ADD SWAP1 POP DUP2 DUP2 SUB PUSH0 DUP4 ADD MSTORE PUSH2 0x1061 DUP2 PUSH2 0x1028 JUMP JUMPDEST SWAP1 POP SWAP2 SWAP1 POP JUMP JUMPDEST PUSH32 0x4F6E6C7920706C617965722063616E20636F6E6669726D000000000000000000 PUSH0 DUP3 ADD MSTORE POP JUMP JUMPDEST PUSH0 PUSH2 0x109C PUSH1 0x17 DUP4 PUSH2 0xB8D JUMP JUMPDEST SWAP2 POP PUSH2 0x10A7 DUP3 PUSH2 0x1068 JUMP JUMPDEST PUSH1 0x20 DUP3 ADD SWAP1 POP SWAP2 SWAP1 POP JUMP JUMPDEST PUSH0 PUSH1 0x20 DUP3 ADD SWAP1 POP DUP2 DUP2 SUB PUSH0 DUP4 ADD MSTORE PUSH2 0x10C9 DUP2 PUSH2 0x1090 JUMP JUMPDEST SWAP1 POP SWAP2 SWAP1 POP JUMP JUMPDEST PUSH32 0x4E487B7100000000000000000000000000000000000000000000000000000000 PUSH0 MSTORE PUSH1 0x11 PUSH1 0x4 MSTORE PUSH1 0x24 PUSH0 REVERT JUMPDEST PUSH0 PUSH2 0x1107 DUP3 PUSH2 0xAA5 JUMP JUMPDEST SWAP2 POP PUSH2 0x1112 DUP4 PUSH2 0xAA5 JUMP JUMPDEST SWAP3 POP DUP3 DUP3 ADD SWAP1 POP DUP1 DUP3 GT ISZERO PUSH2 0x112A JUMPI PUSH2 0x1129 PUSH2 0x10D0 JUMP JUMPDEST JUMPDEST SWAP3 SWAP2 POP POP JUMP JUMPDEST PUSH32 0x4E487B7100000000000000000000000000000000000000000000000000000000 PUSH0 MSTORE PUSH1 0x12 PUSH1 0x4 MSTORE PUSH1 0x24 PUSH0 REVERT JUMPDEST PUSH0 PUSH2 0x1167 DUP3 PUSH2 0xAA5 JUMP JUMPDEST SWAP2 POP PUSH2 0x1172 DUP4 PUSH2 0xAA5 JUMP JUMPDEST SWAP3 POP DUP3 PUSH2 0x1182 JUMPI PUSH2 0x1181 PUSH2 0x1130 JUMP JUMPDEST JUMPDEST DUP3 DUP3 MOD SWAP1 POP SWAP3 SWAP2 POP POP JUMP INVALID POP PUSH13 0x617965722077696E2C20706C65 PUSH2 0x7365 KECCAK256 PUSH4 0x6F6E6669 PUSH19 0x6D20796F7520617265207468652057696E6E65 PUSH19 0x20616E642067657420726577617264214F776E PUSH6 0x722077696E2C KECCAK256 PUSH17 0x6C6561736520636F6E6669726D20796F75 KECCAK256 PUSH2 0x7265 KECCAK256 PUSH21 0x68652057696E6E657220616E642067657420726577 PUSH2 0x7264 0x21 LOG2 PUSH5 0x6970667358 0x22 SLT KECCAK256 0xD0 SWAP1 EXTSTATICCALL PUSH14 0x8ED40398ACCDB8B31E43047EF769 SLT ADDRESS LT 0xC4 LOG3 0xC7 PUSH16 0xE9790ABDAA60E664736F6C6343000822 STOP CALLER "
				},
				"gasEstimates": {
					"creation": {
						"codeDepositCost": "933600",
						"executionCost": "25230",
						"totalCost": "958830"
					},
					"external": {
						"confirmWinner()": "infinite",
						"gameResult()": "infinite",
						"owner()": "2529",
						"ownerSubmit(uint256)": "infinite",
						"ownerViewAns()": "4666",
						"player()": "2531",
						"playerSubmit(uint256)": "infinite",
						"playerViewAns()": "4646"
					},
					"internal": {
						"calculateGameResult()": "infinite"
					}
				},
				"methodIdentifiers": {
					"confirmWinner()": "d55c9c84",
					"gameResult()": "7152f800",
					"owner()": "8da5cb5b",
					"ownerSubmit(uint256)": "7ad596f3",
					"ownerViewAns()": "d79830cf",
					"player()": "48db5f89",
					"playerSubmit(uint256)": "24ccd2d1",
					"playerViewAns()": "5f582011"
				}
			},
			"storageLayout": {
				"storage": [
					{
						"astId": 3,
						"contract": "stage2.sol:Game",
						"label": "owner",
						"offset": 0,
						"slot": "0",
						"type": "t_address"
					},
					{
						"astId": 5,
						"contract": "stage2.sol:Game",
						"label": "player",
						"offset": 0,
						"slot": "1",
						"type": "t_address"
					},
					{
						"astId": 7,
						"contract": "stage2.sol:Game",
						"label": "ownerAns",
						"offset": 0,
						"slot": "2",
						"type": "t_uint256"
					},
					{
						"astId": 9,
						"contract": "stage2.sol:Game",
						"label": "playerAns",
						"offset": 0,
						"slot": "3",
						"type": "t_uint256"
					},
					{
						"astId": 16,
						"contract": "stage2.sol:Game",
						"label": "playerStatus",
						"offset": 0,
						"slot": "4",
						"type": "t_enum(Status)13"
					},
					{
						"astId": 19,
						"contract": "stage2.sol:Game",
						"label": "ownerStatus",
						"offset": 1,
						"slot": "4",
						"type": "t_enum(Status)13"
					}
				],
				"types": {
					"t_address": {
						"encoding": "inplace",
						"label": "address",
						"numberOfBytes": "20"
					},
					"t_enum(Status)13": {
						"encoding": "inplace",
						"label": "enum Game.Status",
						"numberOfBytes": "1"
					},
					"t_uint256": {
						"encoding": "inplace",
						"label": "uint256",
						"numberOfBytes": "32"
					}
				}
			},
			"userdoc": {
				"kind": "user",
				"methods": {},
				"version": 1
			}
		}
	}
}