{
	"Game.sol": {
		"Game": {
			"abi": [
				{
					"inputs": [],
					"stateMutability": "nonpayable",
					"type": "constructor"
				},
				{
					"inputs": [],
					"name": "betAmount",
					"outputs": [
						{
							"internalType": "uint256",
							"name": "",
							"type": "uint256"
						}
					],
					"stateMutability": "view",
					"type": "function"
				},
				{
					"inputs": [],
					"name": "confirmWinner",
					"outputs": [],
					"stateMutability": "payable",
					"type": "function"
				},
				{
					"inputs": [],
					"name": "gameResult",
					"outputs": [
						{
							"internalType": "uint256",
							"name": "",
							"type": "uint256"
						},
						{
							"internalType": "string",
							"name": "",
							"type": "string"
						}
					],
					"stateMutability": "view",
					"type": "function"
				},
				{
					"inputs": [],
					"name": "owner",
					"outputs": [
						{
							"internalType": "address",
							"name": "",
							"type": "address"
						}
					],
					"stateMutability": "view",
					"type": "function"
				},
				{
					"inputs": [
						{
							"internalType": "uint256",
							"name": "_ownerPW_Confirm",
							"type": "uint256"
						}
					],
					"name": "ownerReveal",
					"outputs": [
						{
							"internalType": "bool",
							"name": "",
							"type": "bool"
						},
						{
							"internalType": "string",
							"name": "",
							"type": "string"
						}
					],
					"stateMutability": "nonpayable",
					"type": "function"
				},
				{
					"inputs": [
						{
							"internalType": "uint256",
							"name": "_ownerAns",
							"type": "uint256"
						},
						{
							"internalType": "uint256",
							"name": "_ownerPW",
							"type": "uint256"
						}
					],
					"name": "ownerSubmit",
					"outputs": [
						{
							"internalType": "uint256",
							"name": "",
							"type": "uint256"
						}
					],
					"stateMutability": "payable",
					"type": "function"
				},
				{
					"inputs": [],
					"name": "ownerViewAns",
					"outputs": [
						{
							"internalType": "uint256",
							"name": "",
							"type": "uint256"
						}
					],
					"stateMutability": "view",
					"type": "function"
				},
				{
					"inputs": [],
					"name": "player",
					"outputs": [
						{
							"internalType": "address",
							"name": "",
							"type": "address"
						}
					],
					"stateMutability": "view",
					"type": "function"
				},
				{
					"inputs": [
						{
							"internalType": "uint256",
							"name": "_playerPW_Confirm",
							"type": "uint256"
						}
					],
					"name": "playerReveal",
					"outputs": [
						{
							"internalType": "bool",
							"name": "",
							"type": "bool"
						},
						{
							"internalType": "string",
							"name": "",
							"type": "string"
						}
					],
					"stateMutability": "nonpayable",
					"type": "function"
				},
				{
					"inputs": [
						{
							"internalType": "uint256",
							"name": "_playerAns",
							"type": "uint256"
						},
						{
							"internalType": "uint256",
							"name": "_playerPW",
							"type": "uint256"
						}
					],
					"name": "playerSubmit",
					"outputs": [
						{
							"internalType": "uint256",
							"name": "",
							"type": "uint256"
						}
					],
					"stateMutability": "payable",
					"type": "function"
				},
				{
					"inputs": [],
					"name": "playerViewAns",
					"outputs": [
						{
							"internalType": "uint256",
							"name": "",
							"type": "uint256"
						}
					],
					"stateMutability": "view",
					"type": "function"
				},
				{
					"inputs": [],
					"name": "rewardTokenAmount",
					"outputs": [
						{
							"internalType": "uint256",
							"name": "",
							"type": "uint256"
						}
					],
					"stateMutability": "view",
					"type": "function"
				},
				{
					"inputs": [],
					"name": "winnerReward",
					"outputs": [
						{
							"internalType": "uint256",
							"name": "",
							"type": "uint256"
						}
					],
					"stateMutability": "view",
					"type": "function"
				}
			],
			"devdoc": {
				"kind": "dev",
				"methods": {},
				"version": 1
			},
			"evm": {
				"assembly": "    /* \"Game.sol\":3349:9217  contract Game{... */\n  mstore(0x40, 0x80)\n    /* \"Game.sol\":3858:3868  0.03 ether */\n  0x6a94d74f430000\n    /* \"Game.sol\":3831:3868  uint256 public betAmount = 0.03 ether */\n  0x09\n  sstore\n    /* \"Game.sol\":3910:3913  100 */\n  0x64\n    /* \"Game.sol\":3875:3913  uint256 public rewardTokenAmount = 100 */\n  0x0a\n  sstore\n    /* \"Game.sol\":3950:3960  0.05 ether */\n  0xb1a2bc2ec50000\n    /* \"Game.sol\":3920:3960  uint256 public winnerReward = 0.05 ether */\n  0x0b\n  sstore\n    /* \"Game.sol\":3998:4049  constructor() {... */\n  callvalue\n  dup1\n  iszero\n  tag_1\n  jumpi\n  revert(0x00, 0x00)\ntag_1:\n  pop\n    /* \"Game.sol\":4031:4041  msg.sender */\n  caller\n    /* \"Game.sol\":4023:4028  owner */\n  0x00\n  0x00\n    /* \"Game.sol\":4023:4041  owner = msg.sender */\n  0x0100\n  exp\n  dup2\n  sload\n  dup2\n  0xffffffffffffffffffffffffffffffffffffffff\n  mul\n  not\n  and\n  swap1\n  dup4\n  0xffffffffffffffffffffffffffffffffffffffff\n  and\n  mul\n  or\n  swap1\n  sstore\n  pop\n    /* \"Game.sol\":3349:9217  contract Game{... */\n  dataSize(sub_0)\n  dup1\n  dataOffset(sub_0)\n  0x00\n  codecopy\n  0x00\n  return\nstop\n\nsub_0: assembly {\n        /* \"Game.sol\":3349:9217  contract Game{... */\n      mstore(0x40, 0x80)\n      jumpi(tag_1, lt(calldatasize, 0x04))\n      shr(0xe0, calldataload(0x00))\n      dup1\n      0x8f693d9e\n      gt\n      tag_15\n      jumpi\n      dup1\n      0xd3e8237d\n      gt\n      tag_16\n      jumpi\n      dup1\n      0xd3e8237d\n      eq\n      tag_11\n      jumpi\n      dup1\n      0xd55c9c84\n      eq\n      tag_12\n      jumpi\n      dup1\n      0xd79830cf\n      eq\n      tag_13\n      jumpi\n      dup1\n      0xff2364b5\n      eq\n      tag_14\n      jumpi\n      jump(tag_1)\n    tag_16:\n      dup1\n      0x8f693d9e\n      eq\n      tag_8\n      jumpi\n      dup1\n      0xb9705a03\n      eq\n      tag_9\n      jumpi\n      dup1\n      0xd24257c0\n      eq\n      tag_10\n      jumpi\n      jump(tag_1)\n    tag_15:\n      dup1\n      0x3a902846\n      eq\n      tag_2\n      jumpi\n      dup1\n      0x48db5f89\n      eq\n      tag_3\n      jumpi\n      dup1\n      0x528654d7\n      eq\n      tag_4\n      jumpi\n      dup1\n      0x5f582011\n      eq\n      tag_5\n      jumpi\n      dup1\n      0x7152f800\n      eq\n      tag_6\n      jumpi\n      dup1\n      0x8da5cb5b\n      eq\n      tag_7\n      jumpi\n    tag_1:\n      revert(0x00, 0x00)\n        /* \"Game.sol\":4759:5386  function ownerSubmit(uint256 _ownerAns, uint256 _ownerPW) public payable returns (uint256) {... */\n    tag_2:\n      tag_17\n      0x04\n      dup1\n      calldatasize\n      sub\n      dup2\n      add\n      swap1\n      tag_18\n      swap2\n      swap1\n      tag_19\n      jump\t// in\n    tag_18:\n      tag_20\n      jump\t// in\n    tag_17:\n      mload(0x40)\n      tag_21\n      swap2\n      swap1\n      tag_22\n      jump\t// in\n    tag_21:\n      mload(0x40)\n      dup1\n      swap2\n      sub\n      swap1\n      return\n        /* \"Game.sol\":3520:3541  address public player */\n    tag_3:\n      callvalue\n      dup1\n      iszero\n      tag_23\n      jumpi\n      revert(0x00, 0x00)\n    tag_23:\n      pop\n      tag_24\n      tag_25\n      jump\t// in\n    tag_24:\n      mload(0x40)\n      tag_26\n      swap2\n      swap1\n      tag_27\n      jump\t// in\n    tag_26:\n      mload(0x40)\n      dup1\n      swap2\n      sub\n      swap1\n      return\n        /* \"Game.sol\":6167:6605  function ownerReveal(uint256 _ownerPW_Confirm) public returns (bool, string memory){... */\n    tag_4:\n      callvalue\n      dup1\n      iszero\n      tag_28\n      jumpi\n      revert(0x00, 0x00)\n    tag_28:\n      pop\n      tag_29\n      0x04\n      dup1\n      calldatasize\n      sub\n      dup2\n      add\n      swap1\n      tag_30\n      swap2\n      swap1\n      tag_31\n      jump\t// in\n    tag_30:\n      tag_32\n      jump\t// in\n    tag_29:\n      mload(0x40)\n      tag_33\n      swap3\n      swap2\n      swap1\n      tag_34\n      jump\t// in\n    tag_33:\n      mload(0x40)\n      dup1\n      swap2\n      sub\n      swap1\n      return\n        /* \"Game.sol\":7097:7260  function playerViewAns() public view returns(uint256){... */\n    tag_5:\n      callvalue\n      dup1\n      iszero\n      tag_35\n      jumpi\n      revert(0x00, 0x00)\n    tag_35:\n      pop\n      tag_36\n      tag_37\n      jump\t// in\n    tag_36:\n      mload(0x40)\n      tag_38\n      swap2\n      swap1\n      tag_22\n      jump\t// in\n    tag_38:\n      mload(0x40)\n      dup1\n      swap2\n      sub\n      swap1\n      return\n        /* \"Game.sol\":7643:8158  function gameResult() public view returns(uint256, string memory){... */\n    tag_6:\n      callvalue\n      dup1\n      iszero\n      tag_39\n      jumpi\n      revert(0x00, 0x00)\n    tag_39:\n      pop\n      tag_40\n      tag_41\n      jump\t// in\n    tag_40:\n      mload(0x40)\n      tag_42\n      swap3\n      swap2\n      swap1\n      tag_43\n      jump\t// in\n    tag_42:\n      mload(0x40)\n      dup1\n      swap2\n      sub\n      swap1\n      return\n        /* \"Game.sol\":3384:3404  address public owner */\n    tag_7:\n      callvalue\n      dup1\n      iszero\n      tag_44\n      jumpi\n      revert(0x00, 0x00)\n    tag_44:\n      pop\n      tag_45\n      tag_46\n      jump\t// in\n    tag_45:\n      mload(0x40)\n      tag_47\n      swap2\n      swap1\n      tag_27\n      jump\t// in\n    tag_47:\n      mload(0x40)\n      dup1\n      swap2\n      sub\n      swap1\n      return\n        /* \"Game.sol\":5394:6090  function playerSubmit(uint256 _playerAns, uint256 _playerPW) public payable returns (uint256) {... */\n    tag_8:\n      tag_48\n      0x04\n      dup1\n      calldatasize\n      sub\n      dup2\n      add\n      swap1\n      tag_49\n      swap2\n      swap1\n      tag_19\n      jump\t// in\n    tag_49:\n      tag_50\n      jump\t// in\n    tag_48:\n      mload(0x40)\n      tag_51\n      swap2\n      swap1\n      tag_22\n      jump\t// in\n    tag_51:\n      mload(0x40)\n      dup1\n      swap2\n      sub\n      swap1\n      return\n        /* \"Game.sol\":3920:3960  uint256 public winnerReward = 0.05 ether */\n    tag_9:\n      callvalue\n      dup1\n      iszero\n      tag_52\n      jumpi\n      revert(0x00, 0x00)\n    tag_52:\n      pop\n      tag_53\n      tag_54\n      jump\t// in\n    tag_53:\n      mload(0x40)\n      tag_55\n      swap2\n      swap1\n      tag_22\n      jump\t// in\n    tag_55:\n      mload(0x40)\n      dup1\n      swap2\n      sub\n      swap1\n      return\n        /* \"Game.sol\":3831:3868  uint256 public betAmount = 0.03 ether */\n    tag_10:\n      callvalue\n      dup1\n      iszero\n      tag_56\n      jumpi\n      revert(0x00, 0x00)\n    tag_56:\n      pop\n      tag_57\n      tag_58\n      jump\t// in\n    tag_57:\n      mload(0x40)\n      tag_59\n      swap2\n      swap1\n      tag_22\n      jump\t// in\n    tag_59:\n      mload(0x40)\n      dup1\n      swap2\n      sub\n      swap1\n      return\n        /* \"Game.sol\":3875:3913  uint256 public rewardTokenAmount = 100 */\n    tag_11:\n      callvalue\n      dup1\n      iszero\n      tag_60\n      jumpi\n      revert(0x00, 0x00)\n    tag_60:\n      pop\n      tag_61\n      tag_62\n      jump\t// in\n    tag_61:\n      mload(0x40)\n      tag_63\n      swap2\n      swap1\n      tag_22\n      jump\t// in\n    tag_63:\n      mload(0x40)\n      dup1\n      swap2\n      sub\n      swap1\n      return\n        /* \"Game.sol\":8301:9212  function confirmWinner() public payable{... */\n    tag_12:\n      tag_64\n      tag_65\n      jump\t// in\n    tag_64:\n      stop\n        /* \"Game.sol\":7268:7429  function ownerViewAns() public view returns (uint256) {... */\n    tag_13:\n      callvalue\n      dup1\n      iszero\n      tag_66\n      jumpi\n      revert(0x00, 0x00)\n    tag_66:\n      pop\n      tag_67\n      tag_68\n      jump\t// in\n    tag_67:\n      mload(0x40)\n      tag_69\n      swap2\n      swap1\n      tag_22\n      jump\t// in\n    tag_69:\n      mload(0x40)\n      dup1\n      swap2\n      sub\n      swap1\n      return\n        /* \"Game.sol\":6613:7061  function playerReveal(uint256 _playerPW_Confirm) public returns (bool, string memory){... */\n    tag_14:\n      callvalue\n      dup1\n      iszero\n      tag_70\n      jumpi\n      revert(0x00, 0x00)\n    tag_70:\n      pop\n      tag_71\n      0x04\n      dup1\n      calldatasize\n      sub\n      dup2\n      add\n      swap1\n      tag_72\n      swap2\n      swap1\n      tag_31\n      jump\t// in\n    tag_72:\n      tag_73\n      jump\t// in\n    tag_71:\n      mload(0x40)\n      tag_74\n      swap3\n      swap2\n      swap1\n      tag_34\n      jump\t// in\n    tag_74:\n      mload(0x40)\n      dup1\n      swap2\n      sub\n      swap1\n      return\n        /* \"Game.sol\":4759:5386  function ownerSubmit(uint256 _ownerAns, uint256 _ownerPW) public payable returns (uint256) {... */\n    tag_20:\n        /* \"Game.sol\":4841:4848  uint256 */\n      0x00\n        /* \"Game.sol\":4883:4888  owner */\n      0x00\n      0x00\n      swap1\n      sload\n      swap1\n      0x0100\n      exp\n      swap1\n      div\n      0xffffffffffffffffffffffffffffffffffffffff\n      and\n        /* \"Game.sol\":4869:4888  msg.sender == owner */\n      0xffffffffffffffffffffffffffffffffffffffff\n      and\n        /* \"Game.sol\":4869:4879  msg.sender */\n      caller\n        /* \"Game.sol\":4869:4888  msg.sender == owner */\n      0xffffffffffffffffffffffffffffffffffffffff\n      and\n      eq\n        /* \"Game.sol\":4861:4903  require(msg.sender == owner, \"only owner\") */\n      tag_76\n      jumpi\n      mload(0x40)\n      0x08c379a000000000000000000000000000000000000000000000000000000000\n      dup2\n      mstore\n      0x04\n      add\n      tag_77\n      swap1\n      tag_78\n      jump\t// in\n    tag_77:\n      mload(0x40)\n      dup1\n      swap2\n      sub\n      swap1\n      revert\n    tag_76:\n        /* \"Game.sol\":4936:4952  Status.Submitted */\n      0x01\n        /* \"Game.sol\":4922:4952  ownerStatus!= Status.Submitted */\n      0x03\n      dup2\n      gt\n      iszero\n      tag_79\n      jumpi\n      tag_80\n      tag_81\n      jump\t// in\n    tag_80:\n    tag_79:\n        /* \"Game.sol\":4922:4933  ownerStatus */\n      0x08\n      0x01\n      swap1\n      sload\n      swap1\n      0x0100\n      exp\n      swap1\n      div\n      0xff\n      and\n        /* \"Game.sol\":4922:4952  ownerStatus!= Status.Submitted */\n      0x03\n      dup2\n      gt\n      iszero\n      tag_82\n      jumpi\n      tag_83\n      tag_81\n      jump\t// in\n    tag_83:\n    tag_82:\n      sub\n        /* \"Game.sol\":4914:4983  require(ownerStatus!= Status.Submitted, \"You have already submitted\") */\n      tag_84\n      jumpi\n      mload(0x40)\n      0x08c379a000000000000000000000000000000000000000000000000000000000\n      dup2\n      mstore\n      0x04\n      add\n      tag_85\n      swap1\n      tag_86\n      jump\t// in\n    tag_85:\n      mload(0x40)\n      dup1\n      swap2\n      sub\n      swap1\n      revert\n    tag_84:\n        /* \"Game.sol\":5016:5029  Status.Winner */\n      0x03\n        /* \"Game.sol\":5002:5029  ownerStatus!= Status.Winner */\n      dup1\n      dup2\n      gt\n      iszero\n      tag_87\n      jumpi\n      tag_88\n      tag_81\n      jump\t// in\n    tag_88:\n    tag_87:\n        /* \"Game.sol\":5002:5013  ownerStatus */\n      0x08\n      0x01\n      swap1\n      sload\n      swap1\n      0x0100\n      exp\n      swap1\n      div\n      0xff\n      and\n        /* \"Game.sol\":5002:5029  ownerStatus!= Status.Winner */\n      0x03\n      dup2\n      gt\n      iszero\n      tag_89\n      jumpi\n      tag_90\n      tag_81\n      jump\t// in\n    tag_90:\n    tag_89:\n      sub\n        /* \"Game.sol\":4994:5083  require(ownerStatus!= Status.Winner, \"The game is finish, new submission is not allowed\") */\n      tag_91\n      jumpi\n      mload(0x40)\n      0x08c379a000000000000000000000000000000000000000000000000000000000\n      dup2\n      mstore\n      0x04\n      add\n      tag_92\n      swap1\n      tag_93\n      jump\t// in\n    tag_92:\n      mload(0x40)\n      dup1\n      swap2\n      sub\n      swap1\n      revert\n    tag_91:\n        /* \"Game.sol\":5115:5124  betAmount */\n      sload(0x09)\n        /* \"Game.sol\":5102:5111  msg.value */\n      callvalue\n        /* \"Game.sol\":5102:5124  msg.value == betAmount */\n      eq\n        /* \"Game.sol\":5094:5168  require(msg.value == betAmount, \"You must send exactly 0.02 ether to bet\") */\n      tag_94\n      jumpi\n      mload(0x40)\n      0x08c379a000000000000000000000000000000000000000000000000000000000\n      dup2\n      mstore\n      0x04\n      add\n      tag_95\n      swap1\n      tag_96\n      jump\t// in\n    tag_95:\n      mload(0x40)\n      dup1\n      swap2\n      sub\n      swap1\n      revert\n    tag_94:\n        /* \"Game.sol\":5189:5198  msg.value */\n      callvalue\n        /* \"Game.sol\":5181:5185  pool */\n      0x0c\n      0x00\n        /* \"Game.sol\":5181:5198  pool += msg.value */\n      dup3\n      dup3\n      sload\n      tag_97\n      swap2\n      swap1\n      tag_98\n      jump\t// in\n    tag_97:\n      swap3\n      pop\n      pop\n      dup2\n      swap1\n      sstore\n      pop\n        /* \"Game.sol\":5220:5229  _ownerAns */\n      dup3\n        /* \"Game.sol\":5209:5217  ownerAns */\n      0x01\n        /* \"Game.sol\":5209:5229  ownerAns = _ownerAns */\n      dup2\n      swap1\n      sstore\n      pop\n        /* \"Game.sol\":5250:5258  _ownerPW */\n      dup2\n        /* \"Game.sol\":5240:5247  ownerPW */\n      0x02\n        /* \"Game.sol\":5240:5258  ownerPW = _ownerPW */\n      dup2\n      swap1\n      sstore\n      pop\n        /* \"Game.sol\":5281:5311  ownerHashing(ownerAns,ownerPW) */\n      tag_99\n        /* \"Game.sol\":5294:5302  ownerAns */\n      sload(0x01)\n        /* \"Game.sol\":5303:5310  ownerPW */\n      sload(0x02)\n        /* \"Game.sol\":5281:5293  ownerHashing */\n      tag_100\n        /* \"Game.sol\":5281:5311  ownerHashing(ownerAns,ownerPW) */\n      jump\t// in\n    tag_99:\n        /* \"Game.sol\":5269:5278  ownerHash */\n      0x03\n        /* \"Game.sol\":5269:5311  ownerHash = ownerHashing(ownerAns,ownerPW) */\n      dup2\n      swap1\n      sstore\n      pop\n        /* \"Game.sol\":5336:5352  Status.Submitted */\n      0x01\n        /* \"Game.sol\":5322:5333  ownerStatus */\n      0x08\n      0x01\n        /* \"Game.sol\":5322:5352  ownerStatus = Status.Submitted */\n      0x0100\n      exp\n      dup2\n      sload\n      dup2\n      0xff\n      mul\n      not\n      and\n      swap1\n      dup4\n      0x03\n      dup2\n      gt\n      iszero\n      tag_101\n      jumpi\n      tag_102\n      tag_81\n      jump\t// in\n    tag_102:\n    tag_101:\n      mul\n      or\n      swap1\n      sstore\n      pop\n        /* \"Game.sol\":5370:5378  ownerAns */\n      sload(0x01)\n        /* \"Game.sol\":5363:5378  return ownerAns */\n      swap1\n      pop\n        /* \"Game.sol\":4759:5386  function ownerSubmit(uint256 _ownerAns, uint256 _ownerPW) public payable returns (uint256) {... */\n      swap3\n      swap2\n      pop\n      pop\n      jump\t// out\n        /* \"Game.sol\":3520:3541  address public player */\n    tag_25:\n      0x04\n      0x00\n      swap1\n      sload\n      swap1\n      0x0100\n      exp\n      swap1\n      div\n      0xffffffffffffffffffffffffffffffffffffffff\n      and\n      dup2\n      jump\t// out\n        /* \"Game.sol\":6167:6605  function ownerReveal(uint256 _ownerPW_Confirm) public returns (bool, string memory){... */\n    tag_32:\n        /* \"Game.sol\":6230:6234  bool */\n      0x00\n        /* \"Game.sol\":6236:6249  string memory */\n      0x60\n        /* \"Game.sol\":6283:6288  owner */\n      0x00\n      0x00\n      swap1\n      sload\n      swap1\n      0x0100\n      exp\n      swap1\n      div\n      0xffffffffffffffffffffffffffffffffffffffff\n      and\n        /* \"Game.sol\":6269:6288  msg.sender == owner */\n      0xffffffffffffffffffffffffffffffffffffffff\n      and\n        /* \"Game.sol\":6269:6279  msg.sender */\n      caller\n        /* \"Game.sol\":6269:6288  msg.sender == owner */\n      0xffffffffffffffffffffffffffffffffffffffff\n      and\n      eq\n        /* \"Game.sol\":6261:6323  require(msg.sender == owner, \"Only owner can submit Password\") */\n      tag_104\n      jumpi\n      mload(0x40)\n      0x08c379a000000000000000000000000000000000000000000000000000000000\n      dup2\n      mstore\n      0x04\n      add\n      tag_105\n      swap1\n      tag_106\n      jump\t// in\n    tag_105:\n      mload(0x40)\n      dup1\n      swap2\n      sub\n      swap1\n      revert\n    tag_104:\n        /* \"Game.sol\":6334:6356  bytes32 checkOwnerHash */\n      0x00\n        /* \"Game.sol\":6386:6394  ownerAns */\n      sload(0x01)\n        /* \"Game.sol\":6396:6412  _ownerPW_Confirm */\n      dup5\n        /* \"Game.sol\":6369:6413  abi.encodePacked(ownerAns, _ownerPW_Confirm) */\n      add(0x20, mload(0x40))\n      tag_107\n      swap3\n      swap2\n      swap1\n      tag_108\n      jump\t// in\n    tag_107:\n      mload(0x40)\n      0x20\n      dup2\n      dup4\n      sub\n      sub\n      dup2\n      mstore\n      swap1\n      0x40\n      mstore\n        /* \"Game.sol\":6359:6414  keccak256(abi.encodePacked(ownerAns, _ownerPW_Confirm)) */\n      dup1\n      mload\n      swap1\n      0x20\n      add\n      keccak256\n        /* \"Game.sol\":6334:6414  bytes32 checkOwnerHash = keccak256(abi.encodePacked(ownerAns, _ownerPW_Confirm)) */\n      swap1\n      pop\n        /* \"Game.sol\":6451:6460  ownerHash */\n      sload(0x03)\n        /* \"Game.sol\":6433:6447  checkOwnerHash */\n      dup2\n        /* \"Game.sol\":6433:6460  checkOwnerHash == ownerHash */\n      eq\n        /* \"Game.sol\":6425:6511  require(checkOwnerHash == ownerHash, \"The Password is not correct, Please try again.\") */\n      tag_109\n      jumpi\n      mload(0x40)\n      0x08c379a000000000000000000000000000000000000000000000000000000000\n      dup2\n      mstore\n      0x04\n      add\n      tag_110\n      swap1\n      tag_111\n      jump\t// in\n    tag_110:\n      mload(0x40)\n      dup1\n      swap2\n      sub\n      swap1\n      revert\n    tag_109:\n        /* \"Game.sol\":6540:6556  Status.Confirmed */\n      0x02\n        /* \"Game.sol\":6526:6537  ownerStatus */\n      0x08\n      0x01\n        /* \"Game.sol\":6526:6556  ownerStatus = Status.Confirmed */\n      0x0100\n      exp\n      dup2\n      sload\n      dup2\n      0xff\n      mul\n      not\n      and\n      swap1\n      dup4\n      0x03\n      dup2\n      gt\n      iszero\n      tag_112\n      jumpi\n      tag_113\n      tag_81\n      jump\t// in\n    tag_113:\n    tag_112:\n      mul\n      or\n      swap1\n      sstore\n      pop\n        /* \"Game.sol\":6579:6583  true */\n      0x01\n        /* \"Game.sol\":6571:6597  return (true, \"Confirmed\") */\n      mload(0x40)\n      dup1\n      0x40\n      add\n      0x40\n      mstore\n      dup1\n      0x09\n      dup2\n      mstore\n      0x20\n      add\n      0x436f6e6669726d65640000000000000000000000000000000000000000000000\n      dup2\n      mstore\n      pop\n      swap3\n      pop\n      swap3\n      pop\n      pop\n        /* \"Game.sol\":6167:6605  function ownerReveal(uint256 _ownerPW_Confirm) public returns (bool, string memory){... */\n      swap2\n      pop\n      swap2\n      jump\t// out\n        /* \"Game.sol\":7097:7260  function playerViewAns() public view returns(uint256){... */\n    tag_37:\n        /* \"Game.sol\":7142:7149  uint256 */\n      0x00\n        /* \"Game.sol\":7183:7189  player */\n      0x04\n      0x00\n      swap1\n      sload\n      swap1\n      0x0100\n      exp\n      swap1\n      div\n      0xffffffffffffffffffffffffffffffffffffffff\n      and\n        /* \"Game.sol\":7169:7189  msg.sender == player */\n      0xffffffffffffffffffffffffffffffffffffffff\n      and\n        /* \"Game.sol\":7169:7179  msg.sender */\n      caller\n        /* \"Game.sol\":7169:7189  msg.sender == player */\n      0xffffffffffffffffffffffffffffffffffffffff\n      and\n      eq\n        /* \"Game.sol\":7161:7225  require(msg.sender == player, \"only player can view the answer\") */\n      tag_115\n      jumpi\n      mload(0x40)\n      0x08c379a000000000000000000000000000000000000000000000000000000000\n      dup2\n      mstore\n      0x04\n      add\n      tag_116\n      swap1\n      tag_117\n      jump\t// in\n    tag_116:\n      mload(0x40)\n      dup1\n      swap2\n      sub\n      swap1\n      revert\n    tag_115:\n        /* \"Game.sol\":7243:7252  playerAns */\n      sload(0x05)\n        /* \"Game.sol\":7236:7252  return playerAns */\n      swap1\n      pop\n        /* \"Game.sol\":7097:7260  function playerViewAns() public view returns(uint256){... */\n      swap1\n      jump\t// out\n        /* \"Game.sol\":7643:8158  function gameResult() public view returns(uint256, string memory){... */\n    tag_41:\n        /* \"Game.sol\":7685:7692  uint256 */\n      0x00\n        /* \"Game.sol\":7694:7707  string memory */\n      0x60\n        /* \"Game.sol\":7743:7759  Status.Confirmed */\n      0x02\n        /* \"Game.sol\":7727:7759  playerStatus == Status.Confirmed */\n      0x03\n      dup2\n      gt\n      iszero\n      tag_119\n      jumpi\n      tag_120\n      tag_81\n      jump\t// in\n    tag_120:\n    tag_119:\n        /* \"Game.sol\":7727:7739  playerStatus */\n      0x08\n      0x00\n      swap1\n      sload\n      swap1\n      0x0100\n      exp\n      swap1\n      div\n      0xff\n      and\n        /* \"Game.sol\":7727:7759  playerStatus == Status.Confirmed */\n      0x03\n      dup2\n      gt\n      iszero\n      tag_121\n      jumpi\n      tag_122\n      tag_81\n      jump\t// in\n    tag_122:\n    tag_121:\n      eq\n        /* \"Game.sol\":7719:7784  require(playerStatus == Status.Confirmed, \"Player do not reveal\") */\n      tag_123\n      jumpi\n      mload(0x40)\n      0x08c379a000000000000000000000000000000000000000000000000000000000\n      dup2\n      mstore\n      0x04\n      add\n      tag_124\n      swap1\n      tag_125\n      jump\t// in\n    tag_124:\n      mload(0x40)\n      dup1\n      swap2\n      sub\n      swap1\n      revert\n    tag_123:\n        /* \"Game.sol\":7818:7834  Status.Confirmed */\n      0x02\n        /* \"Game.sol\":7803:7834  ownerStatus == Status.Confirmed */\n      0x03\n      dup2\n      gt\n      iszero\n      tag_126\n      jumpi\n      tag_127\n      tag_81\n      jump\t// in\n    tag_127:\n    tag_126:\n        /* \"Game.sol\":7803:7814  ownerStatus */\n      0x08\n      0x01\n      swap1\n      sload\n      swap1\n      0x0100\n      exp\n      swap1\n      div\n      0xff\n      and\n        /* \"Game.sol\":7803:7834  ownerStatus == Status.Confirmed */\n      0x03\n      dup2\n      gt\n      iszero\n      tag_128\n      jumpi\n      tag_129\n      tag_81\n      jump\t// in\n    tag_129:\n    tag_128:\n      eq\n        /* \"Game.sol\":7795:7858  require(ownerStatus == Status.Confirmed, \"Owner do not reveal\") */\n      tag_130\n      jumpi\n      mload(0x40)\n      0x08c379a000000000000000000000000000000000000000000000000000000000\n      dup2\n      mstore\n      0x04\n      add\n      tag_131\n      swap1\n      tag_132\n      jump\t// in\n    tag_131:\n      mload(0x40)\n      dup1\n      swap2\n      sub\n      swap1\n      revert\n    tag_130:\n        /* \"Game.sol\":7869:7883  uint256 result */\n      0x00\n        /* \"Game.sol\":7886:7907  calculateGameResult() */\n      tag_133\n        /* \"Game.sol\":7886:7905  calculateGameResult */\n      tag_134\n        /* \"Game.sol\":7886:7907  calculateGameResult() */\n      jump\t// in\n    tag_133:\n        /* \"Game.sol\":7869:7907  uint256 result = calculateGameResult() */\n      swap1\n      pop\n        /* \"Game.sol\":7930:7931  3 */\n      0x03\n        /* \"Game.sol\":7922:7928  result */\n      dup2\n        /* \"Game.sol\":7922:7931  result<=3 */\n      gt\n        /* \"Game.sol\":7918:8151  if (result<=3){... */\n      tag_135\n      jumpi\n        /* \"Game.sol\":7955:7961  result */\n      dup1\n        /* \"Game.sol\":7947:8026  return (result, \"Owner win, please confirm you are the Winner and get reward!\") */\n      mload(0x40)\n      dup1\n      0x60\n      add\n      0x40\n      mstore\n      dup1\n      0x3c\n      dup2\n      mstore\n      0x20\n      add\n      data_5df918448539201a5bf172a217e04027eea7222bcd2565f78e2d9aefbb4afa7c\n      0x3c\n      swap2\n      codecopy\n      swap3\n      pop\n      swap3\n      pop\n      pop\n      jump(tag_118)\n        /* \"Game.sol\":7918:8151  if (result<=3){... */\n    tag_135:\n        /* \"Game.sol\":8067:8073  result */\n      dup1\n        /* \"Game.sol\":8059:8139  return (result, \"Player win, please confirm you are the Winner and get reward!\") */\n      mload(0x40)\n      dup1\n      0x60\n      add\n      0x40\n      mstore\n      dup1\n      0x3d\n      dup2\n      mstore\n      0x20\n      add\n      data_5bf2a40c643c32a91271cfb84ebaedf3782dbc5f3dc9227048c7865bf3996704\n      0x3d\n      swap2\n      codecopy\n      swap3\n      pop\n      swap3\n      pop\n      pop\n        /* \"Game.sol\":7643:8158  function gameResult() public view returns(uint256, string memory){... */\n    tag_118:\n      swap1\n      swap2\n      jump\t// out\n        /* \"Game.sol\":3384:3404  address public owner */\n    tag_46:\n      0x00\n      0x00\n      swap1\n      sload\n      swap1\n      0x0100\n      exp\n      swap1\n      div\n      0xffffffffffffffffffffffffffffffffffffffff\n      and\n      dup2\n      jump\t// out\n        /* \"Game.sol\":5394:6090  function playerSubmit(uint256 _playerAns, uint256 _playerPW) public payable returns (uint256) {... */\n    tag_50:\n        /* \"Game.sol\":5479:5486  uint256 */\n      0x00\n        /* \"Game.sol\":5521:5526  owner */\n      0x00\n      0x00\n      swap1\n      sload\n      swap1\n      0x0100\n      exp\n      swap1\n      div\n      0xffffffffffffffffffffffffffffffffffffffff\n      and\n        /* \"Game.sol\":5507:5526  msg.sender != owner */\n      0xffffffffffffffffffffffffffffffffffffffff\n      and\n        /* \"Game.sol\":5507:5517  msg.sender */\n      caller\n        /* \"Game.sol\":5507:5526  msg.sender != owner */\n      0xffffffffffffffffffffffffffffffffffffffff\n      and\n      sub\n        /* \"Game.sol\":5499:5565  require(msg.sender != owner, \"owner can not Submit player Answer\") */\n      tag_138\n      jumpi\n      mload(0x40)\n      0x08c379a000000000000000000000000000000000000000000000000000000000\n      dup2\n      mstore\n      0x04\n      add\n      tag_139\n      swap1\n      tag_140\n      jump\t// in\n    tag_139:\n      mload(0x40)\n      dup1\n      swap2\n      sub\n      swap1\n      revert\n    tag_138:\n        /* \"Game.sol\":5599:5615  Status.Submitted */\n      0x01\n        /* \"Game.sol\":5584:5615  playerStatus!= Status.Submitted */\n      0x03\n      dup2\n      gt\n      iszero\n      tag_141\n      jumpi\n      tag_142\n      tag_81\n      jump\t// in\n    tag_142:\n    tag_141:\n        /* \"Game.sol\":5584:5596  playerStatus */\n      0x08\n      0x00\n      swap1\n      sload\n      swap1\n      0x0100\n      exp\n      swap1\n      div\n      0xff\n      and\n        /* \"Game.sol\":5584:5615  playerStatus!= Status.Submitted */\n      0x03\n      dup2\n      gt\n      iszero\n      tag_143\n      jumpi\n      tag_144\n      tag_81\n      jump\t// in\n    tag_144:\n    tag_143:\n      sub\n        /* \"Game.sol\":5576:5646  require(playerStatus!= Status.Submitted, \"You have already submitted\") */\n      tag_145\n      jumpi\n      mload(0x40)\n      0x08c379a000000000000000000000000000000000000000000000000000000000\n      dup2\n      mstore\n      0x04\n      add\n      tag_146\n      swap1\n      tag_86\n      jump\t// in\n    tag_146:\n      mload(0x40)\n      dup1\n      swap2\n      sub\n      swap1\n      revert\n    tag_145:\n        /* \"Game.sol\":5680:5693  Status.Winner */\n      0x03\n        /* \"Game.sol\":5665:5693  playerStatus!= Status.Winner */\n      dup1\n      dup2\n      gt\n      iszero\n      tag_147\n      jumpi\n      tag_148\n      tag_81\n      jump\t// in\n    tag_148:\n    tag_147:\n        /* \"Game.sol\":5665:5677  playerStatus */\n      0x08\n      0x00\n      swap1\n      sload\n      swap1\n      0x0100\n      exp\n      swap1\n      div\n      0xff\n      and\n        /* \"Game.sol\":5665:5693  playerStatus!= Status.Winner */\n      0x03\n      dup2\n      gt\n      iszero\n      tag_149\n      jumpi\n      tag_150\n      tag_81\n      jump\t// in\n    tag_150:\n    tag_149:\n      sub\n        /* \"Game.sol\":5657:5747  require(playerStatus!= Status.Winner, \"The game is finish, new submission is not allowed\") */\n      tag_151\n      jumpi\n      mload(0x40)\n      0x08c379a000000000000000000000000000000000000000000000000000000000\n      dup2\n      mstore\n      0x04\n      add\n      tag_152\n      swap1\n      tag_93\n      jump\t// in\n    tag_152:\n      mload(0x40)\n      dup1\n      swap2\n      sub\n      swap1\n      revert\n    tag_151:\n        /* \"Game.sol\":5779:5788  betAmount */\n      sload(0x09)\n        /* \"Game.sol\":5766:5775  msg.value */\n      callvalue\n        /* \"Game.sol\":5766:5788  msg.value == betAmount */\n      eq\n        /* \"Game.sol\":5758:5832  require(msg.value == betAmount, \"You must send exactly 0.02 ether to bet\") */\n      tag_153\n      jumpi\n      mload(0x40)\n      0x08c379a000000000000000000000000000000000000000000000000000000000\n      dup2\n      mstore\n      0x04\n      add\n      tag_154\n      swap1\n      tag_96\n      jump\t// in\n    tag_154:\n      mload(0x40)\n      dup1\n      swap2\n      sub\n      swap1\n      revert\n    tag_153:\n        /* \"Game.sol\":5853:5862  msg.value */\n      callvalue\n        /* \"Game.sol\":5845:5849  pool */\n      0x0c\n      0x00\n        /* \"Game.sol\":5845:5862  pool += msg.value */\n      dup3\n      dup3\n      sload\n      tag_155\n      swap2\n      swap1\n      tag_98\n      jump\t// in\n    tag_155:\n      swap3\n      pop\n      pop\n      dup2\n      swap1\n      sstore\n      pop\n        /* \"Game.sol\":5882:5892  msg.sender */\n      caller\n        /* \"Game.sol\":5873:5879  player */\n      0x04\n      0x00\n        /* \"Game.sol\":5873:5892  player = msg.sender */\n      0x0100\n      exp\n      dup2\n      sload\n      dup2\n      0xffffffffffffffffffffffffffffffffffffffff\n      mul\n      not\n      and\n      swap1\n      dup4\n      0xffffffffffffffffffffffffffffffffffffffff\n      and\n      mul\n      or\n      swap1\n      sstore\n      pop\n        /* \"Game.sol\":5915:5925  _playerAns */\n      dup3\n        /* \"Game.sol\":5903:5912  playerAns */\n      0x05\n        /* \"Game.sol\":5903:5925  playerAns = _playerAns */\n      dup2\n      swap1\n      sstore\n      pop\n        /* \"Game.sol\":5947:5956  _playerPW */\n      dup2\n        /* \"Game.sol\":5936:5944  playerPW */\n      0x06\n        /* \"Game.sol\":5936:5956  playerPW = _playerPW */\n      dup2\n      swap1\n      sstore\n      pop\n        /* \"Game.sol\":5980:6013  playerHashing(playerAns,playerPW) */\n      tag_156\n        /* \"Game.sol\":5994:6003  playerAns */\n      sload(0x05)\n        /* \"Game.sol\":6004:6012  playerPW */\n      sload(0x06)\n        /* \"Game.sol\":5980:5993  playerHashing */\n      tag_157\n        /* \"Game.sol\":5980:6013  playerHashing(playerAns,playerPW) */\n      jump\t// in\n    tag_156:\n        /* \"Game.sol\":5967:5977  playerHash */\n      0x07\n        /* \"Game.sol\":5967:6013  playerHash = playerHashing(playerAns,playerPW) */\n      dup2\n      swap1\n      sstore\n      pop\n        /* \"Game.sol\":6039:6055  Status.Submitted */\n      0x01\n        /* \"Game.sol\":6024:6036  playerStatus */\n      0x08\n      0x00\n        /* \"Game.sol\":6024:6055  playerStatus = Status.Submitted */\n      0x0100\n      exp\n      dup2\n      sload\n      dup2\n      0xff\n      mul\n      not\n      and\n      swap1\n      dup4\n      0x03\n      dup2\n      gt\n      iszero\n      tag_158\n      jumpi\n      tag_159\n      tag_81\n      jump\t// in\n    tag_159:\n    tag_158:\n      mul\n      or\n      swap1\n      sstore\n      pop\n        /* \"Game.sol\":6073:6082  playerAns */\n      sload(0x05)\n        /* \"Game.sol\":6066:6082  return playerAns */\n      swap1\n      pop\n        /* \"Game.sol\":5394:6090  function playerSubmit(uint256 _playerAns, uint256 _playerPW) public payable returns (uint256) {... */\n      swap3\n      swap2\n      pop\n      pop\n      jump\t// out\n        /* \"Game.sol\":3920:3960  uint256 public winnerReward = 0.05 ether */\n    tag_54:\n      sload(0x0b)\n      dup2\n      jump\t// out\n        /* \"Game.sol\":3831:3868  uint256 public betAmount = 0.03 ether */\n    tag_58:\n      sload(0x09)\n      dup2\n      jump\t// out\n        /* \"Game.sol\":3875:3913  uint256 public rewardTokenAmount = 100 */\n    tag_62:\n      sload(0x0a)\n      dup2\n      jump\t// out\n        /* \"Game.sol\":8301:9212  function confirmWinner() public payable{... */\n    tag_65:\n        /* \"Game.sol\":8371:8387  Status.Confirmed */\n      0x02\n        /* \"Game.sol\":8355:8387  playerStatus == Status.Confirmed */\n      0x03\n      dup2\n      gt\n      iszero\n      tag_161\n      jumpi\n      tag_162\n      tag_81\n      jump\t// in\n    tag_162:\n    tag_161:\n        /* \"Game.sol\":8355:8367  playerStatus */\n      0x08\n      0x00\n      swap1\n      sload\n      swap1\n      0x0100\n      exp\n      swap1\n      div\n      0xff\n      and\n        /* \"Game.sol\":8355:8387  playerStatus == Status.Confirmed */\n      0x03\n      dup2\n      gt\n      iszero\n      tag_163\n      jumpi\n      tag_164\n      tag_81\n      jump\t// in\n    tag_164:\n    tag_163:\n      eq\n        /* \"Game.sol\":8347:8412  require(playerStatus == Status.Confirmed, \"Player do not reveal\") */\n      tag_165\n      jumpi\n      mload(0x40)\n      0x08c379a000000000000000000000000000000000000000000000000000000000\n      dup2\n      mstore\n      0x04\n      add\n      tag_166\n      swap1\n      tag_125\n      jump\t// in\n    tag_166:\n      mload(0x40)\n      dup1\n      swap2\n      sub\n      swap1\n      revert\n    tag_165:\n        /* \"Game.sol\":8442:8458  Status.Confirmed */\n      0x02\n        /* \"Game.sol\":8427:8458  ownerStatus == Status.Confirmed */\n      0x03\n      dup2\n      gt\n      iszero\n      tag_167\n      jumpi\n      tag_168\n      tag_81\n      jump\t// in\n    tag_168:\n    tag_167:\n        /* \"Game.sol\":8427:8438  ownerStatus */\n      0x08\n      0x01\n      swap1\n      sload\n      swap1\n      0x0100\n      exp\n      swap1\n      div\n      0xff\n      and\n        /* \"Game.sol\":8427:8458  ownerStatus == Status.Confirmed */\n      0x03\n      dup2\n      gt\n      iszero\n      tag_169\n      jumpi\n      tag_170\n      tag_81\n      jump\t// in\n    tag_170:\n    tag_169:\n      eq\n        /* \"Game.sol\":8419:8482  require(ownerStatus == Status.Confirmed, \"Owner do not reveal\") */\n      tag_171\n      jumpi\n      mload(0x40)\n      0x08c379a000000000000000000000000000000000000000000000000000000000\n      dup2\n      mstore\n      0x04\n      add\n      tag_172\n      swap1\n      tag_132\n      jump\t// in\n    tag_172:\n      mload(0x40)\n      dup1\n      swap2\n      sub\n      swap1\n      revert\n    tag_171:\n        /* \"Game.sol\":8489:8503  uint256 result */\n      0x00\n        /* \"Game.sol\":8506:8527  calculateGameResult() */\n      tag_173\n        /* \"Game.sol\":8506:8525  calculateGameResult */\n      tag_134\n        /* \"Game.sol\":8506:8527  calculateGameResult() */\n      jump\t// in\n    tag_173:\n        /* \"Game.sol\":8489:8527  uint256 result = calculateGameResult() */\n      swap1\n      pop\n        /* \"Game.sol\":8550:8551  3 */\n      0x03\n        /* \"Game.sol\":8540:8546  result */\n      dup2\n        /* \"Game.sol\":8540:8551  result <= 3 */\n      gt\n        /* \"Game.sol\":8536:9205  if (result <= 3) {... */\n      tag_174\n      jumpi\n        /* \"Game.sol\":8590:8595  owner */\n      0x00\n      0x00\n      swap1\n      sload\n      swap1\n      0x0100\n      exp\n      swap1\n      div\n      0xffffffffffffffffffffffffffffffffffffffff\n      and\n        /* \"Game.sol\":8576:8595  msg.sender == owner */\n      0xffffffffffffffffffffffffffffffffffffffff\n      and\n        /* \"Game.sol\":8576:8586  msg.sender */\n      caller\n        /* \"Game.sol\":8576:8595  msg.sender == owner */\n      0xffffffffffffffffffffffffffffffffffffffff\n      and\n      eq\n        /* \"Game.sol\":8568:8622  require(msg.sender == owner, \"Only owner can confirm\") */\n      tag_175\n      jumpi\n      mload(0x40)\n      0x08c379a000000000000000000000000000000000000000000000000000000000\n      dup2\n      mstore\n      0x04\n      add\n      tag_176\n      swap1\n      tag_177\n      jump\t// in\n    tag_176:\n      mload(0x40)\n      dup1\n      swap2\n      sub\n      swap1\n      revert\n    tag_175:\n        /* \"Game.sol\":8660:8676  Status.Confirmed */\n      0x02\n        /* \"Game.sol\":8645:8676  ownerStatus == Status.Confirmed */\n      0x03\n      dup2\n      gt\n      iszero\n      tag_178\n      jumpi\n      tag_179\n      tag_81\n      jump\t// in\n    tag_179:\n    tag_178:\n        /* \"Game.sol\":8645:8656  ownerStatus */\n      0x08\n      0x01\n      swap1\n      sload\n      swap1\n      0x0100\n      exp\n      swap1\n      div\n      0xff\n      and\n        /* \"Game.sol\":8645:8676  ownerStatus == Status.Confirmed */\n      0x03\n      dup2\n      gt\n      iszero\n      tag_180\n      jumpi\n      tag_181\n      tag_81\n      jump\t// in\n    tag_181:\n    tag_180:\n      eq\n        /* \"Game.sol\":8637:8730  require(ownerStatus == Status.Confirmed, \"You are not allow to confirm winner at this stage\") */\n      tag_182\n      jumpi\n      mload(0x40)\n      0x08c379a000000000000000000000000000000000000000000000000000000000\n      dup2\n      mstore\n      0x04\n      add\n      tag_183\n      swap1\n      tag_184\n      jump\t// in\n    tag_183:\n      mload(0x40)\n      dup1\n      swap2\n      sub\n      swap1\n      revert\n    tag_182:\n        /* \"Game.sol\":8761:8774  Status.Winner */\n      0x03\n        /* \"Game.sol\":8747:8758  ownerStatus */\n      0x08\n      0x01\n        /* \"Game.sol\":8747:8774  ownerStatus = Status.Winner */\n      0x0100\n      exp\n      dup2\n      sload\n      dup2\n      0xff\n      mul\n      not\n      and\n      swap1\n      dup4\n      0x03\n      dup2\n      gt\n      iszero\n      tag_185\n      jumpi\n      tag_186\n      tag_81\n      jump\t// in\n    tag_186:\n    tag_185:\n      mul\n      or\n      swap1\n      sstore\n      pop\n        /* \"Game.sol\":8797:8809  winnerReward */\n      sload(0x0b)\n        /* \"Game.sol\":8789:8793  pool */\n      0x0c\n      0x00\n        /* \"Game.sol\":8789:8809  pool -= winnerReward */\n      dup3\n      dup3\n      sload\n      tag_187\n      swap2\n      swap1\n      tag_188\n      jump\t// in\n    tag_187:\n      swap3\n      pop\n      pop\n      dup2\n      swap1\n      sstore\n      pop\n        /* \"Game.sol\":8845:8857  winnerReward */\n      sload(0x0b)\n        /* \"Game.sol\":8832:8841  msg.value */\n      callvalue\n        /* \"Game.sol\":8832:8857  msg.value == winnerReward */\n      eq\n        /* \"Game.sol\":8824:8862  require(msg.value == winnerReward, \"\") */\n      tag_189\n      jumpi\n      mload(0x40)\n      0x08c379a000000000000000000000000000000000000000000000000000000000\n      dup2\n      mstore\n      0x04\n      add\n      tag_190\n      swap1\n      tag_191\n      jump\t// in\n    tag_190:\n      mload(0x40)\n      dup1\n      swap2\n      sub\n      swap1\n      revert\n    tag_189:\n        /* \"Game.sol\":8536:9205  if (result <= 3) {... */\n      jump(tag_192)\n    tag_174:\n        /* \"Game.sol\":8917:8923  player */\n      0x04\n      0x00\n      swap1\n      sload\n      swap1\n      0x0100\n      exp\n      swap1\n      div\n      0xffffffffffffffffffffffffffffffffffffffff\n      and\n        /* \"Game.sol\":8903:8923  msg.sender == player */\n      0xffffffffffffffffffffffffffffffffffffffff\n      and\n        /* \"Game.sol\":8903:8913  msg.sender */\n      caller\n        /* \"Game.sol\":8903:8923  msg.sender == player */\n      0xffffffffffffffffffffffffffffffffffffffff\n      and\n      eq\n        /* \"Game.sol\":8895:8951  require(msg.sender == player, \"Only player can confirm\") */\n      tag_193\n      jumpi\n      mload(0x40)\n      0x08c379a000000000000000000000000000000000000000000000000000000000\n      dup2\n      mstore\n      0x04\n      add\n      tag_194\n      swap1\n      tag_195\n      jump\t// in\n    tag_194:\n      mload(0x40)\n      dup1\n      swap2\n      sub\n      swap1\n      revert\n    tag_193:\n        /* \"Game.sol\":8990:9006  Status.Confirmed */\n      0x02\n        /* \"Game.sol\":8974:9006  playerStatus == Status.Confirmed */\n      0x03\n      dup2\n      gt\n      iszero\n      tag_196\n      jumpi\n      tag_197\n      tag_81\n      jump\t// in\n    tag_197:\n    tag_196:\n        /* \"Game.sol\":8974:8986  playerStatus */\n      0x08\n      0x00\n      swap1\n      sload\n      swap1\n      0x0100\n      exp\n      swap1\n      div\n      0xff\n      and\n        /* \"Game.sol\":8974:9006  playerStatus == Status.Confirmed */\n      0x03\n      dup2\n      gt\n      iszero\n      tag_198\n      jumpi\n      tag_199\n      tag_81\n      jump\t// in\n    tag_199:\n    tag_198:\n      eq\n        /* \"Game.sol\":8966:9060  require(playerStatus == Status.Confirmed, \"You are not allow to confirm winner at this stage\") */\n      tag_200\n      jumpi\n      mload(0x40)\n      0x08c379a000000000000000000000000000000000000000000000000000000000\n      dup2\n      mstore\n      0x04\n      add\n      tag_201\n      swap1\n      tag_184\n      jump\t// in\n    tag_201:\n      mload(0x40)\n      dup1\n      swap2\n      sub\n      swap1\n      revert\n    tag_200:\n        /* \"Game.sol\":9092:9105  Status.Winner */\n      0x03\n        /* \"Game.sol\":9077:9089  playerStatus */\n      0x08\n      0x00\n        /* \"Game.sol\":9077:9105  playerStatus = Status.Winner */\n      0x0100\n      exp\n      dup2\n      sload\n      dup2\n      0xff\n      mul\n      not\n      and\n      swap1\n      dup4\n      0x03\n      dup2\n      gt\n      iszero\n      tag_202\n      jumpi\n      tag_203\n      tag_81\n      jump\t// in\n    tag_203:\n    tag_202:\n      mul\n      or\n      swap1\n      sstore\n      pop\n        /* \"Game.sol\":9128:9140  winnerReward */\n      sload(0x0b)\n        /* \"Game.sol\":9120:9124  pool */\n      0x0c\n      0x00\n        /* \"Game.sol\":9120:9140  pool -= winnerReward */\n      dup3\n      dup3\n      sload\n      tag_204\n      swap2\n      swap1\n      tag_188\n      jump\t// in\n    tag_204:\n      swap3\n      pop\n      pop\n      dup2\n      swap1\n      sstore\n      pop\n        /* \"Game.sol\":9176:9188  winnerReward */\n      sload(0x0b)\n        /* \"Game.sol\":9163:9172  msg.value */\n      callvalue\n        /* \"Game.sol\":9163:9188  msg.value == winnerReward */\n      eq\n        /* \"Game.sol\":9155:9193  require(msg.value == winnerReward, \"\") */\n      tag_205\n      jumpi\n      mload(0x40)\n      0x08c379a000000000000000000000000000000000000000000000000000000000\n      dup2\n      mstore\n      0x04\n      add\n      tag_206\n      swap1\n      tag_191\n      jump\t// in\n    tag_206:\n      mload(0x40)\n      dup1\n      swap2\n      sub\n      swap1\n      revert\n    tag_205:\n        /* \"Game.sol\":8536:9205  if (result <= 3) {... */\n    tag_192:\n        /* \"Game.sol\":8340:9212  {... */\n      pop\n        /* \"Game.sol\":8301:9212  function confirmWinner() public payable{... */\n      jump\t// out\n        /* \"Game.sol\":7268:7429  function ownerViewAns() public view returns (uint256) {... */\n    tag_68:\n        /* \"Game.sol\":7313:7320  uint256 */\n      0x00\n        /* \"Game.sol\":7355:7360  owner */\n      0x00\n      0x00\n      swap1\n      sload\n      swap1\n      0x0100\n      exp\n      swap1\n      div\n      0xffffffffffffffffffffffffffffffffffffffff\n      and\n        /* \"Game.sol\":7341:7360  msg.sender == owner */\n      0xffffffffffffffffffffffffffffffffffffffff\n      and\n        /* \"Game.sol\":7341:7351  msg.sender */\n      caller\n        /* \"Game.sol\":7341:7360  msg.sender == owner */\n      0xffffffffffffffffffffffffffffffffffffffff\n      and\n      eq\n        /* \"Game.sol\":7333:7395  require(msg.sender == owner, \"only owner can view the answer\") */\n      tag_208\n      jumpi\n      mload(0x40)\n      0x08c379a000000000000000000000000000000000000000000000000000000000\n      dup2\n      mstore\n      0x04\n      add\n      tag_209\n      swap1\n      tag_210\n      jump\t// in\n    tag_209:\n      mload(0x40)\n      dup1\n      swap2\n      sub\n      swap1\n      revert\n    tag_208:\n        /* \"Game.sol\":7413:7421  ownerAns */\n      sload(0x01)\n        /* \"Game.sol\":7406:7421  return ownerAns */\n      swap1\n      pop\n        /* \"Game.sol\":7268:7429  function ownerViewAns() public view returns (uint256) {... */\n      swap1\n      jump\t// out\n        /* \"Game.sol\":6613:7061  function playerReveal(uint256 _playerPW_Confirm) public returns (bool, string memory){... */\n    tag_73:\n        /* \"Game.sol\":6678:6682  bool */\n      0x00\n        /* \"Game.sol\":6684:6697  string memory */\n      0x60\n        /* \"Game.sol\":6731:6737  player */\n      0x04\n      0x00\n      swap1\n      sload\n      swap1\n      0x0100\n      exp\n      swap1\n      div\n      0xffffffffffffffffffffffffffffffffffffffff\n      and\n        /* \"Game.sol\":6717:6737  msg.sender == player */\n      0xffffffffffffffffffffffffffffffffffffffff\n      and\n        /* \"Game.sol\":6717:6727  msg.sender */\n      caller\n        /* \"Game.sol\":6717:6737  msg.sender == player */\n      0xffffffffffffffffffffffffffffffffffffffff\n      and\n      eq\n        /* \"Game.sol\":6709:6773  require(msg.sender == player, \"Only player can submit Password\") */\n      tag_212\n      jumpi\n      mload(0x40)\n      0x08c379a000000000000000000000000000000000000000000000000000000000\n      dup2\n      mstore\n      0x04\n      add\n      tag_213\n      swap1\n      tag_214\n      jump\t// in\n    tag_213:\n      mload(0x40)\n      dup1\n      swap2\n      sub\n      swap1\n      revert\n    tag_212:\n        /* \"Game.sol\":6784:6807  bytes32 checkplayerHash */\n      0x00\n        /* \"Game.sol\":6837:6846  playerAns */\n      sload(0x05)\n        /* \"Game.sol\":6848:6865  _playerPW_Confirm */\n      dup5\n        /* \"Game.sol\":6820:6866  abi.encodePacked(playerAns, _playerPW_Confirm) */\n      add(0x20, mload(0x40))\n      tag_215\n      swap3\n      swap2\n      swap1\n      tag_108\n      jump\t// in\n    tag_215:\n      mload(0x40)\n      0x20\n      dup2\n      dup4\n      sub\n      sub\n      dup2\n      mstore\n      swap1\n      0x40\n      mstore\n        /* \"Game.sol\":6810:6867  keccak256(abi.encodePacked(playerAns, _playerPW_Confirm)) */\n      dup1\n      mload\n      swap1\n      0x20\n      add\n      keccak256\n        /* \"Game.sol\":6784:6867  bytes32 checkplayerHash = keccak256(abi.encodePacked(playerAns, _playerPW_Confirm)) */\n      swap1\n      pop\n        /* \"Game.sol\":6905:6915  playerHash */\n      sload(0x07)\n        /* \"Game.sol\":6886:6901  checkplayerHash */\n      dup2\n        /* \"Game.sol\":6886:6915  checkplayerHash == playerHash */\n      eq\n        /* \"Game.sol\":6878:6966  require(checkplayerHash == playerHash, \"The Password is not correct, Please try again.\") */\n      tag_216\n      jumpi\n      mload(0x40)\n      0x08c379a000000000000000000000000000000000000000000000000000000000\n      dup2\n      mstore\n      0x04\n      add\n      tag_217\n      swap1\n      tag_111\n      jump\t// in\n    tag_217:\n      mload(0x40)\n      dup1\n      swap2\n      sub\n      swap1\n      revert\n    tag_216:\n        /* \"Game.sol\":6996:7012  Status.Confirmed */\n      0x02\n        /* \"Game.sol\":6981:6993  playerStatus */\n      0x08\n      0x00\n        /* \"Game.sol\":6981:7012  playerStatus = Status.Confirmed */\n      0x0100\n      exp\n      dup2\n      sload\n      dup2\n      0xff\n      mul\n      not\n      and\n      swap1\n      dup4\n      0x03\n      dup2\n      gt\n      iszero\n      tag_218\n      jumpi\n      tag_219\n      tag_81\n      jump\t// in\n    tag_219:\n    tag_218:\n      mul\n      or\n      swap1\n      sstore\n      pop\n        /* \"Game.sol\":7035:7039  true */\n      0x01\n        /* \"Game.sol\":7027:7053  return (true, \"Confirmed\") */\n      mload(0x40)\n      dup1\n      0x40\n      add\n      0x40\n      mstore\n      dup1\n      0x09\n      dup2\n      mstore\n      0x20\n      add\n      0x436f6e6669726d65640000000000000000000000000000000000000000000000\n      dup2\n      mstore\n      pop\n      swap3\n      pop\n      swap3\n      pop\n      pop\n        /* \"Game.sol\":6613:7061  function playerReveal(uint256 _playerPW_Confirm) public returns (bool, string memory){... */\n      swap2\n      pop\n      swap2\n      jump\t// out\n        /* \"Game.sol\":4412:4575  function ownerHashing(uint256 _ownerAns, uint256 _ownerPW) private pure returns (bytes32){... */\n    tag_100:\n        /* \"Game.sol\":4493:4500  bytes32 */\n      0x00\n        /* \"Game.sol\":4546:4555  _ownerAns */\n      dup3\n        /* \"Game.sol\":4557:4565  _ownerPW */\n      dup3\n        /* \"Game.sol\":4529:4566  abi.encodePacked(_ownerAns, _ownerPW) */\n      add(0x20, mload(0x40))\n      tag_221\n      swap3\n      swap2\n      swap1\n      tag_108\n      jump\t// in\n    tag_221:\n      mload(0x40)\n      0x20\n      dup2\n      dup4\n      sub\n      sub\n      dup2\n      mstore\n      swap1\n      0x40\n      mstore\n        /* \"Game.sol\":4519:4567  keccak256(abi.encodePacked(_ownerAns, _ownerPW)) */\n      dup1\n      mload\n      swap1\n      0x20\n      add\n      keccak256\n        /* \"Game.sol\":4512:4567  return keccak256(abi.encodePacked(_ownerAns, _ownerPW)) */\n      swap1\n      pop\n        /* \"Game.sol\":4412:4575  function ownerHashing(uint256 _ownerAns, uint256 _ownerPW) private pure returns (bytes32){... */\n      swap3\n      swap2\n      pop\n      pop\n      jump\t// out\n        /* \"Game.sol\":7491:7635  function calculateGameResult() private view returns(uint256){... */\n    tag_134:\n        /* \"Game.sol\":7543:7550  uint256 */\n      0x00\n        /* \"Game.sol\":7562:7576  uint256 result */\n      0x00\n        /* \"Game.sol\":7602:7603  1 */\n      0x01\n        /* \"Game.sol\":7600:7601  6 */\n      0x06\n        /* \"Game.sol\":7590:7598  ownerAns */\n      sload(0x01)\n        /* \"Game.sol\":7580:7589  playerAns */\n      sload(0x05)\n        /* \"Game.sol\":7580:7598  playerAns+ownerAns */\n      tag_223\n      swap2\n      swap1\n      tag_98\n      jump\t// in\n    tag_223:\n        /* \"Game.sol\":7579:7601  (playerAns+ownerAns)%6 */\n      tag_224\n      swap2\n      swap1\n      tag_225\n      jump\t// in\n    tag_224:\n        /* \"Game.sol\":7579:7603  (playerAns+ownerAns)%6+1 */\n      tag_226\n      swap2\n      swap1\n      tag_98\n      jump\t// in\n    tag_226:\n        /* \"Game.sol\":7562:7603  uint256 result = (playerAns+ownerAns)%6+1 */\n      swap1\n      pop\n        /* \"Game.sol\":7621:7627  result */\n      dup1\n        /* \"Game.sol\":7614:7627  return result */\n      swap2\n      pop\n      pop\n        /* \"Game.sol\":7491:7635  function calculateGameResult() private view returns(uint256){... */\n      swap1\n      jump\t// out\n        /* \"Game.sol\":4583:4751  function playerHashing(uint256 _playerAns, uint256 _playerPW) private pure returns (bytes32){... */\n    tag_157:\n        /* \"Game.sol\":4667:4674  bytes32 */\n      0x00\n        /* \"Game.sol\":4720:4730  _playerAns */\n      dup3\n        /* \"Game.sol\":4732:4741  _playerPW */\n      dup3\n        /* \"Game.sol\":4703:4742  abi.encodePacked(_playerAns, _playerPW) */\n      add(0x20, mload(0x40))\n      tag_228\n      swap3\n      swap2\n      swap1\n      tag_108\n      jump\t// in\n    tag_228:\n      mload(0x40)\n      0x20\n      dup2\n      dup4\n      sub\n      sub\n      dup2\n      mstore\n      swap1\n      0x40\n      mstore\n        /* \"Game.sol\":4693:4743  keccak256(abi.encodePacked(_playerAns, _playerPW)) */\n      dup1\n      mload\n      swap1\n      0x20\n      add\n      keccak256\n        /* \"Game.sol\":4686:4743  return keccak256(abi.encodePacked(_playerAns, _playerPW)) */\n      swap1\n      pop\n        /* \"Game.sol\":4583:4751  function playerHashing(uint256 _playerAns, uint256 _playerPW) private pure returns (bytes32){... */\n      swap3\n      swap2\n      pop\n      pop\n      jump\t// out\n        /* \"#utility.yul\":88:205   */\n    tag_230:\n        /* \"#utility.yul\":197:198   */\n      0x00\n        /* \"#utility.yul\":194:195   */\n      0x00\n        /* \"#utility.yul\":187:199   */\n      revert\n        /* \"#utility.yul\":334:411   */\n    tag_232:\n        /* \"#utility.yul\":371:378   */\n      0x00\n        /* \"#utility.yul\":400:405   */\n      dup2\n        /* \"#utility.yul\":389:405   */\n      swap1\n      pop\n        /* \"#utility.yul\":334:411   */\n      swap2\n      swap1\n      pop\n      jump\t// out\n        /* \"#utility.yul\":417:539   */\n    tag_233:\n        /* \"#utility.yul\":490:514   */\n      tag_288\n        /* \"#utility.yul\":508:513   */\n      dup2\n        /* \"#utility.yul\":490:514   */\n      tag_232\n      jump\t// in\n    tag_288:\n        /* \"#utility.yul\":483:488   */\n      dup2\n        /* \"#utility.yul\":480:515   */\n      eq\n        /* \"#utility.yul\":470:533   */\n      tag_289\n      jumpi\n        /* \"#utility.yul\":529:530   */\n      0x00\n        /* \"#utility.yul\":526:527   */\n      0x00\n        /* \"#utility.yul\":519:531   */\n      revert\n        /* \"#utility.yul\":470:533   */\n    tag_289:\n        /* \"#utility.yul\":417:539   */\n      pop\n      jump\t// out\n        /* \"#utility.yul\":545:684   */\n    tag_234:\n        /* \"#utility.yul\":591:596   */\n      0x00\n        /* \"#utility.yul\":629:635   */\n      dup2\n        /* \"#utility.yul\":616:636   */\n      calldataload\n        /* \"#utility.yul\":607:636   */\n      swap1\n      pop\n        /* \"#utility.yul\":645:678   */\n      tag_291\n        /* \"#utility.yul\":672:677   */\n      dup2\n        /* \"#utility.yul\":645:678   */\n      tag_233\n      jump\t// in\n    tag_291:\n        /* \"#utility.yul\":545:684   */\n      swap3\n      swap2\n      pop\n      pop\n      jump\t// out\n        /* \"#utility.yul\":690:1164   */\n    tag_19:\n        /* \"#utility.yul\":758:764   */\n      0x00\n        /* \"#utility.yul\":766:772   */\n      0x00\n        /* \"#utility.yul\":815:817   */\n      0x40\n        /* \"#utility.yul\":803:812   */\n      dup4\n        /* \"#utility.yul\":794:801   */\n      dup6\n        /* \"#utility.yul\":790:813   */\n      sub\n        /* \"#utility.yul\":786:818   */\n      slt\n        /* \"#utility.yul\":783:902   */\n      iszero\n      tag_293\n      jumpi\n        /* \"#utility.yul\":821:900   */\n      tag_294\n      tag_230\n      jump\t// in\n    tag_294:\n        /* \"#utility.yul\":783:902   */\n    tag_293:\n        /* \"#utility.yul\":941:942   */\n      0x00\n        /* \"#utility.yul\":966:1019   */\n      tag_295\n        /* \"#utility.yul\":1011:1018   */\n      dup6\n        /* \"#utility.yul\":1002:1008   */\n      dup3\n        /* \"#utility.yul\":991:1000   */\n      dup7\n        /* \"#utility.yul\":987:1009   */\n      add\n        /* \"#utility.yul\":966:1019   */\n      tag_234\n      jump\t// in\n    tag_295:\n        /* \"#utility.yul\":956:1019   */\n      swap3\n      pop\n        /* \"#utility.yul\":912:1029   */\n      pop\n        /* \"#utility.yul\":1068:1070   */\n      0x20\n        /* \"#utility.yul\":1094:1147   */\n      tag_296\n        /* \"#utility.yul\":1139:1146   */\n      dup6\n        /* \"#utility.yul\":1130:1136   */\n      dup3\n        /* \"#utility.yul\":1119:1128   */\n      dup7\n        /* \"#utility.yul\":1115:1137   */\n      add\n        /* \"#utility.yul\":1094:1147   */\n      tag_234\n      jump\t// in\n    tag_296:\n        /* \"#utility.yul\":1084:1147   */\n      swap2\n      pop\n        /* \"#utility.yul\":1039:1157   */\n      pop\n        /* \"#utility.yul\":690:1164   */\n      swap3\n      pop\n      swap3\n      swap1\n      pop\n      jump\t// out\n        /* \"#utility.yul\":1170:1288   */\n    tag_235:\n        /* \"#utility.yul\":1257:1281   */\n      tag_298\n        /* \"#utility.yul\":1275:1280   */\n      dup2\n        /* \"#utility.yul\":1257:1281   */\n      tag_232\n      jump\t// in\n    tag_298:\n        /* \"#utility.yul\":1252:1255   */\n      dup3\n        /* \"#utility.yul\":1245:1282   */\n      mstore\n        /* \"#utility.yul\":1170:1288   */\n      pop\n      pop\n      jump\t// out\n        /* \"#utility.yul\":1294:1516   */\n    tag_22:\n        /* \"#utility.yul\":1387:1391   */\n      0x00\n        /* \"#utility.yul\":1425:1427   */\n      0x20\n        /* \"#utility.yul\":1414:1423   */\n      dup3\n        /* \"#utility.yul\":1410:1428   */\n      add\n        /* \"#utility.yul\":1402:1428   */\n      swap1\n      pop\n        /* \"#utility.yul\":1438:1509   */\n      tag_300\n        /* \"#utility.yul\":1506:1507   */\n      0x00\n        /* \"#utility.yul\":1495:1504   */\n      dup4\n        /* \"#utility.yul\":1491:1508   */\n      add\n        /* \"#utility.yul\":1482:1488   */\n      dup5\n        /* \"#utility.yul\":1438:1509   */\n      tag_235\n      jump\t// in\n    tag_300:\n        /* \"#utility.yul\":1294:1516   */\n      swap3\n      swap2\n      pop\n      pop\n      jump\t// out\n        /* \"#utility.yul\":1522:1648   */\n    tag_236:\n        /* \"#utility.yul\":1559:1566   */\n      0x00\n        /* \"#utility.yul\":1599:1641   */\n      0xffffffffffffffffffffffffffffffffffffffff\n        /* \"#utility.yul\":1592:1597   */\n      dup3\n        /* \"#utility.yul\":1588:1642   */\n      and\n        /* \"#utility.yul\":1577:1642   */\n      swap1\n      pop\n        /* \"#utility.yul\":1522:1648   */\n      swap2\n      swap1\n      pop\n      jump\t// out\n        /* \"#utility.yul\":1654:1750   */\n    tag_237:\n        /* \"#utility.yul\":1691:1698   */\n      0x00\n        /* \"#utility.yul\":1720:1744   */\n      tag_303\n        /* \"#utility.yul\":1738:1743   */\n      dup3\n        /* \"#utility.yul\":1720:1744   */\n      tag_236\n      jump\t// in\n    tag_303:\n        /* \"#utility.yul\":1709:1744   */\n      swap1\n      pop\n        /* \"#utility.yul\":1654:1750   */\n      swap2\n      swap1\n      pop\n      jump\t// out\n        /* \"#utility.yul\":1756:1874   */\n    tag_238:\n        /* \"#utility.yul\":1843:1867   */\n      tag_305\n        /* \"#utility.yul\":1861:1866   */\n      dup2\n        /* \"#utility.yul\":1843:1867   */\n      tag_237\n      jump\t// in\n    tag_305:\n        /* \"#utility.yul\":1838:1841   */\n      dup3\n        /* \"#utility.yul\":1831:1868   */\n      mstore\n        /* \"#utility.yul\":1756:1874   */\n      pop\n      pop\n      jump\t// out\n        /* \"#utility.yul\":1880:2102   */\n    tag_27:\n        /* \"#utility.yul\":1973:1977   */\n      0x00\n        /* \"#utility.yul\":2011:2013   */\n      0x20\n        /* \"#utility.yul\":2000:2009   */\n      dup3\n        /* \"#utility.yul\":1996:2014   */\n      add\n        /* \"#utility.yul\":1988:2014   */\n      swap1\n      pop\n        /* \"#utility.yul\":2024:2095   */\n      tag_307\n        /* \"#utility.yul\":2092:2093   */\n      0x00\n        /* \"#utility.yul\":2081:2090   */\n      dup4\n        /* \"#utility.yul\":2077:2094   */\n      add\n        /* \"#utility.yul\":2068:2074   */\n      dup5\n        /* \"#utility.yul\":2024:2095   */\n      tag_238\n      jump\t// in\n    tag_307:\n        /* \"#utility.yul\":1880:2102   */\n      swap3\n      swap2\n      pop\n      pop\n      jump\t// out\n        /* \"#utility.yul\":2108:2437   */\n    tag_31:\n        /* \"#utility.yul\":2167:2173   */\n      0x00\n        /* \"#utility.yul\":2216:2218   */\n      0x20\n        /* \"#utility.yul\":2204:2213   */\n      dup3\n        /* \"#utility.yul\":2195:2202   */\n      dup5\n        /* \"#utility.yul\":2191:2214   */\n      sub\n        /* \"#utility.yul\":2187:2219   */\n      slt\n        /* \"#utility.yul\":2184:2303   */\n      iszero\n      tag_309\n      jumpi\n        /* \"#utility.yul\":2222:2301   */\n      tag_310\n      tag_230\n      jump\t// in\n    tag_310:\n        /* \"#utility.yul\":2184:2303   */\n    tag_309:\n        /* \"#utility.yul\":2342:2343   */\n      0x00\n        /* \"#utility.yul\":2367:2420   */\n      tag_311\n        /* \"#utility.yul\":2412:2419   */\n      dup5\n        /* \"#utility.yul\":2403:2409   */\n      dup3\n        /* \"#utility.yul\":2392:2401   */\n      dup6\n        /* \"#utility.yul\":2388:2410   */\n      add\n        /* \"#utility.yul\":2367:2420   */\n      tag_234\n      jump\t// in\n    tag_311:\n        /* \"#utility.yul\":2357:2420   */\n      swap2\n      pop\n        /* \"#utility.yul\":2313:2430   */\n      pop\n        /* \"#utility.yul\":2108:2437   */\n      swap3\n      swap2\n      pop\n      pop\n      jump\t// out\n        /* \"#utility.yul\":2443:2533   */\n    tag_239:\n        /* \"#utility.yul\":2477:2484   */\n      0x00\n        /* \"#utility.yul\":2520:2525   */\n      dup2\n        /* \"#utility.yul\":2513:2526   */\n      iszero\n        /* \"#utility.yul\":2506:2527   */\n      iszero\n        /* \"#utility.yul\":2495:2527   */\n      swap1\n      pop\n        /* \"#utility.yul\":2443:2533   */\n      swap2\n      swap1\n      pop\n      jump\t// out\n        /* \"#utility.yul\":2539:2648   */\n    tag_240:\n        /* \"#utility.yul\":2620:2641   */\n      tag_314\n        /* \"#utility.yul\":2635:2640   */\n      dup2\n        /* \"#utility.yul\":2620:2641   */\n      tag_239\n      jump\t// in\n    tag_314:\n        /* \"#utility.yul\":2615:2618   */\n      dup3\n        /* \"#utility.yul\":2608:2642   */\n      mstore\n        /* \"#utility.yul\":2539:2648   */\n      pop\n      pop\n      jump\t// out\n        /* \"#utility.yul\":2654:2753   */\n    tag_241:\n        /* \"#utility.yul\":2706:2712   */\n      0x00\n        /* \"#utility.yul\":2740:2745   */\n      dup2\n        /* \"#utility.yul\":2734:2746   */\n      mload\n        /* \"#utility.yul\":2724:2746   */\n      swap1\n      pop\n        /* \"#utility.yul\":2654:2753   */\n      swap2\n      swap1\n      pop\n      jump\t// out\n        /* \"#utility.yul\":2759:2928   */\n    tag_242:\n        /* \"#utility.yul\":2843:2854   */\n      0x00\n        /* \"#utility.yul\":2877:2883   */\n      dup3\n        /* \"#utility.yul\":2872:2875   */\n      dup3\n        /* \"#utility.yul\":2865:2884   */\n      mstore\n        /* \"#utility.yul\":2917:2921   */\n      0x20\n        /* \"#utility.yul\":2912:2915   */\n      dup3\n        /* \"#utility.yul\":2908:2922   */\n      add\n        /* \"#utility.yul\":2893:2922   */\n      swap1\n      pop\n        /* \"#utility.yul\":2759:2928   */\n      swap3\n      swap2\n      pop\n      pop\n      jump\t// out\n        /* \"#utility.yul\":2934:3073   */\n    tag_243:\n        /* \"#utility.yul\":3023:3029   */\n      dup3\n        /* \"#utility.yul\":3018:3021   */\n      dup2\n        /* \"#utility.yul\":3013:3016   */\n      dup4\n        /* \"#utility.yul\":3007:3030   */\n      mcopy\n        /* \"#utility.yul\":3064:3065   */\n      0x00\n        /* \"#utility.yul\":3055:3061   */\n      dup4\n        /* \"#utility.yul\":3050:3053   */\n      dup4\n        /* \"#utility.yul\":3046:3062   */\n      add\n        /* \"#utility.yul\":3039:3066   */\n      mstore\n        /* \"#utility.yul\":2934:3073   */\n      pop\n      pop\n      pop\n      jump\t// out\n        /* \"#utility.yul\":3079:3181   */\n    tag_244:\n        /* \"#utility.yul\":3120:3126   */\n      0x00\n        /* \"#utility.yul\":3171:3173   */\n      0x1f\n        /* \"#utility.yul\":3167:3174   */\n      not\n        /* \"#utility.yul\":3162:3164   */\n      0x1f\n        /* \"#utility.yul\":3155:3160   */\n      dup4\n        /* \"#utility.yul\":3151:3165   */\n      add\n        /* \"#utility.yul\":3147:3175   */\n      and\n        /* \"#utility.yul\":3137:3175   */\n      swap1\n      pop\n        /* \"#utility.yul\":3079:3181   */\n      swap2\n      swap1\n      pop\n      jump\t// out\n        /* \"#utility.yul\":3187:3564   */\n    tag_245:\n        /* \"#utility.yul\":3275:3278   */\n      0x00\n        /* \"#utility.yul\":3303:3342   */\n      tag_320\n        /* \"#utility.yul\":3336:3341   */\n      dup3\n        /* \"#utility.yul\":3303:3342   */\n      tag_241\n      jump\t// in\n    tag_320:\n        /* \"#utility.yul\":3358:3429   */\n      tag_321\n        /* \"#utility.yul\":3422:3428   */\n      dup2\n        /* \"#utility.yul\":3417:3420   */\n      dup6\n        /* \"#utility.yul\":3358:3429   */\n      tag_242\n      jump\t// in\n    tag_321:\n        /* \"#utility.yul\":3351:3429   */\n      swap4\n      pop\n        /* \"#utility.yul\":3438:3503   */\n      tag_322\n        /* \"#utility.yul\":3496:3502   */\n      dup2\n        /* \"#utility.yul\":3491:3494   */\n      dup6\n        /* \"#utility.yul\":3484:3488   */\n      0x20\n        /* \"#utility.yul\":3477:3482   */\n      dup7\n        /* \"#utility.yul\":3473:3489   */\n      add\n        /* \"#utility.yul\":3438:3503   */\n      tag_243\n      jump\t// in\n    tag_322:\n        /* \"#utility.yul\":3528:3557   */\n      tag_323\n        /* \"#utility.yul\":3550:3556   */\n      dup2\n        /* \"#utility.yul\":3528:3557   */\n      tag_244\n      jump\t// in\n    tag_323:\n        /* \"#utility.yul\":3523:3526   */\n      dup5\n        /* \"#utility.yul\":3519:3558   */\n      add\n        /* \"#utility.yul\":3512:3558   */\n      swap2\n      pop\n        /* \"#utility.yul\":3279:3564   */\n      pop\n        /* \"#utility.yul\":3187:3564   */\n      swap3\n      swap2\n      pop\n      pop\n      jump\t// out\n        /* \"#utility.yul\":3570:3981   */\n    tag_34:\n        /* \"#utility.yul\":3705:3709   */\n      0x00\n        /* \"#utility.yul\":3743:3745   */\n      0x40\n        /* \"#utility.yul\":3732:3741   */\n      dup3\n        /* \"#utility.yul\":3728:3746   */\n      add\n        /* \"#utility.yul\":3720:3746   */\n      swap1\n      pop\n        /* \"#utility.yul\":3756:3821   */\n      tag_325\n        /* \"#utility.yul\":3818:3819   */\n      0x00\n        /* \"#utility.yul\":3807:3816   */\n      dup4\n        /* \"#utility.yul\":3803:3820   */\n      add\n        /* \"#utility.yul\":3794:3800   */\n      dup6\n        /* \"#utility.yul\":3756:3821   */\n      tag_240\n      jump\t// in\n    tag_325:\n        /* \"#utility.yul\":3868:3877   */\n      dup2\n        /* \"#utility.yul\":3862:3866   */\n      dup2\n        /* \"#utility.yul\":3858:3878   */\n      sub\n        /* \"#utility.yul\":3853:3855   */\n      0x20\n        /* \"#utility.yul\":3842:3851   */\n      dup4\n        /* \"#utility.yul\":3838:3856   */\n      add\n        /* \"#utility.yul\":3831:3879   */\n      mstore\n        /* \"#utility.yul\":3896:3974   */\n      tag_326\n        /* \"#utility.yul\":3969:3973   */\n      dup2\n        /* \"#utility.yul\":3960:3966   */\n      dup5\n        /* \"#utility.yul\":3896:3974   */\n      tag_245\n      jump\t// in\n    tag_326:\n        /* \"#utility.yul\":3888:3974   */\n      swap1\n      pop\n        /* \"#utility.yul\":3570:3981   */\n      swap4\n      swap3\n      pop\n      pop\n      pop\n      jump\t// out\n        /* \"#utility.yul\":3987:4410   */\n    tag_43:\n        /* \"#utility.yul\":4128:4132   */\n      0x00\n        /* \"#utility.yul\":4166:4168   */\n      0x40\n        /* \"#utility.yul\":4155:4164   */\n      dup3\n        /* \"#utility.yul\":4151:4169   */\n      add\n        /* \"#utility.yul\":4143:4169   */\n      swap1\n      pop\n        /* \"#utility.yul\":4179:4250   */\n      tag_328\n        /* \"#utility.yul\":4247:4248   */\n      0x00\n        /* \"#utility.yul\":4236:4245   */\n      dup4\n        /* \"#utility.yul\":4232:4249   */\n      add\n        /* \"#utility.yul\":4223:4229   */\n      dup6\n        /* \"#utility.yul\":4179:4250   */\n      tag_235\n      jump\t// in\n    tag_328:\n        /* \"#utility.yul\":4297:4306   */\n      dup2\n        /* \"#utility.yul\":4291:4295   */\n      dup2\n        /* \"#utility.yul\":4287:4307   */\n      sub\n        /* \"#utility.yul\":4282:4284   */\n      0x20\n        /* \"#utility.yul\":4271:4280   */\n      dup4\n        /* \"#utility.yul\":4267:4285   */\n      add\n        /* \"#utility.yul\":4260:4308   */\n      mstore\n        /* \"#utility.yul\":4325:4403   */\n      tag_329\n        /* \"#utility.yul\":4398:4402   */\n      dup2\n        /* \"#utility.yul\":4389:4395   */\n      dup5\n        /* \"#utility.yul\":4325:4403   */\n      tag_245\n      jump\t// in\n    tag_329:\n        /* \"#utility.yul\":4317:4403   */\n      swap1\n      pop\n        /* \"#utility.yul\":3987:4410   */\n      swap4\n      swap3\n      pop\n      pop\n      pop\n      jump\t// out\n        /* \"#utility.yul\":4416:4576   */\n    tag_246:\n        /* \"#utility.yul\":4556:4568   */\n      0x6f6e6c79206f776e657200000000000000000000000000000000000000000000\n        /* \"#utility.yul\":4552:4553   */\n      0x00\n        /* \"#utility.yul\":4544:4550   */\n      dup3\n        /* \"#utility.yul\":4540:4554   */\n      add\n        /* \"#utility.yul\":4533:4569   */\n      mstore\n        /* \"#utility.yul\":4416:4576   */\n      pop\n      jump\t// out\n        /* \"#utility.yul\":4582:4948   */\n    tag_247:\n        /* \"#utility.yul\":4724:4727   */\n      0x00\n        /* \"#utility.yul\":4745:4812   */\n      tag_332\n        /* \"#utility.yul\":4809:4811   */\n      0x0a\n        /* \"#utility.yul\":4804:4807   */\n      dup4\n        /* \"#utility.yul\":4745:4812   */\n      tag_242\n      jump\t// in\n    tag_332:\n        /* \"#utility.yul\":4738:4812   */\n      swap2\n      pop\n        /* \"#utility.yul\":4821:4914   */\n      tag_333\n        /* \"#utility.yul\":4910:4913   */\n      dup3\n        /* \"#utility.yul\":4821:4914   */\n      tag_246\n      jump\t// in\n    tag_333:\n        /* \"#utility.yul\":4939:4941   */\n      0x20\n        /* \"#utility.yul\":4934:4937   */\n      dup3\n        /* \"#utility.yul\":4930:4942   */\n      add\n        /* \"#utility.yul\":4923:4942   */\n      swap1\n      pop\n        /* \"#utility.yul\":4582:4948   */\n      swap2\n      swap1\n      pop\n      jump\t// out\n        /* \"#utility.yul\":4954:5373   */\n    tag_78:\n        /* \"#utility.yul\":5120:5124   */\n      0x00\n        /* \"#utility.yul\":5158:5160   */\n      0x20\n        /* \"#utility.yul\":5147:5156   */\n      dup3\n        /* \"#utility.yul\":5143:5161   */\n      add\n        /* \"#utility.yul\":5135:5161   */\n      swap1\n      pop\n        /* \"#utility.yul\":5207:5216   */\n      dup2\n        /* \"#utility.yul\":5201:5205   */\n      dup2\n        /* \"#utility.yul\":5197:5217   */\n      sub\n        /* \"#utility.yul\":5193:5194   */\n      0x00\n        /* \"#utility.yul\":5182:5191   */\n      dup4\n        /* \"#utility.yul\":5178:5195   */\n      add\n        /* \"#utility.yul\":5171:5218   */\n      mstore\n        /* \"#utility.yul\":5235:5366   */\n      tag_335\n        /* \"#utility.yul\":5361:5365   */\n      dup2\n        /* \"#utility.yul\":5235:5366   */\n      tag_247\n      jump\t// in\n    tag_335:\n        /* \"#utility.yul\":5227:5366   */\n      swap1\n      pop\n        /* \"#utility.yul\":4954:5373   */\n      swap2\n      swap1\n      pop\n      jump\t// out\n        /* \"#utility.yul\":5379:5559   */\n    tag_81:\n        /* \"#utility.yul\":5427:5504   */\n      0x4e487b7100000000000000000000000000000000000000000000000000000000\n        /* \"#utility.yul\":5424:5425   */\n      0x00\n        /* \"#utility.yul\":5417:5505   */\n      mstore\n        /* \"#utility.yul\":5524:5528   */\n      0x21\n        /* \"#utility.yul\":5521:5522   */\n      0x04\n        /* \"#utility.yul\":5514:5529   */\n      mstore\n        /* \"#utility.yul\":5548:5552   */\n      0x24\n        /* \"#utility.yul\":5545:5546   */\n      0x00\n        /* \"#utility.yul\":5538:5553   */\n      revert\n        /* \"#utility.yul\":5565:5741   */\n    tag_248:\n        /* \"#utility.yul\":5705:5733   */\n      0x596f75206861766520616c7265616479207375626d6974746564000000000000\n        /* \"#utility.yul\":5701:5702   */\n      0x00\n        /* \"#utility.yul\":5693:5699   */\n      dup3\n        /* \"#utility.yul\":5689:5703   */\n      add\n        /* \"#utility.yul\":5682:5734   */\n      mstore\n        /* \"#utility.yul\":5565:5741   */\n      pop\n      jump\t// out\n        /* \"#utility.yul\":5747:6113   */\n    tag_249:\n        /* \"#utility.yul\":5889:5892   */\n      0x00\n        /* \"#utility.yul\":5910:5977   */\n      tag_339\n        /* \"#utility.yul\":5974:5976   */\n      0x1a\n        /* \"#utility.yul\":5969:5972   */\n      dup4\n        /* \"#utility.yul\":5910:5977   */\n      tag_242\n      jump\t// in\n    tag_339:\n        /* \"#utility.yul\":5903:5977   */\n      swap2\n      pop\n        /* \"#utility.yul\":5986:6079   */\n      tag_340\n        /* \"#utility.yul\":6075:6078   */\n      dup3\n        /* \"#utility.yul\":5986:6079   */\n      tag_248\n      jump\t// in\n    tag_340:\n        /* \"#utility.yul\":6104:6106   */\n      0x20\n        /* \"#utility.yul\":6099:6102   */\n      dup3\n        /* \"#utility.yul\":6095:6107   */\n      add\n        /* \"#utility.yul\":6088:6107   */\n      swap1\n      pop\n        /* \"#utility.yul\":5747:6113   */\n      swap2\n      swap1\n      pop\n      jump\t// out\n        /* \"#utility.yul\":6119:6538   */\n    tag_86:\n        /* \"#utility.yul\":6285:6289   */\n      0x00\n        /* \"#utility.yul\":6323:6325   */\n      0x20\n        /* \"#utility.yul\":6312:6321   */\n      dup3\n        /* \"#utility.yul\":6308:6326   */\n      add\n        /* \"#utility.yul\":6300:6326   */\n      swap1\n      pop\n        /* \"#utility.yul\":6372:6381   */\n      dup2\n        /* \"#utility.yul\":6366:6370   */\n      dup2\n        /* \"#utility.yul\":6362:6382   */\n      sub\n        /* \"#utility.yul\":6358:6359   */\n      0x00\n        /* \"#utility.yul\":6347:6356   */\n      dup4\n        /* \"#utility.yul\":6343:6360   */\n      add\n        /* \"#utility.yul\":6336:6383   */\n      mstore\n        /* \"#utility.yul\":6400:6531   */\n      tag_342\n        /* \"#utility.yul\":6526:6530   */\n      dup2\n        /* \"#utility.yul\":6400:6531   */\n      tag_249\n      jump\t// in\n    tag_342:\n        /* \"#utility.yul\":6392:6531   */\n      swap1\n      pop\n        /* \"#utility.yul\":6119:6538   */\n      swap2\n      swap1\n      pop\n      jump\t// out\n        /* \"#utility.yul\":6544:6780   */\n    tag_250:\n        /* \"#utility.yul\":6684:6718   */\n      0x5468652067616d652069732066696e6973682c206e6577207375626d69737369\n        /* \"#utility.yul\":6680:6681   */\n      0x00\n        /* \"#utility.yul\":6672:6678   */\n      dup3\n        /* \"#utility.yul\":6668:6682   */\n      add\n        /* \"#utility.yul\":6661:6719   */\n      mstore\n        /* \"#utility.yul\":6753:6772   */\n      0x6f6e206973206e6f7420616c6c6f776564000000000000000000000000000000\n        /* \"#utility.yul\":6748:6750   */\n      0x20\n        /* \"#utility.yul\":6740:6746   */\n      dup3\n        /* \"#utility.yul\":6736:6751   */\n      add\n        /* \"#utility.yul\":6729:6773   */\n      mstore\n        /* \"#utility.yul\":6544:6780   */\n      pop\n      jump\t// out\n        /* \"#utility.yul\":6786:7152   */\n    tag_251:\n        /* \"#utility.yul\":6928:6931   */\n      0x00\n        /* \"#utility.yul\":6949:7016   */\n      tag_345\n        /* \"#utility.yul\":7013:7015   */\n      0x31\n        /* \"#utility.yul\":7008:7011   */\n      dup4\n        /* \"#utility.yul\":6949:7016   */\n      tag_242\n      jump\t// in\n    tag_345:\n        /* \"#utility.yul\":6942:7016   */\n      swap2\n      pop\n        /* \"#utility.yul\":7025:7118   */\n      tag_346\n        /* \"#utility.yul\":7114:7117   */\n      dup3\n        /* \"#utility.yul\":7025:7118   */\n      tag_250\n      jump\t// in\n    tag_346:\n        /* \"#utility.yul\":7143:7145   */\n      0x40\n        /* \"#utility.yul\":7138:7141   */\n      dup3\n        /* \"#utility.yul\":7134:7146   */\n      add\n        /* \"#utility.yul\":7127:7146   */\n      swap1\n      pop\n        /* \"#utility.yul\":6786:7152   */\n      swap2\n      swap1\n      pop\n      jump\t// out\n        /* \"#utility.yul\":7158:7577   */\n    tag_93:\n        /* \"#utility.yul\":7324:7328   */\n      0x00\n        /* \"#utility.yul\":7362:7364   */\n      0x20\n        /* \"#utility.yul\":7351:7360   */\n      dup3\n        /* \"#utility.yul\":7347:7365   */\n      add\n        /* \"#utility.yul\":7339:7365   */\n      swap1\n      pop\n        /* \"#utility.yul\":7411:7420   */\n      dup2\n        /* \"#utility.yul\":7405:7409   */\n      dup2\n        /* \"#utility.yul\":7401:7421   */\n      sub\n        /* \"#utility.yul\":7397:7398   */\n      0x00\n        /* \"#utility.yul\":7386:7395   */\n      dup4\n        /* \"#utility.yul\":7382:7399   */\n      add\n        /* \"#utility.yul\":7375:7422   */\n      mstore\n        /* \"#utility.yul\":7439:7570   */\n      tag_348\n        /* \"#utility.yul\":7565:7569   */\n      dup2\n        /* \"#utility.yul\":7439:7570   */\n      tag_251\n      jump\t// in\n    tag_348:\n        /* \"#utility.yul\":7431:7570   */\n      swap1\n      pop\n        /* \"#utility.yul\":7158:7577   */\n      swap2\n      swap1\n      pop\n      jump\t// out\n        /* \"#utility.yul\":7583:7809   */\n    tag_252:\n        /* \"#utility.yul\":7723:7757   */\n      0x596f75206d7573742073656e642065786163746c7920302e3032206574686572\n        /* \"#utility.yul\":7719:7720   */\n      0x00\n        /* \"#utility.yul\":7711:7717   */\n      dup3\n        /* \"#utility.yul\":7707:7721   */\n      add\n        /* \"#utility.yul\":7700:7758   */\n      mstore\n        /* \"#utility.yul\":7792:7801   */\n      0x20746f2062657400000000000000000000000000000000000000000000000000\n        /* \"#utility.yul\":7787:7789   */\n      0x20\n        /* \"#utility.yul\":7779:7785   */\n      dup3\n        /* \"#utility.yul\":7775:7790   */\n      add\n        /* \"#utility.yul\":7768:7802   */\n      mstore\n        /* \"#utility.yul\":7583:7809   */\n      pop\n      jump\t// out\n        /* \"#utility.yul\":7815:8181   */\n    tag_253:\n        /* \"#utility.yul\":7957:7960   */\n      0x00\n        /* \"#utility.yul\":7978:8045   */\n      tag_351\n        /* \"#utility.yul\":8042:8044   */\n      0x27\n        /* \"#utility.yul\":8037:8040   */\n      dup4\n        /* \"#utility.yul\":7978:8045   */\n      tag_242\n      jump\t// in\n    tag_351:\n        /* \"#utility.yul\":7971:8045   */\n      swap2\n      pop\n        /* \"#utility.yul\":8054:8147   */\n      tag_352\n        /* \"#utility.yul\":8143:8146   */\n      dup3\n        /* \"#utility.yul\":8054:8147   */\n      tag_252\n      jump\t// in\n    tag_352:\n        /* \"#utility.yul\":8172:8174   */\n      0x40\n        /* \"#utility.yul\":8167:8170   */\n      dup3\n        /* \"#utility.yul\":8163:8175   */\n      add\n        /* \"#utility.yul\":8156:8175   */\n      swap1\n      pop\n        /* \"#utility.yul\":7815:8181   */\n      swap2\n      swap1\n      pop\n      jump\t// out\n        /* \"#utility.yul\":8187:8606   */\n    tag_96:\n        /* \"#utility.yul\":8353:8357   */\n      0x00\n        /* \"#utility.yul\":8391:8393   */\n      0x20\n        /* \"#utility.yul\":8380:8389   */\n      dup3\n        /* \"#utility.yul\":8376:8394   */\n      add\n        /* \"#utility.yul\":8368:8394   */\n      swap1\n      pop\n        /* \"#utility.yul\":8440:8449   */\n      dup2\n        /* \"#utility.yul\":8434:8438   */\n      dup2\n        /* \"#utility.yul\":8430:8450   */\n      sub\n        /* \"#utility.yul\":8426:8427   */\n      0x00\n        /* \"#utility.yul\":8415:8424   */\n      dup4\n        /* \"#utility.yul\":8411:8428   */\n      add\n        /* \"#utility.yul\":8404:8451   */\n      mstore\n        /* \"#utility.yul\":8468:8599   */\n      tag_354\n        /* \"#utility.yul\":8594:8598   */\n      dup2\n        /* \"#utility.yul\":8468:8599   */\n      tag_253\n      jump\t// in\n    tag_354:\n        /* \"#utility.yul\":8460:8599   */\n      swap1\n      pop\n        /* \"#utility.yul\":8187:8606   */\n      swap2\n      swap1\n      pop\n      jump\t// out\n        /* \"#utility.yul\":8612:8792   */\n    tag_254:\n        /* \"#utility.yul\":8660:8737   */\n      0x4e487b7100000000000000000000000000000000000000000000000000000000\n        /* \"#utility.yul\":8657:8658   */\n      0x00\n        /* \"#utility.yul\":8650:8738   */\n      mstore\n        /* \"#utility.yul\":8757:8761   */\n      0x11\n        /* \"#utility.yul\":8754:8755   */\n      0x04\n        /* \"#utility.yul\":8747:8762   */\n      mstore\n        /* \"#utility.yul\":8781:8785   */\n      0x24\n        /* \"#utility.yul\":8778:8779   */\n      0x00\n        /* \"#utility.yul\":8771:8786   */\n      revert\n        /* \"#utility.yul\":8798:8989   */\n    tag_98:\n        /* \"#utility.yul\":8838:8841   */\n      0x00\n        /* \"#utility.yul\":8857:8877   */\n      tag_357\n        /* \"#utility.yul\":8875:8876   */\n      dup3\n        /* \"#utility.yul\":8857:8877   */\n      tag_232\n      jump\t// in\n    tag_357:\n        /* \"#utility.yul\":8852:8877   */\n      swap2\n      pop\n        /* \"#utility.yul\":8891:8911   */\n      tag_358\n        /* \"#utility.yul\":8909:8910   */\n      dup4\n        /* \"#utility.yul\":8891:8911   */\n      tag_232\n      jump\t// in\n    tag_358:\n        /* \"#utility.yul\":8886:8911   */\n      swap3\n      pop\n        /* \"#utility.yul\":8934:8935   */\n      dup3\n        /* \"#utility.yul\":8931:8932   */\n      dup3\n        /* \"#utility.yul\":8927:8936   */\n      add\n        /* \"#utility.yul\":8920:8936   */\n      swap1\n      pop\n        /* \"#utility.yul\":8955:8958   */\n      dup1\n        /* \"#utility.yul\":8952:8953   */\n      dup3\n        /* \"#utility.yul\":8949:8959   */\n      gt\n        /* \"#utility.yul\":8946:8982   */\n      iszero\n      tag_359\n      jumpi\n        /* \"#utility.yul\":8962:8980   */\n      tag_360\n      tag_254\n      jump\t// in\n    tag_360:\n        /* \"#utility.yul\":8946:8982   */\n    tag_359:\n        /* \"#utility.yul\":8798:8989   */\n      swap3\n      swap2\n      pop\n      pop\n      jump\t// out\n        /* \"#utility.yul\":8995:9175   */\n    tag_255:\n        /* \"#utility.yul\":9135:9167   */\n      0x4f6e6c79206f776e65722063616e207375626d69742050617373776f72640000\n        /* \"#utility.yul\":9131:9132   */\n      0x00\n        /* \"#utility.yul\":9123:9129   */\n      dup3\n        /* \"#utility.yul\":9119:9133   */\n      add\n        /* \"#utility.yul\":9112:9168   */\n      mstore\n        /* \"#utility.yul\":8995:9175   */\n      pop\n      jump\t// out\n        /* \"#utility.yul\":9181:9547   */\n    tag_256:\n        /* \"#utility.yul\":9323:9326   */\n      0x00\n        /* \"#utility.yul\":9344:9411   */\n      tag_363\n        /* \"#utility.yul\":9408:9410   */\n      0x1e\n        /* \"#utility.yul\":9403:9406   */\n      dup4\n        /* \"#utility.yul\":9344:9411   */\n      tag_242\n      jump\t// in\n    tag_363:\n        /* \"#utility.yul\":9337:9411   */\n      swap2\n      pop\n        /* \"#utility.yul\":9420:9513   */\n      tag_364\n        /* \"#utility.yul\":9509:9512   */\n      dup3\n        /* \"#utility.yul\":9420:9513   */\n      tag_255\n      jump\t// in\n    tag_364:\n        /* \"#utility.yul\":9538:9540   */\n      0x20\n        /* \"#utility.yul\":9533:9536   */\n      dup3\n        /* \"#utility.yul\":9529:9541   */\n      add\n        /* \"#utility.yul\":9522:9541   */\n      swap1\n      pop\n        /* \"#utility.yul\":9181:9547   */\n      swap2\n      swap1\n      pop\n      jump\t// out\n        /* \"#utility.yul\":9553:9972   */\n    tag_106:\n        /* \"#utility.yul\":9719:9723   */\n      0x00\n        /* \"#utility.yul\":9757:9759   */\n      0x20\n        /* \"#utility.yul\":9746:9755   */\n      dup3\n        /* \"#utility.yul\":9742:9760   */\n      add\n        /* \"#utility.yul\":9734:9760   */\n      swap1\n      pop\n        /* \"#utility.yul\":9806:9815   */\n      dup2\n        /* \"#utility.yul\":9800:9804   */\n      dup2\n        /* \"#utility.yul\":9796:9816   */\n      sub\n        /* \"#utility.yul\":9792:9793   */\n      0x00\n        /* \"#utility.yul\":9781:9790   */\n      dup4\n        /* \"#utility.yul\":9777:9794   */\n      add\n        /* \"#utility.yul\":9770:9817   */\n      mstore\n        /* \"#utility.yul\":9834:9965   */\n      tag_366\n        /* \"#utility.yul\":9960:9964   */\n      dup2\n        /* \"#utility.yul\":9834:9965   */\n      tag_256\n      jump\t// in\n    tag_366:\n        /* \"#utility.yul\":9826:9965   */\n      swap1\n      pop\n        /* \"#utility.yul\":9553:9972   */\n      swap2\n      swap1\n      pop\n      jump\t// out\n        /* \"#utility.yul\":9978:10057   */\n    tag_257:\n        /* \"#utility.yul\":10017:10024   */\n      0x00\n        /* \"#utility.yul\":10046:10051   */\n      dup2\n        /* \"#utility.yul\":10035:10051   */\n      swap1\n      pop\n        /* \"#utility.yul\":9978:10057   */\n      swap2\n      swap1\n      pop\n      jump\t// out\n        /* \"#utility.yul\":10063:10220   */\n    tag_258:\n        /* \"#utility.yul\":10168:10213   */\n      tag_369\n        /* \"#utility.yul\":10188:10212   */\n      tag_370\n        /* \"#utility.yul\":10206:10211   */\n      dup3\n        /* \"#utility.yul\":10188:10212   */\n      tag_232\n      jump\t// in\n    tag_370:\n        /* \"#utility.yul\":10168:10213   */\n      tag_257\n      jump\t// in\n    tag_369:\n        /* \"#utility.yul\":10163:10166   */\n      dup3\n        /* \"#utility.yul\":10156:10214   */\n      mstore\n        /* \"#utility.yul\":10063:10220   */\n      pop\n      pop\n      jump\t// out\n        /* \"#utility.yul\":10226:10623   */\n    tag_108:\n        /* \"#utility.yul\":10366:10369   */\n      0x00\n        /* \"#utility.yul\":10381:10456   */\n      tag_372\n        /* \"#utility.yul\":10452:10455   */\n      dup3\n        /* \"#utility.yul\":10443:10449   */\n      dup6\n        /* \"#utility.yul\":10381:10456   */\n      tag_258\n      jump\t// in\n    tag_372:\n        /* \"#utility.yul\":10481:10483   */\n      0x20\n        /* \"#utility.yul\":10476:10479   */\n      dup3\n        /* \"#utility.yul\":10472:10484   */\n      add\n        /* \"#utility.yul\":10465:10484   */\n      swap2\n      pop\n        /* \"#utility.yul\":10494:10569   */\n      tag_373\n        /* \"#utility.yul\":10565:10568   */\n      dup3\n        /* \"#utility.yul\":10556:10562   */\n      dup5\n        /* \"#utility.yul\":10494:10569   */\n      tag_258\n      jump\t// in\n    tag_373:\n        /* \"#utility.yul\":10594:10596   */\n      0x20\n        /* \"#utility.yul\":10589:10592   */\n      dup3\n        /* \"#utility.yul\":10585:10597   */\n      add\n        /* \"#utility.yul\":10578:10597   */\n      swap2\n      pop\n        /* \"#utility.yul\":10614:10617   */\n      dup2\n        /* \"#utility.yul\":10607:10617   */\n      swap1\n      pop\n        /* \"#utility.yul\":10226:10623   */\n      swap4\n      swap3\n      pop\n      pop\n      pop\n      jump\t// out\n        /* \"#utility.yul\":10629:10862   */\n    tag_259:\n        /* \"#utility.yul\":10769:10803   */\n      0x5468652050617373776f7264206973206e6f7420636f72726563742c20506c65\n        /* \"#utility.yul\":10765:10766   */\n      0x00\n        /* \"#utility.yul\":10757:10763   */\n      dup3\n        /* \"#utility.yul\":10753:10767   */\n      add\n        /* \"#utility.yul\":10746:10804   */\n      mstore\n        /* \"#utility.yul\":10838:10854   */\n      0x6173652074727920616761696e2e000000000000000000000000000000000000\n        /* \"#utility.yul\":10833:10835   */\n      0x20\n        /* \"#utility.yul\":10825:10831   */\n      dup3\n        /* \"#utility.yul\":10821:10836   */\n      add\n        /* \"#utility.yul\":10814:10855   */\n      mstore\n        /* \"#utility.yul\":10629:10862   */\n      pop\n      jump\t// out\n        /* \"#utility.yul\":10868:11234   */\n    tag_260:\n        /* \"#utility.yul\":11010:11013   */\n      0x00\n        /* \"#utility.yul\":11031:11098   */\n      tag_376\n        /* \"#utility.yul\":11095:11097   */\n      0x2e\n        /* \"#utility.yul\":11090:11093   */\n      dup4\n        /* \"#utility.yul\":11031:11098   */\n      tag_242\n      jump\t// in\n    tag_376:\n        /* \"#utility.yul\":11024:11098   */\n      swap2\n      pop\n        /* \"#utility.yul\":11107:11200   */\n      tag_377\n        /* \"#utility.yul\":11196:11199   */\n      dup3\n        /* \"#utility.yul\":11107:11200   */\n      tag_259\n      jump\t// in\n    tag_377:\n        /* \"#utility.yul\":11225:11227   */\n      0x40\n        /* \"#utility.yul\":11220:11223   */\n      dup3\n        /* \"#utility.yul\":11216:11228   */\n      add\n        /* \"#utility.yul\":11209:11228   */\n      swap1\n      pop\n        /* \"#utility.yul\":10868:11234   */\n      swap2\n      swap1\n      pop\n      jump\t// out\n        /* \"#utility.yul\":11240:11659   */\n    tag_111:\n        /* \"#utility.yul\":11406:11410   */\n      0x00\n        /* \"#utility.yul\":11444:11446   */\n      0x20\n        /* \"#utility.yul\":11433:11442   */\n      dup3\n        /* \"#utility.yul\":11429:11447   */\n      add\n        /* \"#utility.yul\":11421:11447   */\n      swap1\n      pop\n        /* \"#utility.yul\":11493:11502   */\n      dup2\n        /* \"#utility.yul\":11487:11491   */\n      dup2\n        /* \"#utility.yul\":11483:11503   */\n      sub\n        /* \"#utility.yul\":11479:11480   */\n      0x00\n        /* \"#utility.yul\":11468:11477   */\n      dup4\n        /* \"#utility.yul\":11464:11481   */\n      add\n        /* \"#utility.yul\":11457:11504   */\n      mstore\n        /* \"#utility.yul\":11521:11652   */\n      tag_379\n        /* \"#utility.yul\":11647:11651   */\n      dup2\n        /* \"#utility.yul\":11521:11652   */\n      tag_260\n      jump\t// in\n    tag_379:\n        /* \"#utility.yul\":11513:11652   */\n      swap1\n      pop\n        /* \"#utility.yul\":11240:11659   */\n      swap2\n      swap1\n      pop\n      jump\t// out\n        /* \"#utility.yul\":11665:11846   */\n    tag_261:\n        /* \"#utility.yul\":11805:11838   */\n      0x6f6e6c7920706c617965722063616e20766965772074686520616e7377657200\n        /* \"#utility.yul\":11801:11802   */\n      0x00\n        /* \"#utility.yul\":11793:11799   */\n      dup3\n        /* \"#utility.yul\":11789:11803   */\n      add\n        /* \"#utility.yul\":11782:11839   */\n      mstore\n        /* \"#utility.yul\":11665:11846   */\n      pop\n      jump\t// out\n        /* \"#utility.yul\":11852:12218   */\n    tag_262:\n        /* \"#utility.yul\":11994:11997   */\n      0x00\n        /* \"#utility.yul\":12015:12082   */\n      tag_382\n        /* \"#utility.yul\":12079:12081   */\n      0x1f\n        /* \"#utility.yul\":12074:12077   */\n      dup4\n        /* \"#utility.yul\":12015:12082   */\n      tag_242\n      jump\t// in\n    tag_382:\n        /* \"#utility.yul\":12008:12082   */\n      swap2\n      pop\n        /* \"#utility.yul\":12091:12184   */\n      tag_383\n        /* \"#utility.yul\":12180:12183   */\n      dup3\n        /* \"#utility.yul\":12091:12184   */\n      tag_261\n      jump\t// in\n    tag_383:\n        /* \"#utility.yul\":12209:12211   */\n      0x20\n        /* \"#utility.yul\":12204:12207   */\n      dup3\n        /* \"#utility.yul\":12200:12212   */\n      add\n        /* \"#utility.yul\":12193:12212   */\n      swap1\n      pop\n        /* \"#utility.yul\":11852:12218   */\n      swap2\n      swap1\n      pop\n      jump\t// out\n        /* \"#utility.yul\":12224:12643   */\n    tag_117:\n        /* \"#utility.yul\":12390:12394   */\n      0x00\n        /* \"#utility.yul\":12428:12430   */\n      0x20\n        /* \"#utility.yul\":12417:12426   */\n      dup3\n        /* \"#utility.yul\":12413:12431   */\n      add\n        /* \"#utility.yul\":12405:12431   */\n      swap1\n      pop\n        /* \"#utility.yul\":12477:12486   */\n      dup2\n        /* \"#utility.yul\":12471:12475   */\n      dup2\n        /* \"#utility.yul\":12467:12487   */\n      sub\n        /* \"#utility.yul\":12463:12464   */\n      0x00\n        /* \"#utility.yul\":12452:12461   */\n      dup4\n        /* \"#utility.yul\":12448:12465   */\n      add\n        /* \"#utility.yul\":12441:12488   */\n      mstore\n        /* \"#utility.yul\":12505:12636   */\n      tag_385\n        /* \"#utility.yul\":12631:12635   */\n      dup2\n        /* \"#utility.yul\":12505:12636   */\n      tag_262\n      jump\t// in\n    tag_385:\n        /* \"#utility.yul\":12497:12636   */\n      swap1\n      pop\n        /* \"#utility.yul\":12224:12643   */\n      swap2\n      swap1\n      pop\n      jump\t// out\n        /* \"#utility.yul\":12649:12819   */\n    tag_263:\n        /* \"#utility.yul\":12789:12811   */\n      0x506c6179657220646f206e6f742072657665616c000000000000000000000000\n        /* \"#utility.yul\":12785:12786   */\n      0x00\n        /* \"#utility.yul\":12777:12783   */\n      dup3\n        /* \"#utility.yul\":12773:12787   */\n      add\n        /* \"#utility.yul\":12766:12812   */\n      mstore\n        /* \"#utility.yul\":12649:12819   */\n      pop\n      jump\t// out\n        /* \"#utility.yul\":12825:13191   */\n    tag_264:\n        /* \"#utility.yul\":12967:12970   */\n      0x00\n        /* \"#utility.yul\":12988:13055   */\n      tag_388\n        /* \"#utility.yul\":13052:13054   */\n      0x14\n        /* \"#utility.yul\":13047:13050   */\n      dup4\n        /* \"#utility.yul\":12988:13055   */\n      tag_242\n      jump\t// in\n    tag_388:\n        /* \"#utility.yul\":12981:13055   */\n      swap2\n      pop\n        /* \"#utility.yul\":13064:13157   */\n      tag_389\n        /* \"#utility.yul\":13153:13156   */\n      dup3\n        /* \"#utility.yul\":13064:13157   */\n      tag_263\n      jump\t// in\n    tag_389:\n        /* \"#utility.yul\":13182:13184   */\n      0x20\n        /* \"#utility.yul\":13177:13180   */\n      dup3\n        /* \"#utility.yul\":13173:13185   */\n      add\n        /* \"#utility.yul\":13166:13185   */\n      swap1\n      pop\n        /* \"#utility.yul\":12825:13191   */\n      swap2\n      swap1\n      pop\n      jump\t// out\n        /* \"#utility.yul\":13197:13616   */\n    tag_125:\n        /* \"#utility.yul\":13363:13367   */\n      0x00\n        /* \"#utility.yul\":13401:13403   */\n      0x20\n        /* \"#utility.yul\":13390:13399   */\n      dup3\n        /* \"#utility.yul\":13386:13404   */\n      add\n        /* \"#utility.yul\":13378:13404   */\n      swap1\n      pop\n        /* \"#utility.yul\":13450:13459   */\n      dup2\n        /* \"#utility.yul\":13444:13448   */\n      dup2\n        /* \"#utility.yul\":13440:13460   */\n      sub\n        /* \"#utility.yul\":13436:13437   */\n      0x00\n        /* \"#utility.yul\":13425:13434   */\n      dup4\n        /* \"#utility.yul\":13421:13438   */\n      add\n        /* \"#utility.yul\":13414:13461   */\n      mstore\n        /* \"#utility.yul\":13478:13609   */\n      tag_391\n        /* \"#utility.yul\":13604:13608   */\n      dup2\n        /* \"#utility.yul\":13478:13609   */\n      tag_264\n      jump\t// in\n    tag_391:\n        /* \"#utility.yul\":13470:13609   */\n      swap1\n      pop\n        /* \"#utility.yul\":13197:13616   */\n      swap2\n      swap1\n      pop\n      jump\t// out\n        /* \"#utility.yul\":13622:13791   */\n    tag_265:\n        /* \"#utility.yul\":13762:13783   */\n      0x4f776e657220646f206e6f742072657665616c00000000000000000000000000\n        /* \"#utility.yul\":13758:13759   */\n      0x00\n        /* \"#utility.yul\":13750:13756   */\n      dup3\n        /* \"#utility.yul\":13746:13760   */\n      add\n        /* \"#utility.yul\":13739:13784   */\n      mstore\n        /* \"#utility.yul\":13622:13791   */\n      pop\n      jump\t// out\n        /* \"#utility.yul\":13797:14163   */\n    tag_266:\n        /* \"#utility.yul\":13939:13942   */\n      0x00\n        /* \"#utility.yul\":13960:14027   */\n      tag_394\n        /* \"#utility.yul\":14024:14026   */\n      0x13\n        /* \"#utility.yul\":14019:14022   */\n      dup4\n        /* \"#utility.yul\":13960:14027   */\n      tag_242\n      jump\t// in\n    tag_394:\n        /* \"#utility.yul\":13953:14027   */\n      swap2\n      pop\n        /* \"#utility.yul\":14036:14129   */\n      tag_395\n        /* \"#utility.yul\":14125:14128   */\n      dup3\n        /* \"#utility.yul\":14036:14129   */\n      tag_265\n      jump\t// in\n    tag_395:\n        /* \"#utility.yul\":14154:14156   */\n      0x20\n        /* \"#utility.yul\":14149:14152   */\n      dup3\n        /* \"#utility.yul\":14145:14157   */\n      add\n        /* \"#utility.yul\":14138:14157   */\n      swap1\n      pop\n        /* \"#utility.yul\":13797:14163   */\n      swap2\n      swap1\n      pop\n      jump\t// out\n        /* \"#utility.yul\":14169:14588   */\n    tag_132:\n        /* \"#utility.yul\":14335:14339   */\n      0x00\n        /* \"#utility.yul\":14373:14375   */\n      0x20\n        /* \"#utility.yul\":14362:14371   */\n      dup3\n        /* \"#utility.yul\":14358:14376   */\n      add\n        /* \"#utility.yul\":14350:14376   */\n      swap1\n      pop\n        /* \"#utility.yul\":14422:14431   */\n      dup2\n        /* \"#utility.yul\":14416:14420   */\n      dup2\n        /* \"#utility.yul\":14412:14432   */\n      sub\n        /* \"#utility.yul\":14408:14409   */\n      0x00\n        /* \"#utility.yul\":14397:14406   */\n      dup4\n        /* \"#utility.yul\":14393:14410   */\n      add\n        /* \"#utility.yul\":14386:14433   */\n      mstore\n        /* \"#utility.yul\":14450:14581   */\n      tag_397\n        /* \"#utility.yul\":14576:14580   */\n      dup2\n        /* \"#utility.yul\":14450:14581   */\n      tag_266\n      jump\t// in\n    tag_397:\n        /* \"#utility.yul\":14442:14581   */\n      swap1\n      pop\n        /* \"#utility.yul\":14169:14588   */\n      swap2\n      swap1\n      pop\n      jump\t// out\n        /* \"#utility.yul\":14594:14815   */\n    tag_267:\n        /* \"#utility.yul\":14734:14768   */\n      0x6f776e65722063616e206e6f74205375626d697420706c6179657220416e7377\n        /* \"#utility.yul\":14730:14731   */\n      0x00\n        /* \"#utility.yul\":14722:14728   */\n      dup3\n        /* \"#utility.yul\":14718:14732   */\n      add\n        /* \"#utility.yul\":14711:14769   */\n      mstore\n        /* \"#utility.yul\":14803:14807   */\n      0x6572000000000000000000000000000000000000000000000000000000000000\n        /* \"#utility.yul\":14798:14800   */\n      0x20\n        /* \"#utility.yul\":14790:14796   */\n      dup3\n        /* \"#utility.yul\":14786:14801   */\n      add\n        /* \"#utility.yul\":14779:14808   */\n      mstore\n        /* \"#utility.yul\":14594:14815   */\n      pop\n      jump\t// out\n        /* \"#utility.yul\":14821:15187   */\n    tag_268:\n        /* \"#utility.yul\":14963:14966   */\n      0x00\n        /* \"#utility.yul\":14984:15051   */\n      tag_400\n        /* \"#utility.yul\":15048:15050   */\n      0x22\n        /* \"#utility.yul\":15043:15046   */\n      dup4\n        /* \"#utility.yul\":14984:15051   */\n      tag_242\n      jump\t// in\n    tag_400:\n        /* \"#utility.yul\":14977:15051   */\n      swap2\n      pop\n        /* \"#utility.yul\":15060:15153   */\n      tag_401\n        /* \"#utility.yul\":15149:15152   */\n      dup3\n        /* \"#utility.yul\":15060:15153   */\n      tag_267\n      jump\t// in\n    tag_401:\n        /* \"#utility.yul\":15178:15180   */\n      0x40\n        /* \"#utility.yul\":15173:15176   */\n      dup3\n        /* \"#utility.yul\":15169:15181   */\n      add\n        /* \"#utility.yul\":15162:15181   */\n      swap1\n      pop\n        /* \"#utility.yul\":14821:15187   */\n      swap2\n      swap1\n      pop\n      jump\t// out\n        /* \"#utility.yul\":15193:15612   */\n    tag_140:\n        /* \"#utility.yul\":15359:15363   */\n      0x00\n        /* \"#utility.yul\":15397:15399   */\n      0x20\n        /* \"#utility.yul\":15386:15395   */\n      dup3\n        /* \"#utility.yul\":15382:15400   */\n      add\n        /* \"#utility.yul\":15374:15400   */\n      swap1\n      pop\n        /* \"#utility.yul\":15446:15455   */\n      dup2\n        /* \"#utility.yul\":15440:15444   */\n      dup2\n        /* \"#utility.yul\":15436:15456   */\n      sub\n        /* \"#utility.yul\":15432:15433   */\n      0x00\n        /* \"#utility.yul\":15421:15430   */\n      dup4\n        /* \"#utility.yul\":15417:15434   */\n      add\n        /* \"#utility.yul\":15410:15457   */\n      mstore\n        /* \"#utility.yul\":15474:15605   */\n      tag_403\n        /* \"#utility.yul\":15600:15604   */\n      dup2\n        /* \"#utility.yul\":15474:15605   */\n      tag_268\n      jump\t// in\n    tag_403:\n        /* \"#utility.yul\":15466:15605   */\n      swap1\n      pop\n        /* \"#utility.yul\":15193:15612   */\n      swap2\n      swap1\n      pop\n      jump\t// out\n        /* \"#utility.yul\":15618:15790   */\n    tag_269:\n        /* \"#utility.yul\":15758:15782   */\n      0x4f6e6c79206f776e65722063616e20636f6e6669726d00000000000000000000\n        /* \"#utility.yul\":15754:15755   */\n      0x00\n        /* \"#utility.yul\":15746:15752   */\n      dup3\n        /* \"#utility.yul\":15742:15756   */\n      add\n        /* \"#utility.yul\":15735:15783   */\n      mstore\n        /* \"#utility.yul\":15618:15790   */\n      pop\n      jump\t// out\n        /* \"#utility.yul\":15796:16162   */\n    tag_270:\n        /* \"#utility.yul\":15938:15941   */\n      0x00\n        /* \"#utility.yul\":15959:16026   */\n      tag_406\n        /* \"#utility.yul\":16023:16025   */\n      0x16\n        /* \"#utility.yul\":16018:16021   */\n      dup4\n        /* \"#utility.yul\":15959:16026   */\n      tag_242\n      jump\t// in\n    tag_406:\n        /* \"#utility.yul\":15952:16026   */\n      swap2\n      pop\n        /* \"#utility.yul\":16035:16128   */\n      tag_407\n        /* \"#utility.yul\":16124:16127   */\n      dup3\n        /* \"#utility.yul\":16035:16128   */\n      tag_269\n      jump\t// in\n    tag_407:\n        /* \"#utility.yul\":16153:16155   */\n      0x20\n        /* \"#utility.yul\":16148:16151   */\n      dup3\n        /* \"#utility.yul\":16144:16156   */\n      add\n        /* \"#utility.yul\":16137:16156   */\n      swap1\n      pop\n        /* \"#utility.yul\":15796:16162   */\n      swap2\n      swap1\n      pop\n      jump\t// out\n        /* \"#utility.yul\":16168:16587   */\n    tag_177:\n        /* \"#utility.yul\":16334:16338   */\n      0x00\n        /* \"#utility.yul\":16372:16374   */\n      0x20\n        /* \"#utility.yul\":16361:16370   */\n      dup3\n        /* \"#utility.yul\":16357:16375   */\n      add\n        /* \"#utility.yul\":16349:16375   */\n      swap1\n      pop\n        /* \"#utility.yul\":16421:16430   */\n      dup2\n        /* \"#utility.yul\":16415:16419   */\n      dup2\n        /* \"#utility.yul\":16411:16431   */\n      sub\n        /* \"#utility.yul\":16407:16408   */\n      0x00\n        /* \"#utility.yul\":16396:16405   */\n      dup4\n        /* \"#utility.yul\":16392:16409   */\n      add\n        /* \"#utility.yul\":16385:16432   */\n      mstore\n        /* \"#utility.yul\":16449:16580   */\n      tag_409\n        /* \"#utility.yul\":16575:16579   */\n      dup2\n        /* \"#utility.yul\":16449:16580   */\n      tag_270\n      jump\t// in\n    tag_409:\n        /* \"#utility.yul\":16441:16580   */\n      swap1\n      pop\n        /* \"#utility.yul\":16168:16587   */\n      swap2\n      swap1\n      pop\n      jump\t// out\n        /* \"#utility.yul\":16593:16829   */\n    tag_271:\n        /* \"#utility.yul\":16733:16767   */\n      0x596f7520617265206e6f7420616c6c6f7720746f20636f6e6669726d2077696e\n        /* \"#utility.yul\":16729:16730   */\n      0x00\n        /* \"#utility.yul\":16721:16727   */\n      dup3\n        /* \"#utility.yul\":16717:16731   */\n      add\n        /* \"#utility.yul\":16710:16768   */\n      mstore\n        /* \"#utility.yul\":16802:16821   */\n      0x6e65722061742074686973207374616765000000000000000000000000000000\n        /* \"#utility.yul\":16797:16799   */\n      0x20\n        /* \"#utility.yul\":16789:16795   */\n      dup3\n        /* \"#utility.yul\":16785:16800   */\n      add\n        /* \"#utility.yul\":16778:16822   */\n      mstore\n        /* \"#utility.yul\":16593:16829   */\n      pop\n      jump\t// out\n        /* \"#utility.yul\":16835:17201   */\n    tag_272:\n        /* \"#utility.yul\":16977:16980   */\n      0x00\n        /* \"#utility.yul\":16998:17065   */\n      tag_412\n        /* \"#utility.yul\":17062:17064   */\n      0x31\n        /* \"#utility.yul\":17057:17060   */\n      dup4\n        /* \"#utility.yul\":16998:17065   */\n      tag_242\n      jump\t// in\n    tag_412:\n        /* \"#utility.yul\":16991:17065   */\n      swap2\n      pop\n        /* \"#utility.yul\":17074:17167   */\n      tag_413\n        /* \"#utility.yul\":17163:17166   */\n      dup3\n        /* \"#utility.yul\":17074:17167   */\n      tag_271\n      jump\t// in\n    tag_413:\n        /* \"#utility.yul\":17192:17194   */\n      0x40\n        /* \"#utility.yul\":17187:17190   */\n      dup3\n        /* \"#utility.yul\":17183:17195   */\n      add\n        /* \"#utility.yul\":17176:17195   */\n      swap1\n      pop\n        /* \"#utility.yul\":16835:17201   */\n      swap2\n      swap1\n      pop\n      jump\t// out\n        /* \"#utility.yul\":17207:17626   */\n    tag_184:\n        /* \"#utility.yul\":17373:17377   */\n      0x00\n        /* \"#utility.yul\":17411:17413   */\n      0x20\n        /* \"#utility.yul\":17400:17409   */\n      dup3\n        /* \"#utility.yul\":17396:17414   */\n      add\n        /* \"#utility.yul\":17388:17414   */\n      swap1\n      pop\n        /* \"#utility.yul\":17460:17469   */\n      dup2\n        /* \"#utility.yul\":17454:17458   */\n      dup2\n        /* \"#utility.yul\":17450:17470   */\n      sub\n        /* \"#utility.yul\":17446:17447   */\n      0x00\n        /* \"#utility.yul\":17435:17444   */\n      dup4\n        /* \"#utility.yul\":17431:17448   */\n      add\n        /* \"#utility.yul\":17424:17471   */\n      mstore\n        /* \"#utility.yul\":17488:17619   */\n      tag_415\n        /* \"#utility.yul\":17614:17618   */\n      dup2\n        /* \"#utility.yul\":17488:17619   */\n      tag_272\n      jump\t// in\n    tag_415:\n        /* \"#utility.yul\":17480:17619   */\n      swap1\n      pop\n        /* \"#utility.yul\":17207:17626   */\n      swap2\n      swap1\n      pop\n      jump\t// out\n        /* \"#utility.yul\":17632:17826   */\n    tag_188:\n        /* \"#utility.yul\":17672:17676   */\n      0x00\n        /* \"#utility.yul\":17692:17712   */\n      tag_417\n        /* \"#utility.yul\":17710:17711   */\n      dup3\n        /* \"#utility.yul\":17692:17712   */\n      tag_232\n      jump\t// in\n    tag_417:\n        /* \"#utility.yul\":17687:17712   */\n      swap2\n      pop\n        /* \"#utility.yul\":17726:17746   */\n      tag_418\n        /* \"#utility.yul\":17744:17745   */\n      dup4\n        /* \"#utility.yul\":17726:17746   */\n      tag_232\n      jump\t// in\n    tag_418:\n        /* \"#utility.yul\":17721:17746   */\n      swap3\n      pop\n        /* \"#utility.yul\":17770:17771   */\n      dup3\n        /* \"#utility.yul\":17767:17768   */\n      dup3\n        /* \"#utility.yul\":17763:17772   */\n      sub\n        /* \"#utility.yul\":17755:17772   */\n      swap1\n      pop\n        /* \"#utility.yul\":17794:17795   */\n      dup2\n        /* \"#utility.yul\":17788:17792   */\n      dup2\n        /* \"#utility.yul\":17785:17796   */\n      gt\n        /* \"#utility.yul\":17782:17819   */\n      iszero\n      tag_419\n      jumpi\n        /* \"#utility.yul\":17799:17817   */\n      tag_420\n      tag_254\n      jump\t// in\n    tag_420:\n        /* \"#utility.yul\":17782:17819   */\n    tag_419:\n        /* \"#utility.yul\":17632:17826   */\n      swap3\n      swap2\n      pop\n      pop\n      jump\t// out\n        /* \"#utility.yul\":17832:17946   */\n    tag_273:\n      pop\n      jump\t// out\n        /* \"#utility.yul\":17952:18316   */\n    tag_274:\n        /* \"#utility.yul\":18094:18097   */\n      0x00\n        /* \"#utility.yul\":18115:18181   */\n      tag_423\n        /* \"#utility.yul\":18179:18180   */\n      0x00\n        /* \"#utility.yul\":18174:18177   */\n      dup4\n        /* \"#utility.yul\":18115:18181   */\n      tag_242\n      jump\t// in\n    tag_423:\n        /* \"#utility.yul\":18108:18181   */\n      swap2\n      pop\n        /* \"#utility.yul\":18190:18283   */\n      tag_424\n        /* \"#utility.yul\":18279:18282   */\n      dup3\n        /* \"#utility.yul\":18190:18283   */\n      tag_273\n      jump\t// in\n    tag_424:\n        /* \"#utility.yul\":18308:18309   */\n      0x00\n        /* \"#utility.yul\":18303:18306   */\n      dup3\n        /* \"#utility.yul\":18299:18310   */\n      add\n        /* \"#utility.yul\":18292:18310   */\n      swap1\n      pop\n        /* \"#utility.yul\":17952:18316   */\n      swap2\n      swap1\n      pop\n      jump\t// out\n        /* \"#utility.yul\":18322:18741   */\n    tag_191:\n        /* \"#utility.yul\":18488:18492   */\n      0x00\n        /* \"#utility.yul\":18526:18528   */\n      0x20\n        /* \"#utility.yul\":18515:18524   */\n      dup3\n        /* \"#utility.yul\":18511:18529   */\n      add\n        /* \"#utility.yul\":18503:18529   */\n      swap1\n      pop\n        /* \"#utility.yul\":18575:18584   */\n      dup2\n        /* \"#utility.yul\":18569:18573   */\n      dup2\n        /* \"#utility.yul\":18565:18585   */\n      sub\n        /* \"#utility.yul\":18561:18562   */\n      0x00\n        /* \"#utility.yul\":18550:18559   */\n      dup4\n        /* \"#utility.yul\":18546:18563   */\n      add\n        /* \"#utility.yul\":18539:18586   */\n      mstore\n        /* \"#utility.yul\":18603:18734   */\n      tag_426\n        /* \"#utility.yul\":18729:18733   */\n      dup2\n        /* \"#utility.yul\":18603:18734   */\n      tag_274\n      jump\t// in\n    tag_426:\n        /* \"#utility.yul\":18595:18734   */\n      swap1\n      pop\n        /* \"#utility.yul\":18322:18741   */\n      swap2\n      swap1\n      pop\n      jump\t// out\n        /* \"#utility.yul\":18747:18920   */\n    tag_275:\n        /* \"#utility.yul\":18887:18912   */\n      0x4f6e6c7920706c617965722063616e20636f6e6669726d000000000000000000\n        /* \"#utility.yul\":18883:18884   */\n      0x00\n        /* \"#utility.yul\":18875:18881   */\n      dup3\n        /* \"#utility.yul\":18871:18885   */\n      add\n        /* \"#utility.yul\":18864:18913   */\n      mstore\n        /* \"#utility.yul\":18747:18920   */\n      pop\n      jump\t// out\n        /* \"#utility.yul\":18926:19292   */\n    tag_276:\n        /* \"#utility.yul\":19068:19071   */\n      0x00\n        /* \"#utility.yul\":19089:19156   */\n      tag_429\n        /* \"#utility.yul\":19153:19155   */\n      0x17\n        /* \"#utility.yul\":19148:19151   */\n      dup4\n        /* \"#utility.yul\":19089:19156   */\n      tag_242\n      jump\t// in\n    tag_429:\n        /* \"#utility.yul\":19082:19156   */\n      swap2\n      pop\n        /* \"#utility.yul\":19165:19258   */\n      tag_430\n        /* \"#utility.yul\":19254:19257   */\n      dup3\n        /* \"#utility.yul\":19165:19258   */\n      tag_275\n      jump\t// in\n    tag_430:\n        /* \"#utility.yul\":19283:19285   */\n      0x20\n        /* \"#utility.yul\":19278:19281   */\n      dup3\n        /* \"#utility.yul\":19274:19286   */\n      add\n        /* \"#utility.yul\":19267:19286   */\n      swap1\n      pop\n        /* \"#utility.yul\":18926:19292   */\n      swap2\n      swap1\n      pop\n      jump\t// out\n        /* \"#utility.yul\":19298:19717   */\n    tag_195:\n        /* \"#utility.yul\":19464:19468   */\n      0x00\n        /* \"#utility.yul\":19502:19504   */\n      0x20\n        /* \"#utility.yul\":19491:19500   */\n      dup3\n        /* \"#utility.yul\":19487:19505   */\n      add\n        /* \"#utility.yul\":19479:19505   */\n      swap1\n      pop\n        /* \"#utility.yul\":19551:19560   */\n      dup2\n        /* \"#utility.yul\":19545:19549   */\n      dup2\n        /* \"#utility.yul\":19541:19561   */\n      sub\n        /* \"#utility.yul\":19537:19538   */\n      0x00\n        /* \"#utility.yul\":19526:19535   */\n      dup4\n        /* \"#utility.yul\":19522:19539   */\n      add\n        /* \"#utility.yul\":19515:19562   */\n      mstore\n        /* \"#utility.yul\":19579:19710   */\n      tag_432\n        /* \"#utility.yul\":19705:19709   */\n      dup2\n        /* \"#utility.yul\":19579:19710   */\n      tag_276\n      jump\t// in\n    tag_432:\n        /* \"#utility.yul\":19571:19710   */\n      swap1\n      pop\n        /* \"#utility.yul\":19298:19717   */\n      swap2\n      swap1\n      pop\n      jump\t// out\n        /* \"#utility.yul\":19723:19903   */\n    tag_277:\n        /* \"#utility.yul\":19863:19895   */\n      0x6f6e6c79206f776e65722063616e20766965772074686520616e737765720000\n        /* \"#utility.yul\":19859:19860   */\n      0x00\n        /* \"#utility.yul\":19851:19857   */\n      dup3\n        /* \"#utility.yul\":19847:19861   */\n      add\n        /* \"#utility.yul\":19840:19896   */\n      mstore\n        /* \"#utility.yul\":19723:19903   */\n      pop\n      jump\t// out\n        /* \"#utility.yul\":19909:20275   */\n    tag_278:\n        /* \"#utility.yul\":20051:20054   */\n      0x00\n        /* \"#utility.yul\":20072:20139   */\n      tag_435\n        /* \"#utility.yul\":20136:20138   */\n      0x1e\n        /* \"#utility.yul\":20131:20134   */\n      dup4\n        /* \"#utility.yul\":20072:20139   */\n      tag_242\n      jump\t// in\n    tag_435:\n        /* \"#utility.yul\":20065:20139   */\n      swap2\n      pop\n        /* \"#utility.yul\":20148:20241   */\n      tag_436\n        /* \"#utility.yul\":20237:20240   */\n      dup3\n        /* \"#utility.yul\":20148:20241   */\n      tag_277\n      jump\t// in\n    tag_436:\n        /* \"#utility.yul\":20266:20268   */\n      0x20\n        /* \"#utility.yul\":20261:20264   */\n      dup3\n        /* \"#utility.yul\":20257:20269   */\n      add\n        /* \"#utility.yul\":20250:20269   */\n      swap1\n      pop\n        /* \"#utility.yul\":19909:20275   */\n      swap2\n      swap1\n      pop\n      jump\t// out\n        /* \"#utility.yul\":20281:20700   */\n    tag_210:\n        /* \"#utility.yul\":20447:20451   */\n      0x00\n        /* \"#utility.yul\":20485:20487   */\n      0x20\n        /* \"#utility.yul\":20474:20483   */\n      dup3\n        /* \"#utility.yul\":20470:20488   */\n      add\n        /* \"#utility.yul\":20462:20488   */\n      swap1\n      pop\n        /* \"#utility.yul\":20534:20543   */\n      dup2\n        /* \"#utility.yul\":20528:20532   */\n      dup2\n        /* \"#utility.yul\":20524:20544   */\n      sub\n        /* \"#utility.yul\":20520:20521   */\n      0x00\n        /* \"#utility.yul\":20509:20518   */\n      dup4\n        /* \"#utility.yul\":20505:20522   */\n      add\n        /* \"#utility.yul\":20498:20545   */\n      mstore\n        /* \"#utility.yul\":20562:20693   */\n      tag_438\n        /* \"#utility.yul\":20688:20692   */\n      dup2\n        /* \"#utility.yul\":20562:20693   */\n      tag_278\n      jump\t// in\n    tag_438:\n        /* \"#utility.yul\":20554:20693   */\n      swap1\n      pop\n        /* \"#utility.yul\":20281:20700   */\n      swap2\n      swap1\n      pop\n      jump\t// out\n        /* \"#utility.yul\":20706:20887   */\n    tag_279:\n        /* \"#utility.yul\":20846:20879   */\n      0x4f6e6c7920706c617965722063616e207375626d69742050617373776f726400\n        /* \"#utility.yul\":20842:20843   */\n      0x00\n        /* \"#utility.yul\":20834:20840   */\n      dup3\n        /* \"#utility.yul\":20830:20844   */\n      add\n        /* \"#utility.yul\":20823:20880   */\n      mstore\n        /* \"#utility.yul\":20706:20887   */\n      pop\n      jump\t// out\n        /* \"#utility.yul\":20893:21259   */\n    tag_280:\n        /* \"#utility.yul\":21035:21038   */\n      0x00\n        /* \"#utility.yul\":21056:21123   */\n      tag_441\n        /* \"#utility.yul\":21120:21122   */\n      0x1f\n        /* \"#utility.yul\":21115:21118   */\n      dup4\n        /* \"#utility.yul\":21056:21123   */\n      tag_242\n      jump\t// in\n    tag_441:\n        /* \"#utility.yul\":21049:21123   */\n      swap2\n      pop\n        /* \"#utility.yul\":21132:21225   */\n      tag_442\n        /* \"#utility.yul\":21221:21224   */\n      dup3\n        /* \"#utility.yul\":21132:21225   */\n      tag_279\n      jump\t// in\n    tag_442:\n        /* \"#utility.yul\":21250:21252   */\n      0x20\n        /* \"#utility.yul\":21245:21248   */\n      dup3\n        /* \"#utility.yul\":21241:21253   */\n      add\n        /* \"#utility.yul\":21234:21253   */\n      swap1\n      pop\n        /* \"#utility.yul\":20893:21259   */\n      swap2\n      swap1\n      pop\n      jump\t// out\n        /* \"#utility.yul\":21265:21684   */\n    tag_214:\n        /* \"#utility.yul\":21431:21435   */\n      0x00\n        /* \"#utility.yul\":21469:21471   */\n      0x20\n        /* \"#utility.yul\":21458:21467   */\n      dup3\n        /* \"#utility.yul\":21454:21472   */\n      add\n        /* \"#utility.yul\":21446:21472   */\n      swap1\n      pop\n        /* \"#utility.yul\":21518:21527   */\n      dup2\n        /* \"#utility.yul\":21512:21516   */\n      dup2\n        /* \"#utility.yul\":21508:21528   */\n      sub\n        /* \"#utility.yul\":21504:21505   */\n      0x00\n        /* \"#utility.yul\":21493:21502   */\n      dup4\n        /* \"#utility.yul\":21489:21506   */\n      add\n        /* \"#utility.yul\":21482:21529   */\n      mstore\n        /* \"#utility.yul\":21546:21677   */\n      tag_444\n        /* \"#utility.yul\":21672:21676   */\n      dup2\n        /* \"#utility.yul\":21546:21677   */\n      tag_280\n      jump\t// in\n    tag_444:\n        /* \"#utility.yul\":21538:21677   */\n      swap1\n      pop\n        /* \"#utility.yul\":21265:21684   */\n      swap2\n      swap1\n      pop\n      jump\t// out\n        /* \"#utility.yul\":21690:21870   */\n    tag_281:\n        /* \"#utility.yul\":21738:21815   */\n      0x4e487b7100000000000000000000000000000000000000000000000000000000\n        /* \"#utility.yul\":21735:21736   */\n      0x00\n        /* \"#utility.yul\":21728:21816   */\n      mstore\n        /* \"#utility.yul\":21835:21839   */\n      0x12\n        /* \"#utility.yul\":21832:21833   */\n      0x04\n        /* \"#utility.yul\":21825:21840   */\n      mstore\n        /* \"#utility.yul\":21859:21863   */\n      0x24\n        /* \"#utility.yul\":21856:21857   */\n      0x00\n        /* \"#utility.yul\":21849:21864   */\n      revert\n        /* \"#utility.yul\":21876:22052   */\n    tag_225:\n        /* \"#utility.yul\":21908:21909   */\n      0x00\n        /* \"#utility.yul\":21925:21945   */\n      tag_447\n        /* \"#utility.yul\":21943:21944   */\n      dup3\n        /* \"#utility.yul\":21925:21945   */\n      tag_232\n      jump\t// in\n    tag_447:\n        /* \"#utility.yul\":21920:21945   */\n      swap2\n      pop\n        /* \"#utility.yul\":21959:21979   */\n      tag_448\n        /* \"#utility.yul\":21977:21978   */\n      dup4\n        /* \"#utility.yul\":21959:21979   */\n      tag_232\n      jump\t// in\n    tag_448:\n        /* \"#utility.yul\":21954:21979   */\n      swap3\n      pop\n        /* \"#utility.yul\":21998:21999   */\n      dup3\n        /* \"#utility.yul\":21988:22023   */\n      tag_449\n      jumpi\n        /* \"#utility.yul\":22003:22021   */\n      tag_450\n      tag_281\n      jump\t// in\n    tag_450:\n        /* \"#utility.yul\":21988:22023   */\n    tag_449:\n        /* \"#utility.yul\":22044:22045   */\n      dup3\n        /* \"#utility.yul\":22041:22042   */\n      dup3\n        /* \"#utility.yul\":22037:22046   */\n      mod\n        /* \"#utility.yul\":22032:22046   */\n      swap1\n      pop\n        /* \"#utility.yul\":21876:22052   */\n      swap3\n      swap2\n      pop\n      pop\n      jump\t// out\n    stop\n    data_5bf2a40c643c32a91271cfb84ebaedf3782dbc5f3dc9227048c7865bf3996704 506c617965722077696e2c20706c6561736520636f6e6669726d20796f7520617265207468652057696e6e657220616e64206765742072657761726421\n    data_5df918448539201a5bf172a217e04027eea7222bcd2565f78e2d9aefbb4afa7c 4f776e65722077696e2c20706c6561736520636f6e6669726d20796f7520617265207468652057696e6e657220616e64206765742072657761726421\n\n    auxdata: 0xa264697066735822122031a50cd688e02c519fd39808ad33f8f1ba6fb50a8f7f5273b08316b690dec61364736f6c63430008220033\n}\n",
				"bytecode": {
					"linkReferences": {},
					"object": "6080604052666a94d74f4300006009556064600a5566b1a2bc2ec50000600b553480156029575f5ffd5b50335f5f6101000a81548173ffffffffffffffffffffffffffffffffffffffff021916908373ffffffffffffffffffffffffffffffffffffffff160217905550611d31806100765f395ff3fe6080604052600436106100c1575f3560e01c80638f693d9e1161007e578063d3e8237d11610058578063d3e8237d1461025f578063d55c9c8414610289578063d79830cf14610293578063ff2364b5146102bd576100c1565b80638f693d9e146101db578063b9705a031461020b578063d24257c014610235576100c1565b80633a902846146100c557806348db5f89146100f5578063528654d71461011f5780635f5820111461015c5780637152f800146101865780638da5cb5b146101b1575b5f5ffd5b6100df60048036038101906100da9190611234565b6102fa565b6040516100ec9190611281565b60405180910390f35b348015610100575f5ffd5b50610109610528565b60405161011691906112d9565b60405180910390f35b34801561012a575f5ffd5b50610145600480360381019061014091906112f2565b61054d565b6040516101539291906113a7565b60405180910390f35b348015610167575f5ffd5b506101706106bd565b60405161017d9190611281565b60405180910390f35b348015610191575f5ffd5b5061019a610755565b6040516101a89291906113d5565b60405180910390f35b3480156101bc575f5ffd5b506101c561089e565b6040516101d291906112d9565b60405180910390f35b6101f560048036038101906101f09190611234565b6108c2565b6040516102029190611281565b60405180910390f35b348015610216575f5ffd5b5061021f610b2d565b60405161022c9190611281565b60405180910390f35b348015610240575f5ffd5b50610249610b33565b6040516102569190611281565b60405180910390f35b34801561026a575f5ffd5b50610273610b39565b6040516102809190611281565b60405180910390f35b610291610b3f565b005b34801561029e575f5ffd5b506102a7610f5f565b6040516102b49190611281565b60405180910390f35b3480156102c8575f5ffd5b506102e360048036038101906102de91906112f2565b610ff6565b6040516102f19291906113a7565b60405180910390f35b5f5f5f9054906101000a900473ffffffffffffffffffffffffffffffffffffffff1673ffffffffffffffffffffffffffffffffffffffff163373ffffffffffffffffffffffffffffffffffffffff1614610389576040517f08c379a00000000000000000000000000000000000000000000000000000000081526004016103809061144d565b60405180910390fd5b6001600381111561039d5761039c61146b565b5b600860019054906101000a900460ff1660038111156103bf576103be61146b565b5b036103ff576040517f08c379a00000000000000000000000000000000000000000000000000000000081526004016103f6906114e2565b60405180910390fd5b6003808111156104125761041161146b565b5b600860019054906101000a900460ff1660038111156104345761043361146b565b5b03610474576040517f08c379a000000000000000000000000000000000000000000000000000000000815260040161046b90611570565b60405180910390fd5b60095434146104b8576040517f08c379a00000000000000000000000000000000000000000000000000000000081526004016104af906115fe565b60405180910390fd5b34600c5f8282546104c99190611649565b9250508190555082600181905550816002819055506104ec600154600254611166565b6003819055506001600860016101000a81548160ff021916908360038111156105185761051761146b565b5b0217905550600154905092915050565b60045f9054906101000a900473ffffffffffffffffffffffffffffffffffffffff1681565b5f60605f5f9054906101000a900473ffffffffffffffffffffffffffffffffffffffff1673ffffffffffffffffffffffffffffffffffffffff163373ffffffffffffffffffffffffffffffffffffffff16146105de576040517f08c379a00000000000000000000000000000000000000000000000000000000081526004016105d5906116c6565b60405180910390fd5b5f600154846040516020016105f4929190611704565b6040516020818303038152906040528051906020012090506003548114610650576040517f08c379a00000000000000000000000000000000000000000000000000000000081526004016106479061179f565b60405180910390fd5b6002600860016101000a81548160ff021916908360038111156106765761067561146b565b5b021790555060016040518060400160405280600981526020017f436f6e6669726d656400000000000000000000000000000000000000000000008152509250925050915091565b5f60045f9054906101000a900473ffffffffffffffffffffffffffffffffffffffff1673ffffffffffffffffffffffffffffffffffffffff163373ffffffffffffffffffffffffffffffffffffffff161461074d576040517f08c379a000000000000000000000000000000000000000000000000000000000815260040161074490611807565b60405180910390fd5b600554905090565b5f60606002600381111561076c5761076b61146b565b5b60085f9054906101000a900460ff16600381111561078d5761078c61146b565b5b146107cd576040517f08c379a00000000000000000000000000000000000000000000000000000000081526004016107c49061186f565b60405180910390fd5b600260038111156107e1576107e061146b565b5b600860019054906101000a900460ff1660038111156108035761080261146b565b5b14610843576040517f08c379a000000000000000000000000000000000000000000000000000000000815260040161083a906118d7565b60405180910390fd5b5f61084c611198565b90506003811161087a57806040518060600160405280603c8152602001611cc0603c9139925092505061089a565b806040518060600160405280603d8152602001611c83603d913992509250505b9091565b5f5f9054906101000a900473ffffffffffffffffffffffffffffffffffffffff1681565b5f5f5f9054906101000a900473ffffffffffffffffffffffffffffffffffffffff1673ffffffffffffffffffffffffffffffffffffffff163373ffffffffffffffffffffffffffffffffffffffff1603610951576040517f08c379a000000000000000000000000000000000000000000000000000000000815260040161094890611965565b60405180910390fd5b600160038111156109655761096461146b565b5b60085f9054906101000a900460ff1660038111156109865761098561146b565b5b036109c6576040517f08c379a00000000000000000000000000000000000000000000000000000000081526004016109bd906114e2565b60405180910390fd5b6003808111156109d9576109d861146b565b5b60085f9054906101000a900460ff1660038111156109fa576109f961146b565b5b03610a3a576040517f08c379a0000000000000000000000000000000000000000000000000000000008152600401610a3190611570565b60405180910390fd5b6009543414610a7e576040517f08c379a0000000000000000000000000000000000000000000000000000000008152600401610a75906115fe565b60405180910390fd5b34600c5f828254610a8f9190611649565b925050819055503360045f6101000a81548173ffffffffffffffffffffffffffffffffffffffff021916908373ffffffffffffffffffffffffffffffffffffffff1602179055508260058190555081600681905550610af26005546006546111cb565b600781905550600160085f6101000a81548160ff02191690836003811115610b1d57610b1c61146b565b5b0217905550600554905092915050565b600b5481565b60095481565b600a5481565b60026003811115610b5357610b5261146b565b5b60085f9054906101000a900460ff166003811115610b7457610b7361146b565b5b14610bb4576040517f08c379a0000000000000000000000000000000000000000000000000000000008152600401610bab9061186f565b60405180910390fd5b60026003811115610bc857610bc761146b565b5b600860019054906101000a900460ff166003811115610bea57610be961146b565b5b14610c2a576040517f08c379a0000000000000000000000000000000000000000000000000000000008152600401610c21906118d7565b60405180910390fd5b5f610c33611198565b905060038111610dcf575f5f9054906101000a900473ffffffffffffffffffffffffffffffffffffffff1673ffffffffffffffffffffffffffffffffffffffff163373ffffffffffffffffffffffffffffffffffffffff1614610ccb576040517f08c379a0000000000000000000000000000000000000000000000000000000008152600401610cc2906119cd565b60405180910390fd5b60026003811115610cdf57610cde61146b565b5b600860019054906101000a900460ff166003811115610d0157610d0061146b565b5b14610d41576040517f08c379a0000000000000000000000000000000000000000000000000000000008152600401610d3890611a5b565b60405180910390fd5b6003600860016101000a81548160ff02191690836003811115610d6757610d6661146b565b5b0217905550600b54600c5f828254610d7f9190611a79565b92505081905550600b543414610dca576040517f08c379a0000000000000000000000000000000000000000000000000000000008152600401610dc190611acf565b60405180910390fd5b610f5c565b60045f9054906101000a900473ffffffffffffffffffffffffffffffffffffffff1673ffffffffffffffffffffffffffffffffffffffff163373ffffffffffffffffffffffffffffffffffffffff1614610e5e576040517f08c379a0000000000000000000000000000000000000000000000000000000008152600401610e5590611b37565b60405180910390fd5b60026003811115610e7257610e7161146b565b5b60085f9054906101000a900460ff166003811115610e9357610e9261146b565b5b14610ed3576040517f08c379a0000000000000000000000000000000000000000000000000000000008152600401610eca90611a5b565b60405180910390fd5b600360085f6101000a81548160ff02191690836003811115610ef857610ef761146b565b5b0217905550600b54600c5f828254610f109190611a79565b92505081905550600b543414610f5b576040517f08c379a0000000000000000000000000000000000000000000000000000000008152600401610f5290611acf565b60405180910390fd5b5b50565b5f5f5f9054906101000a900473ffffffffffffffffffffffffffffffffffffffff1673ffffffffffffffffffffffffffffffffffffffff163373ffffffffffffffffffffffffffffffffffffffff1614610fee576040517f08c379a0000000000000000000000000000000000000000000000000000000008152600401610fe590611b9f565b60405180910390fd5b600154905090565b5f606060045f9054906101000a900473ffffffffffffffffffffffffffffffffffffffff1673ffffffffffffffffffffffffffffffffffffffff163373ffffffffffffffffffffffffffffffffffffffff1614611088576040517f08c379a000000000000000000000000000000000000000000000000000000000815260040161107f90611c07565b60405180910390fd5b5f6005548460405160200161109e929190611704565b60405160208183030381529060405280519060200120905060075481146110fa576040517f08c379a00000000000000000000000000000000000000000000000000000000081526004016110f19061179f565b60405180910390fd5b600260085f6101000a81548160ff0219169083600381111561111f5761111e61146b565b5b021790555060016040518060400160405280600981526020017f436f6e6669726d656400000000000000000000000000000000000000000000008152509250925050915091565b5f828260405160200161117a929190611704565b60405160208183030381529060405280519060200120905092915050565b5f5f600160066001546005546111ae9190611649565b6111b89190611c52565b6111c29190611649565b90508091505090565b5f82826040516020016111df929190611704565b60405160208183030381529060405280519060200120905092915050565b5f5ffd5b5f819050919050565b61121381611201565b811461121d575f5ffd5b50565b5f8135905061122e8161120a565b92915050565b5f5f6040838503121561124a576112496111fd565b5b5f61125785828601611220565b925050602061126885828601611220565b9150509250929050565b61127b81611201565b82525050565b5f6020820190506112945f830184611272565b92915050565b5f73ffffffffffffffffffffffffffffffffffffffff82169050919050565b5f6112c38261129a565b9050919050565b6112d3816112b9565b82525050565b5f6020820190506112ec5f8301846112ca565b92915050565b5f60208284031215611307576113066111fd565b5b5f61131484828501611220565b91505092915050565b5f8115159050919050565b6113318161131d565b82525050565b5f81519050919050565b5f82825260208201905092915050565b8281835e5f83830152505050565b5f601f19601f8301169050919050565b5f61137982611337565b6113838185611341565b9350611393818560208601611351565b61139c8161135f565b840191505092915050565b5f6040820190506113ba5f830185611328565b81810360208301526113cc818461136f565b90509392505050565b5f6040820190506113e85f830185611272565b81810360208301526113fa818461136f565b90509392505050565b7f6f6e6c79206f776e6572000000000000000000000000000000000000000000005f82015250565b5f611437600a83611341565b915061144282611403565b602082019050919050565b5f6020820190508181035f8301526114648161142b565b9050919050565b7f4e487b71000000000000000000000000000000000000000000000000000000005f52602160045260245ffd5b7f596f75206861766520616c7265616479207375626d69747465640000000000005f82015250565b5f6114cc601a83611341565b91506114d782611498565b602082019050919050565b5f6020820190508181035f8301526114f9816114c0565b9050919050565b7f5468652067616d652069732066696e6973682c206e6577207375626d697373695f8201527f6f6e206973206e6f7420616c6c6f776564000000000000000000000000000000602082015250565b5f61155a603183611341565b915061156582611500565b604082019050919050565b5f6020820190508181035f8301526115878161154e565b9050919050565b7f596f75206d7573742073656e642065786163746c7920302e30322065746865725f8201527f20746f2062657400000000000000000000000000000000000000000000000000602082015250565b5f6115e8602783611341565b91506115f38261158e565b604082019050919050565b5f6020820190508181035f830152611615816115dc565b9050919050565b7f4e487b71000000000000000000000000000000000000000000000000000000005f52601160045260245ffd5b5f61165382611201565b915061165e83611201565b92508282019050808211156116765761167561161c565b5b92915050565b7f4f6e6c79206f776e65722063616e207375626d69742050617373776f726400005f82015250565b5f6116b0601e83611341565b91506116bb8261167c565b602082019050919050565b5f6020820190508181035f8301526116dd816116a4565b9050919050565b5f819050919050565b6116fe6116f982611201565b6116e4565b82525050565b5f61170f82856116ed565b60208201915061171f82846116ed565b6020820191508190509392505050565b7f5468652050617373776f7264206973206e6f7420636f72726563742c20506c655f8201527f6173652074727920616761696e2e000000000000000000000000000000000000602082015250565b5f611789602e83611341565b91506117948261172f565b604082019050919050565b5f6020820190508181035f8301526117b68161177d565b9050919050565b7f6f6e6c7920706c617965722063616e20766965772074686520616e73776572005f82015250565b5f6117f1601f83611341565b91506117fc826117bd565b602082019050919050565b5f6020820190508181035f83015261181e816117e5565b9050919050565b7f506c6179657220646f206e6f742072657665616c0000000000000000000000005f82015250565b5f611859601483611341565b915061186482611825565b602082019050919050565b5f6020820190508181035f8301526118868161184d565b9050919050565b7f4f776e657220646f206e6f742072657665616c000000000000000000000000005f82015250565b5f6118c1601383611341565b91506118cc8261188d565b602082019050919050565b5f6020820190508181035f8301526118ee816118b5565b9050919050565b7f6f776e65722063616e206e6f74205375626d697420706c6179657220416e73775f8201527f6572000000000000000000000000000000000000000000000000000000000000602082015250565b5f61194f602283611341565b915061195a826118f5565b604082019050919050565b5f6020820190508181035f83015261197c81611943565b9050919050565b7f4f6e6c79206f776e65722063616e20636f6e6669726d000000000000000000005f82015250565b5f6119b7601683611341565b91506119c282611983565b602082019050919050565b5f6020820190508181035f8301526119e4816119ab565b9050919050565b7f596f7520617265206e6f7420616c6c6f7720746f20636f6e6669726d2077696e5f8201527f6e65722061742074686973207374616765000000000000000000000000000000602082015250565b5f611a45603183611341565b9150611a50826119eb565b604082019050919050565b5f6020820190508181035f830152611a7281611a39565b9050919050565b5f611a8382611201565b9150611a8e83611201565b9250828203905081811115611aa657611aa561161c565b5b92915050565b50565b5f611aba5f83611341565b9150611ac582611aac565b5f82019050919050565b5f6020820190508181035f830152611ae681611aaf565b9050919050565b7f4f6e6c7920706c617965722063616e20636f6e6669726d0000000000000000005f82015250565b5f611b21601783611341565b9150611b2c82611aed565b602082019050919050565b5f6020820190508181035f830152611b4e81611b15565b9050919050565b7f6f6e6c79206f776e65722063616e20766965772074686520616e7377657200005f82015250565b5f611b89601e83611341565b9150611b9482611b55565b602082019050919050565b5f6020820190508181035f830152611bb681611b7d565b9050919050565b7f4f6e6c7920706c617965722063616e207375626d69742050617373776f7264005f82015250565b5f611bf1601f83611341565b9150611bfc82611bbd565b602082019050919050565b5f6020820190508181035f830152611c1e81611be5565b9050919050565b7f4e487b71000000000000000000000000000000000000000000000000000000005f52601260045260245ffd5b5f611c5c82611201565b9150611c6783611201565b925082611c7757611c76611c25565b5b82820690509291505056fe506c617965722077696e2c20706c6561736520636f6e6669726d20796f7520617265207468652057696e6e657220616e642067657420726577617264214f776e65722077696e2c20706c6561736520636f6e6669726d20796f7520617265207468652057696e6e657220616e64206765742072657761726421a264697066735822122031a50cd688e02c519fd39808ad33f8f1ba6fb50a8f7f5273b08316b690dec61364736f6c63430008220033",
					"opcodes": "PUSH1 0x80 PUSH1 0x40 MSTORE PUSH7 0x6A94D74F430000 PUSH1 0x9 SSTORE PUSH1 0x64 PUSH1 0xA SSTORE PUSH7 0xB1A2BC2EC50000 PUSH1 0xB SSTORE CALLVALUE DUP1 ISZERO PUSH1 0x29 JUMPI PUSH0 PUSH0 REVERT JUMPDEST POP CALLER PUSH0 PUSH0 PUSH2 0x100 EXP DUP2 SLOAD DUP2 PUSH20 0xFFFFFFFFFFFFFFFFFFFFFFFFFFFFFFFFFFFFFFFF MUL NOT AND SWAP1 DUP4 PUSH20 0xFFFFFFFFFFFFFFFFFFFFFFFFFFFFFFFFFFFFFFFF AND MUL OR SWAP1 SSTORE POP PUSH2 0x1D31 DUP1 PUSH2 0x76 PUSH0 CODECOPY PUSH0 RETURN INVALID PUSH1 0x80 PUSH1 0x40 MSTORE PUSH1 0x4 CALLDATASIZE LT PUSH2 0xC1 JUMPI PUSH0 CALLDATALOAD PUSH1 0xE0 SHR DUP1 PUSH4 0x8F693D9E GT PUSH2 0x7E JUMPI DUP1 PUSH4 0xD3E8237D GT PUSH2 0x58 JUMPI DUP1 PUSH4 0xD3E8237D EQ PUSH2 0x25F JUMPI DUP1 PUSH4 0xD55C9C84 EQ PUSH2 0x289 JUMPI DUP1 PUSH4 0xD79830CF EQ PUSH2 0x293 JUMPI DUP1 PUSH4 0xFF2364B5 EQ PUSH2 0x2BD JUMPI PUSH2 0xC1 JUMP JUMPDEST DUP1 PUSH4 0x8F693D9E EQ PUSH2 0x1DB JUMPI DUP1 PUSH4 0xB9705A03 EQ PUSH2 0x20B JUMPI DUP1 PUSH4 0xD24257C0 EQ PUSH2 0x235 JUMPI PUSH2 0xC1 JUMP JUMPDEST DUP1 PUSH4 0x3A902846 EQ PUSH2 0xC5 JUMPI DUP1 PUSH4 0x48DB5F89 EQ PUSH2 0xF5 JUMPI DUP1 PUSH4 0x528654D7 EQ PUSH2 0x11F JUMPI DUP1 PUSH4 0x5F582011 EQ PUSH2 0x15C JUMPI DUP1 PUSH4 0x7152F800 EQ PUSH2 0x186 JUMPI DUP1 PUSH4 0x8DA5CB5B EQ PUSH2 0x1B1 JUMPI JUMPDEST PUSH0 PUSH0 REVERT JUMPDEST PUSH2 0xDF PUSH1 0x4 DUP1 CALLDATASIZE SUB DUP2 ADD SWAP1 PUSH2 0xDA SWAP2 SWAP1 PUSH2 0x1234 JUMP JUMPDEST PUSH2 0x2FA JUMP JUMPDEST PUSH1 0x40 MLOAD PUSH2 0xEC SWAP2 SWAP1 PUSH2 0x1281 JUMP JUMPDEST PUSH1 0x40 MLOAD DUP1 SWAP2 SUB SWAP1 RETURN JUMPDEST CALLVALUE DUP1 ISZERO PUSH2 0x100 JUMPI PUSH0 PUSH0 REVERT JUMPDEST POP PUSH2 0x109 PUSH2 0x528 JUMP JUMPDEST PUSH1 0x40 MLOAD PUSH2 0x116 SWAP2 SWAP1 PUSH2 0x12D9 JUMP JUMPDEST PUSH1 0x40 MLOAD DUP1 SWAP2 SUB SWAP1 RETURN JUMPDEST CALLVALUE DUP1 ISZERO PUSH2 0x12A JUMPI PUSH0 PUSH0 REVERT JUMPDEST POP PUSH2 0x145 PUSH1 0x4 DUP1 CALLDATASIZE SUB DUP2 ADD SWAP1 PUSH2 0x140 SWAP2 SWAP1 PUSH2 0x12F2 JUMP JUMPDEST PUSH2 0x54D JUMP JUMPDEST PUSH1 0x40 MLOAD PUSH2 0x153 SWAP3 SWAP2 SWAP1 PUSH2 0x13A7 JUMP JUMPDEST PUSH1 0x40 MLOAD DUP1 SWAP2 SUB SWAP1 RETURN JUMPDEST CALLVALUE DUP1 ISZERO PUSH2 0x167 JUMPI PUSH0 PUSH0 REVERT JUMPDEST POP PUSH2 0x170 PUSH2 0x6BD JUMP JUMPDEST PUSH1 0x40 MLOAD PUSH2 0x17D SWAP2 SWAP1 PUSH2 0x1281 JUMP JUMPDEST PUSH1 0x40 MLOAD DUP1 SWAP2 SUB SWAP1 RETURN JUMPDEST CALLVALUE DUP1 ISZERO PUSH2 0x191 JUMPI PUSH0 PUSH0 REVERT JUMPDEST POP PUSH2 0x19A PUSH2 0x755 JUMP JUMPDEST PUSH1 0x40 MLOAD PUSH2 0x1A8 SWAP3 SWAP2 SWAP1 PUSH2 0x13D5 JUMP JUMPDEST PUSH1 0x40 MLOAD DUP1 SWAP2 SUB SWAP1 RETURN JUMPDEST CALLVALUE DUP1 ISZERO PUSH2 0x1BC JUMPI PUSH0 PUSH0 REVERT JUMPDEST POP PUSH2 0x1C5 PUSH2 0x89E JUMP JUMPDEST PUSH1 0x40 MLOAD PUSH2 0x1D2 SWAP2 SWAP1 PUSH2 0x12D9 JUMP JUMPDEST PUSH1 0x40 MLOAD DUP1 SWAP2 SUB SWAP1 RETURN JUMPDEST PUSH2 0x1F5 PUSH1 0x4 DUP1 CALLDATASIZE SUB DUP2 ADD SWAP1 PUSH2 0x1F0 SWAP2 SWAP1 PUSH2 0x1234 JUMP JUMPDEST PUSH2 0x8C2 JUMP JUMPDEST PUSH1 0x40 MLOAD PUSH2 0x202 SWAP2 SWAP1 PUSH2 0x1281 JUMP JUMPDEST PUSH1 0x40 MLOAD DUP1 SWAP2 SUB SWAP1 RETURN JUMPDEST CALLVALUE DUP1 ISZERO PUSH2 0x216 JUMPI PUSH0 PUSH0 REVERT JUMPDEST POP PUSH2 0x21F PUSH2 0xB2D JUMP JUMPDEST PUSH1 0x40 MLOAD PUSH2 0x22C SWAP2 SWAP1 PUSH2 0x1281 JUMP JUMPDEST PUSH1 0x40 MLOAD DUP1 SWAP2 SUB SWAP1 RETURN JUMPDEST CALLVALUE DUP1 ISZERO PUSH2 0x240 JUMPI PUSH0 PUSH0 REVERT JUMPDEST POP PUSH2 0x249 PUSH2 0xB33 JUMP JUMPDEST PUSH1 0x40 MLOAD PUSH2 0x256 SWAP2 SWAP1 PUSH2 0x1281 JUMP JUMPDEST PUSH1 0x40 MLOAD DUP1 SWAP2 SUB SWAP1 RETURN JUMPDEST CALLVALUE DUP1 ISZERO PUSH2 0x26A JUMPI PUSH0 PUSH0 REVERT JUMPDEST POP PUSH2 0x273 PUSH2 0xB39 JUMP JUMPDEST PUSH1 0x40 MLOAD PUSH2 0x280 SWAP2 SWAP1 PUSH2 0x1281 JUMP JUMPDEST PUSH1 0x40 MLOAD DUP1 SWAP2 SUB SWAP1 RETURN JUMPDEST PUSH2 0x291 PUSH2 0xB3F JUMP JUMPDEST STOP JUMPDEST CALLVALUE DUP1 ISZERO PUSH2 0x29E JUMPI PUSH0 PUSH0 REVERT JUMPDEST POP PUSH2 0x2A7 PUSH2 0xF5F JUMP JUMPDEST PUSH1 0x40 MLOAD PUSH2 0x2B4 SWAP2 SWAP1 PUSH2 0x1281 JUMP JUMPDEST PUSH1 0x40 MLOAD DUP1 SWAP2 SUB SWAP1 RETURN JUMPDEST CALLVALUE DUP1 ISZERO PUSH2 0x2C8 JUMPI PUSH0 PUSH0 REVERT JUMPDEST POP PUSH2 0x2E3 PUSH1 0x4 DUP1 CALLDATASIZE SUB DUP2 ADD SWAP1 PUSH2 0x2DE SWAP2 SWAP1 PUSH2 0x12F2 JUMP JUMPDEST PUSH2 0xFF6 JUMP JUMPDEST PUSH1 0x40 MLOAD PUSH2 0x2F1 SWAP3 SWAP2 SWAP1 PUSH2 0x13A7 JUMP JUMPDEST PUSH1 0x40 MLOAD DUP1 SWAP2 SUB SWAP1 RETURN JUMPDEST PUSH0 PUSH0 PUSH0 SWAP1 SLOAD SWAP1 PUSH2 0x100 EXP SWAP1 DIV PUSH20 0xFFFFFFFFFFFFFFFFFFFFFFFFFFFFFFFFFFFFFFFF AND PUSH20 0xFFFFFFFFFFFFFFFFFFFFFFFFFFFFFFFFFFFFFFFF AND CALLER PUSH20 0xFFFFFFFFFFFFFFFFFFFFFFFFFFFFFFFFFFFFFFFF AND EQ PUSH2 0x389 JUMPI PUSH1 0x40 MLOAD PUSH32 0x8C379A000000000000000000000000000000000000000000000000000000000 DUP2 MSTORE PUSH1 0x4 ADD PUSH2 0x380 SWAP1 PUSH2 0x144D JUMP JUMPDEST PUSH1 0x40 MLOAD DUP1 SWAP2 SUB SWAP1 REVERT JUMPDEST PUSH1 0x1 PUSH1 0x3 DUP2 GT ISZERO PUSH2 0x39D JUMPI PUSH2 0x39C PUSH2 0x146B JUMP JUMPDEST JUMPDEST PUSH1 0x8 PUSH1 0x1 SWAP1 SLOAD SWAP1 PUSH2 0x100 EXP SWAP1 DIV PUSH1 0xFF AND PUSH1 0x3 DUP2 GT ISZERO PUSH2 0x3BF JUMPI PUSH2 0x3BE PUSH2 0x146B JUMP JUMPDEST JUMPDEST SUB PUSH2 0x3FF JUMPI PUSH1 0x40 MLOAD PUSH32 0x8C379A000000000000000000000000000000000000000000000000000000000 DUP2 MSTORE PUSH1 0x4 ADD PUSH2 0x3F6 SWAP1 PUSH2 0x14E2 JUMP JUMPDEST PUSH1 0x40 MLOAD DUP1 SWAP2 SUB SWAP1 REVERT JUMPDEST PUSH1 0x3 DUP1 DUP2 GT ISZERO PUSH2 0x412 JUMPI PUSH2 0x411 PUSH2 0x146B JUMP JUMPDEST JUMPDEST PUSH1 0x8 PUSH1 0x1 SWAP1 SLOAD SWAP1 PUSH2 0x100 EXP SWAP1 DIV PUSH1 0xFF AND PUSH1 0x3 DUP2 GT ISZERO PUSH2 0x434 JUMPI PUSH2 0x433 PUSH2 0x146B JUMP JUMPDEST JUMPDEST SUB PUSH2 0x474 JUMPI PUSH1 0x40 MLOAD PUSH32 0x8C379A000000000000000000000000000000000000000000000000000000000 DUP2 MSTORE PUSH1 0x4 ADD PUSH2 0x46B SWAP1 PUSH2 0x1570 JUMP JUMPDEST PUSH1 0x40 MLOAD DUP1 SWAP2 SUB SWAP1 REVERT JUMPDEST PUSH1 0x9 SLOAD CALLVALUE EQ PUSH2 0x4B8 JUMPI PUSH1 0x40 MLOAD PUSH32 0x8C379A000000000000000000000000000000000000000000000000000000000 DUP2 MSTORE PUSH1 0x4 ADD PUSH2 0x4AF SWAP1 PUSH2 0x15FE JUMP JUMPDEST PUSH1 0x40 MLOAD DUP1 SWAP2 SUB SWAP1 REVERT JUMPDEST CALLVALUE PUSH1 0xC PUSH0 DUP3 DUP3 SLOAD PUSH2 0x4C9 SWAP2 SWAP1 PUSH2 0x1649 JUMP JUMPDEST SWAP3 POP POP DUP2 SWAP1 SSTORE POP DUP3 PUSH1 0x1 DUP2 SWAP1 SSTORE POP DUP2 PUSH1 0x2 DUP2 SWAP1 SSTORE POP PUSH2 0x4EC PUSH1 0x1 SLOAD PUSH1 0x2 SLOAD PUSH2 0x1166 JUMP JUMPDEST PUSH1 0x3 DUP2 SWAP1 SSTORE POP PUSH1 0x1 PUSH1 0x8 PUSH1 0x1 PUSH2 0x100 EXP DUP2 SLOAD DUP2 PUSH1 0xFF MUL NOT AND SWAP1 DUP4 PUSH1 0x3 DUP2 GT ISZERO PUSH2 0x518 JUMPI PUSH2 0x517 PUSH2 0x146B JUMP JUMPDEST JUMPDEST MUL OR SWAP1 SSTORE POP PUSH1 0x1 SLOAD SWAP1 POP SWAP3 SWAP2 POP POP JUMP JUMPDEST PUSH1 0x4 PUSH0 SWAP1 SLOAD SWAP1 PUSH2 0x100 EXP SWAP1 DIV PUSH20 0xFFFFFFFFFFFFFFFFFFFFFFFFFFFFFFFFFFFFFFFF AND DUP2 JUMP JUMPDEST PUSH0 PUSH1 0x60 PUSH0 PUSH0 SWAP1 SLOAD SWAP1 PUSH2 0x100 EXP SWAP1 DIV PUSH20 0xFFFFFFFFFFFFFFFFFFFFFFFFFFFFFFFFFFFFFFFF AND PUSH20 0xFFFFFFFFFFFFFFFFFFFFFFFFFFFFFFFFFFFFFFFF AND CALLER PUSH20 0xFFFFFFFFFFFFFFFFFFFFFFFFFFFFFFFFFFFFFFFF AND EQ PUSH2 0x5DE JUMPI PUSH1 0x40 MLOAD PUSH32 0x8C379A000000000000000000000000000000000000000000000000000000000 DUP2 MSTORE PUSH1 0x4 ADD PUSH2 0x5D5 SWAP1 PUSH2 0x16C6 JUMP JUMPDEST PUSH1 0x40 MLOAD DUP1 SWAP2 SUB SWAP1 REVERT JUMPDEST PUSH0 PUSH1 0x1 SLOAD DUP5 PUSH1 0x40 MLOAD PUSH1 0x20 ADD PUSH2 0x5F4 SWAP3 SWAP2 SWAP1 PUSH2 0x1704 JUMP JUMPDEST PUSH1 0x40 MLOAD PUSH1 0x20 DUP2 DUP4 SUB SUB DUP2 MSTORE SWAP1 PUSH1 0x40 MSTORE DUP1 MLOAD SWAP1 PUSH1 0x20 ADD KECCAK256 SWAP1 POP PUSH1 0x3 SLOAD DUP2 EQ PUSH2 0x650 JUMPI PUSH1 0x40 MLOAD PUSH32 0x8C379A000000000000000000000000000000000000000000000000000000000 DUP2 MSTORE PUSH1 0x4 ADD PUSH2 0x647 SWAP1 PUSH2 0x179F JUMP JUMPDEST PUSH1 0x40 MLOAD DUP1 SWAP2 SUB SWAP1 REVERT JUMPDEST PUSH1 0x2 PUSH1 0x8 PUSH1 0x1 PUSH2 0x100 EXP DUP2 SLOAD DUP2 PUSH1 0xFF MUL NOT AND SWAP1 DUP4 PUSH1 0x3 DUP2 GT ISZERO PUSH2 0x676 JUMPI PUSH2 0x675 PUSH2 0x146B JUMP JUMPDEST JUMPDEST MUL OR SWAP1 SSTORE POP PUSH1 0x1 PUSH1 0x40 MLOAD DUP1 PUSH1 0x40 ADD PUSH1 0x40 MSTORE DUP1 PUSH1 0x9 DUP2 MSTORE PUSH1 0x20 ADD PUSH32 0x436F6E6669726D65640000000000000000000000000000000000000000000000 DUP2 MSTORE POP SWAP3 POP SWAP3 POP POP SWAP2 POP SWAP2 JUMP JUMPDEST PUSH0 PUSH1 0x4 PUSH0 SWAP1 SLOAD SWAP1 PUSH2 0x100 EXP SWAP1 DIV PUSH20 0xFFFFFFFFFFFFFFFFFFFFFFFFFFFFFFFFFFFFFFFF AND PUSH20 0xFFFFFFFFFFFFFFFFFFFFFFFFFFFFFFFFFFFFFFFF AND CALLER PUSH20 0xFFFFFFFFFFFFFFFFFFFFFFFFFFFFFFFFFFFFFFFF AND EQ PUSH2 0x74D JUMPI PUSH1 0x40 MLOAD PUSH32 0x8C379A000000000000000000000000000000000000000000000000000000000 DUP2 MSTORE PUSH1 0x4 ADD PUSH2 0x744 SWAP1 PUSH2 0x1807 JUMP JUMPDEST PUSH1 0x40 MLOAD DUP1 SWAP2 SUB SWAP1 REVERT JUMPDEST PUSH1 0x5 SLOAD SWAP1 POP SWAP1 JUMP JUMPDEST PUSH0 PUSH1 0x60 PUSH1 0x2 PUSH1 0x3 DUP2 GT ISZERO PUSH2 0x76C JUMPI PUSH2 0x76B PUSH2 0x146B JUMP JUMPDEST JUMPDEST PUSH1 0x8 PUSH0 SWAP1 SLOAD SWAP1 PUSH2 0x100 EXP SWAP1 DIV PUSH1 0xFF AND PUSH1 0x3 DUP2 GT ISZERO PUSH2 0x78D JUMPI PUSH2 0x78C PUSH2 0x146B JUMP JUMPDEST JUMPDEST EQ PUSH2 0x7CD JUMPI PUSH1 0x40 MLOAD PUSH32 0x8C379A000000000000000000000000000000000000000000000000000000000 DUP2 MSTORE PUSH1 0x4 ADD PUSH2 0x7C4 SWAP1 PUSH2 0x186F JUMP JUMPDEST PUSH1 0x40 MLOAD DUP1 SWAP2 SUB SWAP1 REVERT JUMPDEST PUSH1 0x2 PUSH1 0x3 DUP2 GT ISZERO PUSH2 0x7E1 JUMPI PUSH2 0x7E0 PUSH2 0x146B JUMP JUMPDEST JUMPDEST PUSH1 0x8 PUSH1 0x1 SWAP1 SLOAD SWAP1 PUSH2 0x100 EXP SWAP1 DIV PUSH1 0xFF AND PUSH1 0x3 DUP2 GT ISZERO PUSH2 0x803 JUMPI PUSH2 0x802 PUSH2 0x146B JUMP JUMPDEST JUMPDEST EQ PUSH2 0x843 JUMPI PUSH1 0x40 MLOAD PUSH32 0x8C379A000000000000000000000000000000000000000000000000000000000 DUP2 MSTORE PUSH1 0x4 ADD PUSH2 0x83A SWAP1 PUSH2 0x18D7 JUMP JUMPDEST PUSH1 0x40 MLOAD DUP1 SWAP2 SUB SWAP1 REVERT JUMPDEST PUSH0 PUSH2 0x84C PUSH2 0x1198 JUMP JUMPDEST SWAP1 POP PUSH1 0x3 DUP2 GT PUSH2 0x87A JUMPI DUP1 PUSH1 0x40 MLOAD DUP1 PUSH1 0x60 ADD PUSH1 0x40 MSTORE DUP1 PUSH1 0x3C DUP2 MSTORE PUSH1 0x20 ADD PUSH2 0x1CC0 PUSH1 0x3C SWAP2 CODECOPY SWAP3 POP SWAP3 POP POP PUSH2 0x89A JUMP JUMPDEST DUP1 PUSH1 0x40 MLOAD DUP1 PUSH1 0x60 ADD PUSH1 0x40 MSTORE DUP1 PUSH1 0x3D DUP2 MSTORE PUSH1 0x20 ADD PUSH2 0x1C83 PUSH1 0x3D SWAP2 CODECOPY SWAP3 POP SWAP3 POP POP JUMPDEST SWAP1 SWAP2 JUMP JUMPDEST PUSH0 PUSH0 SWAP1 SLOAD SWAP1 PUSH2 0x100 EXP SWAP1 DIV PUSH20 0xFFFFFFFFFFFFFFFFFFFFFFFFFFFFFFFFFFFFFFFF AND DUP2 JUMP JUMPDEST PUSH0 PUSH0 PUSH0 SWAP1 SLOAD SWAP1 PUSH2 0x100 EXP SWAP1 DIV PUSH20 0xFFFFFFFFFFFFFFFFFFFFFFFFFFFFFFFFFFFFFFFF AND PUSH20 0xFFFFFFFFFFFFFFFFFFFFFFFFFFFFFFFFFFFFFFFF AND CALLER PUSH20 0xFFFFFFFFFFFFFFFFFFFFFFFFFFFFFFFFFFFFFFFF AND SUB PUSH2 0x951 JUMPI PUSH1 0x40 MLOAD PUSH32 0x8C379A000000000000000000000000000000000000000000000000000000000 DUP2 MSTORE PUSH1 0x4 ADD PUSH2 0x948 SWAP1 PUSH2 0x1965 JUMP JUMPDEST PUSH1 0x40 MLOAD DUP1 SWAP2 SUB SWAP1 REVERT JUMPDEST PUSH1 0x1 PUSH1 0x3 DUP2 GT ISZERO PUSH2 0x965 JUMPI PUSH2 0x964 PUSH2 0x146B JUMP JUMPDEST JUMPDEST PUSH1 0x8 PUSH0 SWAP1 SLOAD SWAP1 PUSH2 0x100 EXP SWAP1 DIV PUSH1 0xFF AND PUSH1 0x3 DUP2 GT ISZERO PUSH2 0x986 JUMPI PUSH2 0x985 PUSH2 0x146B JUMP JUMPDEST JUMPDEST SUB PUSH2 0x9C6 JUMPI PUSH1 0x40 MLOAD PUSH32 0x8C379A000000000000000000000000000000000000000000000000000000000 DUP2 MSTORE PUSH1 0x4 ADD PUSH2 0x9BD SWAP1 PUSH2 0x14E2 JUMP JUMPDEST PUSH1 0x40 MLOAD DUP1 SWAP2 SUB SWAP1 REVERT JUMPDEST PUSH1 0x3 DUP1 DUP2 GT ISZERO PUSH2 0x9D9 JUMPI PUSH2 0x9D8 PUSH2 0x146B JUMP JUMPDEST JUMPDEST PUSH1 0x8 PUSH0 SWAP1 SLOAD SWAP1 PUSH2 0x100 EXP SWAP1 DIV PUSH1 0xFF AND PUSH1 0x3 DUP2 GT ISZERO PUSH2 0x9FA JUMPI PUSH2 0x9F9 PUSH2 0x146B JUMP JUMPDEST JUMPDEST SUB PUSH2 0xA3A JUMPI PUSH1 0x40 MLOAD PUSH32 0x8C379A000000000000000000000000000000000000000000000000000000000 DUP2 MSTORE PUSH1 0x4 ADD PUSH2 0xA31 SWAP1 PUSH2 0x1570 JUMP JUMPDEST PUSH1 0x40 MLOAD DUP1 SWAP2 SUB SWAP1 REVERT JUMPDEST PUSH1 0x9 SLOAD CALLVALUE EQ PUSH2 0xA7E JUMPI PUSH1 0x40 MLOAD PUSH32 0x8C379A000000000000000000000000000000000000000000000000000000000 DUP2 MSTORE PUSH1 0x4 ADD PUSH2 0xA75 SWAP1 PUSH2 0x15FE JUMP JUMPDEST PUSH1 0x40 MLOAD DUP1 SWAP2 SUB SWAP1 REVERT JUMPDEST CALLVALUE PUSH1 0xC PUSH0 DUP3 DUP3 SLOAD PUSH2 0xA8F SWAP2 SWAP1 PUSH2 0x1649 JUMP JUMPDEST SWAP3 POP POP DUP2 SWAP1 SSTORE POP CALLER PUSH1 0x4 PUSH0 PUSH2 0x100 EXP DUP2 SLOAD DUP2 PUSH20 0xFFFFFFFFFFFFFFFFFFFFFFFFFFFFFFFFFFFFFFFF MUL NOT AND SWAP1 DUP4 PUSH20 0xFFFFFFFFFFFFFFFFFFFFFFFFFFFFFFFFFFFFFFFF AND MUL OR SWAP1 SSTORE POP DUP3 PUSH1 0x5 DUP2 SWAP1 SSTORE POP DUP2 PUSH1 0x6 DUP2 SWAP1 SSTORE POP PUSH2 0xAF2 PUSH1 0x5 SLOAD PUSH1 0x6 SLOAD PUSH2 0x11CB JUMP JUMPDEST PUSH1 0x7 DUP2 SWAP1 SSTORE POP PUSH1 0x1 PUSH1 0x8 PUSH0 PUSH2 0x100 EXP DUP2 SLOAD DUP2 PUSH1 0xFF MUL NOT AND SWAP1 DUP4 PUSH1 0x3 DUP2 GT ISZERO PUSH2 0xB1D JUMPI PUSH2 0xB1C PUSH2 0x146B JUMP JUMPDEST JUMPDEST MUL OR SWAP1 SSTORE POP PUSH1 0x5 SLOAD SWAP1 POP SWAP3 SWAP2 POP POP JUMP JUMPDEST PUSH1 0xB SLOAD DUP2 JUMP JUMPDEST PUSH1 0x9 SLOAD DUP2 JUMP JUMPDEST PUSH1 0xA SLOAD DUP2 JUMP JUMPDEST PUSH1 0x2 PUSH1 0x3 DUP2 GT ISZERO PUSH2 0xB53 JUMPI PUSH2 0xB52 PUSH2 0x146B JUMP JUMPDEST JUMPDEST PUSH1 0x8 PUSH0 SWAP1 SLOAD SWAP1 PUSH2 0x100 EXP SWAP1 DIV PUSH1 0xFF AND PUSH1 0x3 DUP2 GT ISZERO PUSH2 0xB74 JUMPI PUSH2 0xB73 PUSH2 0x146B JUMP JUMPDEST JUMPDEST EQ PUSH2 0xBB4 JUMPI PUSH1 0x40 MLOAD PUSH32 0x8C379A000000000000000000000000000000000000000000000000000000000 DUP2 MSTORE PUSH1 0x4 ADD PUSH2 0xBAB SWAP1 PUSH2 0x186F JUMP JUMPDEST PUSH1 0x40 MLOAD DUP1 SWAP2 SUB SWAP1 REVERT JUMPDEST PUSH1 0x2 PUSH1 0x3 DUP2 GT ISZERO PUSH2 0xBC8 JUMPI PUSH2 0xBC7 PUSH2 0x146B JUMP JUMPDEST JUMPDEST PUSH1 0x8 PUSH1 0x1 SWAP1 SLOAD SWAP1 PUSH2 0x100 EXP SWAP1 DIV PUSH1 0xFF AND PUSH1 0x3 DUP2 GT ISZERO PUSH2 0xBEA JUMPI PUSH2 0xBE9 PUSH2 0x146B JUMP JUMPDEST JUMPDEST EQ PUSH2 0xC2A JUMPI PUSH1 0x40 MLOAD PUSH32 0x8C379A000000000000000000000000000000000000000000000000000000000 DUP2 MSTORE PUSH1 0x4 ADD PUSH2 0xC21 SWAP1 PUSH2 0x18D7 JUMP JUMPDEST PUSH1 0x40 MLOAD DUP1 SWAP2 SUB SWAP1 REVERT JUMPDEST PUSH0 PUSH2 0xC33 PUSH2 0x1198 JUMP JUMPDEST SWAP1 POP PUSH1 0x3 DUP2 GT PUSH2 0xDCF JUMPI PUSH0 PUSH0 SWAP1 SLOAD SWAP1 PUSH2 0x100 EXP SWAP1 DIV PUSH20 0xFFFFFFFFFFFFFFFFFFFFFFFFFFFFFFFFFFFFFFFF AND PUSH20 0xFFFFFFFFFFFFFFFFFFFFFFFFFFFFFFFFFFFFFFFF AND CALLER PUSH20 0xFFFFFFFFFFFFFFFFFFFFFFFFFFFFFFFFFFFFFFFF AND EQ PUSH2 0xCCB JUMPI PUSH1 0x40 MLOAD PUSH32 0x8C379A000000000000000000000000000000000000000000000000000000000 DUP2 MSTORE PUSH1 0x4 ADD PUSH2 0xCC2 SWAP1 PUSH2 0x19CD JUMP JUMPDEST PUSH1 0x40 MLOAD DUP1 SWAP2 SUB SWAP1 REVERT JUMPDEST PUSH1 0x2 PUSH1 0x3 DUP2 GT ISZERO PUSH2 0xCDF JUMPI PUSH2 0xCDE PUSH2 0x146B JUMP JUMPDEST JUMPDEST PUSH1 0x8 PUSH1 0x1 SWAP1 SLOAD SWAP1 PUSH2 0x100 EXP SWAP1 DIV PUSH1 0xFF AND PUSH1 0x3 DUP2 GT ISZERO PUSH2 0xD01 JUMPI PUSH2 0xD00 PUSH2 0x146B JUMP JUMPDEST JUMPDEST EQ PUSH2 0xD41 JUMPI PUSH1 0x40 MLOAD PUSH32 0x8C379A000000000000000000000000000000000000000000000000000000000 DUP2 MSTORE PUSH1 0x4 ADD PUSH2 0xD38 SWAP1 PUSH2 0x1A5B JUMP JUMPDEST PUSH1 0x40 MLOAD DUP1 SWAP2 SUB SWAP1 REVERT JUMPDEST PUSH1 0x3 PUSH1 0x8 PUSH1 0x1 PUSH2 0x100 EXP DUP2 SLOAD DUP2 PUSH1 0xFF MUL NOT AND SWAP1 DUP4 PUSH1 0x3 DUP2 GT ISZERO PUSH2 0xD67 JUMPI PUSH2 0xD66 PUSH2 0x146B JUMP JUMPDEST JUMPDEST MUL OR SWAP1 SSTORE POP PUSH1 0xB SLOAD PUSH1 0xC PUSH0 DUP3 DUP3 SLOAD PUSH2 0xD7F SWAP2 SWAP1 PUSH2 0x1A79 JUMP JUMPDEST SWAP3 POP POP DUP2 SWAP1 SSTORE POP PUSH1 0xB SLOAD CALLVALUE EQ PUSH2 0xDCA JUMPI PUSH1 0x40 MLOAD PUSH32 0x8C379A000000000000000000000000000000000000000000000000000000000 DUP2 MSTORE PUSH1 0x4 ADD PUSH2 0xDC1 SWAP1 PUSH2 0x1ACF JUMP JUMPDEST PUSH1 0x40 MLOAD DUP1 SWAP2 SUB SWAP1 REVERT JUMPDEST PUSH2 0xF5C JUMP JUMPDEST PUSH1 0x4 PUSH0 SWAP1 SLOAD SWAP1 PUSH2 0x100 EXP SWAP1 DIV PUSH20 0xFFFFFFFFFFFFFFFFFFFFFFFFFFFFFFFFFFFFFFFF AND PUSH20 0xFFFFFFFFFFFFFFFFFFFFFFFFFFFFFFFFFFFFFFFF AND CALLER PUSH20 0xFFFFFFFFFFFFFFFFFFFFFFFFFFFFFFFFFFFFFFFF AND EQ PUSH2 0xE5E JUMPI PUSH1 0x40 MLOAD PUSH32 0x8C379A000000000000000000000000000000000000000000000000000000000 DUP2 MSTORE PUSH1 0x4 ADD PUSH2 0xE55 SWAP1 PUSH2 0x1B37 JUMP JUMPDEST PUSH1 0x40 MLOAD DUP1 SWAP2 SUB SWAP1 REVERT JUMPDEST PUSH1 0x2 PUSH1 0x3 DUP2 GT ISZERO PUSH2 0xE72 JUMPI PUSH2 0xE71 PUSH2 0x146B JUMP JUMPDEST JUMPDEST PUSH1 0x8 PUSH0 SWAP1 SLOAD SWAP1 PUSH2 0x100 EXP SWAP1 DIV PUSH1 0xFF AND PUSH1 0x3 DUP2 GT ISZERO PUSH2 0xE93 JUMPI PUSH2 0xE92 PUSH2 0x146B JUMP JUMPDEST JUMPDEST EQ PUSH2 0xED3 JUMPI PUSH1 0x40 MLOAD PUSH32 0x8C379A000000000000000000000000000000000000000000000000000000000 DUP2 MSTORE PUSH1 0x4 ADD PUSH2 0xECA SWAP1 PUSH2 0x1A5B JUMP JUMPDEST PUSH1 0x40 MLOAD DUP1 SWAP2 SUB SWAP1 REVERT JUMPDEST PUSH1 0x3 PUSH1 0x8 PUSH0 PUSH2 0x100 EXP DUP2 SLOAD DUP2 PUSH1 0xFF MUL NOT AND SWAP1 DUP4 PUSH1 0x3 DUP2 GT ISZERO PUSH2 0xEF8 JUMPI PUSH2 0xEF7 PUSH2 0x146B JUMP JUMPDEST JUMPDEST MUL OR SWAP1 SSTORE POP PUSH1 0xB SLOAD PUSH1 0xC PUSH0 DUP3 DUP3 SLOAD PUSH2 0xF10 SWAP2 SWAP1 PUSH2 0x1A79 JUMP JUMPDEST SWAP3 POP POP DUP2 SWAP1 SSTORE POP PUSH1 0xB SLOAD CALLVALUE EQ PUSH2 0xF5B JUMPI PUSH1 0x40 MLOAD PUSH32 0x8C379A000000000000000000000000000000000000000000000000000000000 DUP2 MSTORE PUSH1 0x4 ADD PUSH2 0xF52 SWAP1 PUSH2 0x1ACF JUMP JUMPDEST PUSH1 0x40 MLOAD DUP1 SWAP2 SUB SWAP1 REVERT JUMPDEST JUMPDEST POP JUMP JUMPDEST PUSH0 PUSH0 PUSH0 SWAP1 SLOAD SWAP1 PUSH2 0x100 EXP SWAP1 DIV PUSH20 0xFFFFFFFFFFFFFFFFFFFFFFFFFFFFFFFFFFFFFFFF AND PUSH20 0xFFFFFFFFFFFFFFFFFFFFFFFFFFFFFFFFFFFFFFFF AND CALLER PUSH20 0xFFFFFFFFFFFFFFFFFFFFFFFFFFFFFFFFFFFFFFFF AND EQ PUSH2 0xFEE JUMPI PUSH1 0x40 MLOAD PUSH32 0x8C379A000000000000000000000000000000000000000000000000000000000 DUP2 MSTORE PUSH1 0x4 ADD PUSH2 0xFE5 SWAP1 PUSH2 0x1B9F JUMP JUMPDEST PUSH1 0x40 MLOAD DUP1 SWAP2 SUB SWAP1 REVERT JUMPDEST PUSH1 0x1 SLOAD SWAP1 POP SWAP1 JUMP JUMPDEST PUSH0 PUSH1 0x60 PUSH1 0x4 PUSH0 SWAP1 SLOAD SWAP1 PUSH2 0x100 EXP SWAP1 DIV PUSH20 0xFFFFFFFFFFFFFFFFFFFFFFFFFFFFFFFFFFFFFFFF AND PUSH20 0xFFFFFFFFFFFFFFFFFFFFFFFFFFFFFFFFFFFFFFFF AND CALLER PUSH20 0xFFFFFFFFFFFFFFFFFFFFFFFFFFFFFFFFFFFFFFFF AND EQ PUSH2 0x1088 JUMPI PUSH1 0x40 MLOAD PUSH32 0x8C379A000000000000000000000000000000000000000000000000000000000 DUP2 MSTORE PUSH1 0x4 ADD PUSH2 0x107F SWAP1 PUSH2 0x1C07 JUMP JUMPDEST PUSH1 0x40 MLOAD DUP1 SWAP2 SUB SWAP1 REVERT JUMPDEST PUSH0 PUSH1 0x5 SLOAD DUP5 PUSH1 0x40 MLOAD PUSH1 0x20 ADD PUSH2 0x109E SWAP3 SWAP2 SWAP1 PUSH2 0x1704 JUMP JUMPDEST PUSH1 0x40 MLOAD PUSH1 0x20 DUP2 DUP4 SUB SUB DUP2 MSTORE SWAP1 PUSH1 0x40 MSTORE DUP1 MLOAD SWAP1 PUSH1 0x20 ADD KECCAK256 SWAP1 POP PUSH1 0x7 SLOAD DUP2 EQ PUSH2 0x10FA JUMPI PUSH1 0x40 MLOAD PUSH32 0x8C379A000000000000000000000000000000000000000000000000000000000 DUP2 MSTORE PUSH1 0x4 ADD PUSH2 0x10F1 SWAP1 PUSH2 0x179F JUMP JUMPDEST PUSH1 0x40 MLOAD DUP1 SWAP2 SUB SWAP1 REVERT JUMPDEST PUSH1 0x2 PUSH1 0x8 PUSH0 PUSH2 0x100 EXP DUP2 SLOAD DUP2 PUSH1 0xFF MUL NOT AND SWAP1 DUP4 PUSH1 0x3 DUP2 GT ISZERO PUSH2 0x111F JUMPI PUSH2 0x111E PUSH2 0x146B JUMP JUMPDEST JUMPDEST MUL OR SWAP1 SSTORE POP PUSH1 0x1 PUSH1 0x40 MLOAD DUP1 PUSH1 0x40 ADD PUSH1 0x40 MSTORE DUP1 PUSH1 0x9 DUP2 MSTORE PUSH1 0x20 ADD PUSH32 0x436F6E6669726D65640000000000000000000000000000000000000000000000 DUP2 MSTORE POP SWAP3 POP SWAP3 POP POP SWAP2 POP SWAP2 JUMP JUMPDEST PUSH0 DUP3 DUP3 PUSH1 0x40 MLOAD PUSH1 0x20 ADD PUSH2 0x117A SWAP3 SWAP2 SWAP1 PUSH2 0x1704 JUMP JUMPDEST PUSH1 0x40 MLOAD PUSH1 0x20 DUP2 DUP4 SUB SUB DUP2 MSTORE SWAP1 PUSH1 0x40 MSTORE DUP1 MLOAD SWAP1 PUSH1 0x20 ADD KECCAK256 SWAP1 POP SWAP3 SWAP2 POP POP JUMP JUMPDEST PUSH0 PUSH0 PUSH1 0x1 PUSH1 0x6 PUSH1 0x1 SLOAD PUSH1 0x5 SLOAD PUSH2 0x11AE SWAP2 SWAP1 PUSH2 0x1649 JUMP JUMPDEST PUSH2 0x11B8 SWAP2 SWAP1 PUSH2 0x1C52 JUMP JUMPDEST PUSH2 0x11C2 SWAP2 SWAP1 PUSH2 0x1649 JUMP JUMPDEST SWAP1 POP DUP1 SWAP2 POP POP SWAP1 JUMP JUMPDEST PUSH0 DUP3 DUP3 PUSH1 0x40 MLOAD PUSH1 0x20 ADD PUSH2 0x11DF SWAP3 SWAP2 SWAP1 PUSH2 0x1704 JUMP JUMPDEST PUSH1 0x40 MLOAD PUSH1 0x20 DUP2 DUP4 SUB SUB DUP2 MSTORE SWAP1 PUSH1 0x40 MSTORE DUP1 MLOAD SWAP1 PUSH1 0x20 ADD KECCAK256 SWAP1 POP SWAP3 SWAP2 POP POP JUMP JUMPDEST PUSH0 PUSH0 REVERT JUMPDEST PUSH0 DUP2 SWAP1 POP SWAP2 SWAP1 POP JUMP JUMPDEST PUSH2 0x1213 DUP2 PUSH2 0x1201 JUMP JUMPDEST DUP2 EQ PUSH2 0x121D JUMPI PUSH0 PUSH0 REVERT JUMPDEST POP JUMP JUMPDEST PUSH0 DUP2 CALLDATALOAD SWAP1 POP PUSH2 0x122E DUP2 PUSH2 0x120A JUMP JUMPDEST SWAP3 SWAP2 POP POP JUMP JUMPDEST PUSH0 PUSH0 PUSH1 0x40 DUP4 DUP6 SUB SLT ISZERO PUSH2 0x124A JUMPI PUSH2 0x1249 PUSH2 0x11FD JUMP JUMPDEST JUMPDEST PUSH0 PUSH2 0x1257 DUP6 DUP3 DUP7 ADD PUSH2 0x1220 JUMP JUMPDEST SWAP3 POP POP PUSH1 0x20 PUSH2 0x1268 DUP6 DUP3 DUP7 ADD PUSH2 0x1220 JUMP JUMPDEST SWAP2 POP POP SWAP3 POP SWAP3 SWAP1 POP JUMP JUMPDEST PUSH2 0x127B DUP2 PUSH2 0x1201 JUMP JUMPDEST DUP3 MSTORE POP POP JUMP JUMPDEST PUSH0 PUSH1 0x20 DUP3 ADD SWAP1 POP PUSH2 0x1294 PUSH0 DUP4 ADD DUP5 PUSH2 0x1272 JUMP JUMPDEST SWAP3 SWAP2 POP POP JUMP JUMPDEST PUSH0 PUSH20 0xFFFFFFFFFFFFFFFFFFFFFFFFFFFFFFFFFFFFFFFF DUP3 AND SWAP1 POP SWAP2 SWAP1 POP JUMP JUMPDEST PUSH0 PUSH2 0x12C3 DUP3 PUSH2 0x129A JUMP JUMPDEST SWAP1 POP SWAP2 SWAP1 POP JUMP JUMPDEST PUSH2 0x12D3 DUP2 PUSH2 0x12B9 JUMP JUMPDEST DUP3 MSTORE POP POP JUMP JUMPDEST PUSH0 PUSH1 0x20 DUP3 ADD SWAP1 POP PUSH2 0x12EC PUSH0 DUP4 ADD DUP5 PUSH2 0x12CA JUMP JUMPDEST SWAP3 SWAP2 POP POP JUMP JUMPDEST PUSH0 PUSH1 0x20 DUP3 DUP5 SUB SLT ISZERO PUSH2 0x1307 JUMPI PUSH2 0x1306 PUSH2 0x11FD JUMP JUMPDEST JUMPDEST PUSH0 PUSH2 0x1314 DUP5 DUP3 DUP6 ADD PUSH2 0x1220 JUMP JUMPDEST SWAP2 POP POP SWAP3 SWAP2 POP POP JUMP JUMPDEST PUSH0 DUP2 ISZERO ISZERO SWAP1 POP SWAP2 SWAP1 POP JUMP JUMPDEST PUSH2 0x1331 DUP2 PUSH2 0x131D JUMP JUMPDEST DUP3 MSTORE POP POP JUMP JUMPDEST PUSH0 DUP2 MLOAD SWAP1 POP SWAP2 SWAP1 POP JUMP JUMPDEST PUSH0 DUP3 DUP3 MSTORE PUSH1 0x20 DUP3 ADD SWAP1 POP SWAP3 SWAP2 POP POP JUMP JUMPDEST DUP3 DUP2 DUP4 MCOPY PUSH0 DUP4 DUP4 ADD MSTORE POP POP POP JUMP JUMPDEST PUSH0 PUSH1 0x1F NOT PUSH1 0x1F DUP4 ADD AND SWAP1 POP SWAP2 SWAP1 POP JUMP JUMPDEST PUSH0 PUSH2 0x1379 DUP3 PUSH2 0x1337 JUMP JUMPDEST PUSH2 0x1383 DUP2 DUP6 PUSH2 0x1341 JUMP JUMPDEST SWAP4 POP PUSH2 0x1393 DUP2 DUP6 PUSH1 0x20 DUP7 ADD PUSH2 0x1351 JUMP JUMPDEST PUSH2 0x139C DUP2 PUSH2 0x135F JUMP JUMPDEST DUP5 ADD SWAP2 POP POP SWAP3 SWAP2 POP POP JUMP JUMPDEST PUSH0 PUSH1 0x40 DUP3 ADD SWAP1 POP PUSH2 0x13BA PUSH0 DUP4 ADD DUP6 PUSH2 0x1328 JUMP JUMPDEST DUP2 DUP2 SUB PUSH1 0x20 DUP4 ADD MSTORE PUSH2 0x13CC DUP2 DUP5 PUSH2 0x136F JUMP JUMPDEST SWAP1 POP SWAP4 SWAP3 POP POP POP JUMP JUMPDEST PUSH0 PUSH1 0x40 DUP3 ADD SWAP1 POP PUSH2 0x13E8 PUSH0 DUP4 ADD DUP6 PUSH2 0x1272 JUMP JUMPDEST DUP2 DUP2 SUB PUSH1 0x20 DUP4 ADD MSTORE PUSH2 0x13FA DUP2 DUP5 PUSH2 0x136F JUMP JUMPDEST SWAP1 POP SWAP4 SWAP3 POP POP POP JUMP JUMPDEST PUSH32 0x6F6E6C79206F776E657200000000000000000000000000000000000000000000 PUSH0 DUP3 ADD MSTORE POP JUMP JUMPDEST PUSH0 PUSH2 0x1437 PUSH1 0xA DUP4 PUSH2 0x1341 JUMP JUMPDEST SWAP2 POP PUSH2 0x1442 DUP3 PUSH2 0x1403 JUMP JUMPDEST PUSH1 0x20 DUP3 ADD SWAP1 POP SWAP2 SWAP1 POP JUMP JUMPDEST PUSH0 PUSH1 0x20 DUP3 ADD SWAP1 POP DUP2 DUP2 SUB PUSH0 DUP4 ADD MSTORE PUSH2 0x1464 DUP2 PUSH2 0x142B JUMP JUMPDEST SWAP1 POP SWAP2 SWAP1 POP JUMP JUMPDEST PUSH32 0x4E487B7100000000000000000000000000000000000000000000000000000000 PUSH0 MSTORE PUSH1 0x21 PUSH1 0x4 MSTORE PUSH1 0x24 PUSH0 REVERT JUMPDEST PUSH32 0x596F75206861766520616C7265616479207375626D6974746564000000000000 PUSH0 DUP3 ADD MSTORE POP JUMP JUMPDEST PUSH0 PUSH2 0x14CC PUSH1 0x1A DUP4 PUSH2 0x1341 JUMP JUMPDEST SWAP2 POP PUSH2 0x14D7 DUP3 PUSH2 0x1498 JUMP JUMPDEST PUSH1 0x20 DUP3 ADD SWAP1 POP SWAP2 SWAP1 POP JUMP JUMPDEST PUSH0 PUSH1 0x20 DUP3 ADD SWAP1 POP DUP2 DUP2 SUB PUSH0 DUP4 ADD MSTORE PUSH2 0x14F9 DUP2 PUSH2 0x14C0 JUMP JUMPDEST SWAP1 POP SWAP2 SWAP1 POP JUMP JUMPDEST PUSH32 0x5468652067616D652069732066696E6973682C206E6577207375626D69737369 PUSH0 DUP3 ADD MSTORE PUSH32 0x6F6E206973206E6F7420616C6C6F776564000000000000000000000000000000 PUSH1 0x20 DUP3 ADD MSTORE POP JUMP JUMPDEST PUSH0 PUSH2 0x155A PUSH1 0x31 DUP4 PUSH2 0x1341 JUMP JUMPDEST SWAP2 POP PUSH2 0x1565 DUP3 PUSH2 0x1500 JUMP JUMPDEST PUSH1 0x40 DUP3 ADD SWAP1 POP SWAP2 SWAP1 POP JUMP JUMPDEST PUSH0 PUSH1 0x20 DUP3 ADD SWAP1 POP DUP2 DUP2 SUB PUSH0 DUP4 ADD MSTORE PUSH2 0x1587 DUP2 PUSH2 0x154E JUMP JUMPDEST SWAP1 POP SWAP2 SWAP1 POP JUMP JUMPDEST PUSH32 0x596F75206D7573742073656E642065786163746C7920302E3032206574686572 PUSH0 DUP3 ADD MSTORE PUSH32 0x20746F2062657400000000000000000000000000000000000000000000000000 PUSH1 0x20 DUP3 ADD MSTORE POP JUMP JUMPDEST PUSH0 PUSH2 0x15E8 PUSH1 0x27 DUP4 PUSH2 0x1341 JUMP JUMPDEST SWAP2 POP PUSH2 0x15F3 DUP3 PUSH2 0x158E JUMP JUMPDEST PUSH1 0x40 DUP3 ADD SWAP1 POP SWAP2 SWAP1 POP JUMP JUMPDEST PUSH0 PUSH1 0x20 DUP3 ADD SWAP1 POP DUP2 DUP2 SUB PUSH0 DUP4 ADD MSTORE PUSH2 0x1615 DUP2 PUSH2 0x15DC JUMP JUMPDEST SWAP1 POP SWAP2 SWAP1 POP JUMP JUMPDEST PUSH32 0x4E487B7100000000000000000000000000000000000000000000000000000000 PUSH0 MSTORE PUSH1 0x11 PUSH1 0x4 MSTORE PUSH1 0x24 PUSH0 REVERT JUMPDEST PUSH0 PUSH2 0x1653 DUP3 PUSH2 0x1201 JUMP JUMPDEST SWAP2 POP PUSH2 0x165E DUP4 PUSH2 0x1201 JUMP JUMPDEST SWAP3 POP DUP3 DUP3 ADD SWAP1 POP DUP1 DUP3 GT ISZERO PUSH2 0x1676 JUMPI PUSH2 0x1675 PUSH2 0x161C JUMP JUMPDEST JUMPDEST SWAP3 SWAP2 POP POP JUMP JUMPDEST PUSH32 0x4F6E6C79206F776E65722063616E207375626D69742050617373776F72640000 PUSH0 DUP3 ADD MSTORE POP JUMP JUMPDEST PUSH0 PUSH2 0x16B0 PUSH1 0x1E DUP4 PUSH2 0x1341 JUMP JUMPDEST SWAP2 POP PUSH2 0x16BB DUP3 PUSH2 0x167C JUMP JUMPDEST PUSH1 0x20 DUP3 ADD SWAP1 POP SWAP2 SWAP1 POP JUMP JUMPDEST PUSH0 PUSH1 0x20 DUP3 ADD SWAP1 POP DUP2 DUP2 SUB PUSH0 DUP4 ADD MSTORE PUSH2 0x16DD DUP2 PUSH2 0x16A4 JUMP JUMPDEST SWAP1 POP SWAP2 SWAP1 POP JUMP JUMPDEST PUSH0 DUP2 SWAP1 POP SWAP2 SWAP1 POP JUMP JUMPDEST PUSH2 0x16FE PUSH2 0x16F9 DUP3 PUSH2 0x1201 JUMP JUMPDEST PUSH2 0x16E4 JUMP JUMPDEST DUP3 MSTORE POP POP JUMP JUMPDEST PUSH0 PUSH2 0x170F DUP3 DUP6 PUSH2 0x16ED JUMP JUMPDEST PUSH1 0x20 DUP3 ADD SWAP2 POP PUSH2 0x171F DUP3 DUP5 PUSH2 0x16ED JUMP JUMPDEST PUSH1 0x20 DUP3 ADD SWAP2 POP DUP2 SWAP1 POP SWAP4 SWAP3 POP POP POP JUMP JUMPDEST PUSH32 0x5468652050617373776F7264206973206E6F7420636F72726563742C20506C65 PUSH0 DUP3 ADD MSTORE PUSH32 0x6173652074727920616761696E2E000000000000000000000000000000000000 PUSH1 0x20 DUP3 ADD MSTORE POP JUMP JUMPDEST PUSH0 PUSH2 0x1789 PUSH1 0x2E DUP4 PUSH2 0x1341 JUMP JUMPDEST SWAP2 POP PUSH2 0x1794 DUP3 PUSH2 0x172F JUMP JUMPDEST PUSH1 0x40 DUP3 ADD SWAP1 POP SWAP2 SWAP1 POP JUMP JUMPDEST PUSH0 PUSH1 0x20 DUP3 ADD SWAP1 POP DUP2 DUP2 SUB PUSH0 DUP4 ADD MSTORE PUSH2 0x17B6 DUP2 PUSH2 0x177D JUMP JUMPDEST SWAP1 POP SWAP2 SWAP1 POP JUMP JUMPDEST PUSH32 0x6F6E6C7920706C617965722063616E20766965772074686520616E7377657200 PUSH0 DUP3 ADD MSTORE POP JUMP JUMPDEST PUSH0 PUSH2 0x17F1 PUSH1 0x1F DUP4 PUSH2 0x1341 JUMP JUMPDEST SWAP2 POP PUSH2 0x17FC DUP3 PUSH2 0x17BD JUMP JUMPDEST PUSH1 0x20 DUP3 ADD SWAP1 POP SWAP2 SWAP1 POP JUMP JUMPDEST PUSH0 PUSH1 0x20 DUP3 ADD SWAP1 POP DUP2 DUP2 SUB PUSH0 DUP4 ADD MSTORE PUSH2 0x181E DUP2 PUSH2 0x17E5 JUMP JUMPDEST SWAP1 POP SWAP2 SWAP1 POP JUMP JUMPDEST PUSH32 0x506C6179657220646F206E6F742072657665616C000000000000000000000000 PUSH0 DUP3 ADD MSTORE POP JUMP JUMPDEST PUSH0 PUSH2 0x1859 PUSH1 0x14 DUP4 PUSH2 0x1341 JUMP JUMPDEST SWAP2 POP PUSH2 0x1864 DUP3 PUSH2 0x1825 JUMP JUMPDEST PUSH1 0x20 DUP3 ADD SWAP1 POP SWAP2 SWAP1 POP JUMP JUMPDEST PUSH0 PUSH1 0x20 DUP3 ADD SWAP1 POP DUP2 DUP2 SUB PUSH0 DUP4 ADD MSTORE PUSH2 0x1886 DUP2 PUSH2 0x184D JUMP JUMPDEST SWAP1 POP SWAP2 SWAP1 POP JUMP JUMPDEST PUSH32 0x4F776E657220646F206E6F742072657665616C00000000000000000000000000 PUSH0 DUP3 ADD MSTORE POP JUMP JUMPDEST PUSH0 PUSH2 0x18C1 PUSH1 0x13 DUP4 PUSH2 0x1341 JUMP JUMPDEST SWAP2 POP PUSH2 0x18CC DUP3 PUSH2 0x188D JUMP JUMPDEST PUSH1 0x20 DUP3 ADD SWAP1 POP SWAP2 SWAP1 POP JUMP JUMPDEST PUSH0 PUSH1 0x20 DUP3 ADD SWAP1 POP DUP2 DUP2 SUB PUSH0 DUP4 ADD MSTORE PUSH2 0x18EE DUP2 PUSH2 0x18B5 JUMP JUMPDEST SWAP1 POP SWAP2 SWAP1 POP JUMP JUMPDEST PUSH32 0x6F776E65722063616E206E6F74205375626D697420706C6179657220416E7377 PUSH0 DUP3 ADD MSTORE PUSH32 0x6572000000000000000000000000000000000000000000000000000000000000 PUSH1 0x20 DUP3 ADD MSTORE POP JUMP JUMPDEST PUSH0 PUSH2 0x194F PUSH1 0x22 DUP4 PUSH2 0x1341 JUMP JUMPDEST SWAP2 POP PUSH2 0x195A DUP3 PUSH2 0x18F5 JUMP JUMPDEST PUSH1 0x40 DUP3 ADD SWAP1 POP SWAP2 SWAP1 POP JUMP JUMPDEST PUSH0 PUSH1 0x20 DUP3 ADD SWAP1 POP DUP2 DUP2 SUB PUSH0 DUP4 ADD MSTORE PUSH2 0x197C DUP2 PUSH2 0x1943 JUMP JUMPDEST SWAP1 POP SWAP2 SWAP1 POP JUMP JUMPDEST PUSH32 0x4F6E6C79206F776E65722063616E20636F6E6669726D00000000000000000000 PUSH0 DUP3 ADD MSTORE POP JUMP JUMPDEST PUSH0 PUSH2 0x19B7 PUSH1 0x16 DUP4 PUSH2 0x1341 JUMP JUMPDEST SWAP2 POP PUSH2 0x19C2 DUP3 PUSH2 0x1983 JUMP JUMPDEST PUSH1 0x20 DUP3 ADD SWAP1 POP SWAP2 SWAP1 POP JUMP JUMPDEST PUSH0 PUSH1 0x20 DUP3 ADD SWAP1 POP DUP2 DUP2 SUB PUSH0 DUP4 ADD MSTORE PUSH2 0x19E4 DUP2 PUSH2 0x19AB JUMP JUMPDEST SWAP1 POP SWAP2 SWAP1 POP JUMP JUMPDEST PUSH32 0x596F7520617265206E6F7420616C6C6F7720746F20636F6E6669726D2077696E PUSH0 DUP3 ADD MSTORE PUSH32 0x6E65722061742074686973207374616765000000000000000000000000000000 PUSH1 0x20 DUP3 ADD MSTORE POP JUMP JUMPDEST PUSH0 PUSH2 0x1A45 PUSH1 0x31 DUP4 PUSH2 0x1341 JUMP JUMPDEST SWAP2 POP PUSH2 0x1A50 DUP3 PUSH2 0x19EB JUMP JUMPDEST PUSH1 0x40 DUP3 ADD SWAP1 POP SWAP2 SWAP1 POP JUMP JUMPDEST PUSH0 PUSH1 0x20 DUP3 ADD SWAP1 POP DUP2 DUP2 SUB PUSH0 DUP4 ADD MSTORE PUSH2 0x1A72 DUP2 PUSH2 0x1A39 JUMP JUMPDEST SWAP1 POP SWAP2 SWAP1 POP JUMP JUMPDEST PUSH0 PUSH2 0x1A83 DUP3 PUSH2 0x1201 JUMP JUMPDEST SWAP2 POP PUSH2 0x1A8E DUP4 PUSH2 0x1201 JUMP JUMPDEST SWAP3 POP DUP3 DUP3 SUB SWAP1 POP DUP2 DUP2 GT ISZERO PUSH2 0x1AA6 JUMPI PUSH2 0x1AA5 PUSH2 0x161C JUMP JUMPDEST JUMPDEST SWAP3 SWAP2 POP POP JUMP JUMPDEST POP JUMP JUMPDEST PUSH0 PUSH2 0x1ABA PUSH0 DUP4 PUSH2 0x1341 JUMP JUMPDEST SWAP2 POP PUSH2 0x1AC5 DUP3 PUSH2 0x1AAC JUMP JUMPDEST PUSH0 DUP3 ADD SWAP1 POP SWAP2 SWAP1 POP JUMP JUMPDEST PUSH0 PUSH1 0x20 DUP3 ADD SWAP1 POP DUP2 DUP2 SUB PUSH0 DUP4 ADD MSTORE PUSH2 0x1AE6 DUP2 PUSH2 0x1AAF JUMP JUMPDEST SWAP1 POP SWAP2 SWAP1 POP JUMP JUMPDEST PUSH32 0x4F6E6C7920706C617965722063616E20636F6E6669726D000000000000000000 PUSH0 DUP3 ADD MSTORE POP JUMP JUMPDEST PUSH0 PUSH2 0x1B21 PUSH1 0x17 DUP4 PUSH2 0x1341 JUMP JUMPDEST SWAP2 POP PUSH2 0x1B2C DUP3 PUSH2 0x1AED JUMP JUMPDEST PUSH1 0x20 DUP3 ADD SWAP1 POP SWAP2 SWAP1 POP JUMP JUMPDEST PUSH0 PUSH1 0x20 DUP3 ADD SWAP1 POP DUP2 DUP2 SUB PUSH0 DUP4 ADD MSTORE PUSH2 0x1B4E DUP2 PUSH2 0x1B15 JUMP JUMPDEST SWAP1 POP SWAP2 SWAP1 POP JUMP JUMPDEST PUSH32 0x6F6E6C79206F776E65722063616E20766965772074686520616E737765720000 PUSH0 DUP3 ADD MSTORE POP JUMP JUMPDEST PUSH0 PUSH2 0x1B89 PUSH1 0x1E DUP4 PUSH2 0x1341 JUMP JUMPDEST SWAP2 POP PUSH2 0x1B94 DUP3 PUSH2 0x1B55 JUMP JUMPDEST PUSH1 0x20 DUP3 ADD SWAP1 POP SWAP2 SWAP1 POP JUMP JUMPDEST PUSH0 PUSH1 0x20 DUP3 ADD SWAP1 POP DUP2 DUP2 SUB PUSH0 DUP4 ADD MSTORE PUSH2 0x1BB6 DUP2 PUSH2 0x1B7D JUMP JUMPDEST SWAP1 POP SWAP2 SWAP1 POP JUMP JUMPDEST PUSH32 0x4F6E6C7920706C617965722063616E207375626D69742050617373776F726400 PUSH0 DUP3 ADD MSTORE POP JUMP JUMPDEST PUSH0 PUSH2 0x1BF1 PUSH1 0x1F DUP4 PUSH2 0x1341 JUMP JUMPDEST SWAP2 POP PUSH2 0x1BFC DUP3 PUSH2 0x1BBD JUMP JUMPDEST PUSH1 0x20 DUP3 ADD SWAP1 POP SWAP2 SWAP1 POP JUMP JUMPDEST PUSH0 PUSH1 0x20 DUP3 ADD SWAP1 POP DUP2 DUP2 SUB PUSH0 DUP4 ADD MSTORE PUSH2 0x1C1E DUP2 PUSH2 0x1BE5 JUMP JUMPDEST SWAP1 POP SWAP2 SWAP1 POP JUMP JUMPDEST PUSH32 0x4E487B7100000000000000000000000000000000000000000000000000000000 PUSH0 MSTORE PUSH1 0x12 PUSH1 0x4 MSTORE PUSH1 0x24 PUSH0 REVERT JUMPDEST PUSH0 PUSH2 0x1C5C DUP3 PUSH2 0x1201 JUMP JUMPDEST SWAP2 POP PUSH2 0x1C67 DUP4 PUSH2 0x1201 JUMP JUMPDEST SWAP3 POP DUP3 PUSH2 0x1C77 JUMPI PUSH2 0x1C76 PUSH2 0x1C25 JUMP JUMPDEST JUMPDEST DUP3 DUP3 MOD SWAP1 POP SWAP3 SWAP2 POP POP JUMP INVALID POP PUSH13 0x617965722077696E2C20706C65 PUSH2 0x7365 KECCAK256 PUSH4 0x6F6E6669 PUSH19 0x6D20796F7520617265207468652057696E6E65 PUSH19 0x20616E642067657420726577617264214F776E PUSH6 0x722077696E2C KECCAK256 PUSH17 0x6C6561736520636F6E6669726D20796F75 KECCAK256 PUSH2 0x7265 KECCAK256 PUSH21 0x68652057696E6E657220616E642067657420726577 PUSH2 0x7264 0x21 LOG2 PUSH5 0x6970667358 0x22 SLT KECCAK256 BALANCE 0xA5 0xC 0xD6 DUP9 RJUMP 0x2C51 SWAP16 0xD3 SWAP9 ADDMOD 0xAD CALLER EXTCALL CALL 0xBA PUSH16 0xB50A8F7F5273B08316B690DEC6136473 PUSH16 0x6C634300082200330000000000000000 "
				},
				"gasEstimates": {
					"creation": {
						"codeDepositCost": "1494600",
						"executionCost": "92141",
						"totalCost": "1586741"
					},
					"external": {
						"betAmount()": "2492",
						"confirmWinner()": "infinite",
						"gameResult()": "infinite",
						"owner()": "2618",
						"ownerReveal(uint256)": "infinite",
						"ownerSubmit(uint256,uint256)": "infinite",
						"ownerViewAns()": "4666",
						"player()": "2531",
						"playerReveal(uint256)": "infinite",
						"playerSubmit(uint256,uint256)": "infinite",
						"playerViewAns()": "4668",
						"rewardTokenAmount()": "2447",
						"winnerReward()": "2470"
					},
					"internal": {
						"calculateGameResult()": "infinite",
						"ownerHashing(uint256,uint256)": "infinite",
						"playerHashing(uint256,uint256)": "infinite"
					}
				},
				"methodIdentifiers": {
					"betAmount()": "d24257c0",
					"confirmWinner()": "d55c9c84",
					"gameResult()": "7152f800",
					"owner()": "8da5cb5b",
					"ownerReveal(uint256)": "528654d7",
					"ownerSubmit(uint256,uint256)": "3a902846",
					"ownerViewAns()": "d79830cf",
					"player()": "48db5f89",
					"playerReveal(uint256)": "ff2364b5",
					"playerSubmit(uint256,uint256)": "8f693d9e",
					"playerViewAns()": "5f582011",
					"rewardTokenAmount()": "d3e8237d",
					"winnerReward()": "b9705a03"
				}
			},
			"storageLayout": {
				"storage": [
					{
						"astId": 368,
						"contract": "Game.sol:Game",
						"label": "owner",
						"offset": 0,
						"slot": "0",
						"type": "t_address"
					},
					{
						"astId": 370,
						"contract": "Game.sol:Game",
						"label": "ownerAns",
						"offset": 0,
						"slot": "1",
						"type": "t_uint256"
					},
					{
						"astId": 372,
						"contract": "Game.sol:Game",
						"label": "ownerPW",
						"offset": 0,
						"slot": "2",
						"type": "t_uint256"
					},
					{
						"astId": 374,
						"contract": "Game.sol:Game",
						"label": "ownerHash",
						"offset": 0,
						"slot": "3",
						"type": "t_bytes32"
					},
					{
						"astId": 376,
						"contract": "Game.sol:Game",
						"label": "player",
						"offset": 0,
						"slot": "4",
						"type": "t_address"
					},
					{
						"astId": 378,
						"contract": "Game.sol:Game",
						"label": "playerAns",
						"offset": 0,
						"slot": "5",
						"type": "t_uint256"
					},
					{
						"astId": 380,
						"contract": "Game.sol:Game",
						"label": "playerPW",
						"offset": 0,
						"slot": "6",
						"type": "t_uint256"
					},
					{
						"astId": 382,
						"contract": "Game.sol:Game",
						"label": "playerHash",
						"offset": 0,
						"slot": "7",
						"type": "t_bytes32"
					},
					{
						"astId": 390,
						"contract": "Game.sol:Game",
						"label": "playerStatus",
						"offset": 0,
						"slot": "8",
						"type": "t_enum(Status)387"
					},
					{
						"astId": 393,
						"contract": "Game.sol:Game",
						"label": "ownerStatus",
						"offset": 1,
						"slot": "8",
						"type": "t_enum(Status)387"
					},
					{
						"astId": 396,
						"contract": "Game.sol:Game",
						"label": "betAmount",
						"offset": 0,
						"slot": "9",
						"type": "t_uint256"
					},
					{
						"astId": 399,
						"contract": "Game.sol:Game",
						"label": "rewardTokenAmount",
						"offset": 0,
						"slot": "10",
						"type": "t_uint256"
					},
					{
						"astId": 402,
						"contract": "Game.sol:Game",
						"label": "winnerReward",
						"offset": 0,
						"slot": "11",
						"type": "t_uint256"
					},
					{
						"astId": 404,
						"contract": "Game.sol:Game",
						"label": "pool",
						"offset": 0,
						"slot": "12",
						"type": "t_uint256"
					}
				],
				"types": {
					"t_address": {
						"encoding": "inplace",
						"label": "address",
						"numberOfBytes": "20"
					},
					"t_bytes32": {
						"encoding": "inplace",
						"label": "bytes32",
						"numberOfBytes": "32"
					},
					"t_enum(Status)387": {
						"encoding": "inplace",
						"label": "enum Game.Status",
						"numberOfBytes": "1"
					},
					"t_uint256": {
						"encoding": "inplace",
						"label": "uint256",
						"numberOfBytes": "32"
					}
				}
			},
			"userdoc": {
				"kind": "user",
				"methods": {},
				"version": 1
			}
		}
	}
}