{
	"Game.sol": {
		"Token": {
			"abi": [
				{
					"inputs": [],
					"stateMutability": "nonpayable",
					"type": "constructor"
				},
				{
					"anonymous": false,
					"inputs": [
						{
							"indexed": true,
							"internalType": "address",
							"name": "to",
							"type": "address"
						},
						{
							"indexed": false,
							"internalType": "uint256",
							"name": "value",
							"type": "uint256"
						}
					],
					"name": "Mint",
					"type": "event"
				},
				{
					"anonymous": false,
					"inputs": [
						{
							"indexed": true,
							"internalType": "address",
							"name": "from",
							"type": "address"
						},
						{
							"indexed": false,
							"internalType": "uint256",
							"name": "value",
							"type": "uint256"
						}
					],
					"name": "Sell",
					"type": "event"
				},
				{
					"anonymous": false,
					"inputs": [
						{
							"indexed": true,
							"internalType": "address",
							"name": "from",
							"type": "address"
						},
						{
							"indexed": true,
							"internalType": "address",
							"name": "to",
							"type": "address"
						},
						{
							"indexed": false,
							"internalType": "uint256",
							"name": "value",
							"type": "uint256"
						}
					],
					"name": "Transfer",
					"type": "event"
				},
				{
					"stateMutability": "payable",
					"type": "fallback"
				},
				{
					"inputs": [
						{
							"internalType": "address",
							"name": "account",
							"type": "address"
						}
					],
					"name": "balanceOf",
					"outputs": [
						{
							"internalType": "uint256",
							"name": "",
							"type": "uint256"
						}
					],
					"stateMutability": "view",
					"type": "function"
				},
				{
					"inputs": [],
					"name": "close",
					"outputs": [],
					"stateMutability": "nonpayable",
					"type": "function"
				},
				{
					"inputs": [],
					"name": "getName",
					"outputs": [
						{
							"internalType": "string",
							"name": "",
							"type": "string"
						}
					],
					"stateMutability": "view",
					"type": "function"
				},
				{
					"inputs": [],
					"name": "getPrice",
					"outputs": [
						{
							"internalType": "uint128",
							"name": "",
							"type": "uint128"
						}
					],
					"stateMutability": "view",
					"type": "function"
				},
				{
					"inputs": [],
					"name": "getSymbol",
					"outputs": [
						{
							"internalType": "string",
							"name": "",
							"type": "string"
						}
					],
					"stateMutability": "view",
					"type": "function"
				},
				{
					"inputs": [
						{
							"internalType": "address",
							"name": "to",
							"type": "address"
						},
						{
							"internalType": "uint256",
							"name": "value",
							"type": "uint256"
						}
					],
					"name": "mint",
					"outputs": [
						{
							"internalType": "bool",
							"name": "",
							"type": "bool"
						}
					],
					"stateMutability": "nonpayable",
					"type": "function"
				},
				{
					"inputs": [],
					"name": "owner",
					"outputs": [
						{
							"internalType": "address payable",
							"name": "",
							"type": "address"
						}
					],
					"stateMutability": "view",
					"type": "function"
				},
				{
					"inputs": [
						{
							"internalType": "uint256",
							"name": "value",
							"type": "uint256"
						}
					],
					"name": "sell",
					"outputs": [
						{
							"internalType": "bool",
							"name": "",
							"type": "bool"
						}
					],
					"stateMutability": "nonpayable",
					"type": "function"
				},
				{
					"inputs": [],
					"name": "totalSupply",
					"outputs": [
						{
							"internalType": "uint256",
							"name": "",
							"type": "uint256"
						}
					],
					"stateMutability": "view",
					"type": "function"
				},
				{
					"inputs": [
						{
							"internalType": "address",
							"name": "to",
							"type": "address"
						},
						{
							"internalType": "uint256",
							"name": "value",
							"type": "uint256"
						}
					],
					"name": "transfer",
					"outputs": [
						{
							"internalType": "bool",
							"name": "",
							"type": "bool"
						}
					],
					"stateMutability": "nonpayable",
					"type": "function"
				},
				{
					"stateMutability": "payable",
					"type": "receive"
				}
			],
			"devdoc": {
				"kind": "dev",
				"methods": {},
				"version": 1
			},
			"evm": {
				"assembly": "    /* \"Game.sol\":79:3169  contract Token {... */\n  mstore(0x40, 0x80)\n    /* \"Game.sol\":370:410  string private _name = \"DiceRewardToken\" */\n  mload(0x40)\n  dup1\n  0x40\n  add\n  0x40\n  mstore\n  dup1\n  0x0f\n  dup2\n  mstore\n  0x20\n  add\n  0x44696365526577617264546f6b656e0000000000000000000000000000000000\n  dup2\n  mstore\n  pop\n  0x01\n  swap1\n  dup2\n  tag_1\n  swap2\n  swap1\n  tag_2\n  jump\t// in\ntag_1:\n  pop\n    /* \"Game.sol\":417:447  string private _symbol = \"TKN\" */\n  mload(0x40)\n  dup1\n  0x40\n  add\n  0x40\n  mstore\n  dup1\n  0x03\n  dup2\n  mstore\n  0x20\n  add\n  0x544b4e0000000000000000000000000000000000000000000000000000000000\n  dup2\n  mstore\n  pop\n  0x02\n  swap1\n  dup2\n  tag_3\n  swap2\n  swap1\n  tag_2\n  jump\t// in\ntag_3:\n  pop\n    /* \"Game.sol\":566:569  600 */\n  0x0258\n    /* \"Game.sol\":541:569  uint128 private _price = 600 */\n  0x05\n  exp(0x0100, 0x00)\n  dup2\n  sload\n  dup2\n  0xffffffffffffffffffffffffffffffff\n  mul\n  not\n  and\n  swap1\n  dup4\n  0xffffffffffffffffffffffffffffffff\n  and\n  mul\n  or\n  swap1\n  sstore\n  pop\n    /* \"Game.sol\":637:642  false */\n  0x00\n    /* \"Game.sol\":612:642  bool private _isClosed = false */\n  0x05\n  exp(0x0100, 0x10)\n  dup2\n  sload\n  dup2\n  0xff\n  mul\n  not\n  and\n  swap1\n  dup4\n  iszero\n  iszero\n  mul\n  or\n  swap1\n  sstore\n  pop\n    /* \"Game.sol\":651:711  constructor() {... */\n  callvalue\n  dup1\n  iszero\n  tag_4\n  jumpi\n  revert(0x00, 0x00)\ntag_4:\n  pop\n    /* \"Game.sol\":692:702  msg.sender */\n  caller\n    /* \"Game.sol\":676:681  owner */\n  0x00\n  0x00\n    /* \"Game.sol\":676:703  owner = payable(msg.sender) */\n  0x0100\n  exp\n  dup2\n  sload\n  dup2\n  0xffffffffffffffffffffffffffffffffffffffff\n  mul\n  not\n  and\n  swap1\n  dup4\n  0xffffffffffffffffffffffffffffffffffffffff\n  and\n  mul\n  or\n  swap1\n  sstore\n  pop\n    /* \"Game.sol\":79:3169  contract Token {... */\n  jump(tag_7)\n    /* \"#utility.yul\":7:106   */\ntag_8:\n    /* \"#utility.yul\":59:65   */\n  0x00\n    /* \"#utility.yul\":93:98   */\n  dup2\n    /* \"#utility.yul\":87:99   */\n  mload\n    /* \"#utility.yul\":77:99   */\n  swap1\n  pop\n    /* \"#utility.yul\":7:106   */\n  swap2\n  swap1\n  pop\n  jump\t// out\n    /* \"#utility.yul\":112:292   */\ntag_9:\n    /* \"#utility.yul\":160:237   */\n  0x4e487b7100000000000000000000000000000000000000000000000000000000\n    /* \"#utility.yul\":157:158   */\n  0x00\n    /* \"#utility.yul\":150:238   */\n  mstore\n    /* \"#utility.yul\":257:261   */\n  0x41\n    /* \"#utility.yul\":254:255   */\n  0x04\n    /* \"#utility.yul\":247:262   */\n  mstore\n    /* \"#utility.yul\":281:285   */\n  0x24\n    /* \"#utility.yul\":278:279   */\n  0x00\n    /* \"#utility.yul\":271:286   */\n  revert\n    /* \"#utility.yul\":298:478   */\ntag_10:\n    /* \"#utility.yul\":346:423   */\n  0x4e487b7100000000000000000000000000000000000000000000000000000000\n    /* \"#utility.yul\":343:344   */\n  0x00\n    /* \"#utility.yul\":336:424   */\n  mstore\n    /* \"#utility.yul\":443:447   */\n  0x22\n    /* \"#utility.yul\":440:441   */\n  0x04\n    /* \"#utility.yul\":433:448   */\n  mstore\n    /* \"#utility.yul\":467:471   */\n  0x24\n    /* \"#utility.yul\":464:465   */\n  0x00\n    /* \"#utility.yul\":457:472   */\n  revert\n    /* \"#utility.yul\":484:804   */\ntag_11:\n    /* \"#utility.yul\":528:534   */\n  0x00\n    /* \"#utility.yul\":565:566   */\n  0x02\n    /* \"#utility.yul\":559:563   */\n  dup3\n    /* \"#utility.yul\":555:567   */\n  div\n    /* \"#utility.yul\":545:567   */\n  swap1\n  pop\n    /* \"#utility.yul\":612:613   */\n  0x01\n    /* \"#utility.yul\":606:610   */\n  dup3\n    /* \"#utility.yul\":602:614   */\n  and\n    /* \"#utility.yul\":633:651   */\n  dup1\n    /* \"#utility.yul\":623:704   */\n  tag_33\n  jumpi\n    /* \"#utility.yul\":689:693   */\n  0x7f\n    /* \"#utility.yul\":681:687   */\n  dup3\n    /* \"#utility.yul\":677:694   */\n  and\n    /* \"#utility.yul\":667:694   */\n  swap2\n  pop\n    /* \"#utility.yul\":623:704   */\ntag_33:\n    /* \"#utility.yul\":751:753   */\n  0x20\n    /* \"#utility.yul\":743:749   */\n  dup3\n    /* \"#utility.yul\":740:754   */\n  lt\n    /* \"#utility.yul\":720:738   */\n  dup2\n    /* \"#utility.yul\":717:755   */\n  sub\n    /* \"#utility.yul\":714:798   */\n  tag_34\n  jumpi\n    /* \"#utility.yul\":770:788   */\n  tag_35\n  tag_10\n  jump\t// in\ntag_35:\n    /* \"#utility.yul\":714:798   */\ntag_34:\n    /* \"#utility.yul\":535:804   */\n  pop\n    /* \"#utility.yul\":484:804   */\n  swap2\n  swap1\n  pop\n  jump\t// out\n    /* \"#utility.yul\":810:951   */\ntag_12:\n    /* \"#utility.yul\":859:863   */\n  0x00\n    /* \"#utility.yul\":882:885   */\n  dup2\n    /* \"#utility.yul\":874:885   */\n  swap1\n  pop\n    /* \"#utility.yul\":905:908   */\n  dup2\n    /* \"#utility.yul\":902:903   */\n  0x00\n    /* \"#utility.yul\":895:909   */\n  mstore\n    /* \"#utility.yul\":939:943   */\n  0x20\n    /* \"#utility.yul\":936:937   */\n  0x00\n    /* \"#utility.yul\":926:944   */\n  keccak256\n    /* \"#utility.yul\":918:944   */\n  swap1\n  pop\n    /* \"#utility.yul\":810:951   */\n  swap2\n  swap1\n  pop\n  jump\t// out\n    /* \"#utility.yul\":957:1050   */\ntag_13:\n    /* \"#utility.yul\":994:1000   */\n  0x00\n    /* \"#utility.yul\":1041:1043   */\n  0x20\n    /* \"#utility.yul\":1036:1038   */\n  0x1f\n    /* \"#utility.yul\":1029:1034   */\n  dup4\n    /* \"#utility.yul\":1025:1039   */\n  add\n    /* \"#utility.yul\":1021:1044   */\n  div\n    /* \"#utility.yul\":1011:1044   */\n  swap1\n  pop\n    /* \"#utility.yul\":957:1050   */\n  swap2\n  swap1\n  pop\n  jump\t// out\n    /* \"#utility.yul\":1056:1163   */\ntag_14:\n    /* \"#utility.yul\":1100:1108   */\n  0x00\n    /* \"#utility.yul\":1150:1155   */\n  dup3\n    /* \"#utility.yul\":1144:1148   */\n  dup3\n    /* \"#utility.yul\":1140:1156   */\n  shl\n    /* \"#utility.yul\":1119:1156   */\n  swap1\n  pop\n    /* \"#utility.yul\":1056:1163   */\n  swap3\n  swap2\n  pop\n  pop\n  jump\t// out\n    /* \"#utility.yul\":1169:1562   */\ntag_15:\n    /* \"#utility.yul\":1238:1244   */\n  0x00\n    /* \"#utility.yul\":1288:1289   */\n  0x08\n    /* \"#utility.yul\":1276:1286   */\n  dup4\n    /* \"#utility.yul\":1272:1290   */\n  mul\n    /* \"#utility.yul\":1311:1408   */\n  tag_40\n    /* \"#utility.yul\":1341:1407   */\n  0xffffffffffffffffffffffffffffffffffffffffffffffffffffffffffffffff\n    /* \"#utility.yul\":1330:1339   */\n  dup3\n    /* \"#utility.yul\":1311:1408   */\n  tag_14\n  jump\t// in\ntag_40:\n    /* \"#utility.yul\":1429:1468   */\n  tag_41\n    /* \"#utility.yul\":1459:1467   */\n  dup7\n    /* \"#utility.yul\":1448:1457   */\n  dup4\n    /* \"#utility.yul\":1429:1468   */\n  tag_14\n  jump\t// in\ntag_41:\n    /* \"#utility.yul\":1417:1468   */\n  swap6\n  pop\n    /* \"#utility.yul\":1501:1505   */\n  dup1\n    /* \"#utility.yul\":1497:1506   */\n  not\n    /* \"#utility.yul\":1490:1495   */\n  dup5\n    /* \"#utility.yul\":1486:1507   */\n  and\n    /* \"#utility.yul\":1477:1507   */\n  swap4\n  pop\n    /* \"#utility.yul\":1550:1554   */\n  dup1\n    /* \"#utility.yul\":1540:1548   */\n  dup7\n    /* \"#utility.yul\":1536:1555   */\n  and\n    /* \"#utility.yul\":1529:1534   */\n  dup5\n    /* \"#utility.yul\":1526:1556   */\n  or\n    /* \"#utility.yul\":1516:1556   */\n  swap3\n  pop\n    /* \"#utility.yul\":1245:1562   */\n  pop\n  pop\n    /* \"#utility.yul\":1169:1562   */\n  swap4\n  swap3\n  pop\n  pop\n  pop\n  jump\t// out\n    /* \"#utility.yul\":1568:1645   */\ntag_16:\n    /* \"#utility.yul\":1605:1612   */\n  0x00\n    /* \"#utility.yul\":1634:1639   */\n  dup2\n    /* \"#utility.yul\":1623:1639   */\n  swap1\n  pop\n    /* \"#utility.yul\":1568:1645   */\n  swap2\n  swap1\n  pop\n  jump\t// out\n    /* \"#utility.yul\":1651:1711   */\ntag_17:\n    /* \"#utility.yul\":1679:1682   */\n  0x00\n    /* \"#utility.yul\":1700:1705   */\n  dup2\n    /* \"#utility.yul\":1693:1705   */\n  swap1\n  pop\n    /* \"#utility.yul\":1651:1711   */\n  swap2\n  swap1\n  pop\n  jump\t// out\n    /* \"#utility.yul\":1717:1859   */\ntag_18:\n    /* \"#utility.yul\":1767:1776   */\n  0x00\n    /* \"#utility.yul\":1800:1853   */\n  tag_45\n    /* \"#utility.yul\":1818:1852   */\n  tag_46\n    /* \"#utility.yul\":1827:1851   */\n  tag_47\n    /* \"#utility.yul\":1845:1850   */\n  dup5\n    /* \"#utility.yul\":1827:1851   */\n  tag_16\n  jump\t// in\ntag_47:\n    /* \"#utility.yul\":1818:1852   */\n  tag_17\n  jump\t// in\ntag_46:\n    /* \"#utility.yul\":1800:1853   */\n  tag_16\n  jump\t// in\ntag_45:\n    /* \"#utility.yul\":1787:1853   */\n  swap1\n  pop\n    /* \"#utility.yul\":1717:1859   */\n  swap2\n  swap1\n  pop\n  jump\t// out\n    /* \"#utility.yul\":1865:1940   */\ntag_19:\n    /* \"#utility.yul\":1908:1911   */\n  0x00\n    /* \"#utility.yul\":1929:1934   */\n  dup2\n    /* \"#utility.yul\":1922:1934   */\n  swap1\n  pop\n    /* \"#utility.yul\":1865:1940   */\n  swap2\n  swap1\n  pop\n  jump\t// out\n    /* \"#utility.yul\":1946:2215   */\ntag_20:\n    /* \"#utility.yul\":2056:2095   */\n  tag_50\n    /* \"#utility.yul\":2087:2094   */\n  dup4\n    /* \"#utility.yul\":2056:2095   */\n  tag_18\n  jump\t// in\ntag_50:\n    /* \"#utility.yul\":2117:2208   */\n  tag_51\n    /* \"#utility.yul\":2166:2207   */\n  tag_52\n    /* \"#utility.yul\":2190:2206   */\n  dup3\n    /* \"#utility.yul\":2166:2207   */\n  tag_19\n  jump\t// in\ntag_52:\n    /* \"#utility.yul\":2158:2164   */\n  dup5\n    /* \"#utility.yul\":2151:2155   */\n  dup5\n    /* \"#utility.yul\":2145:2156   */\n  sload\n    /* \"#utility.yul\":2117:2208   */\n  tag_15\n  jump\t// in\ntag_51:\n    /* \"#utility.yul\":2111:2115   */\n  dup3\n    /* \"#utility.yul\":2104:2209   */\n  sstore\n    /* \"#utility.yul\":2022:2215   */\n  pop\n    /* \"#utility.yul\":1946:2215   */\n  pop\n  pop\n  pop\n  jump\t// out\n    /* \"#utility.yul\":2221:2294   */\ntag_21:\n    /* \"#utility.yul\":2266:2269   */\n  0x00\n    /* \"#utility.yul\":2287:2288   */\n  0x00\n    /* \"#utility.yul\":2280:2288   */\n  swap1\n  pop\n    /* \"#utility.yul\":2221:2294   */\n  swap1\n  jump\t// out\n    /* \"#utility.yul\":2300:2489   */\ntag_22:\n    /* \"#utility.yul\":2377:2409   */\n  tag_55\n  tag_21\n  jump\t// in\ntag_55:\n    /* \"#utility.yul\":2418:2483   */\n  tag_56\n    /* \"#utility.yul\":2476:2482   */\n  dup2\n    /* \"#utility.yul\":2468:2474   */\n  dup5\n    /* \"#utility.yul\":2462:2466   */\n  dup5\n    /* \"#utility.yul\":2418:2483   */\n  tag_20\n  jump\t// in\ntag_56:\n    /* \"#utility.yul\":2353:2489   */\n  pop\n    /* \"#utility.yul\":2300:2489   */\n  pop\n  pop\n  jump\t// out\n    /* \"#utility.yul\":2495:2709   */\ntag_23:\n    /* \"#utility.yul\":2580:2581   */\n  0x00\n    /* \"#utility.yul\":2565:2703   */\ntag_58:\n    /* \"#utility.yul\":2590:2599   */\n  dup3\n    /* \"#utility.yul\":2587:2588   */\n  dup2\n    /* \"#utility.yul\":2584:2600   */\n  lt\n    /* \"#utility.yul\":2565:2703   */\n  iszero\n  tag_60\n  jumpi\n    /* \"#utility.yul\":2642:2693   */\n  tag_61\n    /* \"#utility.yul\":2691:2692   */\n  0x00\n    /* \"#utility.yul\":2687:2688   */\n  dup3\n    /* \"#utility.yul\":2676:2685   */\n  dup5\n    /* \"#utility.yul\":2672:2689   */\n  add\n    /* \"#utility.yul\":2642:2693   */\n  tag_22\n  jump\t// in\ntag_61:\n    /* \"#utility.yul\":2615:2616   */\n  0x01\n    /* \"#utility.yul\":2612:2613   */\n  dup2\n    /* \"#utility.yul\":2608:2617   */\n  add\n    /* \"#utility.yul\":2603:2617   */\n  swap1\n  pop\n    /* \"#utility.yul\":2565:2703   */\n  jump(tag_58)\ntag_60:\n    /* \"#utility.yul\":2569:2583   */\n  pop\n    /* \"#utility.yul\":2495:2709   */\n  pop\n  pop\n  jump\t// out\n    /* \"#utility.yul\":2715:3461   */\ntag_24:\n    /* \"#utility.yul\":2816:2818   */\n  0x1f\n    /* \"#utility.yul\":2811:2814   */\n  dup3\n    /* \"#utility.yul\":2808:2819   */\n  gt\n    /* \"#utility.yul\":2805:3454   */\n  iszero\n  tag_63\n  jumpi\n    /* \"#utility.yul\":2845:2855   */\n  dup3\n    /* \"#utility.yul\":2840:2843   */\n  dup3\n    /* \"#utility.yul\":2837:2856   */\n  gt\n    /* \"#utility.yul\":2834:3444   */\n  iszero\n  tag_64\n  jumpi\n    /* \"#utility.yul\":2891:2929   */\n  tag_65\n    /* \"#utility.yul\":2923:2928   */\n  dup2\n    /* \"#utility.yul\":2891:2929   */\n  tag_12\n  jump\t// in\ntag_65:\n    /* \"#utility.yul\":2966:2988   */\n  tag_66\n    /* \"#utility.yul\":2984:2987   */\n  dup4\n    /* \"#utility.yul\":2966:2988   */\n  tag_13\n  jump\t// in\ntag_66:\n    /* \"#utility.yul\":3025:3054   */\n  tag_67\n    /* \"#utility.yul\":3043:3053   */\n  dup6\n    /* \"#utility.yul\":3025:3054   */\n  tag_13\n  jump\t// in\ntag_67:\n    /* \"#utility.yul\":3215:3217   */\n  0x20\n    /* \"#utility.yul\":3203:3213   */\n  dup7\n    /* \"#utility.yul\":3200:3218   */\n  lt\n    /* \"#utility.yul\":3197:3276   */\n  iszero\n  tag_68\n  jumpi\n    /* \"#utility.yul\":3257:3258   */\n  0x00\n    /* \"#utility.yul\":3241:3258   */\n  swap1\n  pop\n    /* \"#utility.yul\":3197:3276   */\ntag_68:\n    /* \"#utility.yul\":3326:3338   */\n  dup1\n    /* \"#utility.yul\":3316:3324   */\n  dup4\n    /* \"#utility.yul\":3312:3339   */\n  add\n    /* \"#utility.yul\":3356:3430   */\n  tag_69\n    /* \"#utility.yul\":3416:3428   */\n  dup3\n    /* \"#utility.yul\":3402:3414   */\n  dup5\n    /* \"#utility.yul\":3398:3429   */\n  sub\n    /* \"#utility.yul\":3385:3396   */\n  dup3\n    /* \"#utility.yul\":3356:3430   */\n  tag_23\n  jump\t// in\ntag_69:\n    /* \"#utility.yul\":2857:3444   */\n  pop\n  pop\n  pop\n  pop\n    /* \"#utility.yul\":2834:3444   */\ntag_64:\n    /* \"#utility.yul\":2805:3454   */\ntag_63:\n    /* \"#utility.yul\":2715:3461   */\n  pop\n  pop\n  pop\n  jump\t// out\n    /* \"#utility.yul\":3467:3584   */\ntag_25:\n    /* \"#utility.yul\":3521:3529   */\n  0x00\n    /* \"#utility.yul\":3571:3576   */\n  dup3\n    /* \"#utility.yul\":3565:3569   */\n  dup3\n    /* \"#utility.yul\":3561:3577   */\n  shr\n    /* \"#utility.yul\":3540:3577   */\n  swap1\n  pop\n    /* \"#utility.yul\":3467:3584   */\n  swap3\n  swap2\n  pop\n  pop\n  jump\t// out\n    /* \"#utility.yul\":3590:3759   */\ntag_26:\n    /* \"#utility.yul\":3634:3640   */\n  0x00\n    /* \"#utility.yul\":3667:3718   */\n  tag_72\n    /* \"#utility.yul\":3715:3716   */\n  0x00\n    /* \"#utility.yul\":3711:3717   */\n  not\n    /* \"#utility.yul\":3703:3708   */\n  dup5\n    /* \"#utility.yul\":3700:3701   */\n  0x08\n    /* \"#utility.yul\":3696:3709   */\n  mul\n    /* \"#utility.yul\":3667:3718   */\n  tag_25\n  jump\t// in\ntag_72:\n    /* \"#utility.yul\":3663:3719   */\n  not\n    /* \"#utility.yul\":3748:3752   */\n  dup1\n    /* \"#utility.yul\":3742:3746   */\n  dup4\n    /* \"#utility.yul\":3738:3753   */\n  and\n    /* \"#utility.yul\":3728:3753   */\n  swap2\n  pop\n    /* \"#utility.yul\":3641:3759   */\n  pop\n    /* \"#utility.yul\":3590:3759   */\n  swap3\n  swap2\n  pop\n  pop\n  jump\t// out\n    /* \"#utility.yul\":3764:4059   */\ntag_27:\n    /* \"#utility.yul\":3840:3844   */\n  0x00\n    /* \"#utility.yul\":3986:4015   */\n  tag_74\n    /* \"#utility.yul\":4011:4014   */\n  dup4\n    /* \"#utility.yul\":4005:4009   */\n  dup4\n    /* \"#utility.yul\":3986:4015   */\n  tag_26\n  jump\t// in\ntag_74:\n    /* \"#utility.yul\":3978:4015   */\n  swap2\n  pop\n    /* \"#utility.yul\":4048:4051   */\n  dup3\n    /* \"#utility.yul\":4045:4046   */\n  0x02\n    /* \"#utility.yul\":4041:4052   */\n  mul\n    /* \"#utility.yul\":4035:4039   */\n  dup3\n    /* \"#utility.yul\":4032:4053   */\n  or\n    /* \"#utility.yul\":4024:4053   */\n  swap1\n  pop\n    /* \"#utility.yul\":3764:4059   */\n  swap3\n  swap2\n  pop\n  pop\n  jump\t// out\n    /* \"#utility.yul\":4064:5459   */\ntag_2:\n    /* \"#utility.yul\":4181:4218   */\n  tag_76\n    /* \"#utility.yul\":4214:4217   */\n  dup3\n    /* \"#utility.yul\":4181:4218   */\n  tag_8\n  jump\t// in\ntag_76:\n    /* \"#utility.yul\":4283:4301   */\n  0xffffffffffffffff\n    /* \"#utility.yul\":4275:4281   */\n  dup2\n    /* \"#utility.yul\":4272:4302   */\n  gt\n    /* \"#utility.yul\":4269:4325   */\n  iszero\n  tag_77\n  jumpi\n    /* \"#utility.yul\":4305:4323   */\n  tag_78\n  tag_9\n  jump\t// in\ntag_78:\n    /* \"#utility.yul\":4269:4325   */\ntag_77:\n    /* \"#utility.yul\":4349:4387   */\n  tag_79\n    /* \"#utility.yul\":4381:4385   */\n  dup3\n    /* \"#utility.yul\":4375:4386   */\n  sload\n    /* \"#utility.yul\":4349:4387   */\n  tag_11\n  jump\t// in\ntag_79:\n    /* \"#utility.yul\":4434:4501   */\n  tag_80\n    /* \"#utility.yul\":4494:4500   */\n  dup3\n    /* \"#utility.yul\":4486:4492   */\n  dup3\n    /* \"#utility.yul\":4480:4484   */\n  dup6\n    /* \"#utility.yul\":4434:4501   */\n  tag_24\n  jump\t// in\ntag_80:\n    /* \"#utility.yul\":4528:4529   */\n  0x00\n    /* \"#utility.yul\":4552:4556   */\n  0x20\n    /* \"#utility.yul\":4539:4556   */\n  swap1\n  pop\n    /* \"#utility.yul\":4584:4586   */\n  0x1f\n    /* \"#utility.yul\":4576:4582   */\n  dup4\n    /* \"#utility.yul\":4573:4587   */\n  gt\n    /* \"#utility.yul\":4601:4602   */\n  0x01\n    /* \"#utility.yul\":4596:5214   */\n  dup2\n  eq\n  tag_82\n  jumpi\n    /* \"#utility.yul\":5258:5259   */\n  0x00\n    /* \"#utility.yul\":5275:5281   */\n  dup5\n    /* \"#utility.yul\":5272:5349   */\n  iszero\n  tag_83\n  jumpi\n    /* \"#utility.yul\":5324:5333   */\n  dup3\n    /* \"#utility.yul\":5319:5322   */\n  dup8\n    /* \"#utility.yul\":5315:5334   */\n  add\n    /* \"#utility.yul\":5309:5335   */\n  mload\n    /* \"#utility.yul\":5300:5335   */\n  swap1\n  pop\n    /* \"#utility.yul\":5272:5349   */\ntag_83:\n    /* \"#utility.yul\":5375:5442   */\n  tag_84\n    /* \"#utility.yul\":5435:5441   */\n  dup6\n    /* \"#utility.yul\":5428:5433   */\n  dup3\n    /* \"#utility.yul\":5375:5442   */\n  tag_27\n  jump\t// in\ntag_84:\n    /* \"#utility.yul\":5369:5373   */\n  dup7\n    /* \"#utility.yul\":5362:5443   */\n  sstore\n    /* \"#utility.yul\":5231:5453   */\n  pop\n    /* \"#utility.yul\":4566:5453   */\n  jump(tag_81)\n    /* \"#utility.yul\":4596:5214   */\ntag_82:\n    /* \"#utility.yul\":4648:4652   */\n  0x1f\n    /* \"#utility.yul\":4644:4653   */\n  not\n    /* \"#utility.yul\":4636:4642   */\n  dup5\n    /* \"#utility.yul\":4632:4654   */\n  and\n    /* \"#utility.yul\":4682:4719   */\n  tag_85\n    /* \"#utility.yul\":4714:4718   */\n  dup7\n    /* \"#utility.yul\":4682:4719   */\n  tag_12\n  jump\t// in\ntag_85:\n    /* \"#utility.yul\":4741:4742   */\n  0x00\n    /* \"#utility.yul\":4755:4963   */\ntag_86:\n    /* \"#utility.yul\":4769:4776   */\n  dup3\n    /* \"#utility.yul\":4766:4767   */\n  dup2\n    /* \"#utility.yul\":4763:4777   */\n  lt\n    /* \"#utility.yul\":4755:4963   */\n  iszero\n  tag_88\n  jumpi\n    /* \"#utility.yul\":4848:4857   */\n  dup5\n    /* \"#utility.yul\":4843:4846   */\n  dup10\n    /* \"#utility.yul\":4839:4858   */\n  add\n    /* \"#utility.yul\":4833:4859   */\n  mload\n    /* \"#utility.yul\":4825:4831   */\n  dup3\n    /* \"#utility.yul\":4818:4860   */\n  sstore\n    /* \"#utility.yul\":4899:4900   */\n  0x01\n    /* \"#utility.yul\":4891:4897   */\n  dup3\n    /* \"#utility.yul\":4887:4901   */\n  add\n    /* \"#utility.yul\":4877:4901   */\n  swap2\n  pop\n    /* \"#utility.yul\":4946:4948   */\n  0x20\n    /* \"#utility.yul\":4935:4944   */\n  dup6\n    /* \"#utility.yul\":4931:4949   */\n  add\n    /* \"#utility.yul\":4918:4949   */\n  swap5\n  pop\n    /* \"#utility.yul\":4792:4796   */\n  0x20\n    /* \"#utility.yul\":4789:4790   */\n  dup2\n    /* \"#utility.yul\":4785:4797   */\n  add\n    /* \"#utility.yul\":4780:4797   */\n  swap1\n  pop\n    /* \"#utility.yul\":4755:4963   */\n  jump(tag_86)\ntag_88:\n    /* \"#utility.yul\":4991:4997   */\n  dup7\n    /* \"#utility.yul\":4982:4989   */\n  dup4\n    /* \"#utility.yul\":4979:4998   */\n  lt\n    /* \"#utility.yul\":4976:5155   */\n  iszero\n  tag_89\n  jumpi\n    /* \"#utility.yul\":5049:5058   */\n  dup5\n    /* \"#utility.yul\":5044:5047   */\n  dup10\n    /* \"#utility.yul\":5040:5059   */\n  add\n    /* \"#utility.yul\":5034:5060   */\n  mload\n    /* \"#utility.yul\":5092:5140   */\n  tag_90\n    /* \"#utility.yul\":5134:5138   */\n  0x1f\n    /* \"#utility.yul\":5126:5132   */\n  dup10\n    /* \"#utility.yul\":5122:5139   */\n  and\n    /* \"#utility.yul\":5111:5120   */\n  dup3\n    /* \"#utility.yul\":5092:5140   */\n  tag_26\n  jump\t// in\ntag_90:\n    /* \"#utility.yul\":5084:5090   */\n  dup4\n    /* \"#utility.yul\":5077:5141   */\n  sstore\n    /* \"#utility.yul\":4999:5155   */\n  pop\n    /* \"#utility.yul\":4976:5155   */\ntag_89:\n    /* \"#utility.yul\":5201:5202   */\n  0x01\n    /* \"#utility.yul\":5197:5198   */\n  0x02\n    /* \"#utility.yul\":5189:5195   */\n  dup9\n    /* \"#utility.yul\":5185:5199   */\n  mul\n    /* \"#utility.yul\":5181:5203   */\n  add\n    /* \"#utility.yul\":5175:5179   */\n  dup9\n    /* \"#utility.yul\":5168:5204   */\n  sstore\n    /* \"#utility.yul\":4603:5214   */\n  pop\n  pop\n  pop\n    /* \"#utility.yul\":4566:5453   */\ntag_81:\n  pop\n    /* \"#utility.yul\":4156:5459   */\n  pop\n  pop\n  pop\n    /* \"#utility.yul\":4064:5459   */\n  pop\n  pop\n  jump\t// out\n    /* \"Game.sol\":79:3169  contract Token {... */\ntag_7:\n  dataSize(sub_0)\n  dup1\n  dataOffset(sub_0)\n  0x00\n  codecopy\n  0x00\n  return\nstop\n\nsub_0: assembly {\n        /* \"Game.sol\":79:3169  contract Token {... */\n      mstore(0x40, 0x80)\n      jumpi(tag_1, lt(calldatasize, 0x04))\n      shr(0xe0, calldataload(0x00))\n      dup1\n      0x70a08231\n      gt\n      tag_13\n      jumpi\n      dup1\n      0x70a08231\n      eq\n      tag_8\n      jumpi\n      dup1\n      0x8da5cb5b\n      eq\n      tag_9\n      jumpi\n      dup1\n      0x98d5fdca\n      eq\n      tag_10\n      jumpi\n      dup1\n      0xa9059cbb\n      eq\n      tag_11\n      jumpi\n      dup1\n      0xe4849b32\n      eq\n      tag_12\n      jumpi\n      jump(tag_2)\n    tag_13:\n      dup1\n      0x15070401\n      eq\n      tag_3\n      jumpi\n      dup1\n      0x17d7de7c\n      eq\n      tag_4\n      jumpi\n      dup1\n      0x18160ddd\n      eq\n      tag_5\n      jumpi\n      dup1\n      0x40c10f19\n      eq\n      tag_6\n      jumpi\n      dup1\n      0x43d726d6\n      eq\n      tag_7\n      jumpi\n      jump(tag_2)\n    tag_1:\n    tag_2:\n      stop\n        /* \"Game.sol\":1106:1182  function getSymbol() public view returns (string memory) { return _symbol; } */\n    tag_3:\n      callvalue\n      dup1\n      iszero\n      tag_18\n      jumpi\n      revert(0x00, 0x00)\n    tag_18:\n      pop\n      tag_19\n      tag_20\n      jump\t// in\n    tag_19:\n      mload(0x40)\n      tag_21\n      swap2\n      swap1\n      tag_22\n      jump\t// in\n    tag_21:\n      mload(0x40)\n      dup1\n      swap2\n      sub\n      swap1\n      return\n        /* \"Game.sol\":1028:1100  function getName() public view returns (string memory) { return _name; } */\n    tag_4:\n      callvalue\n      dup1\n      iszero\n      tag_23\n      jumpi\n      revert(0x00, 0x00)\n    tag_23:\n      pop\n      tag_24\n      tag_25\n      jump\t// in\n    tag_24:\n      mload(0x40)\n      tag_26\n      swap2\n      swap1\n      tag_22\n      jump\t// in\n    tag_26:\n      mload(0x40)\n      dup1\n      swap2\n      sub\n      swap1\n      return\n        /* \"Game.sol\":843:920  function totalSupply() public view returns (uint256) { return _totalSupply; } */\n    tag_5:\n      callvalue\n      dup1\n      iszero\n      tag_27\n      jumpi\n      revert(0x00, 0x00)\n    tag_27:\n      pop\n      tag_28\n      tag_29\n      jump\t// in\n    tag_28:\n      mload(0x40)\n      tag_30\n      swap2\n      swap1\n      tag_31\n      jump\t// in\n    tag_30:\n      mload(0x40)\n      dup1\n      swap2\n      sub\n      swap1\n      return\n        /* \"Game.sol\":1722:2087  function mint(address to, uint256 value) public returns (bool) {... */\n    tag_6:\n      callvalue\n      dup1\n      iszero\n      tag_32\n      jumpi\n      revert(0x00, 0x00)\n    tag_32:\n      pop\n      tag_33\n      0x04\n      dup1\n      calldatasize\n      sub\n      dup2\n      add\n      swap1\n      tag_34\n      swap2\n      swap1\n      tag_35\n      jump\t// in\n    tag_34:\n      tag_36\n      jump\t// in\n    tag_33:\n      mload(0x40)\n      tag_37\n      swap2\n      swap1\n      tag_38\n      jump\t// in\n    tag_37:\n      mload(0x40)\n      dup1\n      swap2\n      sub\n      swap1\n      return\n        /* \"Game.sol\":2778:3166  function close() public {... */\n    tag_7:\n      callvalue\n      dup1\n      iszero\n      tag_39\n      jumpi\n      revert(0x00, 0x00)\n    tag_39:\n      pop\n      tag_40\n      tag_41\n      jump\t// in\n    tag_40:\n      stop\n        /* \"Game.sol\":926:1022  function balanceOf(address account) public view returns (uint256) { return _balances[account]; } */\n    tag_8:\n      callvalue\n      dup1\n      iszero\n      tag_42\n      jumpi\n      revert(0x00, 0x00)\n    tag_42:\n      pop\n      tag_43\n      0x04\n      dup1\n      calldatasize\n      sub\n      dup2\n      add\n      swap1\n      tag_44\n      swap2\n      swap1\n      tag_45\n      jump\t// in\n    tag_44:\n      tag_46\n      jump\t// in\n    tag_43:\n      mload(0x40)\n      tag_47\n      swap2\n      swap1\n      tag_31\n      jump\t// in\n    tag_47:\n      mload(0x40)\n      dup1\n      swap2\n      sub\n      swap1\n      return\n        /* \"Game.sol\":109:137  address payable public owner */\n    tag_9:\n      callvalue\n      dup1\n      iszero\n      tag_48\n      jumpi\n      revert(0x00, 0x00)\n    tag_48:\n      pop\n      tag_49\n      tag_50\n      jump\t// in\n    tag_49:\n      mload(0x40)\n      tag_51\n      swap2\n      swap1\n      tag_52\n      jump\t// in\n    tag_51:\n      mload(0x40)\n      dup1\n      swap2\n      sub\n      swap1\n      return\n        /* \"Game.sol\":1188:1256  function getPrice() public view returns (uint128) { return _price; } */\n    tag_10:\n      callvalue\n      dup1\n      iszero\n      tag_53\n      jumpi\n      revert(0x00, 0x00)\n    tag_53:\n      pop\n      tag_54\n      tag_55\n      jump\t// in\n    tag_54:\n      mload(0x40)\n      tag_56\n      swap2\n      swap1\n      tag_57\n      jump\t// in\n    tag_56:\n      mload(0x40)\n      dup1\n      swap2\n      sub\n      swap1\n      return\n        /* \"Game.sol\":1286:1696  function transfer(address to, uint256 value) public returns (bool) {... */\n    tag_11:\n      callvalue\n      dup1\n      iszero\n      tag_58\n      jumpi\n      revert(0x00, 0x00)\n    tag_58:\n      pop\n      tag_59\n      0x04\n      dup1\n      calldatasize\n      sub\n      dup2\n      add\n      swap1\n      tag_60\n      swap2\n      swap1\n      tag_35\n      jump\t// in\n    tag_60:\n      tag_61\n      jump\t// in\n    tag_59:\n      mload(0x40)\n      tag_62\n      swap2\n      swap1\n      tag_38\n      jump\t// in\n    tag_62:\n      mload(0x40)\n      dup1\n      swap2\n      sub\n      swap1\n      return\n        /* \"Game.sol\":2119:2748  function sell(uint256 value) public returns (bool) {... */\n    tag_12:\n      callvalue\n      dup1\n      iszero\n      tag_63\n      jumpi\n      revert(0x00, 0x00)\n    tag_63:\n      pop\n      tag_64\n      0x04\n      dup1\n      calldatasize\n      sub\n      dup2\n      add\n      swap1\n      tag_65\n      swap2\n      swap1\n      tag_66\n      jump\t// in\n    tag_65:\n      tag_67\n      jump\t// in\n    tag_64:\n      mload(0x40)\n      tag_68\n      swap2\n      swap1\n      tag_38\n      jump\t// in\n    tag_68:\n      mload(0x40)\n      dup1\n      swap2\n      sub\n      swap1\n      return\n        /* \"Game.sol\":1106:1182  function getSymbol() public view returns (string memory) { return _symbol; } */\n    tag_20:\n        /* \"Game.sol\":1148:1161  string memory */\n      0x60\n        /* \"Game.sol\":1172:1179  _symbol */\n      0x02\n        /* \"Game.sol\":1165:1179  return _symbol */\n      dup1\n      sload\n      tag_70\n      swap1\n      tag_71\n      jump\t// in\n    tag_70:\n      dup1\n      0x1f\n      add\n      0x20\n      dup1\n      swap2\n      div\n      mul\n      0x20\n      add\n      mload(0x40)\n      swap1\n      dup2\n      add\n      0x40\n      mstore\n      dup1\n      swap3\n      swap2\n      swap1\n      dup2\n      dup2\n      mstore\n      0x20\n      add\n      dup3\n      dup1\n      sload\n      tag_72\n      swap1\n      tag_71\n      jump\t// in\n    tag_72:\n      dup1\n      iszero\n      tag_73\n      jumpi\n      dup1\n      0x1f\n      lt\n      tag_74\n      jumpi\n      0x0100\n      dup1\n      dup4\n      sload\n      div\n      mul\n      dup4\n      mstore\n      swap2\n      0x20\n      add\n      swap2\n      jump(tag_73)\n    tag_74:\n      dup3\n      add\n      swap2\n      swap1\n      0x00\n      mstore\n      keccak256(0x00, 0x20)\n      swap1\n    tag_75:\n      dup2\n      sload\n      dup2\n      mstore\n      swap1\n      0x01\n      add\n      swap1\n      0x20\n      add\n      dup1\n      dup4\n      gt\n      tag_75\n      jumpi\n      dup3\n      swap1\n      sub\n      0x1f\n      and\n      dup3\n      add\n      swap2\n    tag_73:\n      pop\n      pop\n      pop\n      pop\n      pop\n      swap1\n      pop\n        /* \"Game.sol\":1106:1182  function getSymbol() public view returns (string memory) { return _symbol; } */\n      swap1\n      jump\t// out\n        /* \"Game.sol\":1028:1100  function getName() public view returns (string memory) { return _name; } */\n    tag_25:\n        /* \"Game.sol\":1068:1081  string memory */\n      0x60\n        /* \"Game.sol\":1092:1097  _name */\n      0x01\n        /* \"Game.sol\":1085:1097  return _name */\n      dup1\n      sload\n      tag_77\n      swap1\n      tag_71\n      jump\t// in\n    tag_77:\n      dup1\n      0x1f\n      add\n      0x20\n      dup1\n      swap2\n      div\n      mul\n      0x20\n      add\n      mload(0x40)\n      swap1\n      dup2\n      add\n      0x40\n      mstore\n      dup1\n      swap3\n      swap2\n      swap1\n      dup2\n      dup2\n      mstore\n      0x20\n      add\n      dup3\n      dup1\n      sload\n      tag_78\n      swap1\n      tag_71\n      jump\t// in\n    tag_78:\n      dup1\n      iszero\n      tag_79\n      jumpi\n      dup1\n      0x1f\n      lt\n      tag_80\n      jumpi\n      0x0100\n      dup1\n      dup4\n      sload\n      div\n      mul\n      dup4\n      mstore\n      swap2\n      0x20\n      add\n      swap2\n      jump(tag_79)\n    tag_80:\n      dup3\n      add\n      swap2\n      swap1\n      0x00\n      mstore\n      keccak256(0x00, 0x20)\n      swap1\n    tag_81:\n      dup2\n      sload\n      dup2\n      mstore\n      swap1\n      0x01\n      add\n      swap1\n      0x20\n      add\n      dup1\n      dup4\n      gt\n      tag_81\n      jumpi\n      dup3\n      swap1\n      sub\n      0x1f\n      and\n      dup3\n      add\n      swap2\n    tag_79:\n      pop\n      pop\n      pop\n      pop\n      pop\n      swap1\n      pop\n        /* \"Game.sol\":1028:1100  function getName() public view returns (string memory) { return _name; } */\n      swap1\n      jump\t// out\n        /* \"Game.sol\":843:920  function totalSupply() public view returns (uint256) { return _totalSupply; } */\n    tag_29:\n        /* \"Game.sol\":887:894  uint256 */\n      0x00\n        /* \"Game.sol\":905:917  _totalSupply */\n      sload(0x03)\n        /* \"Game.sol\":898:917  return _totalSupply */\n      swap1\n      pop\n        /* \"Game.sol\":843:920  function totalSupply() public view returns (uint256) { return _totalSupply; } */\n      swap1\n      jump\t// out\n        /* \"Game.sol\":1722:2087  function mint(address to, uint256 value) public returns (bool) {... */\n    tag_36:\n        /* \"Game.sol\":1779:1783  bool */\n      0x00\n        /* \"Game.sol\":1805:1814  _isClosed */\n      0x05\n      0x10\n      swap1\n      sload\n      swap1\n      0x0100\n      exp\n      swap1\n      div\n      0xff\n      and\n        /* \"Game.sol\":1804:1814  !_isClosed */\n      iszero\n        /* \"Game.sol\":1796:1837  require(!_isClosed, \"contract is closed\") */\n      tag_84\n      jumpi\n      mload(0x40)\n      0x08c379a000000000000000000000000000000000000000000000000000000000\n      dup2\n      mstore\n      0x04\n      add\n      tag_85\n      swap1\n      tag_86\n      jump\t// in\n    tag_85:\n      mload(0x40)\n      dup1\n      swap2\n      sub\n      swap1\n      revert\n    tag_84:\n        /* \"Game.sol\":1870:1875  owner */\n      0x00\n      0x00\n      swap1\n      sload\n      swap1\n      0x0100\n      exp\n      swap1\n      div\n      0xffffffffffffffffffffffffffffffffffffffff\n      and\n        /* \"Game.sol\":1856:1875  msg.sender == owner */\n      0xffffffffffffffffffffffffffffffffffffffff\n      and\n        /* \"Game.sol\":1856:1866  msg.sender */\n      caller\n        /* \"Game.sol\":1856:1875  msg.sender == owner */\n      0xffffffffffffffffffffffffffffffffffffffff\n      and\n      eq\n        /* \"Game.sol\":1848:1899  require(msg.sender == owner, \"only owner can mint\") */\n      tag_87\n      jumpi\n      mload(0x40)\n      0x08c379a000000000000000000000000000000000000000000000000000000000\n      dup2\n      mstore\n      0x04\n      add\n      tag_88\n      swap1\n      tag_89\n      jump\t// in\n    tag_88:\n      mload(0x40)\n      dup1\n      swap2\n      sub\n      swap1\n      revert\n    tag_87:\n        /* \"Game.sol\":1932:1933  0 */\n      0x00\n        /* \"Game.sol\":1918:1934  to != address(0) */\n      0xffffffffffffffffffffffffffffffffffffffff\n      and\n        /* \"Game.sol\":1918:1920  to */\n      dup4\n        /* \"Game.sol\":1918:1934  to != address(0) */\n      0xffffffffffffffffffffffffffffffffffffffff\n      and\n      sub\n        /* \"Game.sol\":1910:1959  require(to != address(0), \"mint to zero address\") */\n      tag_90\n      jumpi\n      mload(0x40)\n      0x08c379a000000000000000000000000000000000000000000000000000000000\n      dup2\n      mstore\n      0x04\n      add\n      tag_91\n      swap1\n      tag_92\n      jump\t// in\n    tag_91:\n      mload(0x40)\n      dup1\n      swap2\n      sub\n      swap1\n      revert\n    tag_90:\n        /* \"Game.sol\":1988:1993  value */\n      dup2\n        /* \"Game.sol\":1972:1984  _totalSupply */\n      0x03\n      0x00\n        /* \"Game.sol\":1972:1993  _totalSupply += value */\n      dup3\n      dup3\n      sload\n      tag_93\n      swap2\n      swap1\n      tag_94\n      jump\t// in\n    tag_93:\n      swap3\n      pop\n      pop\n      dup2\n      swap1\n      sstore\n      pop\n        /* \"Game.sol\":2021:2026  value */\n      dup2\n        /* \"Game.sol\":2004:2013  _balances */\n      0x04\n        /* \"Game.sol\":2004:2017  _balances[to] */\n      0x00\n        /* \"Game.sol\":2014:2016  to */\n      dup6\n        /* \"Game.sol\":2004:2017  _balances[to] */\n      0xffffffffffffffffffffffffffffffffffffffff\n      and\n      0xffffffffffffffffffffffffffffffffffffffff\n      and\n      dup2\n      mstore\n      0x20\n      add\n      swap1\n      dup2\n      mstore\n      0x20\n      add\n      0x00\n      keccak256\n      0x00\n        /* \"Game.sol\":2004:2026  _balances[to] += value */\n      dup3\n      dup3\n      sload\n      tag_95\n      swap2\n      swap1\n      tag_94\n      jump\t// in\n    tag_95:\n      swap3\n      pop\n      pop\n      dup2\n      swap1\n      sstore\n      pop\n        /* \"Game.sol\":2047:2049  to */\n      dup3\n        /* \"Game.sol\":2042:2057  Mint(to, value) */\n      0xffffffffffffffffffffffffffffffffffffffff\n      and\n      0x0f6798a560793a54c3bcfe86a93cde1e73087d944c0ea20544137d4121396885\n        /* \"Game.sol\":2051:2056  value */\n      dup4\n        /* \"Game.sol\":2042:2057  Mint(to, value) */\n      mload(0x40)\n      tag_96\n      swap2\n      swap1\n      tag_31\n      jump\t// in\n    tag_96:\n      mload(0x40)\n      dup1\n      swap2\n      sub\n      swap1\n      log2\n        /* \"Game.sol\":2075:2079  true */\n      0x01\n        /* \"Game.sol\":2068:2079  return true */\n      swap1\n      pop\n        /* \"Game.sol\":1722:2087  function mint(address to, uint256 value) public returns (bool) {... */\n      swap3\n      swap2\n      pop\n      pop\n      jump\t// out\n        /* \"Game.sol\":2778:3166  function close() public {... */\n    tag_41:\n        /* \"Game.sol\":2835:2840  owner */\n      0x00\n      0x00\n      swap1\n      sload\n      swap1\n      0x0100\n      exp\n      swap1\n      div\n      0xffffffffffffffffffffffffffffffffffffffff\n      and\n        /* \"Game.sol\":2821:2840  msg.sender == owner */\n      0xffffffffffffffffffffffffffffffffffffffff\n      and\n        /* \"Game.sol\":2821:2831  msg.sender */\n      caller\n        /* \"Game.sol\":2821:2840  msg.sender == owner */\n      0xffffffffffffffffffffffffffffffffffffffff\n      and\n      eq\n        /* \"Game.sol\":2813:2865  require(msg.sender == owner, \"only owner can close\") */\n      tag_98\n      jumpi\n      mload(0x40)\n      0x08c379a000000000000000000000000000000000000000000000000000000000\n      dup2\n      mstore\n      0x04\n      add\n      tag_99\n      swap1\n      tag_100\n      jump\t// in\n    tag_99:\n      mload(0x40)\n      dup1\n      swap2\n      sub\n      swap1\n      revert\n    tag_98:\n        /* \"Game.sol\":2885:2894  _isClosed */\n      0x05\n      0x10\n      swap1\n      sload\n      swap1\n      0x0100\n      exp\n      swap1\n      div\n      0xff\n      and\n        /* \"Game.sol\":2884:2894  !_isClosed */\n      iszero\n        /* \"Game.sol\":2876:2913  require(!_isClosed, \"already closed\") */\n      tag_101\n      jumpi\n      mload(0x40)\n      0x08c379a000000000000000000000000000000000000000000000000000000000\n      dup2\n      mstore\n      0x04\n      add\n      tag_102\n      swap1\n      tag_103\n      jump\t// in\n    tag_102:\n      mload(0x40)\n      dup1\n      swap2\n      sub\n      swap1\n      revert\n    tag_101:\n        /* \"Game.sol\":2936:2940  true */\n      0x01\n        /* \"Game.sol\":2924:2933  _isClosed */\n      0x05\n      0x10\n        /* \"Game.sol\":2924:2940  _isClosed = true */\n      0x0100\n      exp\n      dup2\n      sload\n      dup2\n      0xff\n      mul\n      not\n      and\n      swap1\n      dup4\n      iszero\n      iszero\n      mul\n      or\n      swap1\n      sstore\n      pop\n        /* \"Game.sol\":2953:2970  uint256 remaining */\n      0x00\n        /* \"Game.sol\":2973:2994  address(this).balance */\n      selfbalance\n        /* \"Game.sol\":2953:2994  uint256 remaining = address(this).balance */\n      swap1\n      pop\n        /* \"Game.sol\":3021:3022  0 */\n      0x00\n        /* \"Game.sol\":3009:3018  remaining */\n      dup2\n        /* \"Game.sol\":3009:3022  remaining > 0 */\n      gt\n        /* \"Game.sol\":3005:3159  if (remaining > 0) {... */\n      iszero\n      tag_104\n      jumpi\n        /* \"Game.sol\":3040:3049  bool sent */\n      0x00\n        /* \"Game.sol\":3055:3060  owner */\n      0x00\n      0x00\n      swap1\n      sload\n      swap1\n      0x0100\n      exp\n      swap1\n      div\n      0xffffffffffffffffffffffffffffffffffffffff\n      and\n        /* \"Game.sol\":3055:3065  owner.call */\n      0xffffffffffffffffffffffffffffffffffffffff\n      and\n        /* \"Game.sol\":3073:3082  remaining */\n      dup3\n        /* \"Game.sol\":3055:3087  owner.call{value: remaining}(\"\") */\n      mload(0x40)\n      tag_105\n      swap1\n      tag_106\n      jump\t// in\n    tag_105:\n      0x00\n      mload(0x40)\n      dup1\n      dup4\n      sub\n      dup2\n      dup6\n      dup8\n      gas\n      call\n      swap3\n      pop\n      pop\n      pop\n      returndatasize\n      dup1\n      0x00\n      dup2\n      eq\n      tag_109\n      jumpi\n      mload(0x40)\n      swap2\n      pop\n      and(add(returndatasize, 0x3f), not(0x1f))\n      dup3\n      add\n      0x40\n      mstore\n      returndatasize\n      dup3\n      mstore\n      returndatasize\n      0x00\n      0x20\n      dup5\n      add\n      returndatacopy\n      jump(tag_108)\n    tag_109:\n      0x60\n      swap2\n      pop\n    tag_108:\n      pop\n        /* \"Game.sol\":3039:3087  (bool sent, ) = owner.call{value: remaining}(\"\") */\n      pop\n      swap1\n      pop\n        /* \"Game.sol\":3110:3114  sent */\n      dup1\n        /* \"Game.sol\":3102:3147  require(sent, \"ETH transfer to owner failed\") */\n      tag_110\n      jumpi\n      mload(0x40)\n      0x08c379a000000000000000000000000000000000000000000000000000000000\n      dup2\n      mstore\n      0x04\n      add\n      tag_111\n      swap1\n      tag_112\n      jump\t// in\n    tag_111:\n      mload(0x40)\n      dup1\n      swap2\n      sub\n      swap1\n      revert\n    tag_110:\n        /* \"Game.sol\":3024:3159  {... */\n      pop\n        /* \"Game.sol\":3005:3159  if (remaining > 0) {... */\n    tag_104:\n        /* \"Game.sol\":2802:3166  {... */\n      pop\n        /* \"Game.sol\":2778:3166  function close() public {... */\n      jump\t// out\n        /* \"Game.sol\":926:1022  function balanceOf(address account) public view returns (uint256) { return _balances[account]; } */\n    tag_46:\n        /* \"Game.sol\":983:990  uint256 */\n      0x00\n        /* \"Game.sol\":1001:1010  _balances */\n      0x04\n        /* \"Game.sol\":1001:1019  _balances[account] */\n      0x00\n        /* \"Game.sol\":1011:1018  account */\n      dup4\n        /* \"Game.sol\":1001:1019  _balances[account] */\n      0xffffffffffffffffffffffffffffffffffffffff\n      and\n      0xffffffffffffffffffffffffffffffffffffffff\n      and\n      dup2\n      mstore\n      0x20\n      add\n      swap1\n      dup2\n      mstore\n      0x20\n      add\n      0x00\n      keccak256\n      sload\n        /* \"Game.sol\":994:1019  return _balances[account] */\n      swap1\n      pop\n        /* \"Game.sol\":926:1022  function balanceOf(address account) public view returns (uint256) { return _balances[account]; } */\n      swap2\n      swap1\n      pop\n      jump\t// out\n        /* \"Game.sol\":109:137  address payable public owner */\n    tag_50:\n      0x00\n      0x00\n      swap1\n      sload\n      swap1\n      0x0100\n      exp\n      swap1\n      div\n      0xffffffffffffffffffffffffffffffffffffffff\n      and\n      dup2\n      jump\t// out\n        /* \"Game.sol\":1188:1256  function getPrice() public view returns (uint128) { return _price; } */\n    tag_55:\n        /* \"Game.sol\":1229:1236  uint128 */\n      0x00\n        /* \"Game.sol\":1247:1253  _price */\n      0x05\n      0x00\n      swap1\n      sload\n      swap1\n      0x0100\n      exp\n      swap1\n      div\n      0xffffffffffffffffffffffffffffffff\n      and\n        /* \"Game.sol\":1240:1253  return _price */\n      swap1\n      pop\n        /* \"Game.sol\":1188:1256  function getPrice() public view returns (uint128) { return _price; } */\n      swap1\n      jump\t// out\n        /* \"Game.sol\":1286:1696  function transfer(address to, uint256 value) public returns (bool) {... */\n    tag_61:\n        /* \"Game.sol\":1347:1351  bool */\n      0x00\n        /* \"Game.sol\":1373:1382  _isClosed */\n      0x05\n      0x10\n      swap1\n      sload\n      swap1\n      0x0100\n      exp\n      swap1\n      div\n      0xff\n      and\n        /* \"Game.sol\":1372:1382  !_isClosed */\n      iszero\n        /* \"Game.sol\":1364:1405  require(!_isClosed, \"contract is closed\") */\n      tag_116\n      jumpi\n      mload(0x40)\n      0x08c379a000000000000000000000000000000000000000000000000000000000\n      dup2\n      mstore\n      0x04\n      add\n      tag_117\n      swap1\n      tag_86\n      jump\t// in\n    tag_117:\n      mload(0x40)\n      dup1\n      swap2\n      sub\n      swap1\n      revert\n    tag_116:\n        /* \"Game.sol\":1438:1439  0 */\n      0x00\n        /* \"Game.sol\":1424:1440  to != address(0) */\n      0xffffffffffffffffffffffffffffffffffffffff\n      and\n        /* \"Game.sol\":1424:1426  to */\n      dup4\n        /* \"Game.sol\":1424:1440  to != address(0) */\n      0xffffffffffffffffffffffffffffffffffffffff\n      and\n      sub\n        /* \"Game.sol\":1416:1469  require(to != address(0), \"transfer to zero address\") */\n      tag_118\n      jumpi\n      mload(0x40)\n      0x08c379a000000000000000000000000000000000000000000000000000000000\n      dup2\n      mstore\n      0x04\n      add\n      tag_119\n      swap1\n      tag_120\n      jump\t// in\n    tag_119:\n      mload(0x40)\n      dup1\n      swap2\n      sub\n      swap1\n      revert\n    tag_118:\n        /* \"Game.sol\":1513:1518  value */\n      dup2\n        /* \"Game.sol\":1488:1497  _balances */\n      0x04\n        /* \"Game.sol\":1488:1509  _balances[msg.sender] */\n      0x00\n        /* \"Game.sol\":1498:1508  msg.sender */\n      caller\n        /* \"Game.sol\":1488:1509  _balances[msg.sender] */\n      0xffffffffffffffffffffffffffffffffffffffff\n      and\n      0xffffffffffffffffffffffffffffffffffffffff\n      and\n      dup2\n      mstore\n      0x20\n      add\n      swap1\n      dup2\n      mstore\n      0x20\n      add\n      0x00\n      keccak256\n      sload\n        /* \"Game.sol\":1488:1518  _balances[msg.sender] >= value */\n      lt\n      iszero\n        /* \"Game.sol\":1480:1543  require(_balances[msg.sender] >= value, \"insufficient balance\") */\n      tag_121\n      jumpi\n      mload(0x40)\n      0x08c379a000000000000000000000000000000000000000000000000000000000\n      dup2\n      mstore\n      0x04\n      add\n      tag_122\n      swap1\n      tag_123\n      jump\t// in\n    tag_122:\n      mload(0x40)\n      dup1\n      swap2\n      sub\n      swap1\n      revert\n    tag_121:\n        /* \"Game.sol\":1581:1586  value */\n      dup2\n        /* \"Game.sol\":1556:1565  _balances */\n      0x04\n        /* \"Game.sol\":1556:1577  _balances[msg.sender] */\n      0x00\n        /* \"Game.sol\":1566:1576  msg.sender */\n      caller\n        /* \"Game.sol\":1556:1577  _balances[msg.sender] */\n      0xffffffffffffffffffffffffffffffffffffffff\n      and\n      0xffffffffffffffffffffffffffffffffffffffff\n      and\n      dup2\n      mstore\n      0x20\n      add\n      swap1\n      dup2\n      mstore\n      0x20\n      add\n      0x00\n      keccak256\n      0x00\n        /* \"Game.sol\":1556:1586  _balances[msg.sender] -= value */\n      dup3\n      dup3\n      sload\n      tag_124\n      swap2\n      swap1\n      tag_125\n      jump\t// in\n    tag_124:\n      swap3\n      pop\n      pop\n      dup2\n      swap1\n      sstore\n      pop\n        /* \"Game.sol\":1614:1619  value */\n      dup2\n        /* \"Game.sol\":1597:1606  _balances */\n      0x04\n        /* \"Game.sol\":1597:1610  _balances[to] */\n      0x00\n        /* \"Game.sol\":1607:1609  to */\n      dup6\n        /* \"Game.sol\":1597:1610  _balances[to] */\n      0xffffffffffffffffffffffffffffffffffffffff\n      and\n      0xffffffffffffffffffffffffffffffffffffffff\n      and\n      dup2\n      mstore\n      0x20\n      add\n      swap1\n      dup2\n      mstore\n      0x20\n      add\n      0x00\n      keccak256\n      0x00\n        /* \"Game.sol\":1597:1619  _balances[to] += value */\n      dup3\n      dup3\n      sload\n      tag_126\n      swap2\n      swap1\n      tag_94\n      jump\t// in\n    tag_126:\n      swap3\n      pop\n      pop\n      dup2\n      swap1\n      sstore\n      pop\n        /* \"Game.sol\":1656:1658  to */\n      dup3\n        /* \"Game.sol\":1635:1666  Transfer(msg.sender, to, value) */\n      0xffffffffffffffffffffffffffffffffffffffff\n      and\n        /* \"Game.sol\":1644:1654  msg.sender */\n      caller\n        /* \"Game.sol\":1635:1666  Transfer(msg.sender, to, value) */\n      0xffffffffffffffffffffffffffffffffffffffff\n      and\n      0xddf252ad1be2c89b69c2b068fc378daa952ba7f163c4a11628f55a4df523b3ef\n        /* \"Game.sol\":1660:1665  value */\n      dup5\n        /* \"Game.sol\":1635:1666  Transfer(msg.sender, to, value) */\n      mload(0x40)\n      tag_127\n      swap2\n      swap1\n      tag_31\n      jump\t// in\n    tag_127:\n      mload(0x40)\n      dup1\n      swap2\n      sub\n      swap1\n      log3\n        /* \"Game.sol\":1684:1688  true */\n      0x01\n        /* \"Game.sol\":1677:1688  return true */\n      swap1\n      pop\n        /* \"Game.sol\":1286:1696  function transfer(address to, uint256 value) public returns (bool) {... */\n      swap3\n      swap2\n      pop\n      pop\n      jump\t// out\n        /* \"Game.sol\":2119:2748  function sell(uint256 value) public returns (bool) {... */\n    tag_67:\n        /* \"Game.sol\":2164:2168  bool */\n      0x00\n        /* \"Game.sol\":2190:2199  _isClosed */\n      0x05\n      0x10\n      swap1\n      sload\n      swap1\n      0x0100\n      exp\n      swap1\n      div\n      0xff\n      and\n        /* \"Game.sol\":2189:2199  !_isClosed */\n      iszero\n        /* \"Game.sol\":2181:2222  require(!_isClosed, \"contract is closed\") */\n      tag_129\n      jumpi\n      mload(0x40)\n      0x08c379a000000000000000000000000000000000000000000000000000000000\n      dup2\n      mstore\n      0x04\n      add\n      tag_130\n      swap1\n      tag_86\n      jump\t// in\n    tag_130:\n      mload(0x40)\n      dup1\n      swap2\n      sub\n      swap1\n      revert\n    tag_129:\n        /* \"Game.sol\":2249:2250  0 */\n      0x00\n        /* \"Game.sol\":2241:2246  value */\n      dup3\n        /* \"Game.sol\":2241:2250  value > 0 */\n      gt\n        /* \"Game.sol\":2233:2271  require(value > 0, \"sell zero tokens\") */\n      tag_131\n      jumpi\n      mload(0x40)\n      0x08c379a000000000000000000000000000000000000000000000000000000000\n      dup2\n      mstore\n      0x04\n      add\n      tag_132\n      swap1\n      tag_133\n      jump\t// in\n    tag_132:\n      mload(0x40)\n      dup1\n      swap2\n      sub\n      swap1\n      revert\n    tag_131:\n        /* \"Game.sol\":2315:2320  value */\n      dup2\n        /* \"Game.sol\":2290:2299  _balances */\n      0x04\n        /* \"Game.sol\":2290:2311  _balances[msg.sender] */\n      0x00\n        /* \"Game.sol\":2300:2310  msg.sender */\n      caller\n        /* \"Game.sol\":2290:2311  _balances[msg.sender] */\n      0xffffffffffffffffffffffffffffffffffffffff\n      and\n      0xffffffffffffffffffffffffffffffffffffffff\n      and\n      dup2\n      mstore\n      0x20\n      add\n      swap1\n      dup2\n      mstore\n      0x20\n      add\n      0x00\n      keccak256\n      sload\n        /* \"Game.sol\":2290:2320  _balances[msg.sender] >= value */\n      lt\n      iszero\n        /* \"Game.sol\":2282:2345  require(_balances[msg.sender] >= value, \"insufficient balance\") */\n      tag_134\n      jumpi\n      mload(0x40)\n      0x08c379a000000000000000000000000000000000000000000000000000000000\n      dup2\n      mstore\n      0x04\n      add\n      tag_135\n      swap1\n      tag_123\n      jump\t// in\n    tag_135:\n      mload(0x40)\n      dup1\n      swap2\n      sub\n      swap1\n      revert\n    tag_134:\n        /* \"Game.sol\":2358:2375  uint256 ethAmount */\n      0x00\n        /* \"Game.sol\":2386:2389  600 */\n      0x0258\n        /* \"Game.sol\":2378:2383  value */\n      dup4\n        /* \"Game.sol\":2378:2389  value * 600 */\n      tag_136\n      swap2\n      swap1\n      tag_137\n      jump\t// in\n    tag_136:\n        /* \"Game.sol\":2358:2389  uint256 ethAmount = value * 600 */\n      swap1\n      pop\n        /* \"Game.sol\":2433:2442  ethAmount */\n      dup1\n        /* \"Game.sol\":2408:2429  address(this).balance */\n      selfbalance\n        /* \"Game.sol\":2408:2442  address(this).balance >= ethAmount */\n      lt\n      iszero\n        /* \"Game.sol\":2400:2476  require(address(this).balance >= ethAmount, \"contract has insufficient ETH\") */\n      tag_138\n      jumpi\n      mload(0x40)\n      0x08c379a000000000000000000000000000000000000000000000000000000000\n      dup2\n      mstore\n      0x04\n      add\n      tag_139\n      swap1\n      tag_140\n      jump\t// in\n    tag_139:\n      mload(0x40)\n      dup1\n      swap2\n      sub\n      swap1\n      revert\n    tag_138:\n        /* \"Game.sol\":2514:2519  value */\n      dup3\n        /* \"Game.sol\":2489:2498  _balances */\n      0x04\n        /* \"Game.sol\":2489:2510  _balances[msg.sender] */\n      0x00\n        /* \"Game.sol\":2499:2509  msg.sender */\n      caller\n        /* \"Game.sol\":2489:2510  _balances[msg.sender] */\n      0xffffffffffffffffffffffffffffffffffffffff\n      and\n      0xffffffffffffffffffffffffffffffffffffffff\n      and\n      dup2\n      mstore\n      0x20\n      add\n      swap1\n      dup2\n      mstore\n      0x20\n      add\n      0x00\n      keccak256\n      0x00\n        /* \"Game.sol\":2489:2519  _balances[msg.sender] -= value */\n      dup3\n      dup3\n      sload\n      tag_141\n      swap2\n      swap1\n      tag_125\n      jump\t// in\n    tag_141:\n      swap3\n      pop\n      pop\n      dup2\n      swap1\n      sstore\n      pop\n        /* \"Game.sol\":2546:2551  value */\n      dup3\n        /* \"Game.sol\":2530:2542  _totalSupply */\n      0x03\n      0x00\n        /* \"Game.sol\":2530:2551  _totalSupply -= value */\n      dup3\n      dup3\n      sload\n      tag_142\n      swap2\n      swap1\n      tag_125\n      jump\t// in\n    tag_142:\n      swap3\n      pop\n      pop\n      dup2\n      swap1\n      sstore\n      pop\n        /* \"Game.sol\":2572:2582  msg.sender */\n      caller\n        /* \"Game.sol\":2567:2590  Sell(msg.sender, value) */\n      0xffffffffffffffffffffffffffffffffffffffff\n      and\n      0x5e5e995ce3133561afceaa51a9a154d5db228cd7525d34df5185582c18d3df09\n        /* \"Game.sol\":2584:2589  value */\n      dup5\n        /* \"Game.sol\":2567:2590  Sell(msg.sender, value) */\n      mload(0x40)\n      tag_143\n      swap2\n      swap1\n      tag_31\n      jump\t// in\n    tag_143:\n      mload(0x40)\n      dup1\n      swap2\n      sub\n      swap1\n      log2\n        /* \"Game.sol\":2604:2616  bool success */\n      0x00\n        /* \"Game.sol\":2630:2640  msg.sender */\n      caller\n        /* \"Game.sol\":2622:2646  payable(msg.sender).call */\n      0xffffffffffffffffffffffffffffffffffffffff\n      and\n        /* \"Game.sol\":2654:2663  ethAmount */\n      dup3\n        /* \"Game.sol\":2622:2668  payable(msg.sender).call{value: ethAmount}(\"\") */\n      mload(0x40)\n      tag_144\n      swap1\n      tag_106\n      jump\t// in\n    tag_144:\n      0x00\n      mload(0x40)\n      dup1\n      dup4\n      sub\n      dup2\n      dup6\n      dup8\n      gas\n      call\n      swap3\n      pop\n      pop\n      pop\n      returndatasize\n      dup1\n      0x00\n      dup2\n      eq\n      tag_147\n      jumpi\n      mload(0x40)\n      swap2\n      pop\n      and(add(returndatasize, 0x3f), not(0x1f))\n      dup3\n      add\n      0x40\n      mstore\n      returndatasize\n      dup3\n      mstore\n      returndatasize\n      0x00\n      0x20\n      dup5\n      add\n      returndatacopy\n      jump(tag_146)\n    tag_147:\n      0x60\n      swap2\n      pop\n    tag_146:\n      pop\n        /* \"Game.sol\":2603:2668  (bool success, ) = payable(msg.sender).call{value: ethAmount}(\"\") */\n      pop\n      swap1\n      pop\n        /* \"Game.sol\":2687:2694  success */\n      dup1\n        /* \"Game.sol\":2679:2718  require(success, \"ETH transfer failed\") */\n      tag_148\n      jumpi\n      mload(0x40)\n      0x08c379a000000000000000000000000000000000000000000000000000000000\n      dup2\n      mstore\n      0x04\n      add\n      tag_149\n      swap1\n      tag_150\n      jump\t// in\n    tag_149:\n      mload(0x40)\n      dup1\n      swap2\n      sub\n      swap1\n      revert\n    tag_148:\n        /* \"Game.sol\":2736:2740  true */\n      0x01\n        /* \"Game.sol\":2729:2740  return true */\n      swap3\n      pop\n      pop\n      pop\n        /* \"Game.sol\":2119:2748  function sell(uint256 value) public returns (bool) {... */\n      swap2\n      swap1\n      pop\n      jump\t// out\n        /* \"#utility.yul\":7:106   */\n    tag_151:\n        /* \"#utility.yul\":59:65   */\n      0x00\n        /* \"#utility.yul\":93:98   */\n      dup2\n        /* \"#utility.yul\":87:99   */\n      mload\n        /* \"#utility.yul\":77:99   */\n      swap1\n      pop\n        /* \"#utility.yul\":7:106   */\n      swap2\n      swap1\n      pop\n      jump\t// out\n        /* \"#utility.yul\":112:281   */\n    tag_152:\n        /* \"#utility.yul\":196:207   */\n      0x00\n        /* \"#utility.yul\":230:236   */\n      dup3\n        /* \"#utility.yul\":225:228   */\n      dup3\n        /* \"#utility.yul\":218:237   */\n      mstore\n        /* \"#utility.yul\":270:274   */\n      0x20\n        /* \"#utility.yul\":265:268   */\n      dup3\n        /* \"#utility.yul\":261:275   */\n      add\n        /* \"#utility.yul\":246:275   */\n      swap1\n      pop\n        /* \"#utility.yul\":112:281   */\n      swap3\n      swap2\n      pop\n      pop\n      jump\t// out\n        /* \"#utility.yul\":287:426   */\n    tag_153:\n        /* \"#utility.yul\":376:382   */\n      dup3\n        /* \"#utility.yul\":371:374   */\n      dup2\n        /* \"#utility.yul\":366:369   */\n      dup4\n        /* \"#utility.yul\":360:383   */\n      mcopy\n        /* \"#utility.yul\":417:418   */\n      0x00\n        /* \"#utility.yul\":408:414   */\n      dup4\n        /* \"#utility.yul\":403:406   */\n      dup4\n        /* \"#utility.yul\":399:415   */\n      add\n        /* \"#utility.yul\":392:419   */\n      mstore\n        /* \"#utility.yul\":287:426   */\n      pop\n      pop\n      pop\n      jump\t// out\n        /* \"#utility.yul\":432:534   */\n    tag_154:\n        /* \"#utility.yul\":473:479   */\n      0x00\n        /* \"#utility.yul\":524:526   */\n      0x1f\n        /* \"#utility.yul\":520:527   */\n      not\n        /* \"#utility.yul\":515:517   */\n      0x1f\n        /* \"#utility.yul\":508:513   */\n      dup4\n        /* \"#utility.yul\":504:518   */\n      add\n        /* \"#utility.yul\":500:528   */\n      and\n        /* \"#utility.yul\":490:528   */\n      swap1\n      pop\n        /* \"#utility.yul\":432:534   */\n      swap2\n      swap1\n      pop\n      jump\t// out\n        /* \"#utility.yul\":540:917   */\n    tag_155:\n        /* \"#utility.yul\":628:631   */\n      0x00\n        /* \"#utility.yul\":656:695   */\n      tag_206\n        /* \"#utility.yul\":689:694   */\n      dup3\n        /* \"#utility.yul\":656:695   */\n      tag_151\n      jump\t// in\n    tag_206:\n        /* \"#utility.yul\":711:782   */\n      tag_207\n        /* \"#utility.yul\":775:781   */\n      dup2\n        /* \"#utility.yul\":770:773   */\n      dup6\n        /* \"#utility.yul\":711:782   */\n      tag_152\n      jump\t// in\n    tag_207:\n        /* \"#utility.yul\":704:782   */\n      swap4\n      pop\n        /* \"#utility.yul\":791:856   */\n      tag_208\n        /* \"#utility.yul\":849:855   */\n      dup2\n        /* \"#utility.yul\":844:847   */\n      dup6\n        /* \"#utility.yul\":837:841   */\n      0x20\n        /* \"#utility.yul\":830:835   */\n      dup7\n        /* \"#utility.yul\":826:842   */\n      add\n        /* \"#utility.yul\":791:856   */\n      tag_153\n      jump\t// in\n    tag_208:\n        /* \"#utility.yul\":881:910   */\n      tag_209\n        /* \"#utility.yul\":903:909   */\n      dup2\n        /* \"#utility.yul\":881:910   */\n      tag_154\n      jump\t// in\n    tag_209:\n        /* \"#utility.yul\":876:879   */\n      dup5\n        /* \"#utility.yul\":872:911   */\n      add\n        /* \"#utility.yul\":865:911   */\n      swap2\n      pop\n        /* \"#utility.yul\":632:917   */\n      pop\n        /* \"#utility.yul\":540:917   */\n      swap3\n      swap2\n      pop\n      pop\n      jump\t// out\n        /* \"#utility.yul\":923:1236   */\n    tag_22:\n        /* \"#utility.yul\":1036:1040   */\n      0x00\n        /* \"#utility.yul\":1074:1076   */\n      0x20\n        /* \"#utility.yul\":1063:1072   */\n      dup3\n        /* \"#utility.yul\":1059:1077   */\n      add\n        /* \"#utility.yul\":1051:1077   */\n      swap1\n      pop\n        /* \"#utility.yul\":1123:1132   */\n      dup2\n        /* \"#utility.yul\":1117:1121   */\n      dup2\n        /* \"#utility.yul\":1113:1133   */\n      sub\n        /* \"#utility.yul\":1109:1110   */\n      0x00\n        /* \"#utility.yul\":1098:1107   */\n      dup4\n        /* \"#utility.yul\":1094:1111   */\n      add\n        /* \"#utility.yul\":1087:1134   */\n      mstore\n        /* \"#utility.yul\":1151:1229   */\n      tag_211\n        /* \"#utility.yul\":1224:1228   */\n      dup2\n        /* \"#utility.yul\":1215:1221   */\n      dup5\n        /* \"#utility.yul\":1151:1229   */\n      tag_155\n      jump\t// in\n    tag_211:\n        /* \"#utility.yul\":1143:1229   */\n      swap1\n      pop\n        /* \"#utility.yul\":923:1236   */\n      swap3\n      swap2\n      pop\n      pop\n      jump\t// out\n        /* \"#utility.yul\":1242:1319   */\n    tag_156:\n        /* \"#utility.yul\":1279:1286   */\n      0x00\n        /* \"#utility.yul\":1308:1313   */\n      dup2\n        /* \"#utility.yul\":1297:1313   */\n      swap1\n      pop\n        /* \"#utility.yul\":1242:1319   */\n      swap2\n      swap1\n      pop\n      jump\t// out\n        /* \"#utility.yul\":1325:1443   */\n    tag_157:\n        /* \"#utility.yul\":1412:1436   */\n      tag_214\n        /* \"#utility.yul\":1430:1435   */\n      dup2\n        /* \"#utility.yul\":1412:1436   */\n      tag_156\n      jump\t// in\n    tag_214:\n        /* \"#utility.yul\":1407:1410   */\n      dup3\n        /* \"#utility.yul\":1400:1437   */\n      mstore\n        /* \"#utility.yul\":1325:1443   */\n      pop\n      pop\n      jump\t// out\n        /* \"#utility.yul\":1449:1671   */\n    tag_31:\n        /* \"#utility.yul\":1542:1546   */\n      0x00\n        /* \"#utility.yul\":1580:1582   */\n      0x20\n        /* \"#utility.yul\":1569:1578   */\n      dup3\n        /* \"#utility.yul\":1565:1583   */\n      add\n        /* \"#utility.yul\":1557:1583   */\n      swap1\n      pop\n        /* \"#utility.yul\":1593:1664   */\n      tag_216\n        /* \"#utility.yul\":1661:1662   */\n      0x00\n        /* \"#utility.yul\":1650:1659   */\n      dup4\n        /* \"#utility.yul\":1646:1663   */\n      add\n        /* \"#utility.yul\":1637:1643   */\n      dup5\n        /* \"#utility.yul\":1593:1664   */\n      tag_157\n      jump\t// in\n    tag_216:\n        /* \"#utility.yul\":1449:1671   */\n      swap3\n      swap2\n      pop\n      pop\n      jump\t// out\n        /* \"#utility.yul\":1758:1875   */\n    tag_159:\n        /* \"#utility.yul\":1867:1868   */\n      0x00\n        /* \"#utility.yul\":1864:1865   */\n      0x00\n        /* \"#utility.yul\":1857:1869   */\n      revert\n        /* \"#utility.yul\":2004:2130   */\n    tag_161:\n        /* \"#utility.yul\":2041:2048   */\n      0x00\n        /* \"#utility.yul\":2081:2123   */\n      0xffffffffffffffffffffffffffffffffffffffff\n        /* \"#utility.yul\":2074:2079   */\n      dup3\n        /* \"#utility.yul\":2070:2124   */\n      and\n        /* \"#utility.yul\":2059:2124   */\n      swap1\n      pop\n        /* \"#utility.yul\":2004:2130   */\n      swap2\n      swap1\n      pop\n      jump\t// out\n        /* \"#utility.yul\":2136:2232   */\n    tag_162:\n        /* \"#utility.yul\":2173:2180   */\n      0x00\n        /* \"#utility.yul\":2202:2226   */\n      tag_222\n        /* \"#utility.yul\":2220:2225   */\n      dup3\n        /* \"#utility.yul\":2202:2226   */\n      tag_161\n      jump\t// in\n    tag_222:\n        /* \"#utility.yul\":2191:2226   */\n      swap1\n      pop\n        /* \"#utility.yul\":2136:2232   */\n      swap2\n      swap1\n      pop\n      jump\t// out\n        /* \"#utility.yul\":2238:2360   */\n    tag_163:\n        /* \"#utility.yul\":2311:2335   */\n      tag_224\n        /* \"#utility.yul\":2329:2334   */\n      dup2\n        /* \"#utility.yul\":2311:2335   */\n      tag_162\n      jump\t// in\n    tag_224:\n        /* \"#utility.yul\":2304:2309   */\n      dup2\n        /* \"#utility.yul\":2301:2336   */\n      eq\n        /* \"#utility.yul\":2291:2354   */\n      tag_225\n      jumpi\n        /* \"#utility.yul\":2350:2351   */\n      0x00\n        /* \"#utility.yul\":2347:2348   */\n      0x00\n        /* \"#utility.yul\":2340:2352   */\n      revert\n        /* \"#utility.yul\":2291:2354   */\n    tag_225:\n        /* \"#utility.yul\":2238:2360   */\n      pop\n      jump\t// out\n        /* \"#utility.yul\":2366:2505   */\n    tag_164:\n        /* \"#utility.yul\":2412:2417   */\n      0x00\n        /* \"#utility.yul\":2450:2456   */\n      dup2\n        /* \"#utility.yul\":2437:2457   */\n      calldataload\n        /* \"#utility.yul\":2428:2457   */\n      swap1\n      pop\n        /* \"#utility.yul\":2466:2499   */\n      tag_227\n        /* \"#utility.yul\":2493:2498   */\n      dup2\n        /* \"#utility.yul\":2466:2499   */\n      tag_163\n      jump\t// in\n    tag_227:\n        /* \"#utility.yul\":2366:2505   */\n      swap3\n      swap2\n      pop\n      pop\n      jump\t// out\n        /* \"#utility.yul\":2511:2633   */\n    tag_165:\n        /* \"#utility.yul\":2584:2608   */\n      tag_229\n        /* \"#utility.yul\":2602:2607   */\n      dup2\n        /* \"#utility.yul\":2584:2608   */\n      tag_156\n      jump\t// in\n    tag_229:\n        /* \"#utility.yul\":2577:2582   */\n      dup2\n        /* \"#utility.yul\":2574:2609   */\n      eq\n        /* \"#utility.yul\":2564:2627   */\n      tag_230\n      jumpi\n        /* \"#utility.yul\":2623:2624   */\n      0x00\n        /* \"#utility.yul\":2620:2621   */\n      0x00\n        /* \"#utility.yul\":2613:2625   */\n      revert\n        /* \"#utility.yul\":2564:2627   */\n    tag_230:\n        /* \"#utility.yul\":2511:2633   */\n      pop\n      jump\t// out\n        /* \"#utility.yul\":2639:2778   */\n    tag_166:\n        /* \"#utility.yul\":2685:2690   */\n      0x00\n        /* \"#utility.yul\":2723:2729   */\n      dup2\n        /* \"#utility.yul\":2710:2730   */\n      calldataload\n        /* \"#utility.yul\":2701:2730   */\n      swap1\n      pop\n        /* \"#utility.yul\":2739:2772   */\n      tag_232\n        /* \"#utility.yul\":2766:2771   */\n      dup2\n        /* \"#utility.yul\":2739:2772   */\n      tag_165\n      jump\t// in\n    tag_232:\n        /* \"#utility.yul\":2639:2778   */\n      swap3\n      swap2\n      pop\n      pop\n      jump\t// out\n        /* \"#utility.yul\":2784:3258   */\n    tag_35:\n        /* \"#utility.yul\":2852:2858   */\n      0x00\n        /* \"#utility.yul\":2860:2866   */\n      0x00\n        /* \"#utility.yul\":2909:2911   */\n      0x40\n        /* \"#utility.yul\":2897:2906   */\n      dup4\n        /* \"#utility.yul\":2888:2895   */\n      dup6\n        /* \"#utility.yul\":2884:2907   */\n      sub\n        /* \"#utility.yul\":2880:2912   */\n      slt\n        /* \"#utility.yul\":2877:2996   */\n      iszero\n      tag_234\n      jumpi\n        /* \"#utility.yul\":2915:2994   */\n      tag_235\n      tag_159\n      jump\t// in\n    tag_235:\n        /* \"#utility.yul\":2877:2996   */\n    tag_234:\n        /* \"#utility.yul\":3035:3036   */\n      0x00\n        /* \"#utility.yul\":3060:3113   */\n      tag_236\n        /* \"#utility.yul\":3105:3112   */\n      dup6\n        /* \"#utility.yul\":3096:3102   */\n      dup3\n        /* \"#utility.yul\":3085:3094   */\n      dup7\n        /* \"#utility.yul\":3081:3103   */\n      add\n        /* \"#utility.yul\":3060:3113   */\n      tag_164\n      jump\t// in\n    tag_236:\n        /* \"#utility.yul\":3050:3113   */\n      swap3\n      pop\n        /* \"#utility.yul\":3006:3123   */\n      pop\n        /* \"#utility.yul\":3162:3164   */\n      0x20\n        /* \"#utility.yul\":3188:3241   */\n      tag_237\n        /* \"#utility.yul\":3233:3240   */\n      dup6\n        /* \"#utility.yul\":3224:3230   */\n      dup3\n        /* \"#utility.yul\":3213:3222   */\n      dup7\n        /* \"#utility.yul\":3209:3231   */\n      add\n        /* \"#utility.yul\":3188:3241   */\n      tag_166\n      jump\t// in\n    tag_237:\n        /* \"#utility.yul\":3178:3241   */\n      swap2\n      pop\n        /* \"#utility.yul\":3133:3251   */\n      pop\n        /* \"#utility.yul\":2784:3258   */\n      swap3\n      pop\n      swap3\n      swap1\n      pop\n      jump\t// out\n        /* \"#utility.yul\":3264:3354   */\n    tag_167:\n        /* \"#utility.yul\":3298:3305   */\n      0x00\n        /* \"#utility.yul\":3341:3346   */\n      dup2\n        /* \"#utility.yul\":3334:3347   */\n      iszero\n        /* \"#utility.yul\":3327:3348   */\n      iszero\n        /* \"#utility.yul\":3316:3348   */\n      swap1\n      pop\n        /* \"#utility.yul\":3264:3354   */\n      swap2\n      swap1\n      pop\n      jump\t// out\n        /* \"#utility.yul\":3360:3469   */\n    tag_168:\n        /* \"#utility.yul\":3441:3462   */\n      tag_240\n        /* \"#utility.yul\":3456:3461   */\n      dup2\n        /* \"#utility.yul\":3441:3462   */\n      tag_167\n      jump\t// in\n    tag_240:\n        /* \"#utility.yul\":3436:3439   */\n      dup3\n        /* \"#utility.yul\":3429:3463   */\n      mstore\n        /* \"#utility.yul\":3360:3469   */\n      pop\n      pop\n      jump\t// out\n        /* \"#utility.yul\":3475:3685   */\n    tag_38:\n        /* \"#utility.yul\":3562:3566   */\n      0x00\n        /* \"#utility.yul\":3600:3602   */\n      0x20\n        /* \"#utility.yul\":3589:3598   */\n      dup3\n        /* \"#utility.yul\":3585:3603   */\n      add\n        /* \"#utility.yul\":3577:3603   */\n      swap1\n      pop\n        /* \"#utility.yul\":3613:3678   */\n      tag_242\n        /* \"#utility.yul\":3675:3676   */\n      0x00\n        /* \"#utility.yul\":3664:3673   */\n      dup4\n        /* \"#utility.yul\":3660:3677   */\n      add\n        /* \"#utility.yul\":3651:3657   */\n      dup5\n        /* \"#utility.yul\":3613:3678   */\n      tag_168\n      jump\t// in\n    tag_242:\n        /* \"#utility.yul\":3475:3685   */\n      swap3\n      swap2\n      pop\n      pop\n      jump\t// out\n        /* \"#utility.yul\":3691:4020   */\n    tag_45:\n        /* \"#utility.yul\":3750:3756   */\n      0x00\n        /* \"#utility.yul\":3799:3801   */\n      0x20\n        /* \"#utility.yul\":3787:3796   */\n      dup3\n        /* \"#utility.yul\":3778:3785   */\n      dup5\n        /* \"#utility.yul\":3774:3797   */\n      sub\n        /* \"#utility.yul\":3770:3802   */\n      slt\n        /* \"#utility.yul\":3767:3886   */\n      iszero\n      tag_244\n      jumpi\n        /* \"#utility.yul\":3805:3884   */\n      tag_245\n      tag_159\n      jump\t// in\n    tag_245:\n        /* \"#utility.yul\":3767:3886   */\n    tag_244:\n        /* \"#utility.yul\":3925:3926   */\n      0x00\n        /* \"#utility.yul\":3950:4003   */\n      tag_246\n        /* \"#utility.yul\":3995:4002   */\n      dup5\n        /* \"#utility.yul\":3986:3992   */\n      dup3\n        /* \"#utility.yul\":3975:3984   */\n      dup6\n        /* \"#utility.yul\":3971:3993   */\n      add\n        /* \"#utility.yul\":3950:4003   */\n      tag_164\n      jump\t// in\n    tag_246:\n        /* \"#utility.yul\":3940:4003   */\n      swap2\n      pop\n        /* \"#utility.yul\":3896:4013   */\n      pop\n        /* \"#utility.yul\":3691:4020   */\n      swap3\n      swap2\n      pop\n      pop\n      jump\t// out\n        /* \"#utility.yul\":4026:4130   */\n    tag_169:\n        /* \"#utility.yul\":4071:4078   */\n      0x00\n        /* \"#utility.yul\":4100:4124   */\n      tag_248\n        /* \"#utility.yul\":4118:4123   */\n      dup3\n        /* \"#utility.yul\":4100:4124   */\n      tag_161\n      jump\t// in\n    tag_248:\n        /* \"#utility.yul\":4089:4124   */\n      swap1\n      pop\n        /* \"#utility.yul\":4026:4130   */\n      swap2\n      swap1\n      pop\n      jump\t// out\n        /* \"#utility.yul\":4136:4278   */\n    tag_170:\n        /* \"#utility.yul\":4239:4271   */\n      tag_250\n        /* \"#utility.yul\":4265:4270   */\n      dup2\n        /* \"#utility.yul\":4239:4271   */\n      tag_169\n      jump\t// in\n    tag_250:\n        /* \"#utility.yul\":4234:4237   */\n      dup3\n        /* \"#utility.yul\":4227:4272   */\n      mstore\n        /* \"#utility.yul\":4136:4278   */\n      pop\n      pop\n      jump\t// out\n        /* \"#utility.yul\":4284:4538   */\n    tag_52:\n        /* \"#utility.yul\":4393:4397   */\n      0x00\n        /* \"#utility.yul\":4431:4433   */\n      0x20\n        /* \"#utility.yul\":4420:4429   */\n      dup3\n        /* \"#utility.yul\":4416:4434   */\n      add\n        /* \"#utility.yul\":4408:4434   */\n      swap1\n      pop\n        /* \"#utility.yul\":4444:4531   */\n      tag_252\n        /* \"#utility.yul\":4528:4529   */\n      0x00\n        /* \"#utility.yul\":4517:4526   */\n      dup4\n        /* \"#utility.yul\":4513:4530   */\n      add\n        /* \"#utility.yul\":4504:4510   */\n      dup5\n        /* \"#utility.yul\":4444:4531   */\n      tag_170\n      jump\t// in\n    tag_252:\n        /* \"#utility.yul\":4284:4538   */\n      swap3\n      swap2\n      pop\n      pop\n      jump\t// out\n        /* \"#utility.yul\":4544:4662   */\n    tag_171:\n        /* \"#utility.yul\":4581:4588   */\n      0x00\n        /* \"#utility.yul\":4621:4655   */\n      0xffffffffffffffffffffffffffffffff\n        /* \"#utility.yul\":4614:4619   */\n      dup3\n        /* \"#utility.yul\":4610:4656   */\n      and\n        /* \"#utility.yul\":4599:4656   */\n      swap1\n      pop\n        /* \"#utility.yul\":4544:4662   */\n      swap2\n      swap1\n      pop\n      jump\t// out\n        /* \"#utility.yul\":4668:4786   */\n    tag_172:\n        /* \"#utility.yul\":4755:4779   */\n      tag_255\n        /* \"#utility.yul\":4773:4778   */\n      dup2\n        /* \"#utility.yul\":4755:4779   */\n      tag_171\n      jump\t// in\n    tag_255:\n        /* \"#utility.yul\":4750:4753   */\n      dup3\n        /* \"#utility.yul\":4743:4780   */\n      mstore\n        /* \"#utility.yul\":4668:4786   */\n      pop\n      pop\n      jump\t// out\n        /* \"#utility.yul\":4792:5014   */\n    tag_57:\n        /* \"#utility.yul\":4885:4889   */\n      0x00\n        /* \"#utility.yul\":4923:4925   */\n      0x20\n        /* \"#utility.yul\":4912:4921   */\n      dup3\n        /* \"#utility.yul\":4908:4926   */\n      add\n        /* \"#utility.yul\":4900:4926   */\n      swap1\n      pop\n        /* \"#utility.yul\":4936:5007   */\n      tag_257\n        /* \"#utility.yul\":5004:5005   */\n      0x00\n        /* \"#utility.yul\":4993:5002   */\n      dup4\n        /* \"#utility.yul\":4989:5006   */\n      add\n        /* \"#utility.yul\":4980:4986   */\n      dup5\n        /* \"#utility.yul\":4936:5007   */\n      tag_172\n      jump\t// in\n    tag_257:\n        /* \"#utility.yul\":4792:5014   */\n      swap3\n      swap2\n      pop\n      pop\n      jump\t// out\n        /* \"#utility.yul\":5020:5349   */\n    tag_66:\n        /* \"#utility.yul\":5079:5085   */\n      0x00\n        /* \"#utility.yul\":5128:5130   */\n      0x20\n        /* \"#utility.yul\":5116:5125   */\n      dup3\n        /* \"#utility.yul\":5107:5114   */\n      dup5\n        /* \"#utility.yul\":5103:5126   */\n      sub\n        /* \"#utility.yul\":5099:5131   */\n      slt\n        /* \"#utility.yul\":5096:5215   */\n      iszero\n      tag_259\n      jumpi\n        /* \"#utility.yul\":5134:5213   */\n      tag_260\n      tag_159\n      jump\t// in\n    tag_260:\n        /* \"#utility.yul\":5096:5215   */\n    tag_259:\n        /* \"#utility.yul\":5254:5255   */\n      0x00\n        /* \"#utility.yul\":5279:5332   */\n      tag_261\n        /* \"#utility.yul\":5324:5331   */\n      dup5\n        /* \"#utility.yul\":5315:5321   */\n      dup3\n        /* \"#utility.yul\":5304:5313   */\n      dup6\n        /* \"#utility.yul\":5300:5322   */\n      add\n        /* \"#utility.yul\":5279:5332   */\n      tag_166\n      jump\t// in\n    tag_261:\n        /* \"#utility.yul\":5269:5332   */\n      swap2\n      pop\n        /* \"#utility.yul\":5225:5342   */\n      pop\n        /* \"#utility.yul\":5020:5349   */\n      swap3\n      swap2\n      pop\n      pop\n      jump\t// out\n        /* \"#utility.yul\":5355:5535   */\n    tag_173:\n        /* \"#utility.yul\":5403:5480   */\n      0x4e487b7100000000000000000000000000000000000000000000000000000000\n        /* \"#utility.yul\":5400:5401   */\n      0x00\n        /* \"#utility.yul\":5393:5481   */\n      mstore\n        /* \"#utility.yul\":5500:5504   */\n      0x22\n        /* \"#utility.yul\":5497:5498   */\n      0x04\n        /* \"#utility.yul\":5490:5505   */\n      mstore\n        /* \"#utility.yul\":5524:5528   */\n      0x24\n        /* \"#utility.yul\":5521:5522   */\n      0x00\n        /* \"#utility.yul\":5514:5529   */\n      revert\n        /* \"#utility.yul\":5541:5861   */\n    tag_71:\n        /* \"#utility.yul\":5585:5591   */\n      0x00\n        /* \"#utility.yul\":5622:5623   */\n      0x02\n        /* \"#utility.yul\":5616:5620   */\n      dup3\n        /* \"#utility.yul\":5612:5624   */\n      div\n        /* \"#utility.yul\":5602:5624   */\n      swap1\n      pop\n        /* \"#utility.yul\":5669:5670   */\n      0x01\n        /* \"#utility.yul\":5663:5667   */\n      dup3\n        /* \"#utility.yul\":5659:5671   */\n      and\n        /* \"#utility.yul\":5690:5708   */\n      dup1\n        /* \"#utility.yul\":5680:5761   */\n      tag_264\n      jumpi\n        /* \"#utility.yul\":5746:5750   */\n      0x7f\n        /* \"#utility.yul\":5738:5744   */\n      dup3\n        /* \"#utility.yul\":5734:5751   */\n      and\n        /* \"#utility.yul\":5724:5751   */\n      swap2\n      pop\n        /* \"#utility.yul\":5680:5761   */\n    tag_264:\n        /* \"#utility.yul\":5808:5810   */\n      0x20\n        /* \"#utility.yul\":5800:5806   */\n      dup3\n        /* \"#utility.yul\":5797:5811   */\n      lt\n        /* \"#utility.yul\":5777:5795   */\n      dup2\n        /* \"#utility.yul\":5774:5812   */\n      sub\n        /* \"#utility.yul\":5771:5855   */\n      tag_265\n      jumpi\n        /* \"#utility.yul\":5827:5845   */\n      tag_266\n      tag_173\n      jump\t// in\n    tag_266:\n        /* \"#utility.yul\":5771:5855   */\n    tag_265:\n        /* \"#utility.yul\":5592:5861   */\n      pop\n        /* \"#utility.yul\":5541:5861   */\n      swap2\n      swap1\n      pop\n      jump\t// out\n        /* \"#utility.yul\":5867:6035   */\n    tag_174:\n        /* \"#utility.yul\":6007:6027   */\n      0x636f6e747261637420697320636c6f7365640000000000000000000000000000\n        /* \"#utility.yul\":6003:6004   */\n      0x00\n        /* \"#utility.yul\":5995:6001   */\n      dup3\n        /* \"#utility.yul\":5991:6005   */\n      add\n        /* \"#utility.yul\":5984:6028   */\n      mstore\n        /* \"#utility.yul\":5867:6035   */\n      pop\n      jump\t// out\n        /* \"#utility.yul\":6041:6407   */\n    tag_175:\n        /* \"#utility.yul\":6183:6186   */\n      0x00\n        /* \"#utility.yul\":6204:6271   */\n      tag_269\n        /* \"#utility.yul\":6268:6270   */\n      0x12\n        /* \"#utility.yul\":6263:6266   */\n      dup4\n        /* \"#utility.yul\":6204:6271   */\n      tag_152\n      jump\t// in\n    tag_269:\n        /* \"#utility.yul\":6197:6271   */\n      swap2\n      pop\n        /* \"#utility.yul\":6280:6373   */\n      tag_270\n        /* \"#utility.yul\":6369:6372   */\n      dup3\n        /* \"#utility.yul\":6280:6373   */\n      tag_174\n      jump\t// in\n    tag_270:\n        /* \"#utility.yul\":6398:6400   */\n      0x20\n        /* \"#utility.yul\":6393:6396   */\n      dup3\n        /* \"#utility.yul\":6389:6401   */\n      add\n        /* \"#utility.yul\":6382:6401   */\n      swap1\n      pop\n        /* \"#utility.yul\":6041:6407   */\n      swap2\n      swap1\n      pop\n      jump\t// out\n        /* \"#utility.yul\":6413:6832   */\n    tag_86:\n        /* \"#utility.yul\":6579:6583   */\n      0x00\n        /* \"#utility.yul\":6617:6619   */\n      0x20\n        /* \"#utility.yul\":6606:6615   */\n      dup3\n        /* \"#utility.yul\":6602:6620   */\n      add\n        /* \"#utility.yul\":6594:6620   */\n      swap1\n      pop\n        /* \"#utility.yul\":6666:6675   */\n      dup2\n        /* \"#utility.yul\":6660:6664   */\n      dup2\n        /* \"#utility.yul\":6656:6676   */\n      sub\n        /* \"#utility.yul\":6652:6653   */\n      0x00\n        /* \"#utility.yul\":6641:6650   */\n      dup4\n        /* \"#utility.yul\":6637:6654   */\n      add\n        /* \"#utility.yul\":6630:6677   */\n      mstore\n        /* \"#utility.yul\":6694:6825   */\n      tag_272\n        /* \"#utility.yul\":6820:6824   */\n      dup2\n        /* \"#utility.yul\":6694:6825   */\n      tag_175\n      jump\t// in\n    tag_272:\n        /* \"#utility.yul\":6686:6825   */\n      swap1\n      pop\n        /* \"#utility.yul\":6413:6832   */\n      swap2\n      swap1\n      pop\n      jump\t// out\n        /* \"#utility.yul\":6838:7007   */\n    tag_176:\n        /* \"#utility.yul\":6978:6999   */\n      0x6f6e6c79206f776e65722063616e206d696e7400000000000000000000000000\n        /* \"#utility.yul\":6974:6975   */\n      0x00\n        /* \"#utility.yul\":6966:6972   */\n      dup3\n        /* \"#utility.yul\":6962:6976   */\n      add\n        /* \"#utility.yul\":6955:7000   */\n      mstore\n        /* \"#utility.yul\":6838:7007   */\n      pop\n      jump\t// out\n        /* \"#utility.yul\":7013:7379   */\n    tag_177:\n        /* \"#utility.yul\":7155:7158   */\n      0x00\n        /* \"#utility.yul\":7176:7243   */\n      tag_275\n        /* \"#utility.yul\":7240:7242   */\n      0x13\n        /* \"#utility.yul\":7235:7238   */\n      dup4\n        /* \"#utility.yul\":7176:7243   */\n      tag_152\n      jump\t// in\n    tag_275:\n        /* \"#utility.yul\":7169:7243   */\n      swap2\n      pop\n        /* \"#utility.yul\":7252:7345   */\n      tag_276\n        /* \"#utility.yul\":7341:7344   */\n      dup3\n        /* \"#utility.yul\":7252:7345   */\n      tag_176\n      jump\t// in\n    tag_276:\n        /* \"#utility.yul\":7370:7372   */\n      0x20\n        /* \"#utility.yul\":7365:7368   */\n      dup3\n        /* \"#utility.yul\":7361:7373   */\n      add\n        /* \"#utility.yul\":7354:7373   */\n      swap1\n      pop\n        /* \"#utility.yul\":7013:7379   */\n      swap2\n      swap1\n      pop\n      jump\t// out\n        /* \"#utility.yul\":7385:7804   */\n    tag_89:\n        /* \"#utility.yul\":7551:7555   */\n      0x00\n        /* \"#utility.yul\":7589:7591   */\n      0x20\n        /* \"#utility.yul\":7578:7587   */\n      dup3\n        /* \"#utility.yul\":7574:7592   */\n      add\n        /* \"#utility.yul\":7566:7592   */\n      swap1\n      pop\n        /* \"#utility.yul\":7638:7647   */\n      dup2\n        /* \"#utility.yul\":7632:7636   */\n      dup2\n        /* \"#utility.yul\":7628:7648   */\n      sub\n        /* \"#utility.yul\":7624:7625   */\n      0x00\n        /* \"#utility.yul\":7613:7622   */\n      dup4\n        /* \"#utility.yul\":7609:7626   */\n      add\n        /* \"#utility.yul\":7602:7649   */\n      mstore\n        /* \"#utility.yul\":7666:7797   */\n      tag_278\n        /* \"#utility.yul\":7792:7796   */\n      dup2\n        /* \"#utility.yul\":7666:7797   */\n      tag_177\n      jump\t// in\n    tag_278:\n        /* \"#utility.yul\":7658:7797   */\n      swap1\n      pop\n        /* \"#utility.yul\":7385:7804   */\n      swap2\n      swap1\n      pop\n      jump\t// out\n        /* \"#utility.yul\":7810:7980   */\n    tag_178:\n        /* \"#utility.yul\":7950:7972   */\n      0x6d696e7420746f207a65726f2061646472657373000000000000000000000000\n        /* \"#utility.yul\":7946:7947   */\n      0x00\n        /* \"#utility.yul\":7938:7944   */\n      dup3\n        /* \"#utility.yul\":7934:7948   */\n      add\n        /* \"#utility.yul\":7927:7973   */\n      mstore\n        /* \"#utility.yul\":7810:7980   */\n      pop\n      jump\t// out\n        /* \"#utility.yul\":7986:8352   */\n    tag_179:\n        /* \"#utility.yul\":8128:8131   */\n      0x00\n        /* \"#utility.yul\":8149:8216   */\n      tag_281\n        /* \"#utility.yul\":8213:8215   */\n      0x14\n        /* \"#utility.yul\":8208:8211   */\n      dup4\n        /* \"#utility.yul\":8149:8216   */\n      tag_152\n      jump\t// in\n    tag_281:\n        /* \"#utility.yul\":8142:8216   */\n      swap2\n      pop\n        /* \"#utility.yul\":8225:8318   */\n      tag_282\n        /* \"#utility.yul\":8314:8317   */\n      dup3\n        /* \"#utility.yul\":8225:8318   */\n      tag_178\n      jump\t// in\n    tag_282:\n        /* \"#utility.yul\":8343:8345   */\n      0x20\n        /* \"#utility.yul\":8338:8341   */\n      dup3\n        /* \"#utility.yul\":8334:8346   */\n      add\n        /* \"#utility.yul\":8327:8346   */\n      swap1\n      pop\n        /* \"#utility.yul\":7986:8352   */\n      swap2\n      swap1\n      pop\n      jump\t// out\n        /* \"#utility.yul\":8358:8777   */\n    tag_92:\n        /* \"#utility.yul\":8524:8528   */\n      0x00\n        /* \"#utility.yul\":8562:8564   */\n      0x20\n        /* \"#utility.yul\":8551:8560   */\n      dup3\n        /* \"#utility.yul\":8547:8565   */\n      add\n        /* \"#utility.yul\":8539:8565   */\n      swap1\n      pop\n        /* \"#utility.yul\":8611:8620   */\n      dup2\n        /* \"#utility.yul\":8605:8609   */\n      dup2\n        /* \"#utility.yul\":8601:8621   */\n      sub\n        /* \"#utility.yul\":8597:8598   */\n      0x00\n        /* \"#utility.yul\":8586:8595   */\n      dup4\n        /* \"#utility.yul\":8582:8599   */\n      add\n        /* \"#utility.yul\":8575:8622   */\n      mstore\n        /* \"#utility.yul\":8639:8770   */\n      tag_284\n        /* \"#utility.yul\":8765:8769   */\n      dup2\n        /* \"#utility.yul\":8639:8770   */\n      tag_179\n      jump\t// in\n    tag_284:\n        /* \"#utility.yul\":8631:8770   */\n      swap1\n      pop\n        /* \"#utility.yul\":8358:8777   */\n      swap2\n      swap1\n      pop\n      jump\t// out\n        /* \"#utility.yul\":8783:8963   */\n    tag_180:\n        /* \"#utility.yul\":8831:8908   */\n      0x4e487b7100000000000000000000000000000000000000000000000000000000\n        /* \"#utility.yul\":8828:8829   */\n      0x00\n        /* \"#utility.yul\":8821:8909   */\n      mstore\n        /* \"#utility.yul\":8928:8932   */\n      0x11\n        /* \"#utility.yul\":8925:8926   */\n      0x04\n        /* \"#utility.yul\":8918:8933   */\n      mstore\n        /* \"#utility.yul\":8952:8956   */\n      0x24\n        /* \"#utility.yul\":8949:8950   */\n      0x00\n        /* \"#utility.yul\":8942:8957   */\n      revert\n        /* \"#utility.yul\":8969:9160   */\n    tag_94:\n        /* \"#utility.yul\":9009:9012   */\n      0x00\n        /* \"#utility.yul\":9028:9048   */\n      tag_287\n        /* \"#utility.yul\":9046:9047   */\n      dup3\n        /* \"#utility.yul\":9028:9048   */\n      tag_156\n      jump\t// in\n    tag_287:\n        /* \"#utility.yul\":9023:9048   */\n      swap2\n      pop\n        /* \"#utility.yul\":9062:9082   */\n      tag_288\n        /* \"#utility.yul\":9080:9081   */\n      dup4\n        /* \"#utility.yul\":9062:9082   */\n      tag_156\n      jump\t// in\n    tag_288:\n        /* \"#utility.yul\":9057:9082   */\n      swap3\n      pop\n        /* \"#utility.yul\":9105:9106   */\n      dup3\n        /* \"#utility.yul\":9102:9103   */\n      dup3\n        /* \"#utility.yul\":9098:9107   */\n      add\n        /* \"#utility.yul\":9091:9107   */\n      swap1\n      pop\n        /* \"#utility.yul\":9126:9129   */\n      dup1\n        /* \"#utility.yul\":9123:9124   */\n      dup3\n        /* \"#utility.yul\":9120:9130   */\n      gt\n        /* \"#utility.yul\":9117:9153   */\n      iszero\n      tag_289\n      jumpi\n        /* \"#utility.yul\":9133:9151   */\n      tag_290\n      tag_180\n      jump\t// in\n    tag_290:\n        /* \"#utility.yul\":9117:9153   */\n    tag_289:\n        /* \"#utility.yul\":8969:9160   */\n      swap3\n      swap2\n      pop\n      pop\n      jump\t// out\n        /* \"#utility.yul\":9166:9336   */\n    tag_181:\n        /* \"#utility.yul\":9306:9328   */\n      0x6f6e6c79206f776e65722063616e20636c6f7365000000000000000000000000\n        /* \"#utility.yul\":9302:9303   */\n      0x00\n        /* \"#utility.yul\":9294:9300   */\n      dup3\n        /* \"#utility.yul\":9290:9304   */\n      add\n        /* \"#utility.yul\":9283:9329   */\n      mstore\n        /* \"#utility.yul\":9166:9336   */\n      pop\n      jump\t// out\n        /* \"#utility.yul\":9342:9708   */\n    tag_182:\n        /* \"#utility.yul\":9484:9487   */\n      0x00\n        /* \"#utility.yul\":9505:9572   */\n      tag_293\n        /* \"#utility.yul\":9569:9571   */\n      0x14\n        /* \"#utility.yul\":9564:9567   */\n      dup4\n        /* \"#utility.yul\":9505:9572   */\n      tag_152\n      jump\t// in\n    tag_293:\n        /* \"#utility.yul\":9498:9572   */\n      swap2\n      pop\n        /* \"#utility.yul\":9581:9674   */\n      tag_294\n        /* \"#utility.yul\":9670:9673   */\n      dup3\n        /* \"#utility.yul\":9581:9674   */\n      tag_181\n      jump\t// in\n    tag_294:\n        /* \"#utility.yul\":9699:9701   */\n      0x20\n        /* \"#utility.yul\":9694:9697   */\n      dup3\n        /* \"#utility.yul\":9690:9702   */\n      add\n        /* \"#utility.yul\":9683:9702   */\n      swap1\n      pop\n        /* \"#utility.yul\":9342:9708   */\n      swap2\n      swap1\n      pop\n      jump\t// out\n        /* \"#utility.yul\":9714:10133   */\n    tag_100:\n        /* \"#utility.yul\":9880:9884   */\n      0x00\n        /* \"#utility.yul\":9918:9920   */\n      0x20\n        /* \"#utility.yul\":9907:9916   */\n      dup3\n        /* \"#utility.yul\":9903:9921   */\n      add\n        /* \"#utility.yul\":9895:9921   */\n      swap1\n      pop\n        /* \"#utility.yul\":9967:9976   */\n      dup2\n        /* \"#utility.yul\":9961:9965   */\n      dup2\n        /* \"#utility.yul\":9957:9977   */\n      sub\n        /* \"#utility.yul\":9953:9954   */\n      0x00\n        /* \"#utility.yul\":9942:9951   */\n      dup4\n        /* \"#utility.yul\":9938:9955   */\n      add\n        /* \"#utility.yul\":9931:9978   */\n      mstore\n        /* \"#utility.yul\":9995:10126   */\n      tag_296\n        /* \"#utility.yul\":10121:10125   */\n      dup2\n        /* \"#utility.yul\":9995:10126   */\n      tag_182\n      jump\t// in\n    tag_296:\n        /* \"#utility.yul\":9987:10126   */\n      swap1\n      pop\n        /* \"#utility.yul\":9714:10133   */\n      swap2\n      swap1\n      pop\n      jump\t// out\n        /* \"#utility.yul\":10139:10303   */\n    tag_183:\n        /* \"#utility.yul\":10279:10295   */\n      0x616c726561647920636c6f736564000000000000000000000000000000000000\n        /* \"#utility.yul\":10275:10276   */\n      0x00\n        /* \"#utility.yul\":10267:10273   */\n      dup3\n        /* \"#utility.yul\":10263:10277   */\n      add\n        /* \"#utility.yul\":10256:10296   */\n      mstore\n        /* \"#utility.yul\":10139:10303   */\n      pop\n      jump\t// out\n        /* \"#utility.yul\":10309:10675   */\n    tag_184:\n        /* \"#utility.yul\":10451:10454   */\n      0x00\n        /* \"#utility.yul\":10472:10539   */\n      tag_299\n        /* \"#utility.yul\":10536:10538   */\n      0x0e\n        /* \"#utility.yul\":10531:10534   */\n      dup4\n        /* \"#utility.yul\":10472:10539   */\n      tag_152\n      jump\t// in\n    tag_299:\n        /* \"#utility.yul\":10465:10539   */\n      swap2\n      pop\n        /* \"#utility.yul\":10548:10641   */\n      tag_300\n        /* \"#utility.yul\":10637:10640   */\n      dup3\n        /* \"#utility.yul\":10548:10641   */\n      tag_183\n      jump\t// in\n    tag_300:\n        /* \"#utility.yul\":10666:10668   */\n      0x20\n        /* \"#utility.yul\":10661:10664   */\n      dup3\n        /* \"#utility.yul\":10657:10669   */\n      add\n        /* \"#utility.yul\":10650:10669   */\n      swap1\n      pop\n        /* \"#utility.yul\":10309:10675   */\n      swap2\n      swap1\n      pop\n      jump\t// out\n        /* \"#utility.yul\":10681:11100   */\n    tag_103:\n        /* \"#utility.yul\":10847:10851   */\n      0x00\n        /* \"#utility.yul\":10885:10887   */\n      0x20\n        /* \"#utility.yul\":10874:10883   */\n      dup3\n        /* \"#utility.yul\":10870:10888   */\n      add\n        /* \"#utility.yul\":10862:10888   */\n      swap1\n      pop\n        /* \"#utility.yul\":10934:10943   */\n      dup2\n        /* \"#utility.yul\":10928:10932   */\n      dup2\n        /* \"#utility.yul\":10924:10944   */\n      sub\n        /* \"#utility.yul\":10920:10921   */\n      0x00\n        /* \"#utility.yul\":10909:10918   */\n      dup4\n        /* \"#utility.yul\":10905:10922   */\n      add\n        /* \"#utility.yul\":10898:10945   */\n      mstore\n        /* \"#utility.yul\":10962:11093   */\n      tag_302\n        /* \"#utility.yul\":11088:11092   */\n      dup2\n        /* \"#utility.yul\":10962:11093   */\n      tag_184\n      jump\t// in\n    tag_302:\n        /* \"#utility.yul\":10954:11093   */\n      swap1\n      pop\n        /* \"#utility.yul\":10681:11100   */\n      swap2\n      swap1\n      pop\n      jump\t// out\n        /* \"#utility.yul\":11106:11253   */\n    tag_185:\n        /* \"#utility.yul\":11207:11218   */\n      0x00\n        /* \"#utility.yul\":11244:11247   */\n      dup2\n        /* \"#utility.yul\":11229:11247   */\n      swap1\n      pop\n        /* \"#utility.yul\":11106:11253   */\n      swap3\n      swap2\n      pop\n      pop\n      jump\t// out\n        /* \"#utility.yul\":11259:11373   */\n    tag_186:\n      pop\n      jump\t// out\n        /* \"#utility.yul\":11379:11777   */\n    tag_187:\n        /* \"#utility.yul\":11538:11541   */\n      0x00\n        /* \"#utility.yul\":11559:11642   */\n      tag_306\n        /* \"#utility.yul\":11640:11641   */\n      0x00\n        /* \"#utility.yul\":11635:11638   */\n      dup4\n        /* \"#utility.yul\":11559:11642   */\n      tag_185\n      jump\t// in\n    tag_306:\n        /* \"#utility.yul\":11552:11642   */\n      swap2\n      pop\n        /* \"#utility.yul\":11651:11744   */\n      tag_307\n        /* \"#utility.yul\":11740:11743   */\n      dup3\n        /* \"#utility.yul\":11651:11744   */\n      tag_186\n      jump\t// in\n    tag_307:\n        /* \"#utility.yul\":11769:11770   */\n      0x00\n        /* \"#utility.yul\":11764:11767   */\n      dup3\n        /* \"#utility.yul\":11760:11771   */\n      add\n        /* \"#utility.yul\":11753:11771   */\n      swap1\n      pop\n        /* \"#utility.yul\":11379:11777   */\n      swap2\n      swap1\n      pop\n      jump\t// out\n        /* \"#utility.yul\":11783:12162   */\n    tag_106:\n        /* \"#utility.yul\":11967:11970   */\n      0x00\n        /* \"#utility.yul\":11989:12136   */\n      tag_309\n        /* \"#utility.yul\":12132:12135   */\n      dup3\n        /* \"#utility.yul\":11989:12136   */\n      tag_187\n      jump\t// in\n    tag_309:\n        /* \"#utility.yul\":11982:12136   */\n      swap2\n      pop\n        /* \"#utility.yul\":12153:12156   */\n      dup2\n        /* \"#utility.yul\":12146:12156   */\n      swap1\n      pop\n        /* \"#utility.yul\":11783:12162   */\n      swap2\n      swap1\n      pop\n      jump\t// out\n        /* \"#utility.yul\":12168:12346   */\n    tag_188:\n        /* \"#utility.yul\":12308:12338   */\n      0x455448207472616e7366657220746f206f776e6572206661696c656400000000\n        /* \"#utility.yul\":12304:12305   */\n      0x00\n        /* \"#utility.yul\":12296:12302   */\n      dup3\n        /* \"#utility.yul\":12292:12306   */\n      add\n        /* \"#utility.yul\":12285:12339   */\n      mstore\n        /* \"#utility.yul\":12168:12346   */\n      pop\n      jump\t// out\n        /* \"#utility.yul\":12352:12718   */\n    tag_189:\n        /* \"#utility.yul\":12494:12497   */\n      0x00\n        /* \"#utility.yul\":12515:12582   */\n      tag_312\n        /* \"#utility.yul\":12579:12581   */\n      0x1c\n        /* \"#utility.yul\":12574:12577   */\n      dup4\n        /* \"#utility.yul\":12515:12582   */\n      tag_152\n      jump\t// in\n    tag_312:\n        /* \"#utility.yul\":12508:12582   */\n      swap2\n      pop\n        /* \"#utility.yul\":12591:12684   */\n      tag_313\n        /* \"#utility.yul\":12680:12683   */\n      dup3\n        /* \"#utility.yul\":12591:12684   */\n      tag_188\n      jump\t// in\n    tag_313:\n        /* \"#utility.yul\":12709:12711   */\n      0x20\n        /* \"#utility.yul\":12704:12707   */\n      dup3\n        /* \"#utility.yul\":12700:12712   */\n      add\n        /* \"#utility.yul\":12693:12712   */\n      swap1\n      pop\n        /* \"#utility.yul\":12352:12718   */\n      swap2\n      swap1\n      pop\n      jump\t// out\n        /* \"#utility.yul\":12724:13143   */\n    tag_112:\n        /* \"#utility.yul\":12890:12894   */\n      0x00\n        /* \"#utility.yul\":12928:12930   */\n      0x20\n        /* \"#utility.yul\":12917:12926   */\n      dup3\n        /* \"#utility.yul\":12913:12931   */\n      add\n        /* \"#utility.yul\":12905:12931   */\n      swap1\n      pop\n        /* \"#utility.yul\":12977:12986   */\n      dup2\n        /* \"#utility.yul\":12971:12975   */\n      dup2\n        /* \"#utility.yul\":12967:12987   */\n      sub\n        /* \"#utility.yul\":12963:12964   */\n      0x00\n        /* \"#utility.yul\":12952:12961   */\n      dup4\n        /* \"#utility.yul\":12948:12965   */\n      add\n        /* \"#utility.yul\":12941:12988   */\n      mstore\n        /* \"#utility.yul\":13005:13136   */\n      tag_315\n        /* \"#utility.yul\":13131:13135   */\n      dup2\n        /* \"#utility.yul\":13005:13136   */\n      tag_189\n      jump\t// in\n    tag_315:\n        /* \"#utility.yul\":12997:13136   */\n      swap1\n      pop\n        /* \"#utility.yul\":12724:13143   */\n      swap2\n      swap1\n      pop\n      jump\t// out\n        /* \"#utility.yul\":13149:13323   */\n    tag_190:\n        /* \"#utility.yul\":13289:13315   */\n      0x7472616e7366657220746f207a65726f20616464726573730000000000000000\n        /* \"#utility.yul\":13285:13286   */\n      0x00\n        /* \"#utility.yul\":13277:13283   */\n      dup3\n        /* \"#utility.yul\":13273:13287   */\n      add\n        /* \"#utility.yul\":13266:13316   */\n      mstore\n        /* \"#utility.yul\":13149:13323   */\n      pop\n      jump\t// out\n        /* \"#utility.yul\":13329:13695   */\n    tag_191:\n        /* \"#utility.yul\":13471:13474   */\n      0x00\n        /* \"#utility.yul\":13492:13559   */\n      tag_318\n        /* \"#utility.yul\":13556:13558   */\n      0x18\n        /* \"#utility.yul\":13551:13554   */\n      dup4\n        /* \"#utility.yul\":13492:13559   */\n      tag_152\n      jump\t// in\n    tag_318:\n        /* \"#utility.yul\":13485:13559   */\n      swap2\n      pop\n        /* \"#utility.yul\":13568:13661   */\n      tag_319\n        /* \"#utility.yul\":13657:13660   */\n      dup3\n        /* \"#utility.yul\":13568:13661   */\n      tag_190\n      jump\t// in\n    tag_319:\n        /* \"#utility.yul\":13686:13688   */\n      0x20\n        /* \"#utility.yul\":13681:13684   */\n      dup3\n        /* \"#utility.yul\":13677:13689   */\n      add\n        /* \"#utility.yul\":13670:13689   */\n      swap1\n      pop\n        /* \"#utility.yul\":13329:13695   */\n      swap2\n      swap1\n      pop\n      jump\t// out\n        /* \"#utility.yul\":13701:14120   */\n    tag_120:\n        /* \"#utility.yul\":13867:13871   */\n      0x00\n        /* \"#utility.yul\":13905:13907   */\n      0x20\n        /* \"#utility.yul\":13894:13903   */\n      dup3\n        /* \"#utility.yul\":13890:13908   */\n      add\n        /* \"#utility.yul\":13882:13908   */\n      swap1\n      pop\n        /* \"#utility.yul\":13954:13963   */\n      dup2\n        /* \"#utility.yul\":13948:13952   */\n      dup2\n        /* \"#utility.yul\":13944:13964   */\n      sub\n        /* \"#utility.yul\":13940:13941   */\n      0x00\n        /* \"#utility.yul\":13929:13938   */\n      dup4\n        /* \"#utility.yul\":13925:13942   */\n      add\n        /* \"#utility.yul\":13918:13965   */\n      mstore\n        /* \"#utility.yul\":13982:14113   */\n      tag_321\n        /* \"#utility.yul\":14108:14112   */\n      dup2\n        /* \"#utility.yul\":13982:14113   */\n      tag_191\n      jump\t// in\n    tag_321:\n        /* \"#utility.yul\":13974:14113   */\n      swap1\n      pop\n        /* \"#utility.yul\":13701:14120   */\n      swap2\n      swap1\n      pop\n      jump\t// out\n        /* \"#utility.yul\":14126:14296   */\n    tag_192:\n        /* \"#utility.yul\":14266:14288   */\n      0x696e73756666696369656e742062616c616e6365000000000000000000000000\n        /* \"#utility.yul\":14262:14263   */\n      0x00\n        /* \"#utility.yul\":14254:14260   */\n      dup3\n        /* \"#utility.yul\":14250:14264   */\n      add\n        /* \"#utility.yul\":14243:14289   */\n      mstore\n        /* \"#utility.yul\":14126:14296   */\n      pop\n      jump\t// out\n        /* \"#utility.yul\":14302:14668   */\n    tag_193:\n        /* \"#utility.yul\":14444:14447   */\n      0x00\n        /* \"#utility.yul\":14465:14532   */\n      tag_324\n        /* \"#utility.yul\":14529:14531   */\n      0x14\n        /* \"#utility.yul\":14524:14527   */\n      dup4\n        /* \"#utility.yul\":14465:14532   */\n      tag_152\n      jump\t// in\n    tag_324:\n        /* \"#utility.yul\":14458:14532   */\n      swap2\n      pop\n        /* \"#utility.yul\":14541:14634   */\n      tag_325\n        /* \"#utility.yul\":14630:14633   */\n      dup3\n        /* \"#utility.yul\":14541:14634   */\n      tag_192\n      jump\t// in\n    tag_325:\n        /* \"#utility.yul\":14659:14661   */\n      0x20\n        /* \"#utility.yul\":14654:14657   */\n      dup3\n        /* \"#utility.yul\":14650:14662   */\n      add\n        /* \"#utility.yul\":14643:14662   */\n      swap1\n      pop\n        /* \"#utility.yul\":14302:14668   */\n      swap2\n      swap1\n      pop\n      jump\t// out\n        /* \"#utility.yul\":14674:15093   */\n    tag_123:\n        /* \"#utility.yul\":14840:14844   */\n      0x00\n        /* \"#utility.yul\":14878:14880   */\n      0x20\n        /* \"#utility.yul\":14867:14876   */\n      dup3\n        /* \"#utility.yul\":14863:14881   */\n      add\n        /* \"#utility.yul\":14855:14881   */\n      swap1\n      pop\n        /* \"#utility.yul\":14927:14936   */\n      dup2\n        /* \"#utility.yul\":14921:14925   */\n      dup2\n        /* \"#utility.yul\":14917:14937   */\n      sub\n        /* \"#utility.yul\":14913:14914   */\n      0x00\n        /* \"#utility.yul\":14902:14911   */\n      dup4\n        /* \"#utility.yul\":14898:14915   */\n      add\n        /* \"#utility.yul\":14891:14938   */\n      mstore\n        /* \"#utility.yul\":14955:15086   */\n      tag_327\n        /* \"#utility.yul\":15081:15085   */\n      dup2\n        /* \"#utility.yul\":14955:15086   */\n      tag_193\n      jump\t// in\n    tag_327:\n        /* \"#utility.yul\":14947:15086   */\n      swap1\n      pop\n        /* \"#utility.yul\":14674:15093   */\n      swap2\n      swap1\n      pop\n      jump\t// out\n        /* \"#utility.yul\":15099:15293   */\n    tag_125:\n        /* \"#utility.yul\":15139:15143   */\n      0x00\n        /* \"#utility.yul\":15159:15179   */\n      tag_329\n        /* \"#utility.yul\":15177:15178   */\n      dup3\n        /* \"#utility.yul\":15159:15179   */\n      tag_156\n      jump\t// in\n    tag_329:\n        /* \"#utility.yul\":15154:15179   */\n      swap2\n      pop\n        /* \"#utility.yul\":15193:15213   */\n      tag_330\n        /* \"#utility.yul\":15211:15212   */\n      dup4\n        /* \"#utility.yul\":15193:15213   */\n      tag_156\n      jump\t// in\n    tag_330:\n        /* \"#utility.yul\":15188:15213   */\n      swap3\n      pop\n        /* \"#utility.yul\":15237:15238   */\n      dup3\n        /* \"#utility.yul\":15234:15235   */\n      dup3\n        /* \"#utility.yul\":15230:15239   */\n      sub\n        /* \"#utility.yul\":15222:15239   */\n      swap1\n      pop\n        /* \"#utility.yul\":15261:15262   */\n      dup2\n        /* \"#utility.yul\":15255:15259   */\n      dup2\n        /* \"#utility.yul\":15252:15263   */\n      gt\n        /* \"#utility.yul\":15249:15286   */\n      iszero\n      tag_331\n      jumpi\n        /* \"#utility.yul\":15266:15284   */\n      tag_332\n      tag_180\n      jump\t// in\n    tag_332:\n        /* \"#utility.yul\":15249:15286   */\n    tag_331:\n        /* \"#utility.yul\":15099:15293   */\n      swap3\n      swap2\n      pop\n      pop\n      jump\t// out\n        /* \"#utility.yul\":15299:15465   */\n    tag_194:\n        /* \"#utility.yul\":15439:15457   */\n      0x73656c6c207a65726f20746f6b656e7300000000000000000000000000000000\n        /* \"#utility.yul\":15435:15436   */\n      0x00\n        /* \"#utility.yul\":15427:15433   */\n      dup3\n        /* \"#utility.yul\":15423:15437   */\n      add\n        /* \"#utility.yul\":15416:15458   */\n      mstore\n        /* \"#utility.yul\":15299:15465   */\n      pop\n      jump\t// out\n        /* \"#utility.yul\":15471:15837   */\n    tag_195:\n        /* \"#utility.yul\":15613:15616   */\n      0x00\n        /* \"#utility.yul\":15634:15701   */\n      tag_335\n        /* \"#utility.yul\":15698:15700   */\n      0x10\n        /* \"#utility.yul\":15693:15696   */\n      dup4\n        /* \"#utility.yul\":15634:15701   */\n      tag_152\n      jump\t// in\n    tag_335:\n        /* \"#utility.yul\":15627:15701   */\n      swap2\n      pop\n        /* \"#utility.yul\":15710:15803   */\n      tag_336\n        /* \"#utility.yul\":15799:15802   */\n      dup3\n        /* \"#utility.yul\":15710:15803   */\n      tag_194\n      jump\t// in\n    tag_336:\n        /* \"#utility.yul\":15828:15830   */\n      0x20\n        /* \"#utility.yul\":15823:15826   */\n      dup3\n        /* \"#utility.yul\":15819:15831   */\n      add\n        /* \"#utility.yul\":15812:15831   */\n      swap1\n      pop\n        /* \"#utility.yul\":15471:15837   */\n      swap2\n      swap1\n      pop\n      jump\t// out\n        /* \"#utility.yul\":15843:16262   */\n    tag_133:\n        /* \"#utility.yul\":16009:16013   */\n      0x00\n        /* \"#utility.yul\":16047:16049   */\n      0x20\n        /* \"#utility.yul\":16036:16045   */\n      dup3\n        /* \"#utility.yul\":16032:16050   */\n      add\n        /* \"#utility.yul\":16024:16050   */\n      swap1\n      pop\n        /* \"#utility.yul\":16096:16105   */\n      dup2\n        /* \"#utility.yul\":16090:16094   */\n      dup2\n        /* \"#utility.yul\":16086:16106   */\n      sub\n        /* \"#utility.yul\":16082:16083   */\n      0x00\n        /* \"#utility.yul\":16071:16080   */\n      dup4\n        /* \"#utility.yul\":16067:16084   */\n      add\n        /* \"#utility.yul\":16060:16107   */\n      mstore\n        /* \"#utility.yul\":16124:16255   */\n      tag_338\n        /* \"#utility.yul\":16250:16254   */\n      dup2\n        /* \"#utility.yul\":16124:16255   */\n      tag_195\n      jump\t// in\n    tag_338:\n        /* \"#utility.yul\":16116:16255   */\n      swap1\n      pop\n        /* \"#utility.yul\":15843:16262   */\n      swap2\n      swap1\n      pop\n      jump\t// out\n        /* \"#utility.yul\":16268:16678   */\n    tag_137:\n        /* \"#utility.yul\":16308:16315   */\n      0x00\n        /* \"#utility.yul\":16331:16351   */\n      tag_340\n        /* \"#utility.yul\":16349:16350   */\n      dup3\n        /* \"#utility.yul\":16331:16351   */\n      tag_156\n      jump\t// in\n    tag_340:\n        /* \"#utility.yul\":16326:16351   */\n      swap2\n      pop\n        /* \"#utility.yul\":16365:16385   */\n      tag_341\n        /* \"#utility.yul\":16383:16384   */\n      dup4\n        /* \"#utility.yul\":16365:16385   */\n      tag_156\n      jump\t// in\n    tag_341:\n        /* \"#utility.yul\":16360:16385   */\n      swap3\n      pop\n        /* \"#utility.yul\":16420:16421   */\n      dup3\n        /* \"#utility.yul\":16417:16418   */\n      dup3\n        /* \"#utility.yul\":16413:16422   */\n      mul\n        /* \"#utility.yul\":16442:16472   */\n      tag_342\n        /* \"#utility.yul\":16460:16471   */\n      dup2\n        /* \"#utility.yul\":16442:16472   */\n      tag_156\n      jump\t// in\n    tag_342:\n        /* \"#utility.yul\":16431:16472   */\n      swap2\n      pop\n        /* \"#utility.yul\":16621:16622   */\n      dup3\n        /* \"#utility.yul\":16612:16619   */\n      dup3\n        /* \"#utility.yul\":16608:16623   */\n      div\n        /* \"#utility.yul\":16605:16606   */\n      dup5\n        /* \"#utility.yul\":16602:16624   */\n      eq\n        /* \"#utility.yul\":16582:16583   */\n      dup4\n        /* \"#utility.yul\":16575:16584   */\n      iszero\n        /* \"#utility.yul\":16555:16638   */\n      or\n        /* \"#utility.yul\":16532:16671   */\n      tag_343\n      jumpi\n        /* \"#utility.yul\":16651:16669   */\n      tag_344\n      tag_180\n      jump\t// in\n    tag_344:\n        /* \"#utility.yul\":16532:16671   */\n    tag_343:\n        /* \"#utility.yul\":16316:16678   */\n      pop\n        /* \"#utility.yul\":16268:16678   */\n      swap3\n      swap2\n      pop\n      pop\n      jump\t// out\n        /* \"#utility.yul\":16684:16863   */\n    tag_196:\n        /* \"#utility.yul\":16824:16855   */\n      0x636f6e74726163742068617320696e73756666696369656e7420455448000000\n        /* \"#utility.yul\":16820:16821   */\n      0x00\n        /* \"#utility.yul\":16812:16818   */\n      dup3\n        /* \"#utility.yul\":16808:16822   */\n      add\n        /* \"#utility.yul\":16801:16856   */\n      mstore\n        /* \"#utility.yul\":16684:16863   */\n      pop\n      jump\t// out\n        /* \"#utility.yul\":16869:17235   */\n    tag_197:\n        /* \"#utility.yul\":17011:17014   */\n      0x00\n        /* \"#utility.yul\":17032:17099   */\n      tag_347\n        /* \"#utility.yul\":17096:17098   */\n      0x1d\n        /* \"#utility.yul\":17091:17094   */\n      dup4\n        /* \"#utility.yul\":17032:17099   */\n      tag_152\n      jump\t// in\n    tag_347:\n        /* \"#utility.yul\":17025:17099   */\n      swap2\n      pop\n        /* \"#utility.yul\":17108:17201   */\n      tag_348\n        /* \"#utility.yul\":17197:17200   */\n      dup3\n        /* \"#utility.yul\":17108:17201   */\n      tag_196\n      jump\t// in\n    tag_348:\n        /* \"#utility.yul\":17226:17228   */\n      0x20\n        /* \"#utility.yul\":17221:17224   */\n      dup3\n        /* \"#utility.yul\":17217:17229   */\n      add\n        /* \"#utility.yul\":17210:17229   */\n      swap1\n      pop\n        /* \"#utility.yul\":16869:17235   */\n      swap2\n      swap1\n      pop\n      jump\t// out\n        /* \"#utility.yul\":17241:17660   */\n    tag_140:\n        /* \"#utility.yul\":17407:17411   */\n      0x00\n        /* \"#utility.yul\":17445:17447   */\n      0x20\n        /* \"#utility.yul\":17434:17443   */\n      dup3\n        /* \"#utility.yul\":17430:17448   */\n      add\n        /* \"#utility.yul\":17422:17448   */\n      swap1\n      pop\n        /* \"#utility.yul\":17494:17503   */\n      dup2\n        /* \"#utility.yul\":17488:17492   */\n      dup2\n        /* \"#utility.yul\":17484:17504   */\n      sub\n        /* \"#utility.yul\":17480:17481   */\n      0x00\n        /* \"#utility.yul\":17469:17478   */\n      dup4\n        /* \"#utility.yul\":17465:17482   */\n      add\n        /* \"#utility.yul\":17458:17505   */\n      mstore\n        /* \"#utility.yul\":17522:17653   */\n      tag_350\n        /* \"#utility.yul\":17648:17652   */\n      dup2\n        /* \"#utility.yul\":17522:17653   */\n      tag_197\n      jump\t// in\n    tag_350:\n        /* \"#utility.yul\":17514:17653   */\n      swap1\n      pop\n        /* \"#utility.yul\":17241:17660   */\n      swap2\n      swap1\n      pop\n      jump\t// out\n        /* \"#utility.yul\":17666:17835   */\n    tag_198:\n        /* \"#utility.yul\":17806:17827   */\n      0x455448207472616e73666572206661696c656400000000000000000000000000\n        /* \"#utility.yul\":17802:17803   */\n      0x00\n        /* \"#utility.yul\":17794:17800   */\n      dup3\n        /* \"#utility.yul\":17790:17804   */\n      add\n        /* \"#utility.yul\":17783:17828   */\n      mstore\n        /* \"#utility.yul\":17666:17835   */\n      pop\n      jump\t// out\n        /* \"#utility.yul\":17841:18207   */\n    tag_199:\n        /* \"#utility.yul\":17983:17986   */\n      0x00\n        /* \"#utility.yul\":18004:18071   */\n      tag_353\n        /* \"#utility.yul\":18068:18070   */\n      0x13\n        /* \"#utility.yul\":18063:18066   */\n      dup4\n        /* \"#utility.yul\":18004:18071   */\n      tag_152\n      jump\t// in\n    tag_353:\n        /* \"#utility.yul\":17997:18071   */\n      swap2\n      pop\n        /* \"#utility.yul\":18080:18173   */\n      tag_354\n        /* \"#utility.yul\":18169:18172   */\n      dup3\n        /* \"#utility.yul\":18080:18173   */\n      tag_198\n      jump\t// in\n    tag_354:\n        /* \"#utility.yul\":18198:18200   */\n      0x20\n        /* \"#utility.yul\":18193:18196   */\n      dup3\n        /* \"#utility.yul\":18189:18201   */\n      add\n        /* \"#utility.yul\":18182:18201   */\n      swap1\n      pop\n        /* \"#utility.yul\":17841:18207   */\n      swap2\n      swap1\n      pop\n      jump\t// out\n        /* \"#utility.yul\":18213:18632   */\n    tag_150:\n        /* \"#utility.yul\":18379:18383   */\n      0x00\n        /* \"#utility.yul\":18417:18419   */\n      0x20\n        /* \"#utility.yul\":18406:18415   */\n      dup3\n        /* \"#utility.yul\":18402:18420   */\n      add\n        /* \"#utility.yul\":18394:18420   */\n      swap1\n      pop\n        /* \"#utility.yul\":18466:18475   */\n      dup2\n        /* \"#utility.yul\":18460:18464   */\n      dup2\n        /* \"#utility.yul\":18456:18476   */\n      sub\n        /* \"#utility.yul\":18452:18453   */\n      0x00\n        /* \"#utility.yul\":18441:18450   */\n      dup4\n        /* \"#utility.yul\":18437:18454   */\n      add\n        /* \"#utility.yul\":18430:18477   */\n      mstore\n        /* \"#utility.yul\":18494:18625   */\n      tag_356\n        /* \"#utility.yul\":18620:18624   */\n      dup2\n        /* \"#utility.yul\":18494:18625   */\n      tag_199\n      jump\t// in\n    tag_356:\n        /* \"#utility.yul\":18486:18625   */\n      swap1\n      pop\n        /* \"#utility.yul\":18213:18632   */\n      swap2\n      swap1\n      pop\n      jump\t// out\n\n    auxdata: 0xa264697066735822122029a18b5ae6decd442ddd3f152dab4aa2ea767cc146c801fabc478a4f8d21b1a864736f6c63430008220033\n}\n",
				"bytecode": {
					"linkReferences": {},
					"object": "60806040526040518060400160405280600f81526020017f44696365526577617264546f6b656e0000000000000000000000000000000000815250600190816100489190610380565b506040518060400160405280600381526020017f544b4e00000000000000000000000000000000000000000000000000000000008152506002908161008d9190610380565b5061025860055f6101000a8154816fffffffffffffffffffffffffffffffff02191690836fffffffffffffffffffffffffffffffff1602179055505f600560106101000a81548160ff0219169083151502179055503480156100ed575f5ffd5b50335f5f6101000a81548173ffffffffffffffffffffffffffffffffffffffff021916908373ffffffffffffffffffffffffffffffffffffffff16021790555061044f565b5f81519050919050565b7f4e487b71000000000000000000000000000000000000000000000000000000005f52604160045260245ffd5b7f4e487b71000000000000000000000000000000000000000000000000000000005f52602260045260245ffd5b5f60028204905060018216806101ad57607f821691505b6020821081036101c0576101bf610169565b5b50919050565b5f819050815f5260205f209050919050565b5f6020601f8301049050919050565b5f82821b905092915050565b5f600883026102227fffffffffffffffffffffffffffffffffffffffffffffffffffffffffffffffff826101e7565b61022c86836101e7565b95508019841693508086168417925050509392505050565b5f819050919050565b5f819050919050565b5f61027061026b61026684610244565b61024d565b610244565b9050919050565b5f819050919050565b61028983610256565b61029d61029582610277565b8484546101f3565b825550505050565b5f5f905090565b6102b46102a5565b6102bf818484610280565b505050565b5f5b828110156102e5576102da5f8284016102ac565b6001810190506102c6565b505050565b601f821115610338578282111561033757610304816101c6565b61030d836101d8565b610316856101d8565b6020861015610323575f90505b808301610332828403826102c4565b505050505b5b505050565b5f82821c905092915050565b5f6103585f198460080261033d565b1980831691505092915050565b5f6103708383610349565b9150826002028217905092915050565b61038982610132565b67ffffffffffffffff8111156103a2576103a161013c565b5b6103ac8254610196565b6103b78282856102ea565b5f60209050601f8311600181146103e8575f84156103d6578287015190505b6103e08582610365565b865550610447565b601f1984166103f6866101c6565b5f5b8281101561041d578489015182556001820191506020850194506020810190506103f8565b8683101561043a5784890151610436601f891682610349565b8355505b6001600288020188555050505b505050505050565b6115db8061045c5f395ff3fe608060405260043610610094575f3560e01c806370a082311161005857806370a08231146101675780638da5cb5b146101a357806398d5fdca146101cd578063a9059cbb146101f7578063e4849b321461023357610095565b8063150704011461009757806317d7de7c146100c157806318160ddd146100eb57806340c10f191461011557806343d726d61461015157610095565b5b005b3480156100a2575f5ffd5b506100ab61026f565b6040516100b89190610d9f565b60405180910390f35b3480156100cc575f5ffd5b506100d56102ff565b6040516100e29190610d9f565b60405180910390f35b3480156100f6575f5ffd5b506100ff61038f565b60405161010c9190610dd7565b60405180910390f35b348015610120575f5ffd5b5061013b60048036038101906101369190610e78565b610398565b6040516101489190610ed0565b60405180910390f35b34801561015c575f5ffd5b506101656105a8565b005b348015610172575f5ffd5b5061018d60048036038101906101889190610ee9565b61077a565b60405161019a9190610dd7565b60405180910390f35b3480156101ae575f5ffd5b506101b76107c0565b6040516101c49190610f34565b60405180910390f35b3480156101d8575f5ffd5b506101e16107e4565b6040516101ee9190610f77565b60405180910390f35b348015610202575f5ffd5b5061021d60048036038101906102189190610e78565b610808565b60405161022a9190610ed0565b60405180910390f35b34801561023e575f5ffd5b5061025960048036038101906102549190610f90565b610a5c565b6040516102669190610ed0565b60405180910390f35b60606002805461027e90610fe8565b80601f01602080910402602001604051908101604052809291908181526020018280546102aa90610fe8565b80156102f55780601f106102cc576101008083540402835291602001916102f5565b820191905f5260205f20905b8154815290600101906020018083116102d857829003601f168201915b5050505050905090565b60606001805461030e90610fe8565b80601f016020809104026020016040519081016040528092919081815260200182805461033a90610fe8565b80156103855780601f1061035c57610100808354040283529160200191610385565b820191905f5260205f20905b81548152906001019060200180831161036857829003601f168201915b5050505050905090565b5f600354905090565b5f600560109054906101000a900460ff16156103e9576040517f08c379a00000000000000000000000000000000000000000000000000000000081526004016103e090611062565b60405180910390fd5b5f5f9054906101000a900473ffffffffffffffffffffffffffffffffffffffff1673ffffffffffffffffffffffffffffffffffffffff163373ffffffffffffffffffffffffffffffffffffffff1614610477576040517f08c379a000000000000000000000000000000000000000000000000000000000815260040161046e906110ca565b60405180910390fd5b5f73ffffffffffffffffffffffffffffffffffffffff168373ffffffffffffffffffffffffffffffffffffffff16036104e5576040517f08c379a00000000000000000000000000000000000000000000000000000000081526004016104dc90611132565b60405180910390fd5b8160035f8282546104f6919061117d565b925050819055508160045f8573ffffffffffffffffffffffffffffffffffffffff1673ffffffffffffffffffffffffffffffffffffffff1681526020019081526020015f205f828254610549919061117d565b925050819055508273ffffffffffffffffffffffffffffffffffffffff167f0f6798a560793a54c3bcfe86a93cde1e73087d944c0ea20544137d4121396885836040516105969190610dd7565b60405180910390a26001905092915050565b5f5f9054906101000a900473ffffffffffffffffffffffffffffffffffffffff1673ffffffffffffffffffffffffffffffffffffffff163373ffffffffffffffffffffffffffffffffffffffff1614610636576040517f08c379a000000000000000000000000000000000000000000000000000000000815260040161062d906111fa565b60405180910390fd5b600560109054906101000a900460ff1615610686576040517f08c379a000000000000000000000000000000000000000000000000000000000815260040161067d90611262565b60405180910390fd5b6001600560106101000a81548160ff0219169083151502179055505f4790505f811115610777575f5f5f9054906101000a900473ffffffffffffffffffffffffffffffffffffffff1673ffffffffffffffffffffffffffffffffffffffff16826040516106f2906112ad565b5f6040518083038185875af1925050503d805f811461072c576040519150601f19603f3d011682016040523d82523d5f602084013e610731565b606091505b5050905080610775576040517f08c379a000000000000000000000000000000000000000000000000000000000815260040161076c9061130b565b60405180910390fd5b505b50565b5f60045f8373ffffffffffffffffffffffffffffffffffffffff1673ffffffffffffffffffffffffffffffffffffffff1681526020019081526020015f20549050919050565b5f5f9054906101000a900473ffffffffffffffffffffffffffffffffffffffff1681565b5f60055f9054906101000a90046fffffffffffffffffffffffffffffffff16905090565b5f600560109054906101000a900460ff1615610859576040517f08c379a000000000000000000000000000000000000000000000000000000000815260040161085090611062565b60405180910390fd5b5f73ffffffffffffffffffffffffffffffffffffffff168373ffffffffffffffffffffffffffffffffffffffff16036108c7576040517f08c379a00000000000000000000000000000000000000000000000000000000081526004016108be90611373565b60405180910390fd5b8160045f3373ffffffffffffffffffffffffffffffffffffffff1673ffffffffffffffffffffffffffffffffffffffff1681526020019081526020015f20541015610947576040517f08c379a000000000000000000000000000000000000000000000000000000000815260040161093e906113db565b60405180910390fd5b8160045f3373ffffffffffffffffffffffffffffffffffffffff1673ffffffffffffffffffffffffffffffffffffffff1681526020019081526020015f205f82825461099391906113f9565b925050819055508160045f8573ffffffffffffffffffffffffffffffffffffffff1673ffffffffffffffffffffffffffffffffffffffff1681526020019081526020015f205f8282546109e6919061117d565b925050819055508273ffffffffffffffffffffffffffffffffffffffff163373ffffffffffffffffffffffffffffffffffffffff167fddf252ad1be2c89b69c2b068fc378daa952ba7f163c4a11628f55a4df523b3ef84604051610a4a9190610dd7565b60405180910390a36001905092915050565b5f600560109054906101000a900460ff1615610aad576040517f08c379a0000000000000000000000000000000000000000000000000000000008152600401610aa490611062565b60405180910390fd5b5f8211610aef576040517f08c379a0000000000000000000000000000000000000000000000000000000008152600401610ae690611476565b60405180910390fd5b8160045f3373ffffffffffffffffffffffffffffffffffffffff1673ffffffffffffffffffffffffffffffffffffffff1681526020019081526020015f20541015610b6f576040517f08c379a0000000000000000000000000000000000000000000000000000000008152600401610b66906113db565b60405180910390fd5b5f61025883610b7e9190611494565b905080471015610bc3576040517f08c379a0000000000000000000000000000000000000000000000000000000008152600401610bba9061151f565b60405180910390fd5b8260045f3373ffffffffffffffffffffffffffffffffffffffff1673ffffffffffffffffffffffffffffffffffffffff1681526020019081526020015f205f828254610c0f91906113f9565b925050819055508260035f828254610c2791906113f9565b925050819055503373ffffffffffffffffffffffffffffffffffffffff167f5e5e995ce3133561afceaa51a9a154d5db228cd7525d34df5185582c18d3df0984604051610c749190610dd7565b60405180910390a25f3373ffffffffffffffffffffffffffffffffffffffff1682604051610ca1906112ad565b5f6040518083038185875af1925050503d805f8114610cdb576040519150601f19603f3d011682016040523d82523d5f602084013e610ce0565b606091505b5050905080610d24576040517f08c379a0000000000000000000000000000000000000000000000000000000008152600401610d1b90611587565b60405180910390fd5b600192505050919050565b5f81519050919050565b5f82825260208201905092915050565b8281835e5f83830152505050565b5f601f19601f8301169050919050565b5f610d7182610d2f565b610d7b8185610d39565b9350610d8b818560208601610d49565b610d9481610d57565b840191505092915050565b5f6020820190508181035f830152610db78184610d67565b905092915050565b5f819050919050565b610dd181610dbf565b82525050565b5f602082019050610dea5f830184610dc8565b92915050565b5f5ffd5b5f73ffffffffffffffffffffffffffffffffffffffff82169050919050565b5f610e1d82610df4565b9050919050565b610e2d81610e13565b8114610e37575f5ffd5b50565b5f81359050610e4881610e24565b92915050565b610e5781610dbf565b8114610e61575f5ffd5b50565b5f81359050610e7281610e4e565b92915050565b5f5f60408385031215610e8e57610e8d610df0565b5b5f610e9b85828601610e3a565b9250506020610eac85828601610e64565b9150509250929050565b5f8115159050919050565b610eca81610eb6565b82525050565b5f602082019050610ee35f830184610ec1565b92915050565b5f60208284031215610efe57610efd610df0565b5b5f610f0b84828501610e3a565b91505092915050565b5f610f1e82610df4565b9050919050565b610f2e81610f14565b82525050565b5f602082019050610f475f830184610f25565b92915050565b5f6fffffffffffffffffffffffffffffffff82169050919050565b610f7181610f4d565b82525050565b5f602082019050610f8a5f830184610f68565b92915050565b5f60208284031215610fa557610fa4610df0565b5b5f610fb284828501610e64565b91505092915050565b7f4e487b71000000000000000000000000000000000000000000000000000000005f52602260045260245ffd5b5f6002820490506001821680610fff57607f821691505b60208210810361101257611011610fbb565b5b50919050565b7f636f6e747261637420697320636c6f73656400000000000000000000000000005f82015250565b5f61104c601283610d39565b915061105782611018565b602082019050919050565b5f6020820190508181035f83015261107981611040565b9050919050565b7f6f6e6c79206f776e65722063616e206d696e74000000000000000000000000005f82015250565b5f6110b4601383610d39565b91506110bf82611080565b602082019050919050565b5f6020820190508181035f8301526110e1816110a8565b9050919050565b7f6d696e7420746f207a65726f20616464726573730000000000000000000000005f82015250565b5f61111c601483610d39565b9150611127826110e8565b602082019050919050565b5f6020820190508181035f83015261114981611110565b9050919050565b7f4e487b71000000000000000000000000000000000000000000000000000000005f52601160045260245ffd5b5f61118782610dbf565b915061119283610dbf565b92508282019050808211156111aa576111a9611150565b5b92915050565b7f6f6e6c79206f776e65722063616e20636c6f73650000000000000000000000005f82015250565b5f6111e4601483610d39565b91506111ef826111b0565b602082019050919050565b5f6020820190508181035f830152611211816111d8565b9050919050565b7f616c726561647920636c6f7365640000000000000000000000000000000000005f82015250565b5f61124c600e83610d39565b915061125782611218565b602082019050919050565b5f6020820190508181035f83015261127981611240565b9050919050565b5f81905092915050565b50565b5f6112985f83611280565b91506112a38261128a565b5f82019050919050565b5f6112b78261128d565b9150819050919050565b7f455448207472616e7366657220746f206f776e6572206661696c6564000000005f82015250565b5f6112f5601c83610d39565b9150611300826112c1565b602082019050919050565b5f6020820190508181035f830152611322816112e9565b9050919050565b7f7472616e7366657220746f207a65726f206164647265737300000000000000005f82015250565b5f61135d601883610d39565b915061136882611329565b602082019050919050565b5f6020820190508181035f83015261138a81611351565b9050919050565b7f696e73756666696369656e742062616c616e63650000000000000000000000005f82015250565b5f6113c5601483610d39565b91506113d082611391565b602082019050919050565b5f6020820190508181035f8301526113f2816113b9565b9050919050565b5f61140382610dbf565b915061140e83610dbf565b925082820390508181111561142657611425611150565b5b92915050565b7f73656c6c207a65726f20746f6b656e73000000000000000000000000000000005f82015250565b5f611460601083610d39565b915061146b8261142c565b602082019050919050565b5f6020820190508181035f83015261148d81611454565b9050919050565b5f61149e82610dbf565b91506114a983610dbf565b92508282026114b781610dbf565b915082820484148315176114ce576114cd611150565b5b5092915050565b7f636f6e74726163742068617320696e73756666696369656e74204554480000005f82015250565b5f611509601d83610d39565b9150611514826114d5565b602082019050919050565b5f6020820190508181035f830152611536816114fd565b9050919050565b7f455448207472616e73666572206661696c6564000000000000000000000000005f82015250565b5f611571601383610d39565b915061157c8261153d565b602082019050919050565b5f6020820190508181035f83015261159e81611565565b905091905056fea264697066735822122029a18b5ae6decd442ddd3f152dab4aa2ea767cc146c801fabc478a4f8d21b1a864736f6c63430008220033",
					"opcodes": "PUSH1 0x80 PUSH1 0x40 MSTORE PUSH1 0x40 MLOAD DUP1 PUSH1 0x40 ADD PUSH1 0x40 MSTORE DUP1 PUSH1 0xF DUP2 MSTORE PUSH1 0x20 ADD PUSH32 0x44696365526577617264546F6B656E0000000000000000000000000000000000 DUP2 MSTORE POP PUSH1 0x1 SWAP1 DUP2 PUSH2 0x48 SWAP2 SWAP1 PUSH2 0x380 JUMP JUMPDEST POP PUSH1 0x40 MLOAD DUP1 PUSH1 0x40 ADD PUSH1 0x40 MSTORE DUP1 PUSH1 0x3 DUP2 MSTORE PUSH1 0x20 ADD PUSH32 0x544B4E0000000000000000000000000000000000000000000000000000000000 DUP2 MSTORE POP PUSH1 0x2 SWAP1 DUP2 PUSH2 0x8D SWAP2 SWAP1 PUSH2 0x380 JUMP JUMPDEST POP PUSH2 0x258 PUSH1 0x5 PUSH0 PUSH2 0x100 EXP DUP2 SLOAD DUP2 PUSH16 0xFFFFFFFFFFFFFFFFFFFFFFFFFFFFFFFF MUL NOT AND SWAP1 DUP4 PUSH16 0xFFFFFFFFFFFFFFFFFFFFFFFFFFFFFFFF AND MUL OR SWAP1 SSTORE POP PUSH0 PUSH1 0x5 PUSH1 0x10 PUSH2 0x100 EXP DUP2 SLOAD DUP2 PUSH1 0xFF MUL NOT AND SWAP1 DUP4 ISZERO ISZERO MUL OR SWAP1 SSTORE POP CALLVALUE DUP1 ISZERO PUSH2 0xED JUMPI PUSH0 PUSH0 REVERT JUMPDEST POP CALLER PUSH0 PUSH0 PUSH2 0x100 EXP DUP2 SLOAD DUP2 PUSH20 0xFFFFFFFFFFFFFFFFFFFFFFFFFFFFFFFFFFFFFFFF MUL NOT AND SWAP1 DUP4 PUSH20 0xFFFFFFFFFFFFFFFFFFFFFFFFFFFFFFFFFFFFFFFF AND MUL OR SWAP1 SSTORE POP PUSH2 0x44F JUMP JUMPDEST PUSH0 DUP2 MLOAD SWAP1 POP SWAP2 SWAP1 POP JUMP JUMPDEST PUSH32 0x4E487B7100000000000000000000000000000000000000000000000000000000 PUSH0 MSTORE PUSH1 0x41 PUSH1 0x4 MSTORE PUSH1 0x24 PUSH0 REVERT JUMPDEST PUSH32 0x4E487B7100000000000000000000000000000000000000000000000000000000 PUSH0 MSTORE PUSH1 0x22 PUSH1 0x4 MSTORE PUSH1 0x24 PUSH0 REVERT JUMPDEST PUSH0 PUSH1 0x2 DUP3 DIV SWAP1 POP PUSH1 0x1 DUP3 AND DUP1 PUSH2 0x1AD JUMPI PUSH1 0x7F DUP3 AND SWAP2 POP JUMPDEST PUSH1 0x20 DUP3 LT DUP2 SUB PUSH2 0x1C0 JUMPI PUSH2 0x1BF PUSH2 0x169 JUMP JUMPDEST JUMPDEST POP SWAP2 SWAP1 POP JUMP JUMPDEST PUSH0 DUP2 SWAP1 POP DUP2 PUSH0 MSTORE PUSH1 0x20 PUSH0 KECCAK256 SWAP1 POP SWAP2 SWAP1 POP JUMP JUMPDEST PUSH0 PUSH1 0x20 PUSH1 0x1F DUP4 ADD DIV SWAP1 POP SWAP2 SWAP1 POP JUMP JUMPDEST PUSH0 DUP3 DUP3 SHL SWAP1 POP SWAP3 SWAP2 POP POP JUMP JUMPDEST PUSH0 PUSH1 0x8 DUP4 MUL PUSH2 0x222 PUSH32 0xFFFFFFFFFFFFFFFFFFFFFFFFFFFFFFFFFFFFFFFFFFFFFFFFFFFFFFFFFFFFFFFF DUP3 PUSH2 0x1E7 JUMP JUMPDEST PUSH2 0x22C DUP7 DUP4 PUSH2 0x1E7 JUMP JUMPDEST SWAP6 POP DUP1 NOT DUP5 AND SWAP4 POP DUP1 DUP7 AND DUP5 OR SWAP3 POP POP POP SWAP4 SWAP3 POP POP POP JUMP JUMPDEST PUSH0 DUP2 SWAP1 POP SWAP2 SWAP1 POP JUMP JUMPDEST PUSH0 DUP2 SWAP1 POP SWAP2 SWAP1 POP JUMP JUMPDEST PUSH0 PUSH2 0x270 PUSH2 0x26B PUSH2 0x266 DUP5 PUSH2 0x244 JUMP JUMPDEST PUSH2 0x24D JUMP JUMPDEST PUSH2 0x244 JUMP JUMPDEST SWAP1 POP SWAP2 SWAP1 POP JUMP JUMPDEST PUSH0 DUP2 SWAP1 POP SWAP2 SWAP1 POP JUMP JUMPDEST PUSH2 0x289 DUP4 PUSH2 0x256 JUMP JUMPDEST PUSH2 0x29D PUSH2 0x295 DUP3 PUSH2 0x277 JUMP JUMPDEST DUP5 DUP5 SLOAD PUSH2 0x1F3 JUMP JUMPDEST DUP3 SSTORE POP POP POP POP JUMP JUMPDEST PUSH0 PUSH0 SWAP1 POP SWAP1 JUMP JUMPDEST PUSH2 0x2B4 PUSH2 0x2A5 JUMP JUMPDEST PUSH2 0x2BF DUP2 DUP5 DUP5 PUSH2 0x280 JUMP JUMPDEST POP POP POP JUMP JUMPDEST PUSH0 JUMPDEST DUP3 DUP2 LT ISZERO PUSH2 0x2E5 JUMPI PUSH2 0x2DA PUSH0 DUP3 DUP5 ADD PUSH2 0x2AC JUMP JUMPDEST PUSH1 0x1 DUP2 ADD SWAP1 POP PUSH2 0x2C6 JUMP JUMPDEST POP POP POP JUMP JUMPDEST PUSH1 0x1F DUP3 GT ISZERO PUSH2 0x338 JUMPI DUP3 DUP3 GT ISZERO PUSH2 0x337 JUMPI PUSH2 0x304 DUP2 PUSH2 0x1C6 JUMP JUMPDEST PUSH2 0x30D DUP4 PUSH2 0x1D8 JUMP JUMPDEST PUSH2 0x316 DUP6 PUSH2 0x1D8 JUMP JUMPDEST PUSH1 0x20 DUP7 LT ISZERO PUSH2 0x323 JUMPI PUSH0 SWAP1 POP JUMPDEST DUP1 DUP4 ADD PUSH2 0x332 DUP3 DUP5 SUB DUP3 PUSH2 0x2C4 JUMP JUMPDEST POP POP POP POP JUMPDEST JUMPDEST POP POP POP JUMP JUMPDEST PUSH0 DUP3 DUP3 SHR SWAP1 POP SWAP3 SWAP2 POP POP JUMP JUMPDEST PUSH0 PUSH2 0x358 PUSH0 NOT DUP5 PUSH1 0x8 MUL PUSH2 0x33D JUMP JUMPDEST NOT DUP1 DUP4 AND SWAP2 POP POP SWAP3 SWAP2 POP POP JUMP JUMPDEST PUSH0 PUSH2 0x370 DUP4 DUP4 PUSH2 0x349 JUMP JUMPDEST SWAP2 POP DUP3 PUSH1 0x2 MUL DUP3 OR SWAP1 POP SWAP3 SWAP2 POP POP JUMP JUMPDEST PUSH2 0x389 DUP3 PUSH2 0x132 JUMP JUMPDEST PUSH8 0xFFFFFFFFFFFFFFFF DUP2 GT ISZERO PUSH2 0x3A2 JUMPI PUSH2 0x3A1 PUSH2 0x13C JUMP JUMPDEST JUMPDEST PUSH2 0x3AC DUP3 SLOAD PUSH2 0x196 JUMP JUMPDEST PUSH2 0x3B7 DUP3 DUP3 DUP6 PUSH2 0x2EA JUMP JUMPDEST PUSH0 PUSH1 0x20 SWAP1 POP PUSH1 0x1F DUP4 GT PUSH1 0x1 DUP2 EQ PUSH2 0x3E8 JUMPI PUSH0 DUP5 ISZERO PUSH2 0x3D6 JUMPI DUP3 DUP8 ADD MLOAD SWAP1 POP JUMPDEST PUSH2 0x3E0 DUP6 DUP3 PUSH2 0x365 JUMP JUMPDEST DUP7 SSTORE POP PUSH2 0x447 JUMP JUMPDEST PUSH1 0x1F NOT DUP5 AND PUSH2 0x3F6 DUP7 PUSH2 0x1C6 JUMP JUMPDEST PUSH0 JUMPDEST DUP3 DUP2 LT ISZERO PUSH2 0x41D JUMPI DUP5 DUP10 ADD MLOAD DUP3 SSTORE PUSH1 0x1 DUP3 ADD SWAP2 POP PUSH1 0x20 DUP6 ADD SWAP5 POP PUSH1 0x20 DUP2 ADD SWAP1 POP PUSH2 0x3F8 JUMP JUMPDEST DUP7 DUP4 LT ISZERO PUSH2 0x43A JUMPI DUP5 DUP10 ADD MLOAD PUSH2 0x436 PUSH1 0x1F DUP10 AND DUP3 PUSH2 0x349 JUMP JUMPDEST DUP4 SSTORE POP JUMPDEST PUSH1 0x1 PUSH1 0x2 DUP9 MUL ADD DUP9 SSTORE POP POP POP JUMPDEST POP POP POP POP POP POP JUMP JUMPDEST PUSH2 0x15DB DUP1 PUSH2 0x45C PUSH0 CODECOPY PUSH0 RETURN INVALID PUSH1 0x80 PUSH1 0x40 MSTORE PUSH1 0x4 CALLDATASIZE LT PUSH2 0x94 JUMPI PUSH0 CALLDATALOAD PUSH1 0xE0 SHR DUP1 PUSH4 0x70A08231 GT PUSH2 0x58 JUMPI DUP1 PUSH4 0x70A08231 EQ PUSH2 0x167 JUMPI DUP1 PUSH4 0x8DA5CB5B EQ PUSH2 0x1A3 JUMPI DUP1 PUSH4 0x98D5FDCA EQ PUSH2 0x1CD JUMPI DUP1 PUSH4 0xA9059CBB EQ PUSH2 0x1F7 JUMPI DUP1 PUSH4 0xE4849B32 EQ PUSH2 0x233 JUMPI PUSH2 0x95 JUMP JUMPDEST DUP1 PUSH4 0x15070401 EQ PUSH2 0x97 JUMPI DUP1 PUSH4 0x17D7DE7C EQ PUSH2 0xC1 JUMPI DUP1 PUSH4 0x18160DDD EQ PUSH2 0xEB JUMPI DUP1 PUSH4 0x40C10F19 EQ PUSH2 0x115 JUMPI DUP1 PUSH4 0x43D726D6 EQ PUSH2 0x151 JUMPI PUSH2 0x95 JUMP JUMPDEST JUMPDEST STOP JUMPDEST CALLVALUE DUP1 ISZERO PUSH2 0xA2 JUMPI PUSH0 PUSH0 REVERT JUMPDEST POP PUSH2 0xAB PUSH2 0x26F JUMP JUMPDEST PUSH1 0x40 MLOAD PUSH2 0xB8 SWAP2 SWAP1 PUSH2 0xD9F JUMP JUMPDEST PUSH1 0x40 MLOAD DUP1 SWAP2 SUB SWAP1 RETURN JUMPDEST CALLVALUE DUP1 ISZERO PUSH2 0xCC JUMPI PUSH0 PUSH0 REVERT JUMPDEST POP PUSH2 0xD5 PUSH2 0x2FF JUMP JUMPDEST PUSH1 0x40 MLOAD PUSH2 0xE2 SWAP2 SWAP1 PUSH2 0xD9F JUMP JUMPDEST PUSH1 0x40 MLOAD DUP1 SWAP2 SUB SWAP1 RETURN JUMPDEST CALLVALUE DUP1 ISZERO PUSH2 0xF6 JUMPI PUSH0 PUSH0 REVERT JUMPDEST POP PUSH2 0xFF PUSH2 0x38F JUMP JUMPDEST PUSH1 0x40 MLOAD PUSH2 0x10C SWAP2 SWAP1 PUSH2 0xDD7 JUMP JUMPDEST PUSH1 0x40 MLOAD DUP1 SWAP2 SUB SWAP1 RETURN JUMPDEST CALLVALUE DUP1 ISZERO PUSH2 0x120 JUMPI PUSH0 PUSH0 REVERT JUMPDEST POP PUSH2 0x13B PUSH1 0x4 DUP1 CALLDATASIZE SUB DUP2 ADD SWAP1 PUSH2 0x136 SWAP2 SWAP1 PUSH2 0xE78 JUMP JUMPDEST PUSH2 0x398 JUMP JUMPDEST PUSH1 0x40 MLOAD PUSH2 0x148 SWAP2 SWAP1 PUSH2 0xED0 JUMP JUMPDEST PUSH1 0x40 MLOAD DUP1 SWAP2 SUB SWAP1 RETURN JUMPDEST CALLVALUE DUP1 ISZERO PUSH2 0x15C JUMPI PUSH0 PUSH0 REVERT JUMPDEST POP PUSH2 0x165 PUSH2 0x5A8 JUMP JUMPDEST STOP JUMPDEST CALLVALUE DUP1 ISZERO PUSH2 0x172 JUMPI PUSH0 PUSH0 REVERT JUMPDEST POP PUSH2 0x18D PUSH1 0x4 DUP1 CALLDATASIZE SUB DUP2 ADD SWAP1 PUSH2 0x188 SWAP2 SWAP1 PUSH2 0xEE9 JUMP JUMPDEST PUSH2 0x77A JUMP JUMPDEST PUSH1 0x40 MLOAD PUSH2 0x19A SWAP2 SWAP1 PUSH2 0xDD7 JUMP JUMPDEST PUSH1 0x40 MLOAD DUP1 SWAP2 SUB SWAP1 RETURN JUMPDEST CALLVALUE DUP1 ISZERO PUSH2 0x1AE JUMPI PUSH0 PUSH0 REVERT JUMPDEST POP PUSH2 0x1B7 PUSH2 0x7C0 JUMP JUMPDEST PUSH1 0x40 MLOAD PUSH2 0x1C4 SWAP2 SWAP1 PUSH2 0xF34 JUMP JUMPDEST PUSH1 0x40 MLOAD DUP1 SWAP2 SUB SWAP1 RETURN JUMPDEST CALLVALUE DUP1 ISZERO PUSH2 0x1D8 JUMPI PUSH0 PUSH0 REVERT JUMPDEST POP PUSH2 0x1E1 PUSH2 0x7E4 JUMP JUMPDEST PUSH1 0x40 MLOAD PUSH2 0x1EE SWAP2 SWAP1 PUSH2 0xF77 JUMP JUMPDEST PUSH1 0x40 MLOAD DUP1 SWAP2 SUB SWAP1 RETURN JUMPDEST CALLVALUE DUP1 ISZERO PUSH2 0x202 JUMPI PUSH0 PUSH0 REVERT JUMPDEST POP PUSH2 0x21D PUSH1 0x4 DUP1 CALLDATASIZE SUB DUP2 ADD SWAP1 PUSH2 0x218 SWAP2 SWAP1 PUSH2 0xE78 JUMP JUMPDEST PUSH2 0x808 JUMP JUMPDEST PUSH1 0x40 MLOAD PUSH2 0x22A SWAP2 SWAP1 PUSH2 0xED0 JUMP JUMPDEST PUSH1 0x40 MLOAD DUP1 SWAP2 SUB SWAP1 RETURN JUMPDEST CALLVALUE DUP1 ISZERO PUSH2 0x23E JUMPI PUSH0 PUSH0 REVERT JUMPDEST POP PUSH2 0x259 PUSH1 0x4 DUP1 CALLDATASIZE SUB DUP2 ADD SWAP1 PUSH2 0x254 SWAP2 SWAP1 PUSH2 0xF90 JUMP JUMPDEST PUSH2 0xA5C JUMP JUMPDEST PUSH1 0x40 MLOAD PUSH2 0x266 SWAP2 SWAP1 PUSH2 0xED0 JUMP JUMPDEST PUSH1 0x40 MLOAD DUP1 SWAP2 SUB SWAP1 RETURN JUMPDEST PUSH1 0x60 PUSH1 0x2 DUP1 SLOAD PUSH2 0x27E SWAP1 PUSH2 0xFE8 JUMP JUMPDEST DUP1 PUSH1 0x1F ADD PUSH1 0x20 DUP1 SWAP2 DIV MUL PUSH1 0x20 ADD PUSH1 0x40 MLOAD SWAP1 DUP2 ADD PUSH1 0x40 MSTORE DUP1 SWAP3 SWAP2 SWAP1 DUP2 DUP2 MSTORE PUSH1 0x20 ADD DUP3 DUP1 SLOAD PUSH2 0x2AA SWAP1 PUSH2 0xFE8 JUMP JUMPDEST DUP1 ISZERO PUSH2 0x2F5 JUMPI DUP1 PUSH1 0x1F LT PUSH2 0x2CC JUMPI PUSH2 0x100 DUP1 DUP4 SLOAD DIV MUL DUP4 MSTORE SWAP2 PUSH1 0x20 ADD SWAP2 PUSH2 0x2F5 JUMP JUMPDEST DUP3 ADD SWAP2 SWAP1 PUSH0 MSTORE PUSH1 0x20 PUSH0 KECCAK256 SWAP1 JUMPDEST DUP2 SLOAD DUP2 MSTORE SWAP1 PUSH1 0x1 ADD SWAP1 PUSH1 0x20 ADD DUP1 DUP4 GT PUSH2 0x2D8 JUMPI DUP3 SWAP1 SUB PUSH1 0x1F AND DUP3 ADD SWAP2 JUMPDEST POP POP POP POP POP SWAP1 POP SWAP1 JUMP JUMPDEST PUSH1 0x60 PUSH1 0x1 DUP1 SLOAD PUSH2 0x30E SWAP1 PUSH2 0xFE8 JUMP JUMPDEST DUP1 PUSH1 0x1F ADD PUSH1 0x20 DUP1 SWAP2 DIV MUL PUSH1 0x20 ADD PUSH1 0x40 MLOAD SWAP1 DUP2 ADD PUSH1 0x40 MSTORE DUP1 SWAP3 SWAP2 SWAP1 DUP2 DUP2 MSTORE PUSH1 0x20 ADD DUP3 DUP1 SLOAD PUSH2 0x33A SWAP1 PUSH2 0xFE8 JUMP JUMPDEST DUP1 ISZERO PUSH2 0x385 JUMPI DUP1 PUSH1 0x1F LT PUSH2 0x35C JUMPI PUSH2 0x100 DUP1 DUP4 SLOAD DIV MUL DUP4 MSTORE SWAP2 PUSH1 0x20 ADD SWAP2 PUSH2 0x385 JUMP JUMPDEST DUP3 ADD SWAP2 SWAP1 PUSH0 MSTORE PUSH1 0x20 PUSH0 KECCAK256 SWAP1 JUMPDEST DUP2 SLOAD DUP2 MSTORE SWAP1 PUSH1 0x1 ADD SWAP1 PUSH1 0x20 ADD DUP1 DUP4 GT PUSH2 0x368 JUMPI DUP3 SWAP1 SUB PUSH1 0x1F AND DUP3 ADD SWAP2 JUMPDEST POP POP POP POP POP SWAP1 POP SWAP1 JUMP JUMPDEST PUSH0 PUSH1 0x3 SLOAD SWAP1 POP SWAP1 JUMP JUMPDEST PUSH0 PUSH1 0x5 PUSH1 0x10 SWAP1 SLOAD SWAP1 PUSH2 0x100 EXP SWAP1 DIV PUSH1 0xFF AND ISZERO PUSH2 0x3E9 JUMPI PUSH1 0x40 MLOAD PUSH32 0x8C379A000000000000000000000000000000000000000000000000000000000 DUP2 MSTORE PUSH1 0x4 ADD PUSH2 0x3E0 SWAP1 PUSH2 0x1062 JUMP JUMPDEST PUSH1 0x40 MLOAD DUP1 SWAP2 SUB SWAP1 REVERT JUMPDEST PUSH0 PUSH0 SWAP1 SLOAD SWAP1 PUSH2 0x100 EXP SWAP1 DIV PUSH20 0xFFFFFFFFFFFFFFFFFFFFFFFFFFFFFFFFFFFFFFFF AND PUSH20 0xFFFFFFFFFFFFFFFFFFFFFFFFFFFFFFFFFFFFFFFF AND CALLER PUSH20 0xFFFFFFFFFFFFFFFFFFFFFFFFFFFFFFFFFFFFFFFF AND EQ PUSH2 0x477 JUMPI PUSH1 0x40 MLOAD PUSH32 0x8C379A000000000000000000000000000000000000000000000000000000000 DUP2 MSTORE PUSH1 0x4 ADD PUSH2 0x46E SWAP1 PUSH2 0x10CA JUMP JUMPDEST PUSH1 0x40 MLOAD DUP1 SWAP2 SUB SWAP1 REVERT JUMPDEST PUSH0 PUSH20 0xFFFFFFFFFFFFFFFFFFFFFFFFFFFFFFFFFFFFFFFF AND DUP4 PUSH20 0xFFFFFFFFFFFFFFFFFFFFFFFFFFFFFFFFFFFFFFFF AND SUB PUSH2 0x4E5 JUMPI PUSH1 0x40 MLOAD PUSH32 0x8C379A000000000000000000000000000000000000000000000000000000000 DUP2 MSTORE PUSH1 0x4 ADD PUSH2 0x4DC SWAP1 PUSH2 0x1132 JUMP JUMPDEST PUSH1 0x40 MLOAD DUP1 SWAP2 SUB SWAP1 REVERT JUMPDEST DUP2 PUSH1 0x3 PUSH0 DUP3 DUP3 SLOAD PUSH2 0x4F6 SWAP2 SWAP1 PUSH2 0x117D JUMP JUMPDEST SWAP3 POP POP DUP2 SWAP1 SSTORE POP DUP2 PUSH1 0x4 PUSH0 DUP6 PUSH20 0xFFFFFFFFFFFFFFFFFFFFFFFFFFFFFFFFFFFFFFFF AND PUSH20 0xFFFFFFFFFFFFFFFFFFFFFFFFFFFFFFFFFFFFFFFF AND DUP2 MSTORE PUSH1 0x20 ADD SWAP1 DUP2 MSTORE PUSH1 0x20 ADD PUSH0 KECCAK256 PUSH0 DUP3 DUP3 SLOAD PUSH2 0x549 SWAP2 SWAP1 PUSH2 0x117D JUMP JUMPDEST SWAP3 POP POP DUP2 SWAP1 SSTORE POP DUP3 PUSH20 0xFFFFFFFFFFFFFFFFFFFFFFFFFFFFFFFFFFFFFFFF AND PUSH32 0xF6798A560793A54C3BCFE86A93CDE1E73087D944C0EA20544137D4121396885 DUP4 PUSH1 0x40 MLOAD PUSH2 0x596 SWAP2 SWAP1 PUSH2 0xDD7 JUMP JUMPDEST PUSH1 0x40 MLOAD DUP1 SWAP2 SUB SWAP1 LOG2 PUSH1 0x1 SWAP1 POP SWAP3 SWAP2 POP POP JUMP JUMPDEST PUSH0 PUSH0 SWAP1 SLOAD SWAP1 PUSH2 0x100 EXP SWAP1 DIV PUSH20 0xFFFFFFFFFFFFFFFFFFFFFFFFFFFFFFFFFFFFFFFF AND PUSH20 0xFFFFFFFFFFFFFFFFFFFFFFFFFFFFFFFFFFFFFFFF AND CALLER PUSH20 0xFFFFFFFFFFFFFFFFFFFFFFFFFFFFFFFFFFFFFFFF AND EQ PUSH2 0x636 JUMPI PUSH1 0x40 MLOAD PUSH32 0x8C379A000000000000000000000000000000000000000000000000000000000 DUP2 MSTORE PUSH1 0x4 ADD PUSH2 0x62D SWAP1 PUSH2 0x11FA JUMP JUMPDEST PUSH1 0x40 MLOAD DUP1 SWAP2 SUB SWAP1 REVERT JUMPDEST PUSH1 0x5 PUSH1 0x10 SWAP1 SLOAD SWAP1 PUSH2 0x100 EXP SWAP1 DIV PUSH1 0xFF AND ISZERO PUSH2 0x686 JUMPI PUSH1 0x40 MLOAD PUSH32 0x8C379A000000000000000000000000000000000000000000000000000000000 DUP2 MSTORE PUSH1 0x4 ADD PUSH2 0x67D SWAP1 PUSH2 0x1262 JUMP JUMPDEST PUSH1 0x40 MLOAD DUP1 SWAP2 SUB SWAP1 REVERT JUMPDEST PUSH1 0x1 PUSH1 0x5 PUSH1 0x10 PUSH2 0x100 EXP DUP2 SLOAD DUP2 PUSH1 0xFF MUL NOT AND SWAP1 DUP4 ISZERO ISZERO MUL OR SWAP1 SSTORE POP PUSH0 SELFBALANCE SWAP1 POP PUSH0 DUP2 GT ISZERO PUSH2 0x777 JUMPI PUSH0 PUSH0 PUSH0 SWAP1 SLOAD SWAP1 PUSH2 0x100 EXP SWAP1 DIV PUSH20 0xFFFFFFFFFFFFFFFFFFFFFFFFFFFFFFFFFFFFFFFF AND PUSH20 0xFFFFFFFFFFFFFFFFFFFFFFFFFFFFFFFFFFFFFFFF AND DUP3 PUSH1 0x40 MLOAD PUSH2 0x6F2 SWAP1 PUSH2 0x12AD JUMP JUMPDEST PUSH0 PUSH1 0x40 MLOAD DUP1 DUP4 SUB DUP2 DUP6 DUP8 GAS CALL SWAP3 POP POP POP RETURNDATASIZE DUP1 PUSH0 DUP2 EQ PUSH2 0x72C JUMPI PUSH1 0x40 MLOAD SWAP2 POP PUSH1 0x1F NOT PUSH1 0x3F RETURNDATASIZE ADD AND DUP3 ADD PUSH1 0x40 MSTORE RETURNDATASIZE DUP3 MSTORE RETURNDATASIZE PUSH0 PUSH1 0x20 DUP5 ADD RETURNDATACOPY PUSH2 0x731 JUMP JUMPDEST PUSH1 0x60 SWAP2 POP JUMPDEST POP POP SWAP1 POP DUP1 PUSH2 0x775 JUMPI PUSH1 0x40 MLOAD PUSH32 0x8C379A000000000000000000000000000000000000000000000000000000000 DUP2 MSTORE PUSH1 0x4 ADD PUSH2 0x76C SWAP1 PUSH2 0x130B JUMP JUMPDEST PUSH1 0x40 MLOAD DUP1 SWAP2 SUB SWAP1 REVERT JUMPDEST POP JUMPDEST POP JUMP JUMPDEST PUSH0 PUSH1 0x4 PUSH0 DUP4 PUSH20 0xFFFFFFFFFFFFFFFFFFFFFFFFFFFFFFFFFFFFFFFF AND PUSH20 0xFFFFFFFFFFFFFFFFFFFFFFFFFFFFFFFFFFFFFFFF AND DUP2 MSTORE PUSH1 0x20 ADD SWAP1 DUP2 MSTORE PUSH1 0x20 ADD PUSH0 KECCAK256 SLOAD SWAP1 POP SWAP2 SWAP1 POP JUMP JUMPDEST PUSH0 PUSH0 SWAP1 SLOAD SWAP1 PUSH2 0x100 EXP SWAP1 DIV PUSH20 0xFFFFFFFFFFFFFFFFFFFFFFFFFFFFFFFFFFFFFFFF AND DUP2 JUMP JUMPDEST PUSH0 PUSH1 0x5 PUSH0 SWAP1 SLOAD SWAP1 PUSH2 0x100 EXP SWAP1 DIV PUSH16 0xFFFFFFFFFFFFFFFFFFFFFFFFFFFFFFFF AND SWAP1 POP SWAP1 JUMP JUMPDEST PUSH0 PUSH1 0x5 PUSH1 0x10 SWAP1 SLOAD SWAP1 PUSH2 0x100 EXP SWAP1 DIV PUSH1 0xFF AND ISZERO PUSH2 0x859 JUMPI PUSH1 0x40 MLOAD PUSH32 0x8C379A000000000000000000000000000000000000000000000000000000000 DUP2 MSTORE PUSH1 0x4 ADD PUSH2 0x850 SWAP1 PUSH2 0x1062 JUMP JUMPDEST PUSH1 0x40 MLOAD DUP1 SWAP2 SUB SWAP1 REVERT JUMPDEST PUSH0 PUSH20 0xFFFFFFFFFFFFFFFFFFFFFFFFFFFFFFFFFFFFFFFF AND DUP4 PUSH20 0xFFFFFFFFFFFFFFFFFFFFFFFFFFFFFFFFFFFFFFFF AND SUB PUSH2 0x8C7 JUMPI PUSH1 0x40 MLOAD PUSH32 0x8C379A000000000000000000000000000000000000000000000000000000000 DUP2 MSTORE PUSH1 0x4 ADD PUSH2 0x8BE SWAP1 PUSH2 0x1373 JUMP JUMPDEST PUSH1 0x40 MLOAD DUP1 SWAP2 SUB SWAP1 REVERT JUMPDEST DUP2 PUSH1 0x4 PUSH0 CALLER PUSH20 0xFFFFFFFFFFFFFFFFFFFFFFFFFFFFFFFFFFFFFFFF AND PUSH20 0xFFFFFFFFFFFFFFFFFFFFFFFFFFFFFFFFFFFFFFFF AND DUP2 MSTORE PUSH1 0x20 ADD SWAP1 DUP2 MSTORE PUSH1 0x20 ADD PUSH0 KECCAK256 SLOAD LT ISZERO PUSH2 0x947 JUMPI PUSH1 0x40 MLOAD PUSH32 0x8C379A000000000000000000000000000000000000000000000000000000000 DUP2 MSTORE PUSH1 0x4 ADD PUSH2 0x93E SWAP1 PUSH2 0x13DB JUMP JUMPDEST PUSH1 0x40 MLOAD DUP1 SWAP2 SUB SWAP1 REVERT JUMPDEST DUP2 PUSH1 0x4 PUSH0 CALLER PUSH20 0xFFFFFFFFFFFFFFFFFFFFFFFFFFFFFFFFFFFFFFFF AND PUSH20 0xFFFFFFFFFFFFFFFFFFFFFFFFFFFFFFFFFFFFFFFF AND DUP2 MSTORE PUSH1 0x20 ADD SWAP1 DUP2 MSTORE PUSH1 0x20 ADD PUSH0 KECCAK256 PUSH0 DUP3 DUP3 SLOAD PUSH2 0x993 SWAP2 SWAP1 PUSH2 0x13F9 JUMP JUMPDEST SWAP3 POP POP DUP2 SWAP1 SSTORE POP DUP2 PUSH1 0x4 PUSH0 DUP6 PUSH20 0xFFFFFFFFFFFFFFFFFFFFFFFFFFFFFFFFFFFFFFFF AND PUSH20 0xFFFFFFFFFFFFFFFFFFFFFFFFFFFFFFFFFFFFFFFF AND DUP2 MSTORE PUSH1 0x20 ADD SWAP1 DUP2 MSTORE PUSH1 0x20 ADD PUSH0 KECCAK256 PUSH0 DUP3 DUP3 SLOAD PUSH2 0x9E6 SWAP2 SWAP1 PUSH2 0x117D JUMP JUMPDEST SWAP3 POP POP DUP2 SWAP1 SSTORE POP DUP3 PUSH20 0xFFFFFFFFFFFFFFFFFFFFFFFFFFFFFFFFFFFFFFFF AND CALLER PUSH20 0xFFFFFFFFFFFFFFFFFFFFFFFFFFFFFFFFFFFFFFFF AND PUSH32 0xDDF252AD1BE2C89B69C2B068FC378DAA952BA7F163C4A11628F55A4DF523B3EF DUP5 PUSH1 0x40 MLOAD PUSH2 0xA4A SWAP2 SWAP1 PUSH2 0xDD7 JUMP JUMPDEST PUSH1 0x40 MLOAD DUP1 SWAP2 SUB SWAP1 LOG3 PUSH1 0x1 SWAP1 POP SWAP3 SWAP2 POP POP JUMP JUMPDEST PUSH0 PUSH1 0x5 PUSH1 0x10 SWAP1 SLOAD SWAP1 PUSH2 0x100 EXP SWAP1 DIV PUSH1 0xFF AND ISZERO PUSH2 0xAAD JUMPI PUSH1 0x40 MLOAD PUSH32 0x8C379A000000000000000000000000000000000000000000000000000000000 DUP2 MSTORE PUSH1 0x4 ADD PUSH2 0xAA4 SWAP1 PUSH2 0x1062 JUMP JUMPDEST PUSH1 0x40 MLOAD DUP1 SWAP2 SUB SWAP1 REVERT JUMPDEST PUSH0 DUP3 GT PUSH2 0xAEF JUMPI PUSH1 0x40 MLOAD PUSH32 0x8C379A000000000000000000000000000000000000000000000000000000000 DUP2 MSTORE PUSH1 0x4 ADD PUSH2 0xAE6 SWAP1 PUSH2 0x1476 JUMP JUMPDEST PUSH1 0x40 MLOAD DUP1 SWAP2 SUB SWAP1 REVERT JUMPDEST DUP2 PUSH1 0x4 PUSH0 CALLER PUSH20 0xFFFFFFFFFFFFFFFFFFFFFFFFFFFFFFFFFFFFFFFF AND PUSH20 0xFFFFFFFFFFFFFFFFFFFFFFFFFFFFFFFFFFFFFFFF AND DUP2 MSTORE PUSH1 0x20 ADD SWAP1 DUP2 MSTORE PUSH1 0x20 ADD PUSH0 KECCAK256 SLOAD LT ISZERO PUSH2 0xB6F JUMPI PUSH1 0x40 MLOAD PUSH32 0x8C379A000000000000000000000000000000000000000000000000000000000 DUP2 MSTORE PUSH1 0x4 ADD PUSH2 0xB66 SWAP1 PUSH2 0x13DB JUMP JUMPDEST PUSH1 0x40 MLOAD DUP1 SWAP2 SUB SWAP1 REVERT JUMPDEST PUSH0 PUSH2 0x258 DUP4 PUSH2 0xB7E SWAP2 SWAP1 PUSH2 0x1494 JUMP JUMPDEST SWAP1 POP DUP1 SELFBALANCE LT ISZERO PUSH2 0xBC3 JUMPI PUSH1 0x40 MLOAD PUSH32 0x8C379A000000000000000000000000000000000000000000000000000000000 DUP2 MSTORE PUSH1 0x4 ADD PUSH2 0xBBA SWAP1 PUSH2 0x151F JUMP JUMPDEST PUSH1 0x40 MLOAD DUP1 SWAP2 SUB SWAP1 REVERT JUMPDEST DUP3 PUSH1 0x4 PUSH0 CALLER PUSH20 0xFFFFFFFFFFFFFFFFFFFFFFFFFFFFFFFFFFFFFFFF AND PUSH20 0xFFFFFFFFFFFFFFFFFFFFFFFFFFFFFFFFFFFFFFFF AND DUP2 MSTORE PUSH1 0x20 ADD SWAP1 DUP2 MSTORE PUSH1 0x20 ADD PUSH0 KECCAK256 PUSH0 DUP3 DUP3 SLOAD PUSH2 0xC0F SWAP2 SWAP1 PUSH2 0x13F9 JUMP JUMPDEST SWAP3 POP POP DUP2 SWAP1 SSTORE POP DUP3 PUSH1 0x3 PUSH0 DUP3 DUP3 SLOAD PUSH2 0xC27 SWAP2 SWAP1 PUSH2 0x13F9 JUMP JUMPDEST SWAP3 POP POP DUP2 SWAP1 SSTORE POP CALLER PUSH20 0xFFFFFFFFFFFFFFFFFFFFFFFFFFFFFFFFFFFFFFFF AND PUSH32 0x5E5E995CE3133561AFCEAA51A9A154D5DB228CD7525D34DF5185582C18D3DF09 DUP5 PUSH1 0x40 MLOAD PUSH2 0xC74 SWAP2 SWAP1 PUSH2 0xDD7 JUMP JUMPDEST PUSH1 0x40 MLOAD DUP1 SWAP2 SUB SWAP1 LOG2 PUSH0 CALLER PUSH20 0xFFFFFFFFFFFFFFFFFFFFFFFFFFFFFFFFFFFFFFFF AND DUP3 PUSH1 0x40 MLOAD PUSH2 0xCA1 SWAP1 PUSH2 0x12AD JUMP JUMPDEST PUSH0 PUSH1 0x40 MLOAD DUP1 DUP4 SUB DUP2 DUP6 DUP8 GAS CALL SWAP3 POP POP POP RETURNDATASIZE DUP1 PUSH0 DUP2 EQ PUSH2 0xCDB JUMPI PUSH1 0x40 MLOAD SWAP2 POP PUSH1 0x1F NOT PUSH1 0x3F RETURNDATASIZE ADD AND DUP3 ADD PUSH1 0x40 MSTORE RETURNDATASIZE DUP3 MSTORE RETURNDATASIZE PUSH0 PUSH1 0x20 DUP5 ADD RETURNDATACOPY PUSH2 0xCE0 JUMP JUMPDEST PUSH1 0x60 SWAP2 POP JUMPDEST POP POP SWAP1 POP DUP1 PUSH2 0xD24 JUMPI PUSH1 0x40 MLOAD PUSH32 0x8C379A000000000000000000000000000000000000000000000000000000000 DUP2 MSTORE PUSH1 0x4 ADD PUSH2 0xD1B SWAP1 PUSH2 0x1587 JUMP JUMPDEST PUSH1 0x40 MLOAD DUP1 SWAP2 SUB SWAP1 REVERT JUMPDEST PUSH1 0x1 SWAP3 POP POP POP SWAP2 SWAP1 POP JUMP JUMPDEST PUSH0 DUP2 MLOAD SWAP1 POP SWAP2 SWAP1 POP JUMP JUMPDEST PUSH0 DUP3 DUP3 MSTORE PUSH1 0x20 DUP3 ADD SWAP1 POP SWAP3 SWAP2 POP POP JUMP JUMPDEST DUP3 DUP2 DUP4 MCOPY PUSH0 DUP4 DUP4 ADD MSTORE POP POP POP JUMP JUMPDEST PUSH0 PUSH1 0x1F NOT PUSH1 0x1F DUP4 ADD AND SWAP1 POP SWAP2 SWAP1 POP JUMP JUMPDEST PUSH0 PUSH2 0xD71 DUP3 PUSH2 0xD2F JUMP JUMPDEST PUSH2 0xD7B DUP2 DUP6 PUSH2 0xD39 JUMP JUMPDEST SWAP4 POP PUSH2 0xD8B DUP2 DUP6 PUSH1 0x20 DUP7 ADD PUSH2 0xD49 JUMP JUMPDEST PUSH2 0xD94 DUP2 PUSH2 0xD57 JUMP JUMPDEST DUP5 ADD SWAP2 POP POP SWAP3 SWAP2 POP POP JUMP JUMPDEST PUSH0 PUSH1 0x20 DUP3 ADD SWAP1 POP DUP2 DUP2 SUB PUSH0 DUP4 ADD MSTORE PUSH2 0xDB7 DUP2 DUP5 PUSH2 0xD67 JUMP JUMPDEST SWAP1 POP SWAP3 SWAP2 POP POP JUMP JUMPDEST PUSH0 DUP2 SWAP1 POP SWAP2 SWAP1 POP JUMP JUMPDEST PUSH2 0xDD1 DUP2 PUSH2 0xDBF JUMP JUMPDEST DUP3 MSTORE POP POP JUMP JUMPDEST PUSH0 PUSH1 0x20 DUP3 ADD SWAP1 POP PUSH2 0xDEA PUSH0 DUP4 ADD DUP5 PUSH2 0xDC8 JUMP JUMPDEST SWAP3 SWAP2 POP POP JUMP JUMPDEST PUSH0 PUSH0 REVERT JUMPDEST PUSH0 PUSH20 0xFFFFFFFFFFFFFFFFFFFFFFFFFFFFFFFFFFFFFFFF DUP3 AND SWAP1 POP SWAP2 SWAP1 POP JUMP JUMPDEST PUSH0 PUSH2 0xE1D DUP3 PUSH2 0xDF4 JUMP JUMPDEST SWAP1 POP SWAP2 SWAP1 POP JUMP JUMPDEST PUSH2 0xE2D DUP2 PUSH2 0xE13 JUMP JUMPDEST DUP2 EQ PUSH2 0xE37 JUMPI PUSH0 PUSH0 REVERT JUMPDEST POP JUMP JUMPDEST PUSH0 DUP2 CALLDATALOAD SWAP1 POP PUSH2 0xE48 DUP2 PUSH2 0xE24 JUMP JUMPDEST SWAP3 SWAP2 POP POP JUMP JUMPDEST PUSH2 0xE57 DUP2 PUSH2 0xDBF JUMP JUMPDEST DUP2 EQ PUSH2 0xE61 JUMPI PUSH0 PUSH0 REVERT JUMPDEST POP JUMP JUMPDEST PUSH0 DUP2 CALLDATALOAD SWAP1 POP PUSH2 0xE72 DUP2 PUSH2 0xE4E JUMP JUMPDEST SWAP3 SWAP2 POP POP JUMP JUMPDEST PUSH0 PUSH0 PUSH1 0x40 DUP4 DUP6 SUB SLT ISZERO PUSH2 0xE8E JUMPI PUSH2 0xE8D PUSH2 0xDF0 JUMP JUMPDEST JUMPDEST PUSH0 PUSH2 0xE9B DUP6 DUP3 DUP7 ADD PUSH2 0xE3A JUMP JUMPDEST SWAP3 POP POP PUSH1 0x20 PUSH2 0xEAC DUP6 DUP3 DUP7 ADD PUSH2 0xE64 JUMP JUMPDEST SWAP2 POP POP SWAP3 POP SWAP3 SWAP1 POP JUMP JUMPDEST PUSH0 DUP2 ISZERO ISZERO SWAP1 POP SWAP2 SWAP1 POP JUMP JUMPDEST PUSH2 0xECA DUP2 PUSH2 0xEB6 JUMP JUMPDEST DUP3 MSTORE POP POP JUMP JUMPDEST PUSH0 PUSH1 0x20 DUP3 ADD SWAP1 POP PUSH2 0xEE3 PUSH0 DUP4 ADD DUP5 PUSH2 0xEC1 JUMP JUMPDEST SWAP3 SWAP2 POP POP JUMP JUMPDEST PUSH0 PUSH1 0x20 DUP3 DUP5 SUB SLT ISZERO PUSH2 0xEFE JUMPI PUSH2 0xEFD PUSH2 0xDF0 JUMP JUMPDEST JUMPDEST PUSH0 PUSH2 0xF0B DUP5 DUP3 DUP6 ADD PUSH2 0xE3A JUMP JUMPDEST SWAP2 POP POP SWAP3 SWAP2 POP POP JUMP JUMPDEST PUSH0 PUSH2 0xF1E DUP3 PUSH2 0xDF4 JUMP JUMPDEST SWAP1 POP SWAP2 SWAP1 POP JUMP JUMPDEST PUSH2 0xF2E DUP2 PUSH2 0xF14 JUMP JUMPDEST DUP3 MSTORE POP POP JUMP JUMPDEST PUSH0 PUSH1 0x20 DUP3 ADD SWAP1 POP PUSH2 0xF47 PUSH0 DUP4 ADD DUP5 PUSH2 0xF25 JUMP JUMPDEST SWAP3 SWAP2 POP POP JUMP JUMPDEST PUSH0 PUSH16 0xFFFFFFFFFFFFFFFFFFFFFFFFFFFFFFFF DUP3 AND SWAP1 POP SWAP2 SWAP1 POP JUMP JUMPDEST PUSH2 0xF71 DUP2 PUSH2 0xF4D JUMP JUMPDEST DUP3 MSTORE POP POP JUMP JUMPDEST PUSH0 PUSH1 0x20 DUP3 ADD SWAP1 POP PUSH2 0xF8A PUSH0 DUP4 ADD DUP5 PUSH2 0xF68 JUMP JUMPDEST SWAP3 SWAP2 POP POP JUMP JUMPDEST PUSH0 PUSH1 0x20 DUP3 DUP5 SUB SLT ISZERO PUSH2 0xFA5 JUMPI PUSH2 0xFA4 PUSH2 0xDF0 JUMP JUMPDEST JUMPDEST PUSH0 PUSH2 0xFB2 DUP5 DUP3 DUP6 ADD PUSH2 0xE64 JUMP JUMPDEST SWAP2 POP POP SWAP3 SWAP2 POP POP JUMP JUMPDEST PUSH32 0x4E487B7100000000000000000000000000000000000000000000000000000000 PUSH0 MSTORE PUSH1 0x22 PUSH1 0x4 MSTORE PUSH1 0x24 PUSH0 REVERT JUMPDEST PUSH0 PUSH1 0x2 DUP3 DIV SWAP1 POP PUSH1 0x1 DUP3 AND DUP1 PUSH2 0xFFF JUMPI PUSH1 0x7F DUP3 AND SWAP2 POP JUMPDEST PUSH1 0x20 DUP3 LT DUP2 SUB PUSH2 0x1012 JUMPI PUSH2 0x1011 PUSH2 0xFBB JUMP JUMPDEST JUMPDEST POP SWAP2 SWAP1 POP JUMP JUMPDEST PUSH32 0x636F6E747261637420697320636C6F7365640000000000000000000000000000 PUSH0 DUP3 ADD MSTORE POP JUMP JUMPDEST PUSH0 PUSH2 0x104C PUSH1 0x12 DUP4 PUSH2 0xD39 JUMP JUMPDEST SWAP2 POP PUSH2 0x1057 DUP3 PUSH2 0x1018 JUMP JUMPDEST PUSH1 0x20 DUP3 ADD SWAP1 POP SWAP2 SWAP1 POP JUMP JUMPDEST PUSH0 PUSH1 0x20 DUP3 ADD SWAP1 POP DUP2 DUP2 SUB PUSH0 DUP4 ADD MSTORE PUSH2 0x1079 DUP2 PUSH2 0x1040 JUMP JUMPDEST SWAP1 POP SWAP2 SWAP1 POP JUMP JUMPDEST PUSH32 0x6F6E6C79206F776E65722063616E206D696E7400000000000000000000000000 PUSH0 DUP3 ADD MSTORE POP JUMP JUMPDEST PUSH0 PUSH2 0x10B4 PUSH1 0x13 DUP4 PUSH2 0xD39 JUMP JUMPDEST SWAP2 POP PUSH2 0x10BF DUP3 PUSH2 0x1080 JUMP JUMPDEST PUSH1 0x20 DUP3 ADD SWAP1 POP SWAP2 SWAP1 POP JUMP JUMPDEST PUSH0 PUSH1 0x20 DUP3 ADD SWAP1 POP DUP2 DUP2 SUB PUSH0 DUP4 ADD MSTORE PUSH2 0x10E1 DUP2 PUSH2 0x10A8 JUMP JUMPDEST SWAP1 POP SWAP2 SWAP1 POP JUMP JUMPDEST PUSH32 0x6D696E7420746F207A65726F2061646472657373000000000000000000000000 PUSH0 DUP3 ADD MSTORE POP JUMP JUMPDEST PUSH0 PUSH2 0x111C PUSH1 0x14 DUP4 PUSH2 0xD39 JUMP JUMPDEST SWAP2 POP PUSH2 0x1127 DUP3 PUSH2 0x10E8 JUMP JUMPDEST PUSH1 0x20 DUP3 ADD SWAP1 POP SWAP2 SWAP1 POP JUMP JUMPDEST PUSH0 PUSH1 0x20 DUP3 ADD SWAP1 POP DUP2 DUP2 SUB PUSH0 DUP4 ADD MSTORE PUSH2 0x1149 DUP2 PUSH2 0x1110 JUMP JUMPDEST SWAP1 POP SWAP2 SWAP1 POP JUMP JUMPDEST PUSH32 0x4E487B7100000000000000000000000000000000000000000000000000000000 PUSH0 MSTORE PUSH1 0x11 PUSH1 0x4 MSTORE PUSH1 0x24 PUSH0 REVERT JUMPDEST PUSH0 PUSH2 0x1187 DUP3 PUSH2 0xDBF JUMP JUMPDEST SWAP2 POP PUSH2 0x1192 DUP4 PUSH2 0xDBF JUMP JUMPDEST SWAP3 POP DUP3 DUP3 ADD SWAP1 POP DUP1 DUP3 GT ISZERO PUSH2 0x11AA JUMPI PUSH2 0x11A9 PUSH2 0x1150 JUMP JUMPDEST JUMPDEST SWAP3 SWAP2 POP POP JUMP JUMPDEST PUSH32 0x6F6E6C79206F776E65722063616E20636C6F7365000000000000000000000000 PUSH0 DUP3 ADD MSTORE POP JUMP JUMPDEST PUSH0 PUSH2 0x11E4 PUSH1 0x14 DUP4 PUSH2 0xD39 JUMP JUMPDEST SWAP2 POP PUSH2 0x11EF DUP3 PUSH2 0x11B0 JUMP JUMPDEST PUSH1 0x20 DUP3 ADD SWAP1 POP SWAP2 SWAP1 POP JUMP JUMPDEST PUSH0 PUSH1 0x20 DUP3 ADD SWAP1 POP DUP2 DUP2 SUB PUSH0 DUP4 ADD MSTORE PUSH2 0x1211 DUP2 PUSH2 0x11D8 JUMP JUMPDEST SWAP1 POP SWAP2 SWAP1 POP JUMP JUMPDEST PUSH32 0x616C726561647920636C6F736564000000000000000000000000000000000000 PUSH0 DUP3 ADD MSTORE POP JUMP JUMPDEST PUSH0 PUSH2 0x124C PUSH1 0xE DUP4 PUSH2 0xD39 JUMP JUMPDEST SWAP2 POP PUSH2 0x1257 DUP3 PUSH2 0x1218 JUMP JUMPDEST PUSH1 0x20 DUP3 ADD SWAP1 POP SWAP2 SWAP1 POP JUMP JUMPDEST PUSH0 PUSH1 0x20 DUP3 ADD SWAP1 POP DUP2 DUP2 SUB PUSH0 DUP4 ADD MSTORE PUSH2 0x1279 DUP2 PUSH2 0x1240 JUMP JUMPDEST SWAP1 POP SWAP2 SWAP1 POP JUMP JUMPDEST PUSH0 DUP2 SWAP1 POP SWAP3 SWAP2 POP POP JUMP JUMPDEST POP JUMP JUMPDEST PUSH0 PUSH2 0x1298 PUSH0 DUP4 PUSH2 0x1280 JUMP JUMPDEST SWAP2 POP PUSH2 0x12A3 DUP3 PUSH2 0x128A JUMP JUMPDEST PUSH0 DUP3 ADD SWAP1 POP SWAP2 SWAP1 POP JUMP JUMPDEST PUSH0 PUSH2 0x12B7 DUP3 PUSH2 0x128D JUMP JUMPDEST SWAP2 POP DUP2 SWAP1 POP SWAP2 SWAP1 POP JUMP JUMPDEST PUSH32 0x455448207472616E7366657220746F206F776E6572206661696C656400000000 PUSH0 DUP3 ADD MSTORE POP JUMP JUMPDEST PUSH0 PUSH2 0x12F5 PUSH1 0x1C DUP4 PUSH2 0xD39 JUMP JUMPDEST SWAP2 POP PUSH2 0x1300 DUP3 PUSH2 0x12C1 JUMP JUMPDEST PUSH1 0x20 DUP3 ADD SWAP1 POP SWAP2 SWAP1 POP JUMP JUMPDEST PUSH0 PUSH1 0x20 DUP3 ADD SWAP1 POP DUP2 DUP2 SUB PUSH0 DUP4 ADD MSTORE PUSH2 0x1322 DUP2 PUSH2 0x12E9 JUMP JUMPDEST SWAP1 POP SWAP2 SWAP1 POP JUMP JUMPDEST PUSH32 0x7472616E7366657220746F207A65726F20616464726573730000000000000000 PUSH0 DUP3 ADD MSTORE POP JUMP JUMPDEST PUSH0 PUSH2 0x135D PUSH1 0x18 DUP4 PUSH2 0xD39 JUMP JUMPDEST SWAP2 POP PUSH2 0x1368 DUP3 PUSH2 0x1329 JUMP JUMPDEST PUSH1 0x20 DUP3 ADD SWAP1 POP SWAP2 SWAP1 POP JUMP JUMPDEST PUSH0 PUSH1 0x20 DUP3 ADD SWAP1 POP DUP2 DUP2 SUB PUSH0 DUP4 ADD MSTORE PUSH2 0x138A DUP2 PUSH2 0x1351 JUMP JUMPDEST SWAP1 POP SWAP2 SWAP1 POP JUMP JUMPDEST PUSH32 0x696E73756666696369656E742062616C616E6365000000000000000000000000 PUSH0 DUP3 ADD MSTORE POP JUMP JUMPDEST PUSH0 PUSH2 0x13C5 PUSH1 0x14 DUP4 PUSH2 0xD39 JUMP JUMPDEST SWAP2 POP PUSH2 0x13D0 DUP3 PUSH2 0x1391 JUMP JUMPDEST PUSH1 0x20 DUP3 ADD SWAP1 POP SWAP2 SWAP1 POP JUMP JUMPDEST PUSH0 PUSH1 0x20 DUP3 ADD SWAP1 POP DUP2 DUP2 SUB PUSH0 DUP4 ADD MSTORE PUSH2 0x13F2 DUP2 PUSH2 0x13B9 JUMP JUMPDEST SWAP1 POP SWAP2 SWAP1 POP JUMP JUMPDEST PUSH0 PUSH2 0x1403 DUP3 PUSH2 0xDBF JUMP JUMPDEST SWAP2 POP PUSH2 0x140E DUP4 PUSH2 0xDBF JUMP JUMPDEST SWAP3 POP DUP3 DUP3 SUB SWAP1 POP DUP2 DUP2 GT ISZERO PUSH2 0x1426 JUMPI PUSH2 0x1425 PUSH2 0x1150 JUMP JUMPDEST JUMPDEST SWAP3 SWAP2 POP POP JUMP JUMPDEST PUSH32 0x73656C6C207A65726F20746F6B656E7300000000000000000000000000000000 PUSH0 DUP3 ADD MSTORE POP JUMP JUMPDEST PUSH0 PUSH2 0x1460 PUSH1 0x10 DUP4 PUSH2 0xD39 JUMP JUMPDEST SWAP2 POP PUSH2 0x146B DUP3 PUSH2 0x142C JUMP JUMPDEST PUSH1 0x20 DUP3 ADD SWAP1 POP SWAP2 SWAP1 POP JUMP JUMPDEST PUSH0 PUSH1 0x20 DUP3 ADD SWAP1 POP DUP2 DUP2 SUB PUSH0 DUP4 ADD MSTORE PUSH2 0x148D DUP2 PUSH2 0x1454 JUMP JUMPDEST SWAP1 POP SWAP2 SWAP1 POP JUMP JUMPDEST PUSH0 PUSH2 0x149E DUP3 PUSH2 0xDBF JUMP JUMPDEST SWAP2 POP PUSH2 0x14A9 DUP4 PUSH2 0xDBF JUMP JUMPDEST SWAP3 POP DUP3 DUP3 MUL PUSH2 0x14B7 DUP2 PUSH2 0xDBF JUMP JUMPDEST SWAP2 POP DUP3 DUP3 DIV DUP5 EQ DUP4 ISZERO OR PUSH2 0x14CE JUMPI PUSH2 0x14CD PUSH2 0x1150 JUMP JUMPDEST JUMPDEST POP SWAP3 SWAP2 POP POP JUMP JUMPDEST PUSH32 0x636F6E74726163742068617320696E73756666696369656E7420455448000000 PUSH0 DUP3 ADD MSTORE POP JUMP JUMPDEST PUSH0 PUSH2 0x1509 PUSH1 0x1D DUP4 PUSH2 0xD39 JUMP JUMPDEST SWAP2 POP PUSH2 0x1514 DUP3 PUSH2 0x14D5 JUMP JUMPDEST PUSH1 0x20 DUP3 ADD SWAP1 POP SWAP2 SWAP1 POP JUMP JUMPDEST PUSH0 PUSH1 0x20 DUP3 ADD SWAP1 POP DUP2 DUP2 SUB PUSH0 DUP4 ADD MSTORE PUSH2 0x1536 DUP2 PUSH2 0x14FD JUMP JUMPDEST SWAP1 POP SWAP2 SWAP1 POP JUMP JUMPDEST PUSH32 0x455448207472616E73666572206661696C656400000000000000000000000000 PUSH0 DUP3 ADD MSTORE POP JUMP JUMPDEST PUSH0 PUSH2 0x1571 PUSH1 0x13 DUP4 PUSH2 0xD39 JUMP JUMPDEST SWAP2 POP PUSH2 0x157C DUP3 PUSH2 0x153D JUMP JUMPDEST PUSH1 0x20 DUP3 ADD SWAP1 POP SWAP2 SWAP1 POP JUMP JUMPDEST PUSH0 PUSH1 0x20 DUP3 ADD SWAP1 POP DUP2 DUP2 SUB PUSH0 DUP4 ADD MSTORE PUSH2 0x159E DUP2 PUSH2 0x1565 JUMP JUMPDEST SWAP1 POP SWAP2 SWAP1 POP JUMP INVALID LOG2 PUSH5 0x6970667358 0x22 SLT KECCAK256 0x29 LOG1 DUP12 GAS DUPN 0xDE 0xCD PREVRANDAO 0x2D 0xDD EXTCODEHASH ISZERO 0x2D 0xAB BLOBBASEFEE LOG2 0xEA PUSH23 0x7CC146C801FABC478A4F8D21B1A864736F6C6343000822 STOP CALLER "
				},
				"gasEstimates": {
					"creation": {
						"codeDepositCost": "1119000",
						"executionCost": "infinite",
						"totalCost": "infinite"
					},
					"external": {
						"": "195",
						"balanceOf(address)": "2829",
						"close()": "infinite",
						"getName()": "infinite",
						"getPrice()": "2517",
						"getSymbol()": "infinite",
						"mint(address,uint256)": "infinite",
						"owner()": "2529",
						"sell(uint256)": "infinite",
						"totalSupply()": "2477",
						"transfer(address,uint256)": "infinite"
					}
				},
				"methodIdentifiers": {
					"balanceOf(address)": "70a08231",
					"close()": "43d726d6",
					"getName()": "17d7de7c",
					"getPrice()": "98d5fdca",
					"getSymbol()": "15070401",
					"mint(address,uint256)": "40c10f19",
					"owner()": "8da5cb5b",
					"sell(uint256)": "e4849b32",
					"totalSupply()": "18160ddd",
					"transfer(address,uint256)": "a9059cbb"
				}
			},
			"storageLayout": {
				"storage": [
					{
						"astId": 3,
						"contract": "Game.sol:Token",
						"label": "owner",
						"offset": 0,
						"slot": "0",
						"type": "t_address_payable"
					},
					{
						"astId": 26,
						"contract": "Game.sol:Token",
						"label": "_name",
						"offset": 0,
						"slot": "1",
						"type": "t_string_storage"
					},
					{
						"astId": 29,
						"contract": "Game.sol:Token",
						"label": "_symbol",
						"offset": 0,
						"slot": "2",
						"type": "t_string_storage"
					},
					{
						"astId": 31,
						"contract": "Game.sol:Token",
						"label": "_totalSupply",
						"offset": 0,
						"slot": "3",
						"type": "t_uint256"
					},
					{
						"astId": 35,
						"contract": "Game.sol:Token",
						"label": "_balances",
						"offset": 0,
						"slot": "4",
						"type": "t_mapping(t_address,t_uint256)"
					},
					{
						"astId": 38,
						"contract": "Game.sol:Token",
						"label": "_price",
						"offset": 0,
						"slot": "5",
						"type": "t_uint128"
					},
					{
						"astId": 41,
						"contract": "Game.sol:Token",
						"label": "_isClosed",
						"offset": 16,
						"slot": "5",
						"type": "t_bool"
					}
				],
				"types": {
					"t_address": {
						"encoding": "inplace",
						"label": "address",
						"numberOfBytes": "20"
					},
					"t_address_payable": {
						"encoding": "inplace",
						"label": "address payable",
						"numberOfBytes": "20"
					},
					"t_bool": {
						"encoding": "inplace",
						"label": "bool",
						"numberOfBytes": "1"
					},
					"t_mapping(t_address,t_uint256)": {
						"encoding": "mapping",
						"key": "t_address",
						"label": "mapping(address => uint256)",
						"numberOfBytes": "32",
						"value": "t_uint256"
					},
					"t_string_storage": {
						"encoding": "bytes",
						"label": "string",
						"numberOfBytes": "32"
					},
					"t_uint128": {
						"encoding": "inplace",
						"label": "uint128",
						"numberOfBytes": "16"
					},
					"t_uint256": {
						"encoding": "inplace",
						"label": "uint256",
						"numberOfBytes": "32"
					}
				}
			},
			"userdoc": {
				"kind": "user",
				"methods": {},
				"version": 1
			}
		}
	}
}