{
	"stage2.sol": {
		"Game": {
			"abi": [
				{
					"inputs": [],
					"stateMutability": "nonpayable",
					"type": "constructor"
				},
				{
					"inputs": [],
					"name": "confirmWinner",
					"outputs": [],
					"stateMutability": "nonpayable",
					"type": "function"
				},
				{
					"inputs": [],
					"name": "gameResult",
					"outputs": [
						{
							"internalType": "uint256",
							"name": "",
							"type": "uint256"
						},
						{
							"internalType": "string",
							"name": "",
							"type": "string"
						}
					],
					"stateMutability": "view",
					"type": "function"
				},
				{
					"inputs": [],
					"name": "owner",
					"outputs": [
						{
							"internalType": "address",
							"name": "",
							"type": "address"
						}
					],
					"stateMutability": "view",
					"type": "function"
				},
				{
					"inputs": [
						{
							"internalType": "uint256",
							"name": "_ownerPW_Confirm",
							"type": "uint256"
						}
					],
					"name": "ownerReveal",
					"outputs": [
						{
							"internalType": "bool",
							"name": "",
							"type": "bool"
						},
						{
							"internalType": "string",
							"name": "",
							"type": "string"
						}
					],
					"stateMutability": "nonpayable",
					"type": "function"
				},
				{
					"inputs": [
						{
							"internalType": "uint256",
							"name": "_ownerAns",
							"type": "uint256"
						},
						{
							"internalType": "uint256",
							"name": "_ownerPW",
							"type": "uint256"
						}
					],
					"name": "ownerSubmit",
					"outputs": [
						{
							"internalType": "uint256",
							"name": "",
							"type": "uint256"
						}
					],
					"stateMutability": "nonpayable",
					"type": "function"
				},
				{
					"inputs": [],
					"name": "ownerViewAns",
					"outputs": [
						{
							"internalType": "uint256",
							"name": "",
							"type": "uint256"
						}
					],
					"stateMutability": "view",
					"type": "function"
				},
				{
					"inputs": [],
					"name": "player",
					"outputs": [
						{
							"internalType": "address",
							"name": "",
							"type": "address"
						}
					],
					"stateMutability": "view",
					"type": "function"
				},
				{
					"inputs": [
						{
							"internalType": "uint256",
							"name": "_playerPW_Confirm",
							"type": "uint256"
						}
					],
					"name": "playerReveal",
					"outputs": [
						{
							"internalType": "bool",
							"name": "",
							"type": "bool"
						},
						{
							"internalType": "string",
							"name": "",
							"type": "string"
						}
					],
					"stateMutability": "nonpayable",
					"type": "function"
				},
				{
					"inputs": [
						{
							"internalType": "uint256",
							"name": "_playerAns",
							"type": "uint256"
						},
						{
							"internalType": "uint256",
							"name": "_playerPW",
							"type": "uint256"
						}
					],
					"name": "playerSubmit",
					"outputs": [
						{
							"internalType": "uint256",
							"name": "",
							"type": "uint256"
						}
					],
					"stateMutability": "nonpayable",
					"type": "function"
				},
				{
					"inputs": [],
					"name": "playerViewAns",
					"outputs": [
						{
							"internalType": "uint256",
							"name": "",
							"type": "uint256"
						}
					],
					"stateMutability": "view",
					"type": "function"
				}
			],
			"devdoc": {
				"kind": "dev",
				"methods": {},
				"version": 1
			},
			"evm": {
				"assembly": "    /* \"stage2.sol\":61:5258  contract Game{... */\n  mstore(0x40, 0x80)\n    /* \"stage2.sol\":464:515  constructor() {... */\n  callvalue\n  dup1\n  iszero\n  tag_1\n  jumpi\n  revert(0x00, 0x00)\ntag_1:\n  pop\n    /* \"stage2.sol\":497:507  msg.sender */\n  caller\n    /* \"stage2.sol\":489:494  owner */\n  0x00\n  0x00\n    /* \"stage2.sol\":489:507  owner = msg.sender */\n  0x0100\n  exp\n  dup2\n  sload\n  dup2\n  0xffffffffffffffffffffffffffffffffffffffff\n  mul\n  not\n  and\n  swap1\n  dup4\n  0xffffffffffffffffffffffffffffffffffffffff\n  and\n  mul\n  or\n  swap1\n  sstore\n  pop\n    /* \"stage2.sol\":61:5258  contract Game{... */\n  dataSize(sub_0)\n  dup1\n  dataOffset(sub_0)\n  0x00\n  codecopy\n  0x00\n  return\nstop\n\nsub_0: assembly {\n        /* \"stage2.sol\":61:5258  contract Game{... */\n      mstore(0x40, 0x80)\n      callvalue\n      dup1\n      iszero\n      tag_1\n      jumpi\n      revert(0x00, 0x00)\n    tag_1:\n      pop\n      jumpi(tag_2, lt(calldatasize, 0x04))\n      shr(0xe0, calldataload(0x00))\n      dup1\n      0x8da5cb5b\n      gt\n      tag_13\n      jumpi\n      dup1\n      0x8da5cb5b\n      eq\n      tag_8\n      jumpi\n      dup1\n      0x8f693d9e\n      eq\n      tag_9\n      jumpi\n      dup1\n      0xd55c9c84\n      eq\n      tag_10\n      jumpi\n      dup1\n      0xd79830cf\n      eq\n      tag_11\n      jumpi\n      dup1\n      0xff2364b5\n      eq\n      tag_12\n      jumpi\n      jump(tag_2)\n    tag_13:\n      dup1\n      0x3a902846\n      eq\n      tag_3\n      jumpi\n      dup1\n      0x48db5f89\n      eq\n      tag_4\n      jumpi\n      dup1\n      0x528654d7\n      eq\n      tag_5\n      jumpi\n      dup1\n      0x5f582011\n      eq\n      tag_6\n      jumpi\n      dup1\n      0x7152f800\n      eq\n      tag_7\n      jumpi\n    tag_2:\n      revert(0x00, 0x00)\n        /* \"stage2.sol\":1225:1731  function ownerSubmit(uint256 _ownerAns, uint256 _ownerPW) public returns (uint256) {... */\n    tag_3:\n      tag_14\n      0x04\n      dup1\n      calldatasize\n      sub\n      dup2\n      add\n      swap1\n      tag_15\n      swap2\n      swap1\n      tag_16\n      jump\t// in\n    tag_15:\n      tag_17\n      jump\t// in\n    tag_14:\n      mload(0x40)\n      tag_18\n      swap2\n      swap1\n      tag_19\n      jump\t// in\n    tag_18:\n      mload(0x40)\n      dup1\n      swap2\n      sub\n      swap1\n      return\n        /* \"stage2.sol\":205:226  address public player */\n    tag_4:\n      tag_20\n      tag_21\n      jump\t// in\n    tag_20:\n      mload(0x40)\n      tag_22\n      swap2\n      swap1\n      tag_23\n      jump\t// in\n    tag_22:\n      mload(0x40)\n      dup1\n      swap2\n      sub\n      swap1\n      return\n        /* \"stage2.sol\":2391:2829  function ownerReveal(uint256 _ownerPW_Confirm) public returns (bool, string memory){... */\n    tag_5:\n      tag_24\n      0x04\n      dup1\n      calldatasize\n      sub\n      dup2\n      add\n      swap1\n      tag_25\n      swap2\n      swap1\n      tag_26\n      jump\t// in\n    tag_25:\n      tag_27\n      jump\t// in\n    tag_24:\n      mload(0x40)\n      tag_28\n      swap3\n      swap2\n      swap1\n      tag_29\n      jump\t// in\n    tag_28:\n      mload(0x40)\n      dup1\n      swap2\n      sub\n      swap1\n      return\n        /* \"stage2.sol\":3321:3484  function playerViewAns() public view returns(uint256){... */\n    tag_6:\n      tag_30\n      tag_31\n      jump\t// in\n    tag_30:\n      mload(0x40)\n      tag_32\n      swap2\n      swap1\n      tag_19\n      jump\t// in\n    tag_32:\n      mload(0x40)\n      dup1\n      swap2\n      sub\n      swap1\n      return\n        /* \"stage2.sol\":3867:4382  function gameResult() public view returns(uint256, string memory){... */\n    tag_7:\n      tag_33\n      tag_34\n      jump\t// in\n    tag_33:\n      mload(0x40)\n      tag_35\n      swap3\n      swap2\n      swap1\n      tag_36\n      jump\t// in\n    tag_35:\n      mload(0x40)\n      dup1\n      swap2\n      sub\n      swap1\n      return\n        /* \"stage2.sol\":83:103  address public owner */\n    tag_8:\n      tag_37\n      tag_38\n      jump\t// in\n    tag_37:\n      mload(0x40)\n      tag_39\n      swap2\n      swap1\n      tag_23\n      jump\t// in\n    tag_39:\n      mload(0x40)\n      dup1\n      swap2\n      sub\n      swap1\n      return\n        /* \"stage2.sol\":1739:2314  function playerSubmit(uint256 _playerAns, uint256 _playerPW) public returns (uint256) {... */\n    tag_9:\n      tag_40\n      0x04\n      dup1\n      calldatasize\n      sub\n      dup2\n      add\n      swap1\n      tag_41\n      swap2\n      swap1\n      tag_16\n      jump\t// in\n    tag_41:\n      tag_42\n      jump\t// in\n    tag_40:\n      mload(0x40)\n      tag_43\n      swap2\n      swap1\n      tag_19\n      jump\t// in\n    tag_43:\n      mload(0x40)\n      dup1\n      swap2\n      sub\n      swap1\n      return\n        /* \"stage2.sol\":4525:5253  function confirmWinner() public {... */\n    tag_10:\n      tag_44\n      tag_45\n      jump\t// in\n    tag_44:\n      stop\n        /* \"stage2.sol\":3492:3653  function ownerViewAns() public view returns (uint256) {... */\n    tag_11:\n      tag_46\n      tag_47\n      jump\t// in\n    tag_46:\n      mload(0x40)\n      tag_48\n      swap2\n      swap1\n      tag_19\n      jump\t// in\n    tag_48:\n      mload(0x40)\n      dup1\n      swap2\n      sub\n      swap1\n      return\n        /* \"stage2.sol\":2837:3285  function playerReveal(uint256 _playerPW_Confirm) public returns (bool, string memory){... */\n    tag_12:\n      tag_49\n      0x04\n      dup1\n      calldatasize\n      sub\n      dup2\n      add\n      swap1\n      tag_50\n      swap2\n      swap1\n      tag_26\n      jump\t// in\n    tag_50:\n      tag_51\n      jump\t// in\n    tag_49:\n      mload(0x40)\n      tag_52\n      swap3\n      swap2\n      swap1\n      tag_29\n      jump\t// in\n    tag_52:\n      mload(0x40)\n      dup1\n      swap2\n      sub\n      swap1\n      return\n        /* \"stage2.sol\":1225:1731  function ownerSubmit(uint256 _ownerAns, uint256 _ownerPW) public returns (uint256) {... */\n    tag_17:\n        /* \"stage2.sol\":1299:1306  uint256 */\n      0x00\n        /* \"stage2.sol\":1341:1346  owner */\n      0x00\n      0x00\n      swap1\n      sload\n      swap1\n      0x0100\n      exp\n      swap1\n      div\n      0xffffffffffffffffffffffffffffffffffffffff\n      and\n        /* \"stage2.sol\":1327:1346  msg.sender == owner */\n      0xffffffffffffffffffffffffffffffffffffffff\n      and\n        /* \"stage2.sol\":1327:1337  msg.sender */\n      caller\n        /* \"stage2.sol\":1327:1346  msg.sender == owner */\n      0xffffffffffffffffffffffffffffffffffffffff\n      and\n      eq\n        /* \"stage2.sol\":1319:1361  require(msg.sender == owner, \"only owner\") */\n      tag_54\n      jumpi\n      mload(0x40)\n      0x08c379a000000000000000000000000000000000000000000000000000000000\n      dup2\n      mstore\n      0x04\n      add\n      tag_55\n      swap1\n      tag_56\n      jump\t// in\n    tag_55:\n      mload(0x40)\n      dup1\n      swap2\n      sub\n      swap1\n      revert\n    tag_54:\n        /* \"stage2.sol\":1394:1410  Status.Submitted */\n      0x01\n        /* \"stage2.sol\":1380:1410  ownerStatus!= Status.Submitted */\n      0x03\n      dup2\n      gt\n      iszero\n      tag_57\n      jumpi\n      tag_58\n      tag_59\n      jump\t// in\n    tag_58:\n    tag_57:\n        /* \"stage2.sol\":1380:1391  ownerStatus */\n      0x08\n      0x01\n      swap1\n      sload\n      swap1\n      0x0100\n      exp\n      swap1\n      div\n      0xff\n      and\n        /* \"stage2.sol\":1380:1410  ownerStatus!= Status.Submitted */\n      0x03\n      dup2\n      gt\n      iszero\n      tag_60\n      jumpi\n      tag_61\n      tag_59\n      jump\t// in\n    tag_61:\n    tag_60:\n      sub\n        /* \"stage2.sol\":1372:1441  require(ownerStatus!= Status.Submitted, \"You have already submitted\") */\n      tag_62\n      jumpi\n      mload(0x40)\n      0x08c379a000000000000000000000000000000000000000000000000000000000\n      dup2\n      mstore\n      0x04\n      add\n      tag_63\n      swap1\n      tag_64\n      jump\t// in\n    tag_63:\n      mload(0x40)\n      dup1\n      swap2\n      sub\n      swap1\n      revert\n    tag_62:\n        /* \"stage2.sol\":1474:1487  Status.Winner */\n      0x03\n        /* \"stage2.sol\":1460:1487  ownerStatus!= Status.Winner */\n      dup1\n      dup2\n      gt\n      iszero\n      tag_65\n      jumpi\n      tag_66\n      tag_59\n      jump\t// in\n    tag_66:\n    tag_65:\n        /* \"stage2.sol\":1460:1471  ownerStatus */\n      0x08\n      0x01\n      swap1\n      sload\n      swap1\n      0x0100\n      exp\n      swap1\n      div\n      0xff\n      and\n        /* \"stage2.sol\":1460:1487  ownerStatus!= Status.Winner */\n      0x03\n      dup2\n      gt\n      iszero\n      tag_67\n      jumpi\n      tag_68\n      tag_59\n      jump\t// in\n    tag_68:\n    tag_67:\n      sub\n        /* \"stage2.sol\":1452:1541  require(ownerStatus!= Status.Winner, \"The game is finish, new submission is not allowed\") */\n      tag_69\n      jumpi\n      mload(0x40)\n      0x08c379a000000000000000000000000000000000000000000000000000000000\n      dup2\n      mstore\n      0x04\n      add\n      tag_70\n      swap1\n      tag_71\n      jump\t// in\n    tag_70:\n      mload(0x40)\n      dup1\n      swap2\n      sub\n      swap1\n      revert\n    tag_69:\n        /* \"stage2.sol\":1565:1574  _ownerAns */\n      dup3\n        /* \"stage2.sol\":1554:1562  ownerAns */\n      0x01\n        /* \"stage2.sol\":1554:1574  ownerAns = _ownerAns */\n      dup2\n      swap1\n      sstore\n      pop\n        /* \"stage2.sol\":1595:1603  _ownerPW */\n      dup2\n        /* \"stage2.sol\":1585:1592  ownerPW */\n      0x02\n        /* \"stage2.sol\":1585:1603  ownerPW = _ownerPW */\n      dup2\n      swap1\n      sstore\n      pop\n        /* \"stage2.sol\":1626:1656  ownerHashing(ownerAns,ownerPW) */\n      tag_72\n        /* \"stage2.sol\":1639:1647  ownerAns */\n      sload(0x01)\n        /* \"stage2.sol\":1648:1655  ownerPW */\n      sload(0x02)\n        /* \"stage2.sol\":1626:1638  ownerHashing */\n      tag_73\n        /* \"stage2.sol\":1626:1656  ownerHashing(ownerAns,ownerPW) */\n      jump\t// in\n    tag_72:\n        /* \"stage2.sol\":1614:1623  ownerHash */\n      0x03\n        /* \"stage2.sol\":1614:1656  ownerHash = ownerHashing(ownerAns,ownerPW) */\n      dup2\n      swap1\n      sstore\n      pop\n        /* \"stage2.sol\":1681:1697  Status.Submitted */\n      0x01\n        /* \"stage2.sol\":1667:1678  ownerStatus */\n      0x08\n      0x01\n        /* \"stage2.sol\":1667:1697  ownerStatus = Status.Submitted */\n      0x0100\n      exp\n      dup2\n      sload\n      dup2\n      0xff\n      mul\n      not\n      and\n      swap1\n      dup4\n      0x03\n      dup2\n      gt\n      iszero\n      tag_74\n      jumpi\n      tag_75\n      tag_59\n      jump\t// in\n    tag_75:\n    tag_74:\n      mul\n      or\n      swap1\n      sstore\n      pop\n        /* \"stage2.sol\":1715:1723  ownerAns */\n      sload(0x01)\n        /* \"stage2.sol\":1708:1723  return ownerAns */\n      swap1\n      pop\n        /* \"stage2.sol\":1225:1731  function ownerSubmit(uint256 _ownerAns, uint256 _ownerPW) public returns (uint256) {... */\n      swap3\n      swap2\n      pop\n      pop\n      jump\t// out\n        /* \"stage2.sol\":205:226  address public player */\n    tag_21:\n      0x04\n      0x00\n      swap1\n      sload\n      swap1\n      0x0100\n      exp\n      swap1\n      div\n      0xffffffffffffffffffffffffffffffffffffffff\n      and\n      dup2\n      jump\t// out\n        /* \"stage2.sol\":2391:2829  function ownerReveal(uint256 _ownerPW_Confirm) public returns (bool, string memory){... */\n    tag_27:\n        /* \"stage2.sol\":2454:2458  bool */\n      0x00\n        /* \"stage2.sol\":2460:2473  string memory */\n      0x60\n        /* \"stage2.sol\":2507:2512  owner */\n      0x00\n      0x00\n      swap1\n      sload\n      swap1\n      0x0100\n      exp\n      swap1\n      div\n      0xffffffffffffffffffffffffffffffffffffffff\n      and\n        /* \"stage2.sol\":2493:2512  msg.sender == owner */\n      0xffffffffffffffffffffffffffffffffffffffff\n      and\n        /* \"stage2.sol\":2493:2503  msg.sender */\n      caller\n        /* \"stage2.sol\":2493:2512  msg.sender == owner */\n      0xffffffffffffffffffffffffffffffffffffffff\n      and\n      eq\n        /* \"stage2.sol\":2485:2547  require(msg.sender == owner, \"Only owner can submit Password\") */\n      tag_77\n      jumpi\n      mload(0x40)\n      0x08c379a000000000000000000000000000000000000000000000000000000000\n      dup2\n      mstore\n      0x04\n      add\n      tag_78\n      swap1\n      tag_79\n      jump\t// in\n    tag_78:\n      mload(0x40)\n      dup1\n      swap2\n      sub\n      swap1\n      revert\n    tag_77:\n        /* \"stage2.sol\":2558:2580  bytes32 checkOwnerHash */\n      0x00\n        /* \"stage2.sol\":2610:2618  ownerAns */\n      sload(0x01)\n        /* \"stage2.sol\":2620:2636  _ownerPW_Confirm */\n      dup5\n        /* \"stage2.sol\":2593:2637  abi.encodePacked(ownerAns, _ownerPW_Confirm) */\n      add(0x20, mload(0x40))\n      tag_80\n      swap3\n      swap2\n      swap1\n      tag_81\n      jump\t// in\n    tag_80:\n      mload(0x40)\n      0x20\n      dup2\n      dup4\n      sub\n      sub\n      dup2\n      mstore\n      swap1\n      0x40\n      mstore\n        /* \"stage2.sol\":2583:2638  keccak256(abi.encodePacked(ownerAns, _ownerPW_Confirm)) */\n      dup1\n      mload\n      swap1\n      0x20\n      add\n      keccak256\n        /* \"stage2.sol\":2558:2638  bytes32 checkOwnerHash = keccak256(abi.encodePacked(ownerAns, _ownerPW_Confirm)) */\n      swap1\n      pop\n        /* \"stage2.sol\":2675:2684  ownerHash */\n      sload(0x03)\n        /* \"stage2.sol\":2657:2671  checkOwnerHash */\n      dup2\n        /* \"stage2.sol\":2657:2684  checkOwnerHash == ownerHash */\n      eq\n        /* \"stage2.sol\":2649:2735  require(checkOwnerHash == ownerHash, \"The Password is not correct, Please try again.\") */\n      tag_82\n      jumpi\n      mload(0x40)\n      0x08c379a000000000000000000000000000000000000000000000000000000000\n      dup2\n      mstore\n      0x04\n      add\n      tag_83\n      swap1\n      tag_84\n      jump\t// in\n    tag_83:\n      mload(0x40)\n      dup1\n      swap2\n      sub\n      swap1\n      revert\n    tag_82:\n        /* \"stage2.sol\":2764:2780  Status.Confirmed */\n      0x02\n        /* \"stage2.sol\":2750:2761  ownerStatus */\n      0x08\n      0x01\n        /* \"stage2.sol\":2750:2780  ownerStatus = Status.Confirmed */\n      0x0100\n      exp\n      dup2\n      sload\n      dup2\n      0xff\n      mul\n      not\n      and\n      swap1\n      dup4\n      0x03\n      dup2\n      gt\n      iszero\n      tag_85\n      jumpi\n      tag_86\n      tag_59\n      jump\t// in\n    tag_86:\n    tag_85:\n      mul\n      or\n      swap1\n      sstore\n      pop\n        /* \"stage2.sol\":2803:2807  true */\n      0x01\n        /* \"stage2.sol\":2795:2821  return (true, \"Confirmed\") */\n      mload(0x40)\n      dup1\n      0x40\n      add\n      0x40\n      mstore\n      dup1\n      0x09\n      dup2\n      mstore\n      0x20\n      add\n      0x436f6e6669726d65640000000000000000000000000000000000000000000000\n      dup2\n      mstore\n      pop\n      swap3\n      pop\n      swap3\n      pop\n      pop\n        /* \"stage2.sol\":2391:2829  function ownerReveal(uint256 _ownerPW_Confirm) public returns (bool, string memory){... */\n      swap2\n      pop\n      swap2\n      jump\t// out\n        /* \"stage2.sol\":3321:3484  function playerViewAns() public view returns(uint256){... */\n    tag_31:\n        /* \"stage2.sol\":3366:3373  uint256 */\n      0x00\n        /* \"stage2.sol\":3407:3413  player */\n      0x04\n      0x00\n      swap1\n      sload\n      swap1\n      0x0100\n      exp\n      swap1\n      div\n      0xffffffffffffffffffffffffffffffffffffffff\n      and\n        /* \"stage2.sol\":3393:3413  msg.sender == player */\n      0xffffffffffffffffffffffffffffffffffffffff\n      and\n        /* \"stage2.sol\":3393:3403  msg.sender */\n      caller\n        /* \"stage2.sol\":3393:3413  msg.sender == player */\n      0xffffffffffffffffffffffffffffffffffffffff\n      and\n      eq\n        /* \"stage2.sol\":3385:3449  require(msg.sender == player, \"only player can view the answer\") */\n      tag_88\n      jumpi\n      mload(0x40)\n      0x08c379a000000000000000000000000000000000000000000000000000000000\n      dup2\n      mstore\n      0x04\n      add\n      tag_89\n      swap1\n      tag_90\n      jump\t// in\n    tag_89:\n      mload(0x40)\n      dup1\n      swap2\n      sub\n      swap1\n      revert\n    tag_88:\n        /* \"stage2.sol\":3467:3476  playerAns */\n      sload(0x05)\n        /* \"stage2.sol\":3460:3476  return playerAns */\n      swap1\n      pop\n        /* \"stage2.sol\":3321:3484  function playerViewAns() public view returns(uint256){... */\n      swap1\n      jump\t// out\n        /* \"stage2.sol\":3867:4382  function gameResult() public view returns(uint256, string memory){... */\n    tag_34:\n        /* \"stage2.sol\":3909:3916  uint256 */\n      0x00\n        /* \"stage2.sol\":3918:3931  string memory */\n      0x60\n        /* \"stage2.sol\":3967:3983  Status.Confirmed */\n      0x02\n        /* \"stage2.sol\":3951:3983  playerStatus == Status.Confirmed */\n      0x03\n      dup2\n      gt\n      iszero\n      tag_92\n      jumpi\n      tag_93\n      tag_59\n      jump\t// in\n    tag_93:\n    tag_92:\n        /* \"stage2.sol\":3951:3963  playerStatus */\n      0x08\n      0x00\n      swap1\n      sload\n      swap1\n      0x0100\n      exp\n      swap1\n      div\n      0xff\n      and\n        /* \"stage2.sol\":3951:3983  playerStatus == Status.Confirmed */\n      0x03\n      dup2\n      gt\n      iszero\n      tag_94\n      jumpi\n      tag_95\n      tag_59\n      jump\t// in\n    tag_95:\n    tag_94:\n      eq\n        /* \"stage2.sol\":3943:4008  require(playerStatus == Status.Confirmed, \"Player do not reveal\") */\n      tag_96\n      jumpi\n      mload(0x40)\n      0x08c379a000000000000000000000000000000000000000000000000000000000\n      dup2\n      mstore\n      0x04\n      add\n      tag_97\n      swap1\n      tag_98\n      jump\t// in\n    tag_97:\n      mload(0x40)\n      dup1\n      swap2\n      sub\n      swap1\n      revert\n    tag_96:\n        /* \"stage2.sol\":4042:4058  Status.Confirmed */\n      0x02\n        /* \"stage2.sol\":4027:4058  ownerStatus == Status.Confirmed */\n      0x03\n      dup2\n      gt\n      iszero\n      tag_99\n      jumpi\n      tag_100\n      tag_59\n      jump\t// in\n    tag_100:\n    tag_99:\n        /* \"stage2.sol\":4027:4038  ownerStatus */\n      0x08\n      0x01\n      swap1\n      sload\n      swap1\n      0x0100\n      exp\n      swap1\n      div\n      0xff\n      and\n        /* \"stage2.sol\":4027:4058  ownerStatus == Status.Confirmed */\n      0x03\n      dup2\n      gt\n      iszero\n      tag_101\n      jumpi\n      tag_102\n      tag_59\n      jump\t// in\n    tag_102:\n    tag_101:\n      eq\n        /* \"stage2.sol\":4019:4082  require(ownerStatus == Status.Confirmed, \"Owner do not reveal\") */\n      tag_103\n      jumpi\n      mload(0x40)\n      0x08c379a000000000000000000000000000000000000000000000000000000000\n      dup2\n      mstore\n      0x04\n      add\n      tag_104\n      swap1\n      tag_105\n      jump\t// in\n    tag_104:\n      mload(0x40)\n      dup1\n      swap2\n      sub\n      swap1\n      revert\n    tag_103:\n        /* \"stage2.sol\":4093:4107  uint256 result */\n      0x00\n        /* \"stage2.sol\":4110:4131  calculateGameResult() */\n      tag_106\n        /* \"stage2.sol\":4110:4129  calculateGameResult */\n      tag_107\n        /* \"stage2.sol\":4110:4131  calculateGameResult() */\n      jump\t// in\n    tag_106:\n        /* \"stage2.sol\":4093:4131  uint256 result = calculateGameResult() */\n      swap1\n      pop\n        /* \"stage2.sol\":4154:4155  3 */\n      0x03\n        /* \"stage2.sol\":4146:4152  result */\n      dup2\n        /* \"stage2.sol\":4146:4155  result<=3 */\n      gt\n        /* \"stage2.sol\":4142:4375  if (result<=3){... */\n      tag_108\n      jumpi\n        /* \"stage2.sol\":4179:4185  result */\n      dup1\n        /* \"stage2.sol\":4171:4250  return (result, \"Owner win, please confirm you are the Winner and get reward!\") */\n      mload(0x40)\n      dup1\n      0x60\n      add\n      0x40\n      mstore\n      dup1\n      0x3c\n      dup2\n      mstore\n      0x20\n      add\n      data_5df918448539201a5bf172a217e04027eea7222bcd2565f78e2d9aefbb4afa7c\n      0x3c\n      swap2\n      codecopy\n      swap3\n      pop\n      swap3\n      pop\n      pop\n      jump(tag_91)\n        /* \"stage2.sol\":4142:4375  if (result<=3){... */\n    tag_108:\n        /* \"stage2.sol\":4291:4297  result */\n      dup1\n        /* \"stage2.sol\":4283:4363  return (result, \"Player win, please confirm you are the Winner and get reward!\") */\n      mload(0x40)\n      dup1\n      0x60\n      add\n      0x40\n      mstore\n      dup1\n      0x3d\n      dup2\n      mstore\n      0x20\n      add\n      data_5bf2a40c643c32a91271cfb84ebaedf3782dbc5f3dc9227048c7865bf3996704\n      0x3d\n      swap2\n      codecopy\n      swap3\n      pop\n      swap3\n      pop\n      pop\n        /* \"stage2.sol\":3867:4382  function gameResult() public view returns(uint256, string memory){... */\n    tag_91:\n      swap1\n      swap2\n      jump\t// out\n        /* \"stage2.sol\":83:103  address public owner */\n    tag_38:\n      0x00\n      0x00\n      swap1\n      sload\n      swap1\n      0x0100\n      exp\n      swap1\n      div\n      0xffffffffffffffffffffffffffffffffffffffff\n      and\n      dup2\n      jump\t// out\n        /* \"stage2.sol\":1739:2314  function playerSubmit(uint256 _playerAns, uint256 _playerPW) public returns (uint256) {... */\n    tag_42:\n        /* \"stage2.sol\":1816:1823  uint256 */\n      0x00\n        /* \"stage2.sol\":1858:1863  owner */\n      0x00\n      0x00\n      swap1\n      sload\n      swap1\n      0x0100\n      exp\n      swap1\n      div\n      0xffffffffffffffffffffffffffffffffffffffff\n      and\n        /* \"stage2.sol\":1844:1863  msg.sender != owner */\n      0xffffffffffffffffffffffffffffffffffffffff\n      and\n        /* \"stage2.sol\":1844:1854  msg.sender */\n      caller\n        /* \"stage2.sol\":1844:1863  msg.sender != owner */\n      0xffffffffffffffffffffffffffffffffffffffff\n      and\n      sub\n        /* \"stage2.sol\":1836:1902  require(msg.sender != owner, \"owner can not Submit player Answer\") */\n      tag_111\n      jumpi\n      mload(0x40)\n      0x08c379a000000000000000000000000000000000000000000000000000000000\n      dup2\n      mstore\n      0x04\n      add\n      tag_112\n      swap1\n      tag_113\n      jump\t// in\n    tag_112:\n      mload(0x40)\n      dup1\n      swap2\n      sub\n      swap1\n      revert\n    tag_111:\n        /* \"stage2.sol\":1936:1952  Status.Submitted */\n      0x01\n        /* \"stage2.sol\":1921:1952  playerStatus!= Status.Submitted */\n      0x03\n      dup2\n      gt\n      iszero\n      tag_114\n      jumpi\n      tag_115\n      tag_59\n      jump\t// in\n    tag_115:\n    tag_114:\n        /* \"stage2.sol\":1921:1933  playerStatus */\n      0x08\n      0x00\n      swap1\n      sload\n      swap1\n      0x0100\n      exp\n      swap1\n      div\n      0xff\n      and\n        /* \"stage2.sol\":1921:1952  playerStatus!= Status.Submitted */\n      0x03\n      dup2\n      gt\n      iszero\n      tag_116\n      jumpi\n      tag_117\n      tag_59\n      jump\t// in\n    tag_117:\n    tag_116:\n      sub\n        /* \"stage2.sol\":1913:1983  require(playerStatus!= Status.Submitted, \"You have already submitted\") */\n      tag_118\n      jumpi\n      mload(0x40)\n      0x08c379a000000000000000000000000000000000000000000000000000000000\n      dup2\n      mstore\n      0x04\n      add\n      tag_119\n      swap1\n      tag_64\n      jump\t// in\n    tag_119:\n      mload(0x40)\n      dup1\n      swap2\n      sub\n      swap1\n      revert\n    tag_118:\n        /* \"stage2.sol\":2017:2030  Status.Winner */\n      0x03\n        /* \"stage2.sol\":2002:2030  playerStatus!= Status.Winner */\n      dup1\n      dup2\n      gt\n      iszero\n      tag_120\n      jumpi\n      tag_121\n      tag_59\n      jump\t// in\n    tag_121:\n    tag_120:\n        /* \"stage2.sol\":2002:2014  playerStatus */\n      0x08\n      0x00\n      swap1\n      sload\n      swap1\n      0x0100\n      exp\n      swap1\n      div\n      0xff\n      and\n        /* \"stage2.sol\":2002:2030  playerStatus!= Status.Winner */\n      0x03\n      dup2\n      gt\n      iszero\n      tag_122\n      jumpi\n      tag_123\n      tag_59\n      jump\t// in\n    tag_123:\n    tag_122:\n      sub\n        /* \"stage2.sol\":1994:2084  require(playerStatus!= Status.Winner, \"The game is finish, new submission is not allowed\") */\n      tag_124\n      jumpi\n      mload(0x40)\n      0x08c379a000000000000000000000000000000000000000000000000000000000\n      dup2\n      mstore\n      0x04\n      add\n      tag_125\n      swap1\n      tag_71\n      jump\t// in\n    tag_125:\n      mload(0x40)\n      dup1\n      swap2\n      sub\n      swap1\n      revert\n    tag_124:\n        /* \"stage2.sol\":2106:2116  msg.sender */\n      caller\n        /* \"stage2.sol\":2097:2103  player */\n      0x04\n      0x00\n        /* \"stage2.sol\":2097:2116  player = msg.sender */\n      0x0100\n      exp\n      dup2\n      sload\n      dup2\n      0xffffffffffffffffffffffffffffffffffffffff\n      mul\n      not\n      and\n      swap1\n      dup4\n      0xffffffffffffffffffffffffffffffffffffffff\n      and\n      mul\n      or\n      swap1\n      sstore\n      pop\n        /* \"stage2.sol\":2139:2149  _playerAns */\n      dup3\n        /* \"stage2.sol\":2127:2136  playerAns */\n      0x05\n        /* \"stage2.sol\":2127:2149  playerAns = _playerAns */\n      dup2\n      swap1\n      sstore\n      pop\n        /* \"stage2.sol\":2171:2180  _playerPW */\n      dup2\n        /* \"stage2.sol\":2160:2168  playerPW */\n      0x06\n        /* \"stage2.sol\":2160:2180  playerPW = _playerPW */\n      dup2\n      swap1\n      sstore\n      pop\n        /* \"stage2.sol\":2204:2237  playerHashing(playerAns,playerPW) */\n      tag_126\n        /* \"stage2.sol\":2218:2227  playerAns */\n      sload(0x05)\n        /* \"stage2.sol\":2228:2236  playerPW */\n      sload(0x06)\n        /* \"stage2.sol\":2204:2217  playerHashing */\n      tag_127\n        /* \"stage2.sol\":2204:2237  playerHashing(playerAns,playerPW) */\n      jump\t// in\n    tag_126:\n        /* \"stage2.sol\":2191:2201  playerHash */\n      0x07\n        /* \"stage2.sol\":2191:2237  playerHash = playerHashing(playerAns,playerPW) */\n      dup2\n      swap1\n      sstore\n      pop\n        /* \"stage2.sol\":2263:2279  Status.Submitted */\n      0x01\n        /* \"stage2.sol\":2248:2260  playerStatus */\n      0x08\n      0x00\n        /* \"stage2.sol\":2248:2279  playerStatus = Status.Submitted */\n      0x0100\n      exp\n      dup2\n      sload\n      dup2\n      0xff\n      mul\n      not\n      and\n      swap1\n      dup4\n      0x03\n      dup2\n      gt\n      iszero\n      tag_128\n      jumpi\n      tag_129\n      tag_59\n      jump\t// in\n    tag_129:\n    tag_128:\n      mul\n      or\n      swap1\n      sstore\n      pop\n        /* \"stage2.sol\":2297:2306  playerAns */\n      sload(0x05)\n        /* \"stage2.sol\":2290:2306  return playerAns */\n      swap1\n      pop\n        /* \"stage2.sol\":1739:2314  function playerSubmit(uint256 _playerAns, uint256 _playerPW) public returns (uint256) {... */\n      swap3\n      swap2\n      pop\n      pop\n      jump\t// out\n        /* \"stage2.sol\":4525:5253  function confirmWinner() public {... */\n    tag_45:\n        /* \"stage2.sol\":4588:4604  Status.Confirmed */\n      0x02\n        /* \"stage2.sol\":4572:4604  playerStatus == Status.Confirmed */\n      0x03\n      dup2\n      gt\n      iszero\n      tag_131\n      jumpi\n      tag_132\n      tag_59\n      jump\t// in\n    tag_132:\n    tag_131:\n        /* \"stage2.sol\":4572:4584  playerStatus */\n      0x08\n      0x00\n      swap1\n      sload\n      swap1\n      0x0100\n      exp\n      swap1\n      div\n      0xff\n      and\n        /* \"stage2.sol\":4572:4604  playerStatus == Status.Confirmed */\n      0x03\n      dup2\n      gt\n      iszero\n      tag_133\n      jumpi\n      tag_134\n      tag_59\n      jump\t// in\n    tag_134:\n    tag_133:\n      eq\n        /* \"stage2.sol\":4564:4629  require(playerStatus == Status.Confirmed, \"Player do not reveal\") */\n      tag_135\n      jumpi\n      mload(0x40)\n      0x08c379a000000000000000000000000000000000000000000000000000000000\n      dup2\n      mstore\n      0x04\n      add\n      tag_136\n      swap1\n      tag_98\n      jump\t// in\n    tag_136:\n      mload(0x40)\n      dup1\n      swap2\n      sub\n      swap1\n      revert\n    tag_135:\n        /* \"stage2.sol\":4659:4675  Status.Confirmed */\n      0x02\n        /* \"stage2.sol\":4644:4675  ownerStatus == Status.Confirmed */\n      0x03\n      dup2\n      gt\n      iszero\n      tag_137\n      jumpi\n      tag_138\n      tag_59\n      jump\t// in\n    tag_138:\n    tag_137:\n        /* \"stage2.sol\":4644:4655  ownerStatus */\n      0x08\n      0x01\n      swap1\n      sload\n      swap1\n      0x0100\n      exp\n      swap1\n      div\n      0xff\n      and\n        /* \"stage2.sol\":4644:4675  ownerStatus == Status.Confirmed */\n      0x03\n      dup2\n      gt\n      iszero\n      tag_139\n      jumpi\n      tag_140\n      tag_59\n      jump\t// in\n    tag_140:\n    tag_139:\n      eq\n        /* \"stage2.sol\":4636:4699  require(ownerStatus == Status.Confirmed, \"Owner do not reveal\") */\n      tag_141\n      jumpi\n      mload(0x40)\n      0x08c379a000000000000000000000000000000000000000000000000000000000\n      dup2\n      mstore\n      0x04\n      add\n      tag_142\n      swap1\n      tag_105\n      jump\t// in\n    tag_142:\n      mload(0x40)\n      dup1\n      swap2\n      sub\n      swap1\n      revert\n    tag_141:\n        /* \"stage2.sol\":4706:4720  uint256 result */\n      0x00\n        /* \"stage2.sol\":4723:4744  calculateGameResult() */\n      tag_143\n        /* \"stage2.sol\":4723:4742  calculateGameResult */\n      tag_107\n        /* \"stage2.sol\":4723:4744  calculateGameResult() */\n      jump\t// in\n    tag_143:\n        /* \"stage2.sol\":4706:4744  uint256 result = calculateGameResult() */\n      swap1\n      pop\n        /* \"stage2.sol\":4767:4768  3 */\n      0x03\n        /* \"stage2.sol\":4757:4763  result */\n      dup2\n        /* \"stage2.sol\":4757:4768  result <= 3 */\n      gt\n        /* \"stage2.sol\":4753:5246  if (result <= 3) {... */\n      tag_144\n      jumpi\n        /* \"stage2.sol\":4807:4812  owner */\n      0x00\n      0x00\n      swap1\n      sload\n      swap1\n      0x0100\n      exp\n      swap1\n      div\n      0xffffffffffffffffffffffffffffffffffffffff\n      and\n        /* \"stage2.sol\":4793:4812  msg.sender == owner */\n      0xffffffffffffffffffffffffffffffffffffffff\n      and\n        /* \"stage2.sol\":4793:4803  msg.sender */\n      caller\n        /* \"stage2.sol\":4793:4812  msg.sender == owner */\n      0xffffffffffffffffffffffffffffffffffffffff\n      and\n      eq\n        /* \"stage2.sol\":4785:4839  require(msg.sender == owner, \"Only owner can confirm\") */\n      tag_145\n      jumpi\n      mload(0x40)\n      0x08c379a000000000000000000000000000000000000000000000000000000000\n      dup2\n      mstore\n      0x04\n      add\n      tag_146\n      swap1\n      tag_147\n      jump\t// in\n    tag_146:\n      mload(0x40)\n      dup1\n      swap2\n      sub\n      swap1\n      revert\n    tag_145:\n        /* \"stage2.sol\":4877:4893  Status.Submitted */\n      0x01\n        /* \"stage2.sol\":4862:4893  ownerStatus == Status.Submitted */\n      0x03\n      dup2\n      gt\n      iszero\n      tag_148\n      jumpi\n      tag_149\n      tag_59\n      jump\t// in\n    tag_149:\n    tag_148:\n        /* \"stage2.sol\":4862:4873  ownerStatus */\n      0x08\n      0x01\n      swap1\n      sload\n      swap1\n      0x0100\n      exp\n      swap1\n      div\n      0xff\n      and\n        /* \"stage2.sol\":4862:4893  ownerStatus == Status.Submitted */\n      0x03\n      dup2\n      gt\n      iszero\n      tag_150\n      jumpi\n      tag_151\n      tag_59\n      jump\t// in\n    tag_151:\n    tag_150:\n      eq\n        /* \"stage2.sol\":4854:4947  require(ownerStatus == Status.Submitted, \"You are not allow to confirm winner at this stage\") */\n      tag_152\n      jumpi\n      mload(0x40)\n      0x08c379a000000000000000000000000000000000000000000000000000000000\n      dup2\n      mstore\n      0x04\n      add\n      tag_153\n      swap1\n      tag_154\n      jump\t// in\n    tag_153:\n      mload(0x40)\n      dup1\n      swap2\n      sub\n      swap1\n      revert\n    tag_152:\n        /* \"stage2.sol\":4978:4991  Status.Winner */\n      0x03\n        /* \"stage2.sol\":4964:4975  ownerStatus */\n      0x08\n      0x01\n        /* \"stage2.sol\":4964:4991  ownerStatus = Status.Winner */\n      0x0100\n      exp\n      dup2\n      sload\n      dup2\n      0xff\n      mul\n      not\n      and\n      swap1\n      dup4\n      0x03\n      dup2\n      gt\n      iszero\n      tag_155\n      jumpi\n      tag_156\n      tag_59\n      jump\t// in\n    tag_156:\n    tag_155:\n      mul\n      or\n      swap1\n      sstore\n      pop\n        /* \"stage2.sol\":4753:5246  if (result <= 3) {... */\n      jump(tag_157)\n    tag_144:\n        /* \"stage2.sol\":5046:5052  player */\n      0x04\n      0x00\n      swap1\n      sload\n      swap1\n      0x0100\n      exp\n      swap1\n      div\n      0xffffffffffffffffffffffffffffffffffffffff\n      and\n        /* \"stage2.sol\":5032:5052  msg.sender == player */\n      0xffffffffffffffffffffffffffffffffffffffff\n      and\n        /* \"stage2.sol\":5032:5042  msg.sender */\n      caller\n        /* \"stage2.sol\":5032:5052  msg.sender == player */\n      0xffffffffffffffffffffffffffffffffffffffff\n      and\n      eq\n        /* \"stage2.sol\":5024:5080  require(msg.sender == player, \"Only player can confirm\") */\n      tag_158\n      jumpi\n      mload(0x40)\n      0x08c379a000000000000000000000000000000000000000000000000000000000\n      dup2\n      mstore\n      0x04\n      add\n      tag_159\n      swap1\n      tag_160\n      jump\t// in\n    tag_159:\n      mload(0x40)\n      dup1\n      swap2\n      sub\n      swap1\n      revert\n    tag_158:\n        /* \"stage2.sol\":5119:5135  Status.Submitted */\n      0x01\n        /* \"stage2.sol\":5103:5135  playerStatus == Status.Submitted */\n      0x03\n      dup2\n      gt\n      iszero\n      tag_161\n      jumpi\n      tag_162\n      tag_59\n      jump\t// in\n    tag_162:\n    tag_161:\n        /* \"stage2.sol\":5103:5115  playerStatus */\n      0x08\n      0x00\n      swap1\n      sload\n      swap1\n      0x0100\n      exp\n      swap1\n      div\n      0xff\n      and\n        /* \"stage2.sol\":5103:5135  playerStatus == Status.Submitted */\n      0x03\n      dup2\n      gt\n      iszero\n      tag_163\n      jumpi\n      tag_164\n      tag_59\n      jump\t// in\n    tag_164:\n    tag_163:\n      eq\n        /* \"stage2.sol\":5095:5189  require(playerStatus == Status.Submitted, \"You are not allow to confirm winner at this stage\") */\n      tag_165\n      jumpi\n      mload(0x40)\n      0x08c379a000000000000000000000000000000000000000000000000000000000\n      dup2\n      mstore\n      0x04\n      add\n      tag_166\n      swap1\n      tag_154\n      jump\t// in\n    tag_166:\n      mload(0x40)\n      dup1\n      swap2\n      sub\n      swap1\n      revert\n    tag_165:\n        /* \"stage2.sol\":5221:5234  Status.Winner */\n      0x03\n        /* \"stage2.sol\":5206:5218  playerStatus */\n      0x08\n      0x00\n        /* \"stage2.sol\":5206:5234  playerStatus = Status.Winner */\n      0x0100\n      exp\n      dup2\n      sload\n      dup2\n      0xff\n      mul\n      not\n      and\n      swap1\n      dup4\n      0x03\n      dup2\n      gt\n      iszero\n      tag_167\n      jumpi\n      tag_168\n      tag_59\n      jump\t// in\n    tag_168:\n    tag_167:\n      mul\n      or\n      swap1\n      sstore\n      pop\n        /* \"stage2.sol\":4753:5246  if (result <= 3) {... */\n    tag_157:\n        /* \"stage2.sol\":4557:5253  {... */\n      pop\n        /* \"stage2.sol\":4525:5253  function confirmWinner() public {... */\n      jump\t// out\n        /* \"stage2.sol\":3492:3653  function ownerViewAns() public view returns (uint256) {... */\n    tag_47:\n        /* \"stage2.sol\":3537:3544  uint256 */\n      0x00\n        /* \"stage2.sol\":3579:3584  owner */\n      0x00\n      0x00\n      swap1\n      sload\n      swap1\n      0x0100\n      exp\n      swap1\n      div\n      0xffffffffffffffffffffffffffffffffffffffff\n      and\n        /* \"stage2.sol\":3565:3584  msg.sender == owner */\n      0xffffffffffffffffffffffffffffffffffffffff\n      and\n        /* \"stage2.sol\":3565:3575  msg.sender */\n      caller\n        /* \"stage2.sol\":3565:3584  msg.sender == owner */\n      0xffffffffffffffffffffffffffffffffffffffff\n      and\n      eq\n        /* \"stage2.sol\":3557:3619  require(msg.sender == owner, \"only owner can view the answer\") */\n      tag_170\n      jumpi\n      mload(0x40)\n      0x08c379a000000000000000000000000000000000000000000000000000000000\n      dup2\n      mstore\n      0x04\n      add\n      tag_171\n      swap1\n      tag_172\n      jump\t// in\n    tag_171:\n      mload(0x40)\n      dup1\n      swap2\n      sub\n      swap1\n      revert\n    tag_170:\n        /* \"stage2.sol\":3637:3645  ownerAns */\n      sload(0x01)\n        /* \"stage2.sol\":3630:3645  return ownerAns */\n      swap1\n      pop\n        /* \"stage2.sol\":3492:3653  function ownerViewAns() public view returns (uint256) {... */\n      swap1\n      jump\t// out\n        /* \"stage2.sol\":2837:3285  function playerReveal(uint256 _playerPW_Confirm) public returns (bool, string memory){... */\n    tag_51:\n        /* \"stage2.sol\":2902:2906  bool */\n      0x00\n        /* \"stage2.sol\":2908:2921  string memory */\n      0x60\n        /* \"stage2.sol\":2955:2961  player */\n      0x04\n      0x00\n      swap1\n      sload\n      swap1\n      0x0100\n      exp\n      swap1\n      div\n      0xffffffffffffffffffffffffffffffffffffffff\n      and\n        /* \"stage2.sol\":2941:2961  msg.sender == player */\n      0xffffffffffffffffffffffffffffffffffffffff\n      and\n        /* \"stage2.sol\":2941:2951  msg.sender */\n      caller\n        /* \"stage2.sol\":2941:2961  msg.sender == player */\n      0xffffffffffffffffffffffffffffffffffffffff\n      and\n      eq\n        /* \"stage2.sol\":2933:2997  require(msg.sender == player, \"Only player can submit Password\") */\n      tag_174\n      jumpi\n      mload(0x40)\n      0x08c379a000000000000000000000000000000000000000000000000000000000\n      dup2\n      mstore\n      0x04\n      add\n      tag_175\n      swap1\n      tag_176\n      jump\t// in\n    tag_175:\n      mload(0x40)\n      dup1\n      swap2\n      sub\n      swap1\n      revert\n    tag_174:\n        /* \"stage2.sol\":3008:3031  bytes32 checkplayerHash */\n      0x00\n        /* \"stage2.sol\":3061:3070  playerAns */\n      sload(0x05)\n        /* \"stage2.sol\":3072:3089  _playerPW_Confirm */\n      dup5\n        /* \"stage2.sol\":3044:3090  abi.encodePacked(playerAns, _playerPW_Confirm) */\n      add(0x20, mload(0x40))\n      tag_177\n      swap3\n      swap2\n      swap1\n      tag_81\n      jump\t// in\n    tag_177:\n      mload(0x40)\n      0x20\n      dup2\n      dup4\n      sub\n      sub\n      dup2\n      mstore\n      swap1\n      0x40\n      mstore\n        /* \"stage2.sol\":3034:3091  keccak256(abi.encodePacked(playerAns, _playerPW_Confirm)) */\n      dup1\n      mload\n      swap1\n      0x20\n      add\n      keccak256\n        /* \"stage2.sol\":3008:3091  bytes32 checkplayerHash = keccak256(abi.encodePacked(playerAns, _playerPW_Confirm)) */\n      swap1\n      pop\n        /* \"stage2.sol\":3129:3139  playerHash */\n      sload(0x07)\n        /* \"stage2.sol\":3110:3125  checkplayerHash */\n      dup2\n        /* \"stage2.sol\":3110:3139  checkplayerHash == playerHash */\n      eq\n        /* \"stage2.sol\":3102:3190  require(checkplayerHash == playerHash, \"The Password is not correct, Please try again.\") */\n      tag_178\n      jumpi\n      mload(0x40)\n      0x08c379a000000000000000000000000000000000000000000000000000000000\n      dup2\n      mstore\n      0x04\n      add\n      tag_179\n      swap1\n      tag_84\n      jump\t// in\n    tag_179:\n      mload(0x40)\n      dup1\n      swap2\n      sub\n      swap1\n      revert\n    tag_178:\n        /* \"stage2.sol\":3220:3236  Status.Confirmed */\n      0x02\n        /* \"stage2.sol\":3205:3217  playerStatus */\n      0x08\n      0x00\n        /* \"stage2.sol\":3205:3236  playerStatus = Status.Confirmed */\n      0x0100\n      exp\n      dup2\n      sload\n      dup2\n      0xff\n      mul\n      not\n      and\n      swap1\n      dup4\n      0x03\n      dup2\n      gt\n      iszero\n      tag_180\n      jumpi\n      tag_181\n      tag_59\n      jump\t// in\n    tag_181:\n    tag_180:\n      mul\n      or\n      swap1\n      sstore\n      pop\n        /* \"stage2.sol\":3259:3263  true */\n      0x01\n        /* \"stage2.sol\":3251:3277  return (true, \"Confirmed\") */\n      mload(0x40)\n      dup1\n      0x40\n      add\n      0x40\n      mstore\n      dup1\n      0x09\n      dup2\n      mstore\n      0x20\n      add\n      0x436f6e6669726d65640000000000000000000000000000000000000000000000\n      dup2\n      mstore\n      pop\n      swap3\n      pop\n      swap3\n      pop\n      pop\n        /* \"stage2.sol\":2837:3285  function playerReveal(uint256 _playerPW_Confirm) public returns (bool, string memory){... */\n      swap2\n      pop\n      swap2\n      jump\t// out\n        /* \"stage2.sol\":878:1041  function ownerHashing(uint256 _ownerAns, uint256 _ownerPW) private pure returns (bytes32){... */\n    tag_73:\n        /* \"stage2.sol\":959:966  bytes32 */\n      0x00\n        /* \"stage2.sol\":1012:1021  _ownerAns */\n      dup3\n        /* \"stage2.sol\":1023:1031  _ownerPW */\n      dup3\n        /* \"stage2.sol\":995:1032  abi.encodePacked(_ownerAns, _ownerPW) */\n      add(0x20, mload(0x40))\n      tag_183\n      swap3\n      swap2\n      swap1\n      tag_81\n      jump\t// in\n    tag_183:\n      mload(0x40)\n      0x20\n      dup2\n      dup4\n      sub\n      sub\n      dup2\n      mstore\n      swap1\n      0x40\n      mstore\n        /* \"stage2.sol\":985:1033  keccak256(abi.encodePacked(_ownerAns, _ownerPW)) */\n      dup1\n      mload\n      swap1\n      0x20\n      add\n      keccak256\n        /* \"stage2.sol\":978:1033  return keccak256(abi.encodePacked(_ownerAns, _ownerPW)) */\n      swap1\n      pop\n        /* \"stage2.sol\":878:1041  function ownerHashing(uint256 _ownerAns, uint256 _ownerPW) private pure returns (bytes32){... */\n      swap3\n      swap2\n      pop\n      pop\n      jump\t// out\n        /* \"stage2.sol\":3715:3859  function calculateGameResult() private view returns(uint256){... */\n    tag_107:\n        /* \"stage2.sol\":3767:3774  uint256 */\n      0x00\n        /* \"stage2.sol\":3786:3800  uint256 result */\n      0x00\n        /* \"stage2.sol\":3826:3827  1 */\n      0x01\n        /* \"stage2.sol\":3824:3825  6 */\n      0x06\n        /* \"stage2.sol\":3814:3822  ownerAns */\n      sload(0x01)\n        /* \"stage2.sol\":3804:3813  playerAns */\n      sload(0x05)\n        /* \"stage2.sol\":3804:3822  playerAns+ownerAns */\n      tag_185\n      swap2\n      swap1\n      tag_186\n      jump\t// in\n    tag_185:\n        /* \"stage2.sol\":3803:3825  (playerAns+ownerAns)%6 */\n      tag_187\n      swap2\n      swap1\n      tag_188\n      jump\t// in\n    tag_187:\n        /* \"stage2.sol\":3803:3827  (playerAns+ownerAns)%6+1 */\n      tag_189\n      swap2\n      swap1\n      tag_186\n      jump\t// in\n    tag_189:\n        /* \"stage2.sol\":3786:3827  uint256 result = (playerAns+ownerAns)%6+1 */\n      swap1\n      pop\n        /* \"stage2.sol\":3845:3851  result */\n      dup1\n        /* \"stage2.sol\":3838:3851  return result */\n      swap2\n      pop\n      pop\n        /* \"stage2.sol\":3715:3859  function calculateGameResult() private view returns(uint256){... */\n      swap1\n      jump\t// out\n        /* \"stage2.sol\":1049:1217  function playerHashing(uint256 _playerAns, uint256 _playerPW) private pure returns (bytes32){... */\n    tag_127:\n        /* \"stage2.sol\":1133:1140  bytes32 */\n      0x00\n        /* \"stage2.sol\":1186:1196  _playerAns */\n      dup3\n        /* \"stage2.sol\":1198:1207  _playerPW */\n      dup3\n        /* \"stage2.sol\":1169:1208  abi.encodePacked(_playerAns, _playerPW) */\n      add(0x20, mload(0x40))\n      tag_191\n      swap3\n      swap2\n      swap1\n      tag_81\n      jump\t// in\n    tag_191:\n      mload(0x40)\n      0x20\n      dup2\n      dup4\n      sub\n      sub\n      dup2\n      mstore\n      swap1\n      0x40\n      mstore\n        /* \"stage2.sol\":1159:1209  keccak256(abi.encodePacked(_playerAns, _playerPW)) */\n      dup1\n      mload\n      swap1\n      0x20\n      add\n      keccak256\n        /* \"stage2.sol\":1152:1209  return keccak256(abi.encodePacked(_playerAns, _playerPW)) */\n      swap1\n      pop\n        /* \"stage2.sol\":1049:1217  function playerHashing(uint256 _playerAns, uint256 _playerPW) private pure returns (bytes32){... */\n      swap3\n      swap2\n      pop\n      pop\n      jump\t// out\n        /* \"#utility.yul\":88:205   */\n    tag_193:\n        /* \"#utility.yul\":197:198   */\n      0x00\n        /* \"#utility.yul\":194:195   */\n      0x00\n        /* \"#utility.yul\":187:199   */\n      revert\n        /* \"#utility.yul\":334:411   */\n    tag_195:\n        /* \"#utility.yul\":371:378   */\n      0x00\n        /* \"#utility.yul\":400:405   */\n      dup2\n        /* \"#utility.yul\":389:405   */\n      swap1\n      pop\n        /* \"#utility.yul\":334:411   */\n      swap2\n      swap1\n      pop\n      jump\t// out\n        /* \"#utility.yul\":417:539   */\n    tag_196:\n        /* \"#utility.yul\":490:514   */\n      tag_247\n        /* \"#utility.yul\":508:513   */\n      dup2\n        /* \"#utility.yul\":490:514   */\n      tag_195\n      jump\t// in\n    tag_247:\n        /* \"#utility.yul\":483:488   */\n      dup2\n        /* \"#utility.yul\":480:515   */\n      eq\n        /* \"#utility.yul\":470:533   */\n      tag_248\n      jumpi\n        /* \"#utility.yul\":529:530   */\n      0x00\n        /* \"#utility.yul\":526:527   */\n      0x00\n        /* \"#utility.yul\":519:531   */\n      revert\n        /* \"#utility.yul\":470:533   */\n    tag_248:\n        /* \"#utility.yul\":417:539   */\n      pop\n      jump\t// out\n        /* \"#utility.yul\":545:684   */\n    tag_197:\n        /* \"#utility.yul\":591:596   */\n      0x00\n        /* \"#utility.yul\":629:635   */\n      dup2\n        /* \"#utility.yul\":616:636   */\n      calldataload\n        /* \"#utility.yul\":607:636   */\n      swap1\n      pop\n        /* \"#utility.yul\":645:678   */\n      tag_250\n        /* \"#utility.yul\":672:677   */\n      dup2\n        /* \"#utility.yul\":645:678   */\n      tag_196\n      jump\t// in\n    tag_250:\n        /* \"#utility.yul\":545:684   */\n      swap3\n      swap2\n      pop\n      pop\n      jump\t// out\n        /* \"#utility.yul\":690:1164   */\n    tag_16:\n        /* \"#utility.yul\":758:764   */\n      0x00\n        /* \"#utility.yul\":766:772   */\n      0x00\n        /* \"#utility.yul\":815:817   */\n      0x40\n        /* \"#utility.yul\":803:812   */\n      dup4\n        /* \"#utility.yul\":794:801   */\n      dup6\n        /* \"#utility.yul\":790:813   */\n      sub\n        /* \"#utility.yul\":786:818   */\n      slt\n        /* \"#utility.yul\":783:902   */\n      iszero\n      tag_252\n      jumpi\n        /* \"#utility.yul\":821:900   */\n      tag_253\n      tag_193\n      jump\t// in\n    tag_253:\n        /* \"#utility.yul\":783:902   */\n    tag_252:\n        /* \"#utility.yul\":941:942   */\n      0x00\n        /* \"#utility.yul\":966:1019   */\n      tag_254\n        /* \"#utility.yul\":1011:1018   */\n      dup6\n        /* \"#utility.yul\":1002:1008   */\n      dup3\n        /* \"#utility.yul\":991:1000   */\n      dup7\n        /* \"#utility.yul\":987:1009   */\n      add\n        /* \"#utility.yul\":966:1019   */\n      tag_197\n      jump\t// in\n    tag_254:\n        /* \"#utility.yul\":956:1019   */\n      swap3\n      pop\n        /* \"#utility.yul\":912:1029   */\n      pop\n        /* \"#utility.yul\":1068:1070   */\n      0x20\n        /* \"#utility.yul\":1094:1147   */\n      tag_255\n        /* \"#utility.yul\":1139:1146   */\n      dup6\n        /* \"#utility.yul\":1130:1136   */\n      dup3\n        /* \"#utility.yul\":1119:1128   */\n      dup7\n        /* \"#utility.yul\":1115:1137   */\n      add\n        /* \"#utility.yul\":1094:1147   */\n      tag_197\n      jump\t// in\n    tag_255:\n        /* \"#utility.yul\":1084:1147   */\n      swap2\n      pop\n        /* \"#utility.yul\":1039:1157   */\n      pop\n        /* \"#utility.yul\":690:1164   */\n      swap3\n      pop\n      swap3\n      swap1\n      pop\n      jump\t// out\n        /* \"#utility.yul\":1170:1288   */\n    tag_198:\n        /* \"#utility.yul\":1257:1281   */\n      tag_257\n        /* \"#utility.yul\":1275:1280   */\n      dup2\n        /* \"#utility.yul\":1257:1281   */\n      tag_195\n      jump\t// in\n    tag_257:\n        /* \"#utility.yul\":1252:1255   */\n      dup3\n        /* \"#utility.yul\":1245:1282   */\n      mstore\n        /* \"#utility.yul\":1170:1288   */\n      pop\n      pop\n      jump\t// out\n        /* \"#utility.yul\":1294:1516   */\n    tag_19:\n        /* \"#utility.yul\":1387:1391   */\n      0x00\n        /* \"#utility.yul\":1425:1427   */\n      0x20\n        /* \"#utility.yul\":1414:1423   */\n      dup3\n        /* \"#utility.yul\":1410:1428   */\n      add\n        /* \"#utility.yul\":1402:1428   */\n      swap1\n      pop\n        /* \"#utility.yul\":1438:1509   */\n      tag_259\n        /* \"#utility.yul\":1506:1507   */\n      0x00\n        /* \"#utility.yul\":1495:1504   */\n      dup4\n        /* \"#utility.yul\":1491:1508   */\n      add\n        /* \"#utility.yul\":1482:1488   */\n      dup5\n        /* \"#utility.yul\":1438:1509   */\n      tag_198\n      jump\t// in\n    tag_259:\n        /* \"#utility.yul\":1294:1516   */\n      swap3\n      swap2\n      pop\n      pop\n      jump\t// out\n        /* \"#utility.yul\":1522:1648   */\n    tag_199:\n        /* \"#utility.yul\":1559:1566   */\n      0x00\n        /* \"#utility.yul\":1599:1641   */\n      0xffffffffffffffffffffffffffffffffffffffff\n        /* \"#utility.yul\":1592:1597   */\n      dup3\n        /* \"#utility.yul\":1588:1642   */\n      and\n        /* \"#utility.yul\":1577:1642   */\n      swap1\n      pop\n        /* \"#utility.yul\":1522:1648   */\n      swap2\n      swap1\n      pop\n      jump\t// out\n        /* \"#utility.yul\":1654:1750   */\n    tag_200:\n        /* \"#utility.yul\":1691:1698   */\n      0x00\n        /* \"#utility.yul\":1720:1744   */\n      tag_262\n        /* \"#utility.yul\":1738:1743   */\n      dup3\n        /* \"#utility.yul\":1720:1744   */\n      tag_199\n      jump\t// in\n    tag_262:\n        /* \"#utility.yul\":1709:1744   */\n      swap1\n      pop\n        /* \"#utility.yul\":1654:1750   */\n      swap2\n      swap1\n      pop\n      jump\t// out\n        /* \"#utility.yul\":1756:1874   */\n    tag_201:\n        /* \"#utility.yul\":1843:1867   */\n      tag_264\n        /* \"#utility.yul\":1861:1866   */\n      dup2\n        /* \"#utility.yul\":1843:1867   */\n      tag_200\n      jump\t// in\n    tag_264:\n        /* \"#utility.yul\":1838:1841   */\n      dup3\n        /* \"#utility.yul\":1831:1868   */\n      mstore\n        /* \"#utility.yul\":1756:1874   */\n      pop\n      pop\n      jump\t// out\n        /* \"#utility.yul\":1880:2102   */\n    tag_23:\n        /* \"#utility.yul\":1973:1977   */\n      0x00\n        /* \"#utility.yul\":2011:2013   */\n      0x20\n        /* \"#utility.yul\":2000:2009   */\n      dup3\n        /* \"#utility.yul\":1996:2014   */\n      add\n        /* \"#utility.yul\":1988:2014   */\n      swap1\n      pop\n        /* \"#utility.yul\":2024:2095   */\n      tag_266\n        /* \"#utility.yul\":2092:2093   */\n      0x00\n        /* \"#utility.yul\":2081:2090   */\n      dup4\n        /* \"#utility.yul\":2077:2094   */\n      add\n        /* \"#utility.yul\":2068:2074   */\n      dup5\n        /* \"#utility.yul\":2024:2095   */\n      tag_201\n      jump\t// in\n    tag_266:\n        /* \"#utility.yul\":1880:2102   */\n      swap3\n      swap2\n      pop\n      pop\n      jump\t// out\n        /* \"#utility.yul\":2108:2437   */\n    tag_26:\n        /* \"#utility.yul\":2167:2173   */\n      0x00\n        /* \"#utility.yul\":2216:2218   */\n      0x20\n        /* \"#utility.yul\":2204:2213   */\n      dup3\n        /* \"#utility.yul\":2195:2202   */\n      dup5\n        /* \"#utility.yul\":2191:2214   */\n      sub\n        /* \"#utility.yul\":2187:2219   */\n      slt\n        /* \"#utility.yul\":2184:2303   */\n      iszero\n      tag_268\n      jumpi\n        /* \"#utility.yul\":2222:2301   */\n      tag_269\n      tag_193\n      jump\t// in\n    tag_269:\n        /* \"#utility.yul\":2184:2303   */\n    tag_268:\n        /* \"#utility.yul\":2342:2343   */\n      0x00\n        /* \"#utility.yul\":2367:2420   */\n      tag_270\n        /* \"#utility.yul\":2412:2419   */\n      dup5\n        /* \"#utility.yul\":2403:2409   */\n      dup3\n        /* \"#utility.yul\":2392:2401   */\n      dup6\n        /* \"#utility.yul\":2388:2410   */\n      add\n        /* \"#utility.yul\":2367:2420   */\n      tag_197\n      jump\t// in\n    tag_270:\n        /* \"#utility.yul\":2357:2420   */\n      swap2\n      pop\n        /* \"#utility.yul\":2313:2430   */\n      pop\n        /* \"#utility.yul\":2108:2437   */\n      swap3\n      swap2\n      pop\n      pop\n      jump\t// out\n        /* \"#utility.yul\":2443:2533   */\n    tag_202:\n        /* \"#utility.yul\":2477:2484   */\n      0x00\n        /* \"#utility.yul\":2520:2525   */\n      dup2\n        /* \"#utility.yul\":2513:2526   */\n      iszero\n        /* \"#utility.yul\":2506:2527   */\n      iszero\n        /* \"#utility.yul\":2495:2527   */\n      swap1\n      pop\n        /* \"#utility.yul\":2443:2533   */\n      swap2\n      swap1\n      pop\n      jump\t// out\n        /* \"#utility.yul\":2539:2648   */\n    tag_203:\n        /* \"#utility.yul\":2620:2641   */\n      tag_273\n        /* \"#utility.yul\":2635:2640   */\n      dup2\n        /* \"#utility.yul\":2620:2641   */\n      tag_202\n      jump\t// in\n    tag_273:\n        /* \"#utility.yul\":2615:2618   */\n      dup3\n        /* \"#utility.yul\":2608:2642   */\n      mstore\n        /* \"#utility.yul\":2539:2648   */\n      pop\n      pop\n      jump\t// out\n        /* \"#utility.yul\":2654:2753   */\n    tag_204:\n        /* \"#utility.yul\":2706:2712   */\n      0x00\n        /* \"#utility.yul\":2740:2745   */\n      dup2\n        /* \"#utility.yul\":2734:2746   */\n      mload\n        /* \"#utility.yul\":2724:2746   */\n      swap1\n      pop\n        /* \"#utility.yul\":2654:2753   */\n      swap2\n      swap1\n      pop\n      jump\t// out\n        /* \"#utility.yul\":2759:2928   */\n    tag_205:\n        /* \"#utility.yul\":2843:2854   */\n      0x00\n        /* \"#utility.yul\":2877:2883   */\n      dup3\n        /* \"#utility.yul\":2872:2875   */\n      dup3\n        /* \"#utility.yul\":2865:2884   */\n      mstore\n        /* \"#utility.yul\":2917:2921   */\n      0x20\n        /* \"#utility.yul\":2912:2915   */\n      dup3\n        /* \"#utility.yul\":2908:2922   */\n      add\n        /* \"#utility.yul\":2893:2922   */\n      swap1\n      pop\n        /* \"#utility.yul\":2759:2928   */\n      swap3\n      swap2\n      pop\n      pop\n      jump\t// out\n        /* \"#utility.yul\":2934:3073   */\n    tag_206:\n        /* \"#utility.yul\":3023:3029   */\n      dup3\n        /* \"#utility.yul\":3018:3021   */\n      dup2\n        /* \"#utility.yul\":3013:3016   */\n      dup4\n        /* \"#utility.yul\":3007:3030   */\n      mcopy\n        /* \"#utility.yul\":3064:3065   */\n      0x00\n        /* \"#utility.yul\":3055:3061   */\n      dup4\n        /* \"#utility.yul\":3050:3053   */\n      dup4\n        /* \"#utility.yul\":3046:3062   */\n      add\n        /* \"#utility.yul\":3039:3066   */\n      mstore\n        /* \"#utility.yul\":2934:3073   */\n      pop\n      pop\n      pop\n      jump\t// out\n        /* \"#utility.yul\":3079:3181   */\n    tag_207:\n        /* \"#utility.yul\":3120:3126   */\n      0x00\n        /* \"#utility.yul\":3171:3173   */\n      0x1f\n        /* \"#utility.yul\":3167:3174   */\n      not\n        /* \"#utility.yul\":3162:3164   */\n      0x1f\n        /* \"#utility.yul\":3155:3160   */\n      dup4\n        /* \"#utility.yul\":3151:3165   */\n      add\n        /* \"#utility.yul\":3147:3175   */\n      and\n        /* \"#utility.yul\":3137:3175   */\n      swap1\n      pop\n        /* \"#utility.yul\":3079:3181   */\n      swap2\n      swap1\n      pop\n      jump\t// out\n        /* \"#utility.yul\":3187:3564   */\n    tag_208:\n        /* \"#utility.yul\":3275:3278   */\n      0x00\n        /* \"#utility.yul\":3303:3342   */\n      tag_279\n        /* \"#utility.yul\":3336:3341   */\n      dup3\n        /* \"#utility.yul\":3303:3342   */\n      tag_204\n      jump\t// in\n    tag_279:\n        /* \"#utility.yul\":3358:3429   */\n      tag_280\n        /* \"#utility.yul\":3422:3428   */\n      dup2\n        /* \"#utility.yul\":3417:3420   */\n      dup6\n        /* \"#utility.yul\":3358:3429   */\n      tag_205\n      jump\t// in\n    tag_280:\n        /* \"#utility.yul\":3351:3429   */\n      swap4\n      pop\n        /* \"#utility.yul\":3438:3503   */\n      tag_281\n        /* \"#utility.yul\":3496:3502   */\n      dup2\n        /* \"#utility.yul\":3491:3494   */\n      dup6\n        /* \"#utility.yul\":3484:3488   */\n      0x20\n        /* \"#utility.yul\":3477:3482   */\n      dup7\n        /* \"#utility.yul\":3473:3489   */\n      add\n        /* \"#utility.yul\":3438:3503   */\n      tag_206\n      jump\t// in\n    tag_281:\n        /* \"#utility.yul\":3528:3557   */\n      tag_282\n        /* \"#utility.yul\":3550:3556   */\n      dup2\n        /* \"#utility.yul\":3528:3557   */\n      tag_207\n      jump\t// in\n    tag_282:\n        /* \"#utility.yul\":3523:3526   */\n      dup5\n        /* \"#utility.yul\":3519:3558   */\n      add\n        /* \"#utility.yul\":3512:3558   */\n      swap2\n      pop\n        /* \"#utility.yul\":3279:3564   */\n      pop\n        /* \"#utility.yul\":3187:3564   */\n      swap3\n      swap2\n      pop\n      pop\n      jump\t// out\n        /* \"#utility.yul\":3570:3981   */\n    tag_29:\n        /* \"#utility.yul\":3705:3709   */\n      0x00\n        /* \"#utility.yul\":3743:3745   */\n      0x40\n        /* \"#utility.yul\":3732:3741   */\n      dup3\n        /* \"#utility.yul\":3728:3746   */\n      add\n        /* \"#utility.yul\":3720:3746   */\n      swap1\n      pop\n        /* \"#utility.yul\":3756:3821   */\n      tag_284\n        /* \"#utility.yul\":3818:3819   */\n      0x00\n        /* \"#utility.yul\":3807:3816   */\n      dup4\n        /* \"#utility.yul\":3803:3820   */\n      add\n        /* \"#utility.yul\":3794:3800   */\n      dup6\n        /* \"#utility.yul\":3756:3821   */\n      tag_203\n      jump\t// in\n    tag_284:\n        /* \"#utility.yul\":3868:3877   */\n      dup2\n        /* \"#utility.yul\":3862:3866   */\n      dup2\n        /* \"#utility.yul\":3858:3878   */\n      sub\n        /* \"#utility.yul\":3853:3855   */\n      0x20\n        /* \"#utility.yul\":3842:3851   */\n      dup4\n        /* \"#utility.yul\":3838:3856   */\n      add\n        /* \"#utility.yul\":3831:3879   */\n      mstore\n        /* \"#utility.yul\":3896:3974   */\n      tag_285\n        /* \"#utility.yul\":3969:3973   */\n      dup2\n        /* \"#utility.yul\":3960:3966   */\n      dup5\n        /* \"#utility.yul\":3896:3974   */\n      tag_208\n      jump\t// in\n    tag_285:\n        /* \"#utility.yul\":3888:3974   */\n      swap1\n      pop\n        /* \"#utility.yul\":3570:3981   */\n      swap4\n      swap3\n      pop\n      pop\n      pop\n      jump\t// out\n        /* \"#utility.yul\":3987:4410   */\n    tag_36:\n        /* \"#utility.yul\":4128:4132   */\n      0x00\n        /* \"#utility.yul\":4166:4168   */\n      0x40\n        /* \"#utility.yul\":4155:4164   */\n      dup3\n        /* \"#utility.yul\":4151:4169   */\n      add\n        /* \"#utility.yul\":4143:4169   */\n      swap1\n      pop\n        /* \"#utility.yul\":4179:4250   */\n      tag_287\n        /* \"#utility.yul\":4247:4248   */\n      0x00\n        /* \"#utility.yul\":4236:4245   */\n      dup4\n        /* \"#utility.yul\":4232:4249   */\n      add\n        /* \"#utility.yul\":4223:4229   */\n      dup6\n        /* \"#utility.yul\":4179:4250   */\n      tag_198\n      jump\t// in\n    tag_287:\n        /* \"#utility.yul\":4297:4306   */\n      dup2\n        /* \"#utility.yul\":4291:4295   */\n      dup2\n        /* \"#utility.yul\":4287:4307   */\n      sub\n        /* \"#utility.yul\":4282:4284   */\n      0x20\n        /* \"#utility.yul\":4271:4280   */\n      dup4\n        /* \"#utility.yul\":4267:4285   */\n      add\n        /* \"#utility.yul\":4260:4308   */\n      mstore\n        /* \"#utility.yul\":4325:4403   */\n      tag_288\n        /* \"#utility.yul\":4398:4402   */\n      dup2\n        /* \"#utility.yul\":4389:4395   */\n      dup5\n        /* \"#utility.yul\":4325:4403   */\n      tag_208\n      jump\t// in\n    tag_288:\n        /* \"#utility.yul\":4317:4403   */\n      swap1\n      pop\n        /* \"#utility.yul\":3987:4410   */\n      swap4\n      swap3\n      pop\n      pop\n      pop\n      jump\t// out\n        /* \"#utility.yul\":4416:4576   */\n    tag_209:\n        /* \"#utility.yul\":4556:4568   */\n      0x6f6e6c79206f776e657200000000000000000000000000000000000000000000\n        /* \"#utility.yul\":4552:4553   */\n      0x00\n        /* \"#utility.yul\":4544:4550   */\n      dup3\n        /* \"#utility.yul\":4540:4554   */\n      add\n        /* \"#utility.yul\":4533:4569   */\n      mstore\n        /* \"#utility.yul\":4416:4576   */\n      pop\n      jump\t// out\n        /* \"#utility.yul\":4582:4948   */\n    tag_210:\n        /* \"#utility.yul\":4724:4727   */\n      0x00\n        /* \"#utility.yul\":4745:4812   */\n      tag_291\n        /* \"#utility.yul\":4809:4811   */\n      0x0a\n        /* \"#utility.yul\":4804:4807   */\n      dup4\n        /* \"#utility.yul\":4745:4812   */\n      tag_205\n      jump\t// in\n    tag_291:\n        /* \"#utility.yul\":4738:4812   */\n      swap2\n      pop\n        /* \"#utility.yul\":4821:4914   */\n      tag_292\n        /* \"#utility.yul\":4910:4913   */\n      dup3\n        /* \"#utility.yul\":4821:4914   */\n      tag_209\n      jump\t// in\n    tag_292:\n        /* \"#utility.yul\":4939:4941   */\n      0x20\n        /* \"#utility.yul\":4934:4937   */\n      dup3\n        /* \"#utility.yul\":4930:4942   */\n      add\n        /* \"#utility.yul\":4923:4942   */\n      swap1\n      pop\n        /* \"#utility.yul\":4582:4948   */\n      swap2\n      swap1\n      pop\n      jump\t// out\n        /* \"#utility.yul\":4954:5373   */\n    tag_56:\n        /* \"#utility.yul\":5120:5124   */\n      0x00\n        /* \"#utility.yul\":5158:5160   */\n      0x20\n        /* \"#utility.yul\":5147:5156   */\n      dup3\n        /* \"#utility.yul\":5143:5161   */\n      add\n        /* \"#utility.yul\":5135:5161   */\n      swap1\n      pop\n        /* \"#utility.yul\":5207:5216   */\n      dup2\n        /* \"#utility.yul\":5201:5205   */\n      dup2\n        /* \"#utility.yul\":5197:5217   */\n      sub\n        /* \"#utility.yul\":5193:5194   */\n      0x00\n        /* \"#utility.yul\":5182:5191   */\n      dup4\n        /* \"#utility.yul\":5178:5195   */\n      add\n        /* \"#utility.yul\":5171:5218   */\n      mstore\n        /* \"#utility.yul\":5235:5366   */\n      tag_294\n        /* \"#utility.yul\":5361:5365   */\n      dup2\n        /* \"#utility.yul\":5235:5366   */\n      tag_210\n      jump\t// in\n    tag_294:\n        /* \"#utility.yul\":5227:5366   */\n      swap1\n      pop\n        /* \"#utility.yul\":4954:5373   */\n      swap2\n      swap1\n      pop\n      jump\t// out\n        /* \"#utility.yul\":5379:5559   */\n    tag_59:\n        /* \"#utility.yul\":5427:5504   */\n      0x4e487b7100000000000000000000000000000000000000000000000000000000\n        /* \"#utility.yul\":5424:5425   */\n      0x00\n        /* \"#utility.yul\":5417:5505   */\n      mstore\n        /* \"#utility.yul\":5524:5528   */\n      0x21\n        /* \"#utility.yul\":5521:5522   */\n      0x04\n        /* \"#utility.yul\":5514:5529   */\n      mstore\n        /* \"#utility.yul\":5548:5552   */\n      0x24\n        /* \"#utility.yul\":5545:5546   */\n      0x00\n        /* \"#utility.yul\":5538:5553   */\n      revert\n        /* \"#utility.yul\":5565:5741   */\n    tag_211:\n        /* \"#utility.yul\":5705:5733   */\n      0x596f75206861766520616c7265616479207375626d6974746564000000000000\n        /* \"#utility.yul\":5701:5702   */\n      0x00\n        /* \"#utility.yul\":5693:5699   */\n      dup3\n        /* \"#utility.yul\":5689:5703   */\n      add\n        /* \"#utility.yul\":5682:5734   */\n      mstore\n        /* \"#utility.yul\":5565:5741   */\n      pop\n      jump\t// out\n        /* \"#utility.yul\":5747:6113   */\n    tag_212:\n        /* \"#utility.yul\":5889:5892   */\n      0x00\n        /* \"#utility.yul\":5910:5977   */\n      tag_298\n        /* \"#utility.yul\":5974:5976   */\n      0x1a\n        /* \"#utility.yul\":5969:5972   */\n      dup4\n        /* \"#utility.yul\":5910:5977   */\n      tag_205\n      jump\t// in\n    tag_298:\n        /* \"#utility.yul\":5903:5977   */\n      swap2\n      pop\n        /* \"#utility.yul\":5986:6079   */\n      tag_299\n        /* \"#utility.yul\":6075:6078   */\n      dup3\n        /* \"#utility.yul\":5986:6079   */\n      tag_211\n      jump\t// in\n    tag_299:\n        /* \"#utility.yul\":6104:6106   */\n      0x20\n        /* \"#utility.yul\":6099:6102   */\n      dup3\n        /* \"#utility.yul\":6095:6107   */\n      add\n        /* \"#utility.yul\":6088:6107   */\n      swap1\n      pop\n        /* \"#utility.yul\":5747:6113   */\n      swap2\n      swap1\n      pop\n      jump\t// out\n        /* \"#utility.yul\":6119:6538   */\n    tag_64:\n        /* \"#utility.yul\":6285:6289   */\n      0x00\n        /* \"#utility.yul\":6323:6325   */\n      0x20\n        /* \"#utility.yul\":6312:6321   */\n      dup3\n        /* \"#utility.yul\":6308:6326   */\n      add\n        /* \"#utility.yul\":6300:6326   */\n      swap1\n      pop\n        /* \"#utility.yul\":6372:6381   */\n      dup2\n        /* \"#utility.yul\":6366:6370   */\n      dup2\n        /* \"#utility.yul\":6362:6382   */\n      sub\n        /* \"#utility.yul\":6358:6359   */\n      0x00\n        /* \"#utility.yul\":6347:6356   */\n      dup4\n        /* \"#utility.yul\":6343:6360   */\n      add\n        /* \"#utility.yul\":6336:6383   */\n      mstore\n        /* \"#utility.yul\":6400:6531   */\n      tag_301\n        /* \"#utility.yul\":6526:6530   */\n      dup2\n        /* \"#utility.yul\":6400:6531   */\n      tag_212\n      jump\t// in\n    tag_301:\n        /* \"#utility.yul\":6392:6531   */\n      swap1\n      pop\n        /* \"#utility.yul\":6119:6538   */\n      swap2\n      swap1\n      pop\n      jump\t// out\n        /* \"#utility.yul\":6544:6780   */\n    tag_213:\n        /* \"#utility.yul\":6684:6718   */\n      0x5468652067616d652069732066696e6973682c206e6577207375626d69737369\n        /* \"#utility.yul\":6680:6681   */\n      0x00\n        /* \"#utility.yul\":6672:6678   */\n      dup3\n        /* \"#utility.yul\":6668:6682   */\n      add\n        /* \"#utility.yul\":6661:6719   */\n      mstore\n        /* \"#utility.yul\":6753:6772   */\n      0x6f6e206973206e6f7420616c6c6f776564000000000000000000000000000000\n        /* \"#utility.yul\":6748:6750   */\n      0x20\n        /* \"#utility.yul\":6740:6746   */\n      dup3\n        /* \"#utility.yul\":6736:6751   */\n      add\n        /* \"#utility.yul\":6729:6773   */\n      mstore\n        /* \"#utility.yul\":6544:6780   */\n      pop\n      jump\t// out\n        /* \"#utility.yul\":6786:7152   */\n    tag_214:\n        /* \"#utility.yul\":6928:6931   */\n      0x00\n        /* \"#utility.yul\":6949:7016   */\n      tag_304\n        /* \"#utility.yul\":7013:7015   */\n      0x31\n        /* \"#utility.yul\":7008:7011   */\n      dup4\n        /* \"#utility.yul\":6949:7016   */\n      tag_205\n      jump\t// in\n    tag_304:\n        /* \"#utility.yul\":6942:7016   */\n      swap2\n      pop\n        /* \"#utility.yul\":7025:7118   */\n      tag_305\n        /* \"#utility.yul\":7114:7117   */\n      dup3\n        /* \"#utility.yul\":7025:7118   */\n      tag_213\n      jump\t// in\n    tag_305:\n        /* \"#utility.yul\":7143:7145   */\n      0x40\n        /* \"#utility.yul\":7138:7141   */\n      dup3\n        /* \"#utility.yul\":7134:7146   */\n      add\n        /* \"#utility.yul\":7127:7146   */\n      swap1\n      pop\n        /* \"#utility.yul\":6786:7152   */\n      swap2\n      swap1\n      pop\n      jump\t// out\n        /* \"#utility.yul\":7158:7577   */\n    tag_71:\n        /* \"#utility.yul\":7324:7328   */\n      0x00\n        /* \"#utility.yul\":7362:7364   */\n      0x20\n        /* \"#utility.yul\":7351:7360   */\n      dup3\n        /* \"#utility.yul\":7347:7365   */\n      add\n        /* \"#utility.yul\":7339:7365   */\n      swap1\n      pop\n        /* \"#utility.yul\":7411:7420   */\n      dup2\n        /* \"#utility.yul\":7405:7409   */\n      dup2\n        /* \"#utility.yul\":7401:7421   */\n      sub\n        /* \"#utility.yul\":7397:7398   */\n      0x00\n        /* \"#utility.yul\":7386:7395   */\n      dup4\n        /* \"#utility.yul\":7382:7399   */\n      add\n        /* \"#utility.yul\":7375:7422   */\n      mstore\n        /* \"#utility.yul\":7439:7570   */\n      tag_307\n        /* \"#utility.yul\":7565:7569   */\n      dup2\n        /* \"#utility.yul\":7439:7570   */\n      tag_214\n      jump\t// in\n    tag_307:\n        /* \"#utility.yul\":7431:7570   */\n      swap1\n      pop\n        /* \"#utility.yul\":7158:7577   */\n      swap2\n      swap1\n      pop\n      jump\t// out\n        /* \"#utility.yul\":7583:7763   */\n    tag_215:\n        /* \"#utility.yul\":7723:7755   */\n      0x4f6e6c79206f776e65722063616e207375626d69742050617373776f72640000\n        /* \"#utility.yul\":7719:7720   */\n      0x00\n        /* \"#utility.yul\":7711:7717   */\n      dup3\n        /* \"#utility.yul\":7707:7721   */\n      add\n        /* \"#utility.yul\":7700:7756   */\n      mstore\n        /* \"#utility.yul\":7583:7763   */\n      pop\n      jump\t// out\n        /* \"#utility.yul\":7769:8135   */\n    tag_216:\n        /* \"#utility.yul\":7911:7914   */\n      0x00\n        /* \"#utility.yul\":7932:7999   */\n      tag_310\n        /* \"#utility.yul\":7996:7998   */\n      0x1e\n        /* \"#utility.yul\":7991:7994   */\n      dup4\n        /* \"#utility.yul\":7932:7999   */\n      tag_205\n      jump\t// in\n    tag_310:\n        /* \"#utility.yul\":7925:7999   */\n      swap2\n      pop\n        /* \"#utility.yul\":8008:8101   */\n      tag_311\n        /* \"#utility.yul\":8097:8100   */\n      dup3\n        /* \"#utility.yul\":8008:8101   */\n      tag_215\n      jump\t// in\n    tag_311:\n        /* \"#utility.yul\":8126:8128   */\n      0x20\n        /* \"#utility.yul\":8121:8124   */\n      dup3\n        /* \"#utility.yul\":8117:8129   */\n      add\n        /* \"#utility.yul\":8110:8129   */\n      swap1\n      pop\n        /* \"#utility.yul\":7769:8135   */\n      swap2\n      swap1\n      pop\n      jump\t// out\n        /* \"#utility.yul\":8141:8560   */\n    tag_79:\n        /* \"#utility.yul\":8307:8311   */\n      0x00\n        /* \"#utility.yul\":8345:8347   */\n      0x20\n        /* \"#utility.yul\":8334:8343   */\n      dup3\n        /* \"#utility.yul\":8330:8348   */\n      add\n        /* \"#utility.yul\":8322:8348   */\n      swap1\n      pop\n        /* \"#utility.yul\":8394:8403   */\n      dup2\n        /* \"#utility.yul\":8388:8392   */\n      dup2\n        /* \"#utility.yul\":8384:8404   */\n      sub\n        /* \"#utility.yul\":8380:8381   */\n      0x00\n        /* \"#utility.yul\":8369:8378   */\n      dup4\n        /* \"#utility.yul\":8365:8382   */\n      add\n        /* \"#utility.yul\":8358:8405   */\n      mstore\n        /* \"#utility.yul\":8422:8553   */\n      tag_313\n        /* \"#utility.yul\":8548:8552   */\n      dup2\n        /* \"#utility.yul\":8422:8553   */\n      tag_216\n      jump\t// in\n    tag_313:\n        /* \"#utility.yul\":8414:8553   */\n      swap1\n      pop\n        /* \"#utility.yul\":8141:8560   */\n      swap2\n      swap1\n      pop\n      jump\t// out\n        /* \"#utility.yul\":8566:8645   */\n    tag_217:\n        /* \"#utility.yul\":8605:8612   */\n      0x00\n        /* \"#utility.yul\":8634:8639   */\n      dup2\n        /* \"#utility.yul\":8623:8639   */\n      swap1\n      pop\n        /* \"#utility.yul\":8566:8645   */\n      swap2\n      swap1\n      pop\n      jump\t// out\n        /* \"#utility.yul\":8651:8808   */\n    tag_218:\n        /* \"#utility.yul\":8756:8801   */\n      tag_316\n        /* \"#utility.yul\":8776:8800   */\n      tag_317\n        /* \"#utility.yul\":8794:8799   */\n      dup3\n        /* \"#utility.yul\":8776:8800   */\n      tag_195\n      jump\t// in\n    tag_317:\n        /* \"#utility.yul\":8756:8801   */\n      tag_217\n      jump\t// in\n    tag_316:\n        /* \"#utility.yul\":8751:8754   */\n      dup3\n        /* \"#utility.yul\":8744:8802   */\n      mstore\n        /* \"#utility.yul\":8651:8808   */\n      pop\n      pop\n      jump\t// out\n        /* \"#utility.yul\":8814:9211   */\n    tag_81:\n        /* \"#utility.yul\":8954:8957   */\n      0x00\n        /* \"#utility.yul\":8969:9044   */\n      tag_319\n        /* \"#utility.yul\":9040:9043   */\n      dup3\n        /* \"#utility.yul\":9031:9037   */\n      dup6\n        /* \"#utility.yul\":8969:9044   */\n      tag_218\n      jump\t// in\n    tag_319:\n        /* \"#utility.yul\":9069:9071   */\n      0x20\n        /* \"#utility.yul\":9064:9067   */\n      dup3\n        /* \"#utility.yul\":9060:9072   */\n      add\n        /* \"#utility.yul\":9053:9072   */\n      swap2\n      pop\n        /* \"#utility.yul\":9082:9157   */\n      tag_320\n        /* \"#utility.yul\":9153:9156   */\n      dup3\n        /* \"#utility.yul\":9144:9150   */\n      dup5\n        /* \"#utility.yul\":9082:9157   */\n      tag_218\n      jump\t// in\n    tag_320:\n        /* \"#utility.yul\":9182:9184   */\n      0x20\n        /* \"#utility.yul\":9177:9180   */\n      dup3\n        /* \"#utility.yul\":9173:9185   */\n      add\n        /* \"#utility.yul\":9166:9185   */\n      swap2\n      pop\n        /* \"#utility.yul\":9202:9205   */\n      dup2\n        /* \"#utility.yul\":9195:9205   */\n      swap1\n      pop\n        /* \"#utility.yul\":8814:9211   */\n      swap4\n      swap3\n      pop\n      pop\n      pop\n      jump\t// out\n        /* \"#utility.yul\":9217:9450   */\n    tag_219:\n        /* \"#utility.yul\":9357:9391   */\n      0x5468652050617373776f7264206973206e6f7420636f72726563742c20506c65\n        /* \"#utility.yul\":9353:9354   */\n      0x00\n        /* \"#utility.yul\":9345:9351   */\n      dup3\n        /* \"#utility.yul\":9341:9355   */\n      add\n        /* \"#utility.yul\":9334:9392   */\n      mstore\n        /* \"#utility.yul\":9426:9442   */\n      0x6173652074727920616761696e2e000000000000000000000000000000000000\n        /* \"#utility.yul\":9421:9423   */\n      0x20\n        /* \"#utility.yul\":9413:9419   */\n      dup3\n        /* \"#utility.yul\":9409:9424   */\n      add\n        /* \"#utility.yul\":9402:9443   */\n      mstore\n        /* \"#utility.yul\":9217:9450   */\n      pop\n      jump\t// out\n        /* \"#utility.yul\":9456:9822   */\n    tag_220:\n        /* \"#utility.yul\":9598:9601   */\n      0x00\n        /* \"#utility.yul\":9619:9686   */\n      tag_323\n        /* \"#utility.yul\":9683:9685   */\n      0x2e\n        /* \"#utility.yul\":9678:9681   */\n      dup4\n        /* \"#utility.yul\":9619:9686   */\n      tag_205\n      jump\t// in\n    tag_323:\n        /* \"#utility.yul\":9612:9686   */\n      swap2\n      pop\n        /* \"#utility.yul\":9695:9788   */\n      tag_324\n        /* \"#utility.yul\":9784:9787   */\n      dup3\n        /* \"#utility.yul\":9695:9788   */\n      tag_219\n      jump\t// in\n    tag_324:\n        /* \"#utility.yul\":9813:9815   */\n      0x40\n        /* \"#utility.yul\":9808:9811   */\n      dup3\n        /* \"#utility.yul\":9804:9816   */\n      add\n        /* \"#utility.yul\":9797:9816   */\n      swap1\n      pop\n        /* \"#utility.yul\":9456:9822   */\n      swap2\n      swap1\n      pop\n      jump\t// out\n        /* \"#utility.yul\":9828:10247   */\n    tag_84:\n        /* \"#utility.yul\":9994:9998   */\n      0x00\n        /* \"#utility.yul\":10032:10034   */\n      0x20\n        /* \"#utility.yul\":10021:10030   */\n      dup3\n        /* \"#utility.yul\":10017:10035   */\n      add\n        /* \"#utility.yul\":10009:10035   */\n      swap1\n      pop\n        /* \"#utility.yul\":10081:10090   */\n      dup2\n        /* \"#utility.yul\":10075:10079   */\n      dup2\n        /* \"#utility.yul\":10071:10091   */\n      sub\n        /* \"#utility.yul\":10067:10068   */\n      0x00\n        /* \"#utility.yul\":10056:10065   */\n      dup4\n        /* \"#utility.yul\":10052:10069   */\n      add\n        /* \"#utility.yul\":10045:10092   */\n      mstore\n        /* \"#utility.yul\":10109:10240   */\n      tag_326\n        /* \"#utility.yul\":10235:10239   */\n      dup2\n        /* \"#utility.yul\":10109:10240   */\n      tag_220\n      jump\t// in\n    tag_326:\n        /* \"#utility.yul\":10101:10240   */\n      swap1\n      pop\n        /* \"#utility.yul\":9828:10247   */\n      swap2\n      swap1\n      pop\n      jump\t// out\n        /* \"#utility.yul\":10253:10434   */\n    tag_221:\n        /* \"#utility.yul\":10393:10426   */\n      0x6f6e6c7920706c617965722063616e20766965772074686520616e7377657200\n        /* \"#utility.yul\":10389:10390   */\n      0x00\n        /* \"#utility.yul\":10381:10387   */\n      dup3\n        /* \"#utility.yul\":10377:10391   */\n      add\n        /* \"#utility.yul\":10370:10427   */\n      mstore\n        /* \"#utility.yul\":10253:10434   */\n      pop\n      jump\t// out\n        /* \"#utility.yul\":10440:10806   */\n    tag_222:\n        /* \"#utility.yul\":10582:10585   */\n      0x00\n        /* \"#utility.yul\":10603:10670   */\n      tag_329\n        /* \"#utility.yul\":10667:10669   */\n      0x1f\n        /* \"#utility.yul\":10662:10665   */\n      dup4\n        /* \"#utility.yul\":10603:10670   */\n      tag_205\n      jump\t// in\n    tag_329:\n        /* \"#utility.yul\":10596:10670   */\n      swap2\n      pop\n        /* \"#utility.yul\":10679:10772   */\n      tag_330\n        /* \"#utility.yul\":10768:10771   */\n      dup3\n        /* \"#utility.yul\":10679:10772   */\n      tag_221\n      jump\t// in\n    tag_330:\n        /* \"#utility.yul\":10797:10799   */\n      0x20\n        /* \"#utility.yul\":10792:10795   */\n      dup3\n        /* \"#utility.yul\":10788:10800   */\n      add\n        /* \"#utility.yul\":10781:10800   */\n      swap1\n      pop\n        /* \"#utility.yul\":10440:10806   */\n      swap2\n      swap1\n      pop\n      jump\t// out\n        /* \"#utility.yul\":10812:11231   */\n    tag_90:\n        /* \"#utility.yul\":10978:10982   */\n      0x00\n        /* \"#utility.yul\":11016:11018   */\n      0x20\n        /* \"#utility.yul\":11005:11014   */\n      dup3\n        /* \"#utility.yul\":11001:11019   */\n      add\n        /* \"#utility.yul\":10993:11019   */\n      swap1\n      pop\n        /* \"#utility.yul\":11065:11074   */\n      dup2\n        /* \"#utility.yul\":11059:11063   */\n      dup2\n        /* \"#utility.yul\":11055:11075   */\n      sub\n        /* \"#utility.yul\":11051:11052   */\n      0x00\n        /* \"#utility.yul\":11040:11049   */\n      dup4\n        /* \"#utility.yul\":11036:11053   */\n      add\n        /* \"#utility.yul\":11029:11076   */\n      mstore\n        /* \"#utility.yul\":11093:11224   */\n      tag_332\n        /* \"#utility.yul\":11219:11223   */\n      dup2\n        /* \"#utility.yul\":11093:11224   */\n      tag_222\n      jump\t// in\n    tag_332:\n        /* \"#utility.yul\":11085:11224   */\n      swap1\n      pop\n        /* \"#utility.yul\":10812:11231   */\n      swap2\n      swap1\n      pop\n      jump\t// out\n        /* \"#utility.yul\":11237:11407   */\n    tag_223:\n        /* \"#utility.yul\":11377:11399   */\n      0x506c6179657220646f206e6f742072657665616c000000000000000000000000\n        /* \"#utility.yul\":11373:11374   */\n      0x00\n        /* \"#utility.yul\":11365:11371   */\n      dup3\n        /* \"#utility.yul\":11361:11375   */\n      add\n        /* \"#utility.yul\":11354:11400   */\n      mstore\n        /* \"#utility.yul\":11237:11407   */\n      pop\n      jump\t// out\n        /* \"#utility.yul\":11413:11779   */\n    tag_224:\n        /* \"#utility.yul\":11555:11558   */\n      0x00\n        /* \"#utility.yul\":11576:11643   */\n      tag_335\n        /* \"#utility.yul\":11640:11642   */\n      0x14\n        /* \"#utility.yul\":11635:11638   */\n      dup4\n        /* \"#utility.yul\":11576:11643   */\n      tag_205\n      jump\t// in\n    tag_335:\n        /* \"#utility.yul\":11569:11643   */\n      swap2\n      pop\n        /* \"#utility.yul\":11652:11745   */\n      tag_336\n        /* \"#utility.yul\":11741:11744   */\n      dup3\n        /* \"#utility.yul\":11652:11745   */\n      tag_223\n      jump\t// in\n    tag_336:\n        /* \"#utility.yul\":11770:11772   */\n      0x20\n        /* \"#utility.yul\":11765:11768   */\n      dup3\n        /* \"#utility.yul\":11761:11773   */\n      add\n        /* \"#utility.yul\":11754:11773   */\n      swap1\n      pop\n        /* \"#utility.yul\":11413:11779   */\n      swap2\n      swap1\n      pop\n      jump\t// out\n        /* \"#utility.yul\":11785:12204   */\n    tag_98:\n        /* \"#utility.yul\":11951:11955   */\n      0x00\n        /* \"#utility.yul\":11989:11991   */\n      0x20\n        /* \"#utility.yul\":11978:11987   */\n      dup3\n        /* \"#utility.yul\":11974:11992   */\n      add\n        /* \"#utility.yul\":11966:11992   */\n      swap1\n      pop\n        /* \"#utility.yul\":12038:12047   */\n      dup2\n        /* \"#utility.yul\":12032:12036   */\n      dup2\n        /* \"#utility.yul\":12028:12048   */\n      sub\n        /* \"#utility.yul\":12024:12025   */\n      0x00\n        /* \"#utility.yul\":12013:12022   */\n      dup4\n        /* \"#utility.yul\":12009:12026   */\n      add\n        /* \"#utility.yul\":12002:12049   */\n      mstore\n        /* \"#utility.yul\":12066:12197   */\n      tag_338\n        /* \"#utility.yul\":12192:12196   */\n      dup2\n        /* \"#utility.yul\":12066:12197   */\n      tag_224\n      jump\t// in\n    tag_338:\n        /* \"#utility.yul\":12058:12197   */\n      swap1\n      pop\n        /* \"#utility.yul\":11785:12204   */\n      swap2\n      swap1\n      pop\n      jump\t// out\n        /* \"#utility.yul\":12210:12379   */\n    tag_225:\n        /* \"#utility.yul\":12350:12371   */\n      0x4f776e657220646f206e6f742072657665616c00000000000000000000000000\n        /* \"#utility.yul\":12346:12347   */\n      0x00\n        /* \"#utility.yul\":12338:12344   */\n      dup3\n        /* \"#utility.yul\":12334:12348   */\n      add\n        /* \"#utility.yul\":12327:12372   */\n      mstore\n        /* \"#utility.yul\":12210:12379   */\n      pop\n      jump\t// out\n        /* \"#utility.yul\":12385:12751   */\n    tag_226:\n        /* \"#utility.yul\":12527:12530   */\n      0x00\n        /* \"#utility.yul\":12548:12615   */\n      tag_341\n        /* \"#utility.yul\":12612:12614   */\n      0x13\n        /* \"#utility.yul\":12607:12610   */\n      dup4\n        /* \"#utility.yul\":12548:12615   */\n      tag_205\n      jump\t// in\n    tag_341:\n        /* \"#utility.yul\":12541:12615   */\n      swap2\n      pop\n        /* \"#utility.yul\":12624:12717   */\n      tag_342\n        /* \"#utility.yul\":12713:12716   */\n      dup3\n        /* \"#utility.yul\":12624:12717   */\n      tag_225\n      jump\t// in\n    tag_342:\n        /* \"#utility.yul\":12742:12744   */\n      0x20\n        /* \"#utility.yul\":12737:12740   */\n      dup3\n        /* \"#utility.yul\":12733:12745   */\n      add\n        /* \"#utility.yul\":12726:12745   */\n      swap1\n      pop\n        /* \"#utility.yul\":12385:12751   */\n      swap2\n      swap1\n      pop\n      jump\t// out\n        /* \"#utility.yul\":12757:13176   */\n    tag_105:\n        /* \"#utility.yul\":12923:12927   */\n      0x00\n        /* \"#utility.yul\":12961:12963   */\n      0x20\n        /* \"#utility.yul\":12950:12959   */\n      dup3\n        /* \"#utility.yul\":12946:12964   */\n      add\n        /* \"#utility.yul\":12938:12964   */\n      swap1\n      pop\n        /* \"#utility.yul\":13010:13019   */\n      dup2\n        /* \"#utility.yul\":13004:13008   */\n      dup2\n        /* \"#utility.yul\":13000:13020   */\n      sub\n        /* \"#utility.yul\":12996:12997   */\n      0x00\n        /* \"#utility.yul\":12985:12994   */\n      dup4\n        /* \"#utility.yul\":12981:12998   */\n      add\n        /* \"#utility.yul\":12974:13021   */\n      mstore\n        /* \"#utility.yul\":13038:13169   */\n      tag_344\n        /* \"#utility.yul\":13164:13168   */\n      dup2\n        /* \"#utility.yul\":13038:13169   */\n      tag_226\n      jump\t// in\n    tag_344:\n        /* \"#utility.yul\":13030:13169   */\n      swap1\n      pop\n        /* \"#utility.yul\":12757:13176   */\n      swap2\n      swap1\n      pop\n      jump\t// out\n        /* \"#utility.yul\":13182:13403   */\n    tag_227:\n        /* \"#utility.yul\":13322:13356   */\n      0x6f776e65722063616e206e6f74205375626d697420706c6179657220416e7377\n        /* \"#utility.yul\":13318:13319   */\n      0x00\n        /* \"#utility.yul\":13310:13316   */\n      dup3\n        /* \"#utility.yul\":13306:13320   */\n      add\n        /* \"#utility.yul\":13299:13357   */\n      mstore\n        /* \"#utility.yul\":13391:13395   */\n      0x6572000000000000000000000000000000000000000000000000000000000000\n        /* \"#utility.yul\":13386:13388   */\n      0x20\n        /* \"#utility.yul\":13378:13384   */\n      dup3\n        /* \"#utility.yul\":13374:13389   */\n      add\n        /* \"#utility.yul\":13367:13396   */\n      mstore\n        /* \"#utility.yul\":13182:13403   */\n      pop\n      jump\t// out\n        /* \"#utility.yul\":13409:13775   */\n    tag_228:\n        /* \"#utility.yul\":13551:13554   */\n      0x00\n        /* \"#utility.yul\":13572:13639   */\n      tag_347\n        /* \"#utility.yul\":13636:13638   */\n      0x22\n        /* \"#utility.yul\":13631:13634   */\n      dup4\n        /* \"#utility.yul\":13572:13639   */\n      tag_205\n      jump\t// in\n    tag_347:\n        /* \"#utility.yul\":13565:13639   */\n      swap2\n      pop\n        /* \"#utility.yul\":13648:13741   */\n      tag_348\n        /* \"#utility.yul\":13737:13740   */\n      dup3\n        /* \"#utility.yul\":13648:13741   */\n      tag_227\n      jump\t// in\n    tag_348:\n        /* \"#utility.yul\":13766:13768   */\n      0x40\n        /* \"#utility.yul\":13761:13764   */\n      dup3\n        /* \"#utility.yul\":13757:13769   */\n      add\n        /* \"#utility.yul\":13750:13769   */\n      swap1\n      pop\n        /* \"#utility.yul\":13409:13775   */\n      swap2\n      swap1\n      pop\n      jump\t// out\n        /* \"#utility.yul\":13781:14200   */\n    tag_113:\n        /* \"#utility.yul\":13947:13951   */\n      0x00\n        /* \"#utility.yul\":13985:13987   */\n      0x20\n        /* \"#utility.yul\":13974:13983   */\n      dup3\n        /* \"#utility.yul\":13970:13988   */\n      add\n        /* \"#utility.yul\":13962:13988   */\n      swap1\n      pop\n        /* \"#utility.yul\":14034:14043   */\n      dup2\n        /* \"#utility.yul\":14028:14032   */\n      dup2\n        /* \"#utility.yul\":14024:14044   */\n      sub\n        /* \"#utility.yul\":14020:14021   */\n      0x00\n        /* \"#utility.yul\":14009:14018   */\n      dup4\n        /* \"#utility.yul\":14005:14022   */\n      add\n        /* \"#utility.yul\":13998:14045   */\n      mstore\n        /* \"#utility.yul\":14062:14193   */\n      tag_350\n        /* \"#utility.yul\":14188:14192   */\n      dup2\n        /* \"#utility.yul\":14062:14193   */\n      tag_228\n      jump\t// in\n    tag_350:\n        /* \"#utility.yul\":14054:14193   */\n      swap1\n      pop\n        /* \"#utility.yul\":13781:14200   */\n      swap2\n      swap1\n      pop\n      jump\t// out\n        /* \"#utility.yul\":14206:14378   */\n    tag_229:\n        /* \"#utility.yul\":14346:14370   */\n      0x4f6e6c79206f776e65722063616e20636f6e6669726d00000000000000000000\n        /* \"#utility.yul\":14342:14343   */\n      0x00\n        /* \"#utility.yul\":14334:14340   */\n      dup3\n        /* \"#utility.yul\":14330:14344   */\n      add\n        /* \"#utility.yul\":14323:14371   */\n      mstore\n        /* \"#utility.yul\":14206:14378   */\n      pop\n      jump\t// out\n        /* \"#utility.yul\":14384:14750   */\n    tag_230:\n        /* \"#utility.yul\":14526:14529   */\n      0x00\n        /* \"#utility.yul\":14547:14614   */\n      tag_353\n        /* \"#utility.yul\":14611:14613   */\n      0x16\n        /* \"#utility.yul\":14606:14609   */\n      dup4\n        /* \"#utility.yul\":14547:14614   */\n      tag_205\n      jump\t// in\n    tag_353:\n        /* \"#utility.yul\":14540:14614   */\n      swap2\n      pop\n        /* \"#utility.yul\":14623:14716   */\n      tag_354\n        /* \"#utility.yul\":14712:14715   */\n      dup3\n        /* \"#utility.yul\":14623:14716   */\n      tag_229\n      jump\t// in\n    tag_354:\n        /* \"#utility.yul\":14741:14743   */\n      0x20\n        /* \"#utility.yul\":14736:14739   */\n      dup3\n        /* \"#utility.yul\":14732:14744   */\n      add\n        /* \"#utility.yul\":14725:14744   */\n      swap1\n      pop\n        /* \"#utility.yul\":14384:14750   */\n      swap2\n      swap1\n      pop\n      jump\t// out\n        /* \"#utility.yul\":14756:15175   */\n    tag_147:\n        /* \"#utility.yul\":14922:14926   */\n      0x00\n        /* \"#utility.yul\":14960:14962   */\n      0x20\n        /* \"#utility.yul\":14949:14958   */\n      dup3\n        /* \"#utility.yul\":14945:14963   */\n      add\n        /* \"#utility.yul\":14937:14963   */\n      swap1\n      pop\n        /* \"#utility.yul\":15009:15018   */\n      dup2\n        /* \"#utility.yul\":15003:15007   */\n      dup2\n        /* \"#utility.yul\":14999:15019   */\n      sub\n        /* \"#utility.yul\":14995:14996   */\n      0x00\n        /* \"#utility.yul\":14984:14993   */\n      dup4\n        /* \"#utility.yul\":14980:14997   */\n      add\n        /* \"#utility.yul\":14973:15020   */\n      mstore\n        /* \"#utility.yul\":15037:15168   */\n      tag_356\n        /* \"#utility.yul\":15163:15167   */\n      dup2\n        /* \"#utility.yul\":15037:15168   */\n      tag_230\n      jump\t// in\n    tag_356:\n        /* \"#utility.yul\":15029:15168   */\n      swap1\n      pop\n        /* \"#utility.yul\":14756:15175   */\n      swap2\n      swap1\n      pop\n      jump\t// out\n        /* \"#utility.yul\":15181:15417   */\n    tag_231:\n        /* \"#utility.yul\":15321:15355   */\n      0x596f7520617265206e6f7420616c6c6f7720746f20636f6e6669726d2077696e\n        /* \"#utility.yul\":15317:15318   */\n      0x00\n        /* \"#utility.yul\":15309:15315   */\n      dup3\n        /* \"#utility.yul\":15305:15319   */\n      add\n        /* \"#utility.yul\":15298:15356   */\n      mstore\n        /* \"#utility.yul\":15390:15409   */\n      0x6e65722061742074686973207374616765000000000000000000000000000000\n        /* \"#utility.yul\":15385:15387   */\n      0x20\n        /* \"#utility.yul\":15377:15383   */\n      dup3\n        /* \"#utility.yul\":15373:15388   */\n      add\n        /* \"#utility.yul\":15366:15410   */\n      mstore\n        /* \"#utility.yul\":15181:15417   */\n      pop\n      jump\t// out\n        /* \"#utility.yul\":15423:15789   */\n    tag_232:\n        /* \"#utility.yul\":15565:15568   */\n      0x00\n        /* \"#utility.yul\":15586:15653   */\n      tag_359\n        /* \"#utility.yul\":15650:15652   */\n      0x31\n        /* \"#utility.yul\":15645:15648   */\n      dup4\n        /* \"#utility.yul\":15586:15653   */\n      tag_205\n      jump\t// in\n    tag_359:\n        /* \"#utility.yul\":15579:15653   */\n      swap2\n      pop\n        /* \"#utility.yul\":15662:15755   */\n      tag_360\n        /* \"#utility.yul\":15751:15754   */\n      dup3\n        /* \"#utility.yul\":15662:15755   */\n      tag_231\n      jump\t// in\n    tag_360:\n        /* \"#utility.yul\":15780:15782   */\n      0x40\n        /* \"#utility.yul\":15775:15778   */\n      dup3\n        /* \"#utility.yul\":15771:15783   */\n      add\n        /* \"#utility.yul\":15764:15783   */\n      swap1\n      pop\n        /* \"#utility.yul\":15423:15789   */\n      swap2\n      swap1\n      pop\n      jump\t// out\n        /* \"#utility.yul\":15795:16214   */\n    tag_154:\n        /* \"#utility.yul\":15961:15965   */\n      0x00\n        /* \"#utility.yul\":15999:16001   */\n      0x20\n        /* \"#utility.yul\":15988:15997   */\n      dup3\n        /* \"#utility.yul\":15984:16002   */\n      add\n        /* \"#utility.yul\":15976:16002   */\n      swap1\n      pop\n        /* \"#utility.yul\":16048:16057   */\n      dup2\n        /* \"#utility.yul\":16042:16046   */\n      dup2\n        /* \"#utility.yul\":16038:16058   */\n      sub\n        /* \"#utility.yul\":16034:16035   */\n      0x00\n        /* \"#utility.yul\":16023:16032   */\n      dup4\n        /* \"#utility.yul\":16019:16036   */\n      add\n        /* \"#utility.yul\":16012:16059   */\n      mstore\n        /* \"#utility.yul\":16076:16207   */\n      tag_362\n        /* \"#utility.yul\":16202:16206   */\n      dup2\n        /* \"#utility.yul\":16076:16207   */\n      tag_232\n      jump\t// in\n    tag_362:\n        /* \"#utility.yul\":16068:16207   */\n      swap1\n      pop\n        /* \"#utility.yul\":15795:16214   */\n      swap2\n      swap1\n      pop\n      jump\t// out\n        /* \"#utility.yul\":16220:16393   */\n    tag_233:\n        /* \"#utility.yul\":16360:16385   */\n      0x4f6e6c7920706c617965722063616e20636f6e6669726d000000000000000000\n        /* \"#utility.yul\":16356:16357   */\n      0x00\n        /* \"#utility.yul\":16348:16354   */\n      dup3\n        /* \"#utility.yul\":16344:16358   */\n      add\n        /* \"#utility.yul\":16337:16386   */\n      mstore\n        /* \"#utility.yul\":16220:16393   */\n      pop\n      jump\t// out\n        /* \"#utility.yul\":16399:16765   */\n    tag_234:\n        /* \"#utility.yul\":16541:16544   */\n      0x00\n        /* \"#utility.yul\":16562:16629   */\n      tag_365\n        /* \"#utility.yul\":16626:16628   */\n      0x17\n        /* \"#utility.yul\":16621:16624   */\n      dup4\n        /* \"#utility.yul\":16562:16629   */\n      tag_205\n      jump\t// in\n    tag_365:\n        /* \"#utility.yul\":16555:16629   */\n      swap2\n      pop\n        /* \"#utility.yul\":16638:16731   */\n      tag_366\n        /* \"#utility.yul\":16727:16730   */\n      dup3\n        /* \"#utility.yul\":16638:16731   */\n      tag_233\n      jump\t// in\n    tag_366:\n        /* \"#utility.yul\":16756:16758   */\n      0x20\n        /* \"#utility.yul\":16751:16754   */\n      dup3\n        /* \"#utility.yul\":16747:16759   */\n      add\n        /* \"#utility.yul\":16740:16759   */\n      swap1\n      pop\n        /* \"#utility.yul\":16399:16765   */\n      swap2\n      swap1\n      pop\n      jump\t// out\n        /* \"#utility.yul\":16771:17190   */\n    tag_160:\n        /* \"#utility.yul\":16937:16941   */\n      0x00\n        /* \"#utility.yul\":16975:16977   */\n      0x20\n        /* \"#utility.yul\":16964:16973   */\n      dup3\n        /* \"#utility.yul\":16960:16978   */\n      add\n        /* \"#utility.yul\":16952:16978   */\n      swap1\n      pop\n        /* \"#utility.yul\":17024:17033   */\n      dup2\n        /* \"#utility.yul\":17018:17022   */\n      dup2\n        /* \"#utility.yul\":17014:17034   */\n      sub\n        /* \"#utility.yul\":17010:17011   */\n      0x00\n        /* \"#utility.yul\":16999:17008   */\n      dup4\n        /* \"#utility.yul\":16995:17012   */\n      add\n        /* \"#utility.yul\":16988:17035   */\n      mstore\n        /* \"#utility.yul\":17052:17183   */\n      tag_368\n        /* \"#utility.yul\":17178:17182   */\n      dup2\n        /* \"#utility.yul\":17052:17183   */\n      tag_234\n      jump\t// in\n    tag_368:\n        /* \"#utility.yul\":17044:17183   */\n      swap1\n      pop\n        /* \"#utility.yul\":16771:17190   */\n      swap2\n      swap1\n      pop\n      jump\t// out\n        /* \"#utility.yul\":17196:17376   */\n    tag_235:\n        /* \"#utility.yul\":17336:17368   */\n      0x6f6e6c79206f776e65722063616e20766965772074686520616e737765720000\n        /* \"#utility.yul\":17332:17333   */\n      0x00\n        /* \"#utility.yul\":17324:17330   */\n      dup3\n        /* \"#utility.yul\":17320:17334   */\n      add\n        /* \"#utility.yul\":17313:17369   */\n      mstore\n        /* \"#utility.yul\":17196:17376   */\n      pop\n      jump\t// out\n        /* \"#utility.yul\":17382:17748   */\n    tag_236:\n        /* \"#utility.yul\":17524:17527   */\n      0x00\n        /* \"#utility.yul\":17545:17612   */\n      tag_371\n        /* \"#utility.yul\":17609:17611   */\n      0x1e\n        /* \"#utility.yul\":17604:17607   */\n      dup4\n        /* \"#utility.yul\":17545:17612   */\n      tag_205\n      jump\t// in\n    tag_371:\n        /* \"#utility.yul\":17538:17612   */\n      swap2\n      pop\n        /* \"#utility.yul\":17621:17714   */\n      tag_372\n        /* \"#utility.yul\":17710:17713   */\n      dup3\n        /* \"#utility.yul\":17621:17714   */\n      tag_235\n      jump\t// in\n    tag_372:\n        /* \"#utility.yul\":17739:17741   */\n      0x20\n        /* \"#utility.yul\":17734:17737   */\n      dup3\n        /* \"#utility.yul\":17730:17742   */\n      add\n        /* \"#utility.yul\":17723:17742   */\n      swap1\n      pop\n        /* \"#utility.yul\":17382:17748   */\n      swap2\n      swap1\n      pop\n      jump\t// out\n        /* \"#utility.yul\":17754:18173   */\n    tag_172:\n        /* \"#utility.yul\":17920:17924   */\n      0x00\n        /* \"#utility.yul\":17958:17960   */\n      0x20\n        /* \"#utility.yul\":17947:17956   */\n      dup3\n        /* \"#utility.yul\":17943:17961   */\n      add\n        /* \"#utility.yul\":17935:17961   */\n      swap1\n      pop\n        /* \"#utility.yul\":18007:18016   */\n      dup2\n        /* \"#utility.yul\":18001:18005   */\n      dup2\n        /* \"#utility.yul\":17997:18017   */\n      sub\n        /* \"#utility.yul\":17993:17994   */\n      0x00\n        /* \"#utility.yul\":17982:17991   */\n      dup4\n        /* \"#utility.yul\":17978:17995   */\n      add\n        /* \"#utility.yul\":17971:18018   */\n      mstore\n        /* \"#utility.yul\":18035:18166   */\n      tag_374\n        /* \"#utility.yul\":18161:18165   */\n      dup2\n        /* \"#utility.yul\":18035:18166   */\n      tag_236\n      jump\t// in\n    tag_374:\n        /* \"#utility.yul\":18027:18166   */\n      swap1\n      pop\n        /* \"#utility.yul\":17754:18173   */\n      swap2\n      swap1\n      pop\n      jump\t// out\n        /* \"#utility.yul\":18179:18360   */\n    tag_237:\n        /* \"#utility.yul\":18319:18352   */\n      0x4f6e6c7920706c617965722063616e207375626d69742050617373776f726400\n        /* \"#utility.yul\":18315:18316   */\n      0x00\n        /* \"#utility.yul\":18307:18313   */\n      dup3\n        /* \"#utility.yul\":18303:18317   */\n      add\n        /* \"#utility.yul\":18296:18353   */\n      mstore\n        /* \"#utility.yul\":18179:18360   */\n      pop\n      jump\t// out\n        /* \"#utility.yul\":18366:18732   */\n    tag_238:\n        /* \"#utility.yul\":18508:18511   */\n      0x00\n        /* \"#utility.yul\":18529:18596   */\n      tag_377\n        /* \"#utility.yul\":18593:18595   */\n      0x1f\n        /* \"#utility.yul\":18588:18591   */\n      dup4\n        /* \"#utility.yul\":18529:18596   */\n      tag_205\n      jump\t// in\n    tag_377:\n        /* \"#utility.yul\":18522:18596   */\n      swap2\n      pop\n        /* \"#utility.yul\":18605:18698   */\n      tag_378\n        /* \"#utility.yul\":18694:18697   */\n      dup3\n        /* \"#utility.yul\":18605:18698   */\n      tag_237\n      jump\t// in\n    tag_378:\n        /* \"#utility.yul\":18723:18725   */\n      0x20\n        /* \"#utility.yul\":18718:18721   */\n      dup3\n        /* \"#utility.yul\":18714:18726   */\n      add\n        /* \"#utility.yul\":18707:18726   */\n      swap1\n      pop\n        /* \"#utility.yul\":18366:18732   */\n      swap2\n      swap1\n      pop\n      jump\t// out\n        /* \"#utility.yul\":18738:19157   */\n    tag_176:\n        /* \"#utility.yul\":18904:18908   */\n      0x00\n        /* \"#utility.yul\":18942:18944   */\n      0x20\n        /* \"#utility.yul\":18931:18940   */\n      dup3\n        /* \"#utility.yul\":18927:18945   */\n      add\n        /* \"#utility.yul\":18919:18945   */\n      swap1\n      pop\n        /* \"#utility.yul\":18991:19000   */\n      dup2\n        /* \"#utility.yul\":18985:18989   */\n      dup2\n        /* \"#utility.yul\":18981:19001   */\n      sub\n        /* \"#utility.yul\":18977:18978   */\n      0x00\n        /* \"#utility.yul\":18966:18975   */\n      dup4\n        /* \"#utility.yul\":18962:18979   */\n      add\n        /* \"#utility.yul\":18955:19002   */\n      mstore\n        /* \"#utility.yul\":19019:19150   */\n      tag_380\n        /* \"#utility.yul\":19145:19149   */\n      dup2\n        /* \"#utility.yul\":19019:19150   */\n      tag_238\n      jump\t// in\n    tag_380:\n        /* \"#utility.yul\":19011:19150   */\n      swap1\n      pop\n        /* \"#utility.yul\":18738:19157   */\n      swap2\n      swap1\n      pop\n      jump\t// out\n        /* \"#utility.yul\":19163:19343   */\n    tag_239:\n        /* \"#utility.yul\":19211:19288   */\n      0x4e487b7100000000000000000000000000000000000000000000000000000000\n        /* \"#utility.yul\":19208:19209   */\n      0x00\n        /* \"#utility.yul\":19201:19289   */\n      mstore\n        /* \"#utility.yul\":19308:19312   */\n      0x11\n        /* \"#utility.yul\":19305:19306   */\n      0x04\n        /* \"#utility.yul\":19298:19313   */\n      mstore\n        /* \"#utility.yul\":19332:19336   */\n      0x24\n        /* \"#utility.yul\":19329:19330   */\n      0x00\n        /* \"#utility.yul\":19322:19337   */\n      revert\n        /* \"#utility.yul\":19349:19540   */\n    tag_186:\n        /* \"#utility.yul\":19389:19392   */\n      0x00\n        /* \"#utility.yul\":19408:19428   */\n      tag_383\n        /* \"#utility.yul\":19426:19427   */\n      dup3\n        /* \"#utility.yul\":19408:19428   */\n      tag_195\n      jump\t// in\n    tag_383:\n        /* \"#utility.yul\":19403:19428   */\n      swap2\n      pop\n        /* \"#utility.yul\":19442:19462   */\n      tag_384\n        /* \"#utility.yul\":19460:19461   */\n      dup4\n        /* \"#utility.yul\":19442:19462   */\n      tag_195\n      jump\t// in\n    tag_384:\n        /* \"#utility.yul\":19437:19462   */\n      swap3\n      pop\n        /* \"#utility.yul\":19485:19486   */\n      dup3\n        /* \"#utility.yul\":19482:19483   */\n      dup3\n        /* \"#utility.yul\":19478:19487   */\n      add\n        /* \"#utility.yul\":19471:19487   */\n      swap1\n      pop\n        /* \"#utility.yul\":19506:19509   */\n      dup1\n        /* \"#utility.yul\":19503:19504   */\n      dup3\n        /* \"#utility.yul\":19500:19510   */\n      gt\n        /* \"#utility.yul\":19497:19533   */\n      iszero\n      tag_385\n      jumpi\n        /* \"#utility.yul\":19513:19531   */\n      tag_386\n      tag_239\n      jump\t// in\n    tag_386:\n        /* \"#utility.yul\":19497:19533   */\n    tag_385:\n        /* \"#utility.yul\":19349:19540   */\n      swap3\n      swap2\n      pop\n      pop\n      jump\t// out\n        /* \"#utility.yul\":19546:19726   */\n    tag_240:\n        /* \"#utility.yul\":19594:19671   */\n      0x4e487b7100000000000000000000000000000000000000000000000000000000\n        /* \"#utility.yul\":19591:19592   */\n      0x00\n        /* \"#utility.yul\":19584:19672   */\n      mstore\n        /* \"#utility.yul\":19691:19695   */\n      0x12\n        /* \"#utility.yul\":19688:19689   */\n      0x04\n        /* \"#utility.yul\":19681:19696   */\n      mstore\n        /* \"#utility.yul\":19715:19719   */\n      0x24\n        /* \"#utility.yul\":19712:19713   */\n      0x00\n        /* \"#utility.yul\":19705:19720   */\n      revert\n        /* \"#utility.yul\":19732:19908   */\n    tag_188:\n        /* \"#utility.yul\":19764:19765   */\n      0x00\n        /* \"#utility.yul\":19781:19801   */\n      tag_389\n        /* \"#utility.yul\":19799:19800   */\n      dup3\n        /* \"#utility.yul\":19781:19801   */\n      tag_195\n      jump\t// in\n    tag_389:\n        /* \"#utility.yul\":19776:19801   */\n      swap2\n      pop\n        /* \"#utility.yul\":19815:19835   */\n      tag_390\n        /* \"#utility.yul\":19833:19834   */\n      dup4\n        /* \"#utility.yul\":19815:19835   */\n      tag_195\n      jump\t// in\n    tag_390:\n        /* \"#utility.yul\":19810:19835   */\n      swap3\n      pop\n        /* \"#utility.yul\":19854:19855   */\n      dup3\n        /* \"#utility.yul\":19844:19879   */\n      tag_391\n      jumpi\n        /* \"#utility.yul\":19859:19877   */\n      tag_392\n      tag_240\n      jump\t// in\n    tag_392:\n        /* \"#utility.yul\":19844:19879   */\n    tag_391:\n        /* \"#utility.yul\":19900:19901   */\n      dup3\n        /* \"#utility.yul\":19897:19898   */\n      dup3\n        /* \"#utility.yul\":19893:19902   */\n      mod\n        /* \"#utility.yul\":19888:19902   */\n      swap1\n      pop\n        /* \"#utility.yul\":19732:19908   */\n      swap3\n      swap2\n      pop\n      pop\n      jump\t// out\n    stop\n    data_5bf2a40c643c32a91271cfb84ebaedf3782dbc5f3dc9227048c7865bf3996704 506c617965722077696e2c20706c6561736520636f6e6669726d20796f7520617265207468652057696e6e657220616e64206765742072657761726421\n    data_5df918448539201a5bf172a217e04027eea7222bcd2565f78e2d9aefbb4afa7c 4f776e65722077696e2c20706c6561736520636f6e6669726d20796f7520617265207468652057696e6e657220616e64206765742072657761726421\n\n    auxdata: 0xa2646970667358221220381a2791f72172da0b6bbb480b3361e3a078e4c14360653b77a135f32408263764736f6c63430008220033\n}\n",
				"bytecode": {
					"linkReferences": {},
					"object": "6080604052348015600e575f5ffd5b50335f5f6101000a81548173ffffffffffffffffffffffffffffffffffffffff021916908373ffffffffffffffffffffffffffffffffffffffff1602179055506119b28061005b5f395ff3fe608060405234801561000f575f5ffd5b506004361061009c575f3560e01c80638da5cb5b116100645780638da5cb5b1461015c5780638f693d9e1461017a578063d55c9c84146101aa578063d79830cf146101b4578063ff2364b5146101d25761009c565b80633a902846146100a057806348db5f89146100d0578063528654d7146100ee5780635f5820111461011f5780637152f8001461013d575b5f5ffd5b6100ba60048036038101906100b59190610fb7565b610203565b6040516100c79190611004565b60405180910390f35b6100d86103d5565b6040516100e5919061105c565b60405180910390f35b61010860048036038101906101039190611075565b6103fa565b60405161011692919061112a565b60405180910390f35b61012761056a565b6040516101349190611004565b60405180910390f35b610145610602565b604051610153929190611158565b60405180910390f35b61016461074b565b604051610171919061105c565b60405180910390f35b610194600480360381019061018f9190610fb7565b61076f565b6040516101a19190611004565b60405180910390f35b6101b261097e565b005b6101bc610ce2565b6040516101c99190611004565b60405180910390f35b6101ec60048036038101906101e79190611075565b610d79565b6040516101fa92919061112a565b60405180910390f35b5f5f5f9054906101000a900473ffffffffffffffffffffffffffffffffffffffff1673ffffffffffffffffffffffffffffffffffffffff163373ffffffffffffffffffffffffffffffffffffffff1614610292576040517f08c379a0000000000000000000000000000000000000000000000000000000008152600401610289906111d0565b60405180910390fd5b600160038111156102a6576102a56111ee565b5b600860019054906101000a900460ff1660038111156102c8576102c76111ee565b5b03610308576040517f08c379a00000000000000000000000000000000000000000000000000000000081526004016102ff90611265565b60405180910390fd5b60038081111561031b5761031a6111ee565b5b600860019054906101000a900460ff16600381111561033d5761033c6111ee565b5b0361037d576040517f08c379a0000000000000000000000000000000000000000000000000000000008152600401610374906112f3565b60405180910390fd5b8260018190555081600281905550610399600154600254610ee9565b6003819055506001600860016101000a81548160ff021916908360038111156103c5576103c46111ee565b5b0217905550600154905092915050565b60045f9054906101000a900473ffffffffffffffffffffffffffffffffffffffff1681565b5f60605f5f9054906101000a900473ffffffffffffffffffffffffffffffffffffffff1673ffffffffffffffffffffffffffffffffffffffff163373ffffffffffffffffffffffffffffffffffffffff161461048b576040517f08c379a00000000000000000000000000000000000000000000000000000000081526004016104829061135b565b60405180910390fd5b5f600154846040516020016104a1929190611399565b60405160208183030381529060405280519060200120905060035481146104fd576040517f08c379a00000000000000000000000000000000000000000000000000000000081526004016104f490611434565b60405180910390fd5b6002600860016101000a81548160ff02191690836003811115610523576105226111ee565b5b021790555060016040518060400160405280600981526020017f436f6e6669726d656400000000000000000000000000000000000000000000008152509250925050915091565b5f60045f9054906101000a900473ffffffffffffffffffffffffffffffffffffffff1673ffffffffffffffffffffffffffffffffffffffff163373ffffffffffffffffffffffffffffffffffffffff16146105fa576040517f08c379a00000000000000000000000000000000000000000000000000000000081526004016105f19061149c565b60405180910390fd5b600554905090565b5f606060026003811115610619576106186111ee565b5b60085f9054906101000a900460ff16600381111561063a576106396111ee565b5b1461067a576040517f08c379a000000000000000000000000000000000000000000000000000000000815260040161067190611504565b60405180910390fd5b6002600381111561068e5761068d6111ee565b5b600860019054906101000a900460ff1660038111156106b0576106af6111ee565b5b146106f0576040517f08c379a00000000000000000000000000000000000000000000000000000000081526004016106e79061156c565b60405180910390fd5b5f6106f9610f1b565b90506003811161072757806040518060600160405280603c8152602001611941603c91399250925050610747565b806040518060600160405280603d8152602001611904603d913992509250505b9091565b5f5f9054906101000a900473ffffffffffffffffffffffffffffffffffffffff1681565b5f5f5f9054906101000a900473ffffffffffffffffffffffffffffffffffffffff1673ffffffffffffffffffffffffffffffffffffffff163373ffffffffffffffffffffffffffffffffffffffff16036107fe576040517f08c379a00000000000000000000000000000000000000000000000000000000081526004016107f5906115fa565b60405180910390fd5b60016003811115610812576108116111ee565b5b60085f9054906101000a900460ff166003811115610833576108326111ee565b5b03610873576040517f08c379a000000000000000000000000000000000000000000000000000000000815260040161086a90611265565b60405180910390fd5b600380811115610886576108856111ee565b5b60085f9054906101000a900460ff1660038111156108a7576108a66111ee565b5b036108e7576040517f08c379a00000000000000000000000000000000000000000000000000000000081526004016108de906112f3565b60405180910390fd5b3360045f6101000a81548173ffffffffffffffffffffffffffffffffffffffff021916908373ffffffffffffffffffffffffffffffffffffffff1602179055508260058190555081600681905550610943600554600654610f4e565b600781905550600160085f6101000a81548160ff0219169083600381111561096e5761096d6111ee565b5b0217905550600554905092915050565b60026003811115610992576109916111ee565b5b60085f9054906101000a900460ff1660038111156109b3576109b26111ee565b5b146109f3576040517f08c379a00000000000000000000000000000000000000000000000000000000081526004016109ea90611504565b60405180910390fd5b60026003811115610a0757610a066111ee565b5b600860019054906101000a900460ff166003811115610a2957610a286111ee565b5b14610a69576040517f08c379a0000000000000000000000000000000000000000000000000000000008152600401610a609061156c565b60405180910390fd5b5f610a72610f1b565b905060038111610bb0575f5f9054906101000a900473ffffffffffffffffffffffffffffffffffffffff1673ffffffffffffffffffffffffffffffffffffffff163373ffffffffffffffffffffffffffffffffffffffff1614610b0a576040517f08c379a0000000000000000000000000000000000000000000000000000000008152600401610b0190611662565b60405180910390fd5b60016003811115610b1e57610b1d6111ee565b5b600860019054906101000a900460ff166003811115610b4057610b3f6111ee565b5b14610b80576040517f08c379a0000000000000000000000000000000000000000000000000000000008152600401610b77906116f0565b60405180910390fd5b6003600860016101000a81548160ff02191690836003811115610ba657610ba56111ee565b5b0217905550610cdf565b60045f9054906101000a900473ffffffffffffffffffffffffffffffffffffffff1673ffffffffffffffffffffffffffffffffffffffff163373ffffffffffffffffffffffffffffffffffffffff1614610c3f576040517f08c379a0000000000000000000000000000000000000000000000000000000008152600401610c3690611758565b60405180910390fd5b60016003811115610c5357610c526111ee565b5b60085f9054906101000a900460ff166003811115610c7457610c736111ee565b5b14610cb4576040517f08c379a0000000000000000000000000000000000000000000000000000000008152600401610cab906116f0565b60405180910390fd5b600360085f6101000a81548160ff02191690836003811115610cd957610cd86111ee565b5b02179055505b50565b5f5f5f9054906101000a900473ffffffffffffffffffffffffffffffffffffffff1673ffffffffffffffffffffffffffffffffffffffff163373ffffffffffffffffffffffffffffffffffffffff1614610d71576040517f08c379a0000000000000000000000000000000000000000000000000000000008152600401610d68906117c0565b60405180910390fd5b600154905090565b5f606060045f9054906101000a900473ffffffffffffffffffffffffffffffffffffffff1673ffffffffffffffffffffffffffffffffffffffff163373ffffffffffffffffffffffffffffffffffffffff1614610e0b576040517f08c379a0000000000000000000000000000000000000000000000000000000008152600401610e0290611828565b60405180910390fd5b5f60055484604051602001610e21929190611399565b6040516020818303038152906040528051906020012090506007548114610e7d576040517f08c379a0000000000000000000000000000000000000000000000000000000008152600401610e7490611434565b60405180910390fd5b600260085f6101000a81548160ff02191690836003811115610ea257610ea16111ee565b5b021790555060016040518060400160405280600981526020017f436f6e6669726d656400000000000000000000000000000000000000000000008152509250925050915091565b5f8282604051602001610efd929190611399565b60405160208183030381529060405280519060200120905092915050565b5f5f60016006600154600554610f319190611873565b610f3b91906118d3565b610f459190611873565b90508091505090565b5f8282604051602001610f62929190611399565b60405160208183030381529060405280519060200120905092915050565b5f5ffd5b5f819050919050565b610f9681610f84565b8114610fa0575f5ffd5b50565b5f81359050610fb181610f8d565b92915050565b5f5f60408385031215610fcd57610fcc610f80565b5b5f610fda85828601610fa3565b9250506020610feb85828601610fa3565b9150509250929050565b610ffe81610f84565b82525050565b5f6020820190506110175f830184610ff5565b92915050565b5f73ffffffffffffffffffffffffffffffffffffffff82169050919050565b5f6110468261101d565b9050919050565b6110568161103c565b82525050565b5f60208201905061106f5f83018461104d565b92915050565b5f6020828403121561108a57611089610f80565b5b5f61109784828501610fa3565b91505092915050565b5f8115159050919050565b6110b4816110a0565b82525050565b5f81519050919050565b5f82825260208201905092915050565b8281835e5f83830152505050565b5f601f19601f8301169050919050565b5f6110fc826110ba565b61110681856110c4565b93506111168185602086016110d4565b61111f816110e2565b840191505092915050565b5f60408201905061113d5f8301856110ab565b818103602083015261114f81846110f2565b90509392505050565b5f60408201905061116b5f830185610ff5565b818103602083015261117d81846110f2565b90509392505050565b7f6f6e6c79206f776e6572000000000000000000000000000000000000000000005f82015250565b5f6111ba600a836110c4565b91506111c582611186565b602082019050919050565b5f6020820190508181035f8301526111e7816111ae565b9050919050565b7f4e487b71000000000000000000000000000000000000000000000000000000005f52602160045260245ffd5b7f596f75206861766520616c7265616479207375626d69747465640000000000005f82015250565b5f61124f601a836110c4565b915061125a8261121b565b602082019050919050565b5f6020820190508181035f83015261127c81611243565b9050919050565b7f5468652067616d652069732066696e6973682c206e6577207375626d697373695f8201527f6f6e206973206e6f7420616c6c6f776564000000000000000000000000000000602082015250565b5f6112dd6031836110c4565b91506112e882611283565b604082019050919050565b5f6020820190508181035f83015261130a816112d1565b9050919050565b7f4f6e6c79206f776e65722063616e207375626d69742050617373776f726400005f82015250565b5f611345601e836110c4565b915061135082611311565b602082019050919050565b5f6020820190508181035f83015261137281611339565b9050919050565b5f819050919050565b61139361138e82610f84565b611379565b82525050565b5f6113a48285611382565b6020820191506113b48284611382565b6020820191508190509392505050565b7f5468652050617373776f7264206973206e6f7420636f72726563742c20506c655f8201527f6173652074727920616761696e2e000000000000000000000000000000000000602082015250565b5f61141e602e836110c4565b9150611429826113c4565b604082019050919050565b5f6020820190508181035f83015261144b81611412565b9050919050565b7f6f6e6c7920706c617965722063616e20766965772074686520616e73776572005f82015250565b5f611486601f836110c4565b915061149182611452565b602082019050919050565b5f6020820190508181035f8301526114b38161147a565b9050919050565b7f506c6179657220646f206e6f742072657665616c0000000000000000000000005f82015250565b5f6114ee6014836110c4565b91506114f9826114ba565b602082019050919050565b5f6020820190508181035f83015261151b816114e2565b9050919050565b7f4f776e657220646f206e6f742072657665616c000000000000000000000000005f82015250565b5f6115566013836110c4565b915061156182611522565b602082019050919050565b5f6020820190508181035f8301526115838161154a565b9050919050565b7f6f776e65722063616e206e6f74205375626d697420706c6179657220416e73775f8201527f6572000000000000000000000000000000000000000000000000000000000000602082015250565b5f6115e46022836110c4565b91506115ef8261158a565b604082019050919050565b5f6020820190508181035f830152611611816115d8565b9050919050565b7f4f6e6c79206f776e65722063616e20636f6e6669726d000000000000000000005f82015250565b5f61164c6016836110c4565b915061165782611618565b602082019050919050565b5f6020820190508181035f83015261167981611640565b9050919050565b7f596f7520617265206e6f7420616c6c6f7720746f20636f6e6669726d2077696e5f8201527f6e65722061742074686973207374616765000000000000000000000000000000602082015250565b5f6116da6031836110c4565b91506116e582611680565b604082019050919050565b5f6020820190508181035f830152611707816116ce565b9050919050565b7f4f6e6c7920706c617965722063616e20636f6e6669726d0000000000000000005f82015250565b5f6117426017836110c4565b915061174d8261170e565b602082019050919050565b5f6020820190508181035f83015261176f81611736565b9050919050565b7f6f6e6c79206f776e65722063616e20766965772074686520616e7377657200005f82015250565b5f6117aa601e836110c4565b91506117b582611776565b602082019050919050565b5f6020820190508181035f8301526117d78161179e565b9050919050565b7f4f6e6c7920706c617965722063616e207375626d69742050617373776f7264005f82015250565b5f611812601f836110c4565b915061181d826117de565b602082019050919050565b5f6020820190508181035f83015261183f81611806565b9050919050565b7f4e487b71000000000000000000000000000000000000000000000000000000005f52601160045260245ffd5b5f61187d82610f84565b915061188883610f84565b92508282019050808211156118a05761189f611846565b5b92915050565b7f4e487b71000000000000000000000000000000000000000000000000000000005f52601260045260245ffd5b5f6118dd82610f84565b91506118e883610f84565b9250826118f8576118f76118a6565b5b82820690509291505056fe506c617965722077696e2c20706c6561736520636f6e6669726d20796f7520617265207468652057696e6e657220616e642067657420726577617264214f776e65722077696e2c20706c6561736520636f6e6669726d20796f7520617265207468652057696e6e657220616e64206765742072657761726421a2646970667358221220381a2791f72172da0b6bbb480b3361e3a078e4c14360653b77a135f32408263764736f6c63430008220033",
					"opcodes": "PUSH1 0x80 PUSH1 0x40 MSTORE CALLVALUE DUP1 ISZERO PUSH1 0xE JUMPI PUSH0 PUSH0 REVERT JUMPDEST POP CALLER PUSH0 PUSH0 PUSH2 0x100 EXP DUP2 SLOAD DUP2 PUSH20 0xFFFFFFFFFFFFFFFFFFFFFFFFFFFFFFFFFFFFFFFF MUL NOT AND SWAP1 DUP4 PUSH20 0xFFFFFFFFFFFFFFFFFFFFFFFFFFFFFFFFFFFFFFFF AND MUL OR SWAP1 SSTORE POP PUSH2 0x19B2 DUP1 PUSH2 0x5B PUSH0 CODECOPY PUSH0 RETURN INVALID PUSH1 0x80 PUSH1 0x40 MSTORE CALLVALUE DUP1 ISZERO PUSH2 0xF JUMPI PUSH0 PUSH0 REVERT JUMPDEST POP PUSH1 0x4 CALLDATASIZE LT PUSH2 0x9C JUMPI PUSH0 CALLDATALOAD PUSH1 0xE0 SHR DUP1 PUSH4 0x8DA5CB5B GT PUSH2 0x64 JUMPI DUP1 PUSH4 0x8DA5CB5B EQ PUSH2 0x15C JUMPI DUP1 PUSH4 0x8F693D9E EQ PUSH2 0x17A JUMPI DUP1 PUSH4 0xD55C9C84 EQ PUSH2 0x1AA JUMPI DUP1 PUSH4 0xD79830CF EQ PUSH2 0x1B4 JUMPI DUP1 PUSH4 0xFF2364B5 EQ PUSH2 0x1D2 JUMPI PUSH2 0x9C JUMP JUMPDEST DUP1 PUSH4 0x3A902846 EQ PUSH2 0xA0 JUMPI DUP1 PUSH4 0x48DB5F89 EQ PUSH2 0xD0 JUMPI DUP1 PUSH4 0x528654D7 EQ PUSH2 0xEE JUMPI DUP1 PUSH4 0x5F582011 EQ PUSH2 0x11F JUMPI DUP1 PUSH4 0x7152F800 EQ PUSH2 0x13D JUMPI JUMPDEST PUSH0 PUSH0 REVERT JUMPDEST PUSH2 0xBA PUSH1 0x4 DUP1 CALLDATASIZE SUB DUP2 ADD SWAP1 PUSH2 0xB5 SWAP2 SWAP1 PUSH2 0xFB7 JUMP JUMPDEST PUSH2 0x203 JUMP JUMPDEST PUSH1 0x40 MLOAD PUSH2 0xC7 SWAP2 SWAP1 PUSH2 0x1004 JUMP JUMPDEST PUSH1 0x40 MLOAD DUP1 SWAP2 SUB SWAP1 RETURN JUMPDEST PUSH2 0xD8 PUSH2 0x3D5 JUMP JUMPDEST PUSH1 0x40 MLOAD PUSH2 0xE5 SWAP2 SWAP1 PUSH2 0x105C JUMP JUMPDEST PUSH1 0x40 MLOAD DUP1 SWAP2 SUB SWAP1 RETURN JUMPDEST PUSH2 0x108 PUSH1 0x4 DUP1 CALLDATASIZE SUB DUP2 ADD SWAP1 PUSH2 0x103 SWAP2 SWAP1 PUSH2 0x1075 JUMP JUMPDEST PUSH2 0x3FA JUMP JUMPDEST PUSH1 0x40 MLOAD PUSH2 0x116 SWAP3 SWAP2 SWAP1 PUSH2 0x112A JUMP JUMPDEST PUSH1 0x40 MLOAD DUP1 SWAP2 SUB SWAP1 RETURN JUMPDEST PUSH2 0x127 PUSH2 0x56A JUMP JUMPDEST PUSH1 0x40 MLOAD PUSH2 0x134 SWAP2 SWAP1 PUSH2 0x1004 JUMP JUMPDEST PUSH1 0x40 MLOAD DUP1 SWAP2 SUB SWAP1 RETURN JUMPDEST PUSH2 0x145 PUSH2 0x602 JUMP JUMPDEST PUSH1 0x40 MLOAD PUSH2 0x153 SWAP3 SWAP2 SWAP1 PUSH2 0x1158 JUMP JUMPDEST PUSH1 0x40 MLOAD DUP1 SWAP2 SUB SWAP1 RETURN JUMPDEST PUSH2 0x164 PUSH2 0x74B JUMP JUMPDEST PUSH1 0x40 MLOAD PUSH2 0x171 SWAP2 SWAP1 PUSH2 0x105C JUMP JUMPDEST PUSH1 0x40 MLOAD DUP1 SWAP2 SUB SWAP1 RETURN JUMPDEST PUSH2 0x194 PUSH1 0x4 DUP1 CALLDATASIZE SUB DUP2 ADD SWAP1 PUSH2 0x18F SWAP2 SWAP1 PUSH2 0xFB7 JUMP JUMPDEST PUSH2 0x76F JUMP JUMPDEST PUSH1 0x40 MLOAD PUSH2 0x1A1 SWAP2 SWAP1 PUSH2 0x1004 JUMP JUMPDEST PUSH1 0x40 MLOAD DUP1 SWAP2 SUB SWAP1 RETURN JUMPDEST PUSH2 0x1B2 PUSH2 0x97E JUMP JUMPDEST STOP JUMPDEST PUSH2 0x1BC PUSH2 0xCE2 JUMP JUMPDEST PUSH1 0x40 MLOAD PUSH2 0x1C9 SWAP2 SWAP1 PUSH2 0x1004 JUMP JUMPDEST PUSH1 0x40 MLOAD DUP1 SWAP2 SUB SWAP1 RETURN JUMPDEST PUSH2 0x1EC PUSH1 0x4 DUP1 CALLDATASIZE SUB DUP2 ADD SWAP1 PUSH2 0x1E7 SWAP2 SWAP1 PUSH2 0x1075 JUMP JUMPDEST PUSH2 0xD79 JUMP JUMPDEST PUSH1 0x40 MLOAD PUSH2 0x1FA SWAP3 SWAP2 SWAP1 PUSH2 0x112A JUMP JUMPDEST PUSH1 0x40 MLOAD DUP1 SWAP2 SUB SWAP1 RETURN JUMPDEST PUSH0 PUSH0 PUSH0 SWAP1 SLOAD SWAP1 PUSH2 0x100 EXP SWAP1 DIV PUSH20 0xFFFFFFFFFFFFFFFFFFFFFFFFFFFFFFFFFFFFFFFF AND PUSH20 0xFFFFFFFFFFFFFFFFFFFFFFFFFFFFFFFFFFFFFFFF AND CALLER PUSH20 0xFFFFFFFFFFFFFFFFFFFFFFFFFFFFFFFFFFFFFFFF AND EQ PUSH2 0x292 JUMPI PUSH1 0x40 MLOAD PUSH32 0x8C379A000000000000000000000000000000000000000000000000000000000 DUP2 MSTORE PUSH1 0x4 ADD PUSH2 0x289 SWAP1 PUSH2 0x11D0 JUMP JUMPDEST PUSH1 0x40 MLOAD DUP1 SWAP2 SUB SWAP1 REVERT JUMPDEST PUSH1 0x1 PUSH1 0x3 DUP2 GT ISZERO PUSH2 0x2A6 JUMPI PUSH2 0x2A5 PUSH2 0x11EE JUMP JUMPDEST JUMPDEST PUSH1 0x8 PUSH1 0x1 SWAP1 SLOAD SWAP1 PUSH2 0x100 EXP SWAP1 DIV PUSH1 0xFF AND PUSH1 0x3 DUP2 GT ISZERO PUSH2 0x2C8 JUMPI PUSH2 0x2C7 PUSH2 0x11EE JUMP JUMPDEST JUMPDEST SUB PUSH2 0x308 JUMPI PUSH1 0x40 MLOAD PUSH32 0x8C379A000000000000000000000000000000000000000000000000000000000 DUP2 MSTORE PUSH1 0x4 ADD PUSH2 0x2FF SWAP1 PUSH2 0x1265 JUMP JUMPDEST PUSH1 0x40 MLOAD DUP1 SWAP2 SUB SWAP1 REVERT JUMPDEST PUSH1 0x3 DUP1 DUP2 GT ISZERO PUSH2 0x31B JUMPI PUSH2 0x31A PUSH2 0x11EE JUMP JUMPDEST JUMPDEST PUSH1 0x8 PUSH1 0x1 SWAP1 SLOAD SWAP1 PUSH2 0x100 EXP SWAP1 DIV PUSH1 0xFF AND PUSH1 0x3 DUP2 GT ISZERO PUSH2 0x33D JUMPI PUSH2 0x33C PUSH2 0x11EE JUMP JUMPDEST JUMPDEST SUB PUSH2 0x37D JUMPI PUSH1 0x40 MLOAD PUSH32 0x8C379A000000000000000000000000000000000000000000000000000000000 DUP2 MSTORE PUSH1 0x4 ADD PUSH2 0x374 SWAP1 PUSH2 0x12F3 JUMP JUMPDEST PUSH1 0x40 MLOAD DUP1 SWAP2 SUB SWAP1 REVERT JUMPDEST DUP3 PUSH1 0x1 DUP2 SWAP1 SSTORE POP DUP2 PUSH1 0x2 DUP2 SWAP1 SSTORE POP PUSH2 0x399 PUSH1 0x1 SLOAD PUSH1 0x2 SLOAD PUSH2 0xEE9 JUMP JUMPDEST PUSH1 0x3 DUP2 SWAP1 SSTORE POP PUSH1 0x1 PUSH1 0x8 PUSH1 0x1 PUSH2 0x100 EXP DUP2 SLOAD DUP2 PUSH1 0xFF MUL NOT AND SWAP1 DUP4 PUSH1 0x3 DUP2 GT ISZERO PUSH2 0x3C5 JUMPI PUSH2 0x3C4 PUSH2 0x11EE JUMP JUMPDEST JUMPDEST MUL OR SWAP1 SSTORE POP PUSH1 0x1 SLOAD SWAP1 POP SWAP3 SWAP2 POP POP JUMP JUMPDEST PUSH1 0x4 PUSH0 SWAP1 SLOAD SWAP1 PUSH2 0x100 EXP SWAP1 DIV PUSH20 0xFFFFFFFFFFFFFFFFFFFFFFFFFFFFFFFFFFFFFFFF AND DUP2 JUMP JUMPDEST PUSH0 PUSH1 0x60 PUSH0 PUSH0 SWAP1 SLOAD SWAP1 PUSH2 0x100 EXP SWAP1 DIV PUSH20 0xFFFFFFFFFFFFFFFFFFFFFFFFFFFFFFFFFFFFFFFF AND PUSH20 0xFFFFFFFFFFFFFFFFFFFFFFFFFFFFFFFFFFFFFFFF AND CALLER PUSH20 0xFFFFFFFFFFFFFFFFFFFFFFFFFFFFFFFFFFFFFFFF AND EQ PUSH2 0x48B JUMPI PUSH1 0x40 MLOAD PUSH32 0x8C379A000000000000000000000000000000000000000000000000000000000 DUP2 MSTORE PUSH1 0x4 ADD PUSH2 0x482 SWAP1 PUSH2 0x135B JUMP JUMPDEST PUSH1 0x40 MLOAD DUP1 SWAP2 SUB SWAP1 REVERT JUMPDEST PUSH0 PUSH1 0x1 SLOAD DUP5 PUSH1 0x40 MLOAD PUSH1 0x20 ADD PUSH2 0x4A1 SWAP3 SWAP2 SWAP1 PUSH2 0x1399 JUMP JUMPDEST PUSH1 0x40 MLOAD PUSH1 0x20 DUP2 DUP4 SUB SUB DUP2 MSTORE SWAP1 PUSH1 0x40 MSTORE DUP1 MLOAD SWAP1 PUSH1 0x20 ADD KECCAK256 SWAP1 POP PUSH1 0x3 SLOAD DUP2 EQ PUSH2 0x4FD JUMPI PUSH1 0x40 MLOAD PUSH32 0x8C379A000000000000000000000000000000000000000000000000000000000 DUP2 MSTORE PUSH1 0x4 ADD PUSH2 0x4F4 SWAP1 PUSH2 0x1434 JUMP JUMPDEST PUSH1 0x40 MLOAD DUP1 SWAP2 SUB SWAP1 REVERT JUMPDEST PUSH1 0x2 PUSH1 0x8 PUSH1 0x1 PUSH2 0x100 EXP DUP2 SLOAD DUP2 PUSH1 0xFF MUL NOT AND SWAP1 DUP4 PUSH1 0x3 DUP2 GT ISZERO PUSH2 0x523 JUMPI PUSH2 0x522 PUSH2 0x11EE JUMP JUMPDEST JUMPDEST MUL OR SWAP1 SSTORE POP PUSH1 0x1 PUSH1 0x40 MLOAD DUP1 PUSH1 0x40 ADD PUSH1 0x40 MSTORE DUP1 PUSH1 0x9 DUP2 MSTORE PUSH1 0x20 ADD PUSH32 0x436F6E6669726D65640000000000000000000000000000000000000000000000 DUP2 MSTORE POP SWAP3 POP SWAP3 POP POP SWAP2 POP SWAP2 JUMP JUMPDEST PUSH0 PUSH1 0x4 PUSH0 SWAP1 SLOAD SWAP1 PUSH2 0x100 EXP SWAP1 DIV PUSH20 0xFFFFFFFFFFFFFFFFFFFFFFFFFFFFFFFFFFFFFFFF AND PUSH20 0xFFFFFFFFFFFFFFFFFFFFFFFFFFFFFFFFFFFFFFFF AND CALLER PUSH20 0xFFFFFFFFFFFFFFFFFFFFFFFFFFFFFFFFFFFFFFFF AND EQ PUSH2 0x5FA JUMPI PUSH1 0x40 MLOAD PUSH32 0x8C379A000000000000000000000000000000000000000000000000000000000 DUP2 MSTORE PUSH1 0x4 ADD PUSH2 0x5F1 SWAP1 PUSH2 0x149C JUMP JUMPDEST PUSH1 0x40 MLOAD DUP1 SWAP2 SUB SWAP1 REVERT JUMPDEST PUSH1 0x5 SLOAD SWAP1 POP SWAP1 JUMP JUMPDEST PUSH0 PUSH1 0x60 PUSH1 0x2 PUSH1 0x3 DUP2 GT ISZERO PUSH2 0x619 JUMPI PUSH2 0x618 PUSH2 0x11EE JUMP JUMPDEST JUMPDEST PUSH1 0x8 PUSH0 SWAP1 SLOAD SWAP1 PUSH2 0x100 EXP SWAP1 DIV PUSH1 0xFF AND PUSH1 0x3 DUP2 GT ISZERO PUSH2 0x63A JUMPI PUSH2 0x639 PUSH2 0x11EE JUMP JUMPDEST JUMPDEST EQ PUSH2 0x67A JUMPI PUSH1 0x40 MLOAD PUSH32 0x8C379A000000000000000000000000000000000000000000000000000000000 DUP2 MSTORE PUSH1 0x4 ADD PUSH2 0x671 SWAP1 PUSH2 0x1504 JUMP JUMPDEST PUSH1 0x40 MLOAD DUP1 SWAP2 SUB SWAP1 REVERT JUMPDEST PUSH1 0x2 PUSH1 0x3 DUP2 GT ISZERO PUSH2 0x68E JUMPI PUSH2 0x68D PUSH2 0x11EE JUMP JUMPDEST JUMPDEST PUSH1 0x8 PUSH1 0x1 SWAP1 SLOAD SWAP1 PUSH2 0x100 EXP SWAP1 DIV PUSH1 0xFF AND PUSH1 0x3 DUP2 GT ISZERO PUSH2 0x6B0 JUMPI PUSH2 0x6AF PUSH2 0x11EE JUMP JUMPDEST JUMPDEST EQ PUSH2 0x6F0 JUMPI PUSH1 0x40 MLOAD PUSH32 0x8C379A000000000000000000000000000000000000000000000000000000000 DUP2 MSTORE PUSH1 0x4 ADD PUSH2 0x6E7 SWAP1 PUSH2 0x156C JUMP JUMPDEST PUSH1 0x40 MLOAD DUP1 SWAP2 SUB SWAP1 REVERT JUMPDEST PUSH0 PUSH2 0x6F9 PUSH2 0xF1B JUMP JUMPDEST SWAP1 POP PUSH1 0x3 DUP2 GT PUSH2 0x727 JUMPI DUP1 PUSH1 0x40 MLOAD DUP1 PUSH1 0x60 ADD PUSH1 0x40 MSTORE DUP1 PUSH1 0x3C DUP2 MSTORE PUSH1 0x20 ADD PUSH2 0x1941 PUSH1 0x3C SWAP2 CODECOPY SWAP3 POP SWAP3 POP POP PUSH2 0x747 JUMP JUMPDEST DUP1 PUSH1 0x40 MLOAD DUP1 PUSH1 0x60 ADD PUSH1 0x40 MSTORE DUP1 PUSH1 0x3D DUP2 MSTORE PUSH1 0x20 ADD PUSH2 0x1904 PUSH1 0x3D SWAP2 CODECOPY SWAP3 POP SWAP3 POP POP JUMPDEST SWAP1 SWAP2 JUMP JUMPDEST PUSH0 PUSH0 SWAP1 SLOAD SWAP1 PUSH2 0x100 EXP SWAP1 DIV PUSH20 0xFFFFFFFFFFFFFFFFFFFFFFFFFFFFFFFFFFFFFFFF AND DUP2 JUMP JUMPDEST PUSH0 PUSH0 PUSH0 SWAP1 SLOAD SWAP1 PUSH2 0x100 EXP SWAP1 DIV PUSH20 0xFFFFFFFFFFFFFFFFFFFFFFFFFFFFFFFFFFFFFFFF AND PUSH20 0xFFFFFFFFFFFFFFFFFFFFFFFFFFFFFFFFFFFFFFFF AND CALLER PUSH20 0xFFFFFFFFFFFFFFFFFFFFFFFFFFFFFFFFFFFFFFFF AND SUB PUSH2 0x7FE JUMPI PUSH1 0x40 MLOAD PUSH32 0x8C379A000000000000000000000000000000000000000000000000000000000 DUP2 MSTORE PUSH1 0x4 ADD PUSH2 0x7F5 SWAP1 PUSH2 0x15FA JUMP JUMPDEST PUSH1 0x40 MLOAD DUP1 SWAP2 SUB SWAP1 REVERT JUMPDEST PUSH1 0x1 PUSH1 0x3 DUP2 GT ISZERO PUSH2 0x812 JUMPI PUSH2 0x811 PUSH2 0x11EE JUMP JUMPDEST JUMPDEST PUSH1 0x8 PUSH0 SWAP1 SLOAD SWAP1 PUSH2 0x100 EXP SWAP1 DIV PUSH1 0xFF AND PUSH1 0x3 DUP2 GT ISZERO PUSH2 0x833 JUMPI PUSH2 0x832 PUSH2 0x11EE JUMP JUMPDEST JUMPDEST SUB PUSH2 0x873 JUMPI PUSH1 0x40 MLOAD PUSH32 0x8C379A000000000000000000000000000000000000000000000000000000000 DUP2 MSTORE PUSH1 0x4 ADD PUSH2 0x86A SWAP1 PUSH2 0x1265 JUMP JUMPDEST PUSH1 0x40 MLOAD DUP1 SWAP2 SUB SWAP1 REVERT JUMPDEST PUSH1 0x3 DUP1 DUP2 GT ISZERO PUSH2 0x886 JUMPI PUSH2 0x885 PUSH2 0x11EE JUMP JUMPDEST JUMPDEST PUSH1 0x8 PUSH0 SWAP1 SLOAD SWAP1 PUSH2 0x100 EXP SWAP1 DIV PUSH1 0xFF AND PUSH1 0x3 DUP2 GT ISZERO PUSH2 0x8A7 JUMPI PUSH2 0x8A6 PUSH2 0x11EE JUMP JUMPDEST JUMPDEST SUB PUSH2 0x8E7 JUMPI PUSH1 0x40 MLOAD PUSH32 0x8C379A000000000000000000000000000000000000000000000000000000000 DUP2 MSTORE PUSH1 0x4 ADD PUSH2 0x8DE SWAP1 PUSH2 0x12F3 JUMP JUMPDEST PUSH1 0x40 MLOAD DUP1 SWAP2 SUB SWAP1 REVERT JUMPDEST CALLER PUSH1 0x4 PUSH0 PUSH2 0x100 EXP DUP2 SLOAD DUP2 PUSH20 0xFFFFFFFFFFFFFFFFFFFFFFFFFFFFFFFFFFFFFFFF MUL NOT AND SWAP1 DUP4 PUSH20 0xFFFFFFFFFFFFFFFFFFFFFFFFFFFFFFFFFFFFFFFF AND MUL OR SWAP1 SSTORE POP DUP3 PUSH1 0x5 DUP2 SWAP1 SSTORE POP DUP2 PUSH1 0x6 DUP2 SWAP1 SSTORE POP PUSH2 0x943 PUSH1 0x5 SLOAD PUSH1 0x6 SLOAD PUSH2 0xF4E JUMP JUMPDEST PUSH1 0x7 DUP2 SWAP1 SSTORE POP PUSH1 0x1 PUSH1 0x8 PUSH0 PUSH2 0x100 EXP DUP2 SLOAD DUP2 PUSH1 0xFF MUL NOT AND SWAP1 DUP4 PUSH1 0x3 DUP2 GT ISZERO PUSH2 0x96E JUMPI PUSH2 0x96D PUSH2 0x11EE JUMP JUMPDEST JUMPDEST MUL OR SWAP1 SSTORE POP PUSH1 0x5 SLOAD SWAP1 POP SWAP3 SWAP2 POP POP JUMP JUMPDEST PUSH1 0x2 PUSH1 0x3 DUP2 GT ISZERO PUSH2 0x992 JUMPI PUSH2 0x991 PUSH2 0x11EE JUMP JUMPDEST JUMPDEST PUSH1 0x8 PUSH0 SWAP1 SLOAD SWAP1 PUSH2 0x100 EXP SWAP1 DIV PUSH1 0xFF AND PUSH1 0x3 DUP2 GT ISZERO PUSH2 0x9B3 JUMPI PUSH2 0x9B2 PUSH2 0x11EE JUMP JUMPDEST JUMPDEST EQ PUSH2 0x9F3 JUMPI PUSH1 0x40 MLOAD PUSH32 0x8C379A000000000000000000000000000000000000000000000000000000000 DUP2 MSTORE PUSH1 0x4 ADD PUSH2 0x9EA SWAP1 PUSH2 0x1504 JUMP JUMPDEST PUSH1 0x40 MLOAD DUP1 SWAP2 SUB SWAP1 REVERT JUMPDEST PUSH1 0x2 PUSH1 0x3 DUP2 GT ISZERO PUSH2 0xA07 JUMPI PUSH2 0xA06 PUSH2 0x11EE JUMP JUMPDEST JUMPDEST PUSH1 0x8 PUSH1 0x1 SWAP1 SLOAD SWAP1 PUSH2 0x100 EXP SWAP1 DIV PUSH1 0xFF AND PUSH1 0x3 DUP2 GT ISZERO PUSH2 0xA29 JUMPI PUSH2 0xA28 PUSH2 0x11EE JUMP JUMPDEST JUMPDEST EQ PUSH2 0xA69 JUMPI PUSH1 0x40 MLOAD PUSH32 0x8C379A000000000000000000000000000000000000000000000000000000000 DUP2 MSTORE PUSH1 0x4 ADD PUSH2 0xA60 SWAP1 PUSH2 0x156C JUMP JUMPDEST PUSH1 0x40 MLOAD DUP1 SWAP2 SUB SWAP1 REVERT JUMPDEST PUSH0 PUSH2 0xA72 PUSH2 0xF1B JUMP JUMPDEST SWAP1 POP PUSH1 0x3 DUP2 GT PUSH2 0xBB0 JUMPI PUSH0 PUSH0 SWAP1 SLOAD SWAP1 PUSH2 0x100 EXP SWAP1 DIV PUSH20 0xFFFFFFFFFFFFFFFFFFFFFFFFFFFFFFFFFFFFFFFF AND PUSH20 0xFFFFFFFFFFFFFFFFFFFFFFFFFFFFFFFFFFFFFFFF AND CALLER PUSH20 0xFFFFFFFFFFFFFFFFFFFFFFFFFFFFFFFFFFFFFFFF AND EQ PUSH2 0xB0A JUMPI PUSH1 0x40 MLOAD PUSH32 0x8C379A000000000000000000000000000000000000000000000000000000000 DUP2 MSTORE PUSH1 0x4 ADD PUSH2 0xB01 SWAP1 PUSH2 0x1662 JUMP JUMPDEST PUSH1 0x40 MLOAD DUP1 SWAP2 SUB SWAP1 REVERT JUMPDEST PUSH1 0x1 PUSH1 0x3 DUP2 GT ISZERO PUSH2 0xB1E JUMPI PUSH2 0xB1D PUSH2 0x11EE JUMP JUMPDEST JUMPDEST PUSH1 0x8 PUSH1 0x1 SWAP1 SLOAD SWAP1 PUSH2 0x100 EXP SWAP1 DIV PUSH1 0xFF AND PUSH1 0x3 DUP2 GT ISZERO PUSH2 0xB40 JUMPI PUSH2 0xB3F PUSH2 0x11EE JUMP JUMPDEST JUMPDEST EQ PUSH2 0xB80 JUMPI PUSH1 0x40 MLOAD PUSH32 0x8C379A000000000000000000000000000000000000000000000000000000000 DUP2 MSTORE PUSH1 0x4 ADD PUSH2 0xB77 SWAP1 PUSH2 0x16F0 JUMP JUMPDEST PUSH1 0x40 MLOAD DUP1 SWAP2 SUB SWAP1 REVERT JUMPDEST PUSH1 0x3 PUSH1 0x8 PUSH1 0x1 PUSH2 0x100 EXP DUP2 SLOAD DUP2 PUSH1 0xFF MUL NOT AND SWAP1 DUP4 PUSH1 0x3 DUP2 GT ISZERO PUSH2 0xBA6 JUMPI PUSH2 0xBA5 PUSH2 0x11EE JUMP JUMPDEST JUMPDEST MUL OR SWAP1 SSTORE POP PUSH2 0xCDF JUMP JUMPDEST PUSH1 0x4 PUSH0 SWAP1 SLOAD SWAP1 PUSH2 0x100 EXP SWAP1 DIV PUSH20 0xFFFFFFFFFFFFFFFFFFFFFFFFFFFFFFFFFFFFFFFF AND PUSH20 0xFFFFFFFFFFFFFFFFFFFFFFFFFFFFFFFFFFFFFFFF AND CALLER PUSH20 0xFFFFFFFFFFFFFFFFFFFFFFFFFFFFFFFFFFFFFFFF AND EQ PUSH2 0xC3F JUMPI PUSH1 0x40 MLOAD PUSH32 0x8C379A000000000000000000000000000000000000000000000000000000000 DUP2 MSTORE PUSH1 0x4 ADD PUSH2 0xC36 SWAP1 PUSH2 0x1758 JUMP JUMPDEST PUSH1 0x40 MLOAD DUP1 SWAP2 SUB SWAP1 REVERT JUMPDEST PUSH1 0x1 PUSH1 0x3 DUP2 GT ISZERO PUSH2 0xC53 JUMPI PUSH2 0xC52 PUSH2 0x11EE JUMP JUMPDEST JUMPDEST PUSH1 0x8 PUSH0 SWAP1 SLOAD SWAP1 PUSH2 0x100 EXP SWAP1 DIV PUSH1 0xFF AND PUSH1 0x3 DUP2 GT ISZERO PUSH2 0xC74 JUMPI PUSH2 0xC73 PUSH2 0x11EE JUMP JUMPDEST JUMPDEST EQ PUSH2 0xCB4 JUMPI PUSH1 0x40 MLOAD PUSH32 0x8C379A000000000000000000000000000000000000000000000000000000000 DUP2 MSTORE PUSH1 0x4 ADD PUSH2 0xCAB SWAP1 PUSH2 0x16F0 JUMP JUMPDEST PUSH1 0x40 MLOAD DUP1 SWAP2 SUB SWAP1 REVERT JUMPDEST PUSH1 0x3 PUSH1 0x8 PUSH0 PUSH2 0x100 EXP DUP2 SLOAD DUP2 PUSH1 0xFF MUL NOT AND SWAP1 DUP4 PUSH1 0x3 DUP2 GT ISZERO PUSH2 0xCD9 JUMPI PUSH2 0xCD8 PUSH2 0x11EE JUMP JUMPDEST JUMPDEST MUL OR SWAP1 SSTORE POP JUMPDEST POP JUMP JUMPDEST PUSH0 PUSH0 PUSH0 SWAP1 SLOAD SWAP1 PUSH2 0x100 EXP SWAP1 DIV PUSH20 0xFFFFFFFFFFFFFFFFFFFFFFFFFFFFFFFFFFFFFFFF AND PUSH20 0xFFFFFFFFFFFFFFFFFFFFFFFFFFFFFFFFFFFFFFFF AND CALLER PUSH20 0xFFFFFFFFFFFFFFFFFFFFFFFFFFFFFFFFFFFFFFFF AND EQ PUSH2 0xD71 JUMPI PUSH1 0x40 MLOAD PUSH32 0x8C379A000000000000000000000000000000000000000000000000000000000 DUP2 MSTORE PUSH1 0x4 ADD PUSH2 0xD68 SWAP1 PUSH2 0x17C0 JUMP JUMPDEST PUSH1 0x40 MLOAD DUP1 SWAP2 SUB SWAP1 REVERT JUMPDEST PUSH1 0x1 SLOAD SWAP1 POP SWAP1 JUMP JUMPDEST PUSH0 PUSH1 0x60 PUSH1 0x4 PUSH0 SWAP1 SLOAD SWAP1 PUSH2 0x100 EXP SWAP1 DIV PUSH20 0xFFFFFFFFFFFFFFFFFFFFFFFFFFFFFFFFFFFFFFFF AND PUSH20 0xFFFFFFFFFFFFFFFFFFFFFFFFFFFFFFFFFFFFFFFF AND CALLER PUSH20 0xFFFFFFFFFFFFFFFFFFFFFFFFFFFFFFFFFFFFFFFF AND EQ PUSH2 0xE0B JUMPI PUSH1 0x40 MLOAD PUSH32 0x8C379A000000000000000000000000000000000000000000000000000000000 DUP2 MSTORE PUSH1 0x4 ADD PUSH2 0xE02 SWAP1 PUSH2 0x1828 JUMP JUMPDEST PUSH1 0x40 MLOAD DUP1 SWAP2 SUB SWAP1 REVERT JUMPDEST PUSH0 PUSH1 0x5 SLOAD DUP5 PUSH1 0x40 MLOAD PUSH1 0x20 ADD PUSH2 0xE21 SWAP3 SWAP2 SWAP1 PUSH2 0x1399 JUMP JUMPDEST PUSH1 0x40 MLOAD PUSH1 0x20 DUP2 DUP4 SUB SUB DUP2 MSTORE SWAP1 PUSH1 0x40 MSTORE DUP1 MLOAD SWAP1 PUSH1 0x20 ADD KECCAK256 SWAP1 POP PUSH1 0x7 SLOAD DUP2 EQ PUSH2 0xE7D JUMPI PUSH1 0x40 MLOAD PUSH32 0x8C379A000000000000000000000000000000000000000000000000000000000 DUP2 MSTORE PUSH1 0x4 ADD PUSH2 0xE74 SWAP1 PUSH2 0x1434 JUMP JUMPDEST PUSH1 0x40 MLOAD DUP1 SWAP2 SUB SWAP1 REVERT JUMPDEST PUSH1 0x2 PUSH1 0x8 PUSH0 PUSH2 0x100 EXP DUP2 SLOAD DUP2 PUSH1 0xFF MUL NOT AND SWAP1 DUP4 PUSH1 0x3 DUP2 GT ISZERO PUSH2 0xEA2 JUMPI PUSH2 0xEA1 PUSH2 0x11EE JUMP JUMPDEST JUMPDEST MUL OR SWAP1 SSTORE POP PUSH1 0x1 PUSH1 0x40 MLOAD DUP1 PUSH1 0x40 ADD PUSH1 0x40 MSTORE DUP1 PUSH1 0x9 DUP2 MSTORE PUSH1 0x20 ADD PUSH32 0x436F6E6669726D65640000000000000000000000000000000000000000000000 DUP2 MSTORE POP SWAP3 POP SWAP3 POP POP SWAP2 POP SWAP2 JUMP JUMPDEST PUSH0 DUP3 DUP3 PUSH1 0x40 MLOAD PUSH1 0x20 ADD PUSH2 0xEFD SWAP3 SWAP2 SWAP1 PUSH2 0x1399 JUMP JUMPDEST PUSH1 0x40 MLOAD PUSH1 0x20 DUP2 DUP4 SUB SUB DUP2 MSTORE SWAP1 PUSH1 0x40 MSTORE DUP1 MLOAD SWAP1 PUSH1 0x20 ADD KECCAK256 SWAP1 POP SWAP3 SWAP2 POP POP JUMP JUMPDEST PUSH0 PUSH0 PUSH1 0x1 PUSH1 0x6 PUSH1 0x1 SLOAD PUSH1 0x5 SLOAD PUSH2 0xF31 SWAP2 SWAP1 PUSH2 0x1873 JUMP JUMPDEST PUSH2 0xF3B SWAP2 SWAP1 PUSH2 0x18D3 JUMP JUMPDEST PUSH2 0xF45 SWAP2 SWAP1 PUSH2 0x1873 JUMP JUMPDEST SWAP1 POP DUP1 SWAP2 POP POP SWAP1 JUMP JUMPDEST PUSH0 DUP3 DUP3 PUSH1 0x40 MLOAD PUSH1 0x20 ADD PUSH2 0xF62 SWAP3 SWAP2 SWAP1 PUSH2 0x1399 JUMP JUMPDEST PUSH1 0x40 MLOAD PUSH1 0x20 DUP2 DUP4 SUB SUB DUP2 MSTORE SWAP1 PUSH1 0x40 MSTORE DUP1 MLOAD SWAP1 PUSH1 0x20 ADD KECCAK256 SWAP1 POP SWAP3 SWAP2 POP POP JUMP JUMPDEST PUSH0 PUSH0 REVERT JUMPDEST PUSH0 DUP2 SWAP1 POP SWAP2 SWAP1 POP JUMP JUMPDEST PUSH2 0xF96 DUP2 PUSH2 0xF84 JUMP JUMPDEST DUP2 EQ PUSH2 0xFA0 JUMPI PUSH0 PUSH0 REVERT JUMPDEST POP JUMP JUMPDEST PUSH0 DUP2 CALLDATALOAD SWAP1 POP PUSH2 0xFB1 DUP2 PUSH2 0xF8D JUMP JUMPDEST SWAP3 SWAP2 POP POP JUMP JUMPDEST PUSH0 PUSH0 PUSH1 0x40 DUP4 DUP6 SUB SLT ISZERO PUSH2 0xFCD JUMPI PUSH2 0xFCC PUSH2 0xF80 JUMP JUMPDEST JUMPDEST PUSH0 PUSH2 0xFDA DUP6 DUP3 DUP7 ADD PUSH2 0xFA3 JUMP JUMPDEST SWAP3 POP POP PUSH1 0x20 PUSH2 0xFEB DUP6 DUP3 DUP7 ADD PUSH2 0xFA3 JUMP JUMPDEST SWAP2 POP POP SWAP3 POP SWAP3 SWAP1 POP JUMP JUMPDEST PUSH2 0xFFE DUP2 PUSH2 0xF84 JUMP JUMPDEST DUP3 MSTORE POP POP JUMP JUMPDEST PUSH0 PUSH1 0x20 DUP3 ADD SWAP1 POP PUSH2 0x1017 PUSH0 DUP4 ADD DUP5 PUSH2 0xFF5 JUMP JUMPDEST SWAP3 SWAP2 POP POP JUMP JUMPDEST PUSH0 PUSH20 0xFFFFFFFFFFFFFFFFFFFFFFFFFFFFFFFFFFFFFFFF DUP3 AND SWAP1 POP SWAP2 SWAP1 POP JUMP JUMPDEST PUSH0 PUSH2 0x1046 DUP3 PUSH2 0x101D JUMP JUMPDEST SWAP1 POP SWAP2 SWAP1 POP JUMP JUMPDEST PUSH2 0x1056 DUP2 PUSH2 0x103C JUMP JUMPDEST DUP3 MSTORE POP POP JUMP JUMPDEST PUSH0 PUSH1 0x20 DUP3 ADD SWAP1 POP PUSH2 0x106F PUSH0 DUP4 ADD DUP5 PUSH2 0x104D JUMP JUMPDEST SWAP3 SWAP2 POP POP JUMP JUMPDEST PUSH0 PUSH1 0x20 DUP3 DUP5 SUB SLT ISZERO PUSH2 0x108A JUMPI PUSH2 0x1089 PUSH2 0xF80 JUMP JUMPDEST JUMPDEST PUSH0 PUSH2 0x1097 DUP5 DUP3 DUP6 ADD PUSH2 0xFA3 JUMP JUMPDEST SWAP2 POP POP SWAP3 SWAP2 POP POP JUMP JUMPDEST PUSH0 DUP2 ISZERO ISZERO SWAP1 POP SWAP2 SWAP1 POP JUMP JUMPDEST PUSH2 0x10B4 DUP2 PUSH2 0x10A0 JUMP JUMPDEST DUP3 MSTORE POP POP JUMP JUMPDEST PUSH0 DUP2 MLOAD SWAP1 POP SWAP2 SWAP1 POP JUMP JUMPDEST PUSH0 DUP3 DUP3 MSTORE PUSH1 0x20 DUP3 ADD SWAP1 POP SWAP3 SWAP2 POP POP JUMP JUMPDEST DUP3 DUP2 DUP4 MCOPY PUSH0 DUP4 DUP4 ADD MSTORE POP POP POP JUMP JUMPDEST PUSH0 PUSH1 0x1F NOT PUSH1 0x1F DUP4 ADD AND SWAP1 POP SWAP2 SWAP1 POP JUMP JUMPDEST PUSH0 PUSH2 0x10FC DUP3 PUSH2 0x10BA JUMP JUMPDEST PUSH2 0x1106 DUP2 DUP6 PUSH2 0x10C4 JUMP JUMPDEST SWAP4 POP PUSH2 0x1116 DUP2 DUP6 PUSH1 0x20 DUP7 ADD PUSH2 0x10D4 JUMP JUMPDEST PUSH2 0x111F DUP2 PUSH2 0x10E2 JUMP JUMPDEST DUP5 ADD SWAP2 POP POP SWAP3 SWAP2 POP POP JUMP JUMPDEST PUSH0 PUSH1 0x40 DUP3 ADD SWAP1 POP PUSH2 0x113D PUSH0 DUP4 ADD DUP6 PUSH2 0x10AB JUMP JUMPDEST DUP2 DUP2 SUB PUSH1 0x20 DUP4 ADD MSTORE PUSH2 0x114F DUP2 DUP5 PUSH2 0x10F2 JUMP JUMPDEST SWAP1 POP SWAP4 SWAP3 POP POP POP JUMP JUMPDEST PUSH0 PUSH1 0x40 DUP3 ADD SWAP1 POP PUSH2 0x116B PUSH0 DUP4 ADD DUP6 PUSH2 0xFF5 JUMP JUMPDEST DUP2 DUP2 SUB PUSH1 0x20 DUP4 ADD MSTORE PUSH2 0x117D DUP2 DUP5 PUSH2 0x10F2 JUMP JUMPDEST SWAP1 POP SWAP4 SWAP3 POP POP POP JUMP JUMPDEST PUSH32 0x6F6E6C79206F776E657200000000000000000000000000000000000000000000 PUSH0 DUP3 ADD MSTORE POP JUMP JUMPDEST PUSH0 PUSH2 0x11BA PUSH1 0xA DUP4 PUSH2 0x10C4 JUMP JUMPDEST SWAP2 POP PUSH2 0x11C5 DUP3 PUSH2 0x1186 JUMP JUMPDEST PUSH1 0x20 DUP3 ADD SWAP1 POP SWAP2 SWAP1 POP JUMP JUMPDEST PUSH0 PUSH1 0x20 DUP3 ADD SWAP1 POP DUP2 DUP2 SUB PUSH0 DUP4 ADD MSTORE PUSH2 0x11E7 DUP2 PUSH2 0x11AE JUMP JUMPDEST SWAP1 POP SWAP2 SWAP1 POP JUMP JUMPDEST PUSH32 0x4E487B7100000000000000000000000000000000000000000000000000000000 PUSH0 MSTORE PUSH1 0x21 PUSH1 0x4 MSTORE PUSH1 0x24 PUSH0 REVERT JUMPDEST PUSH32 0x596F75206861766520616C7265616479207375626D6974746564000000000000 PUSH0 DUP3 ADD MSTORE POP JUMP JUMPDEST PUSH0 PUSH2 0x124F PUSH1 0x1A DUP4 PUSH2 0x10C4 JUMP JUMPDEST SWAP2 POP PUSH2 0x125A DUP3 PUSH2 0x121B JUMP JUMPDEST PUSH1 0x20 DUP3 ADD SWAP1 POP SWAP2 SWAP1 POP JUMP JUMPDEST PUSH0 PUSH1 0x20 DUP3 ADD SWAP1 POP DUP2 DUP2 SUB PUSH0 DUP4 ADD MSTORE PUSH2 0x127C DUP2 PUSH2 0x1243 JUMP JUMPDEST SWAP1 POP SWAP2 SWAP1 POP JUMP JUMPDEST PUSH32 0x5468652067616D652069732066696E6973682C206E6577207375626D69737369 PUSH0 DUP3 ADD MSTORE PUSH32 0x6F6E206973206E6F7420616C6C6F776564000000000000000000000000000000 PUSH1 0x20 DUP3 ADD MSTORE POP JUMP JUMPDEST PUSH0 PUSH2 0x12DD PUSH1 0x31 DUP4 PUSH2 0x10C4 JUMP JUMPDEST SWAP2 POP PUSH2 0x12E8 DUP3 PUSH2 0x1283 JUMP JUMPDEST PUSH1 0x40 DUP3 ADD SWAP1 POP SWAP2 SWAP1 POP JUMP JUMPDEST PUSH0 PUSH1 0x20 DUP3 ADD SWAP1 POP DUP2 DUP2 SUB PUSH0 DUP4 ADD MSTORE PUSH2 0x130A DUP2 PUSH2 0x12D1 JUMP JUMPDEST SWAP1 POP SWAP2 SWAP1 POP JUMP JUMPDEST PUSH32 0x4F6E6C79206F776E65722063616E207375626D69742050617373776F72640000 PUSH0 DUP3 ADD MSTORE POP JUMP JUMPDEST PUSH0 PUSH2 0x1345 PUSH1 0x1E DUP4 PUSH2 0x10C4 JUMP JUMPDEST SWAP2 POP PUSH2 0x1350 DUP3 PUSH2 0x1311 JUMP JUMPDEST PUSH1 0x20 DUP3 ADD SWAP1 POP SWAP2 SWAP1 POP JUMP JUMPDEST PUSH0 PUSH1 0x20 DUP3 ADD SWAP1 POP DUP2 DUP2 SUB PUSH0 DUP4 ADD MSTORE PUSH2 0x1372 DUP2 PUSH2 0x1339 JUMP JUMPDEST SWAP1 POP SWAP2 SWAP1 POP JUMP JUMPDEST PUSH0 DUP2 SWAP1 POP SWAP2 SWAP1 POP JUMP JUMPDEST PUSH2 0x1393 PUSH2 0x138E DUP3 PUSH2 0xF84 JUMP JUMPDEST PUSH2 0x1379 JUMP JUMPDEST DUP3 MSTORE POP POP JUMP JUMPDEST PUSH0 PUSH2 0x13A4 DUP3 DUP6 PUSH2 0x1382 JUMP JUMPDEST PUSH1 0x20 DUP3 ADD SWAP2 POP PUSH2 0x13B4 DUP3 DUP5 PUSH2 0x1382 JUMP JUMPDEST PUSH1 0x20 DUP3 ADD SWAP2 POP DUP2 SWAP1 POP SWAP4 SWAP3 POP POP POP JUMP JUMPDEST PUSH32 0x5468652050617373776F7264206973206E6F7420636F72726563742C20506C65 PUSH0 DUP3 ADD MSTORE PUSH32 0x6173652074727920616761696E2E000000000000000000000000000000000000 PUSH1 0x20 DUP3 ADD MSTORE POP JUMP JUMPDEST PUSH0 PUSH2 0x141E PUSH1 0x2E DUP4 PUSH2 0x10C4 JUMP JUMPDEST SWAP2 POP PUSH2 0x1429 DUP3 PUSH2 0x13C4 JUMP JUMPDEST PUSH1 0x40 DUP3 ADD SWAP1 POP SWAP2 SWAP1 POP JUMP JUMPDEST PUSH0 PUSH1 0x20 DUP3 ADD SWAP1 POP DUP2 DUP2 SUB PUSH0 DUP4 ADD MSTORE PUSH2 0x144B DUP2 PUSH2 0x1412 JUMP JUMPDEST SWAP1 POP SWAP2 SWAP1 POP JUMP JUMPDEST PUSH32 0x6F6E6C7920706C617965722063616E20766965772074686520616E7377657200 PUSH0 DUP3 ADD MSTORE POP JUMP JUMPDEST PUSH0 PUSH2 0x1486 PUSH1 0x1F DUP4 PUSH2 0x10C4 JUMP JUMPDEST SWAP2 POP PUSH2 0x1491 DUP3 PUSH2 0x1452 JUMP JUMPDEST PUSH1 0x20 DUP3 ADD SWAP1 POP SWAP2 SWAP1 POP JUMP JUMPDEST PUSH0 PUSH1 0x20 DUP3 ADD SWAP1 POP DUP2 DUP2 SUB PUSH0 DUP4 ADD MSTORE PUSH2 0x14B3 DUP2 PUSH2 0x147A JUMP JUMPDEST SWAP1 POP SWAP2 SWAP1 POP JUMP JUMPDEST PUSH32 0x506C6179657220646F206E6F742072657665616C000000000000000000000000 PUSH0 DUP3 ADD MSTORE POP JUMP JUMPDEST PUSH0 PUSH2 0x14EE PUSH1 0x14 DUP4 PUSH2 0x10C4 JUMP JUMPDEST SWAP2 POP PUSH2 0x14F9 DUP3 PUSH2 0x14BA JUMP JUMPDEST PUSH1 0x20 DUP3 ADD SWAP1 POP SWAP2 SWAP1 POP JUMP JUMPDEST PUSH0 PUSH1 0x20 DUP3 ADD SWAP1 POP DUP2 DUP2 SUB PUSH0 DUP4 ADD MSTORE PUSH2 0x151B DUP2 PUSH2 0x14E2 JUMP JUMPDEST SWAP1 POP SWAP2 SWAP1 POP JUMP JUMPDEST PUSH32 0x4F776E657220646F206E6F742072657665616C00000000000000000000000000 PUSH0 DUP3 ADD MSTORE POP JUMP JUMPDEST PUSH0 PUSH2 0x1556 PUSH1 0x13 DUP4 PUSH2 0x10C4 JUMP JUMPDEST SWAP2 POP PUSH2 0x1561 DUP3 PUSH2 0x1522 JUMP JUMPDEST PUSH1 0x20 DUP3 ADD SWAP1 POP SWAP2 SWAP1 POP JUMP JUMPDEST PUSH0 PUSH1 0x20 DUP3 ADD SWAP1 POP DUP2 DUP2 SUB PUSH0 DUP4 ADD MSTORE PUSH2 0x1583 DUP2 PUSH2 0x154A JUMP JUMPDEST SWAP1 POP SWAP2 SWAP1 POP JUMP JUMPDEST PUSH32 0x6F776E65722063616E206E6F74205375626D697420706C6179657220416E7377 PUSH0 DUP3 ADD MSTORE PUSH32 0x6572000000000000000000000000000000000000000000000000000000000000 PUSH1 0x20 DUP3 ADD MSTORE POP JUMP JUMPDEST PUSH0 PUSH2 0x15E4 PUSH1 0x22 DUP4 PUSH2 0x10C4 JUMP JUMPDEST SWAP2 POP PUSH2 0x15EF DUP3 PUSH2 0x158A JUMP JUMPDEST PUSH1 0x40 DUP3 ADD SWAP1 POP SWAP2 SWAP1 POP JUMP JUMPDEST PUSH0 PUSH1 0x20 DUP3 ADD SWAP1 POP DUP2 DUP2 SUB PUSH0 DUP4 ADD MSTORE PUSH2 0x1611 DUP2 PUSH2 0x15D8 JUMP JUMPDEST SWAP1 POP SWAP2 SWAP1 POP JUMP JUMPDEST PUSH32 0x4F6E6C79206F776E65722063616E20636F6E6669726D00000000000000000000 PUSH0 DUP3 ADD MSTORE POP JUMP JUMPDEST PUSH0 PUSH2 0x164C PUSH1 0x16 DUP4 PUSH2 0x10C4 JUMP JUMPDEST SWAP2 POP PUSH2 0x1657 DUP3 PUSH2 0x1618 JUMP JUMPDEST PUSH1 0x20 DUP3 ADD SWAP1 POP SWAP2 SWAP1 POP JUMP JUMPDEST PUSH0 PUSH1 0x20 DUP3 ADD SWAP1 POP DUP2 DUP2 SUB PUSH0 DUP4 ADD MSTORE PUSH2 0x1679 DUP2 PUSH2 0x1640 JUMP JUMPDEST SWAP1 POP SWAP2 SWAP1 POP JUMP JUMPDEST PUSH32 0x596F7520617265206E6F7420616C6C6F7720746F20636F6E6669726D2077696E PUSH0 DUP3 ADD MSTORE PUSH32 0x6E65722061742074686973207374616765000000000000000000000000000000 PUSH1 0x20 DUP3 ADD MSTORE POP JUMP JUMPDEST PUSH0 PUSH2 0x16DA PUSH1 0x31 DUP4 PUSH2 0x10C4 JUMP JUMPDEST SWAP2 POP PUSH2 0x16E5 DUP3 PUSH2 0x1680 JUMP JUMPDEST PUSH1 0x40 DUP3 ADD SWAP1 POP SWAP2 SWAP1 POP JUMP JUMPDEST PUSH0 PUSH1 0x20 DUP3 ADD SWAP1 POP DUP2 DUP2 SUB PUSH0 DUP4 ADD MSTORE PUSH2 0x1707 DUP2 PUSH2 0x16CE JUMP JUMPDEST SWAP1 POP SWAP2 SWAP1 POP JUMP JUMPDEST PUSH32 0x4F6E6C7920706C617965722063616E20636F6E6669726D000000000000000000 PUSH0 DUP3 ADD MSTORE POP JUMP JUMPDEST PUSH0 PUSH2 0x1742 PUSH1 0x17 DUP4 PUSH2 0x10C4 JUMP JUMPDEST SWAP2 POP PUSH2 0x174D DUP3 PUSH2 0x170E JUMP JUMPDEST PUSH1 0x20 DUP3 ADD SWAP1 POP SWAP2 SWAP1 POP JUMP JUMPDEST PUSH0 PUSH1 0x20 DUP3 ADD SWAP1 POP DUP2 DUP2 SUB PUSH0 DUP4 ADD MSTORE PUSH2 0x176F DUP2 PUSH2 0x1736 JUMP JUMPDEST SWAP1 POP SWAP2 SWAP1 POP JUMP JUMPDEST PUSH32 0x6F6E6C79206F776E65722063616E20766965772074686520616E737765720000 PUSH0 DUP3 ADD MSTORE POP JUMP JUMPDEST PUSH0 PUSH2 0x17AA PUSH1 0x1E DUP4 PUSH2 0x10C4 JUMP JUMPDEST SWAP2 POP PUSH2 0x17B5 DUP3 PUSH2 0x1776 JUMP JUMPDEST PUSH1 0x20 DUP3 ADD SWAP1 POP SWAP2 SWAP1 POP JUMP JUMPDEST PUSH0 PUSH1 0x20 DUP3 ADD SWAP1 POP DUP2 DUP2 SUB PUSH0 DUP4 ADD MSTORE PUSH2 0x17D7 DUP2 PUSH2 0x179E JUMP JUMPDEST SWAP1 POP SWAP2 SWAP1 POP JUMP JUMPDEST PUSH32 0x4F6E6C7920706C617965722063616E207375626D69742050617373776F726400 PUSH0 DUP3 ADD MSTORE POP JUMP JUMPDEST PUSH0 PUSH2 0x1812 PUSH1 0x1F DUP4 PUSH2 0x10C4 JUMP JUMPDEST SWAP2 POP PUSH2 0x181D DUP3 PUSH2 0x17DE JUMP JUMPDEST PUSH1 0x20 DUP3 ADD SWAP1 POP SWAP2 SWAP1 POP JUMP JUMPDEST PUSH0 PUSH1 0x20 DUP3 ADD SWAP1 POP DUP2 DUP2 SUB PUSH0 DUP4 ADD MSTORE PUSH2 0x183F DUP2 PUSH2 0x1806 JUMP JUMPDEST SWAP1 POP SWAP2 SWAP1 POP JUMP JUMPDEST PUSH32 0x4E487B7100000000000000000000000000000000000000000000000000000000 PUSH0 MSTORE PUSH1 0x11 PUSH1 0x4 MSTORE PUSH1 0x24 PUSH0 REVERT JUMPDEST PUSH0 PUSH2 0x187D DUP3 PUSH2 0xF84 JUMP JUMPDEST SWAP2 POP PUSH2 0x1888 DUP4 PUSH2 0xF84 JUMP JUMPDEST SWAP3 POP DUP3 DUP3 ADD SWAP1 POP DUP1 DUP3 GT ISZERO PUSH2 0x18A0 JUMPI PUSH2 0x189F PUSH2 0x1846 JUMP JUMPDEST JUMPDEST SWAP3 SWAP2 POP POP JUMP JUMPDEST PUSH32 0x4E487B7100000000000000000000000000000000000000000000000000000000 PUSH0 MSTORE PUSH1 0x12 PUSH1 0x4 MSTORE PUSH1 0x24 PUSH0 REVERT JUMPDEST PUSH0 PUSH2 0x18DD DUP3 PUSH2 0xF84 JUMP JUMPDEST SWAP2 POP PUSH2 0x18E8 DUP4 PUSH2 0xF84 JUMP JUMPDEST SWAP3 POP DUP3 PUSH2 0x18F8 JUMPI PUSH2 0x18F7 PUSH2 0x18A6 JUMP JUMPDEST JUMPDEST DUP3 DUP3 MOD SWAP1 POP SWAP3 SWAP2 POP POP JUMP INVALID POP PUSH13 0x617965722077696E2C20706C65 PUSH2 0x7365 KECCAK256 PUSH4 0x6F6E6669 PUSH19 0x6D20796F7520617265207468652057696E6E65 PUSH19 0x20616E642067657420726577617264214F776E PUSH6 0x722077696E2C KECCAK256 PUSH17 0x6C6561736520636F6E6669726D20796F75 KECCAK256 PUSH2 0x7265 KECCAK256 PUSH21 0x68652057696E6E657220616E642067657420726577 PUSH2 0x7264 0x21 LOG2 PUSH5 0x6970667358 0x22 SLT KECCAK256 CODESIZE BYTE 0x27 SWAP2 0xF7 0x21 PUSH19 0xDA0B6BBB480B3361E3A078E4C14360653B77A1 CALLDATALOAD RETURN 0x24 ADDMOD 0x26 CALLDATACOPY PUSH5 0x736F6C6343 STOP ADDMOD 0x22 STOP CALLER "
				},
				"gasEstimates": {
					"creation": {
						"codeDepositCost": "1315600",
						"executionCost": "25631",
						"totalCost": "1341231"
					},
					"external": {
						"confirmWinner()": "infinite",
						"gameResult()": "infinite",
						"owner()": "2507",
						"ownerReveal(uint256)": "infinite",
						"ownerSubmit(uint256,uint256)": "infinite",
						"ownerViewAns()": "4666",
						"player()": "2531",
						"playerReveal(uint256)": "infinite",
						"playerSubmit(uint256,uint256)": "infinite",
						"playerViewAns()": "4668"
					},
					"internal": {
						"calculateGameResult()": "infinite",
						"ownerHashing(uint256,uint256)": "infinite",
						"playerHashing(uint256,uint256)": "infinite"
					}
				},
				"methodIdentifiers": {
					"confirmWinner()": "d55c9c84",
					"gameResult()": "7152f800",
					"owner()": "8da5cb5b",
					"ownerReveal(uint256)": "528654d7",
					"ownerSubmit(uint256,uint256)": "3a902846",
					"ownerViewAns()": "d79830cf",
					"player()": "48db5f89",
					"playerReveal(uint256)": "ff2364b5",
					"playerSubmit(uint256,uint256)": "8f693d9e",
					"playerViewAns()": "5f582011"
				}
			},
			"storageLayout": {
				"storage": [
					{
						"astId": 3,
						"contract": "stage2.sol:Game",
						"label": "owner",
						"offset": 0,
						"slot": "0",
						"type": "t_address"
					},
					{
						"astId": 5,
						"contract": "stage2.sol:Game",
						"label": "ownerAns",
						"offset": 0,
						"slot": "1",
						"type": "t_uint256"
					},
					{
						"astId": 7,
						"contract": "stage2.sol:Game",
						"label": "ownerPW",
						"offset": 0,
						"slot": "2",
						"type": "t_uint256"
					},
					{
						"astId": 9,
						"contract": "stage2.sol:Game",
						"label": "ownerHash",
						"offset": 0,
						"slot": "3",
						"type": "t_bytes32"
					},
					{
						"astId": 11,
						"contract": "stage2.sol:Game",
						"label": "player",
						"offset": 0,
						"slot": "4",
						"type": "t_address"
					},
					{
						"astId": 13,
						"contract": "stage2.sol:Game",
						"label": "playerAns",
						"offset": 0,
						"slot": "5",
						"type": "t_uint256"
					},
					{
						"astId": 15,
						"contract": "stage2.sol:Game",
						"label": "playerPW",
						"offset": 0,
						"slot": "6",
						"type": "t_uint256"
					},
					{
						"astId": 17,
						"contract": "stage2.sol:Game",
						"label": "playerHash",
						"offset": 0,
						"slot": "7",
						"type": "t_bytes32"
					},
					{
						"astId": 25,
						"contract": "stage2.sol:Game",
						"label": "playerStatus",
						"offset": 0,
						"slot": "8",
						"type": "t_enum(Status)22"
					},
					{
						"astId": 28,
						"contract": "stage2.sol:Game",
						"label": "ownerStatus",
						"offset": 1,
						"slot": "8",
						"type": "t_enum(Status)22"
					}
				],
				"types": {
					"t_address": {
						"encoding": "inplace",
						"label": "address",
						"numberOfBytes": "20"
					},
					"t_bytes32": {
						"encoding": "inplace",
						"label": "bytes32",
						"numberOfBytes": "32"
					},
					"t_enum(Status)22": {
						"encoding": "inplace",
						"label": "enum Game.Status",
						"numberOfBytes": "1"
					},
					"t_uint256": {
						"encoding": "inplace",
						"label": "uint256",
						"numberOfBytes": "32"
					}
				}
			},
			"userdoc": {
				"kind": "user",
				"methods": {},
				"version": 1
			}
		}
	}
}