{
	"data": {
		"bytecode": {
			"linkReferences": {},
			"object": "60a0604052348015600e575f5ffd5b503373ffffffffffffffffffffffffffffffffffffffff1660808173ffffffffffffffffffffffffffffffffffffffff1681525050608051611a456100695f395f81816106cd015281816108960152610c3b0152611a455ff3fe608060405234801561000f575f5ffd5b50600436106100cd575f3560e01c8063b5ab58dc1161008a578063de29278911610064578063de292789146101ea578063e55ae4e814610208578063f020044f14610238578063f71d96cb14610256576100cd565b8063b5ab58dc14610194578063bb3e3159146101c4578063d826f88f146101e0576100cd565b8063049878f3146100d157806317599cc5146100ed5780633fad9ae01461011d578063799e18c01461013b578063800bd5c8146101575780638da5cb5b14610176575b5f5ffd5b6100eb60048036038101906100e69190610f1e565b610286565b005b61010760048036038101906101029190610f1e565b6105a1565b6040516101149190610fb9565b60405180910390f35b610125610640565b6040516101329190610fb9565b60405180910390f35b6101556004803603810190610150919061103a565b6106cb565b005b61015f610845565b60405161016d929190611094565b60405180910390f35b61017e610894565b60405161018b91906110fa565b60405180910390f35b6101ae60048036038101906101a99190610f1e565b6108b8565b6040516101bb9190610fb9565b60405180910390f35b6101de60048036038101906101d9919061103a565b61095d565b005b6101e8610c39565b005b6101f2610d08565b6040516101ff9190611113565b60405180910390f35b610222600480360381019061021d9190610f1e565b610ddd565b60405161022f91906110fa565b60405180910390f35b610240610e1a565b60405161024d9190611146565b60405180910390f35b610270600480360381019061026b9190610f1e565b610e2c565b60405161027d91906110fa565b60405180910390f35b5f8114806102945750600181145b6102d3576040517f08c379a00000000000000000000000000000000000000000000000000000000081526004016102ca906111a9565b60405180910390fd5b5f73ffffffffffffffffffffffffffffffffffffffff16600182600281106102fe576102fd6111c7565b5b015f9054906101000a900473ffffffffffffffffffffffffffffffffffffffff1673ffffffffffffffffffffffffffffffffffffffff1614610375576040517f08c379a000000000000000000000000000000000000000000000000000000000815260040161036c9061123e565b60405180910390fd5b60018160016103849190611289565b60028110610395576103946111c7565b5b015f9054906101000a900473ffffffffffffffffffffffffffffffffffffffff1673ffffffffffffffffffffffffffffffffffffffff163373ffffffffffffffffffffffffffffffffffffffff1603610423576040517f08c379a000000000000000000000000000000000000000000000000000000000815260040161041a90611306565b60405180910390fd5b3360018260028110610438576104376111c7565b5b015f6101000a81548173ffffffffffffffffffffffffffffffffffffffff021916908373ffffffffffffffffffffffffffffffffffffffff160217905550807f87969bc7faf902221a147b95ceba76e011c5efb0339a0a8ee7a2bb82d9cfbbd6336040516104a691906110fa565b60405180910390a25f73ffffffffffffffffffffffffffffffffffffffff1660015f600281106104d9576104d86111c7565b5b015f9054906101000a900473ffffffffffffffffffffffffffffffffffffffff1673ffffffffffffffffffffffffffffffffffffffff161415801561057e57505f73ffffffffffffffffffffffffffffffffffffffff1660018060028110610544576105436111c7565b5b015f9054906101000a900473ffffffffffffffffffffffffffffffffffffffff1673ffffffffffffffffffffffffffffffffffffffff1614155b1561059e57600160055f6101000a81548160ff0219169083151502179055505b50565b600381600281106105b0575f80fd5b015f9150905080546105c190611351565b80601f01602080910402602001604051908101604052809291908181526020018280546105ed90611351565b80156106385780601f1061060f57610100808354040283529160200191610638565b820191905f5260205f20905b81548152906001019060200180831161061b57829003601f168201915b505050505081565b5f805461064c90611351565b80601f016020809104026020016040519081016040528092919081815260200182805461067890611351565b80156106c35780601f1061069a576101008083540402835291602001916106c3565b820191905f5260205f20905b8154815290600101906020018083116106a657829003601f168201915b505050505081565b7f000000000000000000000000000000000000000000000000000000000000000073ffffffffffffffffffffffffffffffffffffffff163373ffffffffffffffffffffffffffffffffffffffff1614610759576040517f08c379a0000000000000000000000000000000000000000000000000000000008152600401610750906113cb565b60405180910390fd5b5f5f805461076690611351565b9050146107a8576040517f08c379a000000000000000000000000000000000000000000000000000000000815260040161079f90611433565b60405180910390fd5b60055f9054906101000a900460ff16156107f7576040517f08c379a00000000000000000000000000000000000000000000000000000000081526004016107ee9061149b565b60405180910390fd5b81815f9182610807929190611690565b507f94a9b24dd4426a3e243e3faadf503a0b15a3c6ce1db37582f9926082221263f98282604051610839929190611797565b60405180910390a15050565b5f5f60035f6002811061085b5761085a6111c7565b5b01805461086790611351565b9050915060036001600281106108805761087f6111c7565b5b01805461088c90611351565b905090509091565b7f000000000000000000000000000000000000000000000000000000000000000081565b6060600382600281106108ce576108cd6111c7565b5b0180546108da90611351565b80601f016020809104026020016040519081016040528092919081815260200182805461090690611351565b80156109515780601f1061092857610100808354040283529160200191610951565b820191905f5260205f20905b81548152906001019060200180831161093457829003601f168201915b50505050509050919050565b60015f60028110610971576109706111c7565b5b015f9054906101000a900473ffffffffffffffffffffffffffffffffffffffff1673ffffffffffffffffffffffffffffffffffffffff163373ffffffffffffffffffffffffffffffffffffffff161480610a2a5750600180600281106109da576109d96111c7565b5b015f9054906101000a900473ffffffffffffffffffffffffffffffffffffffff1673ffffffffffffffffffffffffffffffffffffffff163373ffffffffffffffffffffffffffffffffffffffff16145b610a69576040517f08c379a0000000000000000000000000000000000000000000000000000000008152600401610a6090611803565b60405180910390fd5b60055f9054906101000a900460ff16610ab7576040517f08c379a0000000000000000000000000000000000000000000000000000000008152600401610aae90611891565b60405180910390fd5b5f8282905011610afc576040517f08c379a0000000000000000000000000000000000000000000000000000000008152600401610af3906118f9565b60405180910390fd5b5f60015f60028110610b1157610b106111c7565b5b015f9054906101000a900473ffffffffffffffffffffffffffffffffffffffff1673ffffffffffffffffffffffffffffffffffffffff163373ffffffffffffffffffffffffffffffffffffffff1614610b6b576001610b6d565b5f5b60ff1690505f60038260028110610b8757610b866111c7565b5b018054610b9390611351565b905014610bd5576040517f08c379a0000000000000000000000000000000000000000000000000000000008152600401610bcc90611961565b60405180910390fd5b828260038360028110610beb57610bea6111c7565b5b019182610bf9929190611690565b50807f04cf4660632bddc9871c3099c79fc6e85c889dbee3192ea0cfa1fde0419dfd7d8484604051610c2c929190611797565b60405180910390a2505050565b7f000000000000000000000000000000000000000000000000000000000000000073ffffffffffffffffffffffffffffffffffffffff163373ffffffffffffffffffffffffffffffffffffffff1614610cc7576040517f08c379a0000000000000000000000000000000000000000000000000000000008152600401610cbe906113cb565b60405180910390fd5b5f5f610cd39190610e60565b60015f610ce09190610e9d565b60035f610ced9190610ea9565b5f60055f6101000a81548160ff021916908315150217905550565b5f5f60035f60028110610d1e57610d1d6111c7565b5b018054610d2a90611351565b90501480610d5957505f6003600160028110610d4957610d486111c7565b5b018054610d5590611351565b9050145b15610d66575f9050610dda565b5f60035f60028110610d7b57610d7a6111c7565b5b018054610d8790611351565b905090505f6003600160028110610da157610da06111c7565b5b018054610dad90611351565b90509050600160068284610dc1919061197f565b610dcb91906119df565b610dd5919061197f565b925050505b90565b5f60018260028110610df257610df16111c7565b5b015f9054906101000a900473ffffffffffffffffffffffffffffffffffffffff169050919050565b60055f9054906101000a900460ff1681565b60018160028110610e3b575f80fd5b015f915054906101000a900473ffffffffffffffffffffffffffffffffffffffff1681565b508054610e6c90611351565b5f825580601f10610e7d5750610e9a565b601f0160209004905f5260205f2090810190610e999190610ec8565b5b50565b505f81556001015f9055565b505f8181610eb79190610e60565b506001015f610ec69190610e60565b565b5b80821115610edf575f815f905550600101610ec9565b5090565b5f5ffd5b5f5ffd5b5f819050919050565b610efd81610eeb565b8114610f07575f5ffd5b50565b5f81359050610f1881610ef4565b92915050565b5f60208284031215610f3357610f32610ee3565b5b5f610f4084828501610f0a565b91505092915050565b5f81519050919050565b5f82825260208201905092915050565b8281835e5f83830152505050565b5f601f19601f8301169050919050565b5f610f8b82610f49565b610f958185610f53565b9350610fa5818560208601610f63565b610fae81610f71565b840191505092915050565b5f6020820190508181035f830152610fd18184610f81565b905092915050565b5f5ffd5b5f5ffd5b5f5ffd5b5f5f83601f840112610ffa57610ff9610fd9565b5b8235905067ffffffffffffffff81111561101757611016610fdd565b5b60208301915083600182028301111561103357611032610fe1565b5b9250929050565b5f5f602083850312156110505761104f610ee3565b5b5f83013567ffffffffffffffff81111561106d5761106c610ee7565b5b61107985828601610fe5565b92509250509250929050565b61108e81610eeb565b82525050565b5f6040820190506110a75f830185611085565b6110b46020830184611085565b9392505050565b5f73ffffffffffffffffffffffffffffffffffffffff82169050919050565b5f6110e4826110bb565b9050919050565b6110f4816110da565b82525050565b5f60208201905061110d5f8301846110eb565b92915050565b5f6020820190506111265f830184611085565b92915050565b5f8115159050919050565b6111408161112c565b82525050565b5f6020820190506111595f830184611137565b92915050565b7f536c6f74206d7573742062652030206f722031000000000000000000000000005f82015250565b5f611193601383610f53565b915061119e8261115f565b602082019050919050565b5f6020820190508181035f8301526111c081611187565b9050919050565b7f4e487b71000000000000000000000000000000000000000000000000000000005f52603260045260245ffd5b7f536c6f742074616b656e000000000000000000000000000000000000000000005f82015250565b5f611228600a83610f53565b9150611233826111f4565b602082019050919050565b5f6020820190508181035f8301526112558161121c565b9050919050565b7f4e487b71000000000000000000000000000000000000000000000000000000005f52601160045260245ffd5b5f61129382610eeb565b915061129e83610eeb565b92508282039050818111156112b6576112b561125c565b5b92915050565b7f416c7265616479206a6f696e6564206f7468657220736c6f74000000000000005f82015250565b5f6112f0601983610f53565b91506112fb826112bc565b602082019050919050565b5f6020820190508181035f83015261131d816112e4565b9050919050565b7f4e487b71000000000000000000000000000000000000000000000000000000005f52602260045260245ffd5b5f600282049050600182168061136857607f821691505b60208210810361137b5761137a611324565b5b50919050565b7f4f6e6c79206f776e6572000000000000000000000000000000000000000000005f82015250565b5f6113b5600a83610f53565b91506113c082611381565b602082019050919050565b5f6020820190508181035f8301526113e2816113a9565b9050919050565b7f5175657374696f6e20616c7265616479207365740000000000000000000000005f82015250565b5f61141d601483610f53565b9150611428826113e9565b602082019050919050565b5f6020820190508181035f83015261144a81611411565b9050919050565b7f47616d6520616c726561647920616374697665000000000000000000000000005f82015250565b5f611485601383610f53565b915061149082611451565b602082019050919050565b5f6020820190508181035f8301526114b281611479565b9050919050565b5f82905092915050565b7f4e487b71000000000000000000000000000000000000000000000000000000005f52604160045260245ffd5b5f819050815f5260205f209050919050565b5f6020601f8301049050919050565b5f82821b905092915050565b5f6008830261154c7fffffffffffffffffffffffffffffffffffffffffffffffffffffffffffffffff82611511565b6115568683611511565b95508019841693508086168417925050509392505050565b5f819050919050565b5f61159161158c61158784610eeb565b61156e565b610eeb565b9050919050565b5f819050919050565b6115aa83611577565b6115be6115b682611598565b84845461151d565b825550505050565b5f5f905090565b6115d56115c6565b6115e08184846115a1565b505050565b5b81811015611603576115f85f826115cd565b6001810190506115e6565b5050565b601f82111561164857611619816114f0565b61162284611502565b81016020851015611631578190505b61164561163d85611502565b8301826115e5565b50505b505050565b5f82821c905092915050565b5f6116685f198460080261164d565b1980831691505092915050565b5f6116808383611659565b9150826002028217905092915050565b61169a83836114b9565b67ffffffffffffffff8111156116b3576116b26114c3565b5b6116bd8254611351565b6116c8828285611607565b5f601f8311600181146116f5575f84156116e3578287013590505b6116ed8582611675565b865550611754565b601f198416611703866114f0565b5f5b8281101561172a57848901358255600182019150602085019450602081019050611705565b868310156117475784890135611743601f891682611659565b8355505b6001600288020188555050505b50505050505050565b828183375f83830152505050565b5f6117768385610f53565b935061178383858461175d565b61178c83610f71565b840190509392505050565b5f6020820190508181035f8301526117b081848661176b565b90509392505050565b7f4e6f74206120706c6179657200000000000000000000000000000000000000005f82015250565b5f6117ed600c83610f53565b91506117f8826117b9565b602082019050919050565b5f6020820190508181035f83015261181a816117e1565b9050919050565b7f47616d65206e6f74206163746976652079657420286e65656420626f746820705f8201527f6c61796572732900000000000000000000000000000000000000000000000000602082015250565b5f61187b602783610f53565b915061188682611821565b604082019050919050565b5f6020820190508181035f8301526118a88161186f565b9050919050565b7f416e737765722063616e6e6f7420626520656d707479000000000000000000005f82015250565b5f6118e3601683610f53565b91506118ee826118af565b602082019050919050565b5f6020820190508181035f830152611910816118d7565b9050919050565b7f416c726561647920616e737765726564000000000000000000000000000000005f82015250565b5f61194b601083610f53565b915061195682611917565b602082019050919050565b5f6020820190508181035f8301526119788161193f565b9050919050565b5f61198982610eeb565b915061199483610eeb565b92508282019050808211156119ac576119ab61125c565b5b92915050565b7f4e487b71000000000000000000000000000000000000000000000000000000005f52601260045260245ffd5b5f6119e982610eeb565b91506119f483610eeb565b925082611a0457611a036119b2565b5b82820690509291505056fea264697066735822122006456b37acd2fe02016dab9e5c5f30a9d6a56839939106b06a099f1ecab802f064736f6c634300081f0033",
			"opcodes": "PUSH1 0xA0 PUSH1 0x40 MSTORE CALLVALUE DUP1 ISZERO PUSH1 0xE JUMPI PUSH0 PUSH0 REVERT JUMPDEST POP CALLER PUSH20 0xFFFFFFFFFFFFFFFFFFFFFFFFFFFFFFFFFFFFFFFF AND PUSH1 0x80 DUP2 PUSH20 0xFFFFFFFFFFFFFFFFFFFFFFFFFFFFFFFFFFFFFFFF AND DUP2 MSTORE POP POP PUSH1 0x80 MLOAD PUSH2 0x1A45 PUSH2 0x69 PUSH0 CODECOPY PUSH0 DUP2 DUP2 PUSH2 0x6CD ADD MSTORE DUP2 DUP2 PUSH2 0x896 ADD MSTORE PUSH2 0xC3B ADD MSTORE PUSH2 0x1A45 PUSH0 RETURN INVALID PUSH1 0x80 PUSH1 0x40 MSTORE CALLVALUE DUP1 ISZERO PUSH2 0xF JUMPI PUSH0 PUSH0 REVERT JUMPDEST POP PUSH1 0x4 CALLDATASIZE LT PUSH2 0xCD JUMPI PUSH0 CALLDATALOAD PUSH1 0xE0 SHR DUP1 PUSH4 0xB5AB58DC GT PUSH2 0x8A JUMPI DUP1 PUSH4 0xDE292789 GT PUSH2 0x64 JUMPI DUP1 PUSH4 0xDE292789 EQ PUSH2 0x1EA JUMPI DUP1 PUSH4 0xE55AE4E8 EQ PUSH2 0x208 JUMPI DUP1 PUSH4 0xF020044F EQ PUSH2 0x238 JUMPI DUP1 PUSH4 0xF71D96CB EQ PUSH2 0x256 JUMPI PUSH2 0xCD JUMP JUMPDEST DUP1 PUSH4 0xB5AB58DC EQ PUSH2 0x194 JUMPI DUP1 PUSH4 0xBB3E3159 EQ PUSH2 0x1C4 JUMPI DUP1 PUSH4 0xD826F88F EQ PUSH2 0x1E0 JUMPI PUSH2 0xCD JUMP JUMPDEST DUP1 PUSH4 0x49878F3 EQ PUSH2 0xD1 JUMPI DUP1 PUSH4 0x17599CC5 EQ PUSH2 0xED JUMPI DUP1 PUSH4 0x3FAD9AE0 EQ PUSH2 0x11D JUMPI DUP1 PUSH4 0x799E18C0 EQ PUSH2 0x13B JUMPI DUP1 PUSH4 0x800BD5C8 EQ PUSH2 0x157 JUMPI DUP1 PUSH4 0x8DA5CB5B EQ PUSH2 0x176 JUMPI JUMPDEST PUSH0 PUSH0 REVERT JUMPDEST PUSH2 0xEB PUSH1 0x4 DUP1 CALLDATASIZE SUB DUP2 ADD SWAP1 PUSH2 0xE6 SWAP2 SWAP1 PUSH2 0xF1E JUMP JUMPDEST PUSH2 0x286 JUMP JUMPDEST STOP JUMPDEST PUSH2 0x107 PUSH1 0x4 DUP1 CALLDATASIZE SUB DUP2 ADD SWAP1 PUSH2 0x102 SWAP2 SWAP1 PUSH2 0xF1E JUMP JUMPDEST PUSH2 0x5A1 JUMP JUMPDEST PUSH1 0x40 MLOAD PUSH2 0x114 SWAP2 SWAP1 PUSH2 0xFB9 JUMP JUMPDEST PUSH1 0x40 MLOAD DUP1 SWAP2 SUB SWAP1 RETURN JUMPDEST PUSH2 0x125 PUSH2 0x640 JUMP JUMPDEST PUSH1 0x40 MLOAD PUSH2 0x132 SWAP2 SWAP1 PUSH2 0xFB9 JUMP JUMPDEST PUSH1 0x40 MLOAD DUP1 SWAP2 SUB SWAP1 RETURN JUMPDEST PUSH2 0x155 PUSH1 0x4 DUP1 CALLDATASIZE SUB DUP2 ADD SWAP1 PUSH2 0x150 SWAP2 SWAP1 PUSH2 0x103A JUMP JUMPDEST PUSH2 0x6CB JUMP JUMPDEST STOP JUMPDEST PUSH2 0x15F PUSH2 0x845 JUMP JUMPDEST PUSH1 0x40 MLOAD PUSH2 0x16D SWAP3 SWAP2 SWAP1 PUSH2 0x1094 JUMP JUMPDEST PUSH1 0x40 MLOAD DUP1 SWAP2 SUB SWAP1 RETURN JUMPDEST PUSH2 0x17E PUSH2 0x894 JUMP JUMPDEST PUSH1 0x40 MLOAD PUSH2 0x18B SWAP2 SWAP1 PUSH2 0x10FA JUMP JUMPDEST PUSH1 0x40 MLOAD DUP1 SWAP2 SUB SWAP1 RETURN JUMPDEST PUSH2 0x1AE PUSH1 0x4 DUP1 CALLDATASIZE SUB DUP2 ADD SWAP1 PUSH2 0x1A9 SWAP2 SWAP1 PUSH2 0xF1E JUMP JUMPDEST PUSH2 0x8B8 JUMP JUMPDEST PUSH1 0x40 MLOAD PUSH2 0x1BB SWAP2 SWAP1 PUSH2 0xFB9 JUMP JUMPDEST PUSH1 0x40 MLOAD DUP1 SWAP2 SUB SWAP1 RETURN JUMPDEST PUSH2 0x1DE PUSH1 0x4 DUP1 CALLDATASIZE SUB DUP2 ADD SWAP1 PUSH2 0x1D9 SWAP2 SWAP1 PUSH2 0x103A JUMP JUMPDEST PUSH2 0x95D JUMP JUMPDEST STOP JUMPDEST PUSH2 0x1E8 PUSH2 0xC39 JUMP JUMPDEST STOP JUMPDEST PUSH2 0x1F2 PUSH2 0xD08 JUMP JUMPDEST PUSH1 0x40 MLOAD PUSH2 0x1FF SWAP2 SWAP1 PUSH2 0x1113 JUMP JUMPDEST PUSH1 0x40 MLOAD DUP1 SWAP2 SUB SWAP1 RETURN JUMPDEST PUSH2 0x222 PUSH1 0x4 DUP1 CALLDATASIZE SUB DUP2 ADD SWAP1 PUSH2 0x21D SWAP2 SWAP1 PUSH2 0xF1E JUMP JUMPDEST PUSH2 0xDDD JUMP JUMPDEST PUSH1 0x40 MLOAD PUSH2 0x22F SWAP2 SWAP1 PUSH2 0x10FA JUMP JUMPDEST PUSH1 0x40 MLOAD DUP1 SWAP2 SUB SWAP1 RETURN JUMPDEST PUSH2 0x240 PUSH2 0xE1A JUMP JUMPDEST PUSH1 0x40 MLOAD PUSH2 0x24D SWAP2 SWAP1 PUSH2 0x1146 JUMP JUMPDEST PUSH1 0x40 MLOAD DUP1 SWAP2 SUB SWAP1 RETURN JUMPDEST PUSH2 0x270 PUSH1 0x4 DUP1 CALLDATASIZE SUB DUP2 ADD SWAP1 PUSH2 0x26B SWAP2 SWAP1 PUSH2 0xF1E JUMP JUMPDEST PUSH2 0xE2C JUMP JUMPDEST PUSH1 0x40 MLOAD PUSH2 0x27D SWAP2 SWAP1 PUSH2 0x10FA JUMP JUMPDEST PUSH1 0x40 MLOAD DUP1 SWAP2 SUB SWAP1 RETURN JUMPDEST PUSH0 DUP2 EQ DUP1 PUSH2 0x294 JUMPI POP PUSH1 0x1 DUP2 EQ JUMPDEST PUSH2 0x2D3 JUMPI PUSH1 0x40 MLOAD PUSH32 0x8C379A000000000000000000000000000000000000000000000000000000000 DUP2 MSTORE PUSH1 0x4 ADD PUSH2 0x2CA SWAP1 PUSH2 0x11A9 JUMP JUMPDEST PUSH1 0x40 MLOAD DUP1 SWAP2 SUB SWAP1 REVERT JUMPDEST PUSH0 PUSH20 0xFFFFFFFFFFFFFFFFFFFFFFFFFFFFFFFFFFFFFFFF AND PUSH1 0x1 DUP3 PUSH1 0x2 DUP2 LT PUSH2 0x2FE JUMPI PUSH2 0x2FD PUSH2 0x11C7 JUMP JUMPDEST JUMPDEST ADD PUSH0 SWAP1 SLOAD SWAP1 PUSH2 0x100 EXP SWAP1 DIV PUSH20 0xFFFFFFFFFFFFFFFFFFFFFFFFFFFFFFFFFFFFFFFF AND PUSH20 0xFFFFFFFFFFFFFFFFFFFFFFFFFFFFFFFFFFFFFFFF AND EQ PUSH2 0x375 JUMPI PUSH1 0x40 MLOAD PUSH32 0x8C379A000000000000000000000000000000000000000000000000000000000 DUP2 MSTORE PUSH1 0x4 ADD PUSH2 0x36C SWAP1 PUSH2 0x123E JUMP JUMPDEST PUSH1 0x40 MLOAD DUP1 SWAP2 SUB SWAP1 REVERT JUMPDEST PUSH1 0x1 DUP2 PUSH1 0x1 PUSH2 0x384 SWAP2 SWAP1 PUSH2 0x1289 JUMP JUMPDEST PUSH1 0x2 DUP2 LT PUSH2 0x395 JUMPI PUSH2 0x394 PUSH2 0x11C7 JUMP JUMPDEST JUMPDEST ADD PUSH0 SWAP1 SLOAD SWAP1 PUSH2 0x100 EXP SWAP1 DIV PUSH20 0xFFFFFFFFFFFFFFFFFFFFFFFFFFFFFFFFFFFFFFFF AND PUSH20 0xFFFFFFFFFFFFFFFFFFFFFFFFFFFFFFFFFFFFFFFF AND CALLER PUSH20 0xFFFFFFFFFFFFFFFFFFFFFFFFFFFFFFFFFFFFFFFF AND SUB PUSH2 0x423 JUMPI PUSH1 0x40 MLOAD PUSH32 0x8C379A000000000000000000000000000000000000000000000000000000000 DUP2 MSTORE PUSH1 0x4 ADD PUSH2 0x41A SWAP1 PUSH2 0x1306 JUMP JUMPDEST PUSH1 0x40 MLOAD DUP1 SWAP2 SUB SWAP1 REVERT JUMPDEST CALLER PUSH1 0x1 DUP3 PUSH1 0x2 DUP2 LT PUSH2 0x438 JUMPI PUSH2 0x437 PUSH2 0x11C7 JUMP JUMPDEST JUMPDEST ADD PUSH0 PUSH2 0x100 EXP DUP2 SLOAD DUP2 PUSH20 0xFFFFFFFFFFFFFFFFFFFFFFFFFFFFFFFFFFFFFFFF MUL NOT AND SWAP1 DUP4 PUSH20 0xFFFFFFFFFFFFFFFFFFFFFFFFFFFFFFFFFFFFFFFF AND MUL OR SWAP1 SSTORE POP DUP1 PUSH32 0x87969BC7FAF902221A147B95CEBA76E011C5EFB0339A0A8EE7A2BB82D9CFBBD6 CALLER PUSH1 0x40 MLOAD PUSH2 0x4A6 SWAP2 SWAP1 PUSH2 0x10FA JUMP JUMPDEST PUSH1 0x40 MLOAD DUP1 SWAP2 SUB SWAP1 LOG2 PUSH0 PUSH20 0xFFFFFFFFFFFFFFFFFFFFFFFFFFFFFFFFFFFFFFFF AND PUSH1 0x1 PUSH0 PUSH1 0x2 DUP2 LT PUSH2 0x4D9 JUMPI PUSH2 0x4D8 PUSH2 0x11C7 JUMP JUMPDEST JUMPDEST ADD PUSH0 SWAP1 SLOAD SWAP1 PUSH2 0x100 EXP SWAP1 DIV PUSH20 0xFFFFFFFFFFFFFFFFFFFFFFFFFFFFFFFFFFFFFFFF AND PUSH20 0xFFFFFFFFFFFFFFFFFFFFFFFFFFFFFFFFFFFFFFFF AND EQ ISZERO DUP1 ISZERO PUSH2 0x57E JUMPI POP PUSH0 PUSH20 0xFFFFFFFFFFFFFFFFFFFFFFFFFFFFFFFFFFFFFFFF AND PUSH1 0x1 DUP1 PUSH1 0x2 DUP2 LT PUSH2 0x544 JUMPI PUSH2 0x543 PUSH2 0x11C7 JUMP JUMPDEST JUMPDEST ADD PUSH0 SWAP1 SLOAD SWAP1 PUSH2 0x100 EXP SWAP1 DIV PUSH20 0xFFFFFFFFFFFFFFFFFFFFFFFFFFFFFFFFFFFFFFFF AND PUSH20 0xFFFFFFFFFFFFFFFFFFFFFFFFFFFFFFFFFFFFFFFF AND EQ ISZERO JUMPDEST ISZERO PUSH2 0x59E JUMPI PUSH1 0x1 PUSH1 0x5 PUSH0 PUSH2 0x100 EXP DUP2 SLOAD DUP2 PUSH1 0xFF MUL NOT AND SWAP1 DUP4 ISZERO ISZERO MUL OR SWAP1 SSTORE POP JUMPDEST POP JUMP JUMPDEST PUSH1 0x3 DUP2 PUSH1 0x2 DUP2 LT PUSH2 0x5B0 JUMPI PUSH0 DUP1 REVERT JUMPDEST ADD PUSH0 SWAP2 POP SWAP1 POP DUP1 SLOAD PUSH2 0x5C1 SWAP1 PUSH2 0x1351 JUMP JUMPDEST DUP1 PUSH1 0x1F ADD PUSH1 0x20 DUP1 SWAP2 DIV MUL PUSH1 0x20 ADD PUSH1 0x40 MLOAD SWAP1 DUP2 ADD PUSH1 0x40 MSTORE DUP1 SWAP3 SWAP2 SWAP1 DUP2 DUP2 MSTORE PUSH1 0x20 ADD DUP3 DUP1 SLOAD PUSH2 0x5ED SWAP1 PUSH2 0x1351 JUMP JUMPDEST DUP1 ISZERO PUSH2 0x638 JUMPI DUP1 PUSH1 0x1F LT PUSH2 0x60F JUMPI PUSH2 0x100 DUP1 DUP4 SLOAD DIV MUL DUP4 MSTORE SWAP2 PUSH1 0x20 ADD SWAP2 PUSH2 0x638 JUMP JUMPDEST DUP3 ADD SWAP2 SWAP1 PUSH0 MSTORE PUSH1 0x20 PUSH0 KECCAK256 SWAP1 JUMPDEST DUP2 SLOAD DUP2 MSTORE SWAP1 PUSH1 0x1 ADD SWAP1 PUSH1 0x20 ADD DUP1 DUP4 GT PUSH2 0x61B JUMPI DUP3 SWAP1 SUB PUSH1 0x1F AND DUP3 ADD SWAP2 JUMPDEST POP POP POP POP POP DUP2 JUMP JUMPDEST PUSH0 DUP1 SLOAD PUSH2 0x64C SWAP1 PUSH2 0x1351 JUMP JUMPDEST DUP1 PUSH1 0x1F ADD PUSH1 0x20 DUP1 SWAP2 DIV MUL PUSH1 0x20 ADD PUSH1 0x40 MLOAD SWAP1 DUP2 ADD PUSH1 0x40 MSTORE DUP1 SWAP3 SWAP2 SWAP1 DUP2 DUP2 MSTORE PUSH1 0x20 ADD DUP3 DUP1 SLOAD PUSH2 0x678 SWAP1 PUSH2 0x1351 JUMP JUMPDEST DUP1 ISZERO PUSH2 0x6C3 JUMPI DUP1 PUSH1 0x1F LT PUSH2 0x69A JUMPI PUSH2 0x100 DUP1 DUP4 SLOAD DIV MUL DUP4 MSTORE SWAP2 PUSH1 0x20 ADD SWAP2 PUSH2 0x6C3 JUMP JUMPDEST DUP3 ADD SWAP2 SWAP1 PUSH0 MSTORE PUSH1 0x20 PUSH0 KECCAK256 SWAP1 JUMPDEST DUP2 SLOAD DUP2 MSTORE SWAP1 PUSH1 0x1 ADD SWAP1 PUSH1 0x20 ADD DUP1 DUP4 GT PUSH2 0x6A6 JUMPI DUP3 SWAP1 SUB PUSH1 0x1F AND DUP3 ADD SWAP2 JUMPDEST POP POP POP POP POP DUP2 JUMP JUMPDEST PUSH32 0x0 PUSH20 0xFFFFFFFFFFFFFFFFFFFFFFFFFFFFFFFFFFFFFFFF AND CALLER PUSH20 0xFFFFFFFFFFFFFFFFFFFFFFFFFFFFFFFFFFFFFFFF AND EQ PUSH2 0x759 JUMPI PUSH1 0x40 MLOAD PUSH32 0x8C379A000000000000000000000000000000000000000000000000000000000 DUP2 MSTORE PUSH1 0x4 ADD PUSH2 0x750 SWAP1 PUSH2 0x13CB JUMP JUMPDEST PUSH1 0x40 MLOAD DUP1 SWAP2 SUB SWAP1 REVERT JUMPDEST PUSH0 PUSH0 DUP1 SLOAD PUSH2 0x766 SWAP1 PUSH2 0x1351 JUMP JUMPDEST SWAP1 POP EQ PUSH2 0x7A8 JUMPI PUSH1 0x40 MLOAD PUSH32 0x8C379A000000000000000000000000000000000000000000000000000000000 DUP2 MSTORE PUSH1 0x4 ADD PUSH2 0x79F SWAP1 PUSH2 0x1433 JUMP JUMPDEST PUSH1 0x40 MLOAD DUP1 SWAP2 SUB SWAP1 REVERT JUMPDEST PUSH1 0x5 PUSH0 SWAP1 SLOAD SWAP1 PUSH2 0x100 EXP SWAP1 DIV PUSH1 0xFF AND ISZERO PUSH2 0x7F7 JUMPI PUSH1 0x40 MLOAD PUSH32 0x8C379A000000000000000000000000000000000000000000000000000000000 DUP2 MSTORE PUSH1 0x4 ADD PUSH2 0x7EE SWAP1 PUSH2 0x149B JUMP JUMPDEST PUSH1 0x40 MLOAD DUP1 SWAP2 SUB SWAP1 REVERT JUMPDEST DUP2 DUP2 PUSH0 SWAP2 DUP3 PUSH2 0x807 SWAP3 SWAP2 SWAP1 PUSH2 0x1690 JUMP JUMPDEST POP PUSH32 0x94A9B24DD4426A3E243E3FAADF503A0B15A3C6CE1DB37582F9926082221263F9 DUP3 DUP3 PUSH1 0x40 MLOAD PUSH2 0x839 SWAP3 SWAP2 SWAP1 PUSH2 0x1797 JUMP JUMPDEST PUSH1 0x40 MLOAD DUP1 SWAP2 SUB SWAP1 LOG1 POP POP JUMP JUMPDEST PUSH0 PUSH0 PUSH1 0x3 PUSH0 PUSH1 0x2 DUP2 LT PUSH2 0x85B JUMPI PUSH2 0x85A PUSH2 0x11C7 JUMP JUMPDEST JUMPDEST ADD DUP1 SLOAD PUSH2 0x867 SWAP1 PUSH2 0x1351 JUMP JUMPDEST SWAP1 POP SWAP2 POP PUSH1 0x3 PUSH1 0x1 PUSH1 0x2 DUP2 LT PUSH2 0x880 JUMPI PUSH2 0x87F PUSH2 0x11C7 JUMP JUMPDEST JUMPDEST ADD DUP1 SLOAD PUSH2 0x88C SWAP1 PUSH2 0x1351 JUMP JUMPDEST SWAP1 POP SWAP1 POP SWAP1 SWAP2 JUMP JUMPDEST PUSH32 0x0 DUP2 JUMP JUMPDEST PUSH1 0x60 PUSH1 0x3 DUP3 PUSH1 0x2 DUP2 LT PUSH2 0x8CE JUMPI PUSH2 0x8CD PUSH2 0x11C7 JUMP JUMPDEST JUMPDEST ADD DUP1 SLOAD PUSH2 0x8DA SWAP1 PUSH2 0x1351 JUMP JUMPDEST DUP1 PUSH1 0x1F ADD PUSH1 0x20 DUP1 SWAP2 DIV MUL PUSH1 0x20 ADD PUSH1 0x40 MLOAD SWAP1 DUP2 ADD PUSH1 0x40 MSTORE DUP1 SWAP3 SWAP2 SWAP1 DUP2 DUP2 MSTORE PUSH1 0x20 ADD DUP3 DUP1 SLOAD PUSH2 0x906 SWAP1 PUSH2 0x1351 JUMP JUMPDEST DUP1 ISZERO PUSH2 0x951 JUMPI DUP1 PUSH1 0x1F LT PUSH2 0x928 JUMPI PUSH2 0x100 DUP1 DUP4 SLOAD DIV MUL DUP4 MSTORE SWAP2 PUSH1 0x20 ADD SWAP2 PUSH2 0x951 JUMP JUMPDEST DUP3 ADD SWAP2 SWAP1 PUSH0 MSTORE PUSH1 0x20 PUSH0 KECCAK256 SWAP1 JUMPDEST DUP2 SLOAD DUP2 MSTORE SWAP1 PUSH1 0x1 ADD SWAP1 PUSH1 0x20 ADD DUP1 DUP4 GT PUSH2 0x934 JUMPI DUP3 SWAP1 SUB PUSH1 0x1F AND DUP3 ADD SWAP2 JUMPDEST POP POP POP POP POP SWAP1 POP SWAP2 SWAP1 POP JUMP JUMPDEST PUSH1 0x1 PUSH0 PUSH1 0x2 DUP2 LT PUSH2 0x971 JUMPI PUSH2 0x970 PUSH2 0x11C7 JUMP JUMPDEST JUMPDEST ADD PUSH0 SWAP1 SLOAD SWAP1 PUSH2 0x100 EXP SWAP1 DIV PUSH20 0xFFFFFFFFFFFFFFFFFFFFFFFFFFFFFFFFFFFFFFFF AND PUSH20 0xFFFFFFFFFFFFFFFFFFFFFFFFFFFFFFFFFFFFFFFF AND CALLER PUSH20 0xFFFFFFFFFFFFFFFFFFFFFFFFFFFFFFFFFFFFFFFF AND EQ DUP1 PUSH2 0xA2A JUMPI POP PUSH1 0x1 DUP1 PUSH1 0x2 DUP2 LT PUSH2 0x9DA JUMPI PUSH2 0x9D9 PUSH2 0x11C7 JUMP JUMPDEST JUMPDEST ADD PUSH0 SWAP1 SLOAD SWAP1 PUSH2 0x100 EXP SWAP1 DIV PUSH20 0xFFFFFFFFFFFFFFFFFFFFFFFFFFFFFFFFFFFFFFFF AND PUSH20 0xFFFFFFFFFFFFFFFFFFFFFFFFFFFFFFFFFFFFFFFF AND CALLER PUSH20 0xFFFFFFFFFFFFFFFFFFFFFFFFFFFFFFFFFFFFFFFF AND EQ JUMPDEST PUSH2 0xA69 JUMPI PUSH1 0x40 MLOAD PUSH32 0x8C379A000000000000000000000000000000000000000000000000000000000 DUP2 MSTORE PUSH1 0x4 ADD PUSH2 0xA60 SWAP1 PUSH2 0x1803 JUMP JUMPDEST PUSH1 0x40 MLOAD DUP1 SWAP2 SUB SWAP1 REVERT JUMPDEST PUSH1 0x5 PUSH0 SWAP1 SLOAD SWAP1 PUSH2 0x100 EXP SWAP1 DIV PUSH1 0xFF AND PUSH2 0xAB7 JUMPI PUSH1 0x40 MLOAD PUSH32 0x8C379A000000000000000000000000000000000000000000000000000000000 DUP2 MSTORE PUSH1 0x4 ADD PUSH2 0xAAE SWAP1 PUSH2 0x1891 JUMP JUMPDEST PUSH1 0x40 MLOAD DUP1 SWAP2 SUB SWAP1 REVERT JUMPDEST PUSH0 DUP3 DUP3 SWAP1 POP GT PUSH2 0xAFC JUMPI PUSH1 0x40 MLOAD PUSH32 0x8C379A000000000000000000000000000000000000000000000000000000000 DUP2 MSTORE PUSH1 0x4 ADD PUSH2 0xAF3 SWAP1 PUSH2 0x18F9 JUMP JUMPDEST PUSH1 0x40 MLOAD DUP1 SWAP2 SUB SWAP1 REVERT JUMPDEST PUSH0 PUSH1 0x1 PUSH0 PUSH1 0x2 DUP2 LT PUSH2 0xB11 JUMPI PUSH2 0xB10 PUSH2 0x11C7 JUMP JUMPDEST JUMPDEST ADD PUSH0 SWAP1 SLOAD SWAP1 PUSH2 0x100 EXP SWAP1 DIV PUSH20 0xFFFFFFFFFFFFFFFFFFFFFFFFFFFFFFFFFFFFFFFF AND PUSH20 0xFFFFFFFFFFFFFFFFFFFFFFFFFFFFFFFFFFFFFFFF AND CALLER PUSH20 0xFFFFFFFFFFFFFFFFFFFFFFFFFFFFFFFFFFFFFFFF AND EQ PUSH2 0xB6B JUMPI PUSH1 0x1 PUSH2 0xB6D JUMP JUMPDEST PUSH0 JUMPDEST PUSH1 0xFF AND SWAP1 POP PUSH0 PUSH1 0x3 DUP3 PUSH1 0x2 DUP2 LT PUSH2 0xB87 JUMPI PUSH2 0xB86 PUSH2 0x11C7 JUMP JUMPDEST JUMPDEST ADD DUP1 SLOAD PUSH2 0xB93 SWAP1 PUSH2 0x1351 JUMP JUMPDEST SWAP1 POP EQ PUSH2 0xBD5 JUMPI PUSH1 0x40 MLOAD PUSH32 0x8C379A000000000000000000000000000000000000000000000000000000000 DUP2 MSTORE PUSH1 0x4 ADD PUSH2 0xBCC SWAP1 PUSH2 0x1961 JUMP JUMPDEST PUSH1 0x40 MLOAD DUP1 SWAP2 SUB SWAP1 REVERT JUMPDEST DUP3 DUP3 PUSH1 0x3 DUP4 PUSH1 0x2 DUP2 LT PUSH2 0xBEB JUMPI PUSH2 0xBEA PUSH2 0x11C7 JUMP JUMPDEST JUMPDEST ADD SWAP2 DUP3 PUSH2 0xBF9 SWAP3 SWAP2 SWAP1 PUSH2 0x1690 JUMP JUMPDEST POP DUP1 PUSH32 0x4CF4660632BDDC9871C3099C79FC6E85C889DBEE3192EA0CFA1FDE0419DFD7D DUP5 DUP5 PUSH1 0x40 MLOAD PUSH2 0xC2C SWAP3 SWAP2 SWAP1 PUSH2 0x1797 JUMP JUMPDEST PUSH1 0x40 MLOAD DUP1 SWAP2 SUB SWAP1 LOG2 POP POP POP JUMP JUMPDEST PUSH32 0x0 PUSH20 0xFFFFFFFFFFFFFFFFFFFFFFFFFFFFFFFFFFFFFFFF AND CALLER PUSH20 0xFFFFFFFFFFFFFFFFFFFFFFFFFFFFFFFFFFFFFFFF AND EQ PUSH2 0xCC7 JUMPI PUSH1 0x40 MLOAD PUSH32 0x8C379A000000000000000000000000000000000000000000000000000000000 DUP2 MSTORE PUSH1 0x4 ADD PUSH2 0xCBE SWAP1 PUSH2 0x13CB JUMP JUMPDEST PUSH1 0x40 MLOAD DUP1 SWAP2 SUB SWAP1 REVERT JUMPDEST PUSH0 PUSH0 PUSH2 0xCD3 SWAP2 SWAP1 PUSH2 0xE60 JUMP JUMPDEST PUSH1 0x1 PUSH0 PUSH2 0xCE0 SWAP2 SWAP1 PUSH2 0xE9D JUMP JUMPDEST PUSH1 0x3 PUSH0 PUSH2 0xCED SWAP2 SWAP1 PUSH2 0xEA9 JUMP JUMPDEST PUSH0 PUSH1 0x5 PUSH0 PUSH2 0x100 EXP DUP2 SLOAD DUP2 PUSH1 0xFF MUL NOT AND SWAP1 DUP4 ISZERO ISZERO MUL OR SWAP1 SSTORE POP JUMP JUMPDEST PUSH0 PUSH0 PUSH1 0x3 PUSH0 PUSH1 0x2 DUP2 LT PUSH2 0xD1E JUMPI PUSH2 0xD1D PUSH2 0x11C7 JUMP JUMPDEST JUMPDEST ADD DUP1 SLOAD PUSH2 0xD2A SWAP1 PUSH2 0x1351 JUMP JUMPDEST SWAP1 POP EQ DUP1 PUSH2 0xD59 JUMPI POP PUSH0 PUSH1 0x3 PUSH1 0x1 PUSH1 0x2 DUP2 LT PUSH2 0xD49 JUMPI PUSH2 0xD48 PUSH2 0x11C7 JUMP JUMPDEST JUMPDEST ADD DUP1 SLOAD PUSH2 0xD55 SWAP1 PUSH2 0x1351 JUMP JUMPDEST SWAP1 POP EQ JUMPDEST ISZERO PUSH2 0xD66 JUMPI PUSH0 SWAP1 POP PUSH2 0xDDA JUMP JUMPDEST PUSH0 PUSH1 0x3 PUSH0 PUSH1 0x2 DUP2 LT PUSH2 0xD7B JUMPI PUSH2 0xD7A PUSH2 0x11C7 JUMP JUMPDEST JUMPDEST ADD DUP1 SLOAD PUSH2 0xD87 SWAP1 PUSH2 0x1351 JUMP JUMPDEST SWAP1 POP SWAP1 POP PUSH0 PUSH1 0x3 PUSH1 0x1 PUSH1 0x2 DUP2 LT PUSH2 0xDA1 JUMPI PUSH2 0xDA0 PUSH2 0x11C7 JUMP JUMPDEST JUMPDEST ADD DUP1 SLOAD PUSH2 0xDAD SWAP1 PUSH2 0x1351 JUMP JUMPDEST SWAP1 POP SWAP1 POP PUSH1 0x1 PUSH1 0x6 DUP3 DUP5 PUSH2 0xDC1 SWAP2 SWAP1 PUSH2 0x197F JUMP JUMPDEST PUSH2 0xDCB SWAP2 SWAP1 PUSH2 0x19DF JUMP JUMPDEST PUSH2 0xDD5 SWAP2 SWAP1 PUSH2 0x197F JUMP JUMPDEST SWAP3 POP POP POP JUMPDEST SWAP1 JUMP JUMPDEST PUSH0 PUSH1 0x1 DUP3 PUSH1 0x2 DUP2 LT PUSH2 0xDF2 JUMPI PUSH2 0xDF1 PUSH2 0x11C7 JUMP JUMPDEST JUMPDEST ADD PUSH0 SWAP1 SLOAD SWAP1 PUSH2 0x100 EXP SWAP1 DIV PUSH20 0xFFFFFFFFFFFFFFFFFFFFFFFFFFFFFFFFFFFFFFFF AND SWAP1 POP SWAP2 SWAP1 POP JUMP JUMPDEST PUSH1 0x5 PUSH0 SWAP1 SLOAD SWAP1 PUSH2 0x100 EXP SWAP1 DIV PUSH1 0xFF AND DUP2 JUMP JUMPDEST PUSH1 0x1 DUP2 PUSH1 0x2 DUP2 LT PUSH2 0xE3B JUMPI PUSH0 DUP1 REVERT JUMPDEST ADD PUSH0 SWAP2 POP SLOAD SWAP1 PUSH2 0x100 EXP SWAP1 DIV PUSH20 0xFFFFFFFFFFFFFFFFFFFFFFFFFFFFFFFFFFFFFFFF AND DUP2 JUMP JUMPDEST POP DUP1 SLOAD PUSH2 0xE6C SWAP1 PUSH2 0x1351 JUMP JUMPDEST PUSH0 DUP3 SSTORE DUP1 PUSH1 0x1F LT PUSH2 0xE7D JUMPI POP PUSH2 0xE9A JUMP JUMPDEST PUSH1 0x1F ADD PUSH1 0x20 SWAP1 DIV SWAP1 PUSH0 MSTORE PUSH1 0x20 PUSH0 KECCAK256 SWAP1 DUP2 ADD SWAP1 PUSH2 0xE99 SWAP2 SWAP1 PUSH2 0xEC8 JUMP JUMPDEST JUMPDEST POP JUMP JUMPDEST POP PUSH0 DUP2 SSTORE PUSH1 0x1 ADD PUSH0 SWAP1 SSTORE JUMP JUMPDEST POP PUSH0 DUP2 DUP2 PUSH2 0xEB7 SWAP2 SWAP1 PUSH2 0xE60 JUMP JUMPDEST POP PUSH1 0x1 ADD PUSH0 PUSH2 0xEC6 SWAP2 SWAP1 PUSH2 0xE60 JUMP JUMPDEST JUMP JUMPDEST JUMPDEST DUP1 DUP3 GT ISZERO PUSH2 0xEDF JUMPI PUSH0 DUP2 PUSH0 SWAP1 SSTORE POP PUSH1 0x1 ADD PUSH2 0xEC9 JUMP JUMPDEST POP SWAP1 JUMP JUMPDEST PUSH0 PUSH0 REVERT JUMPDEST PUSH0 PUSH0 REVERT JUMPDEST PUSH0 DUP2 SWAP1 POP SWAP2 SWAP1 POP JUMP JUMPDEST PUSH2 0xEFD DUP2 PUSH2 0xEEB JUMP JUMPDEST DUP2 EQ PUSH2 0xF07 JUMPI PUSH0 PUSH0 REVERT JUMPDEST POP JUMP JUMPDEST PUSH0 DUP2 CALLDATALOAD SWAP1 POP PUSH2 0xF18 DUP2 PUSH2 0xEF4 JUMP JUMPDEST SWAP3 SWAP2 POP POP JUMP JUMPDEST PUSH0 PUSH1 0x20 DUP3 DUP5 SUB SLT ISZERO PUSH2 0xF33 JUMPI PUSH2 0xF32 PUSH2 0xEE3 JUMP JUMPDEST JUMPDEST PUSH0 PUSH2 0xF40 DUP5 DUP3 DUP6 ADD PUSH2 0xF0A JUMP JUMPDEST SWAP2 POP POP SWAP3 SWAP2 POP POP JUMP JUMPDEST PUSH0 DUP2 MLOAD SWAP1 POP SWAP2 SWAP1 POP JUMP JUMPDEST PUSH0 DUP3 DUP3 MSTORE PUSH1 0x20 DUP3 ADD SWAP1 POP SWAP3 SWAP2 POP POP JUMP JUMPDEST DUP3 DUP2 DUP4 MCOPY PUSH0 DUP4 DUP4 ADD MSTORE POP POP POP JUMP JUMPDEST PUSH0 PUSH1 0x1F NOT PUSH1 0x1F DUP4 ADD AND SWAP1 POP SWAP2 SWAP1 POP JUMP JUMPDEST PUSH0 PUSH2 0xF8B DUP3 PUSH2 0xF49 JUMP JUMPDEST PUSH2 0xF95 DUP2 DUP6 PUSH2 0xF53 JUMP JUMPDEST SWAP4 POP PUSH2 0xFA5 DUP2 DUP6 PUSH1 0x20 DUP7 ADD PUSH2 0xF63 JUMP JUMPDEST PUSH2 0xFAE DUP2 PUSH2 0xF71 JUMP JUMPDEST DUP5 ADD SWAP2 POP POP SWAP3 SWAP2 POP POP JUMP JUMPDEST PUSH0 PUSH1 0x20 DUP3 ADD SWAP1 POP DUP2 DUP2 SUB PUSH0 DUP4 ADD MSTORE PUSH2 0xFD1 DUP2 DUP5 PUSH2 0xF81 JUMP JUMPDEST SWAP1 POP SWAP3 SWAP2 POP POP JUMP JUMPDEST PUSH0 PUSH0 REVERT JUMPDEST PUSH0 PUSH0 REVERT JUMPDEST PUSH0 PUSH0 REVERT JUMPDEST PUSH0 PUSH0 DUP4 PUSH1 0x1F DUP5 ADD SLT PUSH2 0xFFA JUMPI PUSH2 0xFF9 PUSH2 0xFD9 JUMP JUMPDEST JUMPDEST DUP3 CALLDATALOAD SWAP1 POP PUSH8 0xFFFFFFFFFFFFFFFF DUP2 GT ISZERO PUSH2 0x1017 JUMPI PUSH2 0x1016 PUSH2 0xFDD JUMP JUMPDEST JUMPDEST PUSH1 0x20 DUP4 ADD SWAP2 POP DUP4 PUSH1 0x1 DUP3 MUL DUP4 ADD GT ISZERO PUSH2 0x1033 JUMPI PUSH2 0x1032 PUSH2 0xFE1 JUMP JUMPDEST JUMPDEST SWAP3 POP SWAP3 SWAP1 POP JUMP JUMPDEST PUSH0 PUSH0 PUSH1 0x20 DUP4 DUP6 SUB SLT ISZERO PUSH2 0x1050 JUMPI PUSH2 0x104F PUSH2 0xEE3 JUMP JUMPDEST JUMPDEST PUSH0 DUP4 ADD CALLDATALOAD PUSH8 0xFFFFFFFFFFFFFFFF DUP2 GT ISZERO PUSH2 0x106D JUMPI PUSH2 0x106C PUSH2 0xEE7 JUMP JUMPDEST JUMPDEST PUSH2 0x1079 DUP6 DUP3 DUP7 ADD PUSH2 0xFE5 JUMP JUMPDEST SWAP3 POP SWAP3 POP POP SWAP3 POP SWAP3 SWAP1 POP JUMP JUMPDEST PUSH2 0x108E DUP2 PUSH2 0xEEB JUMP JUMPDEST DUP3 MSTORE POP POP JUMP JUMPDEST PUSH0 PUSH1 0x40 DUP3 ADD SWAP1 POP PUSH2 0x10A7 PUSH0 DUP4 ADD DUP6 PUSH2 0x1085 JUMP JUMPDEST PUSH2 0x10B4 PUSH1 0x20 DUP4 ADD DUP5 PUSH2 0x1085 JUMP JUMPDEST SWAP4 SWAP3 POP POP POP JUMP JUMPDEST PUSH0 PUSH20 0xFFFFFFFFFFFFFFFFFFFFFFFFFFFFFFFFFFFFFFFF DUP3 AND SWAP1 POP SWAP2 SWAP1 POP JUMP JUMPDEST PUSH0 PUSH2 0x10E4 DUP3 PUSH2 0x10BB JUMP JUMPDEST SWAP1 POP SWAP2 SWAP1 POP JUMP JUMPDEST PUSH2 0x10F4 DUP2 PUSH2 0x10DA JUMP JUMPDEST DUP3 MSTORE POP POP JUMP JUMPDEST PUSH0 PUSH1 0x20 DUP3 ADD SWAP1 POP PUSH2 0x110D PUSH0 DUP4 ADD DUP5 PUSH2 0x10EB JUMP JUMPDEST SWAP3 SWAP2 POP POP JUMP JUMPDEST PUSH0 PUSH1 0x20 DUP3 ADD SWAP1 POP PUSH2 0x1126 PUSH0 DUP4 ADD DUP5 PUSH2 0x1085 JUMP JUMPDEST SWAP3 SWAP2 POP POP JUMP JUMPDEST PUSH0 DUP2 ISZERO ISZERO SWAP1 POP SWAP2 SWAP1 POP JUMP JUMPDEST PUSH2 0x1140 DUP2 PUSH2 0x112C JUMP JUMPDEST DUP3 MSTORE POP POP JUMP JUMPDEST PUSH0 PUSH1 0x20 DUP3 ADD SWAP1 POP PUSH2 0x1159 PUSH0 DUP4 ADD DUP5 PUSH2 0x1137 JUMP JUMPDEST SWAP3 SWAP2 POP POP JUMP JUMPDEST PUSH32 0x536C6F74206D7573742062652030206F72203100000000000000000000000000 PUSH0 DUP3 ADD MSTORE POP JUMP JUMPDEST PUSH0 PUSH2 0x1193 PUSH1 0x13 DUP4 PUSH2 0xF53 JUMP JUMPDEST SWAP2 POP PUSH2 0x119E DUP3 PUSH2 0x115F JUMP JUMPDEST PUSH1 0x20 DUP3 ADD SWAP1 POP SWAP2 SWAP1 POP JUMP JUMPDEST PUSH0 PUSH1 0x20 DUP3 ADD SWAP1 POP DUP2 DUP2 SUB PUSH0 DUP4 ADD MSTORE PUSH2 0x11C0 DUP2 PUSH2 0x1187 JUMP JUMPDEST SWAP1 POP SWAP2 SWAP1 POP JUMP JUMPDEST PUSH32 0x4E487B7100000000000000000000000000000000000000000000000000000000 PUSH0 MSTORE PUSH1 0x32 PUSH1 0x4 MSTORE PUSH1 0x24 PUSH0 REVERT JUMPDEST PUSH32 0x536C6F742074616B656E00000000000000000000000000000000000000000000 PUSH0 DUP3 ADD MSTORE POP JUMP JUMPDEST PUSH0 PUSH2 0x1228 PUSH1 0xA DUP4 PUSH2 0xF53 JUMP JUMPDEST SWAP2 POP PUSH2 0x1233 DUP3 PUSH2 0x11F4 JUMP JUMPDEST PUSH1 0x20 DUP3 ADD SWAP1 POP SWAP2 SWAP1 POP JUMP JUMPDEST PUSH0 PUSH1 0x20 DUP3 ADD SWAP1 POP DUP2 DUP2 SUB PUSH0 DUP4 ADD MSTORE PUSH2 0x1255 DUP2 PUSH2 0x121C JUMP JUMPDEST SWAP1 POP SWAP2 SWAP1 POP JUMP JUMPDEST PUSH32 0x4E487B7100000000000000000000000000000000000000000000000000000000 PUSH0 MSTORE PUSH1 0x11 PUSH1 0x4 MSTORE PUSH1 0x24 PUSH0 REVERT JUMPDEST PUSH0 PUSH2 0x1293 DUP3 PUSH2 0xEEB JUMP JUMPDEST SWAP2 POP PUSH2 0x129E DUP4 PUSH2 0xEEB JUMP JUMPDEST SWAP3 POP DUP3 DUP3 SUB SWAP1 POP DUP2 DUP2 GT ISZERO PUSH2 0x12B6 JUMPI PUSH2 0x12B5 PUSH2 0x125C JUMP JUMPDEST JUMPDEST SWAP3 SWAP2 POP POP JUMP JUMPDEST PUSH32 0x416C7265616479206A6F696E6564206F7468657220736C6F7400000000000000 PUSH0 DUP3 ADD MSTORE POP JUMP JUMPDEST PUSH0 PUSH2 0x12F0 PUSH1 0x19 DUP4 PUSH2 0xF53 JUMP JUMPDEST SWAP2 POP PUSH2 0x12FB DUP3 PUSH2 0x12BC JUMP JUMPDEST PUSH1 0x20 DUP3 ADD SWAP1 POP SWAP2 SWAP1 POP JUMP JUMPDEST PUSH0 PUSH1 0x20 DUP3 ADD SWAP1 POP DUP2 DUP2 SUB PUSH0 DUP4 ADD MSTORE PUSH2 0x131D DUP2 PUSH2 0x12E4 JUMP JUMPDEST SWAP1 POP SWAP2 SWAP1 POP JUMP JUMPDEST PUSH32 0x4E487B7100000000000000000000000000000000000000000000000000000000 PUSH0 MSTORE PUSH1 0x22 PUSH1 0x4 MSTORE PUSH1 0x24 PUSH0 REVERT JUMPDEST PUSH0 PUSH1 0x2 DUP3 DIV SWAP1 POP PUSH1 0x1 DUP3 AND DUP1 PUSH2 0x1368 JUMPI PUSH1 0x7F DUP3 AND SWAP2 POP JUMPDEST PUSH1 0x20 DUP3 LT DUP2 SUB PUSH2 0x137B JUMPI PUSH2 0x137A PUSH2 0x1324 JUMP JUMPDEST JUMPDEST POP SWAP2 SWAP1 POP JUMP JUMPDEST PUSH32 0x4F6E6C79206F776E657200000000000000000000000000000000000000000000 PUSH0 DUP3 ADD MSTORE POP JUMP JUMPDEST PUSH0 PUSH2 0x13B5 PUSH1 0xA DUP4 PUSH2 0xF53 JUMP JUMPDEST SWAP2 POP PUSH2 0x13C0 DUP3 PUSH2 0x1381 JUMP JUMPDEST PUSH1 0x20 DUP3 ADD SWAP1 POP SWAP2 SWAP1 POP JUMP JUMPDEST PUSH0 PUSH1 0x20 DUP3 ADD SWAP1 POP DUP2 DUP2 SUB PUSH0 DUP4 ADD MSTORE PUSH2 0x13E2 DUP2 PUSH2 0x13A9 JUMP JUMPDEST SWAP1 POP SWAP2 SWAP1 POP JUMP JUMPDEST PUSH32 0x5175657374696F6E20616C726561647920736574000000000000000000000000 PUSH0 DUP3 ADD MSTORE POP JUMP JUMPDEST PUSH0 PUSH2 0x141D PUSH1 0x14 DUP4 PUSH2 0xF53 JUMP JUMPDEST SWAP2 POP PUSH2 0x1428 DUP3 PUSH2 0x13E9 JUMP JUMPDEST PUSH1 0x20 DUP3 ADD SWAP1 POP SWAP2 SWAP1 POP JUMP JUMPDEST PUSH0 PUSH1 0x20 DUP3 ADD SWAP1 POP DUP2 DUP2 SUB PUSH0 DUP4 ADD MSTORE PUSH2 0x144A DUP2 PUSH2 0x1411 JUMP JUMPDEST SWAP1 POP SWAP2 SWAP1 POP JUMP JUMPDEST PUSH32 0x47616D6520616C72656164792061637469766500000000000000000000000000 PUSH0 DUP3 ADD MSTORE POP JUMP JUMPDEST PUSH0 PUSH2 0x1485 PUSH1 0x13 DUP4 PUSH2 0xF53 JUMP JUMPDEST SWAP2 POP PUSH2 0x1490 DUP3 PUSH2 0x1451 JUMP JUMPDEST PUSH1 0x20 DUP3 ADD SWAP1 POP SWAP2 SWAP1 POP JUMP JUMPDEST PUSH0 PUSH1 0x20 DUP3 ADD SWAP1 POP DUP2 DUP2 SUB PUSH0 DUP4 ADD MSTORE PUSH2 0x14B2 DUP2 PUSH2 0x1479 JUMP JUMPDEST SWAP1 POP SWAP2 SWAP1 POP JUMP JUMPDEST PUSH0 DUP3 SWAP1 POP SWAP3 SWAP2 POP POP JUMP JUMPDEST PUSH32 0x4E487B7100000000000000000000000000000000000000000000000000000000 PUSH0 MSTORE PUSH1 0x41 PUSH1 0x4 MSTORE PUSH1 0x24 PUSH0 REVERT JUMPDEST PUSH0 DUP2 SWAP1 POP DUP2 PUSH0 MSTORE PUSH1 0x20 PUSH0 KECCAK256 SWAP1 POP SWAP2 SWAP1 POP JUMP JUMPDEST PUSH0 PUSH1 0x20 PUSH1 0x1F DUP4 ADD DIV SWAP1 POP SWAP2 SWAP1 POP JUMP JUMPDEST PUSH0 DUP3 DUP3 SHL SWAP1 POP SWAP3 SWAP2 POP POP JUMP JUMPDEST PUSH0 PUSH1 0x8 DUP4 MUL PUSH2 0x154C PUSH32 0xFFFFFFFFFFFFFFFFFFFFFFFFFFFFFFFFFFFFFFFFFFFFFFFFFFFFFFFFFFFFFFFF DUP3 PUSH2 0x1511 JUMP JUMPDEST PUSH2 0x1556 DUP7 DUP4 PUSH2 0x1511 JUMP JUMPDEST SWAP6 POP DUP1 NOT DUP5 AND SWAP4 POP DUP1 DUP7 AND DUP5 OR SWAP3 POP POP POP SWAP4 SWAP3 POP POP POP JUMP JUMPDEST PUSH0 DUP2 SWAP1 POP SWAP2 SWAP1 POP JUMP JUMPDEST PUSH0 PUSH2 0x1591 PUSH2 0x158C PUSH2 0x1587 DUP5 PUSH2 0xEEB JUMP JUMPDEST PUSH2 0x156E JUMP JUMPDEST PUSH2 0xEEB JUMP JUMPDEST SWAP1 POP SWAP2 SWAP1 POP JUMP JUMPDEST PUSH0 DUP2 SWAP1 POP SWAP2 SWAP1 POP JUMP JUMPDEST PUSH2 0x15AA DUP4 PUSH2 0x1577 JUMP JUMPDEST PUSH2 0x15BE PUSH2 0x15B6 DUP3 PUSH2 0x1598 JUMP JUMPDEST DUP5 DUP5 SLOAD PUSH2 0x151D JUMP JUMPDEST DUP3 SSTORE POP POP POP POP JUMP JUMPDEST PUSH0 PUSH0 SWAP1 POP SWAP1 JUMP JUMPDEST PUSH2 0x15D5 PUSH2 0x15C6 JUMP JUMPDEST PUSH2 0x15E0 DUP2 DUP5 DUP5 PUSH2 0x15A1 JUMP JUMPDEST POP POP POP JUMP JUMPDEST JUMPDEST DUP2 DUP2 LT ISZERO PUSH2 0x1603 JUMPI PUSH2 0x15F8 PUSH0 DUP3 PUSH2 0x15CD JUMP JUMPDEST PUSH1 0x1 DUP2 ADD SWAP1 POP PUSH2 0x15E6 JUMP JUMPDEST POP POP JUMP JUMPDEST PUSH1 0x1F DUP3 GT ISZERO PUSH2 0x1648 JUMPI PUSH2 0x1619 DUP2 PUSH2 0x14F0 JUMP JUMPDEST PUSH2 0x1622 DUP5 PUSH2 0x1502 JUMP JUMPDEST DUP2 ADD PUSH1 0x20 DUP6 LT ISZERO PUSH2 0x1631 JUMPI DUP2 SWAP1 POP JUMPDEST PUSH2 0x1645 PUSH2 0x163D DUP6 PUSH2 0x1502 JUMP JUMPDEST DUP4 ADD DUP3 PUSH2 0x15E5 JUMP JUMPDEST POP POP JUMPDEST POP POP POP JUMP JUMPDEST PUSH0 DUP3 DUP3 SHR SWAP1 POP SWAP3 SWAP2 POP POP JUMP JUMPDEST PUSH0 PUSH2 0x1668 PUSH0 NOT DUP5 PUSH1 0x8 MUL PUSH2 0x164D JUMP JUMPDEST NOT DUP1 DUP4 AND SWAP2 POP POP SWAP3 SWAP2 POP POP JUMP JUMPDEST PUSH0 PUSH2 0x1680 DUP4 DUP4 PUSH2 0x1659 JUMP JUMPDEST SWAP2 POP DUP3 PUSH1 0x2 MUL DUP3 OR SWAP1 POP SWAP3 SWAP2 POP POP JUMP JUMPDEST PUSH2 0x169A DUP4 DUP4 PUSH2 0x14B9 JUMP JUMPDEST PUSH8 0xFFFFFFFFFFFFFFFF DUP2 GT ISZERO PUSH2 0x16B3 JUMPI PUSH2 0x16B2 PUSH2 0x14C3 JUMP JUMPDEST JUMPDEST PUSH2 0x16BD DUP3 SLOAD PUSH2 0x1351 JUMP JUMPDEST PUSH2 0x16C8 DUP3 DUP3 DUP6 PUSH2 0x1607 JUMP JUMPDEST PUSH0 PUSH1 0x1F DUP4 GT PUSH1 0x1 DUP2 EQ PUSH2 0x16F5 JUMPI PUSH0 DUP5 ISZERO PUSH2 0x16E3 JUMPI DUP3 DUP8 ADD CALLDATALOAD SWAP1 POP JUMPDEST PUSH2 0x16ED DUP6 DUP3 PUSH2 0x1675 JUMP JUMPDEST DUP7 SSTORE POP PUSH2 0x1754 JUMP JUMPDEST PUSH1 0x1F NOT DUP5 AND PUSH2 0x1703 DUP7 PUSH2 0x14F0 JUMP JUMPDEST PUSH0 JUMPDEST DUP3 DUP2 LT ISZERO PUSH2 0x172A JUMPI DUP5 DUP10 ADD CALLDATALOAD DUP3 SSTORE PUSH1 0x1 DUP3 ADD SWAP2 POP PUSH1 0x20 DUP6 ADD SWAP5 POP PUSH1 0x20 DUP2 ADD SWAP1 POP PUSH2 0x1705 JUMP JUMPDEST DUP7 DUP4 LT ISZERO PUSH2 0x1747 JUMPI DUP5 DUP10 ADD CALLDATALOAD PUSH2 0x1743 PUSH1 0x1F DUP10 AND DUP3 PUSH2 0x1659 JUMP JUMPDEST DUP4 SSTORE POP JUMPDEST PUSH1 0x1 PUSH1 0x2 DUP9 MUL ADD DUP9 SSTORE POP POP POP JUMPDEST POP POP POP POP POP POP POP JUMP JUMPDEST DUP3 DUP2 DUP4 CALLDATACOPY PUSH0 DUP4 DUP4 ADD MSTORE POP POP POP JUMP JUMPDEST PUSH0 PUSH2 0x1776 DUP4 DUP6 PUSH2 0xF53 JUMP JUMPDEST SWAP4 POP PUSH2 0x1783 DUP4 DUP6 DUP5 PUSH2 0x175D JUMP JUMPDEST PUSH2 0x178C DUP4 PUSH2 0xF71 JUMP JUMPDEST DUP5 ADD SWAP1 POP SWAP4 SWAP3 POP POP POP JUMP JUMPDEST PUSH0 PUSH1 0x20 DUP3 ADD SWAP1 POP DUP2 DUP2 SUB PUSH0 DUP4 ADD MSTORE PUSH2 0x17B0 DUP2 DUP5 DUP7 PUSH2 0x176B JUMP JUMPDEST SWAP1 POP SWAP4 SWAP3 POP POP POP JUMP JUMPDEST PUSH32 0x4E6F74206120706C617965720000000000000000000000000000000000000000 PUSH0 DUP3 ADD MSTORE POP JUMP JUMPDEST PUSH0 PUSH2 0x17ED PUSH1 0xC DUP4 PUSH2 0xF53 JUMP JUMPDEST SWAP2 POP PUSH2 0x17F8 DUP3 PUSH2 0x17B9 JUMP JUMPDEST PUSH1 0x20 DUP3 ADD SWAP1 POP SWAP2 SWAP1 POP JUMP JUMPDEST PUSH0 PUSH1 0x20 DUP3 ADD SWAP1 POP DUP2 DUP2 SUB PUSH0 DUP4 ADD MSTORE PUSH2 0x181A DUP2 PUSH2 0x17E1 JUMP JUMPDEST SWAP1 POP SWAP2 SWAP1 POP JUMP JUMPDEST PUSH32 0x47616D65206E6F74206163746976652079657420286E65656420626F74682070 PUSH0 DUP3 ADD MSTORE PUSH32 0x6C61796572732900000000000000000000000000000000000000000000000000 PUSH1 0x20 DUP3 ADD MSTORE POP JUMP JUMPDEST PUSH0 PUSH2 0x187B PUSH1 0x27 DUP4 PUSH2 0xF53 JUMP JUMPDEST SWAP2 POP PUSH2 0x1886 DUP3 PUSH2 0x1821 JUMP JUMPDEST PUSH1 0x40 DUP3 ADD SWAP1 POP SWAP2 SWAP1 POP JUMP JUMPDEST PUSH0 PUSH1 0x20 DUP3 ADD SWAP1 POP DUP2 DUP2 SUB PUSH0 DUP4 ADD MSTORE PUSH2 0x18A8 DUP2 PUSH2 0x186F JUMP JUMPDEST SWAP1 POP SWAP2 SWAP1 POP JUMP JUMPDEST PUSH32 0x416E737765722063616E6E6F7420626520656D70747900000000000000000000 PUSH0 DUP3 ADD MSTORE POP JUMP JUMPDEST PUSH0 PUSH2 0x18E3 PUSH1 0x16 DUP4 PUSH2 0xF53 JUMP JUMPDEST SWAP2 POP PUSH2 0x18EE DUP3 PUSH2 0x18AF JUMP JUMPDEST PUSH1 0x20 DUP3 ADD SWAP1 POP SWAP2 SWAP1 POP JUMP JUMPDEST PUSH0 PUSH1 0x20 DUP3 ADD SWAP1 POP DUP2 DUP2 SUB PUSH0 DUP4 ADD MSTORE PUSH2 0x1910 DUP2 PUSH2 0x18D7 JUMP JUMPDEST SWAP1 POP SWAP2 SWAP1 POP JUMP JUMPDEST PUSH32 0x416C726561647920616E73776572656400000000000000000000000000000000 PUSH0 DUP3 ADD MSTORE POP JUMP JUMPDEST PUSH0 PUSH2 0x194B PUSH1 0x10 DUP4 PUSH2 0xF53 JUMP JUMPDEST SWAP2 POP PUSH2 0x1956 DUP3 PUSH2 0x1917 JUMP JUMPDEST PUSH1 0x20 DUP3 ADD SWAP1 POP SWAP2 SWAP1 POP JUMP JUMPDEST PUSH0 PUSH1 0x20 DUP3 ADD SWAP1 POP DUP2 DUP2 SUB PUSH0 DUP4 ADD MSTORE PUSH2 0x1978 DUP2 PUSH2 0x193F JUMP JUMPDEST SWAP1 POP SWAP2 SWAP1 POP JUMP JUMPDEST PUSH0 PUSH2 0x1989 DUP3 PUSH2 0xEEB JUMP JUMPDEST SWAP2 POP PUSH2 0x1994 DUP4 PUSH2 0xEEB JUMP JUMPDEST SWAP3 POP DUP3 DUP3 ADD SWAP1 POP DUP1 DUP3 GT ISZERO PUSH2 0x19AC JUMPI PUSH2 0x19AB PUSH2 0x125C JUMP JUMPDEST JUMPDEST SWAP3 SWAP2 POP POP JUMP JUMPDEST PUSH32 0x4E487B7100000000000000000000000000000000000000000000000000000000 PUSH0 MSTORE PUSH1 0x12 PUSH1 0x4 MSTORE PUSH1 0x24 PUSH0 REVERT JUMPDEST PUSH0 PUSH2 0x19E9 DUP3 PUSH2 0xEEB JUMP JUMPDEST SWAP2 POP PUSH2 0x19F4 DUP4 PUSH2 0xEEB JUMP JUMPDEST SWAP3 POP DUP3 PUSH2 0x1A04 JUMPI PUSH2 0x1A03 PUSH2 0x19B2 JUMP JUMPDEST JUMPDEST DUP3 DUP3 MOD SWAP1 POP SWAP3 SWAP2 POP POP JUMP INVALID LOG2 PUSH5 0x6970667358 0x22 SLT KECCAK256 MOD GASLIMIT PUSH12 0x37ACD2FE02016DAB9E5C5F30 0xA9 0xD6 0xA5 PUSH9 0x39939106B06A099F1E 0xCA 0xB8 MUL CREATE PUSH5 0x736F6C6343 STOP ADDMOD 0x1F STOP CALLER "
		},
		"gasEstimates": {
			"creation": {
				"codeDepositCost": "1345000",
				"executionCost": "infinite",
				"totalCost": "infinite"
			},
			"external": {
				"answers(uint256)": "infinite",
				"gameActive()": "2532",
				"getAnswer(uint256)": "infinite",
				"getLengths()": "infinite",
				"getPlayer(uint256)": "2849",
				"getResult()": "infinite",
				"join(uint256)": "infinite",
				"owner()": "infinite",
				"players(uint256)": "2883",
				"question()": "infinite",
				"reset()": "infinite",
				"setQuestion(string)": "infinite",
				"submitAnswer(string)": "infinite"
			}
		},
		"methodIdentifiers": {
			"answers(uint256)": "17599cc5",
			"gameActive()": "f020044f",
			"getAnswer(uint256)": "b5ab58dc",
			"getLengths()": "800bd5c8",
			"getPlayer(uint256)": "e55ae4e8",
			"getResult()": "de292789",
			"join(uint256)": "049878f3",
			"owner()": "8da5cb5b",
			"players(uint256)": "f71d96cb",
			"question()": "3fad9ae0",
			"reset()": "d826f88f",
			"setQuestion(string)": "799e18c0",
			"submitAnswer(string)": "bb3e3159"
		}
	},
	"abi": [
		{
			"inputs": [],
			"stateMutability": "nonpayable",
			"type": "constructor"
		},
		{
			"anonymous": false,
			"inputs": [
				{
					"indexed": true,
					"internalType": "uint256",
					"name": "slot",
					"type": "uint256"
				},
				{
					"indexed": false,
					"internalType": "string",
					"name": "answer",
					"type": "string"
				}
			],
			"name": "AnswerSubmitted",
			"type": "event"
		},
		{
			"anonymous": false,
			"inputs": [
				{
					"indexed": true,
					"internalType": "uint256",
					"name": "slot",
					"type": "uint256"
				},
				{
					"indexed": false,
					"internalType": "address",
					"name": "player",
					"type": "address"
				}
			],
			"name": "PlayerJoined",
			"type": "event"
		},
		{
			"anonymous": false,
			"inputs": [
				{
					"indexed": false,
					"internalType": "string",
					"name": "question",
					"type": "string"
				}
			],
			"name": "QuestionSet",
			"type": "event"
		},
		{
			"anonymous": false,
			"inputs": [
				{
					"indexed": false,
					"internalType": "uint256",
					"name": "result",
					"type": "uint256"
				}
			],
			"name": "ResultCalculated",
			"type": "event"
		},
		{
			"inputs": [
				{
					"internalType": "uint256",
					"name": "",
					"type": "uint256"
				}
			],
			"name": "answers",
			"outputs": [
				{
					"internalType": "string",
					"name": "",
					"type": "string"
				}
			],
			"stateMutability": "view",
			"type": "function"
		},
		{
			"inputs": [],
			"name": "gameActive",
			"outputs": [
				{
					"internalType": "bool",
					"name": "",
					"type": "bool"
				}
			],
			"stateMutability": "view",
			"type": "function"
		},
		{
			"inputs": [
				{
					"internalType": "uint256",
					"name": "slot",
					"type": "uint256"
				}
			],
			"name": "getAnswer",
			"outputs": [
				{
					"internalType": "string",
					"name": "",
					"type": "string"
				}
			],
			"stateMutability": "view",
			"type": "function"
		},
		{
			"inputs": [],
			"name": "getLengths",
			"outputs": [
				{
					"internalType": "uint256",
					"name": "len1",
					"type": "uint256"
				},
				{
					"internalType": "uint256",
					"name": "len2",
					"type": "uint256"
				}
			],
			"stateMutability": "view",
			"type": "function"
		},
		{
			"inputs": [
				{
					"internalType": "uint256",
					"name": "slot",
					"type": "uint256"
				}
			],
			"name": "getPlayer",
			"outputs": [
				{
					"internalType": "address",
					"name": "",
					"type": "address"
				}
			],
			"stateMutability": "view",
			"type": "function"
		},
		{
			"inputs": [],
			"name": "getResult",
			"outputs": [
				{
					"internalType": "uint256",
					"name": "",
					"type": "uint256"
				}
			],
			"stateMutability": "view",
			"type": "function"
		},
		{
			"inputs": [
				{
					"internalType": "uint256",
					"name": "slot",
					"type": "uint256"
				}
			],
			"name": "join",
			"outputs": [],
			"stateMutability": "nonpayable",
			"type": "function"
		},
		{
			"inputs": [],
			"name": "owner",
			"outputs": [
				{
					"internalType": "address",
					"name": "",
					"type": "address"
				}
			],
			"stateMutability": "view",
			"type": "function"
		},
		{
			"inputs": [
				{
					"internalType": "uint256",
					"name": "",
					"type": "uint256"
				}
			],
			"name": "players",
			"outputs": [
				{
					"internalType": "address",
					"name": "",
					"type": "address"
				}
			],
			"stateMutability": "view",
			"type": "function"
		},
		{
			"inputs": [],
			"name": "question",
			"outputs": [
				{
					"internalType": "string",
					"name": "",
					"type": "string"
				}
			],
			"stateMutability": "view",
			"type": "function"
		},
		{
			"inputs": [],
			"name": "reset",
			"outputs": [],
			"stateMutability": "nonpayable",
			"type": "function"
		},
		{
			"inputs": [
				{
					"internalType": "string",
					"name": "_question",
					"type": "string"
				}
			],
			"name": "setQuestion",
			"outputs": [],
			"stateMutability": "nonpayable",
			"type": "function"
		},
		{
			"inputs": [
				{
					"internalType": "string",
					"name": "answer",
					"type": "string"
				}
			],
			"name": "submitAnswer",
			"outputs": [],
			"stateMutability": "nonpayable",
			"type": "function"
		}
	]
}