{
	"data": {
		"bytecode": {
			"linkReferences": {},
			"object": "60a0604052348015600e575f5ffd5b503373ffffffffffffffffffffffffffffffffffffffff1660808173ffffffffffffffffffffffffffffffffffffffff1681525050608051611d586100695f395f8181610454015281816107470152610c260152611d585ff3fe608060405234801561000f575f5ffd5b50600436106100f3575f3560e01c80638da5cb5b11610095578063bb47221911610064578063bb4722191461025f578063d16efed814610269578063efaa55a014610287578063f71d96cb146102a3576100f3565b80638da5cb5b146101d75780638e7ea5b2146101f5578063b5ab58dc14610213578063bb3e315914610243576100f3565b806365225665116100d1578063652256651461016357806370bddc8014610193578063799e18c0146101b1578063837e7cc6146101cd576100f3565b806317599cc5146100f75780633fad9ae0146101275780635e123ce414610145575b5f5ffd5b610111600480360381019061010c9190611134565b6102d3565b60405161011e91906111cf565b60405180910390f35b61012f610372565b60405161013c91906111cf565b60405180910390f35b61014d6103fd565b60405161015a9190611209565b60405180910390f35b61017d60048036038101906101789190611134565b61040f565b60405161018a9190611261565b60405180910390f35b61019b61044c565b6040516101a89190611289565b60405180910390f35b6101cb60048036038101906101c69190611303565b610452565b005b6101d561057d565b005b6101df610745565b6040516101ec9190611261565b60405180910390f35b6101fd610769565b60405161020a91906111cf565b60405180910390f35b61022d60048036038101906102289190611134565b610831565b60405161023a91906111cf565b60405180910390f35b61025d60048036038101906102589190611303565b6108d6565b005b610267610c24565b005b610271610d14565b60405161027e9190611209565b60405180910390f35b6102a1600480360381019061029c9190611134565b610d27565b005b6102bd60048036038101906102b89190611134565b611042565b6040516102ca9190611261565b60405180910390f35b600381600281106102e2575f80fd5b015f9150905080546102f39061137b565b80601f016020809104026020016040519081016040528092919081815260200182805461031f9061137b565b801561036a5780601f106103415761010080835404028352916020019161036a565b820191905f5260205f20905b81548152906001019060200180831161034d57829003601f168201915b505050505081565b5f805461037e9061137b565b80601f01602080910402602001604051908101604052809291908181526020018280546103aa9061137b565b80156103f55780601f106103cc576101008083540402835291602001916103f5565b820191905f5260205f20905b8154815290600101906020018083116103d857829003601f168201915b505050505081565b60065f9054906101000a900460ff1681565b5f60018260028110610424576104236113ab565b5b015f9054906101000a900473ffffffffffffffffffffffffffffffffffffffff169050919050565b60055481565b7f000000000000000000000000000000000000000000000000000000000000000073ffffffffffffffffffffffffffffffffffffffff163373ffffffffffffffffffffffffffffffffffffffff16146104e0576040517f08c379a00000000000000000000000000000000000000000000000000000000081526004016104d790611422565b60405180910390fd5b60065f9054906101000a900460ff161561052f576040517f08c379a00000000000000000000000000000000000000000000000000000000081526004016105269061148a565b60405180910390fd5b81815f918261053f92919061167f565b507f94a9b24dd4426a3e243e3faadf503a0b15a3c6ce1db37582f9926082221263f98282604051610571929190611786565b60405180910390a15050565b600660019054906101000a900460ff166105cc576040517f08c379a00000000000000000000000000000000000000000000000000000000081526004016105c390611818565b60405180910390fd5b5f60055414610610576040517f08c379a000000000000000000000000000000000000000000000000000000000815260040161060790611880565b60405180910390fd5b5f60035f60028110610625576106246113ab565b5b0180546106319061137b565b905090505f600360016002811061064b5761064a6113ab565b5b0180546106579061137b565b9050905060016006828461066b91906118cb565b610675919061192b565b61067f91906118cb565b6005819055505f600360055411156106cc576040518060400160405280600881526020017f506c617965722032000000000000000000000000000000000000000000000000815250610703565b6040518060400160405280600881526020017f506c6179657220310000000000000000000000000000000000000000000000008152505b90507f786134fe30295db98f2b9dc94a025b91e5f16fab38d61e00f68f1608f2b824856005548260405161073892919061195b565b60405180910390a1505050565b7f000000000000000000000000000000000000000000000000000000000000000081565b60605f600554116107af576040517f08c379a00000000000000000000000000000000000000000000000000000000081526004016107a6906119d3565b60405180910390fd5b600360055411156107f5576040518060400160405280600e81526020017f506c6179657220322077696e732100000000000000000000000000000000000081525061082c565b6040518060400160405280600e81526020017f506c6179657220312077696e73210000000000000000000000000000000000008152505b905090565b606060038260028110610847576108466113ab565b5b0180546108539061137b565b80601f016020809104026020016040519081016040528092919081815260200182805461087f9061137b565b80156108ca5780601f106108a1576101008083540402835291602001916108ca565b820191905f5260205f20905b8154815290600101906020018083116108ad57829003601f168201915b50505050509050919050565b60015f600281106108ea576108e96113ab565b5b015f9054906101000a900473ffffffffffffffffffffffffffffffffffffffff1673ffffffffffffffffffffffffffffffffffffffff163373ffffffffffffffffffffffffffffffffffffffff1614806109a3575060018060028110610953576109526113ab565b5b015f9054906101000a900473ffffffffffffffffffffffffffffffffffffffff1673ffffffffffffffffffffffffffffffffffffffff163373ffffffffffffffffffffffffffffffffffffffff16145b6109e2576040517f08c379a00000000000000000000000000000000000000000000000000000000081526004016109d990611a3b565b60405180910390fd5b60065f9054906101000a900460ff16610a30576040517f08c379a0000000000000000000000000000000000000000000000000000000008152600401610a2790611aa3565b60405180910390fd5b5f8282905011610a75576040517f08c379a0000000000000000000000000000000000000000000000000000000008152600401610a6c90611b0b565b60405180910390fd5b5f60015f60028110610a8a57610a896113ab565b5b015f9054906101000a900473ffffffffffffffffffffffffffffffffffffffff1673ffffffffffffffffffffffffffffffffffffffff163373ffffffffffffffffffffffffffffffffffffffff1614610ae4576001610ae6565b5f5b60ff1690505f60038260028110610b0057610aff6113ab565b5b018054610b0c9061137b565b905014610b4e576040517f08c379a0000000000000000000000000000000000000000000000000000000008152600401610b4590611b73565b60405180910390fd5b828260038360028110610b6457610b636113ab565b5b019182610b7292919061167f565b50807f04cf4660632bddc9871c3099c79fc6e85c889dbee3192ea0cfa1fde0419dfd7d8484604051610ba5929190611786565b60405180910390a25f60035f60028110610bc257610bc16113ab565b5b018054610bce9061137b565b9050118015610bfe57505f6003600160028110610bee57610bed6113ab565b5b018054610bfa9061137b565b9050115b15610c1f576001600660016101000a81548160ff0219169083151502179055505b505050565b7f000000000000000000000000000000000000000000000000000000000000000073ffffffffffffffffffffffffffffffffffffffff163373ffffffffffffffffffffffffffffffffffffffff1614610cb2576040517f08c379a0000000000000000000000000000000000000000000000000000000008152600401610ca990611422565b60405180910390fd5b5f5f610cbe9190611076565b60015f610ccb91906110b3565b60035f610cd891906110bf565b5f6005819055505f60065f6101000a81548160ff0219169083151502179055505f600660016101000a81548160ff021916908315150217905550565b600660019054906101000a900460ff1681565b5f811480610d355750600181145b610d74576040517f08c379a0000000000000000000000000000000000000000000000000000000008152600401610d6b90611bdb565b60405180910390fd5b5f73ffffffffffffffffffffffffffffffffffffffff1660018260028110610d9f57610d9e6113ab565b5b015f9054906101000a900473ffffffffffffffffffffffffffffffffffffffff1673ffffffffffffffffffffffffffffffffffffffff1614610e16576040517f08c379a0000000000000000000000000000000000000000000000000000000008152600401610e0d90611c43565b60405180910390fd5b6001816001610e259190611c61565b60028110610e3657610e356113ab565b5b015f9054906101000a900473ffffffffffffffffffffffffffffffffffffffff1673ffffffffffffffffffffffffffffffffffffffff163373ffffffffffffffffffffffffffffffffffffffff1603610ec4576040517f08c379a0000000000000000000000000000000000000000000000000000000008152600401610ebb90611d04565b60405180910390fd5b3360018260028110610ed957610ed86113ab565b5b015f6101000a81548173ffffffffffffffffffffffffffffffffffffffff021916908373ffffffffffffffffffffffffffffffffffffffff160217905550807f87969bc7faf902221a147b95ceba76e011c5efb0339a0a8ee7a2bb82d9cfbbd633604051610f479190611261565b60405180910390a25f73ffffffffffffffffffffffffffffffffffffffff1660015f60028110610f7a57610f796113ab565b5b015f9054906101000a900473ffffffffffffffffffffffffffffffffffffffff1673ffffffffffffffffffffffffffffffffffffffff161415801561101f57505f73ffffffffffffffffffffffffffffffffffffffff1660018060028110610fe557610fe46113ab565b5b015f9054906101000a900473ffffffffffffffffffffffffffffffffffffffff1673ffffffffffffffffffffffffffffffffffffffff1614155b1561103f57600160065f6101000a81548160ff0219169083151502179055505b50565b60018160028110611051575f80fd5b015f915054906101000a900473ffffffffffffffffffffffffffffffffffffffff1681565b5080546110829061137b565b5f825580601f1061109357506110b0565b601f0160209004905f5260205f20908101906110af91906110de565b5b50565b505f81556001015f9055565b505f81816110cd9190611076565b506001015f6110dc9190611076565b565b5b808211156110f5575f815f9055506001016110df565b5090565b5f5ffd5b5f5ffd5b5f819050919050565b61111381611101565b811461111d575f5ffd5b50565b5f8135905061112e8161110a565b92915050565b5f60208284031215611149576111486110f9565b5b5f61115684828501611120565b91505092915050565b5f81519050919050565b5f82825260208201905092915050565b8281835e5f83830152505050565b5f601f19601f8301169050919050565b5f6111a18261115f565b6111ab8185611169565b93506111bb818560208601611179565b6111c481611187565b840191505092915050565b5f6020820190508181035f8301526111e78184611197565b905092915050565b5f8115159050919050565b611203816111ef565b82525050565b5f60208201905061121c5f8301846111fa565b92915050565b5f73ffffffffffffffffffffffffffffffffffffffff82169050919050565b5f61124b82611222565b9050919050565b61125b81611241565b82525050565b5f6020820190506112745f830184611252565b92915050565b61128381611101565b82525050565b5f60208201905061129c5f83018461127a565b92915050565b5f5ffd5b5f5ffd5b5f5ffd5b5f5f83601f8401126112c3576112c26112a2565b5b8235905067ffffffffffffffff8111156112e0576112df6112a6565b5b6020830191508360018202830111156112fc576112fb6112aa565b5b9250929050565b5f5f60208385031215611319576113186110f9565b5b5f83013567ffffffffffffffff811115611336576113356110fd565b5b611342858286016112ae565b92509250509250929050565b7f4e487b71000000000000000000000000000000000000000000000000000000005f52602260045260245ffd5b5f600282049050600182168061139257607f821691505b6020821081036113a5576113a461134e565b5b50919050565b7f4e487b71000000000000000000000000000000000000000000000000000000005f52603260045260245ffd5b7f4f6e6c79206f776e65722063616e2063616c6c207468697300000000000000005f82015250565b5f61140c601883611169565b9150611417826113d8565b602082019050919050565b5f6020820190508181035f83015261143981611400565b9050919050565b7f47616d6520616c726561647920737461727465640000000000000000000000005f82015250565b5f611474601483611169565b915061147f82611440565b602082019050919050565b5f6020820190508181035f8301526114a181611468565b9050919050565b5f82905092915050565b7f4e487b71000000000000000000000000000000000000000000000000000000005f52604160045260245ffd5b5f819050815f5260205f209050919050565b5f6020601f8301049050919050565b5f82821b905092915050565b5f6008830261153b7fffffffffffffffffffffffffffffffffffffffffffffffffffffffffffffffff82611500565b6115458683611500565b95508019841693508086168417925050509392505050565b5f819050919050565b5f61158061157b61157684611101565b61155d565b611101565b9050919050565b5f819050919050565b61159983611566565b6115ad6115a582611587565b84845461150c565b825550505050565b5f5f905090565b6115c46115b5565b6115cf818484611590565b505050565b5b818110156115f2576115e75f826115bc565b6001810190506115d5565b5050565b601f82111561163757611608816114df565b611611846114f1565b81016020851015611620578190505b61163461162c856114f1565b8301826115d4565b50505b505050565b5f82821c905092915050565b5f6116575f198460080261163c565b1980831691505092915050565b5f61166f8383611648565b9150826002028217905092915050565b61168983836114a8565b67ffffffffffffffff8111156116a2576116a16114b2565b5b6116ac825461137b565b6116b78282856115f6565b5f601f8311600181146116e4575f84156116d2578287013590505b6116dc8582611664565b865550611743565b601f1984166116f2866114df565b5f5b82811015611719578489013582556001820191506020850194506020810190506116f4565b868310156117365784890135611732601f891682611648565b8355505b6001600288020188555050505b50505050505050565b828183375f83830152505050565b5f6117658385611169565b935061177283858461174c565b61177b83611187565b840190509392505050565b5f6020820190508181035f83015261179f81848661175a565b90509392505050565b7f426f746820706c6179657273206d757374207375626d697420616e73776572735f8201527f2066697273740000000000000000000000000000000000000000000000000000602082015250565b5f611802602683611169565b915061180d826117a8565b604082019050919050565b5f6020820190508181035f83015261182f816117f6565b9050919050565b7f526f6c6c20616c72656164792063616c63756c617465640000000000000000005f82015250565b5f61186a601783611169565b915061187582611836565b602082019050919050565b5f6020820190508181035f8301526118978161185e565b9050919050565b7f4e487b71000000000000000000000000000000000000000000000000000000005f52601160045260245ffd5b5f6118d582611101565b91506118e083611101565b92508282019050808211156118f8576118f761189e565b5b92915050565b7f4e487b71000000000000000000000000000000000000000000000000000000005f52601260045260245ffd5b5f61193582611101565b915061194083611101565b9250826119505761194f6118fe565b5b828206905092915050565b5f60408201905061196e5f83018561127a565b81810360208301526119808184611197565b90509392505050565b7f44696365206e6f7420726f6c6c656420796574000000000000000000000000005f82015250565b5f6119bd601383611169565b91506119c882611989565b602082019050919050565b5f6020820190508181035f8301526119ea816119b1565b9050919050565b7f596f7520617265206e6f74206120706c617965720000000000000000000000005f82015250565b5f611a25601483611169565b9150611a30826119f1565b602082019050919050565b5f6020820190508181035f830152611a5281611a19565b9050919050565b7f47616d6520686173206e6f7420737461727465642079657400000000000000005f82015250565b5f611a8d601883611169565b9150611a9882611a59565b602082019050919050565b5f6020820190508181035f830152611aba81611a81565b9050919050565b7f416e737765722063616e6e6f7420626520656d707479000000000000000000005f82015250565b5f611af5601683611169565b9150611b0082611ac1565b602082019050919050565b5f6020820190508181035f830152611b2281611ae9565b9050919050565b7f596f7520616c7265616479207375626d697474656400000000000000000000005f82015250565b5f611b5d601583611169565b9150611b6882611b29565b602082019050919050565b5f6020820190508181035f830152611b8a81611b51565b9050919050565b7f496e76616c696420706c6179657220696e646578202830206f722031290000005f82015250565b5f611bc5601d83611169565b9150611bd082611b91565b602082019050919050565b5f6020820190508181035f830152611bf281611bb9565b9050919050565b7f536c6f7420616c72656164792074616b656e00000000000000000000000000005f82015250565b5f611c2d601283611169565b9150611c3882611bf9565b602082019050919050565b5f6020820190508181035f830152611c5a81611c21565b9050919050565b5f611c6b82611101565b9150611c7683611101565b9250828203905081811115611c8e57611c8d61189e565b5b92915050565b7f596f7520616c7265616479206a6f696e656420746865206f7468657220736c6f5f8201527f7400000000000000000000000000000000000000000000000000000000000000602082015250565b5f611cee602183611169565b9150611cf982611c94565b604082019050919050565b5f6020820190508181035f830152611d1b81611ce2565b905091905056fea264697066735822122005079b2f0d13c6d26d5b5599012cefa186585d95902bcc2340dd6206d7d42ccc64736f6c634300081f0033",
			"opcodes": "PUSH1 0xA0 PUSH1 0x40 MSTORE CALLVALUE DUP1 ISZERO PUSH1 0xE JUMPI PUSH0 PUSH0 REVERT JUMPDEST POP CALLER PUSH20 0xFFFFFFFFFFFFFFFFFFFFFFFFFFFFFFFFFFFFFFFF AND PUSH1 0x80 DUP2 PUSH20 0xFFFFFFFFFFFFFFFFFFFFFFFFFFFFFFFFFFFFFFFF AND DUP2 MSTORE POP POP PUSH1 0x80 MLOAD PUSH2 0x1D58 PUSH2 0x69 PUSH0 CODECOPY PUSH0 DUP2 DUP2 PUSH2 0x454 ADD MSTORE DUP2 DUP2 PUSH2 0x747 ADD MSTORE PUSH2 0xC26 ADD MSTORE PUSH2 0x1D58 PUSH0 RETURN INVALID PUSH1 0x80 PUSH1 0x40 MSTORE CALLVALUE DUP1 ISZERO PUSH2 0xF JUMPI PUSH0 PUSH0 REVERT JUMPDEST POP PUSH1 0x4 CALLDATASIZE LT PUSH2 0xF3 JUMPI PUSH0 CALLDATALOAD PUSH1 0xE0 SHR DUP1 PUSH4 0x8DA5CB5B GT PUSH2 0x95 JUMPI DUP1 PUSH4 0xBB472219 GT PUSH2 0x64 JUMPI DUP1 PUSH4 0xBB472219 EQ PUSH2 0x25F JUMPI DUP1 PUSH4 0xD16EFED8 EQ PUSH2 0x269 JUMPI DUP1 PUSH4 0xEFAA55A0 EQ PUSH2 0x287 JUMPI DUP1 PUSH4 0xF71D96CB EQ PUSH2 0x2A3 JUMPI PUSH2 0xF3 JUMP JUMPDEST DUP1 PUSH4 0x8DA5CB5B EQ PUSH2 0x1D7 JUMPI DUP1 PUSH4 0x8E7EA5B2 EQ PUSH2 0x1F5 JUMPI DUP1 PUSH4 0xB5AB58DC EQ PUSH2 0x213 JUMPI DUP1 PUSH4 0xBB3E3159 EQ PUSH2 0x243 JUMPI PUSH2 0xF3 JUMP JUMPDEST DUP1 PUSH4 0x65225665 GT PUSH2 0xD1 JUMPI DUP1 PUSH4 0x65225665 EQ PUSH2 0x163 JUMPI DUP1 PUSH4 0x70BDDC80 EQ PUSH2 0x193 JUMPI DUP1 PUSH4 0x799E18C0 EQ PUSH2 0x1B1 JUMPI DUP1 PUSH4 0x837E7CC6 EQ PUSH2 0x1CD JUMPI PUSH2 0xF3 JUMP JUMPDEST DUP1 PUSH4 0x17599CC5 EQ PUSH2 0xF7 JUMPI DUP1 PUSH4 0x3FAD9AE0 EQ PUSH2 0x127 JUMPI DUP1 PUSH4 0x5E123CE4 EQ PUSH2 0x145 JUMPI JUMPDEST PUSH0 PUSH0 REVERT JUMPDEST PUSH2 0x111 PUSH1 0x4 DUP1 CALLDATASIZE SUB DUP2 ADD SWAP1 PUSH2 0x10C SWAP2 SWAP1 PUSH2 0x1134 JUMP JUMPDEST PUSH2 0x2D3 JUMP JUMPDEST PUSH1 0x40 MLOAD PUSH2 0x11E SWAP2 SWAP1 PUSH2 0x11CF JUMP JUMPDEST PUSH1 0x40 MLOAD DUP1 SWAP2 SUB SWAP1 RETURN JUMPDEST PUSH2 0x12F PUSH2 0x372 JUMP JUMPDEST PUSH1 0x40 MLOAD PUSH2 0x13C SWAP2 SWAP1 PUSH2 0x11CF JUMP JUMPDEST PUSH1 0x40 MLOAD DUP1 SWAP2 SUB SWAP1 RETURN JUMPDEST PUSH2 0x14D PUSH2 0x3FD JUMP JUMPDEST PUSH1 0x40 MLOAD PUSH2 0x15A SWAP2 SWAP1 PUSH2 0x1209 JUMP JUMPDEST PUSH1 0x40 MLOAD DUP1 SWAP2 SUB SWAP1 RETURN JUMPDEST PUSH2 0x17D PUSH1 0x4 DUP1 CALLDATASIZE SUB DUP2 ADD SWAP1 PUSH2 0x178 SWAP2 SWAP1 PUSH2 0x1134 JUMP JUMPDEST PUSH2 0x40F JUMP JUMPDEST PUSH1 0x40 MLOAD PUSH2 0x18A SWAP2 SWAP1 PUSH2 0x1261 JUMP JUMPDEST PUSH1 0x40 MLOAD DUP1 SWAP2 SUB SWAP1 RETURN JUMPDEST PUSH2 0x19B PUSH2 0x44C JUMP JUMPDEST PUSH1 0x40 MLOAD PUSH2 0x1A8 SWAP2 SWAP1 PUSH2 0x1289 JUMP JUMPDEST PUSH1 0x40 MLOAD DUP1 SWAP2 SUB SWAP1 RETURN JUMPDEST PUSH2 0x1CB PUSH1 0x4 DUP1 CALLDATASIZE SUB DUP2 ADD SWAP1 PUSH2 0x1C6 SWAP2 SWAP1 PUSH2 0x1303 JUMP JUMPDEST PUSH2 0x452 JUMP JUMPDEST STOP JUMPDEST PUSH2 0x1D5 PUSH2 0x57D JUMP JUMPDEST STOP JUMPDEST PUSH2 0x1DF PUSH2 0x745 JUMP JUMPDEST PUSH1 0x40 MLOAD PUSH2 0x1EC SWAP2 SWAP1 PUSH2 0x1261 JUMP JUMPDEST PUSH1 0x40 MLOAD DUP1 SWAP2 SUB SWAP1 RETURN JUMPDEST PUSH2 0x1FD PUSH2 0x769 JUMP JUMPDEST PUSH1 0x40 MLOAD PUSH2 0x20A SWAP2 SWAP1 PUSH2 0x11CF JUMP JUMPDEST PUSH1 0x40 MLOAD DUP1 SWAP2 SUB SWAP1 RETURN JUMPDEST PUSH2 0x22D PUSH1 0x4 DUP1 CALLDATASIZE SUB DUP2 ADD SWAP1 PUSH2 0x228 SWAP2 SWAP1 PUSH2 0x1134 JUMP JUMPDEST PUSH2 0x831 JUMP JUMPDEST PUSH1 0x40 MLOAD PUSH2 0x23A SWAP2 SWAP1 PUSH2 0x11CF JUMP JUMPDEST PUSH1 0x40 MLOAD DUP1 SWAP2 SUB SWAP1 RETURN JUMPDEST PUSH2 0x25D PUSH1 0x4 DUP1 CALLDATASIZE SUB DUP2 ADD SWAP1 PUSH2 0x258 SWAP2 SWAP1 PUSH2 0x1303 JUMP JUMPDEST PUSH2 0x8D6 JUMP JUMPDEST STOP JUMPDEST PUSH2 0x267 PUSH2 0xC24 JUMP JUMPDEST STOP JUMPDEST PUSH2 0x271 PUSH2 0xD14 JUMP JUMPDEST PUSH1 0x40 MLOAD PUSH2 0x27E SWAP2 SWAP1 PUSH2 0x1209 JUMP JUMPDEST PUSH1 0x40 MLOAD DUP1 SWAP2 SUB SWAP1 RETURN JUMPDEST PUSH2 0x2A1 PUSH1 0x4 DUP1 CALLDATASIZE SUB DUP2 ADD SWAP1 PUSH2 0x29C SWAP2 SWAP1 PUSH2 0x1134 JUMP JUMPDEST PUSH2 0xD27 JUMP JUMPDEST STOP JUMPDEST PUSH2 0x2BD PUSH1 0x4 DUP1 CALLDATASIZE SUB DUP2 ADD SWAP1 PUSH2 0x2B8 SWAP2 SWAP1 PUSH2 0x1134 JUMP JUMPDEST PUSH2 0x1042 JUMP JUMPDEST PUSH1 0x40 MLOAD PUSH2 0x2CA SWAP2 SWAP1 PUSH2 0x1261 JUMP JUMPDEST PUSH1 0x40 MLOAD DUP1 SWAP2 SUB SWAP1 RETURN JUMPDEST PUSH1 0x3 DUP2 PUSH1 0x2 DUP2 LT PUSH2 0x2E2 JUMPI PUSH0 DUP1 REVERT JUMPDEST ADD PUSH0 SWAP2 POP SWAP1 POP DUP1 SLOAD PUSH2 0x2F3 SWAP1 PUSH2 0x137B JUMP JUMPDEST DUP1 PUSH1 0x1F ADD PUSH1 0x20 DUP1 SWAP2 DIV MUL PUSH1 0x20 ADD PUSH1 0x40 MLOAD SWAP1 DUP2 ADD PUSH1 0x40 MSTORE DUP1 SWAP3 SWAP2 SWAP1 DUP2 DUP2 MSTORE PUSH1 0x20 ADD DUP3 DUP1 SLOAD PUSH2 0x31F SWAP1 PUSH2 0x137B JUMP JUMPDEST DUP1 ISZERO PUSH2 0x36A JUMPI DUP1 PUSH1 0x1F LT PUSH2 0x341 JUMPI PUSH2 0x100 DUP1 DUP4 SLOAD DIV MUL DUP4 MSTORE SWAP2 PUSH1 0x20 ADD SWAP2 PUSH2 0x36A JUMP JUMPDEST DUP3 ADD SWAP2 SWAP1 PUSH0 MSTORE PUSH1 0x20 PUSH0 KECCAK256 SWAP1 JUMPDEST DUP2 SLOAD DUP2 MSTORE SWAP1 PUSH1 0x1 ADD SWAP1 PUSH1 0x20 ADD DUP1 DUP4 GT PUSH2 0x34D JUMPI DUP3 SWAP1 SUB PUSH1 0x1F AND DUP3 ADD SWAP2 JUMPDEST POP POP POP POP POP DUP2 JUMP JUMPDEST PUSH0 DUP1 SLOAD PUSH2 0x37E SWAP1 PUSH2 0x137B JUMP JUMPDEST DUP1 PUSH1 0x1F ADD PUSH1 0x20 DUP1 SWAP2 DIV MUL PUSH1 0x20 ADD PUSH1 0x40 MLOAD SWAP1 DUP2 ADD PUSH1 0x40 MSTORE DUP1 SWAP3 SWAP2 SWAP1 DUP2 DUP2 MSTORE PUSH1 0x20 ADD DUP3 DUP1 SLOAD PUSH2 0x3AA SWAP1 PUSH2 0x137B JUMP JUMPDEST DUP1 ISZERO PUSH2 0x3F5 JUMPI DUP1 PUSH1 0x1F LT PUSH2 0x3CC JUMPI PUSH2 0x100 DUP1 DUP4 SLOAD DIV MUL DUP4 MSTORE SWAP2 PUSH1 0x20 ADD SWAP2 PUSH2 0x3F5 JUMP JUMPDEST DUP3 ADD SWAP2 SWAP1 PUSH0 MSTORE PUSH1 0x20 PUSH0 KECCAK256 SWAP1 JUMPDEST DUP2 SLOAD DUP2 MSTORE SWAP1 PUSH1 0x1 ADD SWAP1 PUSH1 0x20 ADD DUP1 DUP4 GT PUSH2 0x3D8 JUMPI DUP3 SWAP1 SUB PUSH1 0x1F AND DUP3 ADD SWAP2 JUMPDEST POP POP POP POP POP DUP2 JUMP JUMPDEST PUSH1 0x6 PUSH0 SWAP1 SLOAD SWAP1 PUSH2 0x100 EXP SWAP1 DIV PUSH1 0xFF AND DUP2 JUMP JUMPDEST PUSH0 PUSH1 0x1 DUP3 PUSH1 0x2 DUP2 LT PUSH2 0x424 JUMPI PUSH2 0x423 PUSH2 0x13AB JUMP JUMPDEST JUMPDEST ADD PUSH0 SWAP1 SLOAD SWAP1 PUSH2 0x100 EXP SWAP1 DIV PUSH20 0xFFFFFFFFFFFFFFFFFFFFFFFFFFFFFFFFFFFFFFFF AND SWAP1 POP SWAP2 SWAP1 POP JUMP JUMPDEST PUSH1 0x5 SLOAD DUP2 JUMP JUMPDEST PUSH32 0x0 PUSH20 0xFFFFFFFFFFFFFFFFFFFFFFFFFFFFFFFFFFFFFFFF AND CALLER PUSH20 0xFFFFFFFFFFFFFFFFFFFFFFFFFFFFFFFFFFFFFFFF AND EQ PUSH2 0x4E0 JUMPI PUSH1 0x40 MLOAD PUSH32 0x8C379A000000000000000000000000000000000000000000000000000000000 DUP2 MSTORE PUSH1 0x4 ADD PUSH2 0x4D7 SWAP1 PUSH2 0x1422 JUMP JUMPDEST PUSH1 0x40 MLOAD DUP1 SWAP2 SUB SWAP1 REVERT JUMPDEST PUSH1 0x6 PUSH0 SWAP1 SLOAD SWAP1 PUSH2 0x100 EXP SWAP1 DIV PUSH1 0xFF AND ISZERO PUSH2 0x52F JUMPI PUSH1 0x40 MLOAD PUSH32 0x8C379A000000000000000000000000000000000000000000000000000000000 DUP2 MSTORE PUSH1 0x4 ADD PUSH2 0x526 SWAP1 PUSH2 0x148A JUMP JUMPDEST PUSH1 0x40 MLOAD DUP1 SWAP2 SUB SWAP1 REVERT JUMPDEST DUP2 DUP2 PUSH0 SWAP2 DUP3 PUSH2 0x53F SWAP3 SWAP2 SWAP1 PUSH2 0x167F JUMP JUMPDEST POP PUSH32 0x94A9B24DD4426A3E243E3FAADF503A0B15A3C6CE1DB37582F9926082221263F9 DUP3 DUP3 PUSH1 0x40 MLOAD PUSH2 0x571 SWAP3 SWAP2 SWAP1 PUSH2 0x1786 JUMP JUMPDEST PUSH1 0x40 MLOAD DUP1 SWAP2 SUB SWAP1 LOG1 POP POP JUMP JUMPDEST PUSH1 0x6 PUSH1 0x1 SWAP1 SLOAD SWAP1 PUSH2 0x100 EXP SWAP1 DIV PUSH1 0xFF AND PUSH2 0x5CC JUMPI PUSH1 0x40 MLOAD PUSH32 0x8C379A000000000000000000000000000000000000000000000000000000000 DUP2 MSTORE PUSH1 0x4 ADD PUSH2 0x5C3 SWAP1 PUSH2 0x1818 JUMP JUMPDEST PUSH1 0x40 MLOAD DUP1 SWAP2 SUB SWAP1 REVERT JUMPDEST PUSH0 PUSH1 0x5 SLOAD EQ PUSH2 0x610 JUMPI PUSH1 0x40 MLOAD PUSH32 0x8C379A000000000000000000000000000000000000000000000000000000000 DUP2 MSTORE PUSH1 0x4 ADD PUSH2 0x607 SWAP1 PUSH2 0x1880 JUMP JUMPDEST PUSH1 0x40 MLOAD DUP1 SWAP2 SUB SWAP1 REVERT JUMPDEST PUSH0 PUSH1 0x3 PUSH0 PUSH1 0x2 DUP2 LT PUSH2 0x625 JUMPI PUSH2 0x624 PUSH2 0x13AB JUMP JUMPDEST JUMPDEST ADD DUP1 SLOAD PUSH2 0x631 SWAP1 PUSH2 0x137B JUMP JUMPDEST SWAP1 POP SWAP1 POP PUSH0 PUSH1 0x3 PUSH1 0x1 PUSH1 0x2 DUP2 LT PUSH2 0x64B JUMPI PUSH2 0x64A PUSH2 0x13AB JUMP JUMPDEST JUMPDEST ADD DUP1 SLOAD PUSH2 0x657 SWAP1 PUSH2 0x137B JUMP JUMPDEST SWAP1 POP SWAP1 POP PUSH1 0x1 PUSH1 0x6 DUP3 DUP5 PUSH2 0x66B SWAP2 SWAP1 PUSH2 0x18CB JUMP JUMPDEST PUSH2 0x675 SWAP2 SWAP1 PUSH2 0x192B JUMP JUMPDEST PUSH2 0x67F SWAP2 SWAP1 PUSH2 0x18CB JUMP JUMPDEST PUSH1 0x5 DUP2 SWAP1 SSTORE POP PUSH0 PUSH1 0x3 PUSH1 0x5 SLOAD GT ISZERO PUSH2 0x6CC JUMPI PUSH1 0x40 MLOAD DUP1 PUSH1 0x40 ADD PUSH1 0x40 MSTORE DUP1 PUSH1 0x8 DUP2 MSTORE PUSH1 0x20 ADD PUSH32 0x506C617965722032000000000000000000000000000000000000000000000000 DUP2 MSTORE POP PUSH2 0x703 JUMP JUMPDEST PUSH1 0x40 MLOAD DUP1 PUSH1 0x40 ADD PUSH1 0x40 MSTORE DUP1 PUSH1 0x8 DUP2 MSTORE PUSH1 0x20 ADD PUSH32 0x506C617965722031000000000000000000000000000000000000000000000000 DUP2 MSTORE POP JUMPDEST SWAP1 POP PUSH32 0x786134FE30295DB98F2B9DC94A025B91E5F16FAB38D61E00F68F1608F2B82485 PUSH1 0x5 SLOAD DUP3 PUSH1 0x40 MLOAD PUSH2 0x738 SWAP3 SWAP2 SWAP1 PUSH2 0x195B JUMP JUMPDEST PUSH1 0x40 MLOAD DUP1 SWAP2 SUB SWAP1 LOG1 POP POP POP JUMP JUMPDEST PUSH32 0x0 DUP2 JUMP JUMPDEST PUSH1 0x60 PUSH0 PUSH1 0x5 SLOAD GT PUSH2 0x7AF JUMPI PUSH1 0x40 MLOAD PUSH32 0x8C379A000000000000000000000000000000000000000000000000000000000 DUP2 MSTORE PUSH1 0x4 ADD PUSH2 0x7A6 SWAP1 PUSH2 0x19D3 JUMP JUMPDEST PUSH1 0x40 MLOAD DUP1 SWAP2 SUB SWAP1 REVERT JUMPDEST PUSH1 0x3 PUSH1 0x5 SLOAD GT ISZERO PUSH2 0x7F5 JUMPI PUSH1 0x40 MLOAD DUP1 PUSH1 0x40 ADD PUSH1 0x40 MSTORE DUP1 PUSH1 0xE DUP2 MSTORE PUSH1 0x20 ADD PUSH32 0x506C6179657220322077696E7321000000000000000000000000000000000000 DUP2 MSTORE POP PUSH2 0x82C JUMP JUMPDEST PUSH1 0x40 MLOAD DUP1 PUSH1 0x40 ADD PUSH1 0x40 MSTORE DUP1 PUSH1 0xE DUP2 MSTORE PUSH1 0x20 ADD PUSH32 0x506C6179657220312077696E7321000000000000000000000000000000000000 DUP2 MSTORE POP JUMPDEST SWAP1 POP SWAP1 JUMP JUMPDEST PUSH1 0x60 PUSH1 0x3 DUP3 PUSH1 0x2 DUP2 LT PUSH2 0x847 JUMPI PUSH2 0x846 PUSH2 0x13AB JUMP JUMPDEST JUMPDEST ADD DUP1 SLOAD PUSH2 0x853 SWAP1 PUSH2 0x137B JUMP JUMPDEST DUP1 PUSH1 0x1F ADD PUSH1 0x20 DUP1 SWAP2 DIV MUL PUSH1 0x20 ADD PUSH1 0x40 MLOAD SWAP1 DUP2 ADD PUSH1 0x40 MSTORE DUP1 SWAP3 SWAP2 SWAP1 DUP2 DUP2 MSTORE PUSH1 0x20 ADD DUP3 DUP1 SLOAD PUSH2 0x87F SWAP1 PUSH2 0x137B JUMP JUMPDEST DUP1 ISZERO PUSH2 0x8CA JUMPI DUP1 PUSH1 0x1F LT PUSH2 0x8A1 JUMPI PUSH2 0x100 DUP1 DUP4 SLOAD DIV MUL DUP4 MSTORE SWAP2 PUSH1 0x20 ADD SWAP2 PUSH2 0x8CA JUMP JUMPDEST DUP3 ADD SWAP2 SWAP1 PUSH0 MSTORE PUSH1 0x20 PUSH0 KECCAK256 SWAP1 JUMPDEST DUP2 SLOAD DUP2 MSTORE SWAP1 PUSH1 0x1 ADD SWAP1 PUSH1 0x20 ADD DUP1 DUP4 GT PUSH2 0x8AD JUMPI DUP3 SWAP1 SUB PUSH1 0x1F AND DUP3 ADD SWAP2 JUMPDEST POP POP POP POP POP SWAP1 POP SWAP2 SWAP1 POP JUMP JUMPDEST PUSH1 0x1 PUSH0 PUSH1 0x2 DUP2 LT PUSH2 0x8EA JUMPI PUSH2 0x8E9 PUSH2 0x13AB JUMP JUMPDEST JUMPDEST ADD PUSH0 SWAP1 SLOAD SWAP1 PUSH2 0x100 EXP SWAP1 DIV PUSH20 0xFFFFFFFFFFFFFFFFFFFFFFFFFFFFFFFFFFFFFFFF AND PUSH20 0xFFFFFFFFFFFFFFFFFFFFFFFFFFFFFFFFFFFFFFFF AND CALLER PUSH20 0xFFFFFFFFFFFFFFFFFFFFFFFFFFFFFFFFFFFFFFFF AND EQ DUP1 PUSH2 0x9A3 JUMPI POP PUSH1 0x1 DUP1 PUSH1 0x2 DUP2 LT PUSH2 0x953 JUMPI PUSH2 0x952 PUSH2 0x13AB JUMP JUMPDEST JUMPDEST ADD PUSH0 SWAP1 SLOAD SWAP1 PUSH2 0x100 EXP SWAP1 DIV PUSH20 0xFFFFFFFFFFFFFFFFFFFFFFFFFFFFFFFFFFFFFFFF AND PUSH20 0xFFFFFFFFFFFFFFFFFFFFFFFFFFFFFFFFFFFFFFFF AND CALLER PUSH20 0xFFFFFFFFFFFFFFFFFFFFFFFFFFFFFFFFFFFFFFFF AND EQ JUMPDEST PUSH2 0x9E2 JUMPI PUSH1 0x40 MLOAD PUSH32 0x8C379A000000000000000000000000000000000000000000000000000000000 DUP2 MSTORE PUSH1 0x4 ADD PUSH2 0x9D9 SWAP1 PUSH2 0x1A3B JUMP JUMPDEST PUSH1 0x40 MLOAD DUP1 SWAP2 SUB SWAP1 REVERT JUMPDEST PUSH1 0x6 PUSH0 SWAP1 SLOAD SWAP1 PUSH2 0x100 EXP SWAP1 DIV PUSH1 0xFF AND PUSH2 0xA30 JUMPI PUSH1 0x40 MLOAD PUSH32 0x8C379A000000000000000000000000000000000000000000000000000000000 DUP2 MSTORE PUSH1 0x4 ADD PUSH2 0xA27 SWAP1 PUSH2 0x1AA3 JUMP JUMPDEST PUSH1 0x40 MLOAD DUP1 SWAP2 SUB SWAP1 REVERT JUMPDEST PUSH0 DUP3 DUP3 SWAP1 POP GT PUSH2 0xA75 JUMPI PUSH1 0x40 MLOAD PUSH32 0x8C379A000000000000000000000000000000000000000000000000000000000 DUP2 MSTORE PUSH1 0x4 ADD PUSH2 0xA6C SWAP1 PUSH2 0x1B0B JUMP JUMPDEST PUSH1 0x40 MLOAD DUP1 SWAP2 SUB SWAP1 REVERT JUMPDEST PUSH0 PUSH1 0x1 PUSH0 PUSH1 0x2 DUP2 LT PUSH2 0xA8A JUMPI PUSH2 0xA89 PUSH2 0x13AB JUMP JUMPDEST JUMPDEST ADD PUSH0 SWAP1 SLOAD SWAP1 PUSH2 0x100 EXP SWAP1 DIV PUSH20 0xFFFFFFFFFFFFFFFFFFFFFFFFFFFFFFFFFFFFFFFF AND PUSH20 0xFFFFFFFFFFFFFFFFFFFFFFFFFFFFFFFFFFFFFFFF AND CALLER PUSH20 0xFFFFFFFFFFFFFFFFFFFFFFFFFFFFFFFFFFFFFFFF AND EQ PUSH2 0xAE4 JUMPI PUSH1 0x1 PUSH2 0xAE6 JUMP JUMPDEST PUSH0 JUMPDEST PUSH1 0xFF AND SWAP1 POP PUSH0 PUSH1 0x3 DUP3 PUSH1 0x2 DUP2 LT PUSH2 0xB00 JUMPI PUSH2 0xAFF PUSH2 0x13AB JUMP JUMPDEST JUMPDEST ADD DUP1 SLOAD PUSH2 0xB0C SWAP1 PUSH2 0x137B JUMP JUMPDEST SWAP1 POP EQ PUSH2 0xB4E JUMPI PUSH1 0x40 MLOAD PUSH32 0x8C379A000000000000000000000000000000000000000000000000000000000 DUP2 MSTORE PUSH1 0x4 ADD PUSH2 0xB45 SWAP1 PUSH2 0x1B73 JUMP JUMPDEST PUSH1 0x40 MLOAD DUP1 SWAP2 SUB SWAP1 REVERT JUMPDEST DUP3 DUP3 PUSH1 0x3 DUP4 PUSH1 0x2 DUP2 LT PUSH2 0xB64 JUMPI PUSH2 0xB63 PUSH2 0x13AB JUMP JUMPDEST JUMPDEST ADD SWAP2 DUP3 PUSH2 0xB72 SWAP3 SWAP2 SWAP1 PUSH2 0x167F JUMP JUMPDEST POP DUP1 PUSH32 0x4CF4660632BDDC9871C3099C79FC6E85C889DBEE3192EA0CFA1FDE0419DFD7D DUP5 DUP5 PUSH1 0x40 MLOAD PUSH2 0xBA5 SWAP3 SWAP2 SWAP1 PUSH2 0x1786 JUMP JUMPDEST PUSH1 0x40 MLOAD DUP1 SWAP2 SUB SWAP1 LOG2 PUSH0 PUSH1 0x3 PUSH0 PUSH1 0x2 DUP2 LT PUSH2 0xBC2 JUMPI PUSH2 0xBC1 PUSH2 0x13AB JUMP JUMPDEST JUMPDEST ADD DUP1 SLOAD PUSH2 0xBCE SWAP1 PUSH2 0x137B JUMP JUMPDEST SWAP1 POP GT DUP1 ISZERO PUSH2 0xBFE JUMPI POP PUSH0 PUSH1 0x3 PUSH1 0x1 PUSH1 0x2 DUP2 LT PUSH2 0xBEE JUMPI PUSH2 0xBED PUSH2 0x13AB JUMP JUMPDEST JUMPDEST ADD DUP1 SLOAD PUSH2 0xBFA SWAP1 PUSH2 0x137B JUMP JUMPDEST SWAP1 POP GT JUMPDEST ISZERO PUSH2 0xC1F JUMPI PUSH1 0x1 PUSH1 0x6 PUSH1 0x1 PUSH2 0x100 EXP DUP2 SLOAD DUP2 PUSH1 0xFF MUL NOT AND SWAP1 DUP4 ISZERO ISZERO MUL OR SWAP1 SSTORE POP JUMPDEST POP POP POP JUMP JUMPDEST PUSH32 0x0 PUSH20 0xFFFFFFFFFFFFFFFFFFFFFFFFFFFFFFFFFFFFFFFF AND CALLER PUSH20 0xFFFFFFFFFFFFFFFFFFFFFFFFFFFFFFFFFFFFFFFF AND EQ PUSH2 0xCB2 JUMPI PUSH1 0x40 MLOAD PUSH32 0x8C379A000000000000000000000000000000000000000000000000000000000 DUP2 MSTORE PUSH1 0x4 ADD PUSH2 0xCA9 SWAP1 PUSH2 0x1422 JUMP JUMPDEST PUSH1 0x40 MLOAD DUP1 SWAP2 SUB SWAP1 REVERT JUMPDEST PUSH0 PUSH0 PUSH2 0xCBE SWAP2 SWAP1 PUSH2 0x1076 JUMP JUMPDEST PUSH1 0x1 PUSH0 PUSH2 0xCCB SWAP2 SWAP1 PUSH2 0x10B3 JUMP JUMPDEST PUSH1 0x3 PUSH0 PUSH2 0xCD8 SWAP2 SWAP1 PUSH2 0x10BF JUMP JUMPDEST PUSH0 PUSH1 0x5 DUP2 SWAP1 SSTORE POP PUSH0 PUSH1 0x6 PUSH0 PUSH2 0x100 EXP DUP2 SLOAD DUP2 PUSH1 0xFF MUL NOT AND SWAP1 DUP4 ISZERO ISZERO MUL OR SWAP1 SSTORE POP PUSH0 PUSH1 0x6 PUSH1 0x1 PUSH2 0x100 EXP DUP2 SLOAD DUP2 PUSH1 0xFF MUL NOT AND SWAP1 DUP4 ISZERO ISZERO MUL OR SWAP1 SSTORE POP JUMP JUMPDEST PUSH1 0x6 PUSH1 0x1 SWAP1 SLOAD SWAP1 PUSH2 0x100 EXP SWAP1 DIV PUSH1 0xFF AND DUP2 JUMP JUMPDEST PUSH0 DUP2 EQ DUP1 PUSH2 0xD35 JUMPI POP PUSH1 0x1 DUP2 EQ JUMPDEST PUSH2 0xD74 JUMPI PUSH1 0x40 MLOAD PUSH32 0x8C379A000000000000000000000000000000000000000000000000000000000 DUP2 MSTORE PUSH1 0x4 ADD PUSH2 0xD6B SWAP1 PUSH2 0x1BDB JUMP JUMPDEST PUSH1 0x40 MLOAD DUP1 SWAP2 SUB SWAP1 REVERT JUMPDEST PUSH0 PUSH20 0xFFFFFFFFFFFFFFFFFFFFFFFFFFFFFFFFFFFFFFFF AND PUSH1 0x1 DUP3 PUSH1 0x2 DUP2 LT PUSH2 0xD9F JUMPI PUSH2 0xD9E PUSH2 0x13AB JUMP JUMPDEST JUMPDEST ADD PUSH0 SWAP1 SLOAD SWAP1 PUSH2 0x100 EXP SWAP1 DIV PUSH20 0xFFFFFFFFFFFFFFFFFFFFFFFFFFFFFFFFFFFFFFFF AND PUSH20 0xFFFFFFFFFFFFFFFFFFFFFFFFFFFFFFFFFFFFFFFF AND EQ PUSH2 0xE16 JUMPI PUSH1 0x40 MLOAD PUSH32 0x8C379A000000000000000000000000000000000000000000000000000000000 DUP2 MSTORE PUSH1 0x4 ADD PUSH2 0xE0D SWAP1 PUSH2 0x1C43 JUMP JUMPDEST PUSH1 0x40 MLOAD DUP1 SWAP2 SUB SWAP1 REVERT JUMPDEST PUSH1 0x1 DUP2 PUSH1 0x1 PUSH2 0xE25 SWAP2 SWAP1 PUSH2 0x1C61 JUMP JUMPDEST PUSH1 0x2 DUP2 LT PUSH2 0xE36 JUMPI PUSH2 0xE35 PUSH2 0x13AB JUMP JUMPDEST JUMPDEST ADD PUSH0 SWAP1 SLOAD SWAP1 PUSH2 0x100 EXP SWAP1 DIV PUSH20 0xFFFFFFFFFFFFFFFFFFFFFFFFFFFFFFFFFFFFFFFF AND PUSH20 0xFFFFFFFFFFFFFFFFFFFFFFFFFFFFFFFFFFFFFFFF AND CALLER PUSH20 0xFFFFFFFFFFFFFFFFFFFFFFFFFFFFFFFFFFFFFFFF AND SUB PUSH2 0xEC4 JUMPI PUSH1 0x40 MLOAD PUSH32 0x8C379A000000000000000000000000000000000000000000000000000000000 DUP2 MSTORE PUSH1 0x4 ADD PUSH2 0xEBB SWAP1 PUSH2 0x1D04 JUMP JUMPDEST PUSH1 0x40 MLOAD DUP1 SWAP2 SUB SWAP1 REVERT JUMPDEST CALLER PUSH1 0x1 DUP3 PUSH1 0x2 DUP2 LT PUSH2 0xED9 JUMPI PUSH2 0xED8 PUSH2 0x13AB JUMP JUMPDEST JUMPDEST ADD PUSH0 PUSH2 0x100 EXP DUP2 SLOAD DUP2 PUSH20 0xFFFFFFFFFFFFFFFFFFFFFFFFFFFFFFFFFFFFFFFF MUL NOT AND SWAP1 DUP4 PUSH20 0xFFFFFFFFFFFFFFFFFFFFFFFFFFFFFFFFFFFFFFFF AND MUL OR SWAP1 SSTORE POP DUP1 PUSH32 0x87969BC7FAF902221A147B95CEBA76E011C5EFB0339A0A8EE7A2BB82D9CFBBD6 CALLER PUSH1 0x40 MLOAD PUSH2 0xF47 SWAP2 SWAP1 PUSH2 0x1261 JUMP JUMPDEST PUSH1 0x40 MLOAD DUP1 SWAP2 SUB SWAP1 LOG2 PUSH0 PUSH20 0xFFFFFFFFFFFFFFFFFFFFFFFFFFFFFFFFFFFFFFFF AND PUSH1 0x1 PUSH0 PUSH1 0x2 DUP2 LT PUSH2 0xF7A JUMPI PUSH2 0xF79 PUSH2 0x13AB JUMP JUMPDEST JUMPDEST ADD PUSH0 SWAP1 SLOAD SWAP1 PUSH2 0x100 EXP SWAP1 DIV PUSH20 0xFFFFFFFFFFFFFFFFFFFFFFFFFFFFFFFFFFFFFFFF AND PUSH20 0xFFFFFFFFFFFFFFFFFFFFFFFFFFFFFFFFFFFFFFFF AND EQ ISZERO DUP1 ISZERO PUSH2 0x101F JUMPI POP PUSH0 PUSH20 0xFFFFFFFFFFFFFFFFFFFFFFFFFFFFFFFFFFFFFFFF AND PUSH1 0x1 DUP1 PUSH1 0x2 DUP2 LT PUSH2 0xFE5 JUMPI PUSH2 0xFE4 PUSH2 0x13AB JUMP JUMPDEST JUMPDEST ADD PUSH0 SWAP1 SLOAD SWAP1 PUSH2 0x100 EXP SWAP1 DIV PUSH20 0xFFFFFFFFFFFFFFFFFFFFFFFFFFFFFFFFFFFFFFFF AND PUSH20 0xFFFFFFFFFFFFFFFFFFFFFFFFFFFFFFFFFFFFFFFF AND EQ ISZERO JUMPDEST ISZERO PUSH2 0x103F JUMPI PUSH1 0x1 PUSH1 0x6 PUSH0 PUSH2 0x100 EXP DUP2 SLOAD DUP2 PUSH1 0xFF MUL NOT AND SWAP1 DUP4 ISZERO ISZERO MUL OR SWAP1 SSTORE POP JUMPDEST POP JUMP JUMPDEST PUSH1 0x1 DUP2 PUSH1 0x2 DUP2 LT PUSH2 0x1051 JUMPI PUSH0 DUP1 REVERT JUMPDEST ADD PUSH0 SWAP2 POP SLOAD SWAP1 PUSH2 0x100 EXP SWAP1 DIV PUSH20 0xFFFFFFFFFFFFFFFFFFFFFFFFFFFFFFFFFFFFFFFF AND DUP2 JUMP JUMPDEST POP DUP1 SLOAD PUSH2 0x1082 SWAP1 PUSH2 0x137B JUMP JUMPDEST PUSH0 DUP3 SSTORE DUP1 PUSH1 0x1F LT PUSH2 0x1093 JUMPI POP PUSH2 0x10B0 JUMP JUMPDEST PUSH1 0x1F ADD PUSH1 0x20 SWAP1 DIV SWAP1 PUSH0 MSTORE PUSH1 0x20 PUSH0 KECCAK256 SWAP1 DUP2 ADD SWAP1 PUSH2 0x10AF SWAP2 SWAP1 PUSH2 0x10DE JUMP JUMPDEST JUMPDEST POP JUMP JUMPDEST POP PUSH0 DUP2 SSTORE PUSH1 0x1 ADD PUSH0 SWAP1 SSTORE JUMP JUMPDEST POP PUSH0 DUP2 DUP2 PUSH2 0x10CD SWAP2 SWAP1 PUSH2 0x1076 JUMP JUMPDEST POP PUSH1 0x1 ADD PUSH0 PUSH2 0x10DC SWAP2 SWAP1 PUSH2 0x1076 JUMP JUMPDEST JUMP JUMPDEST JUMPDEST DUP1 DUP3 GT ISZERO PUSH2 0x10F5 JUMPI PUSH0 DUP2 PUSH0 SWAP1 SSTORE POP PUSH1 0x1 ADD PUSH2 0x10DF JUMP JUMPDEST POP SWAP1 JUMP JUMPDEST PUSH0 PUSH0 REVERT JUMPDEST PUSH0 PUSH0 REVERT JUMPDEST PUSH0 DUP2 SWAP1 POP SWAP2 SWAP1 POP JUMP JUMPDEST PUSH2 0x1113 DUP2 PUSH2 0x1101 JUMP JUMPDEST DUP2 EQ PUSH2 0x111D JUMPI PUSH0 PUSH0 REVERT JUMPDEST POP JUMP JUMPDEST PUSH0 DUP2 CALLDATALOAD SWAP1 POP PUSH2 0x112E DUP2 PUSH2 0x110A JUMP JUMPDEST SWAP3 SWAP2 POP POP JUMP JUMPDEST PUSH0 PUSH1 0x20 DUP3 DUP5 SUB SLT ISZERO PUSH2 0x1149 JUMPI PUSH2 0x1148 PUSH2 0x10F9 JUMP JUMPDEST JUMPDEST PUSH0 PUSH2 0x1156 DUP5 DUP3 DUP6 ADD PUSH2 0x1120 JUMP JUMPDEST SWAP2 POP POP SWAP3 SWAP2 POP POP JUMP JUMPDEST PUSH0 DUP2 MLOAD SWAP1 POP SWAP2 SWAP1 POP JUMP JUMPDEST PUSH0 DUP3 DUP3 MSTORE PUSH1 0x20 DUP3 ADD SWAP1 POP SWAP3 SWAP2 POP POP JUMP JUMPDEST DUP3 DUP2 DUP4 MCOPY PUSH0 DUP4 DUP4 ADD MSTORE POP POP POP JUMP JUMPDEST PUSH0 PUSH1 0x1F NOT PUSH1 0x1F DUP4 ADD AND SWAP1 POP SWAP2 SWAP1 POP JUMP JUMPDEST PUSH0 PUSH2 0x11A1 DUP3 PUSH2 0x115F JUMP JUMPDEST PUSH2 0x11AB DUP2 DUP6 PUSH2 0x1169 JUMP JUMPDEST SWAP4 POP PUSH2 0x11BB DUP2 DUP6 PUSH1 0x20 DUP7 ADD PUSH2 0x1179 JUMP JUMPDEST PUSH2 0x11C4 DUP2 PUSH2 0x1187 JUMP JUMPDEST DUP5 ADD SWAP2 POP POP SWAP3 SWAP2 POP POP JUMP JUMPDEST PUSH0 PUSH1 0x20 DUP3 ADD SWAP1 POP DUP2 DUP2 SUB PUSH0 DUP4 ADD MSTORE PUSH2 0x11E7 DUP2 DUP5 PUSH2 0x1197 JUMP JUMPDEST SWAP1 POP SWAP3 SWAP2 POP POP JUMP JUMPDEST PUSH0 DUP2 ISZERO ISZERO SWAP1 POP SWAP2 SWAP1 POP JUMP JUMPDEST PUSH2 0x1203 DUP2 PUSH2 0x11EF JUMP JUMPDEST DUP3 MSTORE POP POP JUMP JUMPDEST PUSH0 PUSH1 0x20 DUP3 ADD SWAP1 POP PUSH2 0x121C PUSH0 DUP4 ADD DUP5 PUSH2 0x11FA JUMP JUMPDEST SWAP3 SWAP2 POP POP JUMP JUMPDEST PUSH0 PUSH20 0xFFFFFFFFFFFFFFFFFFFFFFFFFFFFFFFFFFFFFFFF DUP3 AND SWAP1 POP SWAP2 SWAP1 POP JUMP JUMPDEST PUSH0 PUSH2 0x124B DUP3 PUSH2 0x1222 JUMP JUMPDEST SWAP1 POP SWAP2 SWAP1 POP JUMP JUMPDEST PUSH2 0x125B DUP2 PUSH2 0x1241 JUMP JUMPDEST DUP3 MSTORE POP POP JUMP JUMPDEST PUSH0 PUSH1 0x20 DUP3 ADD SWAP1 POP PUSH2 0x1274 PUSH0 DUP4 ADD DUP5 PUSH2 0x1252 JUMP JUMPDEST SWAP3 SWAP2 POP POP JUMP JUMPDEST PUSH2 0x1283 DUP2 PUSH2 0x1101 JUMP JUMPDEST DUP3 MSTORE POP POP JUMP JUMPDEST PUSH0 PUSH1 0x20 DUP3 ADD SWAP1 POP PUSH2 0x129C PUSH0 DUP4 ADD DUP5 PUSH2 0x127A JUMP JUMPDEST SWAP3 SWAP2 POP POP JUMP JUMPDEST PUSH0 PUSH0 REVERT JUMPDEST PUSH0 PUSH0 REVERT JUMPDEST PUSH0 PUSH0 REVERT JUMPDEST PUSH0 PUSH0 DUP4 PUSH1 0x1F DUP5 ADD SLT PUSH2 0x12C3 JUMPI PUSH2 0x12C2 PUSH2 0x12A2 JUMP JUMPDEST JUMPDEST DUP3 CALLDATALOAD SWAP1 POP PUSH8 0xFFFFFFFFFFFFFFFF DUP2 GT ISZERO PUSH2 0x12E0 JUMPI PUSH2 0x12DF PUSH2 0x12A6 JUMP JUMPDEST JUMPDEST PUSH1 0x20 DUP4 ADD SWAP2 POP DUP4 PUSH1 0x1 DUP3 MUL DUP4 ADD GT ISZERO PUSH2 0x12FC JUMPI PUSH2 0x12FB PUSH2 0x12AA JUMP JUMPDEST JUMPDEST SWAP3 POP SWAP3 SWAP1 POP JUMP JUMPDEST PUSH0 PUSH0 PUSH1 0x20 DUP4 DUP6 SUB SLT ISZERO PUSH2 0x1319 JUMPI PUSH2 0x1318 PUSH2 0x10F9 JUMP JUMPDEST JUMPDEST PUSH0 DUP4 ADD CALLDATALOAD PUSH8 0xFFFFFFFFFFFFFFFF DUP2 GT ISZERO PUSH2 0x1336 JUMPI PUSH2 0x1335 PUSH2 0x10FD JUMP JUMPDEST JUMPDEST PUSH2 0x1342 DUP6 DUP3 DUP7 ADD PUSH2 0x12AE JUMP JUMPDEST SWAP3 POP SWAP3 POP POP SWAP3 POP SWAP3 SWAP1 POP JUMP JUMPDEST PUSH32 0x4E487B7100000000000000000000000000000000000000000000000000000000 PUSH0 MSTORE PUSH1 0x22 PUSH1 0x4 MSTORE PUSH1 0x24 PUSH0 REVERT JUMPDEST PUSH0 PUSH1 0x2 DUP3 DIV SWAP1 POP PUSH1 0x1 DUP3 AND DUP1 PUSH2 0x1392 JUMPI PUSH1 0x7F DUP3 AND SWAP2 POP JUMPDEST PUSH1 0x20 DUP3 LT DUP2 SUB PUSH2 0x13A5 JUMPI PUSH2 0x13A4 PUSH2 0x134E JUMP JUMPDEST JUMPDEST POP SWAP2 SWAP1 POP JUMP JUMPDEST PUSH32 0x4E487B7100000000000000000000000000000000000000000000000000000000 PUSH0 MSTORE PUSH1 0x32 PUSH1 0x4 MSTORE PUSH1 0x24 PUSH0 REVERT JUMPDEST PUSH32 0x4F6E6C79206F776E65722063616E2063616C6C20746869730000000000000000 PUSH0 DUP3 ADD MSTORE POP JUMP JUMPDEST PUSH0 PUSH2 0x140C PUSH1 0x18 DUP4 PUSH2 0x1169 JUMP JUMPDEST SWAP2 POP PUSH2 0x1417 DUP3 PUSH2 0x13D8 JUMP JUMPDEST PUSH1 0x20 DUP3 ADD SWAP1 POP SWAP2 SWAP1 POP JUMP JUMPDEST PUSH0 PUSH1 0x20 DUP3 ADD SWAP1 POP DUP2 DUP2 SUB PUSH0 DUP4 ADD MSTORE PUSH2 0x1439 DUP2 PUSH2 0x1400 JUMP JUMPDEST SWAP1 POP SWAP2 SWAP1 POP JUMP JUMPDEST PUSH32 0x47616D6520616C72656164792073746172746564000000000000000000000000 PUSH0 DUP3 ADD MSTORE POP JUMP JUMPDEST PUSH0 PUSH2 0x1474 PUSH1 0x14 DUP4 PUSH2 0x1169 JUMP JUMPDEST SWAP2 POP PUSH2 0x147F DUP3 PUSH2 0x1440 JUMP JUMPDEST PUSH1 0x20 DUP3 ADD SWAP1 POP SWAP2 SWAP1 POP JUMP JUMPDEST PUSH0 PUSH1 0x20 DUP3 ADD SWAP1 POP DUP2 DUP2 SUB PUSH0 DUP4 ADD MSTORE PUSH2 0x14A1 DUP2 PUSH2 0x1468 JUMP JUMPDEST SWAP1 POP SWAP2 SWAP1 POP JUMP JUMPDEST PUSH0 DUP3 SWAP1 POP SWAP3 SWAP2 POP POP JUMP JUMPDEST PUSH32 0x4E487B7100000000000000000000000000000000000000000000000000000000 PUSH0 MSTORE PUSH1 0x41 PUSH1 0x4 MSTORE PUSH1 0x24 PUSH0 REVERT JUMPDEST PUSH0 DUP2 SWAP1 POP DUP2 PUSH0 MSTORE PUSH1 0x20 PUSH0 KECCAK256 SWAP1 POP SWAP2 SWAP1 POP JUMP JUMPDEST PUSH0 PUSH1 0x20 PUSH1 0x1F DUP4 ADD DIV SWAP1 POP SWAP2 SWAP1 POP JUMP JUMPDEST PUSH0 DUP3 DUP3 SHL SWAP1 POP SWAP3 SWAP2 POP POP JUMP JUMPDEST PUSH0 PUSH1 0x8 DUP4 MUL PUSH2 0x153B PUSH32 0xFFFFFFFFFFFFFFFFFFFFFFFFFFFFFFFFFFFFFFFFFFFFFFFFFFFFFFFFFFFFFFFF DUP3 PUSH2 0x1500 JUMP JUMPDEST PUSH2 0x1545 DUP7 DUP4 PUSH2 0x1500 JUMP JUMPDEST SWAP6 POP DUP1 NOT DUP5 AND SWAP4 POP DUP1 DUP7 AND DUP5 OR SWAP3 POP POP POP SWAP4 SWAP3 POP POP POP JUMP JUMPDEST PUSH0 DUP2 SWAP1 POP SWAP2 SWAP1 POP JUMP JUMPDEST PUSH0 PUSH2 0x1580 PUSH2 0x157B PUSH2 0x1576 DUP5 PUSH2 0x1101 JUMP JUMPDEST PUSH2 0x155D JUMP JUMPDEST PUSH2 0x1101 JUMP JUMPDEST SWAP1 POP SWAP2 SWAP1 POP JUMP JUMPDEST PUSH0 DUP2 SWAP1 POP SWAP2 SWAP1 POP JUMP JUMPDEST PUSH2 0x1599 DUP4 PUSH2 0x1566 JUMP JUMPDEST PUSH2 0x15AD PUSH2 0x15A5 DUP3 PUSH2 0x1587 JUMP JUMPDEST DUP5 DUP5 SLOAD PUSH2 0x150C JUMP JUMPDEST DUP3 SSTORE POP POP POP POP JUMP JUMPDEST PUSH0 PUSH0 SWAP1 POP SWAP1 JUMP JUMPDEST PUSH2 0x15C4 PUSH2 0x15B5 JUMP JUMPDEST PUSH2 0x15CF DUP2 DUP5 DUP5 PUSH2 0x1590 JUMP JUMPDEST POP POP POP JUMP JUMPDEST JUMPDEST DUP2 DUP2 LT ISZERO PUSH2 0x15F2 JUMPI PUSH2 0x15E7 PUSH0 DUP3 PUSH2 0x15BC JUMP JUMPDEST PUSH1 0x1 DUP2 ADD SWAP1 POP PUSH2 0x15D5 JUMP JUMPDEST POP POP JUMP JUMPDEST PUSH1 0x1F DUP3 GT ISZERO PUSH2 0x1637 JUMPI PUSH2 0x1608 DUP2 PUSH2 0x14DF JUMP JUMPDEST PUSH2 0x1611 DUP5 PUSH2 0x14F1 JUMP JUMPDEST DUP2 ADD PUSH1 0x20 DUP6 LT ISZERO PUSH2 0x1620 JUMPI DUP2 SWAP1 POP JUMPDEST PUSH2 0x1634 PUSH2 0x162C DUP6 PUSH2 0x14F1 JUMP JUMPDEST DUP4 ADD DUP3 PUSH2 0x15D4 JUMP JUMPDEST POP POP JUMPDEST POP POP POP JUMP JUMPDEST PUSH0 DUP3 DUP3 SHR SWAP1 POP SWAP3 SWAP2 POP POP JUMP JUMPDEST PUSH0 PUSH2 0x1657 PUSH0 NOT DUP5 PUSH1 0x8 MUL PUSH2 0x163C JUMP JUMPDEST NOT DUP1 DUP4 AND SWAP2 POP POP SWAP3 SWAP2 POP POP JUMP JUMPDEST PUSH0 PUSH2 0x166F DUP4 DUP4 PUSH2 0x1648 JUMP JUMPDEST SWAP2 POP DUP3 PUSH1 0x2 MUL DUP3 OR SWAP1 POP SWAP3 SWAP2 POP POP JUMP JUMPDEST PUSH2 0x1689 DUP4 DUP4 PUSH2 0x14A8 JUMP JUMPDEST PUSH8 0xFFFFFFFFFFFFFFFF DUP2 GT ISZERO PUSH2 0x16A2 JUMPI PUSH2 0x16A1 PUSH2 0x14B2 JUMP JUMPDEST JUMPDEST PUSH2 0x16AC DUP3 SLOAD PUSH2 0x137B JUMP JUMPDEST PUSH2 0x16B7 DUP3 DUP3 DUP6 PUSH2 0x15F6 JUMP JUMPDEST PUSH0 PUSH1 0x1F DUP4 GT PUSH1 0x1 DUP2 EQ PUSH2 0x16E4 JUMPI PUSH0 DUP5 ISZERO PUSH2 0x16D2 JUMPI DUP3 DUP8 ADD CALLDATALOAD SWAP1 POP JUMPDEST PUSH2 0x16DC DUP6 DUP3 PUSH2 0x1664 JUMP JUMPDEST DUP7 SSTORE POP PUSH2 0x1743 JUMP JUMPDEST PUSH1 0x1F NOT DUP5 AND PUSH2 0x16F2 DUP7 PUSH2 0x14DF JUMP JUMPDEST PUSH0 JUMPDEST DUP3 DUP2 LT ISZERO PUSH2 0x1719 JUMPI DUP5 DUP10 ADD CALLDATALOAD DUP3 SSTORE PUSH1 0x1 DUP3 ADD SWAP2 POP PUSH1 0x20 DUP6 ADD SWAP5 POP PUSH1 0x20 DUP2 ADD SWAP1 POP PUSH2 0x16F4 JUMP JUMPDEST DUP7 DUP4 LT ISZERO PUSH2 0x1736 JUMPI DUP5 DUP10 ADD CALLDATALOAD PUSH2 0x1732 PUSH1 0x1F DUP10 AND DUP3 PUSH2 0x1648 JUMP JUMPDEST DUP4 SSTORE POP JUMPDEST PUSH1 0x1 PUSH1 0x2 DUP9 MUL ADD DUP9 SSTORE POP POP POP JUMPDEST POP POP POP POP POP POP POP JUMP JUMPDEST DUP3 DUP2 DUP4 CALLDATACOPY PUSH0 DUP4 DUP4 ADD MSTORE POP POP POP JUMP JUMPDEST PUSH0 PUSH2 0x1765 DUP4 DUP6 PUSH2 0x1169 JUMP JUMPDEST SWAP4 POP PUSH2 0x1772 DUP4 DUP6 DUP5 PUSH2 0x174C JUMP JUMPDEST PUSH2 0x177B DUP4 PUSH2 0x1187 JUMP JUMPDEST DUP5 ADD SWAP1 POP SWAP4 SWAP3 POP POP POP JUMP JUMPDEST PUSH0 PUSH1 0x20 DUP3 ADD SWAP1 POP DUP2 DUP2 SUB PUSH0 DUP4 ADD MSTORE PUSH2 0x179F DUP2 DUP5 DUP7 PUSH2 0x175A JUMP JUMPDEST SWAP1 POP SWAP4 SWAP3 POP POP POP JUMP JUMPDEST PUSH32 0x426F746820706C6179657273206D757374207375626D697420616E7377657273 PUSH0 DUP3 ADD MSTORE PUSH32 0x2066697273740000000000000000000000000000000000000000000000000000 PUSH1 0x20 DUP3 ADD MSTORE POP JUMP JUMPDEST PUSH0 PUSH2 0x1802 PUSH1 0x26 DUP4 PUSH2 0x1169 JUMP JUMPDEST SWAP2 POP PUSH2 0x180D DUP3 PUSH2 0x17A8 JUMP JUMPDEST PUSH1 0x40 DUP3 ADD SWAP1 POP SWAP2 SWAP1 POP JUMP JUMPDEST PUSH0 PUSH1 0x20 DUP3 ADD SWAP1 POP DUP2 DUP2 SUB PUSH0 DUP4 ADD MSTORE PUSH2 0x182F DUP2 PUSH2 0x17F6 JUMP JUMPDEST SWAP1 POP SWAP2 SWAP1 POP JUMP JUMPDEST PUSH32 0x526F6C6C20616C72656164792063616C63756C61746564000000000000000000 PUSH0 DUP3 ADD MSTORE POP JUMP JUMPDEST PUSH0 PUSH2 0x186A PUSH1 0x17 DUP4 PUSH2 0x1169 JUMP JUMPDEST SWAP2 POP PUSH2 0x1875 DUP3 PUSH2 0x1836 JUMP JUMPDEST PUSH1 0x20 DUP3 ADD SWAP1 POP SWAP2 SWAP1 POP JUMP JUMPDEST PUSH0 PUSH1 0x20 DUP3 ADD SWAP1 POP DUP2 DUP2 SUB PUSH0 DUP4 ADD MSTORE PUSH2 0x1897 DUP2 PUSH2 0x185E JUMP JUMPDEST SWAP1 POP SWAP2 SWAP1 POP JUMP JUMPDEST PUSH32 0x4E487B7100000000000000000000000000000000000000000000000000000000 PUSH0 MSTORE PUSH1 0x11 PUSH1 0x4 MSTORE PUSH1 0x24 PUSH0 REVERT JUMPDEST PUSH0 PUSH2 0x18D5 DUP3 PUSH2 0x1101 JUMP JUMPDEST SWAP2 POP PUSH2 0x18E0 DUP4 PUSH2 0x1101 JUMP JUMPDEST SWAP3 POP DUP3 DUP3 ADD SWAP1 POP DUP1 DUP3 GT ISZERO PUSH2 0x18F8 JUMPI PUSH2 0x18F7 PUSH2 0x189E JUMP JUMPDEST JUMPDEST SWAP3 SWAP2 POP POP JUMP JUMPDEST PUSH32 0x4E487B7100000000000000000000000000000000000000000000000000000000 PUSH0 MSTORE PUSH1 0x12 PUSH1 0x4 MSTORE PUSH1 0x24 PUSH0 REVERT JUMPDEST PUSH0 PUSH2 0x1935 DUP3 PUSH2 0x1101 JUMP JUMPDEST SWAP2 POP PUSH2 0x1940 DUP4 PUSH2 0x1101 JUMP JUMPDEST SWAP3 POP DUP3 PUSH2 0x1950 JUMPI PUSH2 0x194F PUSH2 0x18FE JUMP JUMPDEST JUMPDEST DUP3 DUP3 MOD SWAP1 POP SWAP3 SWAP2 POP POP JUMP JUMPDEST PUSH0 PUSH1 0x40 DUP3 ADD SWAP1 POP PUSH2 0x196E PUSH0 DUP4 ADD DUP6 PUSH2 0x127A JUMP JUMPDEST DUP2 DUP2 SUB PUSH1 0x20 DUP4 ADD MSTORE PUSH2 0x1980 DUP2 DUP5 PUSH2 0x1197 JUMP JUMPDEST SWAP1 POP SWAP4 SWAP3 POP POP POP JUMP JUMPDEST PUSH32 0x44696365206E6F7420726F6C6C65642079657400000000000000000000000000 PUSH0 DUP3 ADD MSTORE POP JUMP JUMPDEST PUSH0 PUSH2 0x19BD PUSH1 0x13 DUP4 PUSH2 0x1169 JUMP JUMPDEST SWAP2 POP PUSH2 0x19C8 DUP3 PUSH2 0x1989 JUMP JUMPDEST PUSH1 0x20 DUP3 ADD SWAP1 POP SWAP2 SWAP1 POP JUMP JUMPDEST PUSH0 PUSH1 0x20 DUP3 ADD SWAP1 POP DUP2 DUP2 SUB PUSH0 DUP4 ADD MSTORE PUSH2 0x19EA DUP2 PUSH2 0x19B1 JUMP JUMPDEST SWAP1 POP SWAP2 SWAP1 POP JUMP JUMPDEST PUSH32 0x596F7520617265206E6F74206120706C61796572000000000000000000000000 PUSH0 DUP3 ADD MSTORE POP JUMP JUMPDEST PUSH0 PUSH2 0x1A25 PUSH1 0x14 DUP4 PUSH2 0x1169 JUMP JUMPDEST SWAP2 POP PUSH2 0x1A30 DUP3 PUSH2 0x19F1 JUMP JUMPDEST PUSH1 0x20 DUP3 ADD SWAP1 POP SWAP2 SWAP1 POP JUMP JUMPDEST PUSH0 PUSH1 0x20 DUP3 ADD SWAP1 POP DUP2 DUP2 SUB PUSH0 DUP4 ADD MSTORE PUSH2 0x1A52 DUP2 PUSH2 0x1A19 JUMP JUMPDEST SWAP1 POP SWAP2 SWAP1 POP JUMP JUMPDEST PUSH32 0x47616D6520686173206E6F742073746172746564207965740000000000000000 PUSH0 DUP3 ADD MSTORE POP JUMP JUMPDEST PUSH0 PUSH2 0x1A8D PUSH1 0x18 DUP4 PUSH2 0x1169 JUMP JUMPDEST SWAP2 POP PUSH2 0x1A98 DUP3 PUSH2 0x1A59 JUMP JUMPDEST PUSH1 0x20 DUP3 ADD SWAP1 POP SWAP2 SWAP1 POP JUMP JUMPDEST PUSH0 PUSH1 0x20 DUP3 ADD SWAP1 POP DUP2 DUP2 SUB PUSH0 DUP4 ADD MSTORE PUSH2 0x1ABA DUP2 PUSH2 0x1A81 JUMP JUMPDEST SWAP1 POP SWAP2 SWAP1 POP JUMP JUMPDEST PUSH32 0x416E737765722063616E6E6F7420626520656D70747900000000000000000000 PUSH0 DUP3 ADD MSTORE POP JUMP JUMPDEST PUSH0 PUSH2 0x1AF5 PUSH1 0x16 DUP4 PUSH2 0x1169 JUMP JUMPDEST SWAP2 POP PUSH2 0x1B00 DUP3 PUSH2 0x1AC1 JUMP JUMPDEST PUSH1 0x20 DUP3 ADD SWAP1 POP SWAP2 SWAP1 POP JUMP JUMPDEST PUSH0 PUSH1 0x20 DUP3 ADD SWAP1 POP DUP2 DUP2 SUB PUSH0 DUP4 ADD MSTORE PUSH2 0x1B22 DUP2 PUSH2 0x1AE9 JUMP JUMPDEST SWAP1 POP SWAP2 SWAP1 POP JUMP JUMPDEST PUSH32 0x596F7520616C7265616479207375626D69747465640000000000000000000000 PUSH0 DUP3 ADD MSTORE POP JUMP JUMPDEST PUSH0 PUSH2 0x1B5D PUSH1 0x15 DUP4 PUSH2 0x1169 JUMP JUMPDEST SWAP2 POP PUSH2 0x1B68 DUP3 PUSH2 0x1B29 JUMP JUMPDEST PUSH1 0x20 DUP3 ADD SWAP1 POP SWAP2 SWAP1 POP JUMP JUMPDEST PUSH0 PUSH1 0x20 DUP3 ADD SWAP1 POP DUP2 DUP2 SUB PUSH0 DUP4 ADD MSTORE PUSH2 0x1B8A DUP2 PUSH2 0x1B51 JUMP JUMPDEST SWAP1 POP SWAP2 SWAP1 POP JUMP JUMPDEST PUSH32 0x496E76616C696420706C6179657220696E646578202830206F72203129000000 PUSH0 DUP3 ADD MSTORE POP JUMP JUMPDEST PUSH0 PUSH2 0x1BC5 PUSH1 0x1D DUP4 PUSH2 0x1169 JUMP JUMPDEST SWAP2 POP PUSH2 0x1BD0 DUP3 PUSH2 0x1B91 JUMP JUMPDEST PUSH1 0x20 DUP3 ADD SWAP1 POP SWAP2 SWAP1 POP JUMP JUMPDEST PUSH0 PUSH1 0x20 DUP3 ADD SWAP1 POP DUP2 DUP2 SUB PUSH0 DUP4 ADD MSTORE PUSH2 0x1BF2 DUP2 PUSH2 0x1BB9 JUMP JUMPDEST SWAP1 POP SWAP2 SWAP1 POP JUMP JUMPDEST PUSH32 0x536C6F7420616C72656164792074616B656E0000000000000000000000000000 PUSH0 DUP3 ADD MSTORE POP JUMP JUMPDEST PUSH0 PUSH2 0x1C2D PUSH1 0x12 DUP4 PUSH2 0x1169 JUMP JUMPDEST SWAP2 POP PUSH2 0x1C38 DUP3 PUSH2 0x1BF9 JUMP JUMPDEST PUSH1 0x20 DUP3 ADD SWAP1 POP SWAP2 SWAP1 POP JUMP JUMPDEST PUSH0 PUSH1 0x20 DUP3 ADD SWAP1 POP DUP2 DUP2 SUB PUSH0 DUP4 ADD MSTORE PUSH2 0x1C5A DUP2 PUSH2 0x1C21 JUMP JUMPDEST SWAP1 POP SWAP2 SWAP1 POP JUMP JUMPDEST PUSH0 PUSH2 0x1C6B DUP3 PUSH2 0x1101 JUMP JUMPDEST SWAP2 POP PUSH2 0x1C76 DUP4 PUSH2 0x1101 JUMP JUMPDEST SWAP3 POP DUP3 DUP3 SUB SWAP1 POP DUP2 DUP2 GT ISZERO PUSH2 0x1C8E JUMPI PUSH2 0x1C8D PUSH2 0x189E JUMP JUMPDEST JUMPDEST SWAP3 SWAP2 POP POP JUMP JUMPDEST PUSH32 0x596F7520616C7265616479206A6F696E656420746865206F7468657220736C6F PUSH0 DUP3 ADD MSTORE PUSH32 0x7400000000000000000000000000000000000000000000000000000000000000 PUSH1 0x20 DUP3 ADD MSTORE POP JUMP JUMPDEST PUSH0 PUSH2 0x1CEE PUSH1 0x21 DUP4 PUSH2 0x1169 JUMP JUMPDEST SWAP2 POP PUSH2 0x1CF9 DUP3 PUSH2 0x1C94 JUMP JUMPDEST PUSH1 0x40 DUP3 ADD SWAP1 POP SWAP2 SWAP1 POP JUMP JUMPDEST PUSH0 PUSH1 0x20 DUP3 ADD SWAP1 POP DUP2 DUP2 SUB PUSH0 DUP4 ADD MSTORE PUSH2 0x1D1B DUP2 PUSH2 0x1CE2 JUMP JUMPDEST SWAP1 POP SWAP2 SWAP1 POP JUMP INVALID LOG2 PUSH5 0x6970667358 0x22 SLT KECCAK256 SDIV SMOD SWAP12 0x2F 0xD SGT 0xC6 0xD2 PUSH14 0x5B5599012CEFA186585D95902BCC 0x23 BLOCKHASH 0xDD PUSH3 0x6D7D4 0x2C 0xCC PUSH5 0x736F6C6343 STOP ADDMOD 0x1F STOP CALLER "
		},
		"gasEstimates": {
			"creation": {
				"codeDepositCost": "1502400",
				"executionCost": "infinite",
				"totalCost": "infinite"
			},
			"external": {
				"answers(uint256)": "infinite",
				"answersSubmitted()": "2561",
				"diceRoll()": "2470",
				"gameStarted()": "2534",
				"getAnswer(uint256)": "infinite",
				"getPlayerAddress(uint256)": "2828",
				"getWinner()": "infinite",
				"joinGame(uint256)": "infinite",
				"owner()": "infinite",
				"players(uint256)": "2883",
				"question()": "infinite",
				"resetGame()": "infinite",
				"rollDice()": "infinite",
				"setQuestion(string)": "infinite",
				"submitAnswer(string)": "infinite"
			}
		},
		"methodIdentifiers": {
			"answers(uint256)": "17599cc5",
			"answersSubmitted()": "d16efed8",
			"diceRoll()": "70bddc80",
			"gameStarted()": "5e123ce4",
			"getAnswer(uint256)": "b5ab58dc",
			"getPlayerAddress(uint256)": "65225665",
			"getWinner()": "8e7ea5b2",
			"joinGame(uint256)": "efaa55a0",
			"owner()": "8da5cb5b",
			"players(uint256)": "f71d96cb",
			"question()": "3fad9ae0",
			"resetGame()": "bb472219",
			"rollDice()": "837e7cc6",
			"setQuestion(string)": "799e18c0",
			"submitAnswer(string)": "bb3e3159"
		}
	},
	"abi": [
		{
			"inputs": [],
			"stateMutability": "nonpayable",
			"type": "constructor"
		},
		{
			"anonymous": false,
			"inputs": [
				{
					"indexed": true,
					"internalType": "uint256",
					"name": "playerIndex",
					"type": "uint256"
				},
				{
					"indexed": false,
					"internalType": "string",
					"name": "answer",
					"type": "string"
				}
			],
			"name": "AnswerSubmitted",
			"type": "event"
		},
		{
			"anonymous": false,
			"inputs": [
				{
					"indexed": false,
					"internalType": "uint256",
					"name": "roll",
					"type": "uint256"
				},
				{
					"indexed": false,
					"internalType": "string",
					"name": "winner",
					"type": "string"
				}
			],
			"name": "DiceRolled",
			"type": "event"
		},
		{
			"anonymous": false,
			"inputs": [
				{
					"indexed": true,
					"internalType": "uint256",
					"name": "playerIndex",
					"type": "uint256"
				},
				{
					"indexed": false,
					"internalType": "address",
					"name": "player",
					"type": "address"
				}
			],
			"name": "PlayerJoined",
			"type": "event"
		},
		{
			"anonymous": false,
			"inputs": [
				{
					"indexed": false,
					"internalType": "string",
					"name": "question",
					"type": "string"
				}
			],
			"name": "QuestionSet",
			"type": "event"
		},
		{
			"inputs": [
				{
					"internalType": "uint256",
					"name": "",
					"type": "uint256"
				}
			],
			"name": "answers",
			"outputs": [
				{
					"internalType": "string",
					"name": "",
					"type": "string"
				}
			],
			"stateMutability": "view",
			"type": "function"
		},
		{
			"inputs": [],
			"name": "answersSubmitted",
			"outputs": [
				{
					"internalType": "bool",
					"name": "",
					"type": "bool"
				}
			],
			"stateMutability": "view",
			"type": "function"
		},
		{
			"inputs": [],
			"name": "diceRoll",
			"outputs": [
				{
					"internalType": "uint256",
					"name": "",
					"type": "uint256"
				}
			],
			"stateMutability": "view",
			"type": "function"
		},
		{
			"inputs": [],
			"name": "gameStarted",
			"outputs": [
				{
					"internalType": "bool",
					"name": "",
					"type": "bool"
				}
			],
			"stateMutability": "view",
			"type": "function"
		},
		{
			"inputs": [
				{
					"internalType": "uint256",
					"name": "_index",
					"type": "uint256"
				}
			],
			"name": "getAnswer",
			"outputs": [
				{
					"internalType": "string",
					"name": "",
					"type": "string"
				}
			],
			"stateMutability": "view",
			"type": "function"
		},
		{
			"inputs": [
				{
					"internalType": "uint256",
					"name": "_index",
					"type": "uint256"
				}
			],
			"name": "getPlayerAddress",
			"outputs": [
				{
					"internalType": "address",
					"name": "",
					"type": "address"
				}
			],
			"stateMutability": "view",
			"type": "function"
		},
		{
			"inputs": [],
			"name": "getWinner",
			"outputs": [
				{
					"internalType": "string",
					"name": "",
					"type": "string"
				}
			],
			"stateMutability": "view",
			"type": "function"
		},
		{
			"inputs": [
				{
					"internalType": "uint256",
					"name": "_playerIndex",
					"type": "uint256"
				}
			],
			"name": "joinGame",
			"outputs": [],
			"stateMutability": "nonpayable",
			"type": "function"
		},
		{
			"inputs": [],
			"name": "owner",
			"outputs": [
				{
					"internalType": "address",
					"name": "",
					"type": "address"
				}
			],
			"stateMutability": "view",
			"type": "function"
		},
		{
			"inputs": [
				{
					"internalType": "uint256",
					"name": "",
					"type": "uint256"
				}
			],
			"name": "players",
			"outputs": [
				{
					"internalType": "address",
					"name": "",
					"type": "address"
				}
			],
			"stateMutability": "view",
			"type": "function"
		},
		{
			"inputs": [],
			"name": "question",
			"outputs": [
				{
					"internalType": "string",
					"name": "",
					"type": "string"
				}
			],
			"stateMutability": "view",
			"type": "function"
		},
		{
			"inputs": [],
			"name": "resetGame",
			"outputs": [],
			"stateMutability": "nonpayable",
			"type": "function"
		},
		{
			"inputs": [],
			"name": "rollDice",
			"outputs": [],
			"stateMutability": "nonpayable",
			"type": "function"
		},
		{
			"inputs": [
				{
					"internalType": "string",
					"name": "_question",
					"type": "string"
				}
			],
			"name": "setQuestion",
			"outputs": [],
			"stateMutability": "nonpayable",
			"type": "function"
		},
		{
			"inputs": [
				{
					"internalType": "string",
					"name": "_answer",
					"type": "string"
				}
			],
			"name": "submitAnswer",
			"outputs": [],
			"stateMutability": "nonpayable",
			"type": "function"
		}
	]
}