{
	"data": {
		"bytecode": {
			"linkReferences": {},
			"object": "6080604052348015600e575f5ffd5b506101108061001c5f395ff3fe608060405260043610601b575f3560e01c8063d0e30db014601f575b5f5ffd5b60256027565b005b5f34116066576040517f08c379a0000000000000000000000000000000000000000000000000000000008152600401605d9060be565b60405180910390fd5b565b5f82825260208201905092915050565b7f4e6f204554482073656e740000000000000000000000000000000000000000005f82015250565b5f60aa600b836068565b915060b3826078565b602082019050919050565b5f6020820190508181035f83015260d38160a0565b905091905056fea2646970667358221220c6ff4774d44399afcbbd924f27eaa259f7262d00d94d307e9078fa14f048923164736f6c63430008220033",
			"opcodes": "PUSH1 0x80 PUSH1 0x40 MSTORE CALLVALUE DUP1 ISZERO PUSH1 0xE JUMPI PUSH0 PUSH0 REVERT JUMPDEST POP PUSH2 0x110 DUP1 PUSH2 0x1C PUSH0 CODECOPY PUSH0 RETURN INVALID PUSH1 0x80 PUSH1 0x40 MSTORE PUSH1 0x4 CALLDATASIZE LT PUSH1 0x1B JUMPI PUSH0 CALLDATALOAD PUSH1 0xE0 SHR DUP1 PUSH4 0xD0E30DB0 EQ PUSH1 0x1F JUMPI JUMPDEST PUSH0 PUSH0 REVERT JUMPDEST PUSH1 0x25 PUSH1 0x27 JUMP JUMPDEST STOP JUMPDEST PUSH0 CALLVALUE GT PUSH1 0x66 JUMPI PUSH1 0x40 MLOAD PUSH32 0x8C379A000000000000000000000000000000000000000000000000000000000 DUP2 MSTORE PUSH1 0x4 ADD PUSH1 0x5D SWAP1 PUSH1 0xBE JUMP JUMPDEST PUSH1 0x40 MLOAD DUP1 SWAP2 SUB SWAP1 REVERT JUMPDEST JUMP JUMPDEST PUSH0 DUP3 DUP3 MSTORE PUSH1 0x20 DUP3 ADD SWAP1 POP SWAP3 SWAP2 POP POP JUMP JUMPDEST PUSH32 0x4E6F204554482073656E74000000000000000000000000000000000000000000 PUSH0 DUP3 ADD MSTORE POP JUMP JUMPDEST PUSH0 PUSH1 0xAA PUSH1 0xB DUP4 PUSH1 0x68 JUMP JUMPDEST SWAP2 POP PUSH1 0xB3 DUP3 PUSH1 0x78 JUMP JUMPDEST PUSH1 0x20 DUP3 ADD SWAP1 POP SWAP2 SWAP1 POP JUMP JUMPDEST PUSH0 PUSH1 0x20 DUP3 ADD SWAP1 POP DUP2 DUP2 SUB PUSH0 DUP4 ADD MSTORE PUSH1 0xD3 DUP2 PUSH1 0xA0 JUMP JUMPDEST SWAP1 POP SWAP2 SWAP1 POP JUMP INVALID LOG2 PUSH5 0x6970667358 0x22 SLT KECCAK256 0xC6 SELFDESTRUCT SELFBALANCE PUSH21 0xD44399AFCBBD924F27EAA259F7262D00D94D307E90 PUSH25 0xFA14F048923164736F6C634300082200330000000000000000 "
		},
		"gasEstimates": {
			"creation": {
				"codeDepositCost": "54400",
				"executionCost": "103",
				"totalCost": "54503"
			},
			"external": {
				"deposit()": "402"
			}
		},
		"methodIdentifiers": {
			"deposit()": "d0e30db0"
		}
	},
	"abi": [
		{
			"inputs": [],
			"name": "deposit",
			"outputs": [],
			"stateMutability": "payable",
			"type": "function"
		}
	]
}